{
  "_format": "hh-sol-artifact-1",
  "contractName": "ChildChainManager",
  "sourceName": "contracts/child/ChildChainManager/ChildChainManager.sol",
  "abi": [
    {
      "anonymous": false,
      "inputs": [
        {
          "indexed": true,
          "internalType": "bytes32",
          "name": "role",
          "type": "bytes32"
        },
        {
          "indexed": true,
          "internalType": "bytes32",
          "name": "previousAdminRole",
          "type": "bytes32"
        },
        {
          "indexed": true,
          "internalType": "bytes32",
          "name": "newAdminRole",
          "type": "bytes32"
        }
      ],
      "name": "RoleAdminChanged",
      "type": "event"
    },
    {
      "anonymous": false,
      "inputs": [
        {
          "indexed": true,
          "internalType": "bytes32",
          "name": "role",
          "type": "bytes32"
        },
        {
          "indexed": true,
          "internalType": "address",
          "name": "account",
          "type": "address"
        },
        {
          "indexed": true,
          "internalType": "address",
          "name": "sender",
          "type": "address"
        }
      ],
      "name": "RoleGranted",
      "type": "event"
    },
    {
      "anonymous": false,
      "inputs": [
        {
          "indexed": true,
          "internalType": "bytes32",
          "name": "role",
          "type": "bytes32"
        },
        {
          "indexed": true,
          "internalType": "address",
          "name": "account",
          "type": "address"
        },
        {
          "indexed": true,
          "internalType": "address",
          "name": "sender",
          "type": "address"
        }
      ],
      "name": "RoleRevoked",
      "type": "event"
    },
    {
      "anonymous": false,
      "inputs": [
        {
          "indexed": true,
          "internalType": "address",
          "name": "rootToken",
          "type": "address"
        },
        {
          "indexed": true,
          "internalType": "address",
          "name": "childToken",
          "type": "address"
        }
      ],
      "name": "TokenMapped",
      "type": "event"
    },
    {
      "inputs": [],
      "name": "DEFAULT_ADMIN_ROLE",
      "outputs": [
        {
          "internalType": "bytes32",
          "name": "",
          "type": "bytes32"
        }
      ],
      "stateMutability": "view",
      "type": "function"
    },
    {
      "inputs": [],
      "name": "DEPOSIT",
      "outputs": [
        {
          "internalType": "bytes32",
          "name": "",
          "type": "bytes32"
        }
      ],
      "stateMutability": "view",
      "type": "function"
    },
    {
      "inputs": [],
      "name": "MAPPER_ROLE",
      "outputs": [
        {
          "internalType": "bytes32",
          "name": "",
          "type": "bytes32"
        }
      ],
      "stateMutability": "view",
      "type": "function"
    },
    {
      "inputs": [],
      "name": "MAP_TOKEN",
      "outputs": [
        {
          "internalType": "bytes32",
          "name": "",
          "type": "bytes32"
        }
      ],
      "stateMutability": "view",
      "type": "function"
    },
    {
      "inputs": [],
      "name": "STATE_SYNCER_ROLE",
      "outputs": [
        {
          "internalType": "bytes32",
          "name": "",
          "type": "bytes32"
        }
      ],
      "stateMutability": "view",
      "type": "function"
    },
    {
      "inputs": [
        {
          "internalType": "address",
          "name": "",
          "type": "address"
        }
      ],
      "name": "childToRootToken",
      "outputs": [
        {
          "internalType": "address",
          "name": "",
          "type": "address"
        }
      ],
      "stateMutability": "view",
      "type": "function"
    },
    {
      "inputs": [
        {
          "internalType": "address",
          "name": "rootToken",
          "type": "address"
        },
        {
          "internalType": "address",
          "name": "childToken",
          "type": "address"
        }
      ],
      "name": "cleanMapToken",
      "outputs": [],
      "stateMutability": "nonpayable",
      "type": "function"
    },
    {
      "inputs": [
        {
          "internalType": "bytes32",
          "name": "role",
          "type": "bytes32"
        }
      ],
      "name": "getRoleAdmin",
      "outputs": [
        {
          "internalType": "bytes32",
          "name": "",
          "type": "bytes32"
        }
      ],
      "stateMutability": "view",
      "type": "function"
    },
    {
      "inputs": [
        {
          "internalType": "bytes32",
          "name": "role",
          "type": "bytes32"
        },
        {
          "internalType": "uint256",
          "name": "index",
          "type": "uint256"
        }
      ],
      "name": "getRoleMember",
      "outputs": [
        {
          "internalType": "address",
          "name": "",
          "type": "address"
        }
      ],
      "stateMutability": "view",
      "type": "function"
    },
    {
      "inputs": [
        {
          "internalType": "bytes32",
          "name": "role",
          "type": "bytes32"
        }
      ],
      "name": "getRoleMemberCount",
      "outputs": [
        {
          "internalType": "uint256",
          "name": "",
          "type": "uint256"
        }
      ],
      "stateMutability": "view",
      "type": "function"
    },
    {
      "inputs": [
        {
          "internalType": "bytes32",
          "name": "role",
          "type": "bytes32"
        },
        {
          "internalType": "address",
          "name": "account",
          "type": "address"
        }
      ],
      "name": "grantRole",
      "outputs": [],
      "stateMutability": "nonpayable",
      "type": "function"
    },
    {
      "inputs": [
        {
          "internalType": "bytes32",
          "name": "role",
          "type": "bytes32"
        },
        {
          "internalType": "address",
          "name": "account",
          "type": "address"
        }
      ],
      "name": "hasRole",
      "outputs": [
        {
          "internalType": "bool",
          "name": "",
          "type": "bool"
        }
      ],
      "stateMutability": "view",
      "type": "function"
    },
    {
      "inputs": [
        {
          "internalType": "address",
          "name": "_owner",
          "type": "address"
        }
      ],
      "name": "initialize",
      "outputs": [],
      "stateMutability": "nonpayable",
      "type": "function"
    },
    {
      "inputs": [
        {
          "internalType": "address",
          "name": "rootToken",
          "type": "address"
        },
        {
          "internalType": "address",
          "name": "childToken",
          "type": "address"
        }
      ],
      "name": "mapToken",
      "outputs": [],
      "stateMutability": "nonpayable",
      "type": "function"
    },
    {
      "inputs": [
        {
          "internalType": "uint256",
          "name": "",
          "type": "uint256"
        },
        {
          "internalType": "bytes",
          "name": "data",
          "type": "bytes"
        }
      ],
      "name": "onStateReceive",
      "outputs": [],
      "stateMutability": "nonpayable",
      "type": "function"
    },
    {
      "inputs": [
        {
          "internalType": "bytes32",
          "name": "role",
          "type": "bytes32"
        },
        {
          "internalType": "address",
          "name": "account",
          "type": "address"
        }
      ],
      "name": "renounceRole",
      "outputs": [],
      "stateMutability": "nonpayable",
      "type": "function"
    },
    {
      "inputs": [
        {
          "internalType": "bytes32",
          "name": "role",
          "type": "bytes32"
        },
        {
          "internalType": "address",
          "name": "account",
          "type": "address"
        }
      ],
      "name": "revokeRole",
      "outputs": [],
      "stateMutability": "nonpayable",
      "type": "function"
    },
    {
      "inputs": [
        {
          "internalType": "address",
          "name": "",
          "type": "address"
        }
      ],
      "name": "rootToChildToken",
      "outputs": [
        {
          "internalType": "address",
          "name": "",
          "type": "address"
        }
      ],
      "stateMutability": "view",
      "type": "function"
    }
  ],
  "bytecode": "0x608060405260008060006101000a81548160ff02191690831515021790555034801561002a57600080fd5b50611feb8061003a6000396000f3fe608060405234801561001057600080fd5b50600436106101165760003560e01c8063886a69ba116100a2578063c4d66de811610071578063c4d66de81461051e578063ca15c87314610562578063d547741f146105a4578063d81c8e52146105f2578063ea60c7c41461061057610116565b8063886a69ba146104045780639010d07c1461042257806391d148541461049a578063a217fddf1461050057610116565b806336568abe116100e957806336568abe1461029257806347400269146102e05780634dee449814610344578063568b80b5146103625780636e86b7701461038057610116565b80630c3894bb1461011b578063248a9ca31461017f57806326c53bea146101c15780632f2ff15d14610244575b600080fd5b61017d6004803603604081101561013157600080fd5b81019080803573ffffffffffffffffffffffffffffffffffffffff169060200190929190803573ffffffffffffffffffffffffffffffffffffffff169060200190929190505050610694565b005b6101ab6004803603602081101561019557600080fd5b81019080803590602001909291905050506108fe565b6040518082815260200191505060405180910390f35b610242600480360360408110156101d757600080fd5b8101908080359060200190929190803590602001906401000000008111156101fe57600080fd5b82018360208201111561021057600080fd5b8035906020019184600183028401116401000000008311171561023257600080fd5b909192939192939050505061091e565b005b6102906004803603604081101561025a57600080fd5b8101908080359060200190929190803573ffffffffffffffffffffffffffffffffffffffff169060200190929190505050610c20565b005b6102de600480360360408110156102a857600080fd5b8101908080359060200190929190803573ffffffffffffffffffffffffffffffffffffffff169060200190929190505050610caa565b005b610342600480360360408110156102f657600080fd5b81019080803573ffffffffffffffffffffffffffffffffffffffff169060200190929190803573ffffffffffffffffffffffffffffffffffffffff169060200190929190505050610d43565b005b61034c610e5f565b6040518082815260200191505060405180910390f35b61036a610e98565b6040518082815260200191505060405180910390f35b6103c26004803603602081101561039657600080fd5b81019080803573ffffffffffffffffffffffffffffffffffffffff169060200190929190505050610ed1565b604051808273ffffffffffffffffffffffffffffffffffffffff1673ffffffffffffffffffffffffffffffffffffffff16815260200191505060405180910390f35b61040c610f04565b6040518082815260200191505060405180910390f35b6104586004803603604081101561043857600080fd5b810190808035906020019092919080359060200190929190505050610f3d565b604051808273ffffffffffffffffffffffffffffffffffffffff1673ffffffffffffffffffffffffffffffffffffffff16815260200191505060405180910390f35b6104e6600480360360408110156104b057600080fd5b8101908080359060200190929190803573ffffffffffffffffffffffffffffffffffffffff169060200190929190505050610f6f565b604051808215151515815260200191505060405180910390f35b610508610fa1565b6040518082815260200191505060405180910390f35b6105606004803603602081101561053457600080fd5b81019080803573ffffffffffffffffffffffffffffffffffffffff169060200190929190505050610fa8565b005b61058e6004803603602081101561057857600080fd5b8101908080359060200190929190505050611110565b6040518082815260200191505060405180910390f35b6105f0600480360360408110156105ba57600080fd5b8101908080359060200190929190803573ffffffffffffffffffffffffffffffffffffffff169060200190929190505050611137565b005b6105fa6111c1565b6040518082815260200191505060405180910390f35b6106526004803603602081101561062657600080fd5b81019080803573ffffffffffffffffffffffffffffffffffffffff1690602001909291905050506111fa565b604051808273ffffffffffffffffffffffffffffffffffffffff1673ffffffffffffffffffffffffffffffffffffffff16815260200191505060405180910390f35b60405180807f4d41505045525f524f4c45000000000000000000000000000000000000000000815250600b01905060405180910390206106db816106d661122d565b610f6f565b6002906107a0576040517f08c379a000000000000000000000000000000000000000000000000000000000815260040180806020018281038252838181546001816001161561010002031660029004815260200191508054600181600116156101000203166002900480156107915780601f1061076657610100808354040283529160200191610791565b820191906000526020600020905b81548152906001019060200180831161077457829003601f168201915b50509250505060405180910390fd5b506000600360008573ffffffffffffffffffffffffffffffffffffffff1673ffffffffffffffffffffffffffffffffffffffff16815260200190815260200160002060006101000a81548173ffffffffffffffffffffffffffffffffffffffff021916908373ffffffffffffffffffffffffffffffffffffffff1602179055506000600460008473ffffffffffffffffffffffffffffffffffffffff1673ffffffffffffffffffffffffffffffffffffffff16815260200190815260200160002060006101000a81548173ffffffffffffffffffffffffffffffffffffffff021916908373ffffffffffffffffffffffffffffffffffffffff1602179055508173ffffffffffffffffffffffffffffffffffffffff168373ffffffffffffffffffffffffffffffffffffffff167f85920d35e6c72f6b2affffa04298b0cecfeba86e4a9f407df661f1cb8ab5e61760405160405180910390a3505050565b600060016000838152602001908152602001600020600201549050919050565b60405180807f53544154455f53594e4345525f524f4c45000000000000000000000000000000815250601101905060405180910390206109658161096061122d565b610f6f565b600290610a2a576040517f08c379a00000000000000000000000000000000000000000000000000000000081526004018080602001828103825283818154600181600116156101000203166002900481526020019150805460018160011615610100020316600290048015610a1b5780601f106109f057610100808354040283529160200191610a1b565b820191906000526020600020905b8154815290600101906020018083116109fe57829003601f168201915b50509250505060405180910390fd5b506000606084846040811015610a3f57600080fd5b810190808035906020019092919080359060200190640100000000811115610a6657600080fd5b820183602082011115610a7857600080fd5b80359060200191846001830284011164010000000083111715610a9a57600080fd5b91908080601f016020809104026020016040519081016040528093929190818152602001838380828437600081840152601f19601f8201169050808301925050505050505091929192905050509150915060405180807f4445504f5349540000000000000000000000000000000000000000000000000081525060070190506040518091039020821415610b3657610b3181611235565b610c18565b60405180807f4d41505f544f4b454e000000000000000000000000000000000000000000000081525060090190506040518091039020821415610bc657600080828060200190516060811015610b8b57600080fd5b810190808051906020019092919080519060200190929190805190602001909291905050505091509150610bbf828261151f565b5050610c17565b6040517f08c379a0000000000000000000000000000000000000000000000000000000008152600401808060200182810382526024815260200180611f106024913960400191505060405180910390fd5b5b505050505050565b610c476001600084815260200190815260200160002060020154610c4261122d565b610f6f565b610c9c576040517f08c379a000000000000000000000000000000000000000000000000000000000815260040180806020018281038252602f815260200180611ee1602f913960400191505060405180910390fd5b610ca68282611969565b5050565b610cb261122d565b73ffffffffffffffffffffffffffffffffffffffff168173ffffffffffffffffffffffffffffffffffffffff1614610d35576040517f08c379a000000000000000000000000000000000000000000000000000000000815260040180806020018281038252602f815260200180611f87602f913960400191505060405180910390fd5b610d3f82826119fd565b5050565b60405180807f4d41505045525f524f4c45000000000000000000000000000000000000000000815250600b0190506040518091039020610d8a81610d8561122d565b610f6f565b600290610e4f576040517f08c379a00000000000000000000000000000000000000000000000000000000081526004018080602001828103825283818154600181600116156101000203166002900481526020019150805460018160011615610100020316600290048015610e405780601f10610e1557610100808354040283529160200191610e40565b820191906000526020600020905b815481529060010190602001808311610e2357829003601f168201915b50509250505060405180910390fd5b50610e5a838361151f565b505050565b60405180807f53544154455f53594e4345525f524f4c450000000000000000000000000000008152506011019050604051809103902081565b60405180807f4d41505045525f524f4c45000000000000000000000000000000000000000000815250600b019050604051809103902081565b60046020528060005260406000206000915054906101000a900473ffffffffffffffffffffffffffffffffffffffff1681565b60405180807f4d41505f544f4b454e00000000000000000000000000000000000000000000008152506009019050604051809103902081565b6000610f678260016000868152602001908152602001600020600001611a9190919063ffffffff16565b905092915050565b6000610f998260016000868152602001908152602001600020600001611aab90919063ffffffff16565b905092915050565b6000801b81565b6000809054906101000a900460ff161561102a576040517f08c379a000000000000000000000000000000000000000000000000000000000815260040180806020018281038252600e8152602001807f616c726561647920696e6974656400000000000000000000000000000000000081525060200191505060405180910390fd5b6110686040518060400160405280601181526020017f4368696c64436861696e4d616e61676572000000000000000000000000000000815250611adb565b6110756000801b82611b87565b6110b460405180807f4d41505045525f524f4c45000000000000000000000000000000000000000000815250600b019050604051809103902082611b87565b6110f360405180807f53544154455f53594e4345525f524f4c450000000000000000000000000000008152506011019050604051809103902082611b87565b60016000806101000a81548160ff02191690831515021790555050565b600061113060016000848152602001908152602001600020600001611b95565b9050919050565b61115e600160008481526020019081526020016000206002015461115961122d565b610f6f565b6111b3576040517f08c379a0000000000000000000000000000000000000000000000000000000008152600401808060200182810382526030815260200180611f576030913960400191505060405180910390fd5b6111bd82826119fd565b5050565b60405180807f4445504f534954000000000000000000000000000000000000000000000000008152506007019050604051809103902081565b60036020528060005260406000206000915054906101000a900473ffffffffffffffffffffffffffffffffffffffff1681565b600033905090565b600080606083806020019051606081101561124f57600080fd5b8101908080519060200190929190805190602001909291908051604051939291908464010000000082111561128357600080fd5b8382019150602082018581111561129957600080fd5b82518660018202830111640100000000821117156112b657600080fd5b8083526020830192505050908051906020019080838360005b838110156112ea5780820151818401526020810190506112cf565b50505050905090810190601f1680156113175780820380516001836020036101000a031916815260200191505b506040525050509250925092506000600360008473ffffffffffffffffffffffffffffffffffffffff1673ffffffffffffffffffffffffffffffffffffffff16815260200190815260200160002060009054906101000a900473ffffffffffffffffffffffffffffffffffffffff169050600073ffffffffffffffffffffffffffffffffffffffff168173ffffffffffffffffffffffffffffffffffffffff16141561140e576040517f08c379a0000000000000000000000000000000000000000000000000000000008152600401808060200182810382526023815260200180611f346023913960400191505060405180910390fd5b60008190508073ffffffffffffffffffffffffffffffffffffffff1663cf2c52cb86856040518363ffffffff1660e01b8152600401808373ffffffffffffffffffffffffffffffffffffffff1673ffffffffffffffffffffffffffffffffffffffff16815260200180602001828103825283818151815260200191508051906020019080838360005b838110156114b2578082015181840152602081019050611497565b50505050905090810190601f1680156114df5780820380516001836020036101000a031916815260200191505b509350505050600060405180830381600087803b1580156114ff57600080fd5b505af1158015611513573d6000803e3d6000fd5b50505050505050505050565b6000600360008473ffffffffffffffffffffffffffffffffffffffff1673ffffffffffffffffffffffffffffffffffffffff16815260200190815260200160002060009054906101000a900473ffffffffffffffffffffffffffffffffffffffff1690506000600460008473ffffffffffffffffffffffffffffffffffffffff1673ffffffffffffffffffffffffffffffffffffffff16815260200190815260200160002060009054906101000a900473ffffffffffffffffffffffffffffffffffffffff169050600073ffffffffffffffffffffffffffffffffffffffff16600360008373ffffffffffffffffffffffffffffffffffffffff1673ffffffffffffffffffffffffffffffffffffffff16815260200190815260200160002060009054906101000a900473ffffffffffffffffffffffffffffffffffffffff1673ffffffffffffffffffffffffffffffffffffffff16146116fa576000600360008373ffffffffffffffffffffffffffffffffffffffff1673ffffffffffffffffffffffffffffffffffffffff16815260200190815260200160002060006101000a81548173ffffffffffffffffffffffffffffffffffffffff021916908373ffffffffffffffffffffffffffffffffffffffff1602179055505b600073ffffffffffffffffffffffffffffffffffffffff16600460008473ffffffffffffffffffffffffffffffffffffffff1673ffffffffffffffffffffffffffffffffffffffff16815260200190815260200160002060009054906101000a900473ffffffffffffffffffffffffffffffffffffffff1673ffffffffffffffffffffffffffffffffffffffff161461180d576000600460008473ffffffffffffffffffffffffffffffffffffffff1673ffffffffffffffffffffffffffffffffffffffff16815260200190815260200160002060006101000a81548173ffffffffffffffffffffffffffffffffffffffff021916908373ffffffffffffffffffffffffffffffffffffffff1602179055505b82600360008673ffffffffffffffffffffffffffffffffffffffff1673ffffffffffffffffffffffffffffffffffffffff16815260200190815260200160002060006101000a81548173ffffffffffffffffffffffffffffffffffffffff021916908373ffffffffffffffffffffffffffffffffffffffff16021790555083600460008573ffffffffffffffffffffffffffffffffffffffff1673ffffffffffffffffffffffffffffffffffffffff16815260200190815260200160002060006101000a81548173ffffffffffffffffffffffffffffffffffffffff021916908373ffffffffffffffffffffffffffffffffffffffff1602179055508273ffffffffffffffffffffffffffffffffffffffff168473ffffffffffffffffffffffffffffffffffffffff167f85920d35e6c72f6b2affffa04298b0cecfeba86e4a9f407df661f1cb8ab5e61760405160405180910390a350505050565b6119918160016000858152602001908152602001600020600001611baa90919063ffffffff16565b156119f95761199e61122d565b73ffffffffffffffffffffffffffffffffffffffff168173ffffffffffffffffffffffffffffffffffffffff16837f2f8788117e7eff1d82e926ec794901d17c78024a50270940304540a733656f0d60405160405180910390a45b5050565b611a258160016000858152602001908152602001600020600001611bda90919063ffffffff16565b15611a8d57611a3261122d565b73ffffffffffffffffffffffffffffffffffffffff168173ffffffffffffffffffffffffffffffffffffffff16837ff6391f5c32d9c69d2a47ea670b442974b53935d1edc7fd64eb21e047a839171b60405160405180910390a45b5050565b6000611aa08360000183611c0a565b60001c905092915050565b6000611ad3836000018373ffffffffffffffffffffffffffffffffffffffff1660001b611c8d565b905092915050565b806040516020018082805190602001908083835b60208310611b125780518252602082019150602081019050602083039250611aef565b6001836020036101000a038019825116818451168082178552505050505050905001807f3a20494e53554646494349454e545f5045524d495353494f4e53000000000000815250601a0191505060405160208183030381529060405260029080519060200190611b83929190611e19565b5050565b611b918282611969565b5050565b6000611ba382600001611cb0565b9050919050565b6000611bd2836000018373ffffffffffffffffffffffffffffffffffffffff1660001b611cc1565b905092915050565b6000611c02836000018373ffffffffffffffffffffffffffffffffffffffff1660001b611d31565b905092915050565b600081836000018054905011611c6b576040517f08c379a0000000000000000000000000000000000000000000000000000000008152600401808060200182810382526022815260200180611ebf6022913960400191505060405180910390fd5b826000018281548110611c7a57fe5b9060005260206000200154905092915050565b600080836001016000848152602001908152602001600020541415905092915050565b600081600001805490509050919050565b6000611ccd8383611c8d565b611d26578260000182908060018154018082558091505060019003906000526020600020016000909190919091505582600001805490508360010160008481526020019081526020016000208190555060019050611d2b565b600090505b92915050565b60008083600101600084815260200190815260200160002054905060008114611e0d5760006001820390506000600186600001805490500390506000866000018281548110611d7c57fe5b9060005260206000200154905080876000018481548110611d9957fe5b9060005260206000200181905550600183018760010160008381526020019081526020016000208190555086600001805480611dd157fe5b60019003818190600052602060002001600090559055866001016000878152602001908152602001600020600090556001945050505050611e13565b60009150505b92915050565b828054600181600116156101000203166002900490600052602060002090601f016020900481019282601f10611e5a57805160ff1916838001178555611e88565b82800160010185558215611e88579182015b82811115611e87578251825591602001919060010190611e6c565b5b509050611e959190611e99565b5090565b611ebb91905b80821115611eb7576000816000905550600101611e9f565b5090565b9056fe456e756d657261626c655365743a20696e646578206f7574206f6620626f756e6473416363657373436f6e74726f6c3a2073656e646572206d75737420626520616e2061646d696e20746f206772616e744368696c64436861696e4d616e616765723a20494e56414c49445f53594e435f545950454368696c64436861696e4d616e616765723a20544f4b454e5f4e4f545f4d4150504544416363657373436f6e74726f6c3a2073656e646572206d75737420626520616e2061646d696e20746f207265766f6b65416363657373436f6e74726f6c3a2063616e206f6e6c792072656e6f756e636520726f6c657320666f722073656c66a26469706673582212209a356193b43e73834628c79c0f23ed8c55ef447f89a5f97e71c30f1e3e38047264736f6c63430006060033",
  "linkReferences": {},
  "deployedLinkReferences": {}
}