{"abi":[{"type":"constructor","inputs":[],"stateMutability":"nonpayable"},{"type":"function","name":"DEFAULT_ADMIN_ROLE","inputs":[],"outputs":[{"name":"","type":"bytes32","internalType":"bytes32"}],"stateMutability":"view"},{"type":"function","name":"DEPOSITOR_ROLE","inputs":[],"outputs":[{"name":"","type":"bytes32","internalType":"bytes32"}],"stateMutability":"view"},{"type":"function","name":"ERC712_VERSION","inputs":[],"outputs":[{"name":"","type":"string","internalType":"string"}],"stateMutability":"view"},{"type":"function","name":"allowance","inputs":[{"name":"owner","type":"address","internalType":"address"},{"name":"spender","type":"address","internalType":"address"}],"outputs":[{"name":"","type":"uint256","internalType":"uint256"}],"stateMutability":"view"},{"type":"function","name":"approve","inputs":[{"name":"spender","type":"address","internalType":"address"},{"name":"amount","type":"uint256","internalType":"uint256"}],"outputs":[{"name":"","type":"bool","internalType":"bool"}],"stateMutability":"nonpayable"},{"type":"function","name":"balanceOf","inputs":[{"name":"account","type":"address","internalType":"address"}],"outputs":[{"name":"","type":"uint256","internalType":"uint256"}],"stateMutability":"view"},{"type":"function","name":"changeName","inputs":[{"name":"name_","type":"string","internalType":"string"}],"outputs":[],"stateMutability":"nonpayable"},{"type":"function","name":"decimals","inputs":[],"outputs":[{"name":"","type":"uint8","internalType":"uint8"}],"stateMutability":"view"},{"type":"function","name":"decreaseAllowance","inputs":[{"name":"spender","type":"address","internalType":"address"},{"name":"subtractedValue","type":"uint256","internalType":"uint256"}],"outputs":[{"name":"","type":"bool","internalType":"bool"}],"stateMutability":"nonpayable"},{"type":"function","name":"deposit","inputs":[{"name":"user","type":"address","internalType":"address"},{"name":"depositData","type":"bytes","internalType":"bytes"}],"outputs":[],"stateMutability":"nonpayable"},{"type":"function","name":"executeMetaTransaction","inputs":[{"name":"userAddress","type":"address","internalType":"address"},{"name":"functionSignature","type":"bytes","internalType":"bytes"},{"name":"sigR","type":"bytes32","internalType":"bytes32"},{"name":"sigS","type":"bytes32","internalType":"bytes32"},{"name":"sigV","type":"uint8","internalType":"uint8"}],"outputs":[{"name":"","type":"bytes","internalType":"bytes"}],"stateMutability":"payable"},{"type":"function","name":"getChainId","inputs":[],"outputs":[{"name":"","type":"uint256","internalType":"uint256"}],"stateMutability":"pure"},{"type":"function","name":"getDomainSeperator","inputs":[],"outputs":[{"name":"","type":"bytes32","internalType":"bytes32"}],"stateMutability":"view"},{"type":"function","name":"getNonce","inputs":[{"name":"user","type":"address","internalType":"address"}],"outputs":[{"name":"nonce","type":"uint256","internalType":"uint256"}],"stateMutability":"view"},{"type":"function","name":"getRoleAdmin","inputs":[{"name":"role","type":"bytes32","internalType":"bytes32"}],"outputs":[{"name":"","type":"bytes32","internalType":"bytes32"}],"stateMutability":"view"},{"type":"function","name":"getRoleMember","inputs":[{"name":"role","type":"bytes32","internalType":"bytes32"},{"name":"index","type":"uint256","internalType":"uint256"}],"outputs":[{"name":"","type":"address","internalType":"address"}],"stateMutability":"view"},{"type":"function","name":"getRoleMemberCount","inputs":[{"name":"role","type":"bytes32","internalType":"bytes32"}],"outputs":[{"name":"","type":"uint256","internalType":"uint256"}],"stateMutability":"view"},{"type":"function","name":"grantRole","inputs":[{"name":"role","type":"bytes32","internalType":"bytes32"},{"name":"account","type":"address","internalType":"address"}],"outputs":[],"stateMutability":"nonpayable"},{"type":"function","name":"hasRole","inputs":[{"name":"role","type":"bytes32","internalType":"bytes32"},{"name":"account","type":"address","internalType":"address"}],"outputs":[{"name":"","type":"bool","internalType":"bool"}],"stateMutability":"view"},{"type":"function","name":"increaseAllowance","inputs":[{"name":"spender","type":"address","internalType":"address"},{"name":"addedValue","type":"uint256","internalType":"uint256"}],"outputs":[{"name":"","type":"bool","internalType":"bool"}],"stateMutability":"nonpayable"},{"type":"function","name":"initialize","inputs":[{"name":"name_","type":"string","internalType":"string"},{"name":"symbol_","type":"string","internalType":"string"},{"name":"decimals_","type":"uint8","internalType":"uint8"},{"name":"childChainManager","type":"address","internalType":"address"}],"outputs":[],"stateMutability":"nonpayable"},{"type":"function","name":"name","inputs":[],"outputs":[{"name":"","type":"string","internalType":"string"}],"stateMutability":"view"},{"type":"function","name":"renounceRole","inputs":[{"name":"role","type":"bytes32","internalType":"bytes32"},{"name":"account","type":"address","internalType":"address"}],"outputs":[],"stateMutability":"nonpayable"},{"type":"function","name":"revokeRole","inputs":[{"name":"role","type":"bytes32","internalType":"bytes32"},{"name":"account","type":"address","internalType":"address"}],"outputs":[],"stateMutability":"nonpayable"},{"type":"function","name":"symbol","inputs":[],"outputs":[{"name":"","type":"string","internalType":"string"}],"stateMutability":"view"},{"type":"function","name":"totalSupply","inputs":[],"outputs":[{"name":"","type":"uint256","internalType":"uint256"}],"stateMutability":"view"},{"type":"function","name":"transfer","inputs":[{"name":"recipient","type":"address","internalType":"address"},{"name":"amount","type":"uint256","internalType":"uint256"}],"outputs":[{"name":"","type":"bool","internalType":"bool"}],"stateMutability":"nonpayable"},{"type":"function","name":"transferFrom","inputs":[{"name":"sender","type":"address","internalType":"address"},{"name":"recipient","type":"address","internalType":"address"},{"name":"amount","type":"uint256","internalType":"uint256"}],"outputs":[{"name":"","type":"bool","internalType":"bool"}],"stateMutability":"nonpayable"},{"type":"function","name":"withdraw","inputs":[{"name":"amount","type":"uint256","internalType":"uint256"}],"outputs":[],"stateMutability":"nonpayable"},{"type":"event","name":"Approval","inputs":[{"name":"owner","type":"address","indexed":true,"internalType":"address"},{"name":"spender","type":"address","indexed":true,"internalType":"address"},{"name":"value","type":"uint256","indexed":false,"internalType":"uint256"}],"anonymous":false},{"type":"event","name":"MetaTransactionExecuted","inputs":[{"name":"userAddress","type":"address","indexed":true,"internalType":"address"},{"name":"relayerAddress","type":"address","indexed":true,"internalType":"address payable"},{"name":"functionSignature","type":"bytes","indexed":false,"internalType":"bytes"}],"anonymous":false},{"type":"event","name":"RoleAdminChanged","inputs":[{"name":"role","type":"bytes32","indexed":true,"internalType":"bytes32"},{"name":"previousAdminRole","type":"bytes32","indexed":true,"internalType":"bytes32"},{"name":"newAdminRole","type":"bytes32","indexed":true,"internalType":"bytes32"}],"anonymous":false},{"type":"event","name":"RoleGranted","inputs":[{"name":"role","type":"bytes32","indexed":true,"internalType":"bytes32"},{"name":"account","type":"address","indexed":true,"internalType":"address"},{"name":"sender","type":"address","indexed":true,"internalType":"address"}],"anonymous":false},{"type":"event","name":"RoleRevoked","inputs":[{"name":"role","type":"bytes32","indexed":true,"internalType":"bytes32"},{"name":"account","type":"address","indexed":true,"internalType":"address"},{"name":"sender","type":"address","indexed":true,"internalType":"address"}],"anonymous":false},{"type":"event","name":"Transfer","inputs":[{"name":"from","type":"address","indexed":true,"internalType":"address"},{"name":"to","type":"address","indexed":true,"internalType":"address"},{"name":"value","type":"uint256","indexed":false,"internalType":"uint256"}],"anonymous":false}],"bytecode":{"object":"0x60806040526008805460ff191690553480156200001b57600080fd5b50604080516020808201808452600080845284519283019094529281528151919290916200004c9160039162000078565b5080516200006290600490602084019062000078565b50506005805460ff19166012179055506200011d565b828054600181600116156101000203166002900490600052602060002090601f016020900481019282601f10620000bb57805160ff1916838001178555620000eb565b82800160010185558215620000eb579182015b82811115620000eb578251825591602001919060010190620000ce565b50620000f9929150620000fd565b5090565b6200011a91905b80821115620000f9576000815560010162000104565b90565b612448806200012d6000396000f3fe6080604052600436106101c25760003560e01c806339509351116100f7578063a3b0b5a311610095578063cf2c52cb11610064578063cf2c52cb14610741578063d547741f146107cc578063dd62ed3e14610805578063de7ea79d14610840576101c2565b8063a3b0b5a314610690578063a457c2d7146106a5578063a9059cbb146106de578063ca15c87314610717576101c2565b80639010d07c116100d15780639010d07c146105e157806391d148541461062d57806395d89b4114610666578063a217fddf1461067b576101c2565b806339509351146104fa5780635353a2d81461053357806370a08231146105ae576101c2565b8063248a9ca3116101645780632f2ff15d1161013e5780632f2ff15d14610448578063313ce567146104815780633408e470146104ac57806336568abe146104c1576101c2565b8063248a9ca3146103bf5780632d0335ab146103e95780632e1a7d4d1461041c576101c2565b80630f7e5970116101a05780630f7e59701461032b57806318160ddd1461034057806320379ee51461036757806323b872dd1461037c576101c2565b806306fdde03146101c7578063095ea7b3146102515780630c53c51c1461029e575b600080fd5b3480156101d357600080fd5b506101dc61091d565b6040805160208082528351818301528351919283929083019185019080838360005b838110156102165781810151838201526020016101fe565b50505050905090810190601f1680156102435780820380516001836020036101000a031916815260200191505b509250505060405180910390f35b34801561025d57600080fd5b5061028a6004803603604081101561027457600080fd5b506001600160a01b0381351690602001356109b4565b604080519115158252519081900360200190f35b6101dc600480360360a08110156102b457600080fd5b6001600160a01b038235169190810190604081016020820135600160201b8111156102de57600080fd5b8201836020820111156102f057600080fd5b803590602001918460018302840111600160201b8311171561031157600080fd5b91935091508035906020810135906040013560ff166109d2565b34801561033757600080fd5b506101dc610c5b565b34801561034c57600080fd5b50610355610c78565b60408051918252519081900360200190f35b34801561037357600080fd5b50610355610c7e565b34801561038857600080fd5b5061028a6004803603606081101561039f57600080fd5b506001600160a01b03813581169160208101359091169060400135610c84565b3480156103cb57600080fd5b50610355600480360360208110156103e257600080fd5b5035610d11565b3480156103f557600080fd5b506103556004803603602081101561040c57600080fd5b50356001600160a01b0316610d26565b34801561042857600080fd5b506104466004803603602081101561043f57600080fd5b5035610d41565b005b34801561045457600080fd5b506104466004803603604081101561046b57600080fd5b50803590602001356001600160a01b0316610d55565b34801561048d57600080fd5b50610496610dc1565b6040805160ff9092168252519081900360200190f35b3480156104b857600080fd5b50610355610dca565b3480156104cd57600080fd5b50610446600480360360408110156104e457600080fd5b50803590602001356001600160a01b0316610dce565b34801561050657600080fd5b5061028a6004803603604081101561051d57600080fd5b506001600160a01b038135169060200135610e2f565b34801561053f57600080fd5b506104466004803603602081101561055657600080fd5b810190602081018135600160201b81111561057057600080fd5b82018360208201111561058257600080fd5b803590602001918460018302840111600160201b831117156105a357600080fd5b509092509050610e83565b3480156105ba57600080fd5b50610355600480360360208110156105d157600080fd5b50356001600160a01b0316610fb5565b3480156105ed57600080fd5b506106116004803603604081101561060457600080fd5b5080359060200135610fd0565b604080516001600160a01b039092168252519081900360200190f35b34801561063957600080fd5b5061028a6004803603604081101561065057600080fd5b50803590602001356001600160a01b0316610ff5565b34801561067257600080fd5b506101dc611013565b34801561068757600080fd5b50610355611074565b34801561069c57600080fd5b50610355611079565b3480156106b157600080fd5b5061028a600480360360408110156106c857600080fd5b506001600160a01b03813516906020013561109f565b3480156106ea57600080fd5b5061028a6004803603604081101561070157600080fd5b506001600160a01b03813516906020013561110d565b34801561072357600080fd5b506103556004803603602081101561073a57600080fd5b5035611121565b34801561074d57600080fd5b506104466004803603604081101561076457600080fd5b6001600160a01b038235169190810190604081016020820135600160201b81111561078e57600080fd5b8201836020820111156107a057600080fd5b803590602001918460018302840111600160201b831117156107c157600080fd5b509092509050611138565b3480156107d857600080fd5b50610446600480360360408110156107ef57600080fd5b50803590602001356001600160a01b03166111f5565b34801561081157600080fd5b506103556004803603604081101561082857600080fd5b506001600160a01b038135811691602001351661124e565b34801561084c57600080fd5b506104466004803603608081101561086357600080fd5b810190602081018135600160201b81111561087d57600080fd5b82018360208201111561088f57600080fd5b803590602001918460018302840111600160201b831117156108b057600080fd5b919390929091602081019035600160201b8111156108cd57600080fd5b8201836020820111156108df57600080fd5b803590602001918460018302840111600160201b8311171561090057600080fd5b9193509150803560ff1690602001356001600160a01b0316611279565b60038054604080516020601f60026000196101006001881615020190951694909404938401819004810282018101909252828152606093909290918301828280156109a95780601f1061097e576101008083540402835291602001916109a9565b820191906000526020600020905b81548152906001019060200180831161098c57829003601f168201915b505050505090505b90565b60006109c86109c161141d565b848461142c565b5060015b92915050565b60606109dc612084565b604080516060810182526001600160a01b038a166000818152600a602090815290849020548352808301919091528251601f8a0182900482028101820184528981529192830191908a908a908190840183828082843760009201919091525050509152509050610a4f8882878787611518565b610a8a5760405162461bcd60e51b81526004018080602001828103825260218152602001806123346021913960400191505060405180910390fd5b6001600160a01b0388166000818152600a60209081526040918290208054600101905581518181529081018990523392917f5845892132946850460bff5a0083f71031bc5bf9aadcd40f1de79423eac9b10b918b918b919081908101848480828437600083820152604051601f909101601f19169092018290039550909350505050a360006060306001600160a01b031689898c6040516020018084848082843780830192505050826001600160a01b03166001600160a01b031660601b815260140193505050506040516020818303038152906040526040518082805190602001908083835b60208310610b905780518252601f199092019160209182019101610b71565b6001836020036101000a0380198251168184511680821785525050505050509050019150506000604051808303816000865af19150503d8060008114610bf2576040519150601f19603f3d011682016040523d82523d6000602084013e610bf7565b606091505b509150915081610c4e576040805162461bcd60e51b815260206004820152601c60248201527f46756e6374696f6e2063616c6c206e6f74207375636365737366756c00000000604482015290519081900360640190fd5b9998505050505050505050565b604051806040016040528060018152602001603160f81b81525081565b60025490565b60095490565b6000610c918484846115f5565b610d0784610c9d61141d565b610d028560405180606001604052806028815260200161230c602891396001600160a01b038a16600090815260016020526040812090610cdb61141d565b6001600160a01b03168152602081019190915260400160002054919063ffffffff61175c16565b61142c565b5060019392505050565b60009081526006602052604090206002015490565b6001600160a01b03166000908152600a602052604090205490565b610d52610d4c61141d565b826117f3565b50565b600082815260066020526040902060020154610d7890610d7361141d565b610ff5565b610db35760405162461bcd60e51b815260040180806020018281038252602f81526020018061218c602f913960400191505060405180910390fd5b610dbd82826118fb565b5050565b60055460ff1690565b4690565b610dd661141d565b6001600160a01b0316816001600160a01b031614610e255760405162461bcd60e51b815260040180806020018281038252602f8152602001806123e4602f913960400191505060405180910390fd5b610dbd828261196a565b60006109c8610e3c61141d565b84610d028560016000610e4d61141d565b6001600160a01b03908116825260208083019390935260409182016000908120918c16815292529020549063ffffffff6119d916565b6000610e9181610d7361141d565b600790610f315760405162461bcd60e51b8152602060048201908152825460026000196101006001841615020190911604602483018190529091829160449091019084908015610f225780601f10610ef757610100808354040283529160200191610f22565b820191906000526020600020905b815481529060010190602001808311610f0557829003601f168201915b50509250505060405180910390fd5b50610f7183838080601f016020809104026020016040519081016040528093929190818152602001838380828437600092019190915250611a3392505050565b610fb083838080601f016020809104026020016040519081016040528093929190818152602001838380828437600092019190915250611a4692505050565b505050565b6001600160a01b031660009081526020819052604090205490565b6000828152600660205260408120610fee908363ffffffff611b0216565b9392505050565b6000828152600660205260408120610fee908363ffffffff611b0e16565b60048054604080516020601f60026000196101006001881615020190951694909404938401819004810282018101909252828152606093909290918301828280156109a95780601f1061097e576101008083540402835291602001916109a9565b600081565b604080516d4445504f5349544f525f524f4c4560901b8152905190819003600e01902081565b60006109c86110ac61141d565b84610d02856040518060600160405280602581526020016123bf60259139600160006110d661141d565b6001600160a01b03908116825260208083019390935260409182016000908120918d1681529252902054919063ffffffff61175c16565b60006109c861111a61141d565b84846115f5565b60008181526006602052604081206109cc90611b23565b604080516d4445504f5349544f525f524f4c4560901b8152905190819003600e01902061116781610d7361141d565b6007906111cd5760405162461bcd60e51b8152602060048201908152825460026000196101006001841615020190911604602483018190529091829160449091019084908015610f225780601f10610ef757610100808354040283529160200191610f22565b506000838360208110156111e057600080fd5b503590506111ee8582611b2e565b5050505050565b60008281526006602052604090206002015461121390610d7361141d565b610e255760405162461bcd60e51b81526004018080602001828103825260308152602001806122b76030913960400191505060405180910390fd5b6001600160a01b03918216600090815260016020908152604080832093909416825291909152205490565b60085460ff16156112c2576040805162461bcd60e51b815260206004820152600e60248201526d185b1c9958591e481a5b9a5d195960921b604482015290519081900360640190fd5b61130186868080601f016020809104026020016040519081016040528093929190818152602001838380828437600092019190915250611a3392505050565b61134084848080601f016020809104026020016040519081016040528093929190818152602001838380828437600092019190915250611c2a92505050565b61134982611c3d565b61138a848460405160200180806410da1a5b1960da1b8152506005018383808284378083019250505092505050604051602081830303815290604052611c53565b61139c600061139761141d565b610db3565b604080516d4445504f5349544f525f524f4c4560901b8152905190819003600e0190206113c99082610db3565b61140886868080601f016020809104026020016040519081016040528093929190818152602001838380828437600092019190915250611cf192505050565b50506008805460ff1916600117905550505050565b6000611427611d53565b905090565b6001600160a01b0383166114715760405162461bcd60e51b815260040180806020018281038252602481526020018061239b6024913960400191505060405180910390fd5b6001600160a01b0382166114b65760405162461bcd60e51b81526004018080602001828103825260228152602001806122206022913960400191505060405180910390fd5b6001600160a01b03808416600081815260016020908152604080832094871680845294825291829020859055815185815291517f8c5be1e5ebec7d5bd14f71427d1e84f3dd0314c0f7b2291e5b200ac8c7c3b9259281900390910190a3505050565b60006001600160a01b03861661155f5760405162461bcd60e51b81526004018080602001828103825260258152602001806122e76025913960400191505060405180910390fd5b600161157261156d87611db0565b611e3c565b83868660405160008152602001604052604051808581526020018460ff1660ff1681526020018381526020018281526020019450505050506020604051602081039080840390855afa1580156115cc573d6000803e3d6000fd5b505050602060405103516001600160a01b0316866001600160a01b031614905095945050505050565b6001600160a01b03831661163a5760405162461bcd60e51b81526004018080602001828103825260258152602001806123766025913960400191505060405180910390fd5b6001600160a01b03821661167f5760405162461bcd60e51b81526004018080602001828103825260238152602001806121696023913960400191505060405180910390fd5b61168a838383610fb0565b6116cd81604051806060016040528060268152602001612291602691396001600160a01b038616600090815260208190526040902054919063ffffffff61175c16565b6001600160a01b038085166000908152602081905260408082209390935590841681522054611702908263ffffffff6119d916565b6001600160a01b038084166000818152602081815260409182902094909455805185815290519193928716927fddf252ad1be2c89b69c2b068fc378daa952ba7f163c4a11628f55a4df523b3ef92918290030190a3505050565b600081848411156117eb5760405162461bcd60e51b81526004018080602001828103825283818151815260200191508051906020019080838360005b838110156117b0578181015183820152602001611798565b50505050905090810190601f1680156117dd5780820380516001836020036101000a031916815260200191505b509250505060405180910390fd5b505050900390565b6001600160a01b0382166118385760405162461bcd60e51b81526004018080602001828103825260218152602001806123556021913960400191505060405180910390fd5b61184482600083610fb0565b611887816040518060600160405280602281526020016121bb602291396001600160a01b038516600090815260208190526040902054919063ffffffff61175c16565b6001600160a01b0383166000908152602081905260409020556002546118b3908263ffffffff611e8816565b6002556040805182815290516000916001600160a01b038516917fddf252ad1be2c89b69c2b068fc378daa952ba7f163c4a11628f55a4df523b3ef9181900360200190a35050565b6000828152600660205260409020611919908263ffffffff611eca16565b15610dbd5761192661141d565b6001600160a01b0316816001600160a01b0316837f2f8788117e7eff1d82e926ec794901d17c78024a50270940304540a733656f0d60405160405180910390a45050565b6000828152600660205260409020611988908263ffffffff611edf16565b15610dbd5761199561141d565b6001600160a01b0316816001600160a01b0316837ff6391f5c32d9c69d2a47ea670b442974b53935d1edc7fd64eb21e047a839171b60405160405180910390a45050565b600082820183811015610fee576040805162461bcd60e51b815260206004820152601b60248201527f536166654d6174683a206164646974696f6e206f766572666c6f770000000000604482015290519081900360640190fd5b8051610dbd9060039060208401906120ae565b6040518060800160405280604f8152602001612242604f913980516020918201208251838301206040805180820190915260018152603160f81b930192909252907fc89efdaa54c0f20c7adf612882df0950f5a951637e0307cdcb4c672f298b8bc630611ab1610dca565b604080516020808201979097528082019590955260608501939093526001600160a01b03909116608084015260a0808401919091528151808403909101815260c09092019052805191012060095550565b6000610fee8383611ef4565b6000610fee836001600160a01b038416611f58565b60006109cc82611f70565b6001600160a01b038216611b89576040805162461bcd60e51b815260206004820152601f60248201527f45524332303a206d696e7420746f20746865207a65726f206164647265737300604482015290519081900360640190fd5b611b9560008383610fb0565b600254611ba8908263ffffffff6119d916565b6002556001600160a01b038216600090815260208190526040902054611bd4908263ffffffff6119d916565b6001600160a01b0383166000818152602081815260408083209490945583518581529351929391927fddf252ad1be2c89b69c2b068fc378daa952ba7f163c4a11628f55a4df523b3ef9281900390910190a35050565b8051610dbd9060049060208401906120ae565b6005805460ff191660ff92909216919091179055565b806040516020018082805190602001908083835b60208310611c865780518252601f199092019160209182019101611c67565b51815160209384036101000a60001901801990921691161790527f3a20494e53554646494349454e545f5045524d495353494f4e530000000000009190930190815260408051808303600519018152601a90920190528051610dbd95506007945092019190506120ae565b60085460ff1615611d3a576040805162461bcd60e51b815260206004820152600e60248201526d185b1c9958591e481a5b9a5d195960921b604482015290519081900360640190fd5b611d4381611a46565b506008805460ff19166001179055565b600033301415611dab5760606000368080601f0160208091040260200160405190810160405280939291908181526020018383808284376000920191909152505050503601516001600160a01b031691506109b19050565b503390565b60006040518060800160405280604381526020016121dd60439139805190602001208260000151836020015184604001518051906020012060405160200180858152602001848152602001836001600160a01b03166001600160a01b03168152602001828152602001945050505050604051602081830303815290604052805190602001209050919050565b6000611e46610c7e565b82604051602001808061190160f01b81525060020183815260200182815260200192505050604051602081830303815290604052805190602001209050919050565b6000610fee83836040518060400160405280601e81526020017f536166654d6174683a207375627472616374696f6e206f766572666c6f77000081525061175c565b6000610fee836001600160a01b038416611f74565b6000610fee836001600160a01b038416611fbe565b81546000908210611f365760405162461bcd60e51b81526004018080602001828103825260228152602001806121476022913960400191505060405180910390fd5b826000018281548110611f4557fe5b9060005260206000200154905092915050565b60009081526001919091016020526040902054151590565b5490565b6000611f808383611f58565b611fb6575081546001818101845560008481526020808220909301849055845484825282860190935260409020919091556109cc565b5060006109cc565b6000818152600183016020526040812054801561207a5783546000198083019190810190600090879083908110611ff157fe5b906000526020600020015490508087600001848154811061200e57fe5b60009182526020808320909101929092558281526001898101909252604090209084019055865487908061203e57fe5b600190038181906000526020600020016000905590558660010160008781526020019081526020016000206000905560019450505050506109cc565b60009150506109cc565b60405180606001604052806000815260200160006001600160a01b03168152602001606081525090565b828054600181600116156101000203166002900490600052602060002090601f016020900481019282601f106120ef57805160ff191683800117855561211c565b8280016001018555821561211c579182015b8281111561211c578251825591602001919060010190612101565b5061212892915061212c565b5090565b6109b191905b80821115612128576000815560010161213256fe456e756d657261626c655365743a20696e646578206f7574206f6620626f756e647345524332303a207472616e7366657220746f20746865207a65726f2061646472657373416363657373436f6e74726f6c3a2073656e646572206d75737420626520616e2061646d696e20746f206772616e7445524332303a206275726e20616d6f756e7420657863656564732062616c616e63654d6574615472616e73616374696f6e2875696e74323536206e6f6e63652c616464726573732066726f6d2c62797465732066756e6374696f6e5369676e61747572652945524332303a20617070726f766520746f20746865207a65726f2061646472657373454950373132446f6d61696e28737472696e67206e616d652c737472696e672076657273696f6e2c6164647265737320766572696679696e67436f6e74726163742c627974657333322073616c742945524332303a207472616e7366657220616d6f756e7420657863656564732062616c616e6365416363657373436f6e74726f6c3a2073656e646572206d75737420626520616e2061646d696e20746f207265766f6b654e61746976654d6574615472616e73616374696f6e3a20494e56414c49445f5349474e455245524332303a207472616e7366657220616d6f756e74206578636565647320616c6c6f77616e63655369676e657220616e64207369676e617475726520646f206e6f74206d6174636845524332303a206275726e2066726f6d20746865207a65726f206164647265737345524332303a207472616e736665722066726f6d20746865207a65726f206164647265737345524332303a20617070726f76652066726f6d20746865207a65726f206164647265737345524332303a2064656372656173656420616c6c6f77616e63652062656c6f77207a65726f416363657373436f6e74726f6c3a2063616e206f6e6c792072656e6f756e636520726f6c657320666f722073656c66a2646970667358221220ba1ef94e72ecb6720b895f06c7ba9577f1de1402e3dd049959868a581698a8f464736f6c63430006060033","linkReferences":{}},"methodIdentifiers":{"DEFAULT_ADMIN_ROLE()":"a217fddf","DEPOSITOR_ROLE()":"a3b0b5a3","ERC712_VERSION()":"0f7e5970","allowance(address,address)":"dd62ed3e","approve(address,uint256)":"095ea7b3","balanceOf(address)":"70a08231","changeName(string)":"5353a2d8","decimals()":"313ce567","decreaseAllowance(address,uint256)":"a457c2d7","deposit(address,bytes)":"cf2c52cb","executeMetaTransaction(address,bytes,bytes32,bytes32,uint8)":"0c53c51c","getChainId()":"3408e470","getDomainSeperator()":"20379ee5","getNonce(address)":"2d0335ab","getRoleAdmin(bytes32)":"248a9ca3","getRoleMember(bytes32,uint256)":"9010d07c","getRoleMemberCount(bytes32)":"ca15c873","grantRole(bytes32,address)":"2f2ff15d","hasRole(bytes32,address)":"91d14854","increaseAllowance(address,uint256)":"39509351","initialize(string,string,uint8,address)":"de7ea79d","name()":"06fdde03","renounceRole(bytes32,address)":"36568abe","revokeRole(bytes32,address)":"d547741f","symbol()":"95d89b41","totalSupply()":"18160ddd","transfer(address,uint256)":"a9059cbb","transferFrom(address,address,uint256)":"23b872dd","withdraw(uint256)":"2e1a7d4d"},"id":14}