{
  "_format": "hh-sol-artifact-1",
  "contractName": "ERC20Predicate",
  "sourceName": "contracts/root/TokenPredicates/ERC20Predicate.sol",
  "abi": [
    {
      "inputs": [],
      "stateMutability": "nonpayable",
      "type": "constructor"
    },
    {
      "anonymous": false,
      "inputs": [
        {
          "indexed": true,
          "internalType": "address",
          "name": "depositor",
          "type": "address"
        },
        {
          "indexed": true,
          "internalType": "address",
          "name": "depositReceiver",
          "type": "address"
        },
        {
          "indexed": true,
          "internalType": "address",
          "name": "rootToken",
          "type": "address"
        },
        {
          "indexed": false,
          "internalType": "uint256",
          "name": "amount",
          "type": "uint256"
        }
      ],
      "name": "LockedERC20",
      "type": "event"
    },
    {
      "anonymous": false,
      "inputs": [
        {
          "indexed": true,
          "internalType": "bytes32",
          "name": "role",
          "type": "bytes32"
        },
        {
          "indexed": true,
          "internalType": "bytes32",
          "name": "previousAdminRole",
          "type": "bytes32"
        },
        {
          "indexed": true,
          "internalType": "bytes32",
          "name": "newAdminRole",
          "type": "bytes32"
        }
      ],
      "name": "RoleAdminChanged",
      "type": "event"
    },
    {
      "anonymous": false,
      "inputs": [
        {
          "indexed": true,
          "internalType": "bytes32",
          "name": "role",
          "type": "bytes32"
        },
        {
          "indexed": true,
          "internalType": "address",
          "name": "account",
          "type": "address"
        },
        {
          "indexed": true,
          "internalType": "address",
          "name": "sender",
          "type": "address"
        }
      ],
      "name": "RoleGranted",
      "type": "event"
    },
    {
      "anonymous": false,
      "inputs": [
        {
          "indexed": true,
          "internalType": "bytes32",
          "name": "role",
          "type": "bytes32"
        },
        {
          "indexed": true,
          "internalType": "address",
          "name": "account",
          "type": "address"
        },
        {
          "indexed": true,
          "internalType": "address",
          "name": "sender",
          "type": "address"
        }
      ],
      "name": "RoleRevoked",
      "type": "event"
    },
    {
      "inputs": [],
      "name": "DEFAULT_ADMIN_ROLE",
      "outputs": [
        {
          "internalType": "bytes32",
          "name": "",
          "type": "bytes32"
        }
      ],
      "stateMutability": "view",
      "type": "function"
    },
    {
      "inputs": [],
      "name": "MANAGER_ROLE",
      "outputs": [
        {
          "internalType": "bytes32",
          "name": "",
          "type": "bytes32"
        }
      ],
      "stateMutability": "view",
      "type": "function"
    },
    {
      "inputs": [],
      "name": "TOKEN_TYPE",
      "outputs": [
        {
          "internalType": "bytes32",
          "name": "",
          "type": "bytes32"
        }
      ],
      "stateMutability": "view",
      "type": "function"
    },
    {
      "inputs": [],
      "name": "TRANSFER_EVENT_SIG",
      "outputs": [
        {
          "internalType": "bytes32",
          "name": "",
          "type": "bytes32"
        }
      ],
      "stateMutability": "view",
      "type": "function"
    },
    {
      "inputs": [
        {
          "internalType": "address",
          "name": "",
          "type": "address"
        },
        {
          "internalType": "address",
          "name": "rootToken",
          "type": "address"
        },
        {
          "internalType": "bytes",
          "name": "log",
          "type": "bytes"
        }
      ],
      "name": "exitTokens",
      "outputs": [],
      "stateMutability": "nonpayable",
      "type": "function"
    },
    {
      "inputs": [
        {
          "internalType": "bytes32",
          "name": "role",
          "type": "bytes32"
        }
      ],
      "name": "getRoleAdmin",
      "outputs": [
        {
          "internalType": "bytes32",
          "name": "",
          "type": "bytes32"
        }
      ],
      "stateMutability": "view",
      "type": "function"
    },
    {
      "inputs": [
        {
          "internalType": "bytes32",
          "name": "role",
          "type": "bytes32"
        },
        {
          "internalType": "uint256",
          "name": "index",
          "type": "uint256"
        }
      ],
      "name": "getRoleMember",
      "outputs": [
        {
          "internalType": "address",
          "name": "",
          "type": "address"
        }
      ],
      "stateMutability": "view",
      "type": "function"
    },
    {
      "inputs": [
        {
          "internalType": "bytes32",
          "name": "role",
          "type": "bytes32"
        }
      ],
      "name": "getRoleMemberCount",
      "outputs": [
        {
          "internalType": "uint256",
          "name": "",
          "type": "uint256"
        }
      ],
      "stateMutability": "view",
      "type": "function"
    },
    {
      "inputs": [
        {
          "internalType": "bytes32",
          "name": "role",
          "type": "bytes32"
        },
        {
          "internalType": "address",
          "name": "account",
          "type": "address"
        }
      ],
      "name": "grantRole",
      "outputs": [],
      "stateMutability": "nonpayable",
      "type": "function"
    },
    {
      "inputs": [
        {
          "internalType": "bytes32",
          "name": "role",
          "type": "bytes32"
        },
        {
          "internalType": "address",
          "name": "account",
          "type": "address"
        }
      ],
      "name": "hasRole",
      "outputs": [
        {
          "internalType": "bool",
          "name": "",
          "type": "bool"
        }
      ],
      "stateMutability": "view",
      "type": "function"
    },
    {
      "inputs": [
        {
          "internalType": "address",
          "name": "_owner",
          "type": "address"
        }
      ],
      "name": "initialize",
      "outputs": [],
      "stateMutability": "nonpayable",
      "type": "function"
    },
    {
      "inputs": [
        {
          "internalType": "address",
          "name": "depositor",
          "type": "address"
        },
        {
          "internalType": "address",
          "name": "depositReceiver",
          "type": "address"
        },
        {
          "internalType": "address",
          "name": "rootToken",
          "type": "address"
        },
        {
          "internalType": "bytes",
          "name": "depositData",
          "type": "bytes"
        }
      ],
      "name": "lockTokens",
      "outputs": [],
      "stateMutability": "nonpayable",
      "type": "function"
    },
    {
      "inputs": [
        {
          "internalType": "bytes32",
          "name": "role",
          "type": "bytes32"
        },
        {
          "internalType": "address",
          "name": "account",
          "type": "address"
        }
      ],
      "name": "renounceRole",
      "outputs": [],
      "stateMutability": "nonpayable",
      "type": "function"
    },
    {
      "inputs": [
        {
          "internalType": "bytes32",
          "name": "role",
          "type": "bytes32"
        },
        {
          "internalType": "address",
          "name": "account",
          "type": "address"
        }
      ],
      "name": "revokeRole",
      "outputs": [],
      "stateMutability": "nonpayable",
      "type": "function"
    }
  ],
  "bytecode": "0x60806040526000600260006101000a81548160ff02191690831515021790555034801561002b57600080fd5b506121a58061003b6000396000f3fe608060405234801561001057600080fd5b50600436106100ea5760003560e01c8063a217fddf1161008c578063ca15c87311610066578063ca15c87314610444578063d547741f14610486578063e375b64e146104d4578063ec87621c146105ad576100ea565b8063a217fddf146103c4578063b017a30f146103e2578063c4d66de814610400576100ea565b8063609c92b8116100c8578063609c92b8146101cd5780638274664f146101eb5780639010d07c146102e657806391d148541461035e576100ea565b8063248a9ca3146100ef5780632f2ff15d1461013157806336568abe1461017f575b600080fd5b61011b6004803603602081101561010557600080fd5b81019080803590602001909291905050506105cb565b6040518082815260200191505060405180910390f35b61017d6004803603604081101561014757600080fd5b8101908080359060200190929190803573ffffffffffffffffffffffffffffffffffffffff1690602001909291905050506105ea565b005b6101cb6004803603604081101561019557600080fd5b8101908080359060200190929190803573ffffffffffffffffffffffffffffffffffffffff169060200190929190505050610673565b005b6101d561070c565b6040518082815260200191505060405180910390f35b6102e46004803603606081101561020157600080fd5b81019080803573ffffffffffffffffffffffffffffffffffffffff169060200190929190803573ffffffffffffffffffffffffffffffffffffffff1690602001909291908035906020019064010000000081111561025e57600080fd5b82018360208201111561027057600080fd5b8035906020019184600183028401116401000000008311171561029257600080fd5b91908080601f016020809104026020016040519081016040528093929190818152602001838380828437600081840152601f19601f820116905080830192505050505050509192919290505050610745565b005b61031c600480360360408110156102fc57600080fd5b810190808035906020019092919080359060200190929190505050610a51565b604051808273ffffffffffffffffffffffffffffffffffffffff1673ffffffffffffffffffffffffffffffffffffffff16815260200191505060405180910390f35b6103aa6004803603604081101561037457600080fd5b8101908080359060200190929190803573ffffffffffffffffffffffffffffffffffffffff169060200190929190505050610a82565b604051808215151515815260200191505060405180910390f35b6103cc610ab3565b6040518082815260200191505060405180910390f35b6103ea610aba565b6040518082815260200191505060405180910390f35b6104426004803603602081101561041657600080fd5b81019080803573ffffffffffffffffffffffffffffffffffffffff169060200190929190505050610ae1565b005b6104706004803603602081101561045a57600080fd5b8101908080359060200190929190505050610c0c565b6040518082815260200191505060405180910390f35b6104d26004803603604081101561049c57600080fd5b8101908080359060200190929190803573ffffffffffffffffffffffffffffffffffffffff169060200190929190505050610c32565b005b6105ab600480360360808110156104ea57600080fd5b81019080803573ffffffffffffffffffffffffffffffffffffffff169060200190929190803573ffffffffffffffffffffffffffffffffffffffff169060200190929190803573ffffffffffffffffffffffffffffffffffffffff1690602001909291908035906020019064010000000081111561056757600080fd5b82018360208201111561057957600080fd5b8035906020019184600183028401116401000000008311171561059b57600080fd5b9091929391929390505050610cbb565b005b6105b5610e9f565b6040518082815260200191505060405180910390f35b6000806000838152602001908152602001600020600201549050919050565b6106106000808481526020019081526020016000206002015461060b610ed8565b610a82565b610665576040517f08c379a000000000000000000000000000000000000000000000000000000000815260040180806020018281038252602f815260200180611ff7602f913960400191505060405180910390fd5b61066f8282610ee0565b5050565b61067b610ed8565b73ffffffffffffffffffffffffffffffffffffffff168173ffffffffffffffffffffffffffffffffffffffff16146106fe576040517f08c379a000000000000000000000000000000000000000000000000000000000815260040180806020018281038252602f81526020018061211a602f913960400191505060405180910390fd5b6107088282610f73565b5050565b60405180807f45524332300000000000000000000000000000000000000000000000000000008152506005019050604051809103902081565b60405180807f4d414e414745525f524f4c450000000000000000000000000000000000000000815250600c019050604051809103902061078c81610787610ed8565b610a82565b600190610851576040517f08c379a000000000000000000000000000000000000000000000000000000000815260040180806020018281038252838181546001816001161561010002031660029004815260200191508054600181600116156101000203166002900480156108425780601f1061081757610100808354040283529160200191610842565b820191906000526020600020905b81548152906001019060200180831161082557829003601f168201915b50509250505060405180910390fd5b50606061086561086084611006565b6110ab565b905060606108868260018151811061087957fe5b60200260200101516110ab565b90507fddf252ad1be2c89b69c2b068fc378daa952ba7f163c4a11628f55a4df523b3ef60001b6108c9826000815181106108bc57fe5b6020026020010151611276565b60001b14610922576040517f08c379a00000000000000000000000000000000000000000000000000000000081526004018080602001828103825260218152602001806120266021913960400191505060405180910390fd5b60006109418260018151811061093457fe5b6020026020010151611276565b9050600073ffffffffffffffffffffffffffffffffffffffff166109788360028151811061096b57fe5b6020026020010151611276565b73ffffffffffffffffffffffffffffffffffffffff1614610a01576040517f08c379a00000000000000000000000000000000000000000000000000000000081526004018080602001828103825260208152602001807f45524332305072656469636174653a20494e56414c49445f524543454956455281525060200191505060405180910390fd5b610a4881610a2285600281518110610a1557fe5b6020026020010151611276565b8873ffffffffffffffffffffffffffffffffffffffff1661142b9092919063ffffffff16565b50505050505050565b6000610a7a826000808681526020019081526020016000206000016114e390919063ffffffff16565b905092915050565b6000610aab826000808681526020019081526020016000206000016114fd90919063ffffffff16565b905092915050565b6000801b81565b7fddf252ad1be2c89b69c2b068fc378daa952ba7f163c4a11628f55a4df523b3ef60001b81565b600260009054906101000a900460ff1615610b64576040517f08c379a000000000000000000000000000000000000000000000000000000000815260040180806020018281038252600e8152602001807f616c726561647920696e6974656400000000000000000000000000000000000081525060200191505060405180910390fd5b610ba26040518060400160405280600e81526020017f455243323050726564696361746500000000000000000000000000000000000081525061152d565b610baf6000801b826115d9565b610bee60405180807f4d414e414745525f524f4c450000000000000000000000000000000000000000815250600c0190506040518091039020826115d9565b6001600260006101000a81548160ff02191690831515021790555050565b6000610c2b6000808481526020019081526020016000206000016115e7565b9050919050565b610c5860008084815260200190815260200160002060020154610c53610ed8565b610a82565b610cad576040517f08c379a000000000000000000000000000000000000000000000000000000000815260040180806020018281038252603081526020018061206d6030913960400191505060405180910390fd5b610cb78282610f73565b5050565b60405180807f4d414e414745525f524f4c450000000000000000000000000000000000000000815250600c0190506040518091039020610d0281610cfd610ed8565b610a82565b600190610dc7576040517f08c379a00000000000000000000000000000000000000000000000000000000081526004018080602001828103825283818154600181600116156101000203166002900481526020019150805460018160011615610100020316600290048015610db85780601f10610d8d57610100808354040283529160200191610db8565b820191906000526020600020905b815481529060010190602001808311610d9b57829003601f168201915b50509250505060405180910390fd5b50600083836020811015610dda57600080fd5b810190808035906020019092919050505090508473ffffffffffffffffffffffffffffffffffffffff168673ffffffffffffffffffffffffffffffffffffffff168873ffffffffffffffffffffffffffffffffffffffff167f9b217a401a5ddf7c4d474074aff9958a18d48690d77cc2151c4706aa7348b401846040518082815260200191505060405180910390a4610e968730838873ffffffffffffffffffffffffffffffffffffffff166115fc909392919063ffffffff16565b50505050505050565b60405180807f4d414e414745525f524f4c450000000000000000000000000000000000000000815250600c019050604051809103902081565b600033905090565b610f07816000808581526020019081526020016000206000016116e990919063ffffffff16565b15610f6f57610f14610ed8565b73ffffffffffffffffffffffffffffffffffffffff168173ffffffffffffffffffffffffffffffffffffffff16837f2f8788117e7eff1d82e926ec794901d17c78024a50270940304540a733656f0d60405160405180910390a45b5050565b610f9a8160008085815260200190815260200160002060000161171990919063ffffffff16565b1561100257610fa7610ed8565b73ffffffffffffffffffffffffffffffffffffffff168173ffffffffffffffffffffffffffffffffffffffff16837ff6391f5c32d9c69d2a47ea670b442974b53935d1edc7fd64eb21e047a839171b60405160405180910390a45b5050565b61100e611f15565b6000825111611085576040517f08c379a000000000000000000000000000000000000000000000000000000000815260040180806020018281038252601f8152602001807f524c505265616465723a20494e56414c49445f42595445535f4c454e4754480081525060200191505060405180910390fd5b600060208301905060405180604001604052808451815260200182815250915050919050565b60606110b682611749565b611128576040517f08c379a00000000000000000000000000000000000000000000000000000000081526004018080602001828103825260188152602001807f524c505265616465723a204954454d5f4e4f545f4c495354000000000000000081525060200191505060405180910390fd5b600061113383611782565b905060608167ffffffffffffffff8111801561114e57600080fd5b5060405190808252806020026020018201604052801561118857816020015b611175611f15565b81526020019060019003908161116d5790505b509050600061119a8560200151611836565b9050846000015181146111f8576040517f08c379a00000000000000000000000000000000000000000000000000000000081526004018080602001828103825260278152602001806120c96027913960400191505060405180910390fd5b600061120786602001516118ee565b8660200151019050600080600090505b858110156112685761122883611836565b915060405180604001604052808381526020018481525085828151811061124b57fe5b602002602001018190525081830192508080600101915050611217565b508395505050505050919050565b600061128182611749565b156112f4576040517f08c379a00000000000000000000000000000000000000000000000000000000081526004018080602001828103825260208152602001807f524c505265616465723a204445434f44494e475f4c4953545f41535f55494e5481525060200191505060405180910390fd5b60218260000151111561136f576040517f08c379a000000000000000000000000000000000000000000000000000000000815260040180806020018281038252601e8152602001807f524c505265616465723a20494e56414c49445f55494e545f4c454e475448000081525060200191505060405180910390fd5b600061137e8360200151611836565b9050826000015181146113dc576040517f08c379a00000000000000000000000000000000000000000000000000000000081526004018080602001828103825260278152602001806121496027913960400191505060405180910390fd5b60006113eb84602001516118ee565b9050600081856000015103905060008083876020015101905080519150602083101561141e57826020036101000a820491505b8195505050505050919050565b6114de8363a9059cbb60e01b8484604051602401808373ffffffffffffffffffffffffffffffffffffffff1673ffffffffffffffffffffffffffffffffffffffff16815260200182815260200192505050604051602081830303815290604052907bffffffffffffffffffffffffffffffffffffffffffffffffffffffff19166020820180517bffffffffffffffffffffffffffffffffffffffffffffffffffffffff8381831617835250505050611977565b505050565b60006114f28360000183611a66565b60001c905092915050565b6000611525836000018373ffffffffffffffffffffffffffffffffffffffff1660001b611ae9565b905092915050565b806040516020018082805190602001908083835b602083106115645780518252602082019150602081019050602083039250611541565b6001836020036101000a038019825116818451168082178552505050505050905001807f3a20494e53554646494349454e545f5045524d495353494f4e53000000000000815250601a01915050604051602081830303815290604052600190805190602001906115d5929190611f2f565b5050565b6115e38282610ee0565b5050565b60006115f582600001611b0c565b9050919050565b6116e3846323b872dd60e01b858585604051602401808473ffffffffffffffffffffffffffffffffffffffff1673ffffffffffffffffffffffffffffffffffffffff1681526020018373ffffffffffffffffffffffffffffffffffffffff1673ffffffffffffffffffffffffffffffffffffffff1681526020018281526020019350505050604051602081830303815290604052907bffffffffffffffffffffffffffffffffffffffffffffffffffffffff19166020820180517bffffffffffffffffffffffffffffffffffffffffffffffffffffffff8381831617835250505050611977565b50505050565b6000611711836000018373ffffffffffffffffffffffffffffffffffffffff1660001b611b1d565b905092915050565b6000611741836000018373ffffffffffffffffffffffffffffffffffffffff1660001b611b8d565b905092915050565b600080600083602001519050805160001a915060c060ff168260ff1610156117765760009250505061177d565b6001925050505b919050565b60008060009050600061179884602001516118ee565b84602001510190506000846000015185602001510190505b8082101561182b576117c182611836565b820191508082111561181e576040517f08c379a000000000000000000000000000000000000000000000000000000000815260040180806020018281038252602c81526020018061209d602c913960400191505060405180910390fd5b82806001019350506117b0565b829350505050919050565b6000806000835160001a9050608060ff1681101561185757600191506118e4565b60b860ff16811015611874576001608060ff1682030191506118e3565b60c060ff168110156118a45760b78103600185019450806020036101000a855104600182018101935050506118e2565b60f860ff168110156118c157600160c060ff1682030191506118e1565b60f78103600185019450806020036101000a855104600182018101935050505b5b5b5b8192505050919050565b600080825160001a9050608060ff1681101561190e576000915050611972565b60b860ff16811080611933575060c060ff168110158015611932575060f860ff1681105b5b15611942576001915050611972565b60c060ff168110156119625760018060b80360ff16820301915050611972565b60018060f80360ff168203019150505b919050565b60606119d9826040518060400160405280602081526020017f5361666545524332303a206c6f772d6c6576656c2063616c6c206661696c65648152508573ffffffffffffffffffffffffffffffffffffffff16611c759092919063ffffffff16565b9050600081511115611a61578080602001905160208110156119fa57600080fd5b8101908080519060200190929190505050611a60576040517f08c379a000000000000000000000000000000000000000000000000000000000815260040180806020018281038252602a8152602001806120f0602a913960400191505060405180910390fd5b5b505050565b600081836000018054905011611ac7576040517f08c379a0000000000000000000000000000000000000000000000000000000008152600401808060200182810382526022815260200180611fd56022913960400191505060405180910390fd5b826000018281548110611ad657fe5b9060005260206000200154905092915050565b600080836001016000848152602001908152602001600020541415905092915050565b600081600001805490509050919050565b6000611b298383611ae9565b611b82578260000182908060018154018082558091505060019003906000526020600020016000909190919091505582600001805490508360010160008481526020019081526020016000208190555060019050611b87565b600090505b92915050565b60008083600101600084815260200190815260200160002054905060008114611c695760006001820390506000600186600001805490500390506000866000018281548110611bd857fe5b9060005260206000200154905080876000018481548110611bf557fe5b9060005260206000200181905550600183018760010160008381526020019081526020016000208190555086600001805480611c2d57fe5b60019003818190600052602060002001600090559055866001016000878152602001908152602001600020600090556001945050505050611c6f565b60009150505b92915050565b6060611c848484600085611c8d565b90509392505050565b606082471015611ce8576040517f08c379a00000000000000000000000000000000000000000000000000000000081526004018080602001828103825260268152602001806120476026913960400191505060405180910390fd5b611cf185611e36565b611d63576040517f08c379a000000000000000000000000000000000000000000000000000000000815260040180806020018281038252601d8152602001807f416464726573733a2063616c6c20746f206e6f6e2d636f6e747261637400000081525060200191505060405180910390fd5b600060608673ffffffffffffffffffffffffffffffffffffffff1685876040518082805190602001908083835b60208310611db35780518252602082019150602081019050602083039250611d90565b6001836020036101000a03801982511681845116808217855250505050505090500191505060006040518083038185875af1925050503d8060008114611e15576040519150601f19603f3d011682016040523d82523d6000602084013e611e1a565b606091505b5091509150611e2a828286611e49565b92505050949350505050565b600080823b905060008111915050919050565b60608315611e5957829050611f0e565b600083511115611e6c5782518084602001fd5b816040517f08c379a00000000000000000000000000000000000000000000000000000000081526004018080602001828103825283818151815260200191508051906020019080838360005b83811015611ed3578082015181840152602081019050611eb8565b50505050905090810190601f168015611f005780820380516001836020036101000a031916815260200191505b509250505060405180910390fd5b9392505050565b604051806040016040528060008152602001600081525090565b828054600181600116156101000203166002900490600052602060002090601f016020900481019282601f10611f7057805160ff1916838001178555611f9e565b82800160010185558215611f9e579182015b82811115611f9d578251825591602001919060010190611f82565b5b509050611fab9190611faf565b5090565b611fd191905b80821115611fcd576000816000905550600101611fb5565b5090565b9056fe456e756d657261626c655365743a20696e646578206f7574206f6620626f756e6473416363657373436f6e74726f6c3a2073656e646572206d75737420626520616e2061646d696e20746f206772616e7445524332305072656469636174653a20494e56414c49445f5349474e4154555245416464726573733a20696e73756666696369656e742062616c616e636520666f722063616c6c416363657373436f6e74726f6c3a2073656e646572206d75737420626520616e2061646d696e20746f207265766f6b65524c505265616465723a204e554d5f4954454d535f4445434f4445445f4c454e4754485f4d49534d41544348524c505265616465723a204c4953545f4445434f4445445f4c454e4754485f4d49534d415443485361666545524332303a204552433230206f7065726174696f6e20646964206e6f742073756363656564416363657373436f6e74726f6c3a2063616e206f6e6c792072656e6f756e636520726f6c657320666f722073656c66524c505265616465723a2055494e545f4445434f4445445f4c454e4754485f4d49534d41544348a2646970667358221220c55d75559dae86388ee732dc0dcf60fbda8b13ae710e5e74a3b5a191b1f7391664736f6c63430006060033",
  "linkReferences": {},
  "deployedLinkReferences": {}
}