{"abi":[{"type":"constructor","inputs":[{"name":"uri_","type":"string","internalType":"string"},{"name":"childChainManager","type":"address","internalType":"address"}],"stateMutability":"nonpayable"},{"type":"function","name":"DEFAULT_ADMIN_ROLE","inputs":[],"outputs":[{"name":"","type":"bytes32","internalType":"bytes32"}],"stateMutability":"view"},{"type":"function","name":"DEPOSITOR_ROLE","inputs":[],"outputs":[{"name":"","type":"bytes32","internalType":"bytes32"}],"stateMutability":"view"},{"type":"function","name":"ERC712_VERSION","inputs":[],"outputs":[{"name":"","type":"string","internalType":"string"}],"stateMutability":"view"},{"type":"function","name":"balanceOf","inputs":[{"name":"account","type":"address","internalType":"address"},{"name":"id","type":"uint256","internalType":"uint256"}],"outputs":[{"name":"","type":"uint256","internalType":"uint256"}],"stateMutability":"view"},{"type":"function","name":"balanceOfBatch","inputs":[{"name":"accounts","type":"address[]","internalType":"address[]"},{"name":"ids","type":"uint256[]","internalType":"uint256[]"}],"outputs":[{"name":"","type":"uint256[]","internalType":"uint256[]"}],"stateMutability":"view"},{"type":"function","name":"deposit","inputs":[{"name":"user","type":"address","internalType":"address"},{"name":"depositData","type":"bytes","internalType":"bytes"}],"outputs":[],"stateMutability":"nonpayable"},{"type":"function","name":"executeMetaTransaction","inputs":[{"name":"userAddress","type":"address","internalType":"address"},{"name":"functionSignature","type":"bytes","internalType":"bytes"},{"name":"sigR","type":"bytes32","internalType":"bytes32"},{"name":"sigS","type":"bytes32","internalType":"bytes32"},{"name":"sigV","type":"uint8","internalType":"uint8"}],"outputs":[{"name":"","type":"bytes","internalType":"bytes"}],"stateMutability":"payable"},{"type":"function","name":"getChainId","inputs":[],"outputs":[{"name":"","type":"uint256","internalType":"uint256"}],"stateMutability":"pure"},{"type":"function","name":"getDomainSeperator","inputs":[],"outputs":[{"name":"","type":"bytes32","internalType":"bytes32"}],"stateMutability":"view"},{"type":"function","name":"getNonce","inputs":[{"name":"user","type":"address","internalType":"address"}],"outputs":[{"name":"nonce","type":"uint256","internalType":"uint256"}],"stateMutability":"view"},{"type":"function","name":"getRoleAdmin","inputs":[{"name":"role","type":"bytes32","internalType":"bytes32"}],"outputs":[{"name":"","type":"bytes32","internalType":"bytes32"}],"stateMutability":"view"},{"type":"function","name":"getRoleMember","inputs":[{"name":"role","type":"bytes32","internalType":"bytes32"},{"name":"index","type":"uint256","internalType":"uint256"}],"outputs":[{"name":"","type":"address","internalType":"address"}],"stateMutability":"view"},{"type":"function","name":"getRoleMemberCount","inputs":[{"name":"role","type":"bytes32","internalType":"bytes32"}],"outputs":[{"name":"","type":"uint256","internalType":"uint256"}],"stateMutability":"view"},{"type":"function","name":"grantRole","inputs":[{"name":"role","type":"bytes32","internalType":"bytes32"},{"name":"account","type":"address","internalType":"address"}],"outputs":[],"stateMutability":"nonpayable"},{"type":"function","name":"hasRole","inputs":[{"name":"role","type":"bytes32","internalType":"bytes32"},{"name":"account","type":"address","internalType":"address"}],"outputs":[{"name":"","type":"bool","internalType":"bool"}],"stateMutability":"view"},{"type":"function","name":"isApprovedForAll","inputs":[{"name":"account","type":"address","internalType":"address"},{"name":"operator","type":"address","internalType":"address"}],"outputs":[{"name":"","type":"bool","internalType":"bool"}],"stateMutability":"view"},{"type":"function","name":"mint","inputs":[{"name":"account","type":"address","internalType":"address"},{"name":"id","type":"uint256","internalType":"uint256"},{"name":"amount","type":"uint256","internalType":"uint256"},{"name":"data","type":"bytes","internalType":"bytes"}],"outputs":[],"stateMutability":"nonpayable"},{"type":"function","name":"mintBatch","inputs":[{"name":"to","type":"address","internalType":"address"},{"name":"ids","type":"uint256[]","internalType":"uint256[]"},{"name":"amounts","type":"uint256[]","internalType":"uint256[]"},{"name":"data","type":"bytes","internalType":"bytes"}],"outputs":[],"stateMutability":"nonpayable"},{"type":"function","name":"renounceRole","inputs":[{"name":"role","type":"bytes32","internalType":"bytes32"},{"name":"account","type":"address","internalType":"address"}],"outputs":[],"stateMutability":"nonpayable"},{"type":"function","name":"revokeRole","inputs":[{"name":"role","type":"bytes32","internalType":"bytes32"},{"name":"account","type":"address","internalType":"address"}],"outputs":[],"stateMutability":"nonpayable"},{"type":"function","name":"safeBatchTransferFrom","inputs":[{"name":"from","type":"address","internalType":"address"},{"name":"to","type":"address","internalType":"address"},{"name":"ids","type":"uint256[]","internalType":"uint256[]"},{"name":"amounts","type":"uint256[]","internalType":"uint256[]"},{"name":"data","type":"bytes","internalType":"bytes"}],"outputs":[],"stateMutability":"nonpayable"},{"type":"function","name":"safeTransferFrom","inputs":[{"name":"from","type":"address","internalType":"address"},{"name":"to","type":"address","internalType":"address"},{"name":"id","type":"uint256","internalType":"uint256"},{"name":"amount","type":"uint256","internalType":"uint256"},{"name":"data","type":"bytes","internalType":"bytes"}],"outputs":[],"stateMutability":"nonpayable"},{"type":"function","name":"setApprovalForAll","inputs":[{"name":"operator","type":"address","internalType":"address"},{"name":"approved","type":"bool","internalType":"bool"}],"outputs":[],"stateMutability":"nonpayable"},{"type":"function","name":"supportsInterface","inputs":[{"name":"interfaceId","type":"bytes4","internalType":"bytes4"}],"outputs":[{"name":"","type":"bool","internalType":"bool"}],"stateMutability":"view"},{"type":"function","name":"uri","inputs":[{"name":"","type":"uint256","internalType":"uint256"}],"outputs":[{"name":"","type":"string","internalType":"string"}],"stateMutability":"view"},{"type":"function","name":"withdrawBatch","inputs":[{"name":"ids","type":"uint256[]","internalType":"uint256[]"},{"name":"amounts","type":"uint256[]","internalType":"uint256[]"}],"outputs":[],"stateMutability":"nonpayable"},{"type":"function","name":"withdrawSingle","inputs":[{"name":"id","type":"uint256","internalType":"uint256"},{"name":"amount","type":"uint256","internalType":"uint256"}],"outputs":[],"stateMutability":"nonpayable"},{"type":"event","name":"ApprovalForAll","inputs":[{"name":"account","type":"address","indexed":true,"internalType":"address"},{"name":"operator","type":"address","indexed":true,"internalType":"address"},{"name":"approved","type":"bool","indexed":false,"internalType":"bool"}],"anonymous":false},{"type":"event","name":"MetaTransactionExecuted","inputs":[{"name":"userAddress","type":"address","indexed":true,"internalType":"address"},{"name":"relayerAddress","type":"address","indexed":true,"internalType":"address payable"},{"name":"functionSignature","type":"bytes","indexed":false,"internalType":"bytes"}],"anonymous":false},{"type":"event","name":"RoleAdminChanged","inputs":[{"name":"role","type":"bytes32","indexed":true,"internalType":"bytes32"},{"name":"previousAdminRole","type":"bytes32","indexed":true,"internalType":"bytes32"},{"name":"newAdminRole","type":"bytes32","indexed":true,"internalType":"bytes32"}],"anonymous":false},{"type":"event","name":"RoleGranted","inputs":[{"name":"role","type":"bytes32","indexed":true,"internalType":"bytes32"},{"name":"account","type":"address","indexed":true,"internalType":"address"},{"name":"sender","type":"address","indexed":true,"internalType":"address"}],"anonymous":false},{"type":"event","name":"RoleRevoked","inputs":[{"name":"role","type":"bytes32","indexed":true,"internalType":"bytes32"},{"name":"account","type":"address","indexed":true,"internalType":"address"},{"name":"sender","type":"address","indexed":true,"internalType":"address"}],"anonymous":false},{"type":"event","name":"TransferBatch","inputs":[{"name":"operator","type":"address","indexed":true,"internalType":"address"},{"name":"from","type":"address","indexed":true,"internalType":"address"},{"name":"to","type":"address","indexed":true,"internalType":"address"},{"name":"ids","type":"uint256[]","indexed":false,"internalType":"uint256[]"},{"name":"values","type":"uint256[]","indexed":false,"internalType":"uint256[]"}],"anonymous":false},{"type":"event","name":"TransferSingle","inputs":[{"name":"operator","type":"address","indexed":true,"internalType":"address"},{"name":"from","type":"address","indexed":true,"internalType":"address"},{"name":"to","type":"address","indexed":true,"internalType":"address"},{"name":"id","type":"uint256","indexed":false,"internalType":"uint256"},{"name":"value","type":"uint256","indexed":false,"internalType":"uint256"}],"anonymous":false},{"type":"event","name":"URI","inputs":[{"name":"value","type":"string","indexed":false,"internalType":"string"},{"name":"id","type":"uint256","indexed":true,"internalType":"uint256"}],"anonymous":false}],"bytecode":{"object":"0x60806040526006805460ff191690553480156200001b57600080fd5b5060405162003d3538038062003d35833981810160405260408110156200004157600080fd5b81019080805160405193929190846401000000008211156200006257600080fd5b9083019060208201858111156200007857600080fd5b82516401000000008111828201881017156200009357600080fd5b82525081516020918201929091019080838360005b83811015620000c2578181015183820152602001620000a8565b50505050905090810190601f168015620000f05780820380516001836020036101000a031916815260200191505b50604052602001519150829050620001186301ffc9a760e01b6001600160e01b036200022716565b6200012c816001600160e01b03620002ac16565b62000147636cdb3d1360e11b6001600160e01b036200022716565b620001626303a24d0760e21b6001600160e01b036200022716565b5060408051808201909152601481527f4368696c644d696e7461626c65455243313135350000000000000000000000006020820152620001ab906001600160e01b03620002c516565b620001d36000620001c46001600160e01b036200036716565b6001600160e01b036200038416565b604080516d4445504f5349544f525f524f4c4560901b8152905190819003600e0190206200020b90826001600160e01b036200038416565b6200021f826001600160e01b036200039916565b5050620006f1565b6001600160e01b0319808216141562000287576040805162461bcd60e51b815260206004820152601c60248201527f4552433136353a20696e76616c696420696e7465726661636520696400000000604482015290519081900360640190fd5b6001600160e01b0319166000908152602081905260409020805460ff19166001179055565b8051620002c19060039060208401906200064f565b5050565b806040516020018082805190602001908083835b60208310620002fa5780518252601f199092019160209182019101620002d9565b51815160209384036101000a60001901801990921691161790527f3a20494e53554646494349454e545f5045524d495353494f4e530000000000009190930190815260408051808303600519018152601a90920190528051620002c195506005945092019190506200064f565b60006200037e6200040760201b62002f8a1760201c565b90505b90565b620002c182826001600160e01b036200046616565b60065460ff1615620003e3576040805162461bcd60e51b815260206004820152600e60248201526d185b1c9958591e481a5b9a5d195960921b604482015290519081900360640190fd5b620003f7816001600160e01b03620004ea16565b506006805460ff19166001179055565b600033301415620004615760606000368080601f0160208091040260200160405190810160405280939291908181526020018383808284376000920191909152505050503601516001600160a01b03169150620003819050565b503390565b60008281526004602090815260409091206200048d91839062003024620005b2821b17901c565b15620002c157620004a66001600160e01b036200036716565b6001600160a01b0316816001600160a01b0316837f2f8788117e7eff1d82e926ec794901d17c78024a50270940304540a733656f0d60405160405180910390a45050565b6040518060800160405280604f815260200162003ce6604f913980516020918201208251838301206040805180820190915260018152603160f81b930192909252907fc89efdaa54c0f20c7adf612882df0950f5a951637e0307cdcb4c672f298b8bc630620005616001600160e01b03620005db16565b604080516020808201979097528082019590955260608501939093526001600160a01b03909116608084015260a0808401919091528151808403909101815260c09092019052805191012060075550565b6000620005d2836001600160a01b0384166001600160e01b03620005df16565b90505b92915050565b4690565b6000620005f683836001600160e01b036200063716565b6200062e57508154600181810184556000848152602080822090930184905584548482528286019093526040902091909155620005d5565b506000620005d5565b60009081526001919091016020526040902054151590565b828054600181600116156101000203166002900490600052602060002090601f016020900481019282601f106200069257805160ff1916838001178555620006c2565b82800160010185558215620006c2579182015b82811115620006c2578251825591602001919060010190620006a5565b50620006d0929150620006d4565b5090565b6200038191905b80821115620006d05760008155600101620006db565b6135e580620007016000396000f3fe60806040526004361061019b5760003560e01c806336568abe116100ec578063a22cb4651161008a578063cf2c52cb11610064578063cf2c52cb14610b8e578063d547741f14610c19578063e985e9c514610c52578063f242432a14610c8d5761019b565b8063a22cb46514610b14578063a3b0b5a314610b4f578063ca15c87314610b645761019b565b8063731133e9116100c6578063731133e9146109e35780639010d07c14610a7a57806391d1485414610ac6578063a217fddf14610aff5761019b565b806336568abe1461075f5780634e1273f4146107985780635c5fb521146109185761019b565b806320379ee5116101595780632d0335ab116101335780632d0335ab146105105780632eb2c2d6146105435780632f2ff15d146107115780633408e4701461074a5761019b565b806320379ee5146104a15780632262f53f146104b6578063248a9ca3146104e65761019b565b8062fdd58e146101a057806301ffc9a7146101eb5780630c53c51c146102335780630e89341c146103355780630f7e59701461035f5780631f7fdffa14610374575b600080fd5b3480156101ac57600080fd5b506101d9600480360360408110156101c357600080fd5b506001600160a01b038135169060200135610d63565b60408051918252519081900360200190f35b3480156101f757600080fd5b5061021f6004803603602081101561020e57600080fd5b50356001600160e01b031916610dd5565b604080519115158252519081900360200190f35b6102c0600480360360a081101561024957600080fd5b6001600160a01b038235169190810190604081016020820135600160201b81111561027357600080fd5b82018360208201111561028557600080fd5b803590602001918460018302840111600160201b831117156102a657600080fd5b91935091508035906020810135906040013560ff16610df4565b6040805160208082528351818301528351919283929083019185019080838360005b838110156102fa5781810151838201526020016102e2565b50505050905090810190601f1680156103275780820380516001836020036101000a031916815260200191505b509250505060405180910390f35b34801561034157600080fd5b506102c06004803603602081101561035857600080fd5b503561107d565b34801561036b57600080fd5b506102c0611115565b34801561038057600080fd5b5061049f6004803603608081101561039757600080fd5b6001600160a01b038235169190810190604081016020820135600160201b8111156103c157600080fd5b8201836020820111156103d357600080fd5b803590602001918460208302840111600160201b831117156103f457600080fd5b919390929091602081019035600160201b81111561041157600080fd5b82018360208201111561042357600080fd5b803590602001918460208302840111600160201b8311171561044457600080fd5b919390929091602081019035600160201b81111561046157600080fd5b82018360208201111561047357600080fd5b803590602001918460018302840111600160201b8311171561049457600080fd5b509092509050611132565b005b3480156104ad57600080fd5b506101d9611292565b3480156104c257600080fd5b5061049f600480360360408110156104d957600080fd5b5080359060200135611298565b3480156104f257600080fd5b506101d96004803603602081101561050957600080fd5b50356112ae565b34801561051c57600080fd5b506101d96004803603602081101561053357600080fd5b50356001600160a01b03166112c3565b34801561054f57600080fd5b5061049f600480360360a081101561056657600080fd5b6001600160a01b038235811692602081013590911691810190606081016040820135600160201b81111561059957600080fd5b8201836020820111156105ab57600080fd5b803590602001918460208302840111600160201b831117156105cc57600080fd5b9190808060200260200160405190810160405280939291908181526020018383602002808284376000920191909152509295949360208101935035915050600160201b81111561061b57600080fd5b82018360208201111561062d57600080fd5b803590602001918460208302840111600160201b8311171561064e57600080fd5b9190808060200260200160405190810160405280939291908181526020018383602002808284376000920191909152509295949360208101935035915050600160201b81111561069d57600080fd5b8201836020820111156106af57600080fd5b803590602001918460018302840111600160201b831117156106d057600080fd5b91908080601f0160208091040260200160405190810160405280939291908181526020018383808284376000920191909152509295506112de945050505050565b34801561071d57600080fd5b5061049f6004803603604081101561073457600080fd5b50803590602001356001600160a01b03166115dc565b34801561075657600080fd5b506101d961163f565b34801561076b57600080fd5b5061049f6004803603604081101561078257600080fd5b50803590602001356001600160a01b0316611643565b3480156107a457600080fd5b506108c8600480360360408110156107bb57600080fd5b810190602081018135600160201b8111156107d557600080fd5b8201836020820111156107e757600080fd5b803590602001918460208302840111600160201b8311171561080857600080fd5b9190808060200260200160405190810160405280939291908181526020018383602002808284376000920191909152509295949360208101935035915050600160201b81111561085757600080fd5b82018360208201111561086957600080fd5b803590602001918460208302840111600160201b8311171561088a57600080fd5b9190808060200260200160405190810160405280939291908181526020018383602002808284376000920191909152509295506116a4945050505050565b60408051602080825283518183015283519192839290830191858101910280838360005b838110156109045781810151838201526020016108ec565b505050509050019250505060405180910390f35b34801561092457600080fd5b5061049f6004803603604081101561093b57600080fd5b810190602081018135600160201b81111561095557600080fd5b82018360208201111561096757600080fd5b803590602001918460208302840111600160201b8311171561098857600080fd5b919390929091602081019035600160201b8111156109a557600080fd5b8201836020820111156109b757600080fd5b803590602001918460208302840111600160201b831117156109d857600080fd5b509092509050611822565b3480156109ef57600080fd5b5061049f60048036036080811015610a0657600080fd5b6001600160a01b038235169160208101359160408201359190810190608081016060820135600160201b811115610a3c57600080fd5b820183602082011115610a4e57600080fd5b803590602001918460018302840111600160201b83111715610a6f57600080fd5b50909250905061189d565b348015610a8657600080fd5b50610aaa60048036036040811015610a9d57600080fd5b5080359060200135611954565b604080516001600160a01b039092168252519081900360200190f35b348015610ad257600080fd5b5061021f60048036036040811015610ae957600080fd5b50803590602001356001600160a01b0316611979565b348015610b0b57600080fd5b506101d9611997565b348015610b2057600080fd5b5061049f60048036036040811015610b3757600080fd5b506001600160a01b038135169060200135151561199c565b348015610b5b57600080fd5b506101d9611a8b565b348015610b7057600080fd5b506101d960048036036020811015610b8757600080fd5b5035611ab1565b348015610b9a57600080fd5b5061049f60048036036040811015610bb157600080fd5b6001600160a01b038235169190810190604081016020820135600160201b811115610bdb57600080fd5b820183602082011115610bed57600080fd5b803590602001918460018302840111600160201b83111715610c0e57600080fd5b509092509050611ac8565b348015610c2557600080fd5b5061049f60048036036040811015610c3c57600080fd5b50803590602001356001600160a01b0316611d64565b348015610c5e57600080fd5b5061021f60048036036040811015610c7557600080fd5b506001600160a01b0381358116916020013516611dbd565b348015610c9957600080fd5b5061049f600480360360a0811015610cb057600080fd5b6001600160a01b03823581169260208101359091169160408201359160608101359181019060a081016080820135600160201b811115610cef57600080fd5b820183602082011115610d0157600080fd5b803590602001918460018302840111600160201b83111715610d2257600080fd5b91908080601f016020809104026020016040519081016040528093929190818152602001838380828437600092019190915250929550611deb945050505050565b60006001600160a01b038316610daa5760405162461bcd60e51b815260040180806020018281038252602b8152602001806132b6602b913960400191505060405180910390fd5b5060008181526001602090815260408083206001600160a01b03861684529091529020545b92915050565b6001600160e01b03191660009081526020819052604090205460ff1690565b6060610dfe6131de565b604080516060810182526001600160a01b038a1660008181526008602090815290849020548352808301919091528251601f8a0182900482028101820184528981529192830191908a908a908190840183828082843760009201919091525050509152509050610e718882878787611fbc565b610eac5760405162461bcd60e51b81526004018080602001828103825260218152602001806134c56021913960400191505060405180910390fd5b6001600160a01b0388166000818152600860209081526040918290208054600101905581518181529081018990523392917f5845892132946850460bff5a0083f71031bc5bf9aadcd40f1de79423eac9b10b918b918b919081908101848480828437600083820152604051601f909101601f19169092018290039550909350505050a360006060306001600160a01b031689898c6040516020018084848082843780830192505050826001600160a01b03166001600160a01b031660601b815260140193505050506040516020818303038152906040526040518082805190602001908083835b60208310610fb25780518252601f199092019160209182019101610f93565b6001836020036101000a0380198251168184511680821785525050505050509050019150506000604051808303816000865af19150503d8060008114611014576040519150601f19603f3d011682016040523d82523d6000602084013e611019565b606091505b509150915081611070576040805162461bcd60e51b815260206004820152601c60248201527f46756e6374696f6e2063616c6c206e6f74207375636365737366756c00000000604482015290519081900360640190fd5b9998505050505050505050565b60038054604080516020601f60026000196101006001881615020190951694909404938401819004810282018101909252828152606093909290918301828280156111095780601f106110de57610100808354040283529160200191611109565b820191906000526020600020905b8154815290600101906020018083116110ec57829003601f168201915b50505050509050919050565b604051806040016040528060018152602001603160f81b81525081565b600061114581611140612099565b611979565b6005906111e55760405162461bcd60e51b81526020600482019081528254600260001961010060018416150201909116046024830181905290918291604490910190849080156111d65780601f106111ab576101008083540402835291602001916111d6565b820191906000526020600020905b8154815290600101906020018083116111b957829003601f168201915b50509250505060405180910390fd5b506112888888888080602002602001604051908101604052809392919081815260200183836020028082843760009201919091525050604080516020808c0282810182019093528b82529093508b92508a91829185019084908082843760009201919091525050604080516020601f8b0181900481028201810190925289815292508991508890819084018382808284376000920191909152506120a892505050565b5050505050505050565b60075490565b6112aa6112a3612099565b83836122fd565b5050565b60009081526004602052604090206002015490565b6001600160a01b031660009081526008602052604090205490565b815183511461131e5760405162461bcd60e51b81526004018080602001828103825260288152602001806135386028913960400191505060405180910390fd5b6001600160a01b0384166113635760405162461bcd60e51b81526004018080602001828103825260258152602001806134216025913960400191505060405180910390fd5b61136b612099565b6001600160a01b0316856001600160a01b03161480611396575061139685611391612099565b611dbd565b6113d15760405162461bcd60e51b81526004018080602001828103825260328152602001806134466032913960400191505060405180910390fd5b60006113db612099565b90506113eb8187878787876115d4565b60005b84518110156114ec57600085828151811061140557fe5b60200260200101519050600085838151811061141d57fe5b6020026020010151905061148a816040518060600160405280602a815260200161349b602a91396001600086815260200190815260200160002060008d6001600160a01b03166001600160a01b03168152602001908152602001600020546124369092919063ffffffff16565b60008381526001602090815260408083206001600160a01b038e811685529252808320939093558a16815220546114c190826124cd565b60009283526001602081815260408086206001600160a01b038d1687529091529093205550016113ee565b50846001600160a01b0316866001600160a01b0316826001600160a01b03167f4a39dc06d4c0dbc64b70af90fd698a233a518aa5d07e595d983b8c0526c8f7fb8787604051808060200180602001838103835285818151815260200191508051906020019060200280838360005b8381101561157257818101518382015260200161155a565b50505050905001838103825284818151815260200191508051906020019060200280838360005b838110156115b1578181015183820152602001611599565b5050505090500194505050505060405180910390a46115d4818787878787612527565b505050505050565b6000828152600460205260409020600201546115fa90611140612099565b6116355760405162461bcd60e51b815260040180806020018281038252602f815260200180613287602f913960400191505060405180910390fd5b6112aa828261285c565b4690565b61164b612099565b6001600160a01b0316816001600160a01b03161461169a5760405162461bcd60e51b815260040180806020018281038252602f815260200180613581602f913960400191505060405180910390fd5b6112aa82826128cb565b606081518351146116e65760405162461bcd60e51b815260040180806020018281038252602981526020018061350f6029913960400191505060405180910390fd5b6060835167ffffffffffffffff8111801561170057600080fd5b5060405190808252806020026020018201604052801561172a578160200160208202803683370190505b50905060005b845181101561181a5760006001600160a01b031685828151811061175057fe5b60200260200101516001600160a01b0316141561179e5760405162461bcd60e51b81526004018080602001828103825260318152602001806132e16031913960400191505060405180910390fd5b600160008583815181106117ae57fe5b6020026020010151815260200190815260200160002060008683815181106117d257fe5b60200260200101516001600160a01b03166001600160a01b031681526020019081526020016000205482828151811061180757fe5b6020908102919091010152600101611730565b509392505050565b61189761182d612099565b8585808060200260200160405190810160405280939291908181526020018383602002808284376000920191909152505060408051602080890282810182019093528882529093508892508791829185019084908082843760009201919091525061293a92505050565b50505050565b60006118ab81611140612099565b6005906119115760405162461bcd60e51b81526020600482019081528254600260001961010060018416150201909116046024830181905290918291604490910190849080156111d65780601f106111ab576101008083540402835291602001916111d6565b506115d486868686868080601f016020809104026020016040519081016040528093929190818152602001838380828437600092019190915250612ba892505050565b6000828152600460205260408120611972908363ffffffff612caf16565b9392505050565b6000828152600460205260408120611972908363ffffffff612cbb16565b600081565b816001600160a01b03166119ae612099565b6001600160a01b031614156119f45760405162461bcd60e51b81526004018080602001828103825260298152602001806134e66029913960400191505060405180910390fd5b8060026000611a01612099565b6001600160a01b03908116825260208083019390935260409182016000908120918716808252919093529120805460ff191692151592909217909155611a45612099565b60408051841515815290516001600160a01b0392909216917f17307eab39ab6107e8899845ad3d59bd9653f200f220920489ca2b5937696c319181900360200190a35050565b604080516d4445504f5349544f525f524f4c4560901b8152905190819003600e01902081565b6000818152600460205260408120610dcf90612cd0565b604080516d4445504f5349544f525f524f4c4560901b8152905190819003600e019020611af781611140612099565b600590611b5d5760405162461bcd60e51b81526020600482019081528254600260001961010060018416150201909116046024830181905290918291604490910190849080156111d65780601f106111ab576101008083540402835291602001916111d6565b50606080606085856060811015611b7357600080fd5b810190602081018135600160201b811115611b8d57600080fd5b820183602082011115611b9f57600080fd5b803590602001918460208302840111600160201b83111715611bc057600080fd5b9190808060200260200160405190810160405280939291908181526020018383602002808284376000920191909152509295949360208101935035915050600160201b811115611c0f57600080fd5b820183602082011115611c2157600080fd5b803590602001918460208302840111600160201b83111715611c4257600080fd5b9190808060200260200160405190810160405280939291908181526020018383602002808284376000920191909152509295949360208101935035915050600160201b811115611c9157600080fd5b820183602082011115611ca357600080fd5b803590602001918460018302840111600160201b83111715611cc457600080fd5b91908080601f016020809104026020016040519081016040528093929190818152602001838380828437600092019190915250979a50959850909650505050506001600160a01b03891615159150611d4f90505760405162461bcd60e51b815260040180806020018281038252602a8152602001806133a2602a913960400191505060405180910390fd5b611d5b878484846120a8565b50505050505050565b600082815260046020526040902060020154611d8290611140612099565b61169a5760405162461bcd60e51b81526004018080602001828103825260308152602001806133cc6030913960400191505060405180910390fd5b6001600160a01b03918216600090815260026020908152604080832093909416825291909152205460ff1690565b6001600160a01b038416611e305760405162461bcd60e51b81526004018080602001828103825260258152602001806134216025913960400191505060405180910390fd5b611e38612099565b6001600160a01b0316856001600160a01b03161480611e5e5750611e5e85611391612099565b611e995760405162461bcd60e51b81526004018080602001828103825260298152602001806133796029913960400191505060405180910390fd5b6000611ea3612099565b9050611ec3818787611eb488612cdb565b611ebd88612cdb565b876115d4565b611f10836040518060600160405280602a815260200161349b602a913960008781526001602090815260408083206001600160a01b038d168452909152902054919063ffffffff61243616565b60008581526001602090815260408083206001600160a01b038b81168552925280832093909355871681522054611f4790846124cd565b60008581526001602090815260408083206001600160a01b03808b168086529184529382902094909455805188815291820187905280518a8416938616927fc3d58168c5ae7397731d063d5bbf3d657854427343f4c083240f7aacaa2d0f6292908290030190a46115d4818787878787612d1f565b60006001600160a01b0386166120035760405162461bcd60e51b81526004018080602001828103825260258152602001806133fc6025913960400191505060405180910390fd5b600161201661201187612eb2565b612f3e565b83868660405160008152602001604052604051808581526020018460ff1660ff1681526020018381526020018281526020019450505050506020604051602081039080840390855afa158015612070573d6000803e3d6000fd5b505050602060405103516001600160a01b0316866001600160a01b031614905095945050505050565b60006120a3612f8a565b905090565b6001600160a01b0384166120ed5760405162461bcd60e51b81526004018080602001828103825260218152602001806135606021913960400191505060405180910390fd5b815183511461212d5760405162461bcd60e51b81526004018080602001828103825260288152602001806135386028913960400191505060405180910390fd5b6000612137612099565b9050612148816000878787876115d4565b60005b845181101561220c576121c36001600087848151811061216757fe5b602002602001015181526020019081526020016000206000886001600160a01b03166001600160a01b03168152602001908152602001600020548583815181106121ad57fe5b60200260200101516124cd90919063ffffffff16565b600160008784815181106121d357fe5b602090810291909101810151825281810192909252604090810160009081206001600160a01b038b16825290925290205560010161214b565b50846001600160a01b031660006001600160a01b0316826001600160a01b03167f4a39dc06d4c0dbc64b70af90fd698a233a518aa5d07e595d983b8c0526c8f7fb8787604051808060200180602001838103835285818151815260200191508051906020019060200280838360005b8381101561229357818101518382015260200161227b565b50505050905001838103825284818151815260200191508051906020019060200280838360005b838110156122d25781810151838201526020016122ba565b5050505090500194505050505060405180910390a46122f681600087878787612527565b5050505050565b6001600160a01b0383166123425760405162461bcd60e51b81526004018080602001828103825260238152602001806134786023913960400191505060405180910390fd5b600061234c612099565b905061237c8185600061235e87612cdb565b61236787612cdb565b604051806020016040528060008152506115d4565b6123c9826040518060600160405280602481526020016133556024913960008681526001602090815260408083206001600160a01b038b168452909152902054919063ffffffff61243616565b60008481526001602090815260408083206001600160a01b03808a16808652918452828520959095558151888152928301879052815193949093908616927fc3d58168c5ae7397731d063d5bbf3d657854427343f4c083240f7aacaa2d0f6292908290030190a450505050565b600081848411156124c55760405162461bcd60e51b81526004018080602001828103825283818151815260200191508051906020019080838360005b8381101561248a578181015183820152602001612472565b50505050905090810190601f1680156124b75780820380516001836020036101000a031916815260200191505b509250505060405180910390fd5b505050900390565b600082820183811015611972576040805162461bcd60e51b815260206004820152601b60248201527f536166654d6174683a206164646974696f6e206f766572666c6f770000000000604482015290519081900360640190fd5b612539846001600160a01b0316612fe8565b156115d457836001600160a01b031663bc197c8187878686866040518663ffffffff1660e01b815260040180866001600160a01b03166001600160a01b03168152602001856001600160a01b03166001600160a01b03168152602001806020018060200180602001848103845287818151815260200191508051906020019060200280838360005b838110156125d95781810151838201526020016125c1565b50505050905001848103835286818151815260200191508051906020019060200280838360005b83811015612618578181015183820152602001612600565b50505050905001848103825285818151815260200191508051906020019080838360005b8381101561265457818101518382015260200161263c565b50505050905090810190601f1680156126815780820380516001836020036101000a031916815260200191505b5098505050505050505050602060405180830381600087803b1580156126a657600080fd5b505af19250505080156126cb57506040513d60208110156126c657600080fd5b505160015b61280d576040516000815260443d10156126e757506000612784565b60046000803e60005160e01c6308c379a08114612708576000915050612784565b60043d036004833e81513d602482011167ffffffffffffffff8211171561273457600092505050612784565b808301805167ffffffffffffffff811115612756576000945050505050612784565b8060208301013d860181111561277457600095505050505050612784565b601f01601f191660405250925050505b8061278f57506127d6565b60405162461bcd60e51b815260206004820181815283516024840152835184939192839260440191908501908083836000831561248a578181015183820152602001612472565b60405162461bcd60e51b81526004018080602001828103825260348152602001806132096034913960400191505060405180910390fd5b6001600160e01b0319811663bc197c8160e01b14611d5b5760405162461bcd60e51b815260040180806020018281038252602881526020018061325f6028913960400191505060405180910390fd5b600082815260046020526040902061287a908263ffffffff61302416565b156112aa57612887612099565b6001600160a01b0316816001600160a01b0316837f2f8788117e7eff1d82e926ec794901d17c78024a50270940304540a733656f0d60405160405180910390a45050565b60008281526004602052604090206128e9908263ffffffff61303916565b156112aa576128f6612099565b6001600160a01b0316816001600160a01b0316837ff6391f5c32d9c69d2a47ea670b442974b53935d1edc7fd64eb21e047a839171b60405160405180910390a45050565b6001600160a01b03831661297f5760405162461bcd60e51b81526004018080602001828103825260238152602001806134786023913960400191505060405180910390fd5b80518251146129bf5760405162461bcd60e51b81526004018080602001828103825260288152602001806135386028913960400191505060405180910390fd5b60006129c9612099565b90506129e9818560008686604051806020016040528060008152506115d4565b60005b8351811015612ac757612a7e838281518110612a0457fe5b60200260200101516040518060600160405280602481526020016133556024913960016000888681518110612a3557fe5b602002602001015181526020019081526020016000206000896001600160a01b03166001600160a01b03168152602001908152602001600020546124369092919063ffffffff16565b60016000868481518110612a8e57fe5b602090810291909101810151825281810192909252604090810160009081206001600160a01b038a1682529092529020556001016129ec565b5060006001600160a01b0316846001600160a01b0316826001600160a01b03167f4a39dc06d4c0dbc64b70af90fd698a233a518aa5d07e595d983b8c0526c8f7fb8686604051808060200180602001838103835285818151815260200191508051906020019060200280838360005b83811015612b4e578181015183820152602001612b36565b50505050905001838103825284818151815260200191508051906020019060200280838360005b83811015612b8d578181015183820152602001612b75565b5050505090500194505050505060405180910390a450505050565b6001600160a01b038416612bed5760405162461bcd60e51b81526004018080602001828103825260218152602001806135606021913960400191505060405180910390fd5b6000612bf7612099565b9050612c0981600087611eb488612cdb565b60008481526001602090815260408083206001600160a01b0389168452909152902054612c3c908463ffffffff6124cd16565b60008581526001602090815260408083206001600160a01b03808b16808652918452828520959095558151898152928301889052815190948616927fc3d58168c5ae7397731d063d5bbf3d657854427343f4c083240f7aacaa2d0f6292908290030190a46122f681600087878787612d1f565b6000611972838361304e565b6000611972836001600160a01b0384166130b2565b6000610dcf826130ca565b604080516001808252818301909252606091829190602080830190803683370190505090508281600081518110612d0e57fe5b602090810291909101015292915050565b612d31846001600160a01b0316612fe8565b156115d457836001600160a01b031663f23a6e6187878686866040518663ffffffff1660e01b815260040180866001600160a01b03166001600160a01b03168152602001856001600160a01b03166001600160a01b0316815260200184815260200183815260200180602001828103825283818151815260200191508051906020019080838360005b83811015612dd2578181015183820152602001612dba565b50505050905090810190601f168015612dff5780820380516001836020036101000a031916815260200191505b509650505050505050602060405180830381600087803b158015612e2257600080fd5b505af1925050508015612e4757506040513d6020811015612e4257600080fd5b505160015b612e63576040516000815260443d10156126e757506000612784565b6001600160e01b0319811663f23a6e6160e01b14611d5b5760405162461bcd60e51b815260040180806020018281038252602881526020018061325f6028913960400191505060405180910390fd5b600060405180608001604052806043815260200161331260439139805190602001208260000151836020015184604001518051906020012060405160200180858152602001848152602001836001600160a01b03166001600160a01b03168152602001828152602001945050505050604051602081830303815290604052805190602001209050919050565b6000612f48611292565b82604051602001808061190160f01b81525060020183815260200182815260200192505050604051602081830303815290604052805190602001209050919050565b600033301415612fe25760606000368080601f0160208091040260200160405190810160405280939291908181526020018383808284376000920191909152505050503601516001600160a01b03169150612fe59050565b50335b90565b6000813f7fc5d2460186f7233c927e7db2dcc703c0e500b653ca82273b7bfad8045d85a47081811480159061301c57508115155b949350505050565b6000611972836001600160a01b0384166130ce565b6000611972836001600160a01b038416613118565b815460009082106130905760405162461bcd60e51b815260040180806020018281038252602281526020018061323d6022913960400191505060405180910390fd5b82600001828154811061309f57fe5b9060005260206000200154905092915050565b60009081526001919091016020526040902054151590565b5490565b60006130da83836130b2565b61311057508154600181810184556000848152602080822090930184905584548482528286019093526040902091909155610dcf565b506000610dcf565b600081815260018301602052604081205480156131d4578354600019808301919081019060009087908390811061314b57fe5b906000526020600020015490508087600001848154811061316857fe5b60009182526020808320909101929092558281526001898101909252604090209084019055865487908061319857fe5b60019003818190600052602060002001600090559055866001016000878152602001908152602001600020600090556001945050505050610dcf565b6000915050610dcf565b60405180606001604052806000815260200160006001600160a01b0316815260200160608152509056fe455243313135353a207472616e7366657220746f206e6f6e2045524331313535526563656976657220696d706c656d656e746572456e756d657261626c655365743a20696e646578206f7574206f6620626f756e6473455243313135353a204552433131353552656365697665722072656a656374656420746f6b656e73416363657373436f6e74726f6c3a2073656e646572206d75737420626520616e2061646d696e20746f206772616e74455243313135353a2062616c616e636520717565727920666f7220746865207a65726f2061646472657373455243313135353a2062617463682062616c616e636520717565727920666f7220746865207a65726f20616464726573734d6574615472616e73616374696f6e2875696e74323536206e6f6e63652c616464726573732066726f6d2c62797465732066756e6374696f6e5369676e617475726529455243313135353a206275726e20616d6f756e7420657863656564732062616c616e6365455243313135353a2063616c6c6572206973206e6f74206f776e6572206e6f7220617070726f7665644368696c644d696e7461626c65455243313135353a20494e56414c49445f4445504f5349545f55534552416363657373436f6e74726f6c3a2073656e646572206d75737420626520616e2061646d696e20746f207265766f6b654e61746976654d6574615472616e73616374696f6e3a20494e56414c49445f5349474e4552455243313135353a207472616e7366657220746f20746865207a65726f2061646472657373455243313135353a207472616e736665722063616c6c6572206973206e6f74206f776e6572206e6f7220617070726f766564455243313135353a206275726e2066726f6d20746865207a65726f2061646472657373455243313135353a20696e73756666696369656e742062616c616e636520666f72207472616e736665725369676e657220616e64207369676e617475726520646f206e6f74206d61746368455243313135353a2073657474696e6720617070726f76616c2073746174757320666f722073656c66455243313135353a206163636f756e747320616e6420696473206c656e677468206d69736d61746368455243313135353a2069647320616e6420616d6f756e7473206c656e677468206d69736d61746368455243313135353a206d696e7420746f20746865207a65726f2061646472657373416363657373436f6e74726f6c3a2063616e206f6e6c792072656e6f756e636520726f6c657320666f722073656c66a26469706673582212203e81c4b230262466b47d5e5aeefe58d8deabb62265b44d8736b4eeb91e4d277664736f6c63430006060033454950373132446f6d61696e28737472696e67206e616d652c737472696e672076657273696f6e2c6164647265737320766572696679696e67436f6e74726163742c627974657333322073616c7429","linkReferences":{}},"methodIdentifiers":{"DEFAULT_ADMIN_ROLE()":"a217fddf","DEPOSITOR_ROLE()":"a3b0b5a3","ERC712_VERSION()":"0f7e5970","balanceOf(address,uint256)":"00fdd58e","balanceOfBatch(address[],uint256[])":"4e1273f4","deposit(address,bytes)":"cf2c52cb","executeMetaTransaction(address,bytes,bytes32,bytes32,uint8)":"0c53c51c","getChainId()":"3408e470","getDomainSeperator()":"20379ee5","getNonce(address)":"2d0335ab","getRoleAdmin(bytes32)":"248a9ca3","getRoleMember(bytes32,uint256)":"9010d07c","getRoleMemberCount(bytes32)":"ca15c873","grantRole(bytes32,address)":"2f2ff15d","hasRole(bytes32,address)":"91d14854","isApprovedForAll(address,address)":"e985e9c5","mint(address,uint256,uint256,bytes)":"731133e9","mintBatch(address,uint256[],uint256[],bytes)":"1f7fdffa","renounceRole(bytes32,address)":"36568abe","revokeRole(bytes32,address)":"d547741f","safeBatchTransferFrom(address,address,uint256[],uint256[],bytes)":"2eb2c2d6","safeTransferFrom(address,address,uint256,uint256,bytes)":"f242432a","setApprovalForAll(address,bool)":"a22cb465","supportsInterface(bytes4)":"01ffc9a7","uri(uint256)":"0e89341c","withdrawBatch(uint256[],uint256[])":"5c5fb521","withdrawSingle(uint256,uint256)":"2262f53f"},"id":7}