{
  "_format": "hh-sol-artifact-1",
  "contractName": "MintableERC1155Predicate",
  "sourceName": "contracts/root/TokenPredicates/MintableERC1155Predicate.sol",
  "abi": [
    {
      "inputs": [],
      "stateMutability": "nonpayable",
      "type": "constructor"
    },
    {
      "anonymous": false,
      "inputs": [
        {
          "indexed": true,
          "internalType": "address",
          "name": "depositor",
          "type": "address"
        },
        {
          "indexed": true,
          "internalType": "address",
          "name": "depositReceiver",
          "type": "address"
        },
        {
          "indexed": true,
          "internalType": "address",
          "name": "rootToken",
          "type": "address"
        },
        {
          "indexed": false,
          "internalType": "uint256[]",
          "name": "ids",
          "type": "uint256[]"
        },
        {
          "indexed": false,
          "internalType": "uint256[]",
          "name": "amounts",
          "type": "uint256[]"
        }
      ],
      "name": "LockedBatchMintableERC1155",
      "type": "event"
    },
    {
      "anonymous": false,
      "inputs": [
        {
          "indexed": true,
          "internalType": "bytes32",
          "name": "role",
          "type": "bytes32"
        },
        {
          "indexed": true,
          "internalType": "bytes32",
          "name": "previousAdminRole",
          "type": "bytes32"
        },
        {
          "indexed": true,
          "internalType": "bytes32",
          "name": "newAdminRole",
          "type": "bytes32"
        }
      ],
      "name": "RoleAdminChanged",
      "type": "event"
    },
    {
      "anonymous": false,
      "inputs": [
        {
          "indexed": true,
          "internalType": "bytes32",
          "name": "role",
          "type": "bytes32"
        },
        {
          "indexed": true,
          "internalType": "address",
          "name": "account",
          "type": "address"
        },
        {
          "indexed": true,
          "internalType": "address",
          "name": "sender",
          "type": "address"
        }
      ],
      "name": "RoleGranted",
      "type": "event"
    },
    {
      "anonymous": false,
      "inputs": [
        {
          "indexed": true,
          "internalType": "bytes32",
          "name": "role",
          "type": "bytes32"
        },
        {
          "indexed": true,
          "internalType": "address",
          "name": "account",
          "type": "address"
        },
        {
          "indexed": true,
          "internalType": "address",
          "name": "sender",
          "type": "address"
        }
      ],
      "name": "RoleRevoked",
      "type": "event"
    },
    {
      "inputs": [],
      "name": "DEFAULT_ADMIN_ROLE",
      "outputs": [
        {
          "internalType": "bytes32",
          "name": "",
          "type": "bytes32"
        }
      ],
      "stateMutability": "view",
      "type": "function"
    },
    {
      "inputs": [],
      "name": "MANAGER_ROLE",
      "outputs": [
        {
          "internalType": "bytes32",
          "name": "",
          "type": "bytes32"
        }
      ],
      "stateMutability": "view",
      "type": "function"
    },
    {
      "inputs": [],
      "name": "TOKEN_TYPE",
      "outputs": [
        {
          "internalType": "bytes32",
          "name": "",
          "type": "bytes32"
        }
      ],
      "stateMutability": "view",
      "type": "function"
    },
    {
      "inputs": [],
      "name": "TRANSFER_BATCH_EVENT_SIG",
      "outputs": [
        {
          "internalType": "bytes32",
          "name": "",
          "type": "bytes32"
        }
      ],
      "stateMutability": "view",
      "type": "function"
    },
    {
      "inputs": [],
      "name": "TRANSFER_SINGLE_EVENT_SIG",
      "outputs": [
        {
          "internalType": "bytes32",
          "name": "",
          "type": "bytes32"
        }
      ],
      "stateMutability": "view",
      "type": "function"
    },
    {
      "inputs": [
        {
          "internalType": "address",
          "name": "",
          "type": "address"
        },
        {
          "internalType": "address",
          "name": "rootToken",
          "type": "address"
        },
        {
          "internalType": "bytes",
          "name": "log",
          "type": "bytes"
        }
      ],
      "name": "exitTokens",
      "outputs": [],
      "stateMutability": "nonpayable",
      "type": "function"
    },
    {
      "inputs": [
        {
          "internalType": "bytes32",
          "name": "role",
          "type": "bytes32"
        }
      ],
      "name": "getRoleAdmin",
      "outputs": [
        {
          "internalType": "bytes32",
          "name": "",
          "type": "bytes32"
        }
      ],
      "stateMutability": "view",
      "type": "function"
    },
    {
      "inputs": [
        {
          "internalType": "bytes32",
          "name": "role",
          "type": "bytes32"
        },
        {
          "internalType": "uint256",
          "name": "index",
          "type": "uint256"
        }
      ],
      "name": "getRoleMember",
      "outputs": [
        {
          "internalType": "address",
          "name": "",
          "type": "address"
        }
      ],
      "stateMutability": "view",
      "type": "function"
    },
    {
      "inputs": [
        {
          "internalType": "bytes32",
          "name": "role",
          "type": "bytes32"
        }
      ],
      "name": "getRoleMemberCount",
      "outputs": [
        {
          "internalType": "uint256",
          "name": "",
          "type": "uint256"
        }
      ],
      "stateMutability": "view",
      "type": "function"
    },
    {
      "inputs": [
        {
          "internalType": "bytes32",
          "name": "role",
          "type": "bytes32"
        },
        {
          "internalType": "address",
          "name": "account",
          "type": "address"
        }
      ],
      "name": "grantRole",
      "outputs": [],
      "stateMutability": "nonpayable",
      "type": "function"
    },
    {
      "inputs": [
        {
          "internalType": "bytes32",
          "name": "role",
          "type": "bytes32"
        },
        {
          "internalType": "address",
          "name": "account",
          "type": "address"
        }
      ],
      "name": "hasRole",
      "outputs": [
        {
          "internalType": "bool",
          "name": "",
          "type": "bool"
        }
      ],
      "stateMutability": "view",
      "type": "function"
    },
    {
      "inputs": [
        {
          "internalType": "address",
          "name": "_owner",
          "type": "address"
        }
      ],
      "name": "initialize",
      "outputs": [],
      "stateMutability": "nonpayable",
      "type": "function"
    },
    {
      "inputs": [
        {
          "internalType": "address",
          "name": "depositor",
          "type": "address"
        },
        {
          "internalType": "address",
          "name": "depositReceiver",
          "type": "address"
        },
        {
          "internalType": "address",
          "name": "rootToken",
          "type": "address"
        },
        {
          "internalType": "bytes",
          "name": "depositData",
          "type": "bytes"
        }
      ],
      "name": "lockTokens",
      "outputs": [],
      "stateMutability": "nonpayable",
      "type": "function"
    },
    {
      "inputs": [
        {
          "internalType": "address",
          "name": "",
          "type": "address"
        },
        {
          "internalType": "address",
          "name": "",
          "type": "address"
        },
        {
          "internalType": "uint256[]",
          "name": "",
          "type": "uint256[]"
        },
        {
          "internalType": "uint256[]",
          "name": "",
          "type": "uint256[]"
        },
        {
          "internalType": "bytes",
          "name": "",
          "type": "bytes"
        }
      ],
      "name": "onERC1155BatchReceived",
      "outputs": [
        {
          "internalType": "bytes4",
          "name": "",
          "type": "bytes4"
        }
      ],
      "stateMutability": "nonpayable",
      "type": "function"
    },
    {
      "inputs": [
        {
          "internalType": "address",
          "name": "",
          "type": "address"
        },
        {
          "internalType": "address",
          "name": "",
          "type": "address"
        },
        {
          "internalType": "uint256",
          "name": "",
          "type": "uint256"
        },
        {
          "internalType": "uint256",
          "name": "",
          "type": "uint256"
        },
        {
          "internalType": "bytes",
          "name": "",
          "type": "bytes"
        }
      ],
      "name": "onERC1155Received",
      "outputs": [
        {
          "internalType": "bytes4",
          "name": "",
          "type": "bytes4"
        }
      ],
      "stateMutability": "nonpayable",
      "type": "function"
    },
    {
      "inputs": [
        {
          "internalType": "bytes32",
          "name": "role",
          "type": "bytes32"
        },
        {
          "internalType": "address",
          "name": "account",
          "type": "address"
        }
      ],
      "name": "renounceRole",
      "outputs": [],
      "stateMutability": "nonpayable",
      "type": "function"
    },
    {
      "inputs": [
        {
          "internalType": "bytes32",
          "name": "role",
          "type": "bytes32"
        },
        {
          "internalType": "address",
          "name": "account",
          "type": "address"
        }
      ],
      "name": "revokeRole",
      "outputs": [],
      "stateMutability": "nonpayable",
      "type": "function"
    },
    {
      "inputs": [
        {
          "internalType": "bytes4",
          "name": "interfaceId",
          "type": "bytes4"
        }
      ],
      "name": "supportsInterface",
      "outputs": [
        {
          "internalType": "bool",
          "name": "",
          "type": "bool"
        }
      ],
      "stateMutability": "view",
      "type": "function"
    }
  ],
  "bytecode": "0x60806040526000600360006101000a81548160ff0219169083151502179055503480156200002c57600080fd5b50620000456301ffc9a760e01b6200006c60201b60201c565b6200006663bc197c8160e01b63f23a6e6160e01b186200006c60201b60201c565b62000175565b63ffffffff60e01b817bffffffffffffffffffffffffffffffffffffffffffffffffffffffff1916141562000109576040517f08c379a000000000000000000000000000000000000000000000000000000000815260040180806020018281038252601c8152602001807f4552433136353a20696e76616c696420696e746572666163652069640000000081525060200191505060405180910390fd5b6001600080837bffffffffffffffffffffffffffffffffffffffffffffffffffffffff19167bffffffffffffffffffffffffffffffffffffffffffffffffffffffff1916815260200190815260200160002060006101000a81548160ff02191690831515021790555050565b61308c80620001856000396000f3fe608060405234801561001057600080fd5b50600436106101165760003560e01c8063bc197c81116100a2578063e375b64e11610071578063e375b64e146106fc578063e9cff291146107d5578063eacc7af2146107f3578063ec87621c14610811578063f23a6e611461082f57610116565b8063bc197c8114610473578063c4d66de814610628578063ca15c8731461066c578063d547741f146106ae57610116565b8063609c92b8116100e9578063609c92b81461025e5780638274664f1461027c5780639010d07c1461037757806391d14854146103ef578063a217fddf1461045557610116565b806301ffc9a71461011b578063248a9ca3146101805780632f2ff15d146101c257806336568abe14610210575b600080fd5b6101666004803603602081101561013157600080fd5b8101908080357bffffffffffffffffffffffffffffffffffffffffffffffffffffffff1916906020019092919050505061094e565b604051808215151515815260200191505060405180910390f35b6101ac6004803603602081101561019657600080fd5b81019080803590602001909291905050506109b5565b6040518082815260200191505060405180910390f35b61020e600480360360408110156101d857600080fd5b8101908080359060200190929190803573ffffffffffffffffffffffffffffffffffffffff1690602001909291905050506109d5565b005b61025c6004803603604081101561022657600080fd5b8101908080359060200190929190803573ffffffffffffffffffffffffffffffffffffffff169060200190929190505050610a5f565b005b610266610af8565b6040518082815260200191505060405180910390f35b6103756004803603606081101561029257600080fd5b81019080803573ffffffffffffffffffffffffffffffffffffffff169060200190929190803573ffffffffffffffffffffffffffffffffffffffff169060200190929190803590602001906401000000008111156102ef57600080fd5b82018360208201111561030157600080fd5b8035906020019184600183028401116401000000008311171561032357600080fd5b91908080601f016020809104026020016040519081016040528093929190818152602001838380828437600081840152601f19601f820116905080830192505050505050509192919290505050610b31565b005b6103ad6004803603604081101561038d57600080fd5b810190808035906020019092919080359060200190929190505050611864565b604051808273ffffffffffffffffffffffffffffffffffffffff1673ffffffffffffffffffffffffffffffffffffffff16815260200191505060405180910390f35b61043b6004803603604081101561040557600080fd5b8101908080359060200190929190803573ffffffffffffffffffffffffffffffffffffffff169060200190929190505050611896565b604051808215151515815260200191505060405180910390f35b61045d6118c8565b6040518082815260200191505060405180910390f35b6105d4600480360360a081101561048957600080fd5b81019080803573ffffffffffffffffffffffffffffffffffffffff169060200190929190803573ffffffffffffffffffffffffffffffffffffffff169060200190929190803590602001906401000000008111156104e657600080fd5b8201836020820111156104f857600080fd5b8035906020019184602083028401116401000000008311171561051a57600080fd5b90919293919293908035906020019064010000000081111561053b57600080fd5b82018360208201111561054d57600080fd5b8035906020019184602083028401116401000000008311171561056f57600080fd5b90919293919293908035906020019064010000000081111561059057600080fd5b8201836020820111156105a257600080fd5b803590602001918460018302840111640100000000831117156105c457600080fd5b90919293919293905050506118cf565b60405180827bffffffffffffffffffffffffffffffffffffffffffffffffffffffff19167bffffffffffffffffffffffffffffffffffffffffffffffffffffffff1916815260200191505060405180910390f35b61066a6004803603602081101561063e57600080fd5b81019080803573ffffffffffffffffffffffffffffffffffffffff1690602001909291905050506118e7565b005b6106986004803603602081101561068257600080fd5b8101908080359060200190929190505050611a12565b6040518082815260200191505060405180910390f35b6106fa600480360360408110156106c457600080fd5b8101908080359060200190929190803573ffffffffffffffffffffffffffffffffffffffff169060200190929190505050611a39565b005b6107d36004803603608081101561071257600080fd5b81019080803573ffffffffffffffffffffffffffffffffffffffff169060200190929190803573ffffffffffffffffffffffffffffffffffffffff169060200190929190803573ffffffffffffffffffffffffffffffffffffffff1690602001909291908035906020019064010000000081111561078f57600080fd5b8201836020820111156107a157600080fd5b803590602001918460018302840111640100000000831117156107c357600080fd5b9091929391929390505050611ac3565b005b6107dd61208c565b6040518082815260200191505060405180910390f35b6107fb6120a8565b6040518082815260200191505060405180910390f35b6108196120c4565b6040518082815260200191505060405180910390f35b6108fa600480360360a081101561084557600080fd5b81019080803573ffffffffffffffffffffffffffffffffffffffff169060200190929190803573ffffffffffffffffffffffffffffffffffffffff1690602001909291908035906020019092919080359060200190929190803590602001906401000000008111156108b657600080fd5b8201836020820111156108c857600080fd5b803590602001918460018302840111640100000000831117156108ea57600080fd5b90919293919293905050506120fd565b60405180827bffffffffffffffffffffffffffffffffffffffffffffffffffffffff19167bffffffffffffffffffffffffffffffffffffffffffffffffffffffff1916815260200191505060405180910390f35b6000806000837bffffffffffffffffffffffffffffffffffffffffffffffffffffffff19167bffffffffffffffffffffffffffffffffffffffffffffffffffffffff1916815260200190815260200160002060009054906101000a900460ff169050919050565b600060016000838152602001908152602001600020600201549050919050565b6109fc60016000848152602001908152602001600020600201546109f761210f565b611896565b610a51576040517f08c379a000000000000000000000000000000000000000000000000000000000815260040180806020018281038252602f815260200180612e6a602f913960400191505060405180910390fd5b610a5b8282612117565b5050565b610a6761210f565b73ffffffffffffffffffffffffffffffffffffffff168173ffffffffffffffffffffffffffffffffffffffff1614610aea576040517f08c379a000000000000000000000000000000000000000000000000000000000815260040180806020018281038252602f815260200180613028602f913960400191505060405180910390fd5b610af482826121ab565b5050565b60405180807f4d696e7461626c65455243313135350000000000000000000000000000000000815250600f019050604051809103902081565b60405180807f4d414e414745525f524f4c450000000000000000000000000000000000000000815250600c0190506040518091039020610b7881610b7361210f565b611896565b600290610c3d576040517f08c379a00000000000000000000000000000000000000000000000000000000081526004018080602001828103825283818154600181600116156101000203166002900481526020019150805460018160011615610100020316600290048015610c2e5780601f10610c0357610100808354040283529160200191610c2e565b820191906000526020600020905b815481529060010190602001808311610c1157829003601f168201915b50509250505060405180910390fd5b506060610c51610c4c8461223f565b61226d565b90506060610c7282600181518110610c6557fe5b602002602001015161226d565b90506060610c9383600281518110610c8657fe5b6020026020010151612361565b90506000610cb483600281518110610ca757fe5b60200260200101516123f2565b9050600073ffffffffffffffffffffffffffffffffffffffff16610ceb84600381518110610cde57fe5b60200260200101516123f2565b73ffffffffffffffffffffffffffffffffffffffff1614610d57576040517f08c379a000000000000000000000000000000000000000000000000000000000815260040180806020018281038252602a815260200180612ed3602a913960400191505060405180910390fd5b6000610d7684600081518110610d6957fe5b60200260200101516123f2565b60001b90506040518080612ff1603791396037019050604051809103902081141561113157600080848060200190516040811015610db357600080fd5b8101908080519060200190929190805190602001909291905050509150915060008a905060008173ffffffffffffffffffffffffffffffffffffffff1662fdd58e30866040518363ffffffff1660e01b8152600401808373ffffffffffffffffffffffffffffffffffffffff1673ffffffffffffffffffffffffffffffffffffffff1681526020018281526020019250505060206040518083038186803b158015610e5d57600080fd5b505afa158015610e71573d6000803e3d6000fd5b505050506040513d6020811015610e8757600080fd5b8101908080519060200190929190505050905082811015610fc8578173ffffffffffffffffffffffffffffffffffffffff1663731133e98786848703604051806020016040528060008152506040518563ffffffff1660e01b8152600401808573ffffffffffffffffffffffffffffffffffffffff1673ffffffffffffffffffffffffffffffffffffffff16815260200184815260200183815260200180602001828103825283818151815260200191508051906020019080838360005b83811015610f60578082015181840152602081019050610f45565b50505050905090810190601f168015610f8d5780820380516001836020036101000a031916815260200191505b5095505050505050600060405180830381600087803b158015610faf57600080fd5b505af1158015610fc3573d6000803e3d6000fd5b505050505b60008114611128578173ffffffffffffffffffffffffffffffffffffffff1663f242432a30888785604051806020016040528060008152506040518663ffffffff1660e01b8152600401808673ffffffffffffffffffffffffffffffffffffffff1673ffffffffffffffffffffffffffffffffffffffff1681526020018573ffffffffffffffffffffffffffffffffffffffff1673ffffffffffffffffffffffffffffffffffffffff16815260200184815260200183815260200180602001828103825283818151815260200191508051906020019080838360005b838110156110bf5780820151818401526020810190506110a4565b50505050905090810190601f1680156110ec5780820380516001836020036101000a031916815260200191505b509650505050505050600060405180830381600087803b15801561110f57600080fd5b505af1158015611123573d6000803e3d6000fd5b505050505b50505050611859565b6040518080612e99603a9139603a01905060405180910390208114156118075760608084806020019051604081101561116957600080fd5b810190808051604051939291908464010000000082111561118957600080fd5b8382019150602082018581111561119f57600080fd5b82518660208202830111640100000000821117156111bc57600080fd5b8083526020830192505050908051906020019060200280838360005b838110156111f35780820151818401526020810190506111d8565b505050509050016040526020018051604051939291908464010000000082111561121c57600080fd5b8382019150602082018581111561123257600080fd5b825186602082028301116401000000008211171561124f57600080fd5b8083526020830192505050908051906020019060200280838360005b8381101561128657808201518184015260208101905061126b565b505050509050016040525050509150915060008a905060608173ffffffffffffffffffffffffffffffffffffffff16634e1273f46112c530875161244c565b866040518363ffffffff1660e01b8152600401808060200180602001838103835285818151815260200191508051906020019060200280838360005b8381101561131c578082015181840152602081019050611301565b50505050905001838103825284818151815260200191508051906020019060200280838360005b8381101561135e578082015181840152602081019050611343565b5050505090500194505050505060006040518083038186803b15801561138357600080fd5b505afa158015611397573d6000803e3d6000fd5b505050506040513d6000823e3d601f19601f8201168201806040525060208110156113c157600080fd5b81019080805160405193929190846401000000008211156113e157600080fd5b838201915060208201858111156113f757600080fd5b825186602082028301116401000000008211171561141457600080fd5b8083526020830192505050908051906020019060200280838360005b8381101561144b578082015181840152602081019050611430565b505050509050016040525050509050606060008061146984876125e5565b925092509250811561161b578473ffffffffffffffffffffffffffffffffffffffff16631f7fdffa8a8986604051806020016040528060008152506040518563ffffffff1660e01b8152600401808573ffffffffffffffffffffffffffffffffffffffff1673ffffffffffffffffffffffffffffffffffffffff168152602001806020018060200180602001848103845287818151815260200191508051906020019060200280838360005b83811015611530578082015181840152602081019050611515565b50505050905001848103835286818151815260200191508051906020019060200280838360005b83811015611572578082015181840152602081019050611557565b50505050905001848103825285818151815260200191508051906020019080838360005b838110156115b1578082015181840152602081019050611596565b50505050905090810190601f1680156115de5780820380516001836020036101000a031916815260200191505b50975050505050505050600060405180830381600087803b15801561160257600080fd5b505af1158015611616573d6000803e3d6000fd5b505050505b80156117fb578473ffffffffffffffffffffffffffffffffffffffff16632eb2c2d6308b8a88604051806020016040528060008152506040518663ffffffff1660e01b8152600401808673ffffffffffffffffffffffffffffffffffffffff1673ffffffffffffffffffffffffffffffffffffffff1681526020018573ffffffffffffffffffffffffffffffffffffffff1673ffffffffffffffffffffffffffffffffffffffff168152602001806020018060200180602001848103845287818151815260200191508051906020019060200280838360005b8381101561170f5780820151818401526020810190506116f4565b50505050905001848103835286818151815260200191508051906020019060200280838360005b83811015611751578082015181840152602081019050611736565b50505050905001848103825285818151815260200191508051906020019080838360005b83811015611790578082015181840152602081019050611775565b50505050905090810190601f1680156117bd5780820380516001836020036101000a031916815260200191505b5098505050505050505050600060405180830381600087803b1580156117e257600080fd5b505af11580156117f6573d6000803e3d6000fd5b505050505b50505050505050611858565b6040517f08c379a000000000000000000000000000000000000000000000000000000000815260040180806020018281038252602e815260200180612f8e602e913960400191505060405180910390fd5b5b505050505050505050565b600061188e826001600086815260200190815260200160002060000161275790919063ffffffff16565b905092915050565b60006118c0826001600086815260200190815260200160002060000161277190919063ffffffff16565b905092915050565b6000801b81565b600063bc197c8160e01b905098975050505050505050565b600360009054906101000a900460ff161561196a576040517f08c379a000000000000000000000000000000000000000000000000000000000815260040180806020018281038252600e8152602001807f616c726561647920696e6974656400000000000000000000000000000000000081525060200191505060405180910390fd5b6119a86040518060400160405280601881526020017f4d696e7461626c654552433131353550726564696361746500000000000000008152506127a1565b6119b56000801b8261284d565b6119f460405180807f4d414e414745525f524f4c450000000000000000000000000000000000000000815250600c01905060405180910390208261284d565b6001600360006101000a81548160ff02191690831515021790555050565b6000611a326001600084815260200190815260200160002060000161285b565b9050919050565b611a606001600084815260200190815260200160002060020154611a5b61210f565b611896565b611ab5576040517f08c379a0000000000000000000000000000000000000000000000000000000008152600401808060200182810382526030815260200180612f266030913960400191505060405180910390fd5b611abf82826121ab565b5050565b60405180807f4d414e414745525f524f4c450000000000000000000000000000000000000000815250600c0190506040518091039020611b0a81611b0561210f565b611896565b600290611bcf576040517f08c379a00000000000000000000000000000000000000000000000000000000081526004018080602001828103825283818154600181600116156101000203166002900481526020019150805460018160011615610100020316600290048015611bc05780601f10611b9557610100808354040283529160200191611bc0565b820191906000526020600020905b815481529060010190602001808311611ba357829003601f168201915b50509250505060405180910390fd5b50606080606085856060811015611be557600080fd5b8101908080359060200190640100000000811115611c0257600080fd5b820183602082011115611c1457600080fd5b80359060200191846020830284011164010000000083111715611c3657600080fd5b919080806020026020016040519081016040528093929190818152602001838360200280828437600081840152601f19601f82011690508083019250505050505050919291929080359060200190640100000000811115611c9657600080fd5b820183602082011115611ca857600080fd5b80359060200191846020830284011164010000000083111715611cca57600080fd5b919080806020026020016040519081016040528093929190818152602001838360200280828437600081840152601f19601f82011690508083019250505050505050919291929080359060200190640100000000811115611d2a57600080fd5b820183602082011115611d3c57600080fd5b80359060200191846001830284011164010000000083111715611d5e57600080fd5b91908080601f016020809104026020016040519081016040528093929190818152602001838380828437600081840152601f19601f8201169050808301925050505050505091929192905050509250925092508673ffffffffffffffffffffffffffffffffffffffff168873ffffffffffffffffffffffffffffffffffffffff168a73ffffffffffffffffffffffffffffffffffffffff167f1f512d82dee9e34be6d1fbe7e9eee79cb3185b84686ce1968a3e95f76fdb8c6a8686604051808060200180602001838103835285818151815260200191508051906020019060200280838360005b83811015611e60578082015181840152602081019050611e45565b50505050905001838103825284818151815260200191508051906020019060200280838360005b83811015611ea2578082015181840152602081019050611e87565b5050505090500194505050505060405180910390a48673ffffffffffffffffffffffffffffffffffffffff16632eb2c2d68a308686866040518663ffffffff1660e01b8152600401808673ffffffffffffffffffffffffffffffffffffffff1673ffffffffffffffffffffffffffffffffffffffff1681526020018573ffffffffffffffffffffffffffffffffffffffff1673ffffffffffffffffffffffffffffffffffffffff168152602001806020018060200180602001848103845287818151815260200191508051906020019060200280838360005b83811015611f96578082015181840152602081019050611f7b565b50505050905001848103835286818151815260200191508051906020019060200280838360005b83811015611fd8578082015181840152602081019050611fbd565b50505050905001848103825285818151815260200191508051906020019080838360005b83811015612017578082015181840152602081019050611ffc565b50505050905090810190601f1680156120445780820380516001836020036101000a031916815260200191505b5098505050505050505050600060405180830381600087803b15801561206957600080fd5b505af115801561207d573d6000803e3d6000fd5b50505050505050505050505050565b6040518080612ff1603791396037019050604051809103902081565b6040518080612e99603a9139603a019050604051809103902081565b60405180807f4d414e414745525f524f4c450000000000000000000000000000000000000000815250600c019050604051809103902081565b60008060e01b90509695505050505050565b600033905090565b61213f816001600085815260200190815260200160002060000161287090919063ffffffff16565b156121a75761214c61210f565b73ffffffffffffffffffffffffffffffffffffffff168173ffffffffffffffffffffffffffffffffffffffff16837f2f8788117e7eff1d82e926ec794901d17c78024a50270940304540a733656f0d60405160405180910390a45b5050565b6121d381600160008581526020019081526020016000206000016128a090919063ffffffff16565b1561223b576121e061210f565b73ffffffffffffffffffffffffffffffffffffffff168173ffffffffffffffffffffffffffffffffffffffff16837ff6391f5c32d9c69d2a47ea670b442974b53935d1edc7fd64eb21e047a839171b60405160405180910390a45b5050565b612247612d88565b600060208301905060405180604001604052808451815260200182815250915050919050565b6060612278826128d0565b61228157600080fd5b600061228c8361291e565b905060608167ffffffffffffffff811180156122a757600080fd5b506040519080825280602002602001820160405280156122e157816020015b6122ce612d88565b8152602001906001900390816122c65790505b50905060006122f3856020015161298f565b8560200151019050600080600090505b848110156123545761231483612a18565b915060405180604001604052808381526020018481525084828151811061233757fe5b602002602001018190525081830192508080600101915050612303565b5082945050505050919050565b6060600082600001511161237457600080fd5b60008061238084612ad0565b9150915060608167ffffffffffffffff8111801561239d57600080fd5b506040519080825280601f01601f1916602001820160405280156123d05781602001600182028036833780820191505090505b50905060008160200190506123e6848285612b08565b81945050505050919050565b600080826000015111801561240c57506021826000015111155b61241557600080fd5b60008061242184612ad0565b91509150600082519050602082101561244157816020036101000a810490505b809350505050919050565b6060600073ffffffffffffffffffffffffffffffffffffffff168373ffffffffffffffffffffffffffffffffffffffff1614156124d4576040517f08c379a0000000000000000000000000000000000000000000000000000000008152600401808060200182810382526029815260200180612efd6029913960400191505060405180910390fd5b6000821161252d576040517f08c379a0000000000000000000000000000000000000000000000000000000008152600401808060200182810382526038815260200180612f566038913960400191505060405180910390fd5b60608267ffffffffffffffff8111801561254657600080fd5b506040519080825280602002602001820160405280156125755781602001602082028036833780820191505090505b50905060008090505b838110156125da578482828151811061259357fe5b602002602001019073ffffffffffffffffffffffffffffffffffffffff16908173ffffffffffffffffffffffffffffffffffffffff1681525050808060010191505061257e565b508091505092915050565b60606000808351855114612644576040517f08c379a0000000000000000000000000000000000000000000000000000000008152600401808060200182810382526035815260200180612fbc6035913960400191505060405180910390fd5b6060855167ffffffffffffffff8111801561265e57600080fd5b5060405190808252806020026020018201604052801561268d5781602001602082028036833780820191505090505b50905060008060008090505b8851811015612743578781815181106126ae57fe5b60200260200101518982815181106126c257fe5b60200260200101511015612716578881815181106126dc57fe5b60200260200101518882815181106126f057fe5b60200260200101510384828151811061270557fe5b602002602001018181525050600192505b600089828151811061272457fe5b60200260200101511461273657600191505b8080600101915050612699565b508282829550955095505050509250925092565b60006127668360000183612b79565b60001c905092915050565b6000612799836000018373ffffffffffffffffffffffffffffffffffffffff1660001b612bfc565b905092915050565b806040516020018082805190602001908083835b602083106127d857805182526020820191506020810190506020830392506127b5565b6001836020036101000a038019825116818451168082178552505050505050905001807f3a20494e53554646494349454e545f5045524d495353494f4e53000000000000815250601a0191505060405160208183030381529060405260029080519060200190612849929190612da2565b5050565b6128578282612117565b5050565b600061286982600001612c1f565b9050919050565b6000612898836000018373ffffffffffffffffffffffffffffffffffffffff1660001b612c30565b905092915050565b60006128c8836000018373ffffffffffffffffffffffffffffffffffffffff1660001b612ca0565b905092915050565b600080826000015114156128e75760009050612919565b60008083602001519050805160001a915060c060ff168260ff16101561291257600092505050612919565b6001925050505b919050565b60008082600001511415612935576000905061298a565b60008090506000612949846020015161298f565b84602001510190506000846000015185602001510190505b808210156129835761297282612a18565b820191508280600101935050612961565b8293505050505b919050565b600080825160001a9050608060ff168110156129af576000915050612a13565b60b860ff168110806129d4575060c060ff1681101580156129d3575060f860ff1681105b5b156129e3576001915050612a13565b60c060ff16811015612a035760018060b80360ff16820301915050612a13565b60018060f80360ff168203019150505b919050565b6000806000835160001a9050608060ff16811015612a395760019150612ac6565b60b860ff16811015612a56576001608060ff168203019150612ac5565b60c060ff16811015612a865760b78103600185019450806020036101000a85510460018201810193505050612ac4565b60f860ff16811015612aa357600160c060ff168203019150612ac3565b60f78103600185019450806020036101000a855104600182018101935050505b5b5b5b8192505050919050565b6000806000612ae2846020015161298f565b905060008185602001510190506000828660000151039050818194509450505050915091565b6000811415612b1657612b74565b5b602060ff168110612b465782518252602060ff1683019250602060ff1682019150602060ff1681039050612b17565b6000811115612b73576000600182602060ff16036101000a03905080198451168184511681811785525050505b5b505050565b600081836000018054905011612bda576040517f08c379a0000000000000000000000000000000000000000000000000000000008152600401808060200182810382526022815260200180612e486022913960400191505060405180910390fd5b826000018281548110612be957fe5b9060005260206000200154905092915050565b600080836001016000848152602001908152602001600020541415905092915050565b600081600001805490509050919050565b6000612c3c8383612bfc565b612c95578260000182908060018154018082558091505060019003906000526020600020016000909190919091505582600001805490508360010160008481526020019081526020016000208190555060019050612c9a565b600090505b92915050565b60008083600101600084815260200190815260200160002054905060008114612d7c5760006001820390506000600186600001805490500390506000866000018281548110612ceb57fe5b9060005260206000200154905080876000018481548110612d0857fe5b9060005260206000200181905550600183018760010160008381526020019081526020016000208190555086600001805480612d4057fe5b60019003818190600052602060002001600090559055866001016000878152602001908152602001600020600090556001945050505050612d82565b60009150505b92915050565b604051806040016040528060008152602001600081525090565b828054600181600116156101000203166002900490600052602060002090601f016020900481019282601f10612de357805160ff1916838001178555612e11565b82800160010185558215612e11579182015b82811115612e10578251825591602001919060010190612df5565b5b509050612e1e9190612e22565b5090565b612e4491905b80821115612e40576000816000905550600101612e28565b5090565b9056fe456e756d657261626c655365743a20696e646578206f7574206f6620626f756e6473416363657373436f6e74726f6c3a2073656e646572206d75737420626520616e2061646d696e20746f206772616e745472616e73666572426174636828616464726573732c616464726573732c616464726573732c75696e743235365b5d2c75696e743235365b5d294d696e7461626c65455243313135355072656469636174653a20494e56414c49445f52454345495645524d696e7461626c65455243313135355072656469636174653a20496e76616c69642061646472657373416363657373436f6e74726f6c3a2073656e646572206d75737420626520616e2061646d696e20746f207265766f6b654d696e7461626c65455243313135355072656469636174653a20496e76616c696420726573756c74696e67206172726179206c656e6774684d696e7461626c65455243313135355072656469636174653a20494e56414c49445f57495448445241575f5349474d696e7461626c65455243313135355072656469636174653a204172726179206c656e677468206d69736d6174636820666f756e645472616e7366657253696e676c6528616464726573732c616464726573732c616464726573732c75696e743235362c75696e7432353629416363657373436f6e74726f6c3a2063616e206f6e6c792072656e6f756e636520726f6c657320666f722073656c66a264697066735822122001c16bf7f28d48917631f27845adf85d9446189555b519f49475387a53c8f0ce64736f6c63430006060033",
  "linkReferences": {},
  "deployedLinkReferences": {}
}