{
  "_format": "hh-sol-artifact-1",
  "contractName": "DummyERC721",
  "sourceName": "contracts/root/RootToken/DummyERC721.sol",
  "abi": [
    {
      "inputs": [
        {
          "internalType": "string",
          "name": "name_",
          "type": "string"
        },
        {
          "internalType": "string",
          "name": "symbol_",
          "type": "string"
        }
      ],
      "stateMutability": "nonpayable",
      "type": "constructor"
    },
    {
      "anonymous": false,
      "inputs": [
        {
          "indexed": true,
          "internalType": "address",
          "name": "owner",
          "type": "address"
        },
        {
          "indexed": true,
          "internalType": "address",
          "name": "approved",
          "type": "address"
        },
        {
          "indexed": true,
          "internalType": "uint256",
          "name": "tokenId",
          "type": "uint256"
        }
      ],
      "name": "Approval",
      "type": "event"
    },
    {
      "anonymous": false,
      "inputs": [
        {
          "indexed": true,
          "internalType": "address",
          "name": "owner",
          "type": "address"
        },
        {
          "indexed": true,
          "internalType": "address",
          "name": "operator",
          "type": "address"
        },
        {
          "indexed": false,
          "internalType": "bool",
          "name": "approved",
          "type": "bool"
        }
      ],
      "name": "ApprovalForAll",
      "type": "event"
    },
    {
      "anonymous": false,
      "inputs": [
        {
          "indexed": false,
          "internalType": "address",
          "name": "userAddress",
          "type": "address"
        },
        {
          "indexed": false,
          "internalType": "address payable",
          "name": "relayerAddress",
          "type": "address"
        },
        {
          "indexed": false,
          "internalType": "bytes",
          "name": "functionSignature",
          "type": "bytes"
        }
      ],
      "name": "MetaTransactionExecuted",
      "type": "event"
    },
    {
      "anonymous": false,
      "inputs": [
        {
          "indexed": true,
          "internalType": "bytes32",
          "name": "role",
          "type": "bytes32"
        },
        {
          "indexed": true,
          "internalType": "bytes32",
          "name": "previousAdminRole",
          "type": "bytes32"
        },
        {
          "indexed": true,
          "internalType": "bytes32",
          "name": "newAdminRole",
          "type": "bytes32"
        }
      ],
      "name": "RoleAdminChanged",
      "type": "event"
    },
    {
      "anonymous": false,
      "inputs": [
        {
          "indexed": true,
          "internalType": "bytes32",
          "name": "role",
          "type": "bytes32"
        },
        {
          "indexed": true,
          "internalType": "address",
          "name": "account",
          "type": "address"
        },
        {
          "indexed": true,
          "internalType": "address",
          "name": "sender",
          "type": "address"
        }
      ],
      "name": "RoleGranted",
      "type": "event"
    },
    {
      "anonymous": false,
      "inputs": [
        {
          "indexed": true,
          "internalType": "bytes32",
          "name": "role",
          "type": "bytes32"
        },
        {
          "indexed": true,
          "internalType": "address",
          "name": "account",
          "type": "address"
        },
        {
          "indexed": true,
          "internalType": "address",
          "name": "sender",
          "type": "address"
        }
      ],
      "name": "RoleRevoked",
      "type": "event"
    },
    {
      "anonymous": false,
      "inputs": [
        {
          "indexed": true,
          "internalType": "address",
          "name": "from",
          "type": "address"
        },
        {
          "indexed": true,
          "internalType": "address",
          "name": "to",
          "type": "address"
        },
        {
          "indexed": true,
          "internalType": "uint256",
          "name": "tokenId",
          "type": "uint256"
        }
      ],
      "name": "Transfer",
      "type": "event"
    },
    {
      "inputs": [],
      "name": "DEFAULT_ADMIN_ROLE",
      "outputs": [
        {
          "internalType": "bytes32",
          "name": "",
          "type": "bytes32"
        }
      ],
      "stateMutability": "view",
      "type": "function"
    },
    {
      "inputs": [],
      "name": "ERC712_VERSION",
      "outputs": [
        {
          "internalType": "string",
          "name": "",
          "type": "string"
        }
      ],
      "stateMutability": "view",
      "type": "function"
    },
    {
      "inputs": [],
      "name": "PREDICATE_ROLE",
      "outputs": [
        {
          "internalType": "bytes32",
          "name": "",
          "type": "bytes32"
        }
      ],
      "stateMutability": "view",
      "type": "function"
    },
    {
      "inputs": [
        {
          "internalType": "address",
          "name": "to",
          "type": "address"
        },
        {
          "internalType": "uint256",
          "name": "tokenId",
          "type": "uint256"
        }
      ],
      "name": "approve",
      "outputs": [],
      "stateMutability": "nonpayable",
      "type": "function"
    },
    {
      "inputs": [
        {
          "internalType": "address",
          "name": "owner",
          "type": "address"
        }
      ],
      "name": "balanceOf",
      "outputs": [
        {
          "internalType": "uint256",
          "name": "",
          "type": "uint256"
        }
      ],
      "stateMutability": "view",
      "type": "function"
    },
    {
      "inputs": [],
      "name": "baseURI",
      "outputs": [
        {
          "internalType": "string",
          "name": "",
          "type": "string"
        }
      ],
      "stateMutability": "view",
      "type": "function"
    },
    {
      "inputs": [
        {
          "internalType": "address",
          "name": "userAddress",
          "type": "address"
        },
        {
          "internalType": "bytes",
          "name": "functionSignature",
          "type": "bytes"
        },
        {
          "internalType": "bytes32",
          "name": "sigR",
          "type": "bytes32"
        },
        {
          "internalType": "bytes32",
          "name": "sigS",
          "type": "bytes32"
        },
        {
          "internalType": "uint8",
          "name": "sigV",
          "type": "uint8"
        }
      ],
      "name": "executeMetaTransaction",
      "outputs": [
        {
          "internalType": "bytes",
          "name": "",
          "type": "bytes"
        }
      ],
      "stateMutability": "payable",
      "type": "function"
    },
    {
      "inputs": [
        {
          "internalType": "uint256",
          "name": "tokenId",
          "type": "uint256"
        }
      ],
      "name": "getApproved",
      "outputs": [
        {
          "internalType": "address",
          "name": "",
          "type": "address"
        }
      ],
      "stateMutability": "view",
      "type": "function"
    },
    {
      "inputs": [],
      "name": "getChainId",
      "outputs": [
        {
          "internalType": "uint256",
          "name": "",
          "type": "uint256"
        }
      ],
      "stateMutability": "pure",
      "type": "function"
    },
    {
      "inputs": [],
      "name": "getDomainSeperator",
      "outputs": [
        {
          "internalType": "bytes32",
          "name": "",
          "type": "bytes32"
        }
      ],
      "stateMutability": "view",
      "type": "function"
    },
    {
      "inputs": [
        {
          "internalType": "address",
          "name": "user",
          "type": "address"
        }
      ],
      "name": "getNonce",
      "outputs": [
        {
          "internalType": "uint256",
          "name": "nonce",
          "type": "uint256"
        }
      ],
      "stateMutability": "view",
      "type": "function"
    },
    {
      "inputs": [
        {
          "internalType": "bytes32",
          "name": "role",
          "type": "bytes32"
        }
      ],
      "name": "getRoleAdmin",
      "outputs": [
        {
          "internalType": "bytes32",
          "name": "",
          "type": "bytes32"
        }
      ],
      "stateMutability": "view",
      "type": "function"
    },
    {
      "inputs": [
        {
          "internalType": "bytes32",
          "name": "role",
          "type": "bytes32"
        },
        {
          "internalType": "uint256",
          "name": "index",
          "type": "uint256"
        }
      ],
      "name": "getRoleMember",
      "outputs": [
        {
          "internalType": "address",
          "name": "",
          "type": "address"
        }
      ],
      "stateMutability": "view",
      "type": "function"
    },
    {
      "inputs": [
        {
          "internalType": "bytes32",
          "name": "role",
          "type": "bytes32"
        }
      ],
      "name": "getRoleMemberCount",
      "outputs": [
        {
          "internalType": "uint256",
          "name": "",
          "type": "uint256"
        }
      ],
      "stateMutability": "view",
      "type": "function"
    },
    {
      "inputs": [
        {
          "internalType": "bytes32",
          "name": "role",
          "type": "bytes32"
        },
        {
          "internalType": "address",
          "name": "account",
          "type": "address"
        }
      ],
      "name": "grantRole",
      "outputs": [],
      "stateMutability": "nonpayable",
      "type": "function"
    },
    {
      "inputs": [
        {
          "internalType": "bytes32",
          "name": "role",
          "type": "bytes32"
        },
        {
          "internalType": "address",
          "name": "account",
          "type": "address"
        }
      ],
      "name": "hasRole",
      "outputs": [
        {
          "internalType": "bool",
          "name": "",
          "type": "bool"
        }
      ],
      "stateMutability": "view",
      "type": "function"
    },
    {
      "inputs": [
        {
          "internalType": "address",
          "name": "owner",
          "type": "address"
        },
        {
          "internalType": "address",
          "name": "operator",
          "type": "address"
        }
      ],
      "name": "isApprovedForAll",
      "outputs": [
        {
          "internalType": "bool",
          "name": "",
          "type": "bool"
        }
      ],
      "stateMutability": "view",
      "type": "function"
    },
    {
      "inputs": [
        {
          "internalType": "uint256",
          "name": "tokenId",
          "type": "uint256"
        }
      ],
      "name": "mint",
      "outputs": [],
      "stateMutability": "nonpayable",
      "type": "function"
    },
    {
      "inputs": [],
      "name": "name",
      "outputs": [
        {
          "internalType": "string",
          "name": "",
          "type": "string"
        }
      ],
      "stateMutability": "view",
      "type": "function"
    },
    {
      "inputs": [
        {
          "internalType": "uint256",
          "name": "tokenId",
          "type": "uint256"
        }
      ],
      "name": "ownerOf",
      "outputs": [
        {
          "internalType": "address",
          "name": "",
          "type": "address"
        }
      ],
      "stateMutability": "view",
      "type": "function"
    },
    {
      "inputs": [
        {
          "internalType": "bytes32",
          "name": "role",
          "type": "bytes32"
        },
        {
          "internalType": "address",
          "name": "account",
          "type": "address"
        }
      ],
      "name": "renounceRole",
      "outputs": [],
      "stateMutability": "nonpayable",
      "type": "function"
    },
    {
      "inputs": [
        {
          "internalType": "bytes32",
          "name": "role",
          "type": "bytes32"
        },
        {
          "internalType": "address",
          "name": "account",
          "type": "address"
        }
      ],
      "name": "revokeRole",
      "outputs": [],
      "stateMutability": "nonpayable",
      "type": "function"
    },
    {
      "inputs": [
        {
          "internalType": "address",
          "name": "from",
          "type": "address"
        },
        {
          "internalType": "address",
          "name": "to",
          "type": "address"
        },
        {
          "internalType": "uint256",
          "name": "tokenId",
          "type": "uint256"
        }
      ],
      "name": "safeTransferFrom",
      "outputs": [],
      "stateMutability": "nonpayable",
      "type": "function"
    },
    {
      "inputs": [
        {
          "internalType": "address",
          "name": "from",
          "type": "address"
        },
        {
          "internalType": "address",
          "name": "to",
          "type": "address"
        },
        {
          "internalType": "uint256",
          "name": "tokenId",
          "type": "uint256"
        },
        {
          "internalType": "bytes",
          "name": "_data",
          "type": "bytes"
        }
      ],
      "name": "safeTransferFrom",
      "outputs": [],
      "stateMutability": "nonpayable",
      "type": "function"
    },
    {
      "inputs": [
        {
          "internalType": "address",
          "name": "operator",
          "type": "address"
        },
        {
          "internalType": "bool",
          "name": "approved",
          "type": "bool"
        }
      ],
      "name": "setApprovalForAll",
      "outputs": [],
      "stateMutability": "nonpayable",
      "type": "function"
    },
    {
      "inputs": [
        {
          "internalType": "uint256",
          "name": "tokenId",
          "type": "uint256"
        },
        {
          "internalType": "bytes",
          "name": "data",
          "type": "bytes"
        }
      ],
      "name": "setTokenMetadata",
      "outputs": [],
      "stateMutability": "nonpayable",
      "type": "function"
    },
    {
      "inputs": [
        {
          "internalType": "bytes4",
          "name": "interfaceId",
          "type": "bytes4"
        }
      ],
      "name": "supportsInterface",
      "outputs": [
        {
          "internalType": "bool",
          "name": "",
          "type": "bool"
        }
      ],
      "stateMutability": "view",
      "type": "function"
    },
    {
      "inputs": [],
      "name": "symbol",
      "outputs": [
        {
          "internalType": "string",
          "name": "",
          "type": "string"
        }
      ],
      "stateMutability": "view",
      "type": "function"
    },
    {
      "inputs": [
        {
          "internalType": "uint256",
          "name": "index",
          "type": "uint256"
        }
      ],
      "name": "tokenByIndex",
      "outputs": [
        {
          "internalType": "uint256",
          "name": "",
          "type": "uint256"
        }
      ],
      "stateMutability": "view",
      "type": "function"
    },
    {
      "inputs": [
        {
          "internalType": "address",
          "name": "owner",
          "type": "address"
        },
        {
          "internalType": "uint256",
          "name": "index",
          "type": "uint256"
        }
      ],
      "name": "tokenOfOwnerByIndex",
      "outputs": [
        {
          "internalType": "uint256",
          "name": "",
          "type": "uint256"
        }
      ],
      "stateMutability": "view",
      "type": "function"
    },
    {
      "inputs": [
        {
          "internalType": "uint256",
          "name": "tokenId",
          "type": "uint256"
        }
      ],
      "name": "tokenURI",
      "outputs": [
        {
          "internalType": "string",
          "name": "",
          "type": "string"
        }
      ],
      "stateMutability": "view",
      "type": "function"
    },
    {
      "inputs": [],
      "name": "totalSupply",
      "outputs": [
        {
          "internalType": "uint256",
          "name": "",
          "type": "uint256"
        }
      ],
      "stateMutability": "view",
      "type": "function"
    },
    {
      "inputs": [
        {
          "internalType": "address",
          "name": "from",
          "type": "address"
        },
        {
          "internalType": "address",
          "name": "to",
          "type": "address"
        },
        {
          "internalType": "uint256",
          "name": "tokenId",
          "type": "uint256"
        }
      ],
      "name": "transferFrom",
      "outputs": [],
      "stateMutability": "nonpayable",
      "type": "function"
    }
  ],
  "bytecode": "0x60806040526000600c60006101000a81548160ff0219169083151502179055503480156200002c57600080fd5b5060405162004d5e38038062004d5e833981810160405260408110156200005257600080fd5b81019080805160405193929190846401000000008211156200007357600080fd5b838201915060208201858111156200008a57600080fd5b8251866001820283011164010000000082111715620000a857600080fd5b8083526020830192505050908051906020019080838360005b83811015620000de578082015181840152602081019050620000c1565b50505050905090810190601f1680156200010c5780820380516001836020036101000a031916815260200191505b50604052602001805160405193929190846401000000008211156200013057600080fd5b838201915060208201858111156200014757600080fd5b82518660018202830111640100000000821117156200016557600080fd5b8083526020830192505050908051906020019080838360005b838110156200019b5780820151818401526020810190506200017e565b50505050905090810190601f168015620001c95780820380516001836020036101000a031916815260200191505b506040525050508181620001ea6301ffc9a760e01b6200033f60201b60201c565b8160069080519060200190620002029291906200090b565b5080600790805190602001906200021b9291906200090b565b50620002346380ac58cd60e01b6200033f60201b60201c565b6200024c635b5e139f60e01b6200033f60201b60201c565b6200026463780e9d6360e01b6200033f60201b60201c565b5050620002ac6040518060400160405280600b81526020017f44756d6d794552433732310000000000000000000000000000000000000000008152506200044860201b60201c565b620002d06000801b620002c4620004f860201b60201c565b6200051460201b60201c565b6200032660405180807f5052454449434154455f524f4c45000000000000000000000000000000000000815250600e01905060405180910390206200031a620004f860201b60201c565b6200051460201b60201c565b62000337826200052a60201b60201c565b5050620009ba565b63ffffffff60e01b817bffffffffffffffffffffffffffffffffffffffffffffffffffffffff19161415620003dc576040517f08c379a000000000000000000000000000000000000000000000000000000000815260040180806020018281038252601c8152602001807f4552433136353a20696e76616c696420696e746572666163652069640000000081525060200191505060405180910390fd5b6001600080837bffffffffffffffffffffffffffffffffffffffffffffffffffffffff19167bffffffffffffffffffffffffffffffffffffffffffffffffffffffff1916815260200190815260200160002060006101000a81548160ff02191690831515021790555050565b806040516020018082805190602001908083835b602083106200048157805182526020820191506020810190506020830392506200045c565b6001836020036101000a038019825116818451168082178552505050505050905001807f3a20494e53554646494349454e545f5045524d495353494f4e53000000000000815250601a01915050604051602081830303815290604052600b9080519060200190620004f49291906200090b565b5050565b60006200050f620005dd60201b620032801760201c565b905090565b6200052682826200069460201b60201c565b5050565b600c60009054906101000a900460ff1615620005ae576040517f08c379a000000000000000000000000000000000000000000000000000000000815260040180806020018281038252600e8152602001807f616c726561647920696e6974656400000000000000000000000000000000000081525060200191505060405180910390fd5b620005bf816200073860201b60201c565b6001600c60006101000a81548160ff02191690831515021790555050565b60003073ffffffffffffffffffffffffffffffffffffffff163373ffffffffffffffffffffffffffffffffffffffff1614156200068a5760606000368080601f016020809104026020016040519081016040528093929190818152602001838380828437600081840152601f19601f820116905080830192505050505050509050600080369050905073ffffffffffffffffffffffffffffffffffffffff8183015116925050506200068e565b3390505b80905090565b620006c381600a60008581526020019081526020016000206000016200082960201b620034c11790919060201c565b156200073457620006d9620004f860201b60201c565b73ffffffffffffffffffffffffffffffffffffffff168173ffffffffffffffffffffffffffffffffffffffff16837f2f8788117e7eff1d82e926ec794901d17c78024a50270940304540a733656f0d60405160405180910390a45b5050565b6040518060800160405280604f815260200162004d0f604f91398051906020012081805190602001206040518060400160405280600181526020017f31000000000000000000000000000000000000000000000000000000000000008152508051906020012030620007af6200086160201b60201c565b60001b604051602001808681526020018581526020018481526020018373ffffffffffffffffffffffffffffffffffffffff1673ffffffffffffffffffffffffffffffffffffffff1681526020018281526020019550505050505060405160208183030381529060405280519060200120600d8190555050565b600062000859836000018373ffffffffffffffffffffffffffffffffffffffff1660001b6200086e60201b60201c565b905092915050565b6000804690508091505090565b6000620008828383620008e860201b60201c565b620008dd578260000182908060018154018082558091505060019003906000526020600020016000909190919091505582600001805490508360010160008481526020019081526020016000208190555060019050620008e2565b600090505b92915050565b600080836001016000848152602001908152602001600020541415905092915050565b828054600181600116156101000203166002900490600052602060002090601f016020900481019282601f106200094e57805160ff19168380011785556200097f565b828001600101855582156200097f579182015b828111156200097e57825182559160200191906001019062000961565b5b5090506200098e919062000992565b5090565b620009b791905b80821115620009b357600081600090555060010162000999565b5090565b90565b61434580620009ca6000396000f3fe6080604052600436106101ee5760003560e01c806349b9530b1161010d578063a0712d68116100a0578063c87b56dd1161006f578063c87b56dd14610ecc578063ca15c87314610f80578063d547741f14610fcf578063e72db5fd1461102a578063e985e9c514611055576101ee565b8063a0712d6814610cf7578063a217fddf14610d32578063a22cb46514610d5d578063b88d4fde14610dba576101ee565b806370a08231116100dc57806370a0823114610b0a5780639010d07c14610b6f57806391d1485414610bf457806395d89b4114610c67576101ee565b806349b9530b146109205780634f6ccce7146109b05780636352211e146109ff5780636c0360eb14610a7a576101ee565b806323b872dd116101855780632f745c59116101545780632f745c59146107b05780633408e4701461081f57806336568abe1461084a57806342842e0e146108a5576101ee565b806323b872dd14610626578063248a9ca3146106a15780632d0335ab146106f05780632f2ff15d14610755576101ee565b80630c53c51c116101c15780630c53c51c146103cb5780630f7e59701461054057806318160ddd146105d057806320379ee5146105fb576101ee565b806301ffc9a7146101f357806306fdde0314610265578063081812fc146102f5578063095ea7b314610370575b600080fd5b3480156101ff57600080fd5b5061024b6004803603602081101561021657600080fd5b8101908080357bffffffffffffffffffffffffffffffffffffffffffffffffffffffff191690602001909291905050506110de565b604051808215151515815260200191505060405180910390f35b34801561027157600080fd5b5061027a611145565b6040518080602001828103825283818151815260200191508051906020019080838360005b838110156102ba57808201518184015260208101905061029f565b50505050905090810190601f1680156102e75780820380516001836020036101000a031916815260200191505b509250505060405180910390f35b34801561030157600080fd5b5061032e6004803603602081101561031857600080fd5b81019080803590602001909291905050506111e7565b604051808273ffffffffffffffffffffffffffffffffffffffff1673ffffffffffffffffffffffffffffffffffffffff16815260200191505060405180910390f35b34801561037c57600080fd5b506103c96004803603604081101561039357600080fd5b81019080803573ffffffffffffffffffffffffffffffffffffffff16906020019092919080359060200190929190505050611282565b005b6104c5600480360360a08110156103e157600080fd5b81019080803573ffffffffffffffffffffffffffffffffffffffff1690602001909291908035906020019064010000000081111561041e57600080fd5b82018360208201111561043057600080fd5b8035906020019184600183028401116401000000008311171561045257600080fd5b91908080601f016020809104026020016040519081016040528093929190818152602001838380828437600081840152601f19601f8201169050808301925050505050505091929192908035906020019092919080359060200190929190803560ff1690602001909291905050506113c6565b6040518080602001828103825283818151815260200191508051906020019080838360005b838110156105055780820151818401526020810190506104ea565b50505050905090810190601f1680156105325780820380516001836020036101000a031916815260200191505b509250505060405180910390f35b34801561054c57600080fd5b5061055561181c565b6040518080602001828103825283818151815260200191508051906020019080838360005b8381101561059557808201518184015260208101905061057a565b50505050905090810190601f1680156105c25780820380516001836020036101000a031916815260200191505b509250505060405180910390f35b3480156105dc57600080fd5b506105e5611855565b6040518082815260200191505060405180910390f35b34801561060757600080fd5b50610610611866565b6040518082815260200191505060405180910390f35b34801561063257600080fd5b5061069f6004803603606081101561064957600080fd5b81019080803573ffffffffffffffffffffffffffffffffffffffff169060200190929190803573ffffffffffffffffffffffffffffffffffffffff16906020019092919080359060200190929190505050611870565b005b3480156106ad57600080fd5b506106da600480360360208110156106c457600080fd5b81019080803590602001909291905050506118e6565b6040518082815260200191505060405180910390f35b3480156106fc57600080fd5b5061073f6004803603602081101561071357600080fd5b81019080803573ffffffffffffffffffffffffffffffffffffffff169060200190929190505050611906565b6040518082815260200191505060405180910390f35b34801561076157600080fd5b506107ae6004803603604081101561077857600080fd5b8101908080359060200190929190803573ffffffffffffffffffffffffffffffffffffffff16906020019092919050505061194f565b005b3480156107bc57600080fd5b50610809600480360360408110156107d357600080fd5b81019080803573ffffffffffffffffffffffffffffffffffffffff169060200190929190803590602001909291905050506119d9565b6040518082815260200191505060405180910390f35b34801561082b57600080fd5b50610834611a34565b6040518082815260200191505060405180910390f35b34801561085657600080fd5b506108a36004803603604081101561086d57600080fd5b8101908080359060200190929190803573ffffffffffffffffffffffffffffffffffffffff169060200190929190505050611a41565b005b3480156108b157600080fd5b5061091e600480360360608110156108c857600080fd5b81019080803573ffffffffffffffffffffffffffffffffffffffff169060200190929190803573ffffffffffffffffffffffffffffffffffffffff16906020019092919080359060200190929190505050611ada565b005b34801561092c57600080fd5b506109ae6004803603604081101561094357600080fd5b81019080803590602001909291908035906020019064010000000081111561096a57600080fd5b82018360208201111561097c57600080fd5b8035906020019184600183028401116401000000008311171561099e57600080fd5b9091929391929390505050611afa565b005b3480156109bc57600080fd5b506109e9600480360360208110156109d357600080fd5b8101908080359060200190929190505050611cca565b6040518082815260200191505060405180910390f35b348015610a0b57600080fd5b50610a3860048036036020811015610a2257600080fd5b8101908080359060200190929190505050611ced565b604051808273ffffffffffffffffffffffffffffffffffffffff1673ffffffffffffffffffffffffffffffffffffffff16815260200191505060405180910390f35b348015610a8657600080fd5b50610a8f611d24565b6040518080602001828103825283818151815260200191508051906020019080838360005b83811015610acf578082015181840152602081019050610ab4565b50505050905090810190601f168015610afc5780820380516001836020036101000a031916815260200191505b509250505060405180910390f35b348015610b1657600080fd5b50610b5960048036036020811015610b2d57600080fd5b81019080803573ffffffffffffffffffffffffffffffffffffffff169060200190929190505050611dc6565b6040518082815260200191505060405180910390f35b348015610b7b57600080fd5b50610bb260048036036040811015610b9257600080fd5b810190808035906020019092919080359060200190929190505050611e9b565b604051808273ffffffffffffffffffffffffffffffffffffffff1673ffffffffffffffffffffffffffffffffffffffff16815260200191505060405180910390f35b348015610c0057600080fd5b50610c4d60048036036040811015610c1757600080fd5b8101908080359060200190929190803573ffffffffffffffffffffffffffffffffffffffff169060200190929190505050611ecd565b604051808215151515815260200191505060405180910390f35b348015610c7357600080fd5b50610c7c611eff565b6040518080602001828103825283818151815260200191508051906020019080838360005b83811015610cbc578082015181840152602081019050610ca1565b50505050905090810190601f168015610ce95780820380516001836020036101000a031916815260200191505b509250505060405180910390f35b348015610d0357600080fd5b50610d3060048036036020811015610d1a57600080fd5b8101908080359060200190929190505050611fa1565b005b348015610d3e57600080fd5b50610d47611fb5565b6040518082815260200191505060405180910390f35b348015610d6957600080fd5b50610db860048036036040811015610d8057600080fd5b81019080803573ffffffffffffffffffffffffffffffffffffffff169060200190929190803515159060200190929190505050611fbc565b005b348015610dc657600080fd5b50610eca60048036036080811015610ddd57600080fd5b81019080803573ffffffffffffffffffffffffffffffffffffffff169060200190929190803573ffffffffffffffffffffffffffffffffffffffff1690602001909291908035906020019092919080359060200190640100000000811115610e4457600080fd5b820183602082011115610e5657600080fd5b80359060200191846001830284011164010000000083111715610e7857600080fd5b91908080601f016020809104026020016040519081016040528093929190818152602001838380828437600081840152601f19601f820116905080830192505050505050509192919290505050612174565b005b348015610ed857600080fd5b50610f0560048036036020811015610eef57600080fd5b81019080803590602001909291905050506121ec565b6040518080602001828103825283818151815260200191508051906020019080838360005b83811015610f45578082015181840152602081019050610f2a565b50505050905090810190601f168015610f725780820380516001836020036101000a031916815260200191505b509250505060405180910390f35b348015610f8c57600080fd5b50610fb960048036036020811015610fa357600080fd5b81019080803590602001909291905050506124bd565b6040518082815260200191505060405180910390f35b348015610fdb57600080fd5b5061102860048036036040811015610ff257600080fd5b8101908080359060200190929190803573ffffffffffffffffffffffffffffffffffffffff1690602001909291905050506124e4565b005b34801561103657600080fd5b5061103f61256e565b6040518082815260200191505060405180910390f35b34801561106157600080fd5b506110c46004803603604081101561107857600080fd5b81019080803573ffffffffffffffffffffffffffffffffffffffff169060200190929190803573ffffffffffffffffffffffffffffffffffffffff1690602001909291905050506125a7565b604051808215151515815260200191505060405180910390f35b6000806000837bffffffffffffffffffffffffffffffffffffffffffffffffffffffff19167bffffffffffffffffffffffffffffffffffffffffffffffffffffffff1916815260200190815260200160002060009054906101000a900460ff169050919050565b606060068054600181600116156101000203166002900480601f0160208091040260200160405190810160405280929190818152602001828054600181600116156101000203166002900480156111dd5780601f106111b2576101008083540402835291602001916111dd565b820191906000526020600020905b8154815290600101906020018083116111c057829003601f168201915b5050505050905090565b60006111f28261263b565b611247576040517f08c379a000000000000000000000000000000000000000000000000000000000815260040180806020018281038252602c8152602001806141be602c913960400191505060405180910390fd5b6004600083815260200190815260200160002060009054906101000a900473ffffffffffffffffffffffffffffffffffffffff169050919050565b600061128d82611ced565b90508073ffffffffffffffffffffffffffffffffffffffff168373ffffffffffffffffffffffffffffffffffffffff161415611314576040517f08c379a000000000000000000000000000000000000000000000000000000000815260040180806020018281038252602181526020018061428f6021913960400191505060405180910390fd5b8073ffffffffffffffffffffffffffffffffffffffff16611333612658565b73ffffffffffffffffffffffffffffffffffffffff16148061136257506113618161135c612658565b6125a7565b5b6113b7576040517f08c379a00000000000000000000000000000000000000000000000000000000081526004018080602001828103825260388152602001806141116038913960400191505060405180910390fd5b6113c18383612667565b505050565b60606113d0613ea3565b6040518060600160405280600e60008a73ffffffffffffffffffffffffffffffffffffffff1673ffffffffffffffffffffffffffffffffffffffff1681526020019081526020016000205481526020018873ffffffffffffffffffffffffffffffffffffffff16815260200187815250905061144f8782878787612720565b6114a4576040517f08c379a000000000000000000000000000000000000000000000000000000000815260040180806020018281038252602181526020018061423f6021913960400191505060405180910390fd5b6114f76001600e60008a73ffffffffffffffffffffffffffffffffffffffff1673ffffffffffffffffffffffffffffffffffffffff1681526020019081526020016000205461285790919063ffffffff16565b600e60008973ffffffffffffffffffffffffffffffffffffffff1673ffffffffffffffffffffffffffffffffffffffff168152602001908152602001600020819055507f5845892132946850460bff5a0083f71031bc5bf9aadcd40f1de79423eac9b10b873388604051808473ffffffffffffffffffffffffffffffffffffffff1673ffffffffffffffffffffffffffffffffffffffff1681526020018373ffffffffffffffffffffffffffffffffffffffff1673ffffffffffffffffffffffffffffffffffffffff16815260200180602001828103825283818151815260200191508051906020019080838360005b838110156116025780820151818401526020810190506115e7565b50505050905090810190601f16801561162f5780820380516001836020036101000a031916815260200191505b5094505050505060405180910390a1600060603073ffffffffffffffffffffffffffffffffffffffff16888a6040516020018083805190602001908083835b60208310611691578051825260208201915060208101905060208303925061166e565b6001836020036101000a0380198251168184511680821785525050505050509050018273ffffffffffffffffffffffffffffffffffffffff1673ffffffffffffffffffffffffffffffffffffffff1660601b8152601401925050506040516020818303038152906040526040518082805190602001908083835b6020831061172e578051825260208201915060208101905060208303925061170b565b6001836020036101000a0380198251168184511680821785525050505050509050019150506000604051808303816000865af19150503d8060008114611790576040519150601f19603f3d011682016040523d82523d6000602084013e611795565b606091505b50915091508161180d576040517f08c379a000000000000000000000000000000000000000000000000000000000815260040180806020018281038252601c8152602001807f46756e6374696f6e2063616c6c206e6f74207375636365737366756c0000000081525060200191505060405180910390fd5b80935050505095945050505050565b6040518060400160405280600181526020017f310000000000000000000000000000000000000000000000000000000000000081525081565b600061186160026128df565b905090565b6000600d54905090565b61188161187b612658565b826128f4565b6118d6576040517f08c379a00000000000000000000000000000000000000000000000000000000081526004018080602001828103825260318152602001806142b06031913960400191505060405180910390fd5b6118e18383836129e8565b505050565b6000600a6000838152602001908152602001600020600201549050919050565b6000600e60008373ffffffffffffffffffffffffffffffffffffffff1673ffffffffffffffffffffffffffffffffffffffff168152602001908152602001600020549050919050565b611976600a600084815260200190815260200160002060020154611971612658565b611ecd565b6119cb576040517f08c379a000000000000000000000000000000000000000000000000000000000815260040180806020018281038252602f815260200180613fa2602f913960400191505060405180910390fd5b6119d58282612c2b565b5050565b6000611a2c82600160008673ffffffffffffffffffffffffffffffffffffffff1673ffffffffffffffffffffffffffffffffffffffff168152602001908152602001600020612cbf90919063ffffffff16565b905092915050565b6000804690508091505090565b611a49612658565b73ffffffffffffffffffffffffffffffffffffffff168173ffffffffffffffffffffffffffffffffffffffff1614611acc576040517f08c379a000000000000000000000000000000000000000000000000000000000815260040180806020018281038252602f8152602001806142e1602f913960400191505060405180910390fd5b611ad68282612cd9565b5050565b611af583838360405180602001604052806000815250612174565b505050565b60405180807f5052454449434154455f524f4c45000000000000000000000000000000000000815250600e0190506040518091039020611b4181611b3c612658565b611ecd565b600b90611c06576040517f08c379a00000000000000000000000000000000000000000000000000000000081526004018080602001828103825283818154600181600116156101000203166002900481526020019150805460018160011615610100020316600290048015611bf75780601f10611bcc57610100808354040283529160200191611bf7565b820191906000526020600020905b815481529060010190602001808311611bda57829003601f168201915b50509250505060405180910390fd5b50606083836020811015611c1957600080fd5b8101908080359060200190640100000000811115611c3657600080fd5b820183602082011115611c4857600080fd5b80359060200191846001830284011164010000000083111715611c6a57600080fd5b91908080601f016020809104026020016040519081016040528093929190818152602001838380828437600081840152601f19601f8201169050808301925050505050505091929192905050509050611cc38582612d6d565b5050505050565b600080611ce1836002612df790919063ffffffff16565b50905080915050919050565b6000611d1d82604051806060016040528060298152602001614173602991396002612e269092919063ffffffff16565b9050919050565b606060098054600181600116156101000203166002900480601f016020809104026020016040519081016040528092919081815260200182805460018160011615610100020316600290048015611dbc5780601f10611d9157610100808354040283529160200191611dbc565b820191906000526020600020905b815481529060010190602001808311611d9f57829003601f168201915b5050505050905090565b60008073ffffffffffffffffffffffffffffffffffffffff168273ffffffffffffffffffffffffffffffffffffffff161415611e4d576040517f08c379a000000000000000000000000000000000000000000000000000000000815260040180806020018281038252602a815260200180614149602a913960400191505060405180910390fd5b611e94600160008473ffffffffffffffffffffffffffffffffffffffff1673ffffffffffffffffffffffffffffffffffffffff168152602001908152602001600020612e45565b9050919050565b6000611ec582600a6000868152602001908152602001600020600001612e5a90919063ffffffff16565b905092915050565b6000611ef782600a6000868152602001908152602001600020600001612e7490919063ffffffff16565b905092915050565b606060078054600181600116156101000203166002900480601f016020809104026020016040519081016040528092919081815260200182805460018160011615610100020316600290048015611f975780601f10611f6c57610100808354040283529160200191611f97565b820191906000526020600020905b815481529060010190602001808311611f7a57829003601f168201915b5050505050905090565b611fb2611fac612658565b82612ea4565b50565b6000801b81565b611fc4612658565b73ffffffffffffffffffffffffffffffffffffffff168273ffffffffffffffffffffffffffffffffffffffff161415612065576040517f08c379a00000000000000000000000000000000000000000000000000000000081526004018080602001828103825260198152602001807f4552433732313a20617070726f766520746f2063616c6c65720000000000000081525060200191505060405180910390fd5b8060056000612072612658565b73ffffffffffffffffffffffffffffffffffffffff1673ffffffffffffffffffffffffffffffffffffffff16815260200190815260200160002060008473ffffffffffffffffffffffffffffffffffffffff1673ffffffffffffffffffffffffffffffffffffffff16815260200190815260200160002060006101000a81548160ff0219169083151502179055508173ffffffffffffffffffffffffffffffffffffffff1661211f612658565b73ffffffffffffffffffffffffffffffffffffffff167f17307eab39ab6107e8899845ad3d59bd9653f200f220920489ca2b5937696c3183604051808215151515815260200191505060405180910390a35050565b61218561217f612658565b836128f4565b6121da576040517f08c379a00000000000000000000000000000000000000000000000000000000081526004018080602001828103825260318152602001806142b06031913960400191505060405180910390fd5b6121e684848484613098565b50505050565b60606121f78261263b565b61224c576040517f08c379a000000000000000000000000000000000000000000000000000000000815260040180806020018281038252602f815260200180614260602f913960400191505060405180910390fd5b6060600860008481526020019081526020016000208054600181600116156101000203166002900480601f0160208091040260200160405190810160405280929190818152602001828054600181600116156101000203166002900480156122f55780601f106122ca576101008083540402835291602001916122f5565b820191906000526020600020905b8154815290600101906020018083116122d857829003601f168201915b505050505090506060612306611d24565b905060008151141561231c5781925050506124b8565b6000825111156123ed5780826040516020018083805190602001908083835b6020831061235e578051825260208201915060208101905060208303925061233b565b6001836020036101000a03801982511681845116808217855250505050505090500182805190602001908083835b602083106123af578051825260208201915060208101905060208303925061238c565b6001836020036101000a03801982511681845116808217855250505050505090500192505050604051602081830303815290604052925050506124b8565b806123f78561310a565b6040516020018083805190602001908083835b6020831061242d578051825260208201915060208101905060208303925061240a565b6001836020036101000a03801982511681845116808217855250505050505090500182805190602001908083835b6020831061247e578051825260208201915060208101905060208303925061245b565b6001836020036101000a03801982511681845116808217855250505050505090500192505050604051602081830303815290604052925050505b919050565b60006124dd600a6000848152602001908152602001600020600001613251565b9050919050565b61250b600a600084815260200190815260200160002060020154612506612658565b611ecd565b612560576040517f08c379a00000000000000000000000000000000000000000000000000000000081526004018080602001828103825260308152602001806140bc6030913960400191505060405180910390fd5b61256a8282612cd9565b5050565b60405180807f5052454449434154455f524f4c45000000000000000000000000000000000000815250600e019050604051809103902081565b6000600560008473ffffffffffffffffffffffffffffffffffffffff1673ffffffffffffffffffffffffffffffffffffffff16815260200190815260200160002060008373ffffffffffffffffffffffffffffffffffffffff1673ffffffffffffffffffffffffffffffffffffffff16815260200190815260200160002060009054906101000a900460ff16905092915050565b600061265182600261326690919063ffffffff16565b9050919050565b6000612662613280565b905090565b816004600083815260200190815260200160002060006101000a81548173ffffffffffffffffffffffffffffffffffffffff021916908373ffffffffffffffffffffffffffffffffffffffff160217905550808273ffffffffffffffffffffffffffffffffffffffff166126da83611ced565b73ffffffffffffffffffffffffffffffffffffffff167f8c5be1e5ebec7d5bd14f71427d1e84f3dd0314c0f7b2291e5b200ac8c7c3b92560405160405180910390a45050565b60008073ffffffffffffffffffffffffffffffffffffffff168673ffffffffffffffffffffffffffffffffffffffff1614156127a7576040517f08c379a00000000000000000000000000000000000000000000000000000000081526004018080602001828103825260258152602001806140ec6025913960400191505060405180910390fd5b60016127ba6127b587613335565b6133db565b83868660405160008152602001604052604051808581526020018460ff1660ff1681526020018381526020018281526020019450505050506020604051602081039080840390855afa158015612814573d6000803e3d6000fd5b5050506020604051035173ffffffffffffffffffffffffffffffffffffffff168673ffffffffffffffffffffffffffffffffffffffff1614905095945050505050565b6000808284019050838110156128d5576040517f08c379a000000000000000000000000000000000000000000000000000000000815260040180806020018281038252601b8152602001807f536166654d6174683a206164646974696f6e206f766572666c6f77000000000081525060200191505060405180910390fd5b8091505092915050565b60006128ed82600001613442565b9050919050565b60006128ff8261263b565b612954576040517f08c379a000000000000000000000000000000000000000000000000000000000815260040180806020018281038252602c815260200180614090602c913960400191505060405180910390fd5b600061295f83611ced565b90508073ffffffffffffffffffffffffffffffffffffffff168473ffffffffffffffffffffffffffffffffffffffff1614806129ce57508373ffffffffffffffffffffffffffffffffffffffff166129b6846111e7565b73ffffffffffffffffffffffffffffffffffffffff16145b806129df57506129de81856125a7565b5b91505092915050565b8273ffffffffffffffffffffffffffffffffffffffff16612a0882611ced565b73ffffffffffffffffffffffffffffffffffffffff1614612a74576040517f08c379a00000000000000000000000000000000000000000000000000000000081526004018080602001828103825260298152602001806142166029913960400191505060405180910390fd5b600073ffffffffffffffffffffffffffffffffffffffff168273ffffffffffffffffffffffffffffffffffffffff161415612afa576040517f08c379a00000000000000000000000000000000000000000000000000000000081526004018080602001828103825260248152602001806140466024913960400191505060405180910390fd5b612b05838383613453565b612b10600082612667565b612b6181600160008673ffffffffffffffffffffffffffffffffffffffff1673ffffffffffffffffffffffffffffffffffffffff16815260200190815260200160002061345890919063ffffffff16565b50612bb381600160008573ffffffffffffffffffffffffffffffffffffffff1673ffffffffffffffffffffffffffffffffffffffff16815260200190815260200160002061347290919063ffffffff16565b50612bca8183600261348c9092919063ffffffff16565b50808273ffffffffffffffffffffffffffffffffffffffff168473ffffffffffffffffffffffffffffffffffffffff167fddf252ad1be2c89b69c2b068fc378daa952ba7f163c4a11628f55a4df523b3ef60405160405180910390a4505050565b612c5381600a60008581526020019081526020016000206000016134c190919063ffffffff16565b15612cbb57612c60612658565b73ffffffffffffffffffffffffffffffffffffffff168173ffffffffffffffffffffffffffffffffffffffff16837f2f8788117e7eff1d82e926ec794901d17c78024a50270940304540a733656f0d60405160405180910390a45b5050565b6000612cce83600001836134f1565b60001c905092915050565b612d0181600a600085815260200190815260200160002060000161357490919063ffffffff16565b15612d6957612d0e612658565b73ffffffffffffffffffffffffffffffffffffffff168173ffffffffffffffffffffffffffffffffffffffff16837ff6391f5c32d9c69d2a47ea670b442974b53935d1edc7fd64eb21e047a839171b60405160405180910390a45b5050565b612d768261263b565b612dcb576040517f08c379a000000000000000000000000000000000000000000000000000000000815260040180806020018281038252602c8152602001806141ea602c913960400191505060405180910390fd5b80600860008481526020019081526020016000209080519060200190612df2929190613eda565b505050565b600080600080612e0a86600001866135a4565b915091508160001c8160001c8090509350935050509250929050565b6000612e39846000018460001b8461363d565b60001c90509392505050565b6000612e5382600001613733565b9050919050565b6000612e6983600001836134f1565b60001c905092915050565b6000612e9c836000018373ffffffffffffffffffffffffffffffffffffffff1660001b613744565b905092915050565b600073ffffffffffffffffffffffffffffffffffffffff168273ffffffffffffffffffffffffffffffffffffffff161415612f47576040517f08c379a00000000000000000000000000000000000000000000000000000000081526004018080602001828103825260208152602001807f4552433732313a206d696e7420746f20746865207a65726f206164647265737381525060200191505060405180910390fd5b612f508161263b565b15612fc3576040517f08c379a000000000000000000000000000000000000000000000000000000000815260040180806020018281038252601c8152602001807f4552433732313a20746f6b656e20616c7265616479206d696e7465640000000081525060200191505060405180910390fd5b612fcf60008383613453565b61302081600160008573ffffffffffffffffffffffffffffffffffffffff1673ffffffffffffffffffffffffffffffffffffffff16815260200190815260200160002061347290919063ffffffff16565b506130378183600261348c9092919063ffffffff16565b50808273ffffffffffffffffffffffffffffffffffffffff16600073ffffffffffffffffffffffffffffffffffffffff167fddf252ad1be2c89b69c2b068fc378daa952ba7f163c4a11628f55a4df523b3ef60405160405180910390a45050565b6130a38484846129e8565b6130af84848484613767565b613104576040517f08c379a0000000000000000000000000000000000000000000000000000000008152600401808060200182810382526032815260200180613fd16032913960400191505060405180910390fd5b50505050565b60606000821415613152576040518060400160405280600181526020017f3000000000000000000000000000000000000000000000000000000000000000815250905061324c565b600082905060005b6000821461317c578080600101915050600a828161317457fe5b04915061315a565b60608167ffffffffffffffff8111801561319557600080fd5b506040519080825280601f01601f1916602001820160405280156131c85781602001600182028036833780820191505090505b50905060006001830390508593505b6000841461324457600a84816131e957fe5b0660300160f81b8282806001900393508151811061320357fe5b60200101907effffffffffffffffffffffffffffffffffffffffffffffffffffffffffffff1916908160001a905350600a848161323c57fe5b0493506131d7565b819450505050505b919050565b600061325f82600001613733565b9050919050565b6000613278836000018360001b6139ac565b905092915050565b60003073ffffffffffffffffffffffffffffffffffffffff163373ffffffffffffffffffffffffffffffffffffffff16141561332b5760606000368080601f016020809104026020016040519081016040528093929190818152602001838380828437600081840152601f19601f820116905080830192505050505050509050600080369050905073ffffffffffffffffffffffffffffffffffffffff81830151169250505061332f565b3390505b80905090565b6000604051806080016040528060438152602001614003604391398051906020012082600001518360200151846040015180519060200120604051602001808581526020018481526020018373ffffffffffffffffffffffffffffffffffffffff1673ffffffffffffffffffffffffffffffffffffffff168152602001828152602001945050505050604051602081830303815290604052805190602001209050919050565b60006133e5611866565b8260405160200180807f190100000000000000000000000000000000000000000000000000000000000081525060020183815260200182815260200192505050604051602081830303815290604052805190602001209050919050565b600081600001805490509050919050565b505050565b600061346a836000018360001b6139cf565b905092915050565b6000613484836000018360001b613ab7565b905092915050565b60006134b8846000018460001b8473ffffffffffffffffffffffffffffffffffffffff1660001b613b27565b90509392505050565b60006134e9836000018373ffffffffffffffffffffffffffffffffffffffff1660001b613ab7565b905092915050565b600081836000018054905011613552576040517f08c379a0000000000000000000000000000000000000000000000000000000008152600401808060200182810382526022815260200180613f806022913960400191505060405180910390fd5b82600001828154811061356157fe5b9060005260206000200154905092915050565b600061359c836000018373ffffffffffffffffffffffffffffffffffffffff1660001b6139cf565b905092915050565b60008082846000018054905011613606576040517f08c379a000000000000000000000000000000000000000000000000000000000815260040180806020018281038252602281526020018061419c6022913960400191505060405180910390fd5b600084600001848154811061361757fe5b906000526020600020906002020190508060000154816001015492509250509250929050565b60008084600101600085815260200190815260200160002054905060008114158390613704576040517f08c379a00000000000000000000000000000000000000000000000000000000081526004018080602001828103825283818151815260200191508051906020019080838360005b838110156136c95780820151818401526020810190506136ae565b50505050905090810190601f1680156136f65780820380516001836020036101000a031916815260200191505b509250505060405180910390fd5b5084600001600182038154811061371757fe5b9060005260206000209060020201600101549150509392505050565b600081600001805490509050919050565b600080836001016000848152602001908152602001600020541415905092915050565b60006137888473ffffffffffffffffffffffffffffffffffffffff16613c03565b61379557600190506139a4565b606061392b63150b7a0260e01b6137aa612658565b888787604051602401808573ffffffffffffffffffffffffffffffffffffffff1673ffffffffffffffffffffffffffffffffffffffff1681526020018473ffffffffffffffffffffffffffffffffffffffff1673ffffffffffffffffffffffffffffffffffffffff16815260200183815260200180602001828103825283818151815260200191508051906020019080838360005b8381101561385a57808201518184015260208101905061383f565b50505050905090810190601f1680156138875780820380516001836020036101000a031916815260200191505b5095505050505050604051602081830303815290604052907bffffffffffffffffffffffffffffffffffffffffffffffffffffffff19166020820180517bffffffffffffffffffffffffffffffffffffffffffffffffffffffff8381831617835250505050604051806060016040528060328152602001613fd1603291398773ffffffffffffffffffffffffffffffffffffffff16613c169092919063ffffffff16565b9050600081806020019051602081101561394457600080fd5b8101908080519060200190929190505050905063150b7a0260e01b7bffffffffffffffffffffffffffffffffffffffffffffffffffffffff1916817bffffffffffffffffffffffffffffffffffffffffffffffffffffffff191614925050505b949350505050565b600080836001016000848152602001908152602001600020541415905092915050565b60008083600101600084815260200190815260200160002054905060008114613aab5760006001820390506000600186600001805490500390506000866000018281548110613a1a57fe5b9060005260206000200154905080876000018481548110613a3757fe5b9060005260206000200181905550600183018760010160008381526020019081526020016000208190555086600001805480613a6f57fe5b60019003818190600052602060002001600090559055866001016000878152602001908152602001600020600090556001945050505050613ab1565b60009150505b92915050565b6000613ac38383613744565b613b1c578260000182908060018154018082558091505060019003906000526020600020016000909190919091505582600001805490508360010160008481526020019081526020016000208190555060019050613b21565b600090505b92915050565b6000808460010160008581526020019081526020016000205490506000811415613bce57846000016040518060400160405280868152602001858152509080600181540180825580915050600190039060005260206000209060020201600090919091909150600082015181600001556020820151816001015550508460000180549050856001016000868152602001908152602001600020819055506001915050613bfc565b82856000016001830381548110613be157fe5b90600052602060002090600202016001018190555060009150505b9392505050565b600080823b905060008111915050919050565b6060613c258484600085613c2e565b90509392505050565b606082471015613c89576040517f08c379a000000000000000000000000000000000000000000000000000000000815260040180806020018281038252602681526020018061406a6026913960400191505060405180910390fd5b613c9285613c03565b613d04576040517f08c379a000000000000000000000000000000000000000000000000000000000815260040180806020018281038252601d8152602001807f416464726573733a2063616c6c20746f206e6f6e2d636f6e747261637400000081525060200191505060405180910390fd5b600060608673ffffffffffffffffffffffffffffffffffffffff1685876040518082805190602001908083835b60208310613d545780518252602082019150602081019050602083039250613d31565b6001836020036101000a03801982511681845116808217855250505050505090500191505060006040518083038185875af1925050503d8060008114613db6576040519150601f19603f3d011682016040523d82523d6000602084013e613dbb565b606091505b5091509150613dcb828286613dd7565b92505050949350505050565b60608315613de757829050613e9c565b600083511115613dfa5782518084602001fd5b816040517f08c379a00000000000000000000000000000000000000000000000000000000081526004018080602001828103825283818151815260200191508051906020019080838360005b83811015613e61578082015181840152602081019050613e46565b50505050905090810190601f168015613e8e5780820380516001836020036101000a031916815260200191505b509250505060405180910390fd5b9392505050565b604051806060016040528060008152602001600073ffffffffffffffffffffffffffffffffffffffff168152602001606081525090565b828054600181600116156101000203166002900490600052602060002090601f016020900481019282601f10613f1b57805160ff1916838001178555613f49565b82800160010185558215613f49579182015b82811115613f48578251825591602001919060010190613f2d565b5b509050613f569190613f5a565b5090565b613f7c91905b80821115613f78576000816000905550600101613f60565b5090565b9056fe456e756d657261626c655365743a20696e646578206f7574206f6620626f756e6473416363657373436f6e74726f6c3a2073656e646572206d75737420626520616e2061646d696e20746f206772616e744552433732313a207472616e7366657220746f206e6f6e20455243373231526563656976657220696d706c656d656e7465724d6574615472616e73616374696f6e2875696e74323536206e6f6e63652c616464726573732066726f6d2c62797465732066756e6374696f6e5369676e6174757265294552433732313a207472616e7366657220746f20746865207a65726f2061646472657373416464726573733a20696e73756666696369656e742062616c616e636520666f722063616c6c4552433732313a206f70657261746f7220717565727920666f72206e6f6e6578697374656e7420746f6b656e416363657373436f6e74726f6c3a2073656e646572206d75737420626520616e2061646d696e20746f207265766f6b654e61746976654d6574615472616e73616374696f6e3a20494e56414c49445f5349474e45524552433732313a20617070726f76652063616c6c6572206973206e6f74206f776e6572206e6f7220617070726f76656420666f7220616c6c4552433732313a2062616c616e636520717565727920666f7220746865207a65726f20616464726573734552433732313a206f776e657220717565727920666f72206e6f6e6578697374656e7420746f6b656e456e756d657261626c654d61703a20696e646578206f7574206f6620626f756e64734552433732313a20617070726f76656420717565727920666f72206e6f6e6578697374656e7420746f6b656e4552433732314d657461646174613a2055524920736574206f66206e6f6e6578697374656e7420746f6b656e4552433732313a207472616e73666572206f6620746f6b656e2074686174206973206e6f74206f776e5369676e657220616e64207369676e617475726520646f206e6f74206d617463684552433732314d657461646174613a2055524920717565727920666f72206e6f6e6578697374656e7420746f6b656e4552433732313a20617070726f76616c20746f2063757272656e74206f776e65724552433732313a207472616e736665722063616c6c6572206973206e6f74206f776e6572206e6f7220617070726f766564416363657373436f6e74726f6c3a2063616e206f6e6c792072656e6f756e636520726f6c657320666f722073656c66a264697066735822122005926e7d987ff664acb7184d0e1c948cba205dc99756da3e9468a0febabf4d6164736f6c63430006060033454950373132446f6d61696e28737472696e67206e616d652c737472696e672076657273696f6e2c6164647265737320766572696679696e67436f6e74726163742c627974657333322073616c7429",
  "linkReferences": {},
  "deployedLinkReferences": {}
}