{"abi":[{"type":"constructor","inputs":[],"stateMutability":"nonpayable"},{"type":"function","name":"BATCH_LIMIT","inputs":[],"outputs":[{"name":"","type":"uint256","internalType":"uint256"}],"stateMutability":"view"},{"type":"function","name":"DEFAULT_ADMIN_ROLE","inputs":[],"outputs":[{"name":"","type":"bytes32","internalType":"bytes32"}],"stateMutability":"view"},{"type":"function","name":"MANAGER_ROLE","inputs":[],"outputs":[{"name":"","type":"bytes32","internalType":"bytes32"}],"stateMutability":"view"},{"type":"function","name":"TOKEN_TYPE","inputs":[],"outputs":[{"name":"","type":"bytes32","internalType":"bytes32"}],"stateMutability":"view"},{"type":"function","name":"TRANSFER_EVENT_SIG","inputs":[],"outputs":[{"name":"","type":"bytes32","internalType":"bytes32"}],"stateMutability":"view"},{"type":"function","name":"TRANSFER_WITH_METADATA_EVENT_SIG","inputs":[],"outputs":[{"name":"","type":"bytes32","internalType":"bytes32"}],"stateMutability":"view"},{"type":"function","name":"WITHDRAW_BATCH_EVENT_SIG","inputs":[],"outputs":[{"name":"","type":"bytes32","internalType":"bytes32"}],"stateMutability":"view"},{"type":"function","name":"exitTokens","inputs":[{"name":"rootToken","type":"address","internalType":"address"},{"name":"log","type":"bytes","internalType":"bytes"}],"outputs":[],"stateMutability":"nonpayable"},{"type":"function","name":"getRoleAdmin","inputs":[{"name":"role","type":"bytes32","internalType":"bytes32"}],"outputs":[{"name":"","type":"bytes32","internalType":"bytes32"}],"stateMutability":"view"},{"type":"function","name":"getRoleMember","inputs":[{"name":"role","type":"bytes32","internalType":"bytes32"},{"name":"index","type":"uint256","internalType":"uint256"}],"outputs":[{"name":"","type":"address","internalType":"address"}],"stateMutability":"view"},{"type":"function","name":"getRoleMemberCount","inputs":[{"name":"role","type":"bytes32","internalType":"bytes32"}],"outputs":[{"name":"","type":"uint256","internalType":"uint256"}],"stateMutability":"view"},{"type":"function","name":"grantRole","inputs":[{"name":"role","type":"bytes32","internalType":"bytes32"},{"name":"account","type":"address","internalType":"address"}],"outputs":[],"stateMutability":"nonpayable"},{"type":"function","name":"hasRole","inputs":[{"name":"role","type":"bytes32","internalType":"bytes32"},{"name":"account","type":"address","internalType":"address"}],"outputs":[{"name":"","type":"bool","internalType":"bool"}],"stateMutability":"view"},{"type":"function","name":"initialize","inputs":[{"name":"_owner","type":"address","internalType":"address"}],"outputs":[],"stateMutability":"nonpayable"},{"type":"function","name":"lockTokens","inputs":[{"name":"depositor","type":"address","internalType":"address"},{"name":"depositReceiver","type":"address","internalType":"address"},{"name":"rootToken","type":"address","internalType":"address"},{"name":"depositData","type":"bytes","internalType":"bytes"}],"outputs":[],"stateMutability":"nonpayable"},{"type":"function","name":"onERC721Received","inputs":[{"name":"","type":"address","internalType":"address"},{"name":"","type":"address","internalType":"address"},{"name":"","type":"uint256","internalType":"uint256"},{"name":"","type":"bytes","internalType":"bytes"}],"outputs":[{"name":"","type":"bytes4","internalType":"bytes4"}],"stateMutability":"nonpayable"},{"type":"function","name":"renounceRole","inputs":[{"name":"role","type":"bytes32","internalType":"bytes32"},{"name":"account","type":"address","internalType":"address"}],"outputs":[],"stateMutability":"nonpayable"},{"type":"function","name":"revokeRole","inputs":[{"name":"role","type":"bytes32","internalType":"bytes32"},{"name":"account","type":"address","internalType":"address"}],"outputs":[],"stateMutability":"nonpayable"},{"type":"event","name":"ExitedMintableERC721","inputs":[{"name":"exitor","type":"address","indexed":true,"internalType":"address"},{"name":"rootToken","type":"address","indexed":true,"internalType":"address"},{"name":"tokenId","type":"uint256","indexed":false,"internalType":"uint256"}],"anonymous":false},{"type":"event","name":"ExitedMintableERC721Batch","inputs":[{"name":"exitor","type":"address","indexed":true,"internalType":"address"},{"name":"rootToken","type":"address","indexed":true,"internalType":"address"},{"name":"tokenIds","type":"uint256[]","indexed":false,"internalType":"uint256[]"}],"anonymous":false},{"type":"event","name":"LockedMintableERC721","inputs":[{"name":"depositor","type":"address","indexed":true,"internalType":"address"},{"name":"depositReceiver","type":"address","indexed":true,"internalType":"address"},{"name":"rootToken","type":"address","indexed":true,"internalType":"address"},{"name":"tokenId","type":"uint256","indexed":false,"internalType":"uint256"}],"anonymous":false},{"type":"event","name":"LockedMintableERC721Batch","inputs":[{"name":"depositor","type":"address","indexed":true,"internalType":"address"},{"name":"depositReceiver","type":"address","indexed":true,"internalType":"address"},{"name":"rootToken","type":"address","indexed":true,"internalType":"address"},{"name":"tokenIds","type":"uint256[]","indexed":false,"internalType":"uint256[]"}],"anonymous":false},{"type":"event","name":"RoleAdminChanged","inputs":[{"name":"role","type":"bytes32","indexed":true,"internalType":"bytes32"},{"name":"previousAdminRole","type":"bytes32","indexed":true,"internalType":"bytes32"},{"name":"newAdminRole","type":"bytes32","indexed":true,"internalType":"bytes32"}],"anonymous":false},{"type":"event","name":"RoleGranted","inputs":[{"name":"role","type":"bytes32","indexed":true,"internalType":"bytes32"},{"name":"account","type":"address","indexed":true,"internalType":"address"},{"name":"sender","type":"address","indexed":true,"internalType":"address"}],"anonymous":false},{"type":"event","name":"RoleRevoked","inputs":[{"name":"role","type":"bytes32","indexed":true,"internalType":"bytes32"},{"name":"account","type":"address","indexed":true,"internalType":"address"},{"name":"sender","type":"address","indexed":true,"internalType":"address"}],"anonymous":false}],"bytecode":{"object":"0x60806040526002805460ff1916905534801561001a57600080fd5b50611f868061002a6000396000f3fe608060405234801561001057600080fd5b50600436106101165760003560e01c80639559c0bd116100a2578063ca15c87311610071578063ca15c87314610324578063d547741f14610341578063e375b64e1461036d578063ec87621c146103fc578063f741a4171461040457610116565b80639559c0bd146102e6578063a217fddf146102ee578063b017a30f146102f6578063c4d66de8146102fe57610116565b80634794b430116100e95780634794b4301461024f57806349f5124b14610257578063609c92b81461025f5780639010d07c1461026757806391d14854146102a657610116565b8063150b7a021461011b578063248a9ca3146101c65780632f2ff15d146101f557806336568abe14610223575b600080fd5b6101a96004803603608081101561013157600080fd5b6001600160a01b03823581169260208101359091169160408201359190810190608081016060820135600160201b81111561016b57600080fd5b82018360208201111561017d57600080fd5b803590602001918460018302840111600160201b8311171561019e57600080fd5b509092509050610482565b604080516001600160e01b03199092168252519081900360200190f35b6101e3600480360360208110156101dc57600080fd5b5035610493565b60408051918252519081900360200190f35b6102216004803603604081101561020b57600080fd5b50803590602001356001600160a01b03166104ab565b005b6102216004803603604081101561023957600080fd5b50803590602001356001600160a01b0316610517565b6101e3610578565b6101e361059c565b6101e36105c0565b61028a6004803603604081101561027d57600080fd5b50803590602001356105e4565b604080516001600160a01b039092168252519081900360200190f35b6102d2600480360360408110156102bc57600080fd5b50803590602001356001600160a01b031661060b565b604080519115158252519081900360200190f35b6101e3610629565b6101e361062e565b6101e3610633565b6102216004803603602081101561031457600080fd5b50356001600160a01b0316610657565b6101e36004803603602081101561033a57600080fd5b5035610711565b6102216004803603604081101561035757600080fd5b50803590602001356001600160a01b0316610728565b6102216004803603608081101561038357600080fd5b6001600160a01b0382358116926020810135821692604082013590921691810190608081016060820135600160201b8111156103be57600080fd5b8201836020820111156103d057600080fd5b803590602001918460018302840111600160201b831117156103f157600080fd5b509092509050610781565b6101e3610b63565b6102216004803603604081101561041a57600080fd5b6001600160a01b038235169190810190604081016020820135600160201b81111561044457600080fd5b82018360208201111561045657600080fd5b803590602001918460018302840111600160201b8311171561047757600080fd5b509092509050610b75565b630a85bd0160e11b95945050505050565b6000818152602081905260409020600201545b919050565b6000828152602081905260409020600201546104ce906104c9611607565b61060b565b6105095760405162461bcd60e51b815260040180806020018281038252602f815260200180611e24602f913960400191505060405180910390fd5b610513828261160c565b5050565b61051f611607565b6001600160a01b0316816001600160a01b03161461056e5760405162461bcd60e51b815260040180806020018281038252602f815260200180611f22602f913960400191505060405180910390fd5b610513828261167b565b7ff871896b17e9cb7a64941c62c188a4f5c621b86800e3d15452ece01ce56073df81565b7ff94915c6d1fd521cee85359239227480c7e8776d7caf1fc3bacad5c269b66a1481565b7fd4392723c111fcb98b073fe55873efb447bcd23cd3e49ec9ea2581930cd01ddc81565b6000828152602081905260408120610602908363ffffffff6116ea16565b90505b92915050565b6000828152602081905260408120610602908363ffffffff6116f616565b601481565b600081565b7fddf252ad1be2c89b69c2b068fc378daa952ba7f163c4a11628f55a4df523b3ef81565b60025460ff16156106a0576040805162461bcd60e51b815260206004820152600e60248201526d185b1c9958591e481a5b9a5d195960921b604482015290519081900360640190fd5b6106de6040518060400160405280601781526020017f4d696e7461626c6545524337323150726564696361746500000000000000000081525061170b565b6106e9600082610509565b610701600080516020611ed983398151915282610509565b506002805460ff19166001179055565b6000818152602081905260408120610605906117a9565b600082815260208190526040902060020154610746906104c9611607565b61056e5760405162461bcd60e51b8152600401808060200182810382526030815260200180611e7d6030913960400191505060405180910390fd5b600080516020611ed983398151915261079c816104c9611607565b60019061083c5760405162461bcd60e51b815260206004820190815282546002600019610100600184161502019091160460248301819052909182916044909101908490801561082d5780601f106108025761010080835404028352916020019161082d565b820191906000526020600020905b81548152906001019060200180831161081057829003601f168201915b50509250505060405180910390fd5b50602082141561091b5760008383602081101561085857600080fd5b5060408051913580835290519092506001600160a01b038088169289821692918b16917fe13244aa06bdc79480ed5fdc6ebe2bb37202fcdf33ecf45dc449f4201f3dc0879181900360200190a460408051632142170760e11b81526001600160a01b038981166004830152306024830152604482018490529151918716916342842e0e9160648082019260009290919082900301818387803b1580156108fd57600080fd5b505af1158015610911573d6000803e3d6000fd5b5050505050610b5b565b60608383602081101561092d57600080fd5b810190602081018135600160201b81111561094757600080fd5b82018360208201111561095957600080fd5b803590602001918460208302840111600160201b8311171561097a57600080fd5b919080806020026020016040519081016040528093929190818152602001838360200280828437600081840152601f19601f8201169050808301925050505050505091929192905050509050846001600160a01b0316866001600160a01b0316886001600160a01b03167fdb55e3a0ae817693fd7b07170d81eab0eb2c239f36fcecbc98b6b58ac5667e7a846040518080602001828103825283818151815260200191508051906020019060200280838360005b83811015610a46578181015183820152602001610a2e565b505050509050019250505060405180910390a480516014811115610a9b5760405162461bcd60e51b815260040180806020018281038252602c815260200180611ead602c913960400191505060405180910390fd5b60005b81811015610b5757866001600160a01b03166342842e0e8a30868581518110610ac357fe5b60200260200101516040518463ffffffff1660e01b815260040180846001600160a01b03166001600160a01b03168152602001836001600160a01b03166001600160a01b031681526020018281526020019350505050600060405180830381600087803b158015610b3357600080fd5b505af1158015610b47573d6000803e3d6000fd5b505060019092019150610a9e9050565b5050505b505050505050565b600080516020611ed983398151915281565b600080516020611ed9833981519152610b90816104c9611607565b600190610bf65760405162461bcd60e51b815260206004820190815282546002600019610100600184161502019091160460248301819052909182916044909101908490801561082d5780601f106108025761010080835404028352916020019161082d565b506060610c40610c3b85858080601f0160208091040260200160405190810160405280939291908181526020018383808284376000920191909152506117b492505050565b6117d9565b90506060610c6182600181518110610c5457fe5b60200260200101516117d9565b90507fddf252ad1be2c89b69c2b068fc378daa952ba7f163c4a11628f55a4df523b3ef60001b610ca482600081518110610c9757fe5b60200260200101516118c1565b1415610eed576000610cbc82600181518110610c9757fe5b905060006001600160a01b0316610cd983600281518110610c9757fe5b6001600160a01b031614610d1e5760405162461bcd60e51b8152600401808060200182810382526029815260200180611ef96029913960400191505060405180910390fd5b60008790506000610d3584600381518110610c9757fe5b9050816001600160a01b0316634f558e79826040518263ffffffff1660e01b81526004018082815260200191505060206040518083038186803b158015610d7b57600080fd5b505afa158015610d8f573d6000803e3d6000fd5b505050506040513d6020811015610da557600080fd5b505115610e215760408051632142170760e11b81523060048201526001600160a01b038581166024830152604482018490529151918416916342842e0e9160648082019260009290919082900301818387803b158015610e0457600080fd5b505af1158015610e18573d6000803e3d6000fd5b50505050610e9a565b816001600160a01b03166340c10f1984836040518363ffffffff1660e01b815260040180836001600160a01b03166001600160a01b0316815260200182815260200192505050600060405180830381600087803b158015610e8157600080fd5b505af1158015610e95573d6000803e3d6000fd5b505050505b886001600160a01b0316836001600160a01b03167f0a1edd9f5e13f957158280d34c46fe349a4e13cca2018c77d00cd2fd976f0438836040518082815260200191505060405180910390a3505050610b5b565b7ff871896b17e9cb7a64941c62c188a4f5c621b86800e3d15452ece01ce56073df60001b610f2182600081518110610c9757fe5b141561122a576000610f3982600181518110610c9757fe5b90506060610f5a84600281518110610f4d57fe5b602002602001015161190f565b90506060818060200190516020811015610f7357600080fd5b8101908080516040519392919084600160201b821115610f9257600080fd5b908301906020820185811115610fa757600080fd5b82518660208202830111600160201b82111715610fc357600080fd5b82525081516020918201928201910280838360005b83811015610ff0578181015183820152602001610fd8565b5050505091909101604052505082519293508b9150600090505b8281101561119657600084828151811061102057fe5b60200260200101519050826001600160a01b0316634f558e79826040518263ffffffff1660e01b81526004018082815260200191505060206040518083038186803b15801561106e57600080fd5b505afa158015611082573d6000803e3d6000fd5b505050506040513d602081101561109857600080fd5b5051156111145760408051632142170760e11b81523060048201526001600160a01b038981166024830152604482018490529151918516916342842e0e9160648082019260009290919082900301818387803b1580156110f757600080fd5b505af115801561110b573d6000803e3d6000fd5b5050505061118d565b826001600160a01b03166340c10f1988836040518363ffffffff1660e01b815260040180836001600160a01b03166001600160a01b0316815260200182815260200192505050600060405180830381600087803b15801561117457600080fd5b505af1158015611188573d6000803e3d6000fd5b505050505b5060010161100a565b508a6001600160a01b0316856001600160a01b03167fda153ed03804f29148d587a5a11c3b527fb70951aff0fc91d8136f29552a9bde856040518080602001828103825283818151815260200191508051906020019060200280838360005b8381101561120d5781810151838201526020016111f5565b505050509050019250505060405180910390a35050505050610b5b565b7ff94915c6d1fd521cee85359239227480c7e8776d7caf1fc3bacad5c269b66a1460001b61125e82600081518110610c9757fe5b14156115d057600061127682600181518110610c9757fe5b905060006001600160a01b031661129383600281518110610c9757fe5b6001600160a01b0316146112d85760405162461bcd60e51b8152600401808060200182810382526029815260200180611ef96029913960400191505060405180910390fd5b600087905060006112ef84600381518110610c9757fe5b9050816001600160a01b0316634f558e79826040518263ffffffff1660e01b81526004018082815260200191505060206040518083038186803b15801561133557600080fd5b505afa158015611349573d6000803e3d6000fd5b505050506040513d602081101561135f57600080fd5b5051156113be5760408051632142170760e11b81523060048201526001600160a01b038581166024830152604482018490529151918416916342842e0e9160648082019260009290919082900301818387803b158015610e0457600080fd5b60606113d086600281518110610f4d57fe5b905060608180602001905160208110156113e957600080fd5b8101908080516040519392919084600160201b82111561140857600080fd5b90830190602082018581111561141d57600080fd5b8251600160201b81118282018810171561143657600080fd5b82525081516020918201929091019080838360005b8381101561146357818101518382015260200161144b565b50505050905090810190601f1680156114905780820380516001836020036101000a031916815260200191505b506040525050509050836001600160a01b03166394d008ef8685846040518463ffffffff1660e01b815260040180846001600160a01b03166001600160a01b0316815260200183815260200180602001828103825283818151815260200191508051906020019080838360005b838110156115155781810151838201526020016114fd565b50505050905090810190601f1680156115425780820380516001836020036101000a031916815260200191505b50945050505050600060405180830381600087803b15801561156357600080fd5b505af1158015611577573d6000803e3d6000fd5b505050505050886001600160a01b0316836001600160a01b03167f0a1edd9f5e13f957158280d34c46fe349a4e13cca2018c77d00cd2fd976f0438836040518082815260200191505060405180910390a3505050610b5b565b60405162461bcd60e51b815260040180806020018281038252602a815260200180611e53602a913960400191505060405180910390fd5b335b90565b600082815260208190526040902061162a908263ffffffff61198c16565b1561051357611637611607565b6001600160a01b0316816001600160a01b0316837f2f8788117e7eff1d82e926ec794901d17c78024a50270940304540a733656f0d60405160405180910390a45050565b6000828152602081905260409020611699908263ffffffff6119a116565b15610513576116a6611607565b6001600160a01b0316816001600160a01b0316837ff6391f5c32d9c69d2a47ea670b442974b53935d1edc7fd64eb21e047a839171b60405160405180910390a45050565b600061060283836119b6565b6000610602836001600160a01b038416611a1a565b806040516020018082805190602001908083835b6020831061173e5780518252601f19909201916020918201910161171f565b51815160209384036101000a60001901801990921691161790527f3a20494e53554646494349454e545f5045524d495353494f4e530000000000009190930190815260408051808303600519018152601a909201905280516105139550600194509201919050611d4f565b600061060582611a32565b6117bc611dcd565b506040805180820190915281518152602082810190820152919050565b60606117e482611a36565b6117ed57600080fd5b60006117f883611a70565b905060608167ffffffffffffffff8111801561181357600080fd5b5060405190808252806020026020018201604052801561184d57816020015b61183a611dcd565b8152602001906001900390816118325790505b509050600061185f8560200151611acc565b60208601510190506000805b848110156118b65761187c83611b2f565b915060405180604001604052808381526020018481525084828151811061189f57fe5b60209081029190910101529181019160010161186b565b509195945050505050565b8051600090158015906118d657508151602110155b6118df57600080fd5b6000806118eb84611bc8565b8151919350915060208210156119075760208290036101000a90045b949350505050565b805160609061191d57600080fd5b60008061192984611bc8565b9150915060608167ffffffffffffffff8111801561194657600080fd5b506040519080825280601f01601f191660200182016040528015611971576020820181803683370190505b50905060208101611983848285611bee565b50949350505050565b6000610602836001600160a01b038416611c3f565b6000610602836001600160a01b038416611c89565b815460009082106119f85760405162461bcd60e51b8152600401808060200182810382526022815260200180611e026022913960400191505060405180910390fd5b826000018281548110611a0757fe5b9060005260206000200154905092915050565b60009081526001919091016020526040902054151590565b5490565b8051600090611a47575060006104a6565b6020820151805160001a9060c0821015611a66576000925050506104a6565b5060019392505050565b8051600090611a81575060006104a6565b60008090506000611a958460200151611acc565b602085015185519181019250015b80821015611ac357611ab482611b2f565b60019093019290910190611aa3565b50909392505050565b8051600090811a6080811015611ae65760009150506104a6565b60b8811080611b01575060c08110801590611b01575060f881105b15611b105760019150506104a6565b60c0811015611b245760b5190190506104a6565b60f5190190506104a6565b80516000908190811a6080811015611b4a5760019150611bc1565b60b8811015611b5f57607e1981019150611bc1565b60c0811015611b8c5760b78103600185019450806020036101000a85510460018201810193505050611bc1565b60f8811015611ba15760be1981019150611bc1565b60f78103600185019450806020036101000a855104600182018101935050505b5092915050565b6000806000611bda8460200151611acc565b602085015194519481019594039392505050565b80611bf857611c3a565b5b60208110611c18578251825260209283019290910190601f1901611bf9565b8015611c3a578251825160208390036101000a60001901801990921691161782525b505050565b6000611c4b8383611a1a565b611c8157508154600181810184556000848152602080822090930184905584548482528286019093526040902091909155610605565b506000610605565b60008181526001830160205260408120548015611d455783546000198083019190810190600090879083908110611cbc57fe5b9060005260206000200154905080876000018481548110611cd957fe5b600091825260208083209091019290925582815260018981019092526040902090840190558654879080611d0957fe5b60019003818190600052602060002001600090559055866001016000878152602001908152602001600020600090556001945050505050610605565b6000915050610605565b828054600181600116156101000203166002900490600052602060002090601f016020900481019282601f10611d9057805160ff1916838001178555611dbd565b82800160010185558215611dbd579182015b82811115611dbd578251825591602001919060010190611da2565b50611dc9929150611de7565b5090565b604051806040016040528060008152602001600081525090565b61160991905b80821115611dc95760008155600101611ded56fe456e756d657261626c655365743a20696e646578206f7574206f6620626f756e6473416363657373436f6e74726f6c3a2073656e646572206d75737420626520616e2061646d696e20746f206772616e744d696e7461626c654552433732315072656469636174653a20494e56414c49445f5349474e4154555245416363657373436f6e74726f6c3a2073656e646572206d75737420626520616e2061646d696e20746f207265766f6b654d696e7461626c654552433732315072656469636174653a20455843454544535f42415443485f4c494d4954241ecf16d79d0f8dbfb92cbc07fe17840425976cf0667f022fe9877caa831b084d696e7461626c654552433732315072656469636174653a20494e56414c49445f5245434549564552416363657373436f6e74726f6c3a2063616e206f6e6c792072656e6f756e636520726f6c657320666f722073656c66a26469706673582212201126cb70e4c3317a2abc921d0c97e5186b8eda8292c341043aced8a16fdfcca664736f6c63430006060033","linkReferences":{}},"methodIdentifiers":{"BATCH_LIMIT()":"9559c0bd","DEFAULT_ADMIN_ROLE()":"a217fddf","MANAGER_ROLE()":"ec87621c","TOKEN_TYPE()":"609c92b8","TRANSFER_EVENT_SIG()":"b017a30f","TRANSFER_WITH_METADATA_EVENT_SIG()":"49f5124b","WITHDRAW_BATCH_EVENT_SIG()":"4794b430","exitTokens(address,bytes)":"f741a417","getRoleAdmin(bytes32)":"248a9ca3","getRoleMember(bytes32,uint256)":"9010d07c","getRoleMemberCount(bytes32)":"ca15c873","grantRole(bytes32,address)":"2f2ff15d","hasRole(bytes32,address)":"91d14854","initialize(address)":"c4d66de8","lockTokens(address,address,address,bytes)":"e375b64e","onERC721Received(address,address,uint256,bytes)":"150b7a02","renounceRole(bytes32,address)":"36568abe","revokeRole(bytes32,address)":"d547741f"},"id":62}