{"abi":[{"type":"function","name":"DEFAULT_ADMIN_ROLE","inputs":[],"outputs":[{"name":"","type":"bytes32","internalType":"bytes32"}],"stateMutability":"view"},{"type":"function","name":"getRoleAdmin","inputs":[{"name":"role","type":"bytes32","internalType":"bytes32"}],"outputs":[{"name":"","type":"bytes32","internalType":"bytes32"}],"stateMutability":"view"},{"type":"function","name":"getRoleMember","inputs":[{"name":"role","type":"bytes32","internalType":"bytes32"},{"name":"index","type":"uint256","internalType":"uint256"}],"outputs":[{"name":"","type":"address","internalType":"address"}],"stateMutability":"view"},{"type":"function","name":"getRoleMemberCount","inputs":[{"name":"role","type":"bytes32","internalType":"bytes32"}],"outputs":[{"name":"","type":"uint256","internalType":"uint256"}],"stateMutability":"view"},{"type":"function","name":"grantRole","inputs":[{"name":"role","type":"bytes32","internalType":"bytes32"},{"name":"account","type":"address","internalType":"address"}],"outputs":[],"stateMutability":"nonpayable"},{"type":"function","name":"hasRole","inputs":[{"name":"role","type":"bytes32","internalType":"bytes32"},{"name":"account","type":"address","internalType":"address"}],"outputs":[{"name":"","type":"bool","internalType":"bool"}],"stateMutability":"view"},{"type":"function","name":"renounceRole","inputs":[{"name":"role","type":"bytes32","internalType":"bytes32"},{"name":"account","type":"address","internalType":"address"}],"outputs":[],"stateMutability":"nonpayable"},{"type":"function","name":"revokeRole","inputs":[{"name":"role","type":"bytes32","internalType":"bytes32"},{"name":"account","type":"address","internalType":"address"}],"outputs":[],"stateMutability":"nonpayable"},{"type":"event","name":"RoleAdminChanged","inputs":[{"name":"role","type":"bytes32","indexed":true,"internalType":"bytes32"},{"name":"previousAdminRole","type":"bytes32","indexed":true,"internalType":"bytes32"},{"name":"newAdminRole","type":"bytes32","indexed":true,"internalType":"bytes32"}],"anonymous":false},{"type":"event","name":"RoleGranted","inputs":[{"name":"role","type":"bytes32","indexed":true,"internalType":"bytes32"},{"name":"account","type":"address","indexed":true,"internalType":"address"},{"name":"sender","type":"address","indexed":true,"internalType":"address"}],"anonymous":false},{"type":"event","name":"RoleRevoked","inputs":[{"name":"role","type":"bytes32","indexed":true,"internalType":"bytes32"},{"name":"account","type":"address","indexed":true,"internalType":"address"},{"name":"sender","type":"address","indexed":true,"internalType":"address"}],"anonymous":false}],"bytecode":{"object":"0x608060405234801561001057600080fd5b50610730806100206000396000f3fe608060405234801561001057600080fd5b50600436106100885760003560e01c806391d148541161005b57806391d1485414610155578063a217fddf14610195578063ca15c8731461019d578063d547741f146101ba57610088565b8063248a9ca31461008d5780632f2ff15d146100bc57806336568abe146100ea5780639010d07c14610116575b600080fd5b6100aa600480360360208110156100a357600080fd5b50356101e6565b60408051918252519081900360200190f35b6100e8600480360360408110156100d257600080fd5b50803590602001356001600160a01b03166101fb565b005b6100e86004803603604081101561010057600080fd5b50803590602001356001600160a01b0316610267565b6101396004803603604081101561012c57600080fd5b50803590602001356102c8565b604080516001600160a01b039092168252519081900360200190f35b6101816004803603604081101561016b57600080fd5b50803590602001356001600160a01b03166102ef565b604080519115158252519081900360200190f35b6100aa61030d565b6100aa600480360360208110156101b357600080fd5b5035610312565b6100e8600480360360408110156101d057600080fd5b50803590602001356001600160a01b0316610329565b60009081526020819052604090206002015490565b60008281526020819052604090206002015461021e90610219610382565b6102ef565b6102595760405162461bcd60e51b815260040180806020018281038252602f81526020018061066d602f913960400191505060405180910390fd5b6102638282610386565b5050565b61026f610382565b6001600160a01b0316816001600160a01b0316146102be5760405162461bcd60e51b815260040180806020018281038252602f8152602001806106cc602f913960400191505060405180910390fd5b61026382826103f5565b60008281526020819052604081206102e6908363ffffffff61046416565b90505b92915050565b60008281526020819052604081206102e6908363ffffffff61047016565b600081565b60008181526020819052604081206102e990610485565b60008281526020819052604090206002015461034790610219610382565b6102be5760405162461bcd60e51b815260040180806020018281038252603081526020018061069c6030913960400191505060405180910390fd5b3390565b60008281526020819052604090206103a4908263ffffffff61049016565b15610263576103b1610382565b6001600160a01b0316816001600160a01b0316837f2f8788117e7eff1d82e926ec794901d17c78024a50270940304540a733656f0d60405160405180910390a45050565b6000828152602081905260409020610413908263ffffffff6104a516565b1561026357610420610382565b6001600160a01b0316816001600160a01b0316837ff6391f5c32d9c69d2a47ea670b442974b53935d1edc7fd64eb21e047a839171b60405160405180910390a45050565b60006102e683836104ba565b60006102e6836001600160a01b03841661051e565b60006102e982610536565b60006102e6836001600160a01b03841661053a565b60006102e6836001600160a01b038416610584565b815460009082106104fc5760405162461bcd60e51b815260040180806020018281038252602281526020018061064b6022913960400191505060405180910390fd5b82600001828154811061050b57fe5b9060005260206000200154905092915050565b60009081526001919091016020526040902054151590565b5490565b6000610546838361051e565b61057c575081546001818101845560008481526020808220909301849055845484825282860190935260409020919091556102e9565b5060006102e9565b6000818152600183016020526040812054801561064057835460001980830191908101906000908790839081106105b757fe5b90600052602060002001549050808760000184815481106105d457fe5b60009182526020808320909101929092558281526001898101909252604090209084019055865487908061060457fe5b600190038181906000526020600020016000905590558660010160008781526020019081526020016000206000905560019450505050506102e9565b60009150506102e956fe456e756d657261626c655365743a20696e646578206f7574206f6620626f756e6473416363657373436f6e74726f6c3a2073656e646572206d75737420626520616e2061646d696e20746f206772616e74416363657373436f6e74726f6c3a2073656e646572206d75737420626520616e2061646d696e20746f207265766f6b65416363657373436f6e74726f6c3a2063616e206f6e6c792072656e6f756e636520726f6c657320666f722073656c66a2646970667358221220de33277b5542b2db21cea5437d72bc0d74c57bf7e0d0fe6949f8a60523ceb3d564736f6c63430006060033","linkReferences":{}},"methodIdentifiers":{"DEFAULT_ADMIN_ROLE()":"a217fddf","getRoleAdmin(bytes32)":"248a9ca3","getRoleMember(bytes32,uint256)":"9010d07c","getRoleMemberCount(bytes32)":"ca15c873","grantRole(bytes32,address)":"2f2ff15d","hasRole(bytes32,address)":"91d14854","renounceRole(bytes32,address)":"36568abe","revokeRole(bytes32,address)":"d547741f"},"id":17}