{
  "_format": "hh-sol-artifact-1",
  "contractName": "UChildEIP3009",
  "sourceName": "contracts/child/ChildToken/UpgradeableChildERC20/UChildEIP3009.sol",
  "abi": [
    {
      "anonymous": false,
      "inputs": [
        {
          "indexed": true,
          "internalType": "address",
          "name": "owner",
          "type": "address"
        },
        {
          "indexed": true,
          "internalType": "address",
          "name": "spender",
          "type": "address"
        },
        {
          "indexed": false,
          "internalType": "uint256",
          "name": "value",
          "type": "uint256"
        }
      ],
      "name": "Approval",
      "type": "event"
    },
    {
      "anonymous": false,
      "inputs": [
        {
          "indexed": true,
          "internalType": "address",
          "name": "authorizer",
          "type": "address"
        },
        {
          "indexed": true,
          "internalType": "bytes32",
          "name": "nonce",
          "type": "bytes32"
        }
      ],
      "name": "AuthorizationCanceled",
      "type": "event"
    },
    {
      "anonymous": false,
      "inputs": [
        {
          "indexed": true,
          "internalType": "address",
          "name": "authorizer",
          "type": "address"
        },
        {
          "indexed": true,
          "internalType": "bytes32",
          "name": "nonce",
          "type": "bytes32"
        }
      ],
      "name": "AuthorizationUsed",
      "type": "event"
    },
    {
      "anonymous": false,
      "inputs": [
        {
          "indexed": true,
          "internalType": "address",
          "name": "userAddress",
          "type": "address"
        },
        {
          "indexed": true,
          "internalType": "address payable",
          "name": "relayerAddress",
          "type": "address"
        },
        {
          "indexed": false,
          "internalType": "bytes",
          "name": "functionSignature",
          "type": "bytes"
        }
      ],
      "name": "MetaTransactionExecuted",
      "type": "event"
    },
    {
      "anonymous": false,
      "inputs": [
        {
          "indexed": true,
          "internalType": "bytes32",
          "name": "role",
          "type": "bytes32"
        },
        {
          "indexed": true,
          "internalType": "bytes32",
          "name": "previousAdminRole",
          "type": "bytes32"
        },
        {
          "indexed": true,
          "internalType": "bytes32",
          "name": "newAdminRole",
          "type": "bytes32"
        }
      ],
      "name": "RoleAdminChanged",
      "type": "event"
    },
    {
      "anonymous": false,
      "inputs": [
        {
          "indexed": true,
          "internalType": "bytes32",
          "name": "role",
          "type": "bytes32"
        },
        {
          "indexed": true,
          "internalType": "address",
          "name": "account",
          "type": "address"
        },
        {
          "indexed": true,
          "internalType": "address",
          "name": "sender",
          "type": "address"
        }
      ],
      "name": "RoleGranted",
      "type": "event"
    },
    {
      "anonymous": false,
      "inputs": [
        {
          "indexed": true,
          "internalType": "bytes32",
          "name": "role",
          "type": "bytes32"
        },
        {
          "indexed": true,
          "internalType": "address",
          "name": "account",
          "type": "address"
        },
        {
          "indexed": true,
          "internalType": "address",
          "name": "sender",
          "type": "address"
        }
      ],
      "name": "RoleRevoked",
      "type": "event"
    },
    {
      "anonymous": false,
      "inputs": [
        {
          "indexed": true,
          "internalType": "address",
          "name": "from",
          "type": "address"
        },
        {
          "indexed": true,
          "internalType": "address",
          "name": "to",
          "type": "address"
        },
        {
          "indexed": false,
          "internalType": "uint256",
          "name": "value",
          "type": "uint256"
        }
      ],
      "name": "Transfer",
      "type": "event"
    },
    {
      "inputs": [],
      "name": "CANCEL_AUTHORIZATION_TYPEHASH",
      "outputs": [
        {
          "internalType": "bytes32",
          "name": "",
          "type": "bytes32"
        }
      ],
      "stateMutability": "view",
      "type": "function"
    },
    {
      "inputs": [],
      "name": "DEFAULT_ADMIN_ROLE",
      "outputs": [
        {
          "internalType": "bytes32",
          "name": "",
          "type": "bytes32"
        }
      ],
      "stateMutability": "view",
      "type": "function"
    },
    {
      "inputs": [],
      "name": "DEPOSITOR_ROLE",
      "outputs": [
        {
          "internalType": "bytes32",
          "name": "",
          "type": "bytes32"
        }
      ],
      "stateMutability": "view",
      "type": "function"
    },
    {
      "inputs": [],
      "name": "ERC712_VERSION",
      "outputs": [
        {
          "internalType": "string",
          "name": "",
          "type": "string"
        }
      ],
      "stateMutability": "view",
      "type": "function"
    },
    {
      "inputs": [],
      "name": "RECEIVE_WITH_AUTHORIZATION_TYPEHASH",
      "outputs": [
        {
          "internalType": "bytes32",
          "name": "",
          "type": "bytes32"
        }
      ],
      "stateMutability": "view",
      "type": "function"
    },
    {
      "inputs": [],
      "name": "TRANSFER_WITH_AUTHORIZATION_TYPEHASH",
      "outputs": [
        {
          "internalType": "bytes32",
          "name": "",
          "type": "bytes32"
        }
      ],
      "stateMutability": "view",
      "type": "function"
    },
    {
      "inputs": [
        {
          "internalType": "address",
          "name": "owner",
          "type": "address"
        },
        {
          "internalType": "address",
          "name": "spender",
          "type": "address"
        }
      ],
      "name": "allowance",
      "outputs": [
        {
          "internalType": "uint256",
          "name": "",
          "type": "uint256"
        }
      ],
      "stateMutability": "view",
      "type": "function"
    },
    {
      "inputs": [
        {
          "internalType": "address",
          "name": "spender",
          "type": "address"
        },
        {
          "internalType": "uint256",
          "name": "amount",
          "type": "uint256"
        }
      ],
      "name": "approve",
      "outputs": [
        {
          "internalType": "bool",
          "name": "",
          "type": "bool"
        }
      ],
      "stateMutability": "nonpayable",
      "type": "function"
    },
    {
      "inputs": [
        {
          "internalType": "address",
          "name": "account",
          "type": "address"
        },
        {
          "internalType": "bytes32",
          "name": "nonce",
          "type": "bytes32"
        }
      ],
      "name": "authorizationState",
      "outputs": [
        {
          "internalType": "bool",
          "name": "",
          "type": "bool"
        }
      ],
      "stateMutability": "view",
      "type": "function"
    },
    {
      "inputs": [
        {
          "internalType": "address",
          "name": "account",
          "type": "address"
        }
      ],
      "name": "balanceOf",
      "outputs": [
        {
          "internalType": "uint256",
          "name": "",
          "type": "uint256"
        }
      ],
      "stateMutability": "view",
      "type": "function"
    },
    {
      "inputs": [
        {
          "internalType": "address",
          "name": "authorizer",
          "type": "address"
        },
        {
          "internalType": "bytes32",
          "name": "nonce",
          "type": "bytes32"
        },
        {
          "internalType": "uint8",
          "name": "v",
          "type": "uint8"
        },
        {
          "internalType": "bytes32",
          "name": "r",
          "type": "bytes32"
        },
        {
          "internalType": "bytes32",
          "name": "s",
          "type": "bytes32"
        }
      ],
      "name": "cancelAuthorization",
      "outputs": [],
      "stateMutability": "nonpayable",
      "type": "function"
    },
    {
      "inputs": [
        {
          "internalType": "string",
          "name": "name_",
          "type": "string"
        }
      ],
      "name": "changeName",
      "outputs": [],
      "stateMutability": "nonpayable",
      "type": "function"
    },
    {
      "inputs": [],
      "name": "decimals",
      "outputs": [
        {
          "internalType": "uint8",
          "name": "",
          "type": "uint8"
        }
      ],
      "stateMutability": "view",
      "type": "function"
    },
    {
      "inputs": [
        {
          "internalType": "address",
          "name": "spender",
          "type": "address"
        },
        {
          "internalType": "uint256",
          "name": "subtractedValue",
          "type": "uint256"
        }
      ],
      "name": "decreaseAllowance",
      "outputs": [
        {
          "internalType": "bool",
          "name": "",
          "type": "bool"
        }
      ],
      "stateMutability": "nonpayable",
      "type": "function"
    },
    {
      "inputs": [
        {
          "internalType": "address",
          "name": "user",
          "type": "address"
        },
        {
          "internalType": "bytes",
          "name": "depositData",
          "type": "bytes"
        }
      ],
      "name": "deposit",
      "outputs": [],
      "stateMutability": "nonpayable",
      "type": "function"
    },
    {
      "inputs": [
        {
          "internalType": "address",
          "name": "userAddress",
          "type": "address"
        },
        {
          "internalType": "bytes",
          "name": "functionSignature",
          "type": "bytes"
        },
        {
          "internalType": "bytes32",
          "name": "sigR",
          "type": "bytes32"
        },
        {
          "internalType": "bytes32",
          "name": "sigS",
          "type": "bytes32"
        },
        {
          "internalType": "uint8",
          "name": "sigV",
          "type": "uint8"
        }
      ],
      "name": "executeMetaTransaction",
      "outputs": [
        {
          "internalType": "bytes",
          "name": "",
          "type": "bytes"
        }
      ],
      "stateMutability": "payable",
      "type": "function"
    },
    {
      "inputs": [],
      "name": "getChainId",
      "outputs": [
        {
          "internalType": "uint256",
          "name": "",
          "type": "uint256"
        }
      ],
      "stateMutability": "pure",
      "type": "function"
    },
    {
      "inputs": [],
      "name": "getDomainSeperator",
      "outputs": [
        {
          "internalType": "bytes32",
          "name": "",
          "type": "bytes32"
        }
      ],
      "stateMutability": "view",
      "type": "function"
    },
    {
      "inputs": [
        {
          "internalType": "address",
          "name": "user",
          "type": "address"
        }
      ],
      "name": "getNonce",
      "outputs": [
        {
          "internalType": "uint256",
          "name": "nonce",
          "type": "uint256"
        }
      ],
      "stateMutability": "view",
      "type": "function"
    },
    {
      "inputs": [
        {
          "internalType": "bytes32",
          "name": "role",
          "type": "bytes32"
        }
      ],
      "name": "getRoleAdmin",
      "outputs": [
        {
          "internalType": "bytes32",
          "name": "",
          "type": "bytes32"
        }
      ],
      "stateMutability": "view",
      "type": "function"
    },
    {
      "inputs": [
        {
          "internalType": "bytes32",
          "name": "role",
          "type": "bytes32"
        },
        {
          "internalType": "uint256",
          "name": "index",
          "type": "uint256"
        }
      ],
      "name": "getRoleMember",
      "outputs": [
        {
          "internalType": "address",
          "name": "",
          "type": "address"
        }
      ],
      "stateMutability": "view",
      "type": "function"
    },
    {
      "inputs": [
        {
          "internalType": "bytes32",
          "name": "role",
          "type": "bytes32"
        }
      ],
      "name": "getRoleMemberCount",
      "outputs": [
        {
          "internalType": "uint256",
          "name": "",
          "type": "uint256"
        }
      ],
      "stateMutability": "view",
      "type": "function"
    },
    {
      "inputs": [
        {
          "internalType": "bytes32",
          "name": "role",
          "type": "bytes32"
        },
        {
          "internalType": "address",
          "name": "account",
          "type": "address"
        }
      ],
      "name": "grantRole",
      "outputs": [],
      "stateMutability": "nonpayable",
      "type": "function"
    },
    {
      "inputs": [
        {
          "internalType": "bytes32",
          "name": "role",
          "type": "bytes32"
        },
        {
          "internalType": "address",
          "name": "account",
          "type": "address"
        }
      ],
      "name": "hasRole",
      "outputs": [
        {
          "internalType": "bool",
          "name": "",
          "type": "bool"
        }
      ],
      "stateMutability": "view",
      "type": "function"
    },
    {
      "inputs": [
        {
          "internalType": "address",
          "name": "spender",
          "type": "address"
        },
        {
          "internalType": "uint256",
          "name": "addedValue",
          "type": "uint256"
        }
      ],
      "name": "increaseAllowance",
      "outputs": [
        {
          "internalType": "bool",
          "name": "",
          "type": "bool"
        }
      ],
      "stateMutability": "nonpayable",
      "type": "function"
    },
    {
      "inputs": [
        {
          "internalType": "string",
          "name": "name_",
          "type": "string"
        },
        {
          "internalType": "string",
          "name": "symbol_",
          "type": "string"
        },
        {
          "internalType": "uint8",
          "name": "decimals_",
          "type": "uint8"
        },
        {
          "internalType": "address",
          "name": "childChainManager",
          "type": "address"
        }
      ],
      "name": "initialize",
      "outputs": [],
      "stateMutability": "nonpayable",
      "type": "function"
    },
    {
      "inputs": [],
      "name": "name",
      "outputs": [
        {
          "internalType": "string",
          "name": "",
          "type": "string"
        }
      ],
      "stateMutability": "view",
      "type": "function"
    },
    {
      "inputs": [
        {
          "internalType": "address",
          "name": "from",
          "type": "address"
        },
        {
          "internalType": "address",
          "name": "to",
          "type": "address"
        },
        {
          "internalType": "uint256",
          "name": "value",
          "type": "uint256"
        },
        {
          "internalType": "uint256",
          "name": "validAfter",
          "type": "uint256"
        },
        {
          "internalType": "uint256",
          "name": "validBefore",
          "type": "uint256"
        },
        {
          "internalType": "bytes32",
          "name": "nonce",
          "type": "bytes32"
        },
        {
          "internalType": "uint8",
          "name": "v",
          "type": "uint8"
        },
        {
          "internalType": "bytes32",
          "name": "r",
          "type": "bytes32"
        },
        {
          "internalType": "bytes32",
          "name": "s",
          "type": "bytes32"
        }
      ],
      "name": "receiveWithAuthorization",
      "outputs": [],
      "stateMutability": "nonpayable",
      "type": "function"
    },
    {
      "inputs": [
        {
          "internalType": "bytes32",
          "name": "role",
          "type": "bytes32"
        },
        {
          "internalType": "address",
          "name": "account",
          "type": "address"
        }
      ],
      "name": "renounceRole",
      "outputs": [],
      "stateMutability": "nonpayable",
      "type": "function"
    },
    {
      "inputs": [
        {
          "internalType": "bytes32",
          "name": "role",
          "type": "bytes32"
        },
        {
          "internalType": "address",
          "name": "account",
          "type": "address"
        }
      ],
      "name": "revokeRole",
      "outputs": [],
      "stateMutability": "nonpayable",
      "type": "function"
    },
    {
      "inputs": [],
      "name": "symbol",
      "outputs": [
        {
          "internalType": "string",
          "name": "",
          "type": "string"
        }
      ],
      "stateMutability": "view",
      "type": "function"
    },
    {
      "inputs": [],
      "name": "totalSupply",
      "outputs": [
        {
          "internalType": "uint256",
          "name": "",
          "type": "uint256"
        }
      ],
      "stateMutability": "view",
      "type": "function"
    },
    {
      "inputs": [
        {
          "internalType": "address",
          "name": "recipient",
          "type": "address"
        },
        {
          "internalType": "uint256",
          "name": "amount",
          "type": "uint256"
        }
      ],
      "name": "transfer",
      "outputs": [
        {
          "internalType": "bool",
          "name": "",
          "type": "bool"
        }
      ],
      "stateMutability": "nonpayable",
      "type": "function"
    },
    {
      "inputs": [
        {
          "internalType": "address",
          "name": "sender",
          "type": "address"
        },
        {
          "internalType": "address",
          "name": "recipient",
          "type": "address"
        },
        {
          "internalType": "uint256",
          "name": "amount",
          "type": "uint256"
        }
      ],
      "name": "transferFrom",
      "outputs": [
        {
          "internalType": "bool",
          "name": "",
          "type": "bool"
        }
      ],
      "stateMutability": "nonpayable",
      "type": "function"
    },
    {
      "inputs": [
        {
          "internalType": "address",
          "name": "from",
          "type": "address"
        },
        {
          "internalType": "address",
          "name": "to",
          "type": "address"
        },
        {
          "internalType": "uint256",
          "name": "value",
          "type": "uint256"
        },
        {
          "internalType": "uint256",
          "name": "validAfter",
          "type": "uint256"
        },
        {
          "internalType": "uint256",
          "name": "validBefore",
          "type": "uint256"
        },
        {
          "internalType": "bytes32",
          "name": "nonce",
          "type": "bytes32"
        },
        {
          "internalType": "uint8",
          "name": "v",
          "type": "uint8"
        },
        {
          "internalType": "bytes32",
          "name": "r",
          "type": "bytes32"
        },
        {
          "internalType": "bytes32",
          "name": "s",
          "type": "bytes32"
        }
      ],
      "name": "transferWithAuthorization",
      "outputs": [],
      "stateMutability": "nonpayable",
      "type": "function"
    },
    {
      "inputs": [
        {
          "internalType": "uint256",
          "name": "amount",
          "type": "uint256"
        }
      ],
      "name": "withdraw",
      "outputs": [],
      "stateMutability": "nonpayable",
      "type": "function"
    }
  ],
  "bytecode": "0x6008805460ff191690556000608081815260c060405260a082815290916200002c90600390839062000058565b5080516200004290600490602084019062000058565b50506005805460ff1916601217905550620000fd565b828054600181600116156101000203166002900490600052602060002090601f016020900481019282601f106200009b57805160ff1916838001178555620000cb565b82800160010185558215620000cb579182015b82811115620000cb578251825591602001919060010190620000ae565b50620000d9929150620000dd565b5090565b620000fa91905b80821115620000d95760008155600101620000e4565b90565b612dad806200010d6000396000f3fe60806040526004361061020f5760003560e01c80637f2eecc311610118578063ca15c873116100a0578063dd62ed3e1161006f578063dd62ed3e146108df578063de7ea79d1461091a578063e3ee160e146109f7578063e94a010214610a63578063ef55bec614610a9c5761020f565b8063ca15c873146107dc578063cf2c52cb14610806578063d547741f14610891578063d9169487146108ca5761020f565b8063a0cc6a68116100e7578063a0cc6a681461072b578063a217fddf14610740578063a3b0b5a314610755578063a457c2d71461076a578063a9059cbb146107a35761020f565b80637f2eecc31461067c5780639010d07c1461069157806391d14854146106dd57806395d89b41146107165761020f565b80632e1a7d4d1161019b57806336568abe1161016a57806336568abe1461050e57806339509351146105475780635353a2d8146105805780635a049a70146105fb57806370a08231146106495761020f565b80632e1a7d4d146104695780632f2ff15d14610495578063313ce567146104ce5780633408e470146104f95761020f565b806318160ddd116101e257806318160ddd1461038d57806320379ee5146103b457806323b872dd146103c9578063248a9ca31461040c5780632d0335ab146104365761020f565b806306fdde0314610214578063095ea7b31461029e5780630c53c51c146102eb5780630f7e597014610378575b600080fd5b34801561022057600080fd5b50610229610b08565b6040805160208082528351818301528351919283929083019185019080838360005b8381101561026357818101518382015260200161024b565b50505050905090810190601f1680156102905780820380516001836020036101000a031916815260200191505b509250505060405180910390f35b3480156102aa57600080fd5b506102d7600480360360408110156102c157600080fd5b506001600160a01b038135169060200135610b9f565b604080519115158252519081900360200190f35b610229600480360360a081101561030157600080fd5b6001600160a01b038235169190810190604081016020820135600160201b81111561032b57600080fd5b82018360208201111561033d57600080fd5b803590602001918460018302840111600160201b8311171561035e57600080fd5b91935091508035906020810135906040013560ff16610bbd565b34801561038457600080fd5b50610229610e46565b34801561039957600080fd5b506103a2610e63565b60408051918252519081900360200190f35b3480156103c057600080fd5b506103a2610e69565b3480156103d557600080fd5b506102d7600480360360608110156103ec57600080fd5b506001600160a01b03813581169160208101359091169060400135610e6f565b34801561041857600080fd5b506103a26004803603602081101561042f57600080fd5b5035610efc565b34801561044257600080fd5b506103a26004803603602081101561045957600080fd5b50356001600160a01b0316610f11565b34801561047557600080fd5b506104936004803603602081101561048c57600080fd5b5035610f2c565b005b3480156104a157600080fd5b50610493600480360360408110156104b857600080fd5b50803590602001356001600160a01b0316610f40565b3480156104da57600080fd5b506104e3610fac565b6040805160ff9092168252519081900360200190f35b34801561050557600080fd5b506103a2610fb5565b34801561051a57600080fd5b506104936004803603604081101561053157600080fd5b50803590602001356001600160a01b0316610fb9565b34801561055357600080fd5b506102d76004803603604081101561056a57600080fd5b506001600160a01b03813516906020013561101a565b34801561058c57600080fd5b50610493600480360360208110156105a357600080fd5b810190602081018135600160201b8111156105bd57600080fd5b8201836020820111156105cf57600080fd5b803590602001918460018302840111600160201b831117156105f057600080fd5b50909250905061106e565b34801561060757600080fd5b50610493600480360360a081101561061e57600080fd5b506001600160a01b038135169060208101359060ff60408201351690606081013590608001356111a0565b34801561065557600080fd5b506103a26004803603602081101561066c57600080fd5b50356001600160a01b031661143f565b34801561068857600080fd5b506103a261145a565b34801561069d57600080fd5b506106c1600480360360408110156106b457600080fd5b508035906020013561147e565b604080516001600160a01b039092168252519081900360200190f35b3480156106e957600080fd5b506102d76004803603604081101561070057600080fd5b50803590602001356001600160a01b03166114a3565b34801561072257600080fd5b506102296114c1565b34801561073757600080fd5b506103a2611522565b34801561074c57600080fd5b506103a2611546565b34801561076157600080fd5b506103a261154b565b34801561077657600080fd5b506102d76004803603604081101561078d57600080fd5b506001600160a01b038135169060200135611571565b3480156107af57600080fd5b506102d7600480360360408110156107c657600080fd5b506001600160a01b0381351690602001356115df565b3480156107e857600080fd5b506103a2600480360360208110156107ff57600080fd5b50356115f3565b34801561081257600080fd5b506104936004803603604081101561082957600080fd5b6001600160a01b038235169190810190604081016020820135600160201b81111561085357600080fd5b82018360208201111561086557600080fd5b803590602001918460018302840111600160201b8311171561088657600080fd5b50909250905061160a565b34801561089d57600080fd5b50610493600480360360408110156108b457600080fd5b50803590602001356001600160a01b03166116c7565b3480156108d657600080fd5b506103a2611720565b3480156108eb57600080fd5b506103a26004803603604081101561090257600080fd5b506001600160a01b0381358116916020013516611744565b34801561092657600080fd5b506104936004803603608081101561093d57600080fd5b810190602081018135600160201b81111561095757600080fd5b82018360208201111561096957600080fd5b803590602001918460018302840111600160201b8311171561098a57600080fd5b919390929091602081019035600160201b8111156109a757600080fd5b8201836020820111156109b957600080fd5b803590602001918460018302840111600160201b831117156109da57600080fd5b9193509150803560ff1690602001356001600160a01b031661176f565b348015610a0357600080fd5b506104936004803603610120811015610a1b57600080fd5b506001600160a01b03813581169160208101359091169060408101359060608101359060808101359060a08101359060ff60c0820135169060e0810135906101000135611913565b348015610a6f57600080fd5b506102d760048036036040811015610a8657600080fd5b506001600160a01b03813516906020013561195b565b348015610aa857600080fd5b506104936004803603610120811015610ac057600080fd5b506001600160a01b03813581169160208101359091169060408101359060608101359060808101359060a08101359060ff60c0820135169060e0810135906101000135611986565b60038054604080516020601f6002600019610100600188161502019095169490940493840181900481028201810190925282815260609390929091830182828015610b945780601f10610b6957610100808354040283529160200191610b94565b820191906000526020600020905b815481529060010190602001808311610b7757829003601f168201915b505050505090505b90565b6000610bb3610bac611a33565b8484611a42565b5060015b92915050565b6060610bc76129a8565b604080516060810182526001600160a01b038a166000818152600a602090815290849020548352808301919091528251601f8a0182900482028101820184528981529192830191908a908a908190840183828082843760009201919091525050509152509050610c3a8882878787611b2e565b610c755760405162461bcd60e51b8152600401808060200182810382526021815260200180612c996021913960400191505060405180910390fd5b6001600160a01b0388166000818152600a60209081526040918290208054600101905581518181529081018990523392917f5845892132946850460bff5a0083f71031bc5bf9aadcd40f1de79423eac9b10b918b918b919081908101848480828437600083820152604051601f909101601f19169092018290039550909350505050a360006060306001600160a01b031689898c6040516020018084848082843780830192505050826001600160a01b03166001600160a01b031660601b815260140193505050506040516020818303038152906040526040518082805190602001908083835b60208310610d7b5780518252601f199092019160209182019101610d5c565b6001836020036101000a0380198251168184511680821785525050505050509050019150506000604051808303816000865af19150503d8060008114610ddd576040519150601f19603f3d011682016040523d82523d6000602084013e610de2565b606091505b509150915081610e39576040805162461bcd60e51b815260206004820152601c60248201527f46756e6374696f6e2063616c6c206e6f74207375636365737366756c00000000604482015290519081900360640190fd5b9998505050505050505050565b604051806040016040528060018152602001603160f81b81525081565b60025490565b60095490565b6000610e7c848484611c0b565b610ef284610e88611a33565b610eed85604051806060016040528060288152602001612c71602891396001600160a01b038a16600090815260016020526040812090610ec6611a33565b6001600160a01b03168152602081019190915260400160002054919063ffffffff611d7216565b611a42565b5060019392505050565b60009081526006602052604090206002015490565b6001600160a01b03166000908152600a602052604090205490565b610f3d610f37611a33565b82611dcc565b50565b600082815260066020526040902060020154610f6390610f5e611a33565b6114a3565b610f9e5760405162461bcd60e51b815260040180806020018281038252602f815260200180612ab0602f913960400191505060405180910390fd5b610fa88282611ed4565b5050565b60055460ff1690565b4690565b610fc1611a33565b6001600160a01b0316816001600160a01b0316146110105760405162461bcd60e51b815260040180806020018281038252602f815260200180612d49602f913960400191505060405180910390fd5b610fa88282611f43565b6000610bb3611027611a33565b84610eed8560016000611038611a33565b6001600160a01b03908116825260208083019390935260409182016000908120918c16815292529020549063ffffffff611fb216565b600061107c81610f5e611a33565b60079061111c5760405162461bcd60e51b815260206004820190815282546002600019610100600184161502019091160460248301819052909182916044909101908490801561110d5780601f106110e25761010080835404028352916020019161110d565b820191906000526020600020905b8154815290600101906020018083116110f057829003601f168201915b50509250505060405180910390fd5b5061115c83838080601f01602080910402602001604051908101604052809392919081815260200183838082843760009201919091525061200c92505050565b61119b83838080601f01602080910402602001604051908101604052809392919081815260200183838082843760009201919091525061201f92505050565b505050565b6001600160a01b0385166000908152600b60209081526040808320878452825291829020548251808401909352601e8352600080516020612bfc8339815191529183019190915260ff16156112735760405162461bcd60e51b81526004018080602001828103825283818151815260200191508051906020019080838360005b83811015611238578181015183820152602001611220565b50505050905090810190601f1680156112655780820380516001836020036101000a031916815260200191505b509250505060405180910390fd5b50604080517f158b0a9edf7a828aad02f63cd515c68ef2f50ba807396f6d12842833a15974296020808301919091526001600160a01b038816828401526060808301889052835180840390910181526080909201909252805191012060006112da826120db565b9050600060018287878760405160008152602001604052604051808581526020018460ff1660ff1681526020018381526020018281526020019450505050506020604051602081039080840390855afa15801561133b573d6000803e3d6000fd5b505050602060405103519050876001600160a01b0316816001600160a01b0316146040518060400160405280601a81526020017f454950333030393a20696e76616c6964207369676e6174757265000000000000815250906113de5760405162461bcd60e51b8152602060048201818152835160248401528351909283926044909101919085019080838360008315611238578181015183820152602001611220565b506001600160a01b0388166000818152600b602090815260408083208b8452909152808220805460ff19166001179055518992917f1cdd46ff242716cdaa72d159d339a485b3438398348d68f09d7c8c0a59353d8191a35050505050505050565b6001600160a01b031660009081526020819052604090205490565b7fd099cc98ef71107a616c4f0f941f04c322d8e254fe26b3c6668db87aae413de881565b600082815260066020526040812061149c908363ffffffff61212716565b9392505050565b600082815260066020526040812061149c908363ffffffff61213316565b60048054604080516020601f6002600019610100600188161502019095169490940493840181900481028201810190925282815260609390929091830182828015610b945780601f10610b6957610100808354040283529160200191610b94565b7f7c7c6cdb67a18743f49ec6fa9b35f50d52ed05cbed4cc592e13b44501c1a226781565b600081565b604080516d4445504f5349544f525f524f4c4560901b8152905190819003600e01902081565b6000610bb361157e611a33565b84610eed85604051806060016040528060258152602001612d2460259139600160006115a8611a33565b6001600160a01b03908116825260208083019390935260409182016000908120918d1681529252902054919063ffffffff611d7216565b6000610bb36115ec611a33565b8484611c0b565b6000818152600660205260408120610bb790612148565b604080516d4445504f5349544f525f524f4c4560901b8152905190819003600e01902061163981610f5e611a33565b60079061169f5760405162461bcd60e51b815260206004820190815282546002600019610100600184161502019091160460248301819052909182916044909101908490801561110d5780601f106110e25761010080835404028352916020019161110d565b506000838360208110156116b257600080fd5b503590506116c08582612153565b5050505050565b6000828152600660205260409020600201546116e590610f5e611a33565b6110105760405162461bcd60e51b8152600401808060200182810382526030815260200180612c1c6030913960400191505060405180910390fd5b7f158b0a9edf7a828aad02f63cd515c68ef2f50ba807396f6d12842833a159742981565b6001600160a01b03918216600090815260016020908152604080832093909416825291909152205490565b60085460ff16156117b8576040805162461bcd60e51b815260206004820152600e60248201526d185b1c9958591e481a5b9a5d195960921b604482015290519081900360640190fd5b6117f786868080601f01602080910402602001604051908101604052809392919081815260200183838082843760009201919091525061200c92505050565b61183684848080601f01602080910402602001604051908101604052809392919081815260200183838082843760009201919091525061224f92505050565b61183f82612262565b611880848460405160200180806410da1a5b1960da1b8152506005018383808284378083019250505092505050604051602081830303815290604052612278565b611892600061188d611a33565b610f9e565b604080516d4445504f5349544f525f524f4c4560901b8152905190819003600e0190206118bf9082610f9e565b6118fe86868080601f01602080910402602001604051908101604052809392919081815260200183838082843760009201919091525061231692505050565b50506008805460ff1916600117905550505050565b6119457f7c7c6cdb67a18743f49ec6fa9b35f50d52ed05cbed4cc592e13b44501c1a22678a8a8a8a8a8a8a8a8a612378565b611950898989611c0b565b505050505050505050565b6001600160a01b03919091166000908152600b60209081526040808320938352929052205460ff1690565b876001600160a01b0316336001600160a01b031614604051806060016040528060218152602001612bdb6021913990611a005760405162461bcd60e51b8152602060048201818152835160248401528351909283926044909101919085019080838360008315611238578181015183820152602001611220565b506119457fd099cc98ef71107a616c4f0f941f04c322d8e254fe26b3c6668db87aae413de88a8a8a8a8a8a8a8a8a612378565b6000611a3d6126c3565b905090565b6001600160a01b038316611a875760405162461bcd60e51b8152600401808060200182810382526024815260200180612d006024913960400191505060405180910390fd5b6001600160a01b038216611acc5760405162461bcd60e51b8152600401808060200182810382526022815260200180612b446022913960400191505060405180910390fd5b6001600160a01b03808416600081815260016020908152604080832094871680845294825291829020859055815185815291517f8c5be1e5ebec7d5bd14f71427d1e84f3dd0314c0f7b2291e5b200ac8c7c3b9259281900390910190a3505050565b60006001600160a01b038616611b755760405162461bcd60e51b8152600401808060200182810382526025815260200180612c4c6025913960400191505060405180910390fd5b6001611b88611b8387612720565b6120db565b83868660405160008152602001604052604051808581526020018460ff1660ff1681526020018381526020018281526020019450505050506020604051602081039080840390855afa158015611be2573d6000803e3d6000fd5b505050602060405103516001600160a01b0316866001600160a01b031614905095945050505050565b6001600160a01b038316611c505760405162461bcd60e51b8152600401808060200182810382526025815260200180612cdb6025913960400191505060405180910390fd5b6001600160a01b038216611c955760405162461bcd60e51b8152600401808060200182810382526023815260200180612a8d6023913960400191505060405180910390fd5b611ca083838361119b565b611ce381604051806060016040528060268152602001612bb5602691396001600160a01b038616600090815260208190526040902054919063ffffffff611d7216565b6001600160a01b038085166000908152602081905260408082209390935590841681522054611d18908263ffffffff611fb216565b6001600160a01b038084166000818152602081815260409182902094909455805185815290519193928716927fddf252ad1be2c89b69c2b068fc378daa952ba7f163c4a11628f55a4df523b3ef92918290030190a3505050565b60008184841115611dc45760405162461bcd60e51b8152602060048201818152835160248401528351909283926044909101919085019080838360008315611238578181015183820152602001611220565b505050900390565b6001600160a01b038216611e115760405162461bcd60e51b8152600401808060200182810382526021815260200180612cba6021913960400191505060405180910390fd5b611e1d8260008361119b565b611e6081604051806060016040528060228152602001612adf602291396001600160a01b038516600090815260208190526040902054919063ffffffff611d7216565b6001600160a01b038316600090815260208190526040902055600254611e8c908263ffffffff6127ac16565b6002556040805182815290516000916001600160a01b038516917fddf252ad1be2c89b69c2b068fc378daa952ba7f163c4a11628f55a4df523b3ef9181900360200190a35050565b6000828152600660205260409020611ef2908263ffffffff6127ee16565b15610fa857611eff611a33565b6001600160a01b0316816001600160a01b0316837f2f8788117e7eff1d82e926ec794901d17c78024a50270940304540a733656f0d60405160405180910390a45050565b6000828152600660205260409020611f61908263ffffffff61280316565b15610fa857611f6e611a33565b6001600160a01b0316816001600160a01b0316837ff6391f5c32d9c69d2a47ea670b442974b53935d1edc7fd64eb21e047a839171b60405160405180910390a45050565b60008282018381101561149c576040805162461bcd60e51b815260206004820152601b60248201527f536166654d6174683a206164646974696f6e206f766572666c6f770000000000604482015290519081900360640190fd5b8051610fa89060039060208401906129d2565b6040518060800160405280604f8152602001612b66604f913980516020918201208251838301206040805180820190915260018152603160f81b930192909252907fc89efdaa54c0f20c7adf612882df0950f5a951637e0307cdcb4c672f298b8bc63061208a610fb5565b604080516020808201979097528082019590955260608501939093526001600160a01b03909116608084015260a0808401919091528151808403909101815260c09092019052805191012060095550565b60006120e5610e69565b82604051602001808061190160f01b81525060020183815260200182815260200192505050604051602081830303815290604052805190602001209050919050565b600061149c8383612818565b600061149c836001600160a01b03841661287c565b6000610bb782612894565b6001600160a01b0382166121ae576040805162461bcd60e51b815260206004820152601f60248201527f45524332303a206d696e7420746f20746865207a65726f206164647265737300604482015290519081900360640190fd5b6121ba6000838361119b565b6002546121cd908263ffffffff611fb216565b6002556001600160a01b0382166000908152602081905260409020546121f9908263ffffffff611fb216565b6001600160a01b0383166000818152602081815260408083209490945583518581529351929391927fddf252ad1be2c89b69c2b068fc378daa952ba7f163c4a11628f55a4df523b3ef9281900390910190a35050565b8051610fa89060049060208401906129d2565b6005805460ff191660ff92909216919091179055565b806040516020018082805190602001908083835b602083106122ab5780518252601f19909201916020918201910161228c565b51815160209384036101000a60001901801990921691161790527f3a20494e53554646494349454e545f5045524d495353494f4e530000000000009190930190815260408051808303600519018152601a90920190528051610fa895506007945092019190506129d2565b60085460ff161561235f576040805162461bcd60e51b815260206004820152600e60248201526d185b1c9958591e481a5b9a5d195960921b604482015290519081900360640190fd5b6123688161201f565b506008805460ff19166001179055565b8542116040518060400160405280601e8152602001600080516020612bfc833981519152815250906123eb5760405162461bcd60e51b8152602060048201818152835160248401528351909283926044909101919085019080838360008315611238578181015183820152602001611220565b508442106040518060400160405280601e8152602001600080516020612bfc8339815191528152509061245f5760405162461bcd60e51b8152602060048201818152835160248401528351909283926044909101919085019080838360008315611238578181015183820152602001611220565b506001600160a01b0389166000908152600b60209081526040808320878452825291829020548251808401909352601e8352600080516020612bfc8339815191529183019190915260ff16156124f65760405162461bcd60e51b8152602060048201818152835160248401528351909283926044909101919085019080838360008315611238578181015183820152602001611220565b506040805160208082018d90526001600160a01b03808d16838501528b166060830152608082018a905260a0820189905260c0820188905260e08083018890528351808403909101815261010090920190925280519101206000612559826120db565b9050600060018287878760405160008152602001604052604051808581526020018460ff1660ff1681526020018381526020018281526020019450505050506020604051602081039080840390855afa1580156125ba573d6000803e3d6000fd5b5050506020604051035190508b6001600160a01b0316816001600160a01b0316146040518060400160405280601a81526020017f454950333030393a20696e76616c6964207369676e61747572650000000000008152509061265d5760405162461bcd60e51b8152602060048201818152835160248401528351909283926044909101919085019080838360008315611238578181015183820152602001611220565b506001600160a01b038c166000818152600b602090815260408083208b8452909152808220805460ff19166001179055518992917f98de503528ee59b575ef0c0a2576a82497bfc029a5685b209e9ec333479b10a591a350505050505050505050505050565b60003330141561271b5760606000368080601f0160208091040260200160405190810160405280939291908181526020018383808284376000920191909152505050503601516001600160a01b03169150610b9c9050565b503390565b6000604051806080016040528060438152602001612b0160439139805190602001208260000151836020015184604001518051906020012060405160200180858152602001848152602001836001600160a01b03166001600160a01b03168152602001828152602001945050505050604051602081830303815290604052805190602001209050919050565b600061149c83836040518060400160405280601e81526020017f536166654d6174683a207375627472616374696f6e206f766572666c6f770000815250611d72565b600061149c836001600160a01b038416612898565b600061149c836001600160a01b0384166128e2565b8154600090821061285a5760405162461bcd60e51b8152600401808060200182810382526022815260200180612a6b6022913960400191505060405180910390fd5b82600001828154811061286957fe5b9060005260206000200154905092915050565b60009081526001919091016020526040902054151590565b5490565b60006128a4838361287c565b6128da57508154600181810184556000848152602080822090930184905584548482528286019093526040902091909155610bb7565b506000610bb7565b6000818152600183016020526040812054801561299e578354600019808301919081019060009087908390811061291557fe5b906000526020600020015490508087600001848154811061293257fe5b60009182526020808320909101929092558281526001898101909252604090209084019055865487908061296257fe5b60019003818190600052602060002001600090559055866001016000878152602001908152602001600020600090556001945050505050610bb7565b6000915050610bb7565b60405180606001604052806000815260200160006001600160a01b03168152602001606081525090565b828054600181600116156101000203166002900490600052602060002090601f016020900481019282601f10612a1357805160ff1916838001178555612a40565b82800160010185558215612a40579182015b82811115612a40578251825591602001919060010190612a25565b50612a4c929150612a50565b5090565b610b9c91905b80821115612a4c5760008155600101612a5656fe456e756d657261626c655365743a20696e646578206f7574206f6620626f756e647345524332303a207472616e7366657220746f20746865207a65726f2061646472657373416363657373436f6e74726f6c3a2073656e646572206d75737420626520616e2061646d696e20746f206772616e7445524332303a206275726e20616d6f756e7420657863656564732062616c616e63654d6574615472616e73616374696f6e2875696e74323536206e6f6e63652c616464726573732066726f6d2c62797465732066756e6374696f6e5369676e61747572652945524332303a20617070726f766520746f20746865207a65726f2061646472657373454950373132446f6d61696e28737472696e67206e616d652c737472696e672076657273696f6e2c6164647265737320766572696679696e67436f6e74726163742c627974657333322073616c742945524332303a207472616e7366657220616d6f756e7420657863656564732062616c616e6365454950333030393a2063616c6c6572206d75737420626520726563697069656e74454950333030393a20617574686f72697a6174696f6e20696e76616c69640000416363657373436f6e74726f6c3a2073656e646572206d75737420626520616e2061646d696e20746f207265766f6b654e61746976654d6574615472616e73616374696f6e3a20494e56414c49445f5349474e455245524332303a207472616e7366657220616d6f756e74206578636565647320616c6c6f77616e63655369676e657220616e64207369676e617475726520646f206e6f74206d6174636845524332303a206275726e2066726f6d20746865207a65726f206164647265737345524332303a207472616e736665722066726f6d20746865207a65726f206164647265737345524332303a20617070726f76652066726f6d20746865207a65726f206164647265737345524332303a2064656372656173656420616c6c6f77616e63652062656c6f77207a65726f416363657373436f6e74726f6c3a2063616e206f6e6c792072656e6f756e636520726f6c657320666f722073656c66a264697066735822122098d0d5faa4fca0789274a4b4f38caab4b1e3860e41c122efe27ec2180cbaf63564736f6c63430006060033",
  "linkReferences": {},
  "deployedLinkReferences": {}
}