{
  "_format": "hh-sol-artifact-1",
  "contractName": "ChainExitERC1155Predicate",
  "sourceName": "contracts/root/TokenPredicates/ChainExitERC1155Predicate.sol",
  "abi": [
    {
      "inputs": [],
      "stateMutability": "nonpayable",
      "type": "constructor"
    },
    {
      "anonymous": false,
      "inputs": [
        {
          "indexed": true,
          "internalType": "address",
          "name": "depositor",
          "type": "address"
        },
        {
          "indexed": true,
          "internalType": "address",
          "name": "depositReceiver",
          "type": "address"
        },
        {
          "indexed": true,
          "internalType": "address",
          "name": "rootToken",
          "type": "address"
        },
        {
          "indexed": false,
          "internalType": "uint256[]",
          "name": "ids",
          "type": "uint256[]"
        },
        {
          "indexed": false,
          "internalType": "uint256[]",
          "name": "amounts",
          "type": "uint256[]"
        }
      ],
      "name": "LockedBatchChainExitERC1155",
      "type": "event"
    },
    {
      "anonymous": false,
      "inputs": [
        {
          "indexed": true,
          "internalType": "bytes32",
          "name": "role",
          "type": "bytes32"
        },
        {
          "indexed": true,
          "internalType": "bytes32",
          "name": "previousAdminRole",
          "type": "bytes32"
        },
        {
          "indexed": true,
          "internalType": "bytes32",
          "name": "newAdminRole",
          "type": "bytes32"
        }
      ],
      "name": "RoleAdminChanged",
      "type": "event"
    },
    {
      "anonymous": false,
      "inputs": [
        {
          "indexed": true,
          "internalType": "bytes32",
          "name": "role",
          "type": "bytes32"
        },
        {
          "indexed": true,
          "internalType": "address",
          "name": "account",
          "type": "address"
        },
        {
          "indexed": true,
          "internalType": "address",
          "name": "sender",
          "type": "address"
        }
      ],
      "name": "RoleGranted",
      "type": "event"
    },
    {
      "anonymous": false,
      "inputs": [
        {
          "indexed": true,
          "internalType": "bytes32",
          "name": "role",
          "type": "bytes32"
        },
        {
          "indexed": true,
          "internalType": "address",
          "name": "account",
          "type": "address"
        },
        {
          "indexed": true,
          "internalType": "address",
          "name": "sender",
          "type": "address"
        }
      ],
      "name": "RoleRevoked",
      "type": "event"
    },
    {
      "inputs": [],
      "name": "CHAIN_EXIT_EVENT_SIG",
      "outputs": [
        {
          "internalType": "bytes32",
          "name": "",
          "type": "bytes32"
        }
      ],
      "stateMutability": "view",
      "type": "function"
    },
    {
      "inputs": [],
      "name": "DEFAULT_ADMIN_ROLE",
      "outputs": [
        {
          "internalType": "bytes32",
          "name": "",
          "type": "bytes32"
        }
      ],
      "stateMutability": "view",
      "type": "function"
    },
    {
      "inputs": [],
      "name": "MANAGER_ROLE",
      "outputs": [
        {
          "internalType": "bytes32",
          "name": "",
          "type": "bytes32"
        }
      ],
      "stateMutability": "view",
      "type": "function"
    },
    {
      "inputs": [],
      "name": "TOKEN_TYPE",
      "outputs": [
        {
          "internalType": "bytes32",
          "name": "",
          "type": "bytes32"
        }
      ],
      "stateMutability": "view",
      "type": "function"
    },
    {
      "inputs": [
        {
          "internalType": "address",
          "name": "",
          "type": "address"
        },
        {
          "internalType": "address",
          "name": "rootToken",
          "type": "address"
        },
        {
          "internalType": "bytes",
          "name": "log",
          "type": "bytes"
        }
      ],
      "name": "exitTokens",
      "outputs": [],
      "stateMutability": "nonpayable",
      "type": "function"
    },
    {
      "inputs": [
        {
          "internalType": "bytes32",
          "name": "role",
          "type": "bytes32"
        }
      ],
      "name": "getRoleAdmin",
      "outputs": [
        {
          "internalType": "bytes32",
          "name": "",
          "type": "bytes32"
        }
      ],
      "stateMutability": "view",
      "type": "function"
    },
    {
      "inputs": [
        {
          "internalType": "bytes32",
          "name": "role",
          "type": "bytes32"
        },
        {
          "internalType": "uint256",
          "name": "index",
          "type": "uint256"
        }
      ],
      "name": "getRoleMember",
      "outputs": [
        {
          "internalType": "address",
          "name": "",
          "type": "address"
        }
      ],
      "stateMutability": "view",
      "type": "function"
    },
    {
      "inputs": [
        {
          "internalType": "bytes32",
          "name": "role",
          "type": "bytes32"
        }
      ],
      "name": "getRoleMemberCount",
      "outputs": [
        {
          "internalType": "uint256",
          "name": "",
          "type": "uint256"
        }
      ],
      "stateMutability": "view",
      "type": "function"
    },
    {
      "inputs": [
        {
          "internalType": "bytes32",
          "name": "role",
          "type": "bytes32"
        },
        {
          "internalType": "address",
          "name": "account",
          "type": "address"
        }
      ],
      "name": "grantRole",
      "outputs": [],
      "stateMutability": "nonpayable",
      "type": "function"
    },
    {
      "inputs": [
        {
          "internalType": "bytes32",
          "name": "role",
          "type": "bytes32"
        },
        {
          "internalType": "address",
          "name": "account",
          "type": "address"
        }
      ],
      "name": "hasRole",
      "outputs": [
        {
          "internalType": "bool",
          "name": "",
          "type": "bool"
        }
      ],
      "stateMutability": "view",
      "type": "function"
    },
    {
      "inputs": [
        {
          "internalType": "address",
          "name": "_owner",
          "type": "address"
        }
      ],
      "name": "initialize",
      "outputs": [],
      "stateMutability": "nonpayable",
      "type": "function"
    },
    {
      "inputs": [
        {
          "internalType": "address",
          "name": "depositor",
          "type": "address"
        },
        {
          "internalType": "address",
          "name": "depositReceiver",
          "type": "address"
        },
        {
          "internalType": "address",
          "name": "rootToken",
          "type": "address"
        },
        {
          "internalType": "bytes",
          "name": "depositData",
          "type": "bytes"
        }
      ],
      "name": "lockTokens",
      "outputs": [],
      "stateMutability": "nonpayable",
      "type": "function"
    },
    {
      "inputs": [
        {
          "internalType": "address",
          "name": "",
          "type": "address"
        },
        {
          "internalType": "address",
          "name": "",
          "type": "address"
        },
        {
          "internalType": "uint256[]",
          "name": "",
          "type": "uint256[]"
        },
        {
          "internalType": "uint256[]",
          "name": "",
          "type": "uint256[]"
        },
        {
          "internalType": "bytes",
          "name": "",
          "type": "bytes"
        }
      ],
      "name": "onERC1155BatchReceived",
      "outputs": [
        {
          "internalType": "bytes4",
          "name": "",
          "type": "bytes4"
        }
      ],
      "stateMutability": "nonpayable",
      "type": "function"
    },
    {
      "inputs": [
        {
          "internalType": "address",
          "name": "",
          "type": "address"
        },
        {
          "internalType": "address",
          "name": "",
          "type": "address"
        },
        {
          "internalType": "uint256",
          "name": "",
          "type": "uint256"
        },
        {
          "internalType": "uint256",
          "name": "",
          "type": "uint256"
        },
        {
          "internalType": "bytes",
          "name": "",
          "type": "bytes"
        }
      ],
      "name": "onERC1155Received",
      "outputs": [
        {
          "internalType": "bytes4",
          "name": "",
          "type": "bytes4"
        }
      ],
      "stateMutability": "nonpayable",
      "type": "function"
    },
    {
      "inputs": [
        {
          "internalType": "bytes32",
          "name": "role",
          "type": "bytes32"
        },
        {
          "internalType": "address",
          "name": "account",
          "type": "address"
        }
      ],
      "name": "renounceRole",
      "outputs": [],
      "stateMutability": "nonpayable",
      "type": "function"
    },
    {
      "inputs": [
        {
          "internalType": "bytes32",
          "name": "role",
          "type": "bytes32"
        },
        {
          "internalType": "address",
          "name": "account",
          "type": "address"
        }
      ],
      "name": "revokeRole",
      "outputs": [],
      "stateMutability": "nonpayable",
      "type": "function"
    },
    {
      "inputs": [
        {
          "internalType": "bytes4",
          "name": "interfaceId",
          "type": "bytes4"
        }
      ],
      "name": "supportsInterface",
      "outputs": [
        {
          "internalType": "bool",
          "name": "",
          "type": "bool"
        }
      ],
      "stateMutability": "view",
      "type": "function"
    }
  ],
  "bytecode": "0x60806040526000600360006101000a81548160ff0219169083151502179055503480156200002c57600080fd5b50620000456301ffc9a760e01b6200006c60201b60201c565b6200006663bc197c8160e01b63f23a6e6160e01b186200006c60201b60201c565b62000175565b63ffffffff60e01b817bffffffffffffffffffffffffffffffffffffffffffffffffffffffff1916141562000109576040517f08c379a000000000000000000000000000000000000000000000000000000000815260040180806020018281038252601c8152602001807f4552433136353a20696e76616c696420696e746572666163652069640000000081525060200191505060405180910390fd5b6001600080837bffffffffffffffffffffffffffffffffffffffffffffffffffffffff19167bffffffffffffffffffffffffffffffffffffffffffffffffffffffff1916815260200190815260200160002060006101000a81548160ff02191690831515021790555050565b612cd180620001856000396000f3fe608060405234801561001057600080fd5b506004361061010b5760003560e01c8063a217fddf116100a2578063ca15c87311610071578063ca15c8731461067f578063d547741f146106c1578063e375b64e1461070f578063ec87621c146107e8578063f23a6e61146108065761010b565b8063a217fddf1461044a578063bc197c8114610468578063c23ed3e71461061d578063c4d66de81461063b5761010b565b8063609c92b8116100de578063609c92b8146102535780638274664f146102715780639010d07c1461036c57806391d14854146103e45761010b565b806301ffc9a714610110578063248a9ca3146101755780632f2ff15d146101b757806336568abe14610205575b600080fd5b61015b6004803603602081101561012657600080fd5b8101908080357bffffffffffffffffffffffffffffffffffffffffffffffffffffffff19169060200190929190505050610925565b604051808215151515815260200191505060405180910390f35b6101a16004803603602081101561018b57600080fd5b810190808035906020019092919050505061098c565b6040518082815260200191505060405180910390f35b610203600480360360408110156101cd57600080fd5b8101908080359060200190929190803573ffffffffffffffffffffffffffffffffffffffff1690602001909291905050506109ac565b005b6102516004803603604081101561021b57600080fd5b8101908080359060200190929190803573ffffffffffffffffffffffffffffffffffffffff169060200190929190505050610a36565b005b61025b610acf565b6040518082815260200191505060405180910390f35b61036a6004803603606081101561028757600080fd5b81019080803573ffffffffffffffffffffffffffffffffffffffff169060200190929190803573ffffffffffffffffffffffffffffffffffffffff169060200190929190803590602001906401000000008111156102e457600080fd5b8201836020820111156102f657600080fd5b8035906020019184600183028401116401000000008311171561031857600080fd5b91908080601f016020809104026020016040519081016040528093929190818152602001838380828437600081840152601f19601f820116905080830192505050505050509192919290505050610b08565b005b6103a26004803603604081101561038257600080fd5b810190808035906020019092919080359060200190929190505050611501565b604051808273ffffffffffffffffffffffffffffffffffffffff1673ffffffffffffffffffffffffffffffffffffffff16815260200191505060405180910390f35b610430600480360360408110156103fa57600080fd5b8101908080359060200190929190803573ffffffffffffffffffffffffffffffffffffffff169060200190929190505050611533565b604051808215151515815260200191505060405180910390f35b610452611565565b6040518082815260200191505060405180910390f35b6105c9600480360360a081101561047e57600080fd5b81019080803573ffffffffffffffffffffffffffffffffffffffff169060200190929190803573ffffffffffffffffffffffffffffffffffffffff169060200190929190803590602001906401000000008111156104db57600080fd5b8201836020820111156104ed57600080fd5b8035906020019184602083028401116401000000008311171561050f57600080fd5b90919293919293908035906020019064010000000081111561053057600080fd5b82018360208201111561054257600080fd5b8035906020019184602083028401116401000000008311171561056457600080fd5b90919293919293908035906020019064010000000081111561058557600080fd5b82018360208201111561059757600080fd5b803590602001918460018302840111640100000000831117156105b957600080fd5b909192939192939050505061156c565b60405180827bffffffffffffffffffffffffffffffffffffffffffffffffffffffff19167bffffffffffffffffffffffffffffffffffffffffffffffffffffffff1916815260200191505060405180910390f35b610625611584565b6040518082815260200191505060405180910390f35b61067d6004803603602081101561065157600080fd5b81019080803573ffffffffffffffffffffffffffffffffffffffff1690602001909291905050506115a0565b005b6106ab6004803603602081101561069557600080fd5b81019080803590602001909291905050506116cb565b6040518082815260200191505060405180910390f35b61070d600480360360408110156106d757600080fd5b8101908080359060200190929190803573ffffffffffffffffffffffffffffffffffffffff1690602001909291905050506116f2565b005b6107e66004803603608081101561072557600080fd5b81019080803573ffffffffffffffffffffffffffffffffffffffff169060200190929190803573ffffffffffffffffffffffffffffffffffffffff169060200190929190803573ffffffffffffffffffffffffffffffffffffffff169060200190929190803590602001906401000000008111156107a257600080fd5b8201836020820111156107b457600080fd5b803590602001918460018302840111640100000000831117156107d657600080fd5b909192939192939050505061177c565b005b6107f0611d45565b6040518082815260200191505060405180910390f35b6108d1600480360360a081101561081c57600080fd5b81019080803573ffffffffffffffffffffffffffffffffffffffff169060200190929190803573ffffffffffffffffffffffffffffffffffffffff16906020019092919080359060200190929190803590602001909291908035906020019064010000000081111561088d57600080fd5b82018360208201111561089f57600080fd5b803590602001918460018302840111640100000000831117156108c157600080fd5b9091929391929390505050611d7e565b60405180827bffffffffffffffffffffffffffffffffffffffffffffffffffffffff19167bffffffffffffffffffffffffffffffffffffffffffffffffffffffff1916815260200191505060405180910390f35b6000806000837bffffffffffffffffffffffffffffffffffffffffffffffffffffffff19167bffffffffffffffffffffffffffffffffffffffffffffffffffffffff1916815260200190815260200160002060009054906101000a900460ff169050919050565b600060016000838152602001908152602001600020600201549050919050565b6109d360016000848152602001908152602001600020600201546109ce611d90565b611533565b610a28576040517f08c379a000000000000000000000000000000000000000000000000000000000815260040180806020018281038252602f815260200180612aef602f913960400191505060405180910390fd5b610a328282611d98565b5050565b610a3e611d90565b73ffffffffffffffffffffffffffffffffffffffff168173ffffffffffffffffffffffffffffffffffffffff1614610ac1576040517f08c379a000000000000000000000000000000000000000000000000000000000815260040180806020018281038252602f815260200180612c6d602f913960400191505060405180910390fd5b610acb8282611e2c565b5050565b60405180807f436861696e4578697445524331313535000000000000000000000000000000008152506010019050604051809103902081565b60405180807f4d414e414745525f524f4c450000000000000000000000000000000000000000815250600c0190506040518091039020610b4f81610b4a611d90565b611533565b600290610c14576040517f08c379a00000000000000000000000000000000000000000000000000000000081526004018080602001828103825283818154600181600116156101000203166002900481526020019150805460018160011615610100020316600290048015610c055780601f10610bda57610100808354040283529160200191610c05565b820191906000526020600020905b815481529060010190602001808311610be857829003601f168201915b50509250505060405180910390fd5b506060610c28610c2384611ec0565b611eee565b90506060610c4982600181518110610c3c57fe5b6020026020010151611eee565b90506060610c6a83600281518110610c5d57fe5b6020026020010151611fe2565b90506040518080612be1602c9139602c0190506040518091039020610ca283600081518110610c9557fe5b6020026020010151612073565b60001b14156114a7576000610cca83600181518110610cbd57fe5b6020026020010151612073565b9050600073ffffffffffffffffffffffffffffffffffffffff168173ffffffffffffffffffffffffffffffffffffffff161415610d52576040517f08c379a000000000000000000000000000000000000000000000000000000000815260040180806020018281038252602b815260200180612b57602b913960400191505060405180910390fd5b6060806060848060200190516060811015610d6c57600080fd5b8101908080516040519392919084640100000000821115610d8c57600080fd5b83820191506020820185811115610da257600080fd5b8251866020820283011164010000000082111715610dbf57600080fd5b8083526020830192505050908051906020019060200280838360005b83811015610df6578082015181840152602081019050610ddb565b5050505090500160405260200180516040519392919084640100000000821115610e1f57600080fd5b83820191506020820185811115610e3557600080fd5b8251866020820283011164010000000082111715610e5257600080fd5b8083526020830192505050908051906020019060200280838360005b83811015610e89578082015181840152602081019050610e6e565b5050505090500160405260200180516040519392919084640100000000821115610eb257600080fd5b83820191506020820185811115610ec857600080fd5b8251866001820283011164010000000082111715610ee557600080fd5b8083526020830192505050908051906020019080838360005b83811015610f19578082015181840152602081019050610efe565b50505050905090810190601f168015610f465780820380516001836020036101000a031916815260200191505b5060405250505092509250925060008a905060608173ffffffffffffffffffffffffffffffffffffffff16634e1273f4610f813088516120cd565b876040518363ffffffff1660e01b8152600401808060200180602001838103835285818151815260200191508051906020019060200280838360005b83811015610fd8578082015181840152602081019050610fbd565b50505050905001838103825284818151815260200191508051906020019060200280838360005b8381101561101a578082015181840152602081019050610fff565b5050505090500194505050505060006040518083038186803b15801561103f57600080fd5b505afa158015611053573d6000803e3d6000fd5b505050506040513d6000823e3d601f19601f82011682018060405250602081101561107d57600080fd5b810190808051604051939291908464010000000082111561109d57600080fd5b838201915060208201858111156110b357600080fd5b82518660208202830111640100000000821117156110d057600080fd5b8083526020830192505050908051906020019060200280838360005b838110156111075780820151818401526020810190506110ec565b50505050905001604052505050905060606000806111258488612266565b92509250925081156112c8578473ffffffffffffffffffffffffffffffffffffffff16631f7fdffa8a8a868a6040518563ffffffff1660e01b8152600401808573ffffffffffffffffffffffffffffffffffffffff1673ffffffffffffffffffffffffffffffffffffffff168152602001806020018060200180602001848103845287818151815260200191508051906020019060200280838360005b838110156111dd5780820151818401526020810190506111c2565b50505050905001848103835286818151815260200191508051906020019060200280838360005b8381101561121f578082015181840152602081019050611204565b50505050905001848103825285818151815260200191508051906020019080838360005b8381101561125e578082015181840152602081019050611243565b50505050905090810190601f16801561128b5780820380516001836020036101000a031916815260200191505b50975050505050505050600060405180830381600087803b1580156112af57600080fd5b505af11580156112c3573d6000803e3d6000fd5b505050505b8015611499578473ffffffffffffffffffffffffffffffffffffffff16632eb2c2d6308b8b888b6040518663ffffffff1660e01b8152600401808673ffffffffffffffffffffffffffffffffffffffff1673ffffffffffffffffffffffffffffffffffffffff1681526020018573ffffffffffffffffffffffffffffffffffffffff1673ffffffffffffffffffffffffffffffffffffffff168152602001806020018060200180602001848103845287818151815260200191508051906020019060200280838360005b838110156113ad578082015181840152602081019050611392565b50505050905001848103835286818151815260200191508051906020019060200280838360005b838110156113ef5780820151818401526020810190506113d4565b50505050905001848103825285818151815260200191508051906020019080838360005b8381101561142e578082015181840152602081019050611413565b50505050905090810190601f16801561145b5780820380516001836020036101000a031916815260200191505b5098505050505050505050600060405180830381600087803b15801561148057600080fd5b505af1158015611494573d6000803e3d6000fd5b505050505b5050505050505050506114f8565b6040517f08c379a000000000000000000000000000000000000000000000000000000000815260040180806020018281038252602f815260200180612b82602f913960400191505060405180910390fd5b50505050505050565b600061152b82600160008681526020019081526020016000206000016123dc90919063ffffffff16565b905092915050565b600061155d82600160008681526020019081526020016000206000016123f690919063ffffffff16565b905092915050565b6000801b81565b600063bc197c8160e01b905098975050505050505050565b6040518080612be1602c9139602c019050604051809103902081565b600360009054906101000a900460ff1615611623576040517f08c379a000000000000000000000000000000000000000000000000000000000815260040180806020018281038252600e8152602001807f616c726561647920696e6974656400000000000000000000000000000000000081525060200191505060405180910390fd5b6116616040518060400160405280601981526020017f436861696e457869744552433131353550726564696361746500000000000000815250612426565b61166e6000801b826124d2565b6116ad60405180807f4d414e414745525f524f4c450000000000000000000000000000000000000000815250600c0190506040518091039020826124d2565b6001600360006101000a81548160ff02191690831515021790555050565b60006116eb600160008481526020019081526020016000206000016124e0565b9050919050565b6117196001600084815260200190815260200160002060020154611714611d90565b611533565b61176e576040517f08c379a0000000000000000000000000000000000000000000000000000000008152600401808060200182810382526030815260200180612bb16030913960400191505060405180910390fd5b6117788282611e2c565b5050565b60405180807f4d414e414745525f524f4c450000000000000000000000000000000000000000815250600c01905060405180910390206117c3816117be611d90565b611533565b600290611888576040517f08c379a000000000000000000000000000000000000000000000000000000000815260040180806020018281038252838181546001816001161561010002031660029004815260200191508054600181600116156101000203166002900480156118795780601f1061184e57610100808354040283529160200191611879565b820191906000526020600020905b81548152906001019060200180831161185c57829003601f168201915b50509250505060405180910390fd5b5060608060608585606081101561189e57600080fd5b81019080803590602001906401000000008111156118bb57600080fd5b8201836020820111156118cd57600080fd5b803590602001918460208302840111640100000000831117156118ef57600080fd5b919080806020026020016040519081016040528093929190818152602001838360200280828437600081840152601f19601f8201169050808301925050505050505091929192908035906020019064010000000081111561194f57600080fd5b82018360208201111561196157600080fd5b8035906020019184602083028401116401000000008311171561198357600080fd5b919080806020026020016040519081016040528093929190818152602001838360200280828437600081840152601f19601f820116905080830192505050505050509192919290803590602001906401000000008111156119e357600080fd5b8201836020820111156119f557600080fd5b80359060200191846001830284011164010000000083111715611a1757600080fd5b91908080601f016020809104026020016040519081016040528093929190818152602001838380828437600081840152601f19601f8201169050808301925050505050505091929192905050509250925092508673ffffffffffffffffffffffffffffffffffffffff168873ffffffffffffffffffffffffffffffffffffffff168a73ffffffffffffffffffffffffffffffffffffffff167fecf1f094c6a68f46c74b2e3aae719d6996bf2172e8bac7413a744748938da99e8686604051808060200180602001838103835285818151815260200191508051906020019060200280838360005b83811015611b19578082015181840152602081019050611afe565b50505050905001838103825284818151815260200191508051906020019060200280838360005b83811015611b5b578082015181840152602081019050611b40565b5050505090500194505050505060405180910390a48673ffffffffffffffffffffffffffffffffffffffff16632eb2c2d68a308686866040518663ffffffff1660e01b8152600401808673ffffffffffffffffffffffffffffffffffffffff1673ffffffffffffffffffffffffffffffffffffffff1681526020018573ffffffffffffffffffffffffffffffffffffffff1673ffffffffffffffffffffffffffffffffffffffff168152602001806020018060200180602001848103845287818151815260200191508051906020019060200280838360005b83811015611c4f578082015181840152602081019050611c34565b50505050905001848103835286818151815260200191508051906020019060200280838360005b83811015611c91578082015181840152602081019050611c76565b50505050905001848103825285818151815260200191508051906020019080838360005b83811015611cd0578082015181840152602081019050611cb5565b50505050905090810190601f168015611cfd5780820380516001836020036101000a031916815260200191505b5098505050505050505050600060405180830381600087803b158015611d2257600080fd5b505af1158015611d36573d6000803e3d6000fd5b50505050505050505050505050565b60405180807f4d414e414745525f524f4c450000000000000000000000000000000000000000815250600c019050604051809103902081565b60008060e01b90509695505050505050565b600033905090565b611dc081600160008581526020019081526020016000206000016124f590919063ffffffff16565b15611e2857611dcd611d90565b73ffffffffffffffffffffffffffffffffffffffff168173ffffffffffffffffffffffffffffffffffffffff16837f2f8788117e7eff1d82e926ec794901d17c78024a50270940304540a733656f0d60405160405180910390a45b5050565b611e54816001600085815260200190815260200160002060000161252590919063ffffffff16565b15611ebc57611e61611d90565b73ffffffffffffffffffffffffffffffffffffffff168173ffffffffffffffffffffffffffffffffffffffff16837ff6391f5c32d9c69d2a47ea670b442974b53935d1edc7fd64eb21e047a839171b60405160405180910390a45b5050565b611ec8612a0d565b600060208301905060405180604001604052808451815260200182815250915050919050565b6060611ef982612555565b611f0257600080fd5b6000611f0d836125a3565b905060608167ffffffffffffffff81118015611f2857600080fd5b50604051908082528060200260200182016040528015611f6257816020015b611f4f612a0d565b815260200190600190039081611f475790505b5090506000611f748560200151612614565b8560200151019050600080600090505b84811015611fd557611f958361269d565b9150604051806040016040528083815260200184815250848281518110611fb857fe5b602002602001018190525081830192508080600101915050611f84565b5082945050505050919050565b60606000826000015111611ff557600080fd5b60008061200184612755565b9150915060608167ffffffffffffffff8111801561201e57600080fd5b506040519080825280601f01601f1916602001820160405280156120515781602001600182028036833780820191505090505b509050600081602001905061206784828561278d565b81945050505050919050565b600080826000015111801561208d57506021826000015111155b61209657600080fd5b6000806120a284612755565b9150915060008251905060208210156120c257816020036101000a810490505b809350505050919050565b6060600073ffffffffffffffffffffffffffffffffffffffff168373ffffffffffffffffffffffffffffffffffffffff161415612155576040517f08c379a000000000000000000000000000000000000000000000000000000000815260040180806020018281038252602a815260200180612c43602a913960400191505060405180910390fd5b600082116121ae576040517f08c379a0000000000000000000000000000000000000000000000000000000008152600401808060200182810382526039815260200180612b1e6039913960400191505060405180910390fd5b60608267ffffffffffffffff811180156121c757600080fd5b506040519080825280602002602001820160405280156121f65781602001602082028036833780820191505090505b50905060008090505b8381101561225b578482828151811061221457fe5b602002602001019073ffffffffffffffffffffffffffffffffffffffff16908173ffffffffffffffffffffffffffffffffffffffff168152505080806001019150506121ff565b508091505092915050565b6060600080600085519050845181146122ca576040517f08c379a0000000000000000000000000000000000000000000000000000000008152600401808060200182810382526036815260200180612c0d6036913960400191505060405180910390fd5b60608167ffffffffffffffff811180156122e357600080fd5b506040519080825280602002602001820160405280156123125781602001602082028036833780820191505090505b50905060008060008090505b848110156123c75788818151811061233257fe5b60200260200101518a828151811061234657fe5b6020026020010151101561239a5789818151811061236057fe5b602002602001015189828151811061237457fe5b60200260200101510384828151811061238957fe5b602002602001018181525050600192505b60008a82815181106123a857fe5b6020026020010151146123ba57600191505b808060010191505061231e565b50828282965096509650505050509250925092565b60006123eb83600001836127fe565b60001c905092915050565b600061241e836000018373ffffffffffffffffffffffffffffffffffffffff1660001b612881565b905092915050565b806040516020018082805190602001908083835b6020831061245d578051825260208201915060208101905060208303925061243a565b6001836020036101000a038019825116818451168082178552505050505050905001807f3a20494e53554646494349454e545f5045524d495353494f4e53000000000000815250601a01915050604051602081830303815290604052600290805190602001906124ce929190612a27565b5050565b6124dc8282611d98565b5050565b60006124ee826000016128a4565b9050919050565b600061251d836000018373ffffffffffffffffffffffffffffffffffffffff1660001b6128b5565b905092915050565b600061254d836000018373ffffffffffffffffffffffffffffffffffffffff1660001b612925565b905092915050565b6000808260000151141561256c576000905061259e565b60008083602001519050805160001a915060c060ff168260ff1610156125975760009250505061259e565b6001925050505b919050565b600080826000015114156125ba576000905061260f565b600080905060006125ce8460200151612614565b84602001510190506000846000015185602001510190505b80821015612608576125f78261269d565b8201915082806001019350506125e6565b8293505050505b919050565b600080825160001a9050608060ff16811015612634576000915050612698565b60b860ff16811080612659575060c060ff168110158015612658575060f860ff1681105b5b15612668576001915050612698565b60c060ff168110156126885760018060b80360ff16820301915050612698565b60018060f80360ff168203019150505b919050565b6000806000835160001a9050608060ff168110156126be576001915061274b565b60b860ff168110156126db576001608060ff16820301915061274a565b60c060ff1681101561270b5760b78103600185019450806020036101000a85510460018201810193505050612749565b60f860ff1681101561272857600160c060ff168203019150612748565b60f78103600185019450806020036101000a855104600182018101935050505b5b5b5b8192505050919050565b60008060006127678460200151612614565b905060008185602001510190506000828660000151039050818194509450505050915091565b600081141561279b576127f9565b5b602060ff1681106127cb5782518252602060ff1683019250602060ff1682019150602060ff168103905061279c565b60008111156127f8576000600182602060ff16036101000a03905080198451168184511681811785525050505b5b505050565b60008183600001805490501161285f576040517f08c379a0000000000000000000000000000000000000000000000000000000008152600401808060200182810382526022815260200180612acd6022913960400191505060405180910390fd5b82600001828154811061286e57fe5b9060005260206000200154905092915050565b600080836001016000848152602001908152602001600020541415905092915050565b600081600001805490509050919050565b60006128c18383612881565b61291a57826000018290806001815401808255809150506001900390600052602060002001600090919091909150558260000180549050836001016000848152602001908152602001600020819055506001905061291f565b600090505b92915050565b60008083600101600084815260200190815260200160002054905060008114612a01576000600182039050600060018660000180549050039050600086600001828154811061297057fe5b906000526020600020015490508087600001848154811061298d57fe5b90600052602060002001819055506001830187600101600083815260200190815260200160002081905550866000018054806129c557fe5b60019003818190600052602060002001600090559055866001016000878152602001908152602001600020600090556001945050505050612a07565b60009150505b92915050565b604051806040016040528060008152602001600081525090565b828054600181600116156101000203166002900490600052602060002090601f016020900481019282601f10612a6857805160ff1916838001178555612a96565b82800160010185558215612a96579182015b82811115612a95578251825591602001919060010190612a7a565b5b509050612aa39190612aa7565b5090565b612ac991905b80821115612ac5576000816000905550600101612aad565b5090565b9056fe456e756d657261626c655365743a20696e646578206f7574206f6620626f756e6473416363657373436f6e74726f6c3a2073656e646572206d75737420626520616e2061646d696e20746f206772616e74436861696e45786974455243313135355072656469636174653a20496e76616c696420726573756c74696e67206172726179206c656e677468436861696e45786974455243313135355072656469636174653a20494e56414c49445f5245434549564552436861696e45786974455243313135355072656469636174653a20494e56414c49445f57495448445241575f534947416363657373436f6e74726f6c3a2073656e646572206d75737420626520616e2061646d696e20746f207265766f6b65436861696e4578697428616464726573732c75696e743235365b5d2c75696e743235365b5d2c627974657329436861696e45786974455243313135355072656469636174653a204172726179206c656e677468206d69736d6174636820666f756e64436861696e45786974455243313135355072656469636174653a20496e76616c69642061646472657373416363657373436f6e74726f6c3a2063616e206f6e6c792072656e6f756e636520726f6c657320666f722073656c66a264697066735822122014e285b2e749bdd3c6eca66dcee05ac374b75b262141646c9f389ca94ac6114164736f6c63430006060033",
  "linkReferences": {},
  "deployedLinkReferences": {}
}