{"abi":[{"type":"constructor","inputs":[{"name":"name_","type":"string","internalType":"string"},{"name":"symbol_","type":"string","internalType":"string"}],"stateMutability":"nonpayable"},{"type":"function","name":"ERC712_VERSION","inputs":[],"outputs":[{"name":"","type":"string","internalType":"string"}],"stateMutability":"view"},{"type":"function","name":"allowance","inputs":[{"name":"owner","type":"address","internalType":"address"},{"name":"spender","type":"address","internalType":"address"}],"outputs":[{"name":"","type":"uint256","internalType":"uint256"}],"stateMutability":"view"},{"type":"function","name":"approve","inputs":[{"name":"spender","type":"address","internalType":"address"},{"name":"amount","type":"uint256","internalType":"uint256"}],"outputs":[{"name":"","type":"bool","internalType":"bool"}],"stateMutability":"nonpayable"},{"type":"function","name":"balanceOf","inputs":[{"name":"account","type":"address","internalType":"address"}],"outputs":[{"name":"","type":"uint256","internalType":"uint256"}],"stateMutability":"view"},{"type":"function","name":"decimals","inputs":[],"outputs":[{"name":"","type":"uint8","internalType":"uint8"}],"stateMutability":"view"},{"type":"function","name":"decreaseAllowance","inputs":[{"name":"spender","type":"address","internalType":"address"},{"name":"subtractedValue","type":"uint256","internalType":"uint256"}],"outputs":[{"name":"","type":"bool","internalType":"bool"}],"stateMutability":"nonpayable"},{"type":"function","name":"executeMetaTransaction","inputs":[{"name":"userAddress","type":"address","internalType":"address"},{"name":"functionSignature","type":"bytes","internalType":"bytes"},{"name":"sigR","type":"bytes32","internalType":"bytes32"},{"name":"sigS","type":"bytes32","internalType":"bytes32"},{"name":"sigV","type":"uint8","internalType":"uint8"}],"outputs":[{"name":"","type":"bytes","internalType":"bytes"}],"stateMutability":"payable"},{"type":"function","name":"getChainId","inputs":[],"outputs":[{"name":"","type":"uint256","internalType":"uint256"}],"stateMutability":"pure"},{"type":"function","name":"getDomainSeperator","inputs":[],"outputs":[{"name":"","type":"bytes32","internalType":"bytes32"}],"stateMutability":"view"},{"type":"function","name":"getNonce","inputs":[{"name":"user","type":"address","internalType":"address"}],"outputs":[{"name":"nonce","type":"uint256","internalType":"uint256"}],"stateMutability":"view"},{"type":"function","name":"increaseAllowance","inputs":[{"name":"spender","type":"address","internalType":"address"},{"name":"addedValue","type":"uint256","internalType":"uint256"}],"outputs":[{"name":"","type":"bool","internalType":"bool"}],"stateMutability":"nonpayable"},{"type":"function","name":"mint","inputs":[{"name":"amount","type":"uint256","internalType":"uint256"}],"outputs":[],"stateMutability":"nonpayable"},{"type":"function","name":"name","inputs":[],"outputs":[{"name":"","type":"string","internalType":"string"}],"stateMutability":"view"},{"type":"function","name":"symbol","inputs":[],"outputs":[{"name":"","type":"string","internalType":"string"}],"stateMutability":"view"},{"type":"function","name":"totalSupply","inputs":[],"outputs":[{"name":"","type":"uint256","internalType":"uint256"}],"stateMutability":"view"},{"type":"function","name":"transfer","inputs":[{"name":"recipient","type":"address","internalType":"address"},{"name":"amount","type":"uint256","internalType":"uint256"}],"outputs":[{"name":"","type":"bool","internalType":"bool"}],"stateMutability":"nonpayable"},{"type":"function","name":"transferFrom","inputs":[{"name":"sender","type":"address","internalType":"address"},{"name":"recipient","type":"address","internalType":"address"},{"name":"amount","type":"uint256","internalType":"uint256"}],"outputs":[{"name":"","type":"bool","internalType":"bool"}],"stateMutability":"nonpayable"},{"type":"event","name":"Approval","inputs":[{"name":"owner","type":"address","indexed":true,"internalType":"address"},{"name":"spender","type":"address","indexed":true,"internalType":"address"},{"name":"value","type":"uint256","indexed":false,"internalType":"uint256"}],"anonymous":false},{"type":"event","name":"MetaTransactionExecuted","inputs":[{"name":"userAddress","type":"address","indexed":true,"internalType":"address"},{"name":"relayerAddress","type":"address","indexed":true,"internalType":"address payable"},{"name":"functionSignature","type":"bytes","indexed":false,"internalType":"bytes"}],"anonymous":false},{"type":"event","name":"Transfer","inputs":[{"name":"from","type":"address","indexed":true,"internalType":"address"},{"name":"to","type":"address","indexed":true,"internalType":"address"},{"name":"value","type":"uint256","indexed":false,"internalType":"uint256"}],"anonymous":false}],"bytecode":{"object":"0x60806040526005805461ff00191690553480156200001c57600080fd5b506040516200194438038062001944833981810160405260408110156200004257600080fd5b81019080805160405193929190846401000000008211156200006357600080fd5b9083019060208201858111156200007957600080fd5b82516401000000008111828201881017156200009457600080fd5b82525081516020918201929091019080838360005b83811015620000c3578181015183820152602001620000a9565b50505050905090810190601f168015620000f15780820380516001836020036101000a031916815260200191505b50604052602001805160405193929190846401000000008211156200011557600080fd5b9083019060208201858111156200012b57600080fd5b82516401000000008111828201881017156200014657600080fd5b82525081516020918201929091019080838360005b83811015620001755781810151838201526020016200015b565b50505050905090810190601f168015620001a35780820380516001836020036101000a031916815260200191505b50604052505082518391508290620001c390600390602085019062000576565b508051620001d990600490602084019062000576565b50506005805460ff19166012179055506b204fce5e3e250261100000006200021d6200020d6001600160e01b036200023a16565b826001600160e01b036200025716565b62000231836001600160e01b036200036f16565b50505062000618565b600062000251620003e460201b62000fa81760201c565b90505b90565b6001600160a01b038216620002b3576040805162461bcd60e51b815260206004820152601f60248201527f45524332303a206d696e7420746f20746865207a65726f206164647265737300604482015290519081900360640190fd5b620002ca600083836001600160e01b036200044316565b620002e6816002546200044860201b62000e4b1790919060201c565b6002556001600160a01b038216600090815260208181526040909120546200031991839062000e4b62000448821b17901c565b6001600160a01b0383166000818152602081815260408083209490945583518581529351929391927fddf252ad1be2c89b69c2b068fc378daa952ba7f163c4a11628f55a4df523b3ef9281900390910190a35050565b600554610100900460ff1615620003be576040805162461bcd60e51b815260206004820152600e60248201526d185b1c9958591e481a5b9a5d195960921b604482015290519081900360640190fd5b620003d2816001600160e01b03620004aa16565b506005805461ff001916610100179055565b6000333014156200043e5760606000368080601f0160208091040260200160405190810160405280939291908181526020018383808284376000920191909152505050503601516001600160a01b03169150620002549050565b503390565b505050565b600082820183811015620004a3576040805162461bcd60e51b815260206004820152601b60248201527f536166654d6174683a206164646974696f6e206f766572666c6f770000000000604482015290519081900360640190fd5b9392505050565b6040518060800160405280604f8152602001620018f5604f913980516020918201208251838301206040805180820190915260018152603160f81b930192909252907fc89efdaa54c0f20c7adf612882df0950f5a951637e0307cdcb4c672f298b8bc630620005216001600160e01b036200057216565b604080516020808201979097528082019590955260608501939093526001600160a01b03909116608084015260a0808401919091528151808403909101815260c09092019052805191012060065550565b4690565b828054600181600116156101000203166002900490600052602060002090601f016020900481019282601f10620005b957805160ff1916838001178555620005e9565b82800160010185558215620005e9579182015b82811115620005e9578251825591602001919060010190620005cc565b50620005f7929150620005fb565b5090565b6200025491905b80821115620005f7576000815560010162000602565b6112cd80620006286000396000f3fe6080604052600436106100fe5760003560e01c8063313ce5671161009557806395d89b411161006457806395d89b41146103dc578063a0712d68146103f1578063a457c2d71461041d578063a9059cbb14610456578063dd62ed3e1461048f576100fe565b8063313ce567146103305780633408e4701461035b578063395093511461037057806370a08231146103a9576100fe565b806318160ddd116100d157806318160ddd1461027e57806320379ee5146102a557806323b872dd146102ba5780632d0335ab146102fd576100fe565b806306fdde0314610103578063095ea7b31461018d5780630c53c51c146101da5780630f7e597014610269575b600080fd5b34801561010f57600080fd5b506101186104ca565b6040805160208082528351818301528351919283929083019185019080838360005b8381101561015257818101518382015260200161013a565b50505050905090810190601f16801561017f5780820380516001836020036101000a031916815260200191505b509250505060405180910390f35b34801561019957600080fd5b506101c6600480360360408110156101b057600080fd5b506001600160a01b038135169060200135610560565b604080519115158252519081900360200190f35b610118600480360360a08110156101f057600080fd5b6001600160a01b03823516919081019060408101602082013564010000000081111561021b57600080fd5b82018360208201111561022d57600080fd5b8035906020019184600183028401116401000000008311171561024f57600080fd5b91935091508035906020810135906040013560ff1661057d565b34801561027557600080fd5b50610118610806565b34801561028a57600080fd5b50610293610823565b60408051918252519081900360200190f35b3480156102b157600080fd5b50610293610829565b3480156102c657600080fd5b506101c6600480360360608110156102dd57600080fd5b506001600160a01b0381358116916020810135909116906040013561082f565b34801561030957600080fd5b506102936004803603602081101561032057600080fd5b50356001600160a01b03166108bc565b34801561033c57600080fd5b506103456108d7565b6040805160ff9092168252519081900360200190f35b34801561036757600080fd5b506102936108e0565b34801561037c57600080fd5b506101c66004803603604081101561039357600080fd5b506001600160a01b0381351690602001356108e4565b3480156103b557600080fd5b50610293600480360360208110156103cc57600080fd5b50356001600160a01b0316610938565b3480156103e857600080fd5b50610118610953565b3480156103fd57600080fd5b5061041b6004803603602081101561041457600080fd5b50356109b4565b005b34801561042957600080fd5b506101c66004803603604081101561044057600080fd5b506001600160a01b0381351690602001356109c8565b34801561046257600080fd5b506101c66004803603604081101561047957600080fd5b506001600160a01b038135169060200135610a36565b34801561049b57600080fd5b50610293600480360360408110156104b257600080fd5b506001600160a01b0381358116916020013516610a4a565b60038054604080516020601f60026000196101006001881615020190951694909404938401819004810282018101909252828152606093909290918301828280156105565780601f1061052b57610100808354040283529160200191610556565b820191906000526020600020905b81548152906001019060200180831161053957829003601f168201915b5050505050905090565b600061057461056d610a75565b8484610a84565b50600192915050565b60606105876110e3565b604080516060810182526001600160a01b038a1660008181526007602090815290849020548352808301919091528251601f8a0182900482028101820184528981529192830191908a908a9081908401838280828437600092019190915250505091525090506105fa8882878787610b70565b6106355760405162461bcd60e51b81526004018080602001828103825260218152602001806112096021913960400191505060405180910390fd5b6001600160a01b0388166000818152600760209081526040918290208054600101905581518181529081018990523392917f5845892132946850460bff5a0083f71031bc5bf9aadcd40f1de79423eac9b10b918b918b919081908101848480828437600083820152604051601f909101601f19169092018290039550909350505050a360006060306001600160a01b031689898c6040516020018084848082843780830192505050826001600160a01b03166001600160a01b031660601b815260140193505050506040516020818303038152906040526040518082805190602001908083835b6020831061073b5780518252601f19909201916020918201910161071c565b6001836020036101000a0380198251168184511680821785525050505050509050019150506000604051808303816000865af19150503d806000811461079d576040519150601f19603f3d011682016040523d82523d6000602084013e6107a2565b606091505b5091509150816107f9576040805162461bcd60e51b815260206004820152601c60248201527f46756e6374696f6e2063616c6c206e6f74207375636365737366756c00000000604482015290519081900360640190fd5b9998505050505050505050565b604051806040016040528060018152602001603160f81b81525081565b60025490565b60065490565b600061083c848484610c4d565b6108b284610848610a75565b6108ad856040518060600160405280602881526020016111e1602891396001600160a01b038a16600090815260016020526040812090610886610a75565b6001600160a01b03168152602081019190915260400160002054919063ffffffff610db416565b610a84565b5060019392505050565b6001600160a01b031660009081526007602052604090205490565b60055460ff1690565b4690565b60006105746108f1610a75565b846108ad8560016000610902610a75565b6001600160a01b03908116825260208083019390935260409182016000908120918c16815292529020549063ffffffff610e4b16565b6001600160a01b031660009081526020819052604090205490565b60048054604080516020601f60026000196101006001881615020190951694909404938401819004810282018101909252828152606093909290918301828280156105565780601f1061052b57610100808354040283529160200191610556565b6109c56109bf610a75565b82610eac565b50565b60006105746109d5610a75565b846108ad8560405180606001604052806025815260200161127360259139600160006109ff610a75565b6001600160a01b03908116825260208083019390935260409182016000908120918d1681529252902054919063ffffffff610db416565b6000610574610a43610a75565b8484610c4d565b6001600160a01b03918216600090815260016020908152604080832093909416825291909152205490565b6000610a7f610fa8565b905090565b6001600160a01b038316610ac95760405162461bcd60e51b815260040180806020018281038252602481526020018061124f6024913960400191505060405180910390fd5b6001600160a01b038216610b0e5760405162461bcd60e51b81526004018080602001828103825260228152602001806111746022913960400191505060405180910390fd5b6001600160a01b03808416600081815260016020908152604080832094871680845294825291829020859055815185815291517f8c5be1e5ebec7d5bd14f71427d1e84f3dd0314c0f7b2291e5b200ac8c7c3b9259281900390910190a3505050565b60006001600160a01b038616610bb75760405162461bcd60e51b81526004018080602001828103825260258152602001806111bc6025913960400191505060405180910390fd5b6001610bca610bc587611006565b611092565b83868660405160008152602001604052604051808581526020018460ff1660ff1681526020018381526020018281526020019450505050506020604051602081039080840390855afa158015610c24573d6000803e3d6000fd5b505050602060405103516001600160a01b0316866001600160a01b031614905095945050505050565b6001600160a01b038316610c925760405162461bcd60e51b815260040180806020018281038252602581526020018061122a6025913960400191505060405180910390fd5b6001600160a01b038216610cd75760405162461bcd60e51b815260040180806020018281038252602381526020018061110e6023913960400191505060405180910390fd5b610ce28383836110de565b610d2581604051806060016040528060268152602001611196602691396001600160a01b038616600090815260208190526040902054919063ffffffff610db416565b6001600160a01b038085166000908152602081905260408082209390935590841681522054610d5a908263ffffffff610e4b16565b6001600160a01b038084166000818152602081815260409182902094909455805185815290519193928716927fddf252ad1be2c89b69c2b068fc378daa952ba7f163c4a11628f55a4df523b3ef92918290030190a3505050565b60008184841115610e435760405162461bcd60e51b81526004018080602001828103825283818151815260200191508051906020019080838360005b83811015610e08578181015183820152602001610df0565b50505050905090810190601f168015610e355780820380516001836020036101000a031916815260200191505b509250505060405180910390fd5b505050900390565b600082820183811015610ea5576040805162461bcd60e51b815260206004820152601b60248201527f536166654d6174683a206164646974696f6e206f766572666c6f770000000000604482015290519081900360640190fd5b9392505050565b6001600160a01b038216610f07576040805162461bcd60e51b815260206004820152601f60248201527f45524332303a206d696e7420746f20746865207a65726f206164647265737300604482015290519081900360640190fd5b610f13600083836110de565b600254610f26908263ffffffff610e4b16565b6002556001600160a01b038216600090815260208190526040902054610f52908263ffffffff610e4b16565b6001600160a01b0383166000818152602081815260408083209490945583518581529351929391927fddf252ad1be2c89b69c2b068fc378daa952ba7f163c4a11628f55a4df523b3ef9281900390910190a35050565b6000333014156110005760606000368080601f0160208091040260200160405190810160405280939291908181526020018383808284376000920191909152505050503601516001600160a01b031691506110039050565b50335b90565b600060405180608001604052806043815260200161113160439139805190602001208260000151836020015184604001518051906020012060405160200180858152602001848152602001836001600160a01b03166001600160a01b03168152602001828152602001945050505050604051602081830303815290604052805190602001209050919050565b600061109c610829565b82604051602001808061190160f01b81525060020183815260200182815260200192505050604051602081830303815290604052805190602001209050919050565b505050565b60405180606001604052806000815260200160006001600160a01b0316815260200160608152509056fe45524332303a207472616e7366657220746f20746865207a65726f20616464726573734d6574615472616e73616374696f6e2875696e74323536206e6f6e63652c616464726573732066726f6d2c62797465732066756e6374696f6e5369676e61747572652945524332303a20617070726f766520746f20746865207a65726f206164647265737345524332303a207472616e7366657220616d6f756e7420657863656564732062616c616e63654e61746976654d6574615472616e73616374696f6e3a20494e56414c49445f5349474e455245524332303a207472616e7366657220616d6f756e74206578636565647320616c6c6f77616e63655369676e657220616e64207369676e617475726520646f206e6f74206d6174636845524332303a207472616e736665722066726f6d20746865207a65726f206164647265737345524332303a20617070726f76652066726f6d20746865207a65726f206164647265737345524332303a2064656372656173656420616c6c6f77616e63652062656c6f77207a65726fa2646970667358221220c0c5b40c3da0bf0e9497114c9cd11cf9a5c6ed4b1e9c9881fc1bdaca338bea5164736f6c63430006060033454950373132446f6d61696e28737472696e67206e616d652c737472696e672076657273696f6e2c6164647265737320766572696679696e67436f6e74726163742c627974657333322073616c7429","linkReferences":{}},"methodIdentifiers":{"ERC712_VERSION()":"0f7e5970","allowance(address,address)":"dd62ed3e","approve(address,uint256)":"095ea7b3","balanceOf(address)":"70a08231","decimals()":"313ce567","decreaseAllowance(address,uint256)":"a457c2d7","executeMetaTransaction(address,bytes,bytes32,bytes32,uint8)":"0c53c51c","getChainId()":"3408e470","getDomainSeperator()":"20379ee5","getNonce(address)":"2d0335ab","increaseAllowance(address,uint256)":"39509351","mint(uint256)":"a0712d68","name()":"06fdde03","symbol()":"95d89b41","totalSupply()":"18160ddd","transfer(address,uint256)":"a9059cbb","transferFrom(address,address,uint256)":"23b872dd"},"id":37}