{
  "_format": "hh-sol-artifact-1",
  "contractName": "ChildMintableERC721",
  "sourceName": "contracts/child/ChildToken/ChildMintableERC721.sol",
  "abi": [
    {
      "inputs": [
        {
          "internalType": "string",
          "name": "name_",
          "type": "string"
        },
        {
          "internalType": "string",
          "name": "symbol_",
          "type": "string"
        },
        {
          "internalType": "address",
          "name": "childChainManager",
          "type": "address"
        }
      ],
      "stateMutability": "nonpayable",
      "type": "constructor"
    },
    {
      "anonymous": false,
      "inputs": [
        {
          "indexed": true,
          "internalType": "address",
          "name": "owner",
          "type": "address"
        },
        {
          "indexed": true,
          "internalType": "address",
          "name": "approved",
          "type": "address"
        },
        {
          "indexed": true,
          "internalType": "uint256",
          "name": "tokenId",
          "type": "uint256"
        }
      ],
      "name": "Approval",
      "type": "event"
    },
    {
      "anonymous": false,
      "inputs": [
        {
          "indexed": true,
          "internalType": "address",
          "name": "owner",
          "type": "address"
        },
        {
          "indexed": true,
          "internalType": "address",
          "name": "operator",
          "type": "address"
        },
        {
          "indexed": false,
          "internalType": "bool",
          "name": "approved",
          "type": "bool"
        }
      ],
      "name": "ApprovalForAll",
      "type": "event"
    },
    {
      "anonymous": false,
      "inputs": [
        {
          "indexed": false,
          "internalType": "address",
          "name": "userAddress",
          "type": "address"
        },
        {
          "indexed": false,
          "internalType": "address payable",
          "name": "relayerAddress",
          "type": "address"
        },
        {
          "indexed": false,
          "internalType": "bytes",
          "name": "functionSignature",
          "type": "bytes"
        }
      ],
      "name": "MetaTransactionExecuted",
      "type": "event"
    },
    {
      "anonymous": false,
      "inputs": [
        {
          "indexed": true,
          "internalType": "bytes32",
          "name": "role",
          "type": "bytes32"
        },
        {
          "indexed": true,
          "internalType": "bytes32",
          "name": "previousAdminRole",
          "type": "bytes32"
        },
        {
          "indexed": true,
          "internalType": "bytes32",
          "name": "newAdminRole",
          "type": "bytes32"
        }
      ],
      "name": "RoleAdminChanged",
      "type": "event"
    },
    {
      "anonymous": false,
      "inputs": [
        {
          "indexed": true,
          "internalType": "bytes32",
          "name": "role",
          "type": "bytes32"
        },
        {
          "indexed": true,
          "internalType": "address",
          "name": "account",
          "type": "address"
        },
        {
          "indexed": true,
          "internalType": "address",
          "name": "sender",
          "type": "address"
        }
      ],
      "name": "RoleGranted",
      "type": "event"
    },
    {
      "anonymous": false,
      "inputs": [
        {
          "indexed": true,
          "internalType": "bytes32",
          "name": "role",
          "type": "bytes32"
        },
        {
          "indexed": true,
          "internalType": "address",
          "name": "account",
          "type": "address"
        },
        {
          "indexed": true,
          "internalType": "address",
          "name": "sender",
          "type": "address"
        }
      ],
      "name": "RoleRevoked",
      "type": "event"
    },
    {
      "anonymous": false,
      "inputs": [
        {
          "indexed": true,
          "internalType": "address",
          "name": "from",
          "type": "address"
        },
        {
          "indexed": true,
          "internalType": "address",
          "name": "to",
          "type": "address"
        },
        {
          "indexed": true,
          "internalType": "uint256",
          "name": "tokenId",
          "type": "uint256"
        }
      ],
      "name": "Transfer",
      "type": "event"
    },
    {
      "anonymous": false,
      "inputs": [
        {
          "indexed": true,
          "internalType": "address",
          "name": "from",
          "type": "address"
        },
        {
          "indexed": true,
          "internalType": "address",
          "name": "to",
          "type": "address"
        },
        {
          "indexed": true,
          "internalType": "uint256",
          "name": "tokenId",
          "type": "uint256"
        },
        {
          "indexed": false,
          "internalType": "bytes",
          "name": "metaData",
          "type": "bytes"
        }
      ],
      "name": "TransferWithMetadata",
      "type": "event"
    },
    {
      "anonymous": false,
      "inputs": [
        {
          "indexed": true,
          "internalType": "address",
          "name": "user",
          "type": "address"
        },
        {
          "indexed": false,
          "internalType": "uint256[]",
          "name": "tokenIds",
          "type": "uint256[]"
        }
      ],
      "name": "WithdrawnBatch",
      "type": "event"
    },
    {
      "inputs": [],
      "name": "BATCH_LIMIT",
      "outputs": [
        {
          "internalType": "uint256",
          "name": "",
          "type": "uint256"
        }
      ],
      "stateMutability": "view",
      "type": "function"
    },
    {
      "inputs": [],
      "name": "DEFAULT_ADMIN_ROLE",
      "outputs": [
        {
          "internalType": "bytes32",
          "name": "",
          "type": "bytes32"
        }
      ],
      "stateMutability": "view",
      "type": "function"
    },
    {
      "inputs": [],
      "name": "DEPOSITOR_ROLE",
      "outputs": [
        {
          "internalType": "bytes32",
          "name": "",
          "type": "bytes32"
        }
      ],
      "stateMutability": "view",
      "type": "function"
    },
    {
      "inputs": [],
      "name": "ERC712_VERSION",
      "outputs": [
        {
          "internalType": "string",
          "name": "",
          "type": "string"
        }
      ],
      "stateMutability": "view",
      "type": "function"
    },
    {
      "inputs": [
        {
          "internalType": "address",
          "name": "to",
          "type": "address"
        },
        {
          "internalType": "uint256",
          "name": "tokenId",
          "type": "uint256"
        }
      ],
      "name": "approve",
      "outputs": [],
      "stateMutability": "nonpayable",
      "type": "function"
    },
    {
      "inputs": [
        {
          "internalType": "address",
          "name": "owner",
          "type": "address"
        }
      ],
      "name": "balanceOf",
      "outputs": [
        {
          "internalType": "uint256",
          "name": "",
          "type": "uint256"
        }
      ],
      "stateMutability": "view",
      "type": "function"
    },
    {
      "inputs": [],
      "name": "baseURI",
      "outputs": [
        {
          "internalType": "string",
          "name": "",
          "type": "string"
        }
      ],
      "stateMutability": "view",
      "type": "function"
    },
    {
      "inputs": [
        {
          "internalType": "address",
          "name": "user",
          "type": "address"
        },
        {
          "internalType": "bytes",
          "name": "depositData",
          "type": "bytes"
        }
      ],
      "name": "deposit",
      "outputs": [],
      "stateMutability": "nonpayable",
      "type": "function"
    },
    {
      "inputs": [
        {
          "internalType": "uint256",
          "name": "tokenId",
          "type": "uint256"
        }
      ],
      "name": "encodeTokenMetadata",
      "outputs": [
        {
          "internalType": "bytes",
          "name": "",
          "type": "bytes"
        }
      ],
      "stateMutability": "view",
      "type": "function"
    },
    {
      "inputs": [
        {
          "internalType": "address",
          "name": "userAddress",
          "type": "address"
        },
        {
          "internalType": "bytes",
          "name": "functionSignature",
          "type": "bytes"
        },
        {
          "internalType": "bytes32",
          "name": "sigR",
          "type": "bytes32"
        },
        {
          "internalType": "bytes32",
          "name": "sigS",
          "type": "bytes32"
        },
        {
          "internalType": "uint8",
          "name": "sigV",
          "type": "uint8"
        }
      ],
      "name": "executeMetaTransaction",
      "outputs": [
        {
          "internalType": "bytes",
          "name": "",
          "type": "bytes"
        }
      ],
      "stateMutability": "payable",
      "type": "function"
    },
    {
      "inputs": [
        {
          "internalType": "uint256",
          "name": "tokenId",
          "type": "uint256"
        }
      ],
      "name": "getApproved",
      "outputs": [
        {
          "internalType": "address",
          "name": "",
          "type": "address"
        }
      ],
      "stateMutability": "view",
      "type": "function"
    },
    {
      "inputs": [],
      "name": "getChainId",
      "outputs": [
        {
          "internalType": "uint256",
          "name": "",
          "type": "uint256"
        }
      ],
      "stateMutability": "pure",
      "type": "function"
    },
    {
      "inputs": [],
      "name": "getDomainSeperator",
      "outputs": [
        {
          "internalType": "bytes32",
          "name": "",
          "type": "bytes32"
        }
      ],
      "stateMutability": "view",
      "type": "function"
    },
    {
      "inputs": [
        {
          "internalType": "address",
          "name": "user",
          "type": "address"
        }
      ],
      "name": "getNonce",
      "outputs": [
        {
          "internalType": "uint256",
          "name": "nonce",
          "type": "uint256"
        }
      ],
      "stateMutability": "view",
      "type": "function"
    },
    {
      "inputs": [
        {
          "internalType": "bytes32",
          "name": "role",
          "type": "bytes32"
        }
      ],
      "name": "getRoleAdmin",
      "outputs": [
        {
          "internalType": "bytes32",
          "name": "",
          "type": "bytes32"
        }
      ],
      "stateMutability": "view",
      "type": "function"
    },
    {
      "inputs": [
        {
          "internalType": "bytes32",
          "name": "role",
          "type": "bytes32"
        },
        {
          "internalType": "uint256",
          "name": "index",
          "type": "uint256"
        }
      ],
      "name": "getRoleMember",
      "outputs": [
        {
          "internalType": "address",
          "name": "",
          "type": "address"
        }
      ],
      "stateMutability": "view",
      "type": "function"
    },
    {
      "inputs": [
        {
          "internalType": "bytes32",
          "name": "role",
          "type": "bytes32"
        }
      ],
      "name": "getRoleMemberCount",
      "outputs": [
        {
          "internalType": "uint256",
          "name": "",
          "type": "uint256"
        }
      ],
      "stateMutability": "view",
      "type": "function"
    },
    {
      "inputs": [
        {
          "internalType": "bytes32",
          "name": "role",
          "type": "bytes32"
        },
        {
          "internalType": "address",
          "name": "account",
          "type": "address"
        }
      ],
      "name": "grantRole",
      "outputs": [],
      "stateMutability": "nonpayable",
      "type": "function"
    },
    {
      "inputs": [
        {
          "internalType": "bytes32",
          "name": "role",
          "type": "bytes32"
        },
        {
          "internalType": "address",
          "name": "account",
          "type": "address"
        }
      ],
      "name": "hasRole",
      "outputs": [
        {
          "internalType": "bool",
          "name": "",
          "type": "bool"
        }
      ],
      "stateMutability": "view",
      "type": "function"
    },
    {
      "inputs": [
        {
          "internalType": "address",
          "name": "owner",
          "type": "address"
        },
        {
          "internalType": "address",
          "name": "operator",
          "type": "address"
        }
      ],
      "name": "isApprovedForAll",
      "outputs": [
        {
          "internalType": "bool",
          "name": "",
          "type": "bool"
        }
      ],
      "stateMutability": "view",
      "type": "function"
    },
    {
      "inputs": [
        {
          "internalType": "address",
          "name": "user",
          "type": "address"
        },
        {
          "internalType": "uint256",
          "name": "tokenId",
          "type": "uint256"
        }
      ],
      "name": "mint",
      "outputs": [],
      "stateMutability": "nonpayable",
      "type": "function"
    },
    {
      "inputs": [],
      "name": "name",
      "outputs": [
        {
          "internalType": "string",
          "name": "",
          "type": "string"
        }
      ],
      "stateMutability": "view",
      "type": "function"
    },
    {
      "inputs": [
        {
          "internalType": "uint256",
          "name": "tokenId",
          "type": "uint256"
        }
      ],
      "name": "ownerOf",
      "outputs": [
        {
          "internalType": "address",
          "name": "",
          "type": "address"
        }
      ],
      "stateMutability": "view",
      "type": "function"
    },
    {
      "inputs": [
        {
          "internalType": "bytes32",
          "name": "role",
          "type": "bytes32"
        },
        {
          "internalType": "address",
          "name": "account",
          "type": "address"
        }
      ],
      "name": "renounceRole",
      "outputs": [],
      "stateMutability": "nonpayable",
      "type": "function"
    },
    {
      "inputs": [
        {
          "internalType": "bytes32",
          "name": "role",
          "type": "bytes32"
        },
        {
          "internalType": "address",
          "name": "account",
          "type": "address"
        }
      ],
      "name": "revokeRole",
      "outputs": [],
      "stateMutability": "nonpayable",
      "type": "function"
    },
    {
      "inputs": [
        {
          "internalType": "address",
          "name": "from",
          "type": "address"
        },
        {
          "internalType": "address",
          "name": "to",
          "type": "address"
        },
        {
          "internalType": "uint256",
          "name": "tokenId",
          "type": "uint256"
        }
      ],
      "name": "safeTransferFrom",
      "outputs": [],
      "stateMutability": "nonpayable",
      "type": "function"
    },
    {
      "inputs": [
        {
          "internalType": "address",
          "name": "from",
          "type": "address"
        },
        {
          "internalType": "address",
          "name": "to",
          "type": "address"
        },
        {
          "internalType": "uint256",
          "name": "tokenId",
          "type": "uint256"
        },
        {
          "internalType": "bytes",
          "name": "_data",
          "type": "bytes"
        }
      ],
      "name": "safeTransferFrom",
      "outputs": [],
      "stateMutability": "nonpayable",
      "type": "function"
    },
    {
      "inputs": [
        {
          "internalType": "address",
          "name": "operator",
          "type": "address"
        },
        {
          "internalType": "bool",
          "name": "approved",
          "type": "bool"
        }
      ],
      "name": "setApprovalForAll",
      "outputs": [],
      "stateMutability": "nonpayable",
      "type": "function"
    },
    {
      "inputs": [
        {
          "internalType": "bytes4",
          "name": "interfaceId",
          "type": "bytes4"
        }
      ],
      "name": "supportsInterface",
      "outputs": [
        {
          "internalType": "bool",
          "name": "",
          "type": "bool"
        }
      ],
      "stateMutability": "view",
      "type": "function"
    },
    {
      "inputs": [],
      "name": "symbol",
      "outputs": [
        {
          "internalType": "string",
          "name": "",
          "type": "string"
        }
      ],
      "stateMutability": "view",
      "type": "function"
    },
    {
      "inputs": [
        {
          "internalType": "uint256",
          "name": "index",
          "type": "uint256"
        }
      ],
      "name": "tokenByIndex",
      "outputs": [
        {
          "internalType": "uint256",
          "name": "",
          "type": "uint256"
        }
      ],
      "stateMutability": "view",
      "type": "function"
    },
    {
      "inputs": [
        {
          "internalType": "address",
          "name": "owner",
          "type": "address"
        },
        {
          "internalType": "uint256",
          "name": "index",
          "type": "uint256"
        }
      ],
      "name": "tokenOfOwnerByIndex",
      "outputs": [
        {
          "internalType": "uint256",
          "name": "",
          "type": "uint256"
        }
      ],
      "stateMutability": "view",
      "type": "function"
    },
    {
      "inputs": [
        {
          "internalType": "uint256",
          "name": "tokenId",
          "type": "uint256"
        }
      ],
      "name": "tokenURI",
      "outputs": [
        {
          "internalType": "string",
          "name": "",
          "type": "string"
        }
      ],
      "stateMutability": "view",
      "type": "function"
    },
    {
      "inputs": [],
      "name": "totalSupply",
      "outputs": [
        {
          "internalType": "uint256",
          "name": "",
          "type": "uint256"
        }
      ],
      "stateMutability": "view",
      "type": "function"
    },
    {
      "inputs": [
        {
          "internalType": "address",
          "name": "from",
          "type": "address"
        },
        {
          "internalType": "address",
          "name": "to",
          "type": "address"
        },
        {
          "internalType": "uint256",
          "name": "tokenId",
          "type": "uint256"
        }
      ],
      "name": "transferFrom",
      "outputs": [],
      "stateMutability": "nonpayable",
      "type": "function"
    },
    {
      "inputs": [
        {
          "internalType": "uint256",
          "name": "tokenId",
          "type": "uint256"
        }
      ],
      "name": "withdraw",
      "outputs": [],
      "stateMutability": "nonpayable",
      "type": "function"
    },
    {
      "inputs": [
        {
          "internalType": "uint256[]",
          "name": "tokenIds",
          "type": "uint256[]"
        }
      ],
      "name": "withdrawBatch",
      "outputs": [],
      "stateMutability": "nonpayable",
      "type": "function"
    },
    {
      "inputs": [
        {
          "internalType": "uint256",
          "name": "tokenId",
          "type": "uint256"
        }
      ],
      "name": "withdrawWithMetadata",
      "outputs": [],
      "stateMutability": "nonpayable",
      "type": "function"
    },
    {
      "inputs": [
        {
          "internalType": "uint256",
          "name": "",
          "type": "uint256"
        }
      ],
      "name": "withdrawnTokens",
      "outputs": [
        {
          "internalType": "bool",
          "name": "",
          "type": "bool"
        }
      ],
      "stateMutability": "view",
      "type": "function"
    }
  ],
  "bytecode": "0x60806040526000600c60006101000a81548160ff0219169083151502179055503480156200002c57600080fd5b5060405162005b2338038062005b23833981810160405260608110156200005257600080fd5b81019080805160405193929190846401000000008211156200007357600080fd5b838201915060208201858111156200008a57600080fd5b8251866001820283011164010000000082111715620000a857600080fd5b8083526020830192505050908051906020019080838360005b83811015620000de578082015181840152602081019050620000c1565b50505050905090810190601f1680156200010c5780820380516001836020036101000a031916815260200191505b50604052602001805160405193929190846401000000008211156200013057600080fd5b838201915060208201858111156200014757600080fd5b82518660018202830111640100000000821117156200016557600080fd5b8083526020830192505050908051906020019080838360005b838110156200019b5780820151818401526020810190506200017e565b50505050905090810190601f168015620001c95780820380516001836020036101000a031916815260200191505b50604052602001805190602001909291905050508282620001f76301ffc9a760e01b6200033e60201b60201c565b81600690805190602001906200020f9291906200090a565b508060079080519060200190620002289291906200090a565b50620002416380ac58cd60e01b6200033e60201b60201c565b62000259635b5e139f60e01b6200033e60201b60201c565b6200027163780e9d6360e01b6200033e60201b60201c565b5050620002b96040518060400160405280601381526020017f4368696c644d696e7461626c65455243373231000000000000000000000000008152506200044760201b60201c565b620002dd6000801b620002d1620004f760201b60201c565b6200051360201b60201c565b6200032460405180807f4445504f5349544f525f524f4c45000000000000000000000000000000000000815250600e0190506040518091039020826200051360201b60201c565b62000335836200052960201b60201c565b505050620009b9565b63ffffffff60e01b817bffffffffffffffffffffffffffffffffffffffffffffffffffffffff19161415620003db576040517f08c379a000000000000000000000000000000000000000000000000000000000815260040180806020018281038252601c8152602001807f4552433136353a20696e76616c696420696e746572666163652069640000000081525060200191505060405180910390fd5b6001600080837bffffffffffffffffffffffffffffffffffffffffffffffffffffffff19167bffffffffffffffffffffffffffffffffffffffffffffffffffffffff1916815260200190815260200160002060006101000a81548160ff02191690831515021790555050565b806040516020018082805190602001908083835b602083106200048057805182526020820191506020810190506020830392506200045b565b6001836020036101000a038019825116818451168082178552505050505050905001807f3a20494e53554646494349454e545f5045524d495353494f4e53000000000000815250601a01915050604051602081830303815290604052600b9080519060200190620004f39291906200090a565b5050565b60006200050e620005dc60201b62003ecf1760201c565b905090565b6200052582826200069360201b60201c565b5050565b600c60009054906101000a900460ff1615620005ad576040517f08c379a000000000000000000000000000000000000000000000000000000000815260040180806020018281038252600e8152602001807f616c726561647920696e6974656400000000000000000000000000000000000081525060200191505060405180910390fd5b620005be816200073760201b60201c565b6001600c60006101000a81548160ff02191690831515021790555050565b60003073ffffffffffffffffffffffffffffffffffffffff163373ffffffffffffffffffffffffffffffffffffffff161415620006895760606000368080601f016020809104026020016040519081016040528093929190818152602001838380828437600081840152601f19601f820116905080830192505050505050509050600080369050905073ffffffffffffffffffffffffffffffffffffffff8183015116925050506200068d565b3390505b80905090565b620006c281600a60008581526020019081526020016000206000016200082860201b6200412a1790919060201c565b156200073357620006d8620004f760201b60201c565b73ffffffffffffffffffffffffffffffffffffffff168173ffffffffffffffffffffffffffffffffffffffff16837f2f8788117e7eff1d82e926ec794901d17c78024a50270940304540a733656f0d60405160405180910390a45b5050565b6040518060800160405280604f815260200162005ad4604f91398051906020012081805190602001206040518060400160405280600181526020017f31000000000000000000000000000000000000000000000000000000000000008152508051906020012030620007ae6200086060201b60201c565b60001b604051602001808681526020018581526020018481526020018373ffffffffffffffffffffffffffffffffffffffff1673ffffffffffffffffffffffffffffffffffffffff1681526020018281526020019550505050505060405160208183030381529060405280519060200120600d8190555050565b600062000858836000018373ffffffffffffffffffffffffffffffffffffffff1660001b6200086d60201b60201c565b905092915050565b6000804690508091505090565b6000620008818383620008e760201b60201c565b620008dc578260000182908060018154018082558091505060019003906000526020600020016000909190919091505582600001805490508360010160008481526020019081526020016000208190555060019050620008e1565b600090505b92915050565b600080836001016000848152602001908152602001600020541415905092915050565b828054600181600116156101000203166002900490600052602060002090601f016020900481019282601f106200094d57805160ff19168380011785556200097e565b828001600101855582156200097e579182015b828111156200097d57825182559160200191906001019062000960565b5b5090506200098d919062000991565b5090565b620009b691905b80821115620009b257600081600090555060010162000998565b5090565b90565b61510b80620009c96000396000f3fe6080604052600436106102305760003560e01c806342842e0e1161012e578063a217fddf116100ab578063c87b56dd1161006f578063c87b56dd146110f7578063ca15c873146111ab578063cf2c52cb146111fa578063d547741f146112a0578063e985e9c5146112fb57610230565b8063a217fddf14610ef7578063a22cb46514610f22578063a3b0b5a314610f7f578063a5e584dc14610faa578063b88d4fde14610fe557610230565b80639010d07c116100f25780639010d07c14610cbe57806391d1485414610d435780639559c0bd14610db657806395d89b4114610de15780639c8d415614610e7157610230565b806342842e0e14610a845780634f6ccce714610aff5780636352211e14610b4e5780636c0360eb14610bc957806370a0823114610c5957610230565b806320379ee5116101bc5780632f2ff15d116101805780632f2ff15d146108d95780632f745c59146109345780633408e470146109a357806336568abe146109ce57806340c10f1914610a2957610230565b806320379ee51461074457806323b872dd1461076f578063248a9ca3146107ea5780632d0335ab146108395780632e1a7d4d1461089e57610230565b8063095ea7b311610203578063095ea7b3146104055780630c53c51c146104605780630f7e5970146105d55780631653c39a1461066557806318160ddd1461071957610230565b806301ffc9a71461023557806306fdde03146102a757806307a974fc14610337578063081812fc1461038a575b600080fd5b34801561024157600080fd5b5061028d6004803603602081101561025857600080fd5b8101908080357bffffffffffffffffffffffffffffffffffffffffffffffffffffffff19169060200190929190505050611384565b604051808215151515815260200191505060405180910390f35b3480156102b357600080fd5b506102bc6113eb565b6040518080602001828103825283818151815260200191508051906020019080838360005b838110156102fc5780820151818401526020810190506102e1565b50505050905090810190601f1680156103295780820380516001836020036101000a031916815260200191505b509250505060405180910390f35b34801561034357600080fd5b506103706004803603602081101561035a57600080fd5b810190808035906020019092919050505061148d565b604051808215151515815260200191505060405180910390f35b34801561039657600080fd5b506103c3600480360360208110156103ad57600080fd5b81019080803590602001909291905050506114ad565b604051808273ffffffffffffffffffffffffffffffffffffffff1673ffffffffffffffffffffffffffffffffffffffff16815260200191505060405180910390f35b34801561041157600080fd5b5061045e6004803603604081101561042857600080fd5b81019080803573ffffffffffffffffffffffffffffffffffffffff16906020019092919080359060200190929190505050611548565b005b61055a600480360360a081101561047657600080fd5b81019080803573ffffffffffffffffffffffffffffffffffffffff169060200190929190803590602001906401000000008111156104b357600080fd5b8201836020820111156104c557600080fd5b803590602001918460018302840111640100000000831117156104e757600080fd5b91908080601f016020809104026020016040519081016040528093929190818152602001838380828437600081840152601f19601f8201169050808301925050505050505091929192908035906020019092919080359060200190929190803560ff16906020019092919050505061168c565b6040518080602001828103825283818151815260200191508051906020019080838360005b8381101561059a57808201518184015260208101905061057f565b50505050905090810190601f1680156105c75780820380516001836020036101000a031916815260200191505b509250505060405180910390f35b3480156105e157600080fd5b506105ea611ae2565b6040518080602001828103825283818151815260200191508051906020019080838360005b8381101561062a57808201518184015260208101905061060f565b50505050905090810190601f1680156106575780820380516001836020036101000a031916815260200191505b509250505060405180910390f35b34801561067157600080fd5b5061069e6004803603602081101561068857600080fd5b8101908080359060200190929190505050611b1b565b6040518080602001828103825283818151815260200191508051906020019080838360005b838110156106de5780820151818401526020810190506106c3565b50505050905090810190601f16801561070b5780820380516001836020036101000a031916815260200191505b509250505060405180910390f35b34801561072557600080fd5b5061072e611bb1565b6040518082815260200191505060405180910390f35b34801561075057600080fd5b50610759611bc2565b6040518082815260200191505060405180910390f35b34801561077b57600080fd5b506107e86004803603606081101561079257600080fd5b81019080803573ffffffffffffffffffffffffffffffffffffffff169060200190929190803573ffffffffffffffffffffffffffffffffffffffff16906020019092919080359060200190929190505050611bcc565b005b3480156107f657600080fd5b506108236004803603602081101561080d57600080fd5b8101908080359060200190929190505050611c42565b6040518082815260200191505060405180910390f35b34801561084557600080fd5b506108886004803603602081101561085c57600080fd5b81019080803573ffffffffffffffffffffffffffffffffffffffff169060200190929190505050611c62565b6040518082815260200191505060405180910390f35b3480156108aa57600080fd5b506108d7600480360360208110156108c157600080fd5b8101908080359060200190929190505050611cab565b005b3480156108e557600080fd5b50610932600480360360408110156108fc57600080fd5b8101908080359060200190929190803573ffffffffffffffffffffffffffffffffffffffff169060200190929190505050611d76565b005b34801561094057600080fd5b5061098d6004803603604081101561095757600080fd5b81019080803573ffffffffffffffffffffffffffffffffffffffff16906020019092919080359060200190929190505050611e00565b6040518082815260200191505060405180910390f35b3480156109af57600080fd5b506109b8611e5b565b6040518082815260200191505060405180910390f35b3480156109da57600080fd5b50610a27600480360360408110156109f157600080fd5b8101908080359060200190929190803573ffffffffffffffffffffffffffffffffffffffff169060200190929190505050611e68565b005b348015610a3557600080fd5b50610a8260048036036040811015610a4c57600080fd5b81019080803573ffffffffffffffffffffffffffffffffffffffff16906020019092919080359060200190929190505050611f01565b005b348015610a9057600080fd5b50610afd60048036036060811015610aa757600080fd5b81019080803573ffffffffffffffffffffffffffffffffffffffff169060200190929190803573ffffffffffffffffffffffffffffffffffffffff16906020019092919080359060200190929190505050612062565b005b348015610b0b57600080fd5b50610b3860048036036020811015610b2257600080fd5b8101908080359060200190929190505050612082565b6040518082815260200191505060405180910390f35b348015610b5a57600080fd5b50610b8760048036036020811015610b7157600080fd5b81019080803590602001909291905050506120a5565b604051808273ffffffffffffffffffffffffffffffffffffffff1673ffffffffffffffffffffffffffffffffffffffff16815260200191505060405180910390f35b348015610bd557600080fd5b50610bde6120dc565b6040518080602001828103825283818151815260200191508051906020019080838360005b83811015610c1e578082015181840152602081019050610c03565b50505050905090810190601f168015610c4b5780820380516001836020036101000a031916815260200191505b509250505060405180910390f35b348015610c6557600080fd5b50610ca860048036036020811015610c7c57600080fd5b81019080803573ffffffffffffffffffffffffffffffffffffffff16906020019092919050505061217e565b6040518082815260200191505060405180910390f35b348015610cca57600080fd5b50610d0160048036036040811015610ce157600080fd5b810190808035906020019092919080359060200190929190505050612253565b604051808273ffffffffffffffffffffffffffffffffffffffff1673ffffffffffffffffffffffffffffffffffffffff16815260200191505060405180910390f35b348015610d4f57600080fd5b50610d9c60048036036040811015610d6657600080fd5b8101908080359060200190929190803573ffffffffffffffffffffffffffffffffffffffff169060200190929190505050612285565b604051808215151515815260200191505060405180910390f35b348015610dc257600080fd5b50610dcb6122b7565b6040518082815260200191505060405180910390f35b348015610ded57600080fd5b50610df66122bc565b6040518080602001828103825283818151815260200191508051906020019080838360005b83811015610e36578082015181840152602081019050610e1b565b50505050905090810190601f168015610e635780820380516001836020036101000a031916815260200191505b509250505060405180910390f35b348015610e7d57600080fd5b50610ef560048036036020811015610e9457600080fd5b8101908080359060200190640100000000811115610eb157600080fd5b820183602082011115610ec357600080fd5b80359060200191846020830284011164010000000083111715610ee557600080fd5b909192939192939050505061235e565b005b348015610f0357600080fd5b50610f0c6125bf565b6040518082815260200191505060405180910390f35b348015610f2e57600080fd5b50610f7d60048036036040811015610f4557600080fd5b81019080803573ffffffffffffffffffffffffffffffffffffffff1690602001909291908035151590602001909291905050506125c6565b005b348015610f8b57600080fd5b50610f9461277e565b6040518082815260200191505060405180910390f35b348015610fb657600080fd5b50610fe360048036036020811015610fcd57600080fd5b81019080803590602001909291905050506127b7565b005b348015610ff157600080fd5b506110f56004803603608081101561100857600080fd5b81019080803573ffffffffffffffffffffffffffffffffffffffff169060200190929190803573ffffffffffffffffffffffffffffffffffffffff169060200190929190803590602001909291908035906020019064010000000081111561106f57600080fd5b82018360208201111561108157600080fd5b803590602001918460018302840111640100000000831117156110a357600080fd5b91908080601f016020809104026020016040519081016040528093929190818152602001838380828437600081840152601f19601f820116905080830192505050505050509192919290505050612a9f565b005b34801561110357600080fd5b506111306004803603602081101561111a57600080fd5b8101908080359060200190929190505050612b17565b6040518080602001828103825283818151815260200191508051906020019080838360005b83811015611170578082015181840152602081019050611155565b50505050905090810190601f16801561119d5780820380516001836020036101000a031916815260200191505b509250505060405180910390f35b3480156111b757600080fd5b506111e4600480360360208110156111ce57600080fd5b8101908080359060200190929190505050612de8565b6040518082815260200191505060405180910390f35b34801561120657600080fd5b5061129e6004803603604081101561121d57600080fd5b81019080803573ffffffffffffffffffffffffffffffffffffffff1690602001909291908035906020019064010000000081111561125a57600080fd5b82018360208201111561126c57600080fd5b8035906020019184600183028401116401000000008311171561128e57600080fd5b9091929391929390505050612e0f565b005b3480156112ac57600080fd5b506112f9600480360360408110156112c357600080fd5b8101908080359060200190929190803573ffffffffffffffffffffffffffffffffffffffff1690602001909291905050506130bc565b005b34801561130757600080fd5b5061136a6004803603604081101561131e57600080fd5b81019080803573ffffffffffffffffffffffffffffffffffffffff169060200190929190803573ffffffffffffffffffffffffffffffffffffffff169060200190929190505050613146565b604051808215151515815260200191505060405180910390f35b6000806000837bffffffffffffffffffffffffffffffffffffffffffffffffffffffff19167bffffffffffffffffffffffffffffffffffffffffffffffffffffffff1916815260200190815260200160002060009054906101000a900460ff169050919050565b606060068054600181600116156101000203166002900480601f0160208091040260200160405190810160405280929190818152602001828054600181600116156101000203166002900480156114835780601f1061145857610100808354040283529160200191611483565b820191906000526020600020905b81548152906001019060200180831161146657829003601f168201915b5050505050905090565b600f6020528060005260406000206000915054906101000a900460ff1681565b60006114b8826131da565b61150d576040517f08c379a000000000000000000000000000000000000000000000000000000000815260040180806020018281038252602c815260200180614fb0602c913960400191505060405180910390fd5b6004600083815260200190815260200160002060009054906101000a900473ffffffffffffffffffffffffffffffffffffffff169050919050565b6000611553826120a5565b90508073ffffffffffffffffffffffffffffffffffffffff168373ffffffffffffffffffffffffffffffffffffffff1614156115da576040517f08c379a00000000000000000000000000000000000000000000000000000000081526004018080602001828103825260218152602001806150556021913960400191505060405180910390fd5b8073ffffffffffffffffffffffffffffffffffffffff166115f96131f7565b73ffffffffffffffffffffffffffffffffffffffff1614806116285750611627816116226131f7565b613146565b5b61167d576040517f08c379a0000000000000000000000000000000000000000000000000000000008152600401808060200182810382526038815260200180614eb36038913960400191505060405180910390fd5b6116878383613206565b505050565b6060611696614c25565b6040518060600160405280600e60008a73ffffffffffffffffffffffffffffffffffffffff1673ffffffffffffffffffffffffffffffffffffffff1681526020019081526020016000205481526020018873ffffffffffffffffffffffffffffffffffffffff16815260200187815250905061171587828787876132bf565b61176a576040517f08c379a00000000000000000000000000000000000000000000000000000000081526004018080602001828103825260218152602001806150056021913960400191505060405180910390fd5b6117bd6001600e60008a73ffffffffffffffffffffffffffffffffffffffff1673ffffffffffffffffffffffffffffffffffffffff168152602001908152602001600020546133f690919063ffffffff16565b600e60008973ffffffffffffffffffffffffffffffffffffffff1673ffffffffffffffffffffffffffffffffffffffff168152602001908152602001600020819055507f5845892132946850460bff5a0083f71031bc5bf9aadcd40f1de79423eac9b10b873388604051808473ffffffffffffffffffffffffffffffffffffffff1673ffffffffffffffffffffffffffffffffffffffff1681526020018373ffffffffffffffffffffffffffffffffffffffff1673ffffffffffffffffffffffffffffffffffffffff16815260200180602001828103825283818151815260200191508051906020019080838360005b838110156118c85780820151818401526020810190506118ad565b50505050905090810190601f1680156118f55780820380516001836020036101000a031916815260200191505b5094505050505060405180910390a1600060603073ffffffffffffffffffffffffffffffffffffffff16888a6040516020018083805190602001908083835b602083106119575780518252602082019150602081019050602083039250611934565b6001836020036101000a0380198251168184511680821785525050505050509050018273ffffffffffffffffffffffffffffffffffffffff1673ffffffffffffffffffffffffffffffffffffffff1660601b8152601401925050506040516020818303038152906040526040518082805190602001908083835b602083106119f457805182526020820191506020810190506020830392506119d1565b6001836020036101000a0380198251168184511680821785525050505050509050019150506000604051808303816000865af19150503d8060008114611a56576040519150601f19603f3d011682016040523d82523d6000602084013e611a5b565b606091505b509150915081611ad3576040517f08c379a000000000000000000000000000000000000000000000000000000000815260040180806020018281038252601c8152602001807f46756e6374696f6e2063616c6c206e6f74207375636365737366756c0000000081525060200191505060405180910390fd5b80935050505095945050505050565b6040518060400160405280600181526020017f310000000000000000000000000000000000000000000000000000000000000081525081565b6060611b2682612b17565b6040516020018080602001828103825283818151815260200191508051906020019080838360005b83811015611b69578082015181840152602081019050611b4e565b50505050905090810190601f168015611b965780820380516001836020036101000a031916815260200191505b50925050506040516020818303038152906040529050919050565b6000611bbd600261347e565b905090565b6000600d54905090565b611bdd611bd76131f7565b82613493565b611c32576040517f08c379a00000000000000000000000000000000000000000000000000000000081526004018080602001828103825260318152602001806150766031913960400191505060405180910390fd5b611c3d838383613587565b505050565b6000600a6000838152602001908152602001600020600201549050919050565b6000600e60008373ffffffffffffffffffffffffffffffffffffffff1673ffffffffffffffffffffffffffffffffffffffff168152602001908152602001600020549050919050565b611cb4816120a5565b73ffffffffffffffffffffffffffffffffffffffff16611cd26131f7565b73ffffffffffffffffffffffffffffffffffffffff1614611d3e576040517f08c379a0000000000000000000000000000000000000000000000000000000008152600401808060200182810382526028815260200180614eeb6028913960400191505060405180910390fd5b6001600f600083815260200190815260200160002060006101000a81548160ff021916908315150217905550611d73816137ca565b50565b611d9d600a600084815260200190815260200160002060020154611d986131f7565b612285565b611df2576040517f08c379a000000000000000000000000000000000000000000000000000000000815260040180806020018281038252602f815260200180614cec602f913960400191505060405180910390fd5b611dfc8282613904565b5050565b6000611e5382600160008673ffffffffffffffffffffffffffffffffffffffff1673ffffffffffffffffffffffffffffffffffffffff16815260200190815260200160002061399890919063ffffffff16565b905092915050565b6000804690508091505090565b611e706131f7565b73ffffffffffffffffffffffffffffffffffffffff168173ffffffffffffffffffffffffffffffffffffffff1614611ef3576040517f08c379a000000000000000000000000000000000000000000000000000000000815260040180806020018281038252602f8152602001806150a7602f913960400191505060405180910390fd5b611efd82826139b2565b5050565b6000801b611f1681611f116131f7565b612285565b600b90611fdb576040517f08c379a00000000000000000000000000000000000000000000000000000000081526004018080602001828103825283818154600181600116156101000203166002900481526020019150805460018160011615610100020316600290048015611fcc5780601f10611fa157610100808354040283529160200191611fcc565b820191906000526020600020905b815481529060010190602001808311611faf57829003601f168201915b50509250505060405180910390fd5b50600f600083815260200190815260200160002060009054906101000a900460ff1615612053576040517f08c379a000000000000000000000000000000000000000000000000000000000815260040180806020018281038252602f815260200180614d4d602f913960400191505060405180910390fd5b61205d8383613a46565b505050565b61207d83838360405180602001604052806000815250612a9f565b505050565b600080612099836002613c3a90919063ffffffff16565b50905080915050919050565b60006120d582604051806060016040528060298152602001614f3d602991396002613c699092919063ffffffff16565b9050919050565b606060098054600181600116156101000203166002900480601f0160208091040260200160405190810160405280929190818152602001828054600181600116156101000203166002900480156121745780601f1061214957610100808354040283529160200191612174565b820191906000526020600020905b81548152906001019060200180831161215757829003601f168201915b5050505050905090565b60008073ffffffffffffffffffffffffffffffffffffffff168273ffffffffffffffffffffffffffffffffffffffff161415612205576040517f08c379a000000000000000000000000000000000000000000000000000000000815260040180806020018281038252602a815260200180614f13602a913960400191505060405180910390fd5b61224c600160008473ffffffffffffffffffffffffffffffffffffffff1673ffffffffffffffffffffffffffffffffffffffff168152602001908152602001600020613c88565b9050919050565b600061227d82600a6000868152602001908152602001600020600001613c9d90919063ffffffff16565b905092915050565b60006122af82600a6000868152602001908152602001600020600001613cb790919063ffffffff16565b905092915050565b601481565b606060078054600181600116156101000203166002900480601f0160208091040260200160405190810160405280929190818152602001828054600181600116156101000203166002900480156123545780601f1061232957610100808354040283529160200191612354565b820191906000526020600020905b81548152906001019060200180831161233757829003601f168201915b5050505050905090565b600082829050905060148111156123c0576040517f08c379a0000000000000000000000000000000000000000000000000000000008152600401808060200182810382526028815260200180614f886028913960400191505060405180910390fd5b60005b818110156125355760008484838181106123d957fe5b9050602002013590506123eb816120a5565b73ffffffffffffffffffffffffffffffffffffffff166124096131f7565b73ffffffffffffffffffffffffffffffffffffffff1614816040516020018080614dbf60299139602901828152602001915050604051602081830303815290604052906124f1576040517f08c379a00000000000000000000000000000000000000000000000000000000081526004018080602001828103825283818151815260200191508051906020019080838360005b838110156124b657808201518184015260208101905061249b565b50505050905090810190601f1680156124e35780820380516001836020036101000a031916815260200191505b509250505060405180910390fd5b506001600f600083815260200190815260200160002060006101000a81548160ff021916908315150217905550612527816137ca565b5080806001019150506123c3565b5061253e6131f7565b73ffffffffffffffffffffffffffffffffffffffff167ff871896b17e9cb7a64941c62c188a4f5c621b86800e3d15452ece01ce56073df848460405180806020018281038252848482818152602001925060200280828437600081840152601f19601f820116905080830192505050935050505060405180910390a2505050565b6000801b81565b6125ce6131f7565b73ffffffffffffffffffffffffffffffffffffffff168273ffffffffffffffffffffffffffffffffffffffff16141561266f576040517f08c379a00000000000000000000000000000000000000000000000000000000081526004018080602001828103825260198152602001807f4552433732313a20617070726f766520746f2063616c6c65720000000000000081525060200191505060405180910390fd5b806005600061267c6131f7565b73ffffffffffffffffffffffffffffffffffffffff1673ffffffffffffffffffffffffffffffffffffffff16815260200190815260200160002060008473ffffffffffffffffffffffffffffffffffffffff1673ffffffffffffffffffffffffffffffffffffffff16815260200190815260200160002060006101000a81548160ff0219169083151502179055508173ffffffffffffffffffffffffffffffffffffffff166127296131f7565b73ffffffffffffffffffffffffffffffffffffffff167f17307eab39ab6107e8899845ad3d59bd9653f200f220920489ca2b5937696c3183604051808215151515815260200191505060405180910390a35050565b60405180807f4445504f5349544f525f524f4c45000000000000000000000000000000000000815250600e019050604051809103902081565b6127c0816120a5565b73ffffffffffffffffffffffffffffffffffffffff166127de6131f7565b73ffffffffffffffffffffffffffffffffffffffff161461284a576040517f08c379a0000000000000000000000000000000000000000000000000000000008152600401808060200182810382526028815260200180614eeb6028913960400191505060405180910390fd5b6001600f600083815260200190815260200160002060006101000a81548160ff02191690831515021790555080600073ffffffffffffffffffffffffffffffffffffffff16612898836120a5565b73ffffffffffffffffffffffffffffffffffffffff167ff94915c6d1fd521cee85359239227480c7e8776d7caf1fc3bacad5c269b66a143073ffffffffffffffffffffffffffffffffffffffff16631653c39a866040518263ffffffff1660e01b81526004018082815260200191505060006040518083038186803b15801561292057600080fd5b505afa158015612934573d6000803e3d6000fd5b505050506040513d6000823e3d601f19601f82011682018060405250602081101561295e57600080fd5b810190808051604051939291908464010000000082111561297e57600080fd5b8382019150602082018581111561299457600080fd5b82518660018202830111640100000000821117156129b157600080fd5b8083526020830192505050908051906020019080838360005b838110156129e55780820151818401526020810190506129ca565b50505050905090810190601f168015612a125780820380516001836020036101000a031916815260200191505b506040525050506040518080602001828103825283818151815260200191508051906020019080838360005b83811015612a59578082015181840152602081019050612a3e565b50505050905090810190601f168015612a865780820380516001836020036101000a031916815260200191505b509250505060405180910390a4612a9c816137ca565b50565b612ab0612aaa6131f7565b83613493565b612b05576040517f08c379a00000000000000000000000000000000000000000000000000000000081526004018080602001828103825260318152602001806150766031913960400191505060405180910390fd5b612b1184848484613ce7565b50505050565b6060612b22826131da565b612b77576040517f08c379a000000000000000000000000000000000000000000000000000000000815260040180806020018281038252602f815260200180615026602f913960400191505060405180910390fd5b6060600860008481526020019081526020016000208054600181600116156101000203166002900480601f016020809104026020016040519081016040528092919081815260200182805460018160011615610100020316600290048015612c205780601f10612bf557610100808354040283529160200191612c20565b820191906000526020600020905b815481529060010190602001808311612c0357829003601f168201915b505050505090506060612c316120dc565b9050600081511415612c47578192505050612de3565b600082511115612d185780826040516020018083805190602001908083835b60208310612c895780518252602082019150602081019050602083039250612c66565b6001836020036101000a03801982511681845116808217855250505050505090500182805190602001908083835b60208310612cda5780518252602082019150602081019050602083039250612cb7565b6001836020036101000a0380198251168184511680821785525050505050509050019250505060405160208183030381529060405292505050612de3565b80612d2285613d59565b6040516020018083805190602001908083835b60208310612d585780518252602082019150602081019050602083039250612d35565b6001836020036101000a03801982511681845116808217855250505050505090500182805190602001908083835b60208310612da95780518252602082019150602081019050602083039250612d86565b6001836020036101000a03801982511681845116808217855250505050505090500192505050604051602081830303815290604052925050505b919050565b6000612e08600a6000848152602001908152602001600020600001613ea0565b9050919050565b60405180807f4445504f5349544f525f524f4c45000000000000000000000000000000000000815250600e0190506040518091039020612e5681612e516131f7565b612285565b600b90612f1b576040517f08c379a00000000000000000000000000000000000000000000000000000000081526004018080602001828103825283818154600181600116156101000203166002900481526020019150805460018160011615610100020316600290048015612f0c5780601f10612ee157610100808354040283529160200191612f0c565b820191906000526020600020905b815481529060010190602001808311612eef57829003601f168201915b50509250505060405180910390fd5b506020838390501415612f8957600083836020811015612f3a57600080fd5b810190808035906020019092919050505090506000600f600083815260200190815260200160002060006101000a81548160ff021916908315150217905550612f838582613a46565b506130b6565b606083836020811015612f9b57600080fd5b8101908080359060200190640100000000811115612fb857600080fd5b820183602082011115612fca57600080fd5b80359060200191846020830284011164010000000083111715612fec57600080fd5b919080806020026020016040519081016040528093929190818152602001838360200280828437600081840152601f19601f820116905080830192505050505050509192919290505050905060008151905060005b818110156130b2576000600f600085848151811061305b57fe5b6020026020010151815260200190815260200160002060006101000a81548160ff0219169083151502179055506130a58784838151811061309857fe5b6020026020010151613a46565b8080600101915050613041565b5050505b50505050565b6130e3600a6000848152602001908152602001600020600201546130de6131f7565b612285565b613138576040517f08c379a0000000000000000000000000000000000000000000000000000000008152600401808060200182810382526030815260200180614e5e6030913960400191505060405180910390fd5b61314282826139b2565b5050565b6000600560008473ffffffffffffffffffffffffffffffffffffffff1673ffffffffffffffffffffffffffffffffffffffff16815260200190815260200160002060008373ffffffffffffffffffffffffffffffffffffffff1673ffffffffffffffffffffffffffffffffffffffff16815260200190815260200160002060009054906101000a900460ff16905092915050565b60006131f0826002613eb590919063ffffffff16565b9050919050565b6000613201613ecf565b905090565b816004600083815260200190815260200160002060006101000a81548173ffffffffffffffffffffffffffffffffffffffff021916908373ffffffffffffffffffffffffffffffffffffffff160217905550808273ffffffffffffffffffffffffffffffffffffffff16613279836120a5565b73ffffffffffffffffffffffffffffffffffffffff167f8c5be1e5ebec7d5bd14f71427d1e84f3dd0314c0f7b2291e5b200ac8c7c3b92560405160405180910390a45050565b60008073ffffffffffffffffffffffffffffffffffffffff168673ffffffffffffffffffffffffffffffffffffffff161415613346576040517f08c379a0000000000000000000000000000000000000000000000000000000008152600401808060200182810382526025815260200180614e8e6025913960400191505060405180910390fd5b600161335961335487613f84565b61402a565b83868660405160008152602001604052604051808581526020018460ff1660ff1681526020018381526020018281526020019450505050506020604051602081039080840390855afa1580156133b3573d6000803e3d6000fd5b5050506020604051035173ffffffffffffffffffffffffffffffffffffffff168673ffffffffffffffffffffffffffffffffffffffff1614905095945050505050565b600080828401905083811015613474576040517f08c379a000000000000000000000000000000000000000000000000000000000815260040180806020018281038252601b8152602001807f536166654d6174683a206164646974696f6e206f766572666c6f77000000000081525060200191505060405180910390fd5b8091505092915050565b600061348c82600001614091565b9050919050565b600061349e826131da565b6134f3576040517f08c379a000000000000000000000000000000000000000000000000000000000815260040180806020018281038252602c815260200180614e32602c913960400191505060405180910390fd5b60006134fe836120a5565b90508073ffffffffffffffffffffffffffffffffffffffff168473ffffffffffffffffffffffffffffffffffffffff16148061356d57508373ffffffffffffffffffffffffffffffffffffffff16613555846114ad565b73ffffffffffffffffffffffffffffffffffffffff16145b8061357e575061357d8185613146565b5b91505092915050565b8273ffffffffffffffffffffffffffffffffffffffff166135a7826120a5565b73ffffffffffffffffffffffffffffffffffffffff1614613613576040517f08c379a0000000000000000000000000000000000000000000000000000000008152600401808060200182810382526029815260200180614fdc6029913960400191505060405180910390fd5b600073ffffffffffffffffffffffffffffffffffffffff168273ffffffffffffffffffffffffffffffffffffffff161415613699576040517f08c379a0000000000000000000000000000000000000000000000000000000008152600401808060200182810382526024815260200180614de86024913960400191505060405180910390fd5b6136a48383836140a2565b6136af600082613206565b61370081600160008673ffffffffffffffffffffffffffffffffffffffff1673ffffffffffffffffffffffffffffffffffffffff1681526020019081526020016000206140a790919063ffffffff16565b5061375281600160008573ffffffffffffffffffffffffffffffffffffffff1673ffffffffffffffffffffffffffffffffffffffff1681526020019081526020016000206140c190919063ffffffff16565b50613769818360026140db9092919063ffffffff16565b50808273ffffffffffffffffffffffffffffffffffffffff168473ffffffffffffffffffffffffffffffffffffffff167fddf252ad1be2c89b69c2b068fc378daa952ba7f163c4a11628f55a4df523b3ef60405160405180910390a4505050565b60006137d5826120a5565b90506137e3816000846140a2565b6137ee600083613206565b6000600860008481526020019081526020016000208054600181600116156101000203166002900490501461383d5760086000838152602001908152602001600020600061383c9190614c5c565b5b61388e82600160008473ffffffffffffffffffffffffffffffffffffffff1673ffffffffffffffffffffffffffffffffffffffff1681526020019081526020016000206140a790919063ffffffff16565b506138a382600261411090919063ffffffff16565b5081600073ffffffffffffffffffffffffffffffffffffffff168273ffffffffffffffffffffffffffffffffffffffff167fddf252ad1be2c89b69c2b068fc378daa952ba7f163c4a11628f55a4df523b3ef60405160405180910390a45050565b61392c81600a600085815260200190815260200160002060000161412a90919063ffffffff16565b15613994576139396131f7565b73ffffffffffffffffffffffffffffffffffffffff168173ffffffffffffffffffffffffffffffffffffffff16837f2f8788117e7eff1d82e926ec794901d17c78024a50270940304540a733656f0d60405160405180910390a45b5050565b60006139a7836000018361415a565b60001c905092915050565b6139da81600a60008581526020019081526020016000206000016141dd90919063ffffffff16565b15613a42576139e76131f7565b73ffffffffffffffffffffffffffffffffffffffff168173ffffffffffffffffffffffffffffffffffffffff16837ff6391f5c32d9c69d2a47ea670b442974b53935d1edc7fd64eb21e047a839171b60405160405180910390a45b5050565b600073ffffffffffffffffffffffffffffffffffffffff168273ffffffffffffffffffffffffffffffffffffffff161415613ae9576040517f08c379a00000000000000000000000000000000000000000000000000000000081526004018080602001828103825260208152602001807f4552433732313a206d696e7420746f20746865207a65726f206164647265737381525060200191505060405180910390fd5b613af2816131da565b15613b65576040517f08c379a000000000000000000000000000000000000000000000000000000000815260040180806020018281038252601c8152602001807f4552433732313a20746f6b656e20616c7265616479206d696e7465640000000081525060200191505060405180910390fd5b613b71600083836140a2565b613bc281600160008573ffffffffffffffffffffffffffffffffffffffff1673ffffffffffffffffffffffffffffffffffffffff1681526020019081526020016000206140c190919063ffffffff16565b50613bd9818360026140db9092919063ffffffff16565b50808273ffffffffffffffffffffffffffffffffffffffff16600073ffffffffffffffffffffffffffffffffffffffff167fddf252ad1be2c89b69c2b068fc378daa952ba7f163c4a11628f55a4df523b3ef60405160405180910390a45050565b600080600080613c4d866000018661420d565b915091508160001c8160001c8090509350935050509250929050565b6000613c7c846000018460001b846142a6565b60001c90509392505050565b6000613c968260000161439c565b9050919050565b6000613cac836000018361415a565b60001c905092915050565b6000613cdf836000018373ffffffffffffffffffffffffffffffffffffffff1660001b6143ad565b905092915050565b613cf2848484613587565b613cfe848484846143d0565b613d53576040517f08c379a0000000000000000000000000000000000000000000000000000000008152600401808060200182810382526032815260200180614d1b6032913960400191505060405180910390fd5b50505050565b60606000821415613da1576040518060400160405280600181526020017f30000000000000000000000000000000000000000000000000000000000000008152509050613e9b565b600082905060005b60008214613dcb578080600101915050600a8281613dc357fe5b049150613da9565b60608167ffffffffffffffff81118015613de457600080fd5b506040519080825280601f01601f191660200182016040528015613e175781602001600182028036833780820191505090505b50905060006001830390508593505b60008414613e9357600a8481613e3857fe5b0660300160f81b82828060019003935081518110613e5257fe5b60200101907effffffffffffffffffffffffffffffffffffffffffffffffffffffffffffff1916908160001a905350600a8481613e8b57fe5b049350613e26565b819450505050505b919050565b6000613eae8260000161439c565b9050919050565b6000613ec7836000018360001b614615565b905092915050565b60003073ffffffffffffffffffffffffffffffffffffffff163373ffffffffffffffffffffffffffffffffffffffff161415613f7a5760606000368080601f016020809104026020016040519081016040528093929190818152602001838380828437600081840152601f19601f820116905080830192505050505050509050600080369050905073ffffffffffffffffffffffffffffffffffffffff818301511692505050613f7e565b3390505b80905090565b6000604051806080016040528060438152602001614d7c604391398051906020012082600001518360200151846040015180519060200120604051602001808581526020018481526020018373ffffffffffffffffffffffffffffffffffffffff1673ffffffffffffffffffffffffffffffffffffffff168152602001828152602001945050505050604051602081830303815290604052805190602001209050919050565b6000614034611bc2565b8260405160200180807f190100000000000000000000000000000000000000000000000000000000000081525060020183815260200182815260200192505050604051602081830303815290604052805190602001209050919050565b600081600001805490509050919050565b505050565b60006140b9836000018360001b614638565b905092915050565b60006140d3836000018360001b614720565b905092915050565b6000614107846000018460001b8473ffffffffffffffffffffffffffffffffffffffff1660001b614790565b90509392505050565b6000614122836000018360001b61486c565b905092915050565b6000614152836000018373ffffffffffffffffffffffffffffffffffffffff1660001b614720565b905092915050565b6000818360000180549050116141bb576040517f08c379a0000000000000000000000000000000000000000000000000000000008152600401808060200182810382526022815260200180614cca6022913960400191505060405180910390fd5b8260000182815481106141ca57fe5b9060005260206000200154905092915050565b6000614205836000018373ffffffffffffffffffffffffffffffffffffffff1660001b614638565b905092915050565b6000808284600001805490501161426f576040517f08c379a0000000000000000000000000000000000000000000000000000000008152600401808060200182810382526022815260200180614f666022913960400191505060405180910390fd5b600084600001848154811061428057fe5b906000526020600020906002020190508060000154816001015492509250509250929050565b6000808460010160008581526020019081526020016000205490506000811415839061436d576040517f08c379a00000000000000000000000000000000000000000000000000000000081526004018080602001828103825283818151815260200191508051906020019080838360005b83811015614332578082015181840152602081019050614317565b50505050905090810190601f16801561435f5780820380516001836020036101000a031916815260200191505b509250505060405180910390fd5b5084600001600182038154811061438057fe5b9060005260206000209060020201600101549150509392505050565b600081600001805490509050919050565b600080836001016000848152602001908152602001600020541415905092915050565b60006143f18473ffffffffffffffffffffffffffffffffffffffff16614985565b6143fe576001905061460d565b606061459463150b7a0260e01b6144136131f7565b888787604051602401808573ffffffffffffffffffffffffffffffffffffffff1673ffffffffffffffffffffffffffffffffffffffff1681526020018473ffffffffffffffffffffffffffffffffffffffff1673ffffffffffffffffffffffffffffffffffffffff16815260200183815260200180602001828103825283818151815260200191508051906020019080838360005b838110156144c35780820151818401526020810190506144a8565b50505050905090810190601f1680156144f05780820380516001836020036101000a031916815260200191505b5095505050505050604051602081830303815290604052907bffffffffffffffffffffffffffffffffffffffffffffffffffffffff19166020820180517bffffffffffffffffffffffffffffffffffffffffffffffffffffffff8381831617835250505050604051806060016040528060328152602001614d1b603291398773ffffffffffffffffffffffffffffffffffffffff166149989092919063ffffffff16565b905060008180602001905160208110156145ad57600080fd5b8101908080519060200190929190505050905063150b7a0260e01b7bffffffffffffffffffffffffffffffffffffffffffffffffffffffff1916817bffffffffffffffffffffffffffffffffffffffffffffffffffffffff191614925050505b949350505050565b600080836001016000848152602001908152602001600020541415905092915050565b60008083600101600084815260200190815260200160002054905060008114614714576000600182039050600060018660000180549050039050600086600001828154811061468357fe5b90600052602060002001549050808760000184815481106146a057fe5b90600052602060002001819055506001830187600101600083815260200190815260200160002081905550866000018054806146d857fe5b6001900381819060005260206000200160009055905586600101600087815260200190815260200160002060009055600194505050505061471a565b60009150505b92915050565b600061472c83836143ad565b61478557826000018290806001815401808255809150506001900390600052602060002001600090919091909150558260000180549050836001016000848152602001908152602001600020819055506001905061478a565b600090505b92915050565b600080846001016000858152602001908152602001600020549050600081141561483757846000016040518060400160405280868152602001858152509080600181540180825580915050600190039060005260206000209060020201600090919091909150600082015181600001556020820151816001015550508460000180549050856001016000868152602001908152602001600020819055506001915050614865565b8285600001600183038154811061484a57fe5b90600052602060002090600202016001018190555060009150505b9392505050565b6000808360010160008481526020019081526020016000205490506000811461497957600060018203905060006001866000018054905003905060008660000182815481106148b757fe5b90600052602060002090600202019050808760000184815481106148d757fe5b906000526020600020906002020160008201548160000155600182015481600101559050506001830187600101600083600001548152602001908152602001600020819055508660000180548061492a57fe5b600190038181906000526020600020906002020160008082016000905560018201600090555050905586600101600087815260200190815260200160002060009055600194505050505061497f565b60009150505b92915050565b600080823b905060008111915050919050565b60606149a784846000856149b0565b90509392505050565b606082471015614a0b576040517f08c379a0000000000000000000000000000000000000000000000000000000008152600401808060200182810382526026815260200180614e0c6026913960400191505060405180910390fd5b614a1485614985565b614a86576040517f08c379a000000000000000000000000000000000000000000000000000000000815260040180806020018281038252601d8152602001807f416464726573733a2063616c6c20746f206e6f6e2d636f6e747261637400000081525060200191505060405180910390fd5b600060608673ffffffffffffffffffffffffffffffffffffffff1685876040518082805190602001908083835b60208310614ad65780518252602082019150602081019050602083039250614ab3565b6001836020036101000a03801982511681845116808217855250505050505090500191505060006040518083038185875af1925050503d8060008114614b38576040519150601f19603f3d011682016040523d82523d6000602084013e614b3d565b606091505b5091509150614b4d828286614b59565b92505050949350505050565b60608315614b6957829050614c1e565b600083511115614b7c5782518084602001fd5b816040517f08c379a00000000000000000000000000000000000000000000000000000000081526004018080602001828103825283818151815260200191508051906020019080838360005b83811015614be3578082015181840152602081019050614bc8565b50505050905090810190601f168015614c105780820380516001836020036101000a031916815260200191505b509250505060405180910390fd5b9392505050565b604051806060016040528060008152602001600073ffffffffffffffffffffffffffffffffffffffff168152602001606081525090565b50805460018160011615610100020316600290046000825580601f10614c825750614ca1565b601f016020900490600052602060002090810190614ca09190614ca4565b5b50565b614cc691905b80821115614cc2576000816000905550600101614caa565b5090565b9056fe456e756d657261626c655365743a20696e646578206f7574206f6620626f756e6473416363657373436f6e74726f6c3a2073656e646572206d75737420626520616e2061646d696e20746f206772616e744552433732313a207472616e7366657220746f206e6f6e20455243373231526563656976657220696d706c656d656e7465724368696c644d696e7461626c654552433732313a20544f4b454e5f4558495354535f4f4e5f524f4f545f434841494e4d6574615472616e73616374696f6e2875696e74323536206e6f6e63652c616464726573732066726f6d2c62797465732066756e6374696f6e5369676e6174757265294368696c644d696e7461626c654552433732313a20494e56414c49445f544f4b454e5f4f574e4552204552433732313a207472616e7366657220746f20746865207a65726f2061646472657373416464726573733a20696e73756666696369656e742062616c616e636520666f722063616c6c4552433732313a206f70657261746f7220717565727920666f72206e6f6e6578697374656e7420746f6b656e416363657373436f6e74726f6c3a2073656e646572206d75737420626520616e2061646d696e20746f207265766f6b654e61746976654d6574615472616e73616374696f6e3a20494e56414c49445f5349474e45524552433732313a20617070726f76652063616c6c6572206973206e6f74206f776e6572206e6f7220617070726f76656420666f7220616c6c4368696c644d696e7461626c654552433732313a20494e56414c49445f544f4b454e5f4f574e45524552433732313a2062616c616e636520717565727920666f7220746865207a65726f20616464726573734552433732313a206f776e657220717565727920666f72206e6f6e6578697374656e7420746f6b656e456e756d657261626c654d61703a20696e646578206f7574206f6620626f756e64734368696c644d696e7461626c654552433732313a20455843454544535f42415443485f4c494d49544552433732313a20617070726f76656420717565727920666f72206e6f6e6578697374656e7420746f6b656e4552433732313a207472616e73666572206f6620746f6b656e2074686174206973206e6f74206f776e5369676e657220616e64207369676e617475726520646f206e6f74206d617463684552433732314d657461646174613a2055524920717565727920666f72206e6f6e6578697374656e7420746f6b656e4552433732313a20617070726f76616c20746f2063757272656e74206f776e65724552433732313a207472616e736665722063616c6c6572206973206e6f74206f776e6572206e6f7220617070726f766564416363657373436f6e74726f6c3a2063616e206f6e6c792072656e6f756e636520726f6c657320666f722073656c66a2646970667358221220a8bbe04c46a3c223c6397381260d08857d437817cfafb29cf830d76ffd1c26ec64736f6c63430006060033454950373132446f6d61696e28737472696e67206e616d652c737472696e672076657273696f6e2c6164647265737320766572696679696e67436f6e74726163742c627974657333322073616c7429",
  "linkReferences": {},
  "deployedLinkReferences": {}
}