{
  "_format": "hh-sol-artifact-1",
  "contractName": "TestRootTunnel",
  "sourceName": "contracts/test/TestRootTunnel.sol",
  "abi": [
    {
      "anonymous": false,
      "inputs": [
        {
          "indexed": false,
          "internalType": "uint256",
          "name": "",
          "type": "uint256"
        }
      ],
      "name": "MessageReceivedFromChild",
      "type": "event"
    },
    {
      "anonymous": false,
      "inputs": [
        {
          "indexed": true,
          "internalType": "bytes32",
          "name": "role",
          "type": "bytes32"
        },
        {
          "indexed": true,
          "internalType": "bytes32",
          "name": "previousAdminRole",
          "type": "bytes32"
        },
        {
          "indexed": true,
          "internalType": "bytes32",
          "name": "newAdminRole",
          "type": "bytes32"
        }
      ],
      "name": "RoleAdminChanged",
      "type": "event"
    },
    {
      "anonymous": false,
      "inputs": [
        {
          "indexed": true,
          "internalType": "bytes32",
          "name": "role",
          "type": "bytes32"
        },
        {
          "indexed": true,
          "internalType": "address",
          "name": "account",
          "type": "address"
        },
        {
          "indexed": true,
          "internalType": "address",
          "name": "sender",
          "type": "address"
        }
      ],
      "name": "RoleGranted",
      "type": "event"
    },
    {
      "anonymous": false,
      "inputs": [
        {
          "indexed": true,
          "internalType": "bytes32",
          "name": "role",
          "type": "bytes32"
        },
        {
          "indexed": true,
          "internalType": "address",
          "name": "account",
          "type": "address"
        },
        {
          "indexed": true,
          "internalType": "address",
          "name": "sender",
          "type": "address"
        }
      ],
      "name": "RoleRevoked",
      "type": "event"
    },
    {
      "inputs": [],
      "name": "DEFAULT_ADMIN_ROLE",
      "outputs": [
        {
          "internalType": "bytes32",
          "name": "",
          "type": "bytes32"
        }
      ],
      "stateMutability": "view",
      "type": "function"
    },
    {
      "inputs": [],
      "name": "SEND_MESSAGE_EVENT_SIG",
      "outputs": [
        {
          "internalType": "bytes32",
          "name": "",
          "type": "bytes32"
        }
      ],
      "stateMutability": "view",
      "type": "function"
    },
    {
      "inputs": [],
      "name": "checkpointManager",
      "outputs": [
        {
          "internalType": "contract ICheckpointManager",
          "name": "",
          "type": "address"
        }
      ],
      "stateMutability": "view",
      "type": "function"
    },
    {
      "inputs": [],
      "name": "childTunnel",
      "outputs": [
        {
          "internalType": "address",
          "name": "",
          "type": "address"
        }
      ],
      "stateMutability": "view",
      "type": "function"
    },
    {
      "inputs": [
        {
          "internalType": "bytes32",
          "name": "role",
          "type": "bytes32"
        }
      ],
      "name": "getRoleAdmin",
      "outputs": [
        {
          "internalType": "bytes32",
          "name": "",
          "type": "bytes32"
        }
      ],
      "stateMutability": "view",
      "type": "function"
    },
    {
      "inputs": [
        {
          "internalType": "bytes32",
          "name": "role",
          "type": "bytes32"
        },
        {
          "internalType": "uint256",
          "name": "index",
          "type": "uint256"
        }
      ],
      "name": "getRoleMember",
      "outputs": [
        {
          "internalType": "address",
          "name": "",
          "type": "address"
        }
      ],
      "stateMutability": "view",
      "type": "function"
    },
    {
      "inputs": [
        {
          "internalType": "bytes32",
          "name": "role",
          "type": "bytes32"
        }
      ],
      "name": "getRoleMemberCount",
      "outputs": [
        {
          "internalType": "uint256",
          "name": "",
          "type": "uint256"
        }
      ],
      "stateMutability": "view",
      "type": "function"
    },
    {
      "inputs": [
        {
          "internalType": "bytes32",
          "name": "role",
          "type": "bytes32"
        },
        {
          "internalType": "address",
          "name": "account",
          "type": "address"
        }
      ],
      "name": "grantRole",
      "outputs": [],
      "stateMutability": "nonpayable",
      "type": "function"
    },
    {
      "inputs": [
        {
          "internalType": "bytes32",
          "name": "role",
          "type": "bytes32"
        },
        {
          "internalType": "address",
          "name": "account",
          "type": "address"
        }
      ],
      "name": "hasRole",
      "outputs": [
        {
          "internalType": "bool",
          "name": "",
          "type": "bool"
        }
      ],
      "stateMutability": "view",
      "type": "function"
    },
    {
      "inputs": [
        {
          "internalType": "bytes32",
          "name": "",
          "type": "bytes32"
        }
      ],
      "name": "processedExits",
      "outputs": [
        {
          "internalType": "bool",
          "name": "",
          "type": "bool"
        }
      ],
      "stateMutability": "view",
      "type": "function"
    },
    {
      "inputs": [
        {
          "internalType": "bytes",
          "name": "inputData",
          "type": "bytes"
        }
      ],
      "name": "receiveMessage",
      "outputs": [],
      "stateMutability": "nonpayable",
      "type": "function"
    },
    {
      "inputs": [],
      "name": "receivedNumber",
      "outputs": [
        {
          "internalType": "uint256",
          "name": "",
          "type": "uint256"
        }
      ],
      "stateMutability": "view",
      "type": "function"
    },
    {
      "inputs": [
        {
          "internalType": "bytes32",
          "name": "role",
          "type": "bytes32"
        },
        {
          "internalType": "address",
          "name": "account",
          "type": "address"
        }
      ],
      "name": "renounceRole",
      "outputs": [],
      "stateMutability": "nonpayable",
      "type": "function"
    },
    {
      "inputs": [
        {
          "internalType": "bytes32",
          "name": "role",
          "type": "bytes32"
        },
        {
          "internalType": "address",
          "name": "account",
          "type": "address"
        }
      ],
      "name": "revokeRole",
      "outputs": [],
      "stateMutability": "nonpayable",
      "type": "function"
    },
    {
      "inputs": [
        {
          "internalType": "address",
          "name": "newCheckpointManager",
          "type": "address"
        }
      ],
      "name": "setCheckpointManager",
      "outputs": [],
      "stateMutability": "nonpayable",
      "type": "function"
    },
    {
      "inputs": [
        {
          "internalType": "address",
          "name": "newChildTunnel",
          "type": "address"
        }
      ],
      "name": "setChildTunnel",
      "outputs": [],
      "stateMutability": "nonpayable",
      "type": "function"
    },
    {
      "inputs": [
        {
          "internalType": "address",
          "name": "newStateSender",
          "type": "address"
        }
      ],
      "name": "setStateSender",
      "outputs": [],
      "stateMutability": "nonpayable",
      "type": "function"
    },
    {
      "inputs": [],
      "name": "stateSender",
      "outputs": [
        {
          "internalType": "contract IStateSender",
          "name": "",
          "type": "address"
        }
      ],
      "stateMutability": "view",
      "type": "function"
    }
  ],
  "bytecode": "0x6080604052620000196000801b336200006560201b60201c565b6200005f6040518060400160405280600a81526020017f526f6f7454756e6e656c000000000000000000000000000000000000000000008152506200007b60201b60201c565b6200035a565b6200007782826200012b60201b60201c565b5050565b806040516020018082805190602001908083835b60208310620000b457805182526020820191506020810190506020830392506200008f565b6001836020036101000a038019825116818451168082178552505050505050905001807f3a20494e53554646494349454e545f5045524d495353494f4e53000000000000815250601a019150506040516020818303038152906040526001908051906020019062000127929190620002ab565b5050565b6200015981600080858152602001908152602001600020600001620001ce60201b6200156c1790919060201c565b15620001ca576200016f6200020660201b60201c565b73ffffffffffffffffffffffffffffffffffffffff168173ffffffffffffffffffffffffffffffffffffffff16837f2f8788117e7eff1d82e926ec794901d17c78024a50270940304540a733656f0d60405160405180910390a45b5050565b6000620001fe836000018373ffffffffffffffffffffffffffffffffffffffff1660001b6200020e60201b60201c565b905092915050565b600033905090565b60006200022283836200028860201b60201c565b6200027d57826000018290806001815401808255809150506001900390600052602060002001600090919091909150558260000180549050836001016000848152602001908152602001600020819055506001905062000282565b600090505b92915050565b600080836001016000848152602001908152602001600020541415905092915050565b828054600181600116156101000203166002900490600052602060002090601f016020900481019282601f10620002ee57805160ff19168380011785556200031f565b828001600101855582156200031f579182015b828111156200031e57825182559160200191906001019062000301565b5b5090506200032e919062000332565b5090565b6200035791905b808211156200035357600081600090555060010162000339565b5090565b90565b612e04806200036a6000396000f3fe608060405234801561001057600080fd5b50600436106101165760003560e01c8063a217fddf116100a2578063ca02b26711610071578063ca02b26714610493578063ca15c873146104d7578063cb10f94c14610519578063d547741f14610563578063f953cec7146105b157610116565b8063a217fddf146103c9578063bc08452b146103e7578063c0857ba01461042b578063c9f703a91461047557610116565b8063607f2d42116100e9578063607f2d42146102175780636cb136b01461025d5780636d6aa34d146102a15780639010d07c146102eb57806391d148541461036357610116565b80630e387de61461011b578063248a9ca3146101395780632f2ff15d1461017b57806336568abe146101c9575b600080fd5b61012361066c565b6040518082815260200191505060405180910390f35b6101656004803603602081101561014f57600080fd5b8101908080359060200190929190505050610693565b6040518082815260200191505060405180910390f35b6101c76004803603604081101561019157600080fd5b8101908080359060200190929190803573ffffffffffffffffffffffffffffffffffffffff1690602001909291905050506106b2565b005b610215600480360360408110156101df57600080fd5b8101908080359060200190929190803573ffffffffffffffffffffffffffffffffffffffff16906020019092919050505061073b565b005b6102436004803603602081101561022d57600080fd5b81019080803590602001909291905050506107d4565b604051808215151515815260200191505060405180910390f35b61029f6004803603602081101561027357600080fd5b81019080803573ffffffffffffffffffffffffffffffffffffffff1690602001909291905050506107f4565b005b6102a96109b7565b604051808273ffffffffffffffffffffffffffffffffffffffff1673ffffffffffffffffffffffffffffffffffffffff16815260200191505060405180910390f35b6103216004803603604081101561030157600080fd5b8101908080359060200190929190803590602001909291905050506109dd565b604051808273ffffffffffffffffffffffffffffffffffffffff1673ffffffffffffffffffffffffffffffffffffffff16815260200191505060405180910390f35b6103af6004803603604081101561037957600080fd5b8101908080359060200190929190803573ffffffffffffffffffffffffffffffffffffffff169060200190929190505050610a0e565b604051808215151515815260200191505060405180910390f35b6103d1610a3f565b6040518082815260200191505060405180910390f35b610429600480360360208110156103fd57600080fd5b81019080803573ffffffffffffffffffffffffffffffffffffffff169060200190929190505050610a46565b005b610433610bec565b604051808273ffffffffffffffffffffffffffffffffffffffff1673ffffffffffffffffffffffffffffffffffffffff16815260200191505060405180910390f35b61047d610c12565b6040518082815260200191505060405180910390f35b6104d5600480360360208110156104a957600080fd5b81019080803573ffffffffffffffffffffffffffffffffffffffff169060200190929190505050610c18565b005b610503600480360360208110156104ed57600080fd5b8101908080359060200190929190505050610dbe565b6040518082815260200191505060405180910390f35b610521610de4565b604051808273ffffffffffffffffffffffffffffffffffffffff1673ffffffffffffffffffffffffffffffffffffffff16815260200191505060405180910390f35b6105af6004803603604081101561057957600080fd5b8101908080359060200190929190803573ffffffffffffffffffffffffffffffffffffffff169060200190929190505050610e0a565b005b61066a600480360360208110156105c757600080fd5b81019080803590602001906401000000008111156105e457600080fd5b8201836020820111156105f657600080fd5b8035906020019184600183028401116401000000008311171561061857600080fd5b91908080601f016020809104026020016040519081016040528093929190818152602001838380828437600081840152601f19601f820116905080830192505050505050509192919290505050610e93565b005b7f8c5261668696ce22758910d05bab8f186d6eb247ceac2af2e82c7dc17669b03660001b81565b6000806000838152602001908152602001600020600201549050919050565b6106d8600080848152602001908152602001600020600201546106d3610ead565b610a0e565b61072d576040517f08c379a000000000000000000000000000000000000000000000000000000000815260040180806020018281038252602f815260200180612cb0602f913960400191505060405180910390fd5b6107378282610eb5565b5050565b610743610ead565b73ffffffffffffffffffffffffffffffffffffffff168173ffffffffffffffffffffffffffffffffffffffff16146107c6576040517f08c379a000000000000000000000000000000000000000000000000000000000815260040180806020018281038252602f815260200180612d78602f913960400191505060405180910390fd5b6107d08282610f48565b5050565b60056020528060005260406000206000915054906101000a900460ff1681565b6000801b61080981610804610ead565b610a0e565b6001906108ce576040517f08c379a000000000000000000000000000000000000000000000000000000000815260040180806020018281038252838181546001816001161561010002031660029004815260200191508054600181600116156101000203166002900480156108bf5780601f10610894576101008083540402835291602001916108bf565b820191906000526020600020905b8154815290600101906020018083116108a257829003601f168201915b50509250505060405180910390fd5b50600073ffffffffffffffffffffffffffffffffffffffff168273ffffffffffffffffffffffffffffffffffffffff161415610972576040517f08c379a00000000000000000000000000000000000000000000000000000000081526004018080602001828103825260208152602001807f526f6f7454756e6e656c3a204241445f4e45575f53544154455f53454e44455281525060200191505060405180910390fd5b81600260006101000a81548173ffffffffffffffffffffffffffffffffffffffff021916908373ffffffffffffffffffffffffffffffffffffffff1602179055505050565b600460009054906101000a900473ffffffffffffffffffffffffffffffffffffffff1681565b6000610a0682600080868152602001908152602001600020600001610fdb90919063ffffffff16565b905092915050565b6000610a3782600080868152602001908152602001600020600001610ff590919063ffffffff16565b905092915050565b6000801b81565b6000801b610a5b81610a56610ead565b610a0e565b600190610b20576040517f08c379a00000000000000000000000000000000000000000000000000000000081526004018080602001828103825283818154600181600116156101000203166002900481526020019150805460018160011615610100020316600290048015610b115780601f10610ae657610100808354040283529160200191610b11565b820191906000526020600020905b815481529060010190602001808311610af457829003601f168201915b50509250505060405180910390fd5b50600073ffffffffffffffffffffffffffffffffffffffff168273ffffffffffffffffffffffffffffffffffffffff161415610ba7576040517f08c379a0000000000000000000000000000000000000000000000000000000008152600401808060200182810382526026815260200180612cdf6026913960400191505060405180910390fd5b81600360006101000a81548173ffffffffffffffffffffffffffffffffffffffff021916908373ffffffffffffffffffffffffffffffffffffffff1602179055505050565b600360009054906101000a900473ffffffffffffffffffffffffffffffffffffffff1681565b60065481565b6000801b610c2d81610c28610ead565b610a0e565b600190610cf2576040517f08c379a00000000000000000000000000000000000000000000000000000000081526004018080602001828103825283818154600181600116156101000203166002900481526020019150805460018160011615610100020316600290048015610ce35780601f10610cb857610100808354040283529160200191610ce3565b820191906000526020600020905b815481529060010190602001808311610cc657829003601f168201915b50509250505060405180910390fd5b50600073ffffffffffffffffffffffffffffffffffffffff168273ffffffffffffffffffffffffffffffffffffffff161415610d79576040517f08c379a0000000000000000000000000000000000000000000000000000000008152600401808060200182810382526028815260200180612da76028913960400191505060405180910390fd5b81600460006101000a81548173ffffffffffffffffffffffffffffffffffffffff021916908373ffffffffffffffffffffffffffffffffffffffff1602179055505050565b6000610ddd600080848152602001908152602001600020600001611025565b9050919050565b600260009054906101000a900473ffffffffffffffffffffffffffffffffffffffff1681565b610e3060008084815260200190815260200160002060020154610e2b610ead565b610a0e565b610e85576040517f08c379a0000000000000000000000000000000000000000000000000000000008152600401808060200182810382526030815260200180612d056030913960400191505060405180910390fd5b610e8f8282610f48565b5050565b6060610e9e8261103a565b9050610ea981611500565b5050565b600033905090565b610edc8160008085815260200190815260200160002060000161156c90919063ffffffff16565b15610f4457610ee9610ead565b73ffffffffffffffffffffffffffffffffffffffff168173ffffffffffffffffffffffffffffffffffffffff16837f2f8788117e7eff1d82e926ec794901d17c78024a50270940304540a733656f0d60405160405180910390a45b5050565b610f6f8160008085815260200190815260200160002060000161159c90919063ffffffff16565b15610fd757610f7c610ead565b73ffffffffffffffffffffffffffffffffffffffff168173ffffffffffffffffffffffffffffffffffffffff16837ff6391f5c32d9c69d2a47ea670b442974b53935d1edc7fd64eb21e047a839171b60405160405180910390a45b5050565b6000610fea83600001836115cc565b60001c905092915050565b600061101d836000018373ffffffffffffffffffffffffffffffffffffffff1660001b61164f565b905092915050565b600061103382600001611672565b9050919050565b6060611044612c0c565b61104d83611683565b9050606061105a826116b7565b90506000611067836116e1565b6110708361170b565b611079856118d2565b6040516020018084815260200183805190602001908083835b602083106110b55780518252602082019150602081019050602083039250611092565b6001836020036101000a0380198251168184511680821785525050505050509050018281526020019350505050604051602081830303815290604052805190602001209050600015156005600083815260200190815260200160002060009054906101000a900460ff16151514611177576040517f08c379a0000000000000000000000000000000000000000000000000000000008152600401808060200182810382526022815260200180612d356022913960400191505060405180910390fd5b60016005600083815260200190815260200160002060006101000a81548160ff0219169083151502179055506111ab612c1f565b6111b4846118fc565b90506111be612c40565b6111c782611a18565b90506111d281611a87565b73ffffffffffffffffffffffffffffffffffffffff16600460009054906101000a900473ffffffffffffffffffffffffffffffffffffffff1673ffffffffffffffffffffffffffffffffffffffff1614611294576040517f08c379a00000000000000000000000000000000000000000000000000000000081526004018080602001828103825260208152602001807f526f6f7454756e6e656c3a20494e56414c49445f4348494c445f54554e4e454c81525060200191505060405180910390fd5b6112b86112a083611ab1565b856112aa88611abf565b6112b389611ae9565b611b16565b61130d576040517f08c379a0000000000000000000000000000000000000000000000000000000008152600401808060200182810382526021815260200180612d576021913960400191505060405180910390fd5b61134b611319866116e1565b61132287611dd1565b61132b88611dfb565b61133489611ae9565b61133d8a611e28565b6113468b611e52565b611e7c565b50611354612c60565b61135d82612049565b90507f8c5261668696ce22758910d05bab8f186d6eb247ceac2af2e82c7dc17669b03660001b61139f61139a60008461208790919063ffffffff16565b6120af565b60001b14611415576040517f08c379a000000000000000000000000000000000000000000000000000000000815260040180806020018281038252601d8152602001807f526f6f7454756e6e656c3a20494e56414c49445f5349474e415455524500000081525060200191505060405180910390fd5b606061142083612109565b806020019051602081101561143457600080fd5b810190808051604051939291908464010000000082111561145457600080fd5b8382019150602082018581111561146a57600080fd5b825186600182028301116401000000008211171561148757600080fd5b8083526020830192505050908051906020019080838360005b838110156114bb5780820151818401526020810190506114a0565b50505050905090810190601f1680156114e85780820380516001836020036101000a031916815260200191505b50604052505050905080975050505050505050919050565b600081806020019051602081101561151757600080fd5b810190808051906020019092919050505090507f898be1981b8ae7b9d60bff0dda850b61e6ea5be09fab181db7ecbaa6dcac6fba816040518082815260200191505060405180910390a1806006819055505050565b6000611594836000018373ffffffffffffffffffffffffffffffffffffffff1660001b612133565b905092915050565b60006115c4836000018373ffffffffffffffffffffffffffffffffffffffff1660001b6121a3565b905092915050565b60008183600001805490501161162d576040517f08c379a0000000000000000000000000000000000000000000000000000000008152600401808060200182810382526022815260200180612c8e6022913960400191505060405180910390fd5b82600001828154811061163c57fe5b9060005260206000200154905092915050565b600080836001016000848152602001908152602001600020541415905092915050565b600081600001805490509050919050565b61168b612c0c565b606061169e6116998461228b565b6122b9565b9050604051806020016040528082815250915050919050565b60606116da82600001516008815181106116cd57fe5b60200260200101516123ad565b9050919050565b600061170482600001516002815181106116f757fe5b60200260200101516120af565b9050919050565b6060806040518060200160405280600081525090506000835111156118c95760008061173860008661243e565b60f81c905060018160ff161480611752575060038160ff16145b1561180157600160028651020367ffffffffffffffff8111801561177557600080fd5b506040519080825280601f01601f1916602001820160405280156117a85781602001600182028036833780820191505090505b50925060006117b860018761243e565b905080846000815181106117c857fe5b60200101907effffffffffffffffffffffffffffffffffffffffffffffffffffffffffffff1916908160001a9053506001925050611859565b6002808651020367ffffffffffffffff8111801561181e57600080fd5b506040519080825280601f01601f1916602001820160405280156118515781602001600182028036833780820191505090505b509250600091505b60008260ff1690505b83518110156118c55761187d60028460ff168303018761243e565b84828151811061188957fe5b60200101907effffffffffffffffffffffffffffffffffffffffffffffffffffffffffffff1916908160001a9053508080600101915050611862565b5050505b80915050919050565b60006118f582600001516009815181106118e857fe5b60200260200101516120af565b9050919050565b611904612c1f565b611925826000015160068151811061191857fe5b60200260200101516123ad565b8160200181905250611935612c73565b611942826020015161228b565b905061194d816124c4565b156119685761195b816122b9565b82600001819052506119fd565b6060826020015190506060600182510367ffffffffffffffff8111801561198e57600080fd5b506040519080825280601f01601f1916602001820160405280156119c15781602001600182028036833780820191505090505b5090506000808360210191508260200190506119df82828551612512565b6119f06119eb8461228b565b6122b9565b8660000181905250505050505b611a06836118d2565b82604001818152505081915050919050565b611a20612c40565b611a28612c73565b611a498360000151600381518110611a3c57fe5b60200260200101516122b9565b836040015181518110611a5857fe5b602002602001015190506040518060400160405280828152602001611a7c836122b9565b815250915050919050565b6000611aaa8260200151600081518110611a9d57fe5b6020026020010151612579565b9050919050565b606081602001519050919050565b6060611ae28260000151600781518110611ad557fe5b60200260200101516123ad565b9050919050565b6000611b0c8260000151600581518110611aff57fe5b60200260200101516120af565b60001b9050919050565b6000611b20612c73565b611b298461228b565b90506060611b36826122b9565b9050606080600086905060008090506060611b508b61170b565b9050600081511415611b6c576000975050505050505050611dc9565b60008090505b8651811015611dc0578151831115611b9557600098505050505050505050611dc9565b611bb1878281518110611ba457fe5b602002602001015161259c565b955085805190602001208414611bd257600098505050505050505050611dc9565b611bee878281518110611be157fe5b60200260200101516122b9565b9450601185511415611cc3578151831415611c57578c80519060200120611c2886601081518110611c1b57fe5b60200260200101516123ad565b805190602001201415611c4657600198505050505050505050611dc9565b600098505050505050505050611dc9565b6000828481518110611c6557fe5b602001015160f81c60f81b60f81c905060108160ff161115611c935760009950505050505050505050611dc9565b611cb2868260ff1681518110611ca557fe5b6020026020010151612629565b60001b945060018401935050611db3565b600285511415611da1576000611cf6611cef87600081518110611ce257fe5b60200260200101516123ad565b8486612657565b905082518185011415611d59578d80519060200120611d2887600181518110611d1b57fe5b60200260200101516123ad565b805190602001201415611d475760019950505050505050505050611dc9565b60009950505050505050505050611dc9565b6000811415611d745760009950505050505050505050611dc9565b8084019350611d9686600181518110611d8957fe5b6020026020010151612629565b60001b945050611db2565b600098505050505050505050611dc9565b5b8080600101915050611b72565b50505050505050505b949350505050565b6000611df48260000151600381518110611de757fe5b60200260200101516120af565b9050919050565b6000611e1e8260000151600481518110611e1157fe5b60200260200101516120af565b60001b9050919050565b6000611e4b8260000151600081518110611e3e57fe5b60200260200101516120af565b9050919050565b6060611e758260000151600181518110611e6857fe5b60200260200101516123ad565b9050919050565b600080600080600360009054906101000a900473ffffffffffffffffffffffffffffffffffffffff1673ffffffffffffffffffffffffffffffffffffffff166341539d4a876040518263ffffffff1660e01b81526004018082815260200191505060a06040518083038186803b158015611ef557600080fd5b505afa158015611f09573d6000803e3d6000fd5b505050506040513d60a0811015611f1f57600080fd5b8101908080519060200190929190805190602001909291908051906020019092919080519060200190929190805190602001909291905050505093505092509250611fc7611f76838c61276590919063ffffffff16565b84878d8d8d8d60405160200180858152602001848152602001838152602001828152602001945050505050604051602081830303815290604052805190602001206127e8909392919063ffffffff16565b612039576040517f08c379a000000000000000000000000000000000000000000000000000000000815260040180806020018281038252601a8152602001807f526f6f7454756e6e656c3a20494e56414c49445f48454144455200000000000081525060200191505060405180910390fd5b8093505050509695505050505050565b612051612c60565b604051806020016040528061207d846020015160018151811061207057fe5b60200260200101516122b9565b8152509050919050565b61208f612c73565b8260000151828151811061209f57fe5b6020026020010151905092915050565b60008082600001511180156120c957506021826000015111155b6120d257600080fd5b6000806120de846129b1565b9150915060008251905060208210156120fe57816020036101000a810490505b809350505050919050565b606061212c826020015160028151811061211f57fe5b60200260200101516123ad565b9050919050565b600061213f838361164f565b61219857826000018290806001815401808255809150506001900390600052602060002001600090919091909150558260000180549050836001016000848152602001908152602001600020819055506001905061219d565b600090505b92915050565b6000808360010160008481526020019081526020016000205490506000811461227f57600060018203905060006001866000018054905003905060008660000182815481106121ee57fe5b906000526020600020015490508087600001848154811061220b57fe5b906000526020600020018190555060018301876001016000838152602001908152602001600020819055508660000180548061224357fe5b60019003818190600052602060002001600090559055866001016000878152602001908152602001600020600090556001945050505050612285565b60009150505b92915050565b612293612c73565b600060208301905060405180604001604052808451815260200182815250915050919050565b60606122c4826124c4565b6122cd57600080fd5b60006122d8836129e9565b905060608167ffffffffffffffff811180156122f357600080fd5b5060405190808252806020026020018201604052801561232d57816020015b61231a612c73565b8152602001906001900390816123125790505b509050600061233f8560200151612a5a565b8560200151019050600080600090505b848110156123a05761236083612ae3565b915060405180604001604052808381526020018481525084828151811061238357fe5b60200260200101819052508183019250808060010191505061234f565b5082945050505050919050565b606060008260000151116123c057600080fd5b6000806123cc846129b1565b9150915060608167ffffffffffffffff811180156123e957600080fd5b506040519080825280601f01601f19166020018201604052801561241c5781602001600182028036833780820191505090505b5090506000816020019050612432848285612b9b565b81945050505050919050565b6000806002848161244b57fe5b0614612487576010826002858161245e57fe5b048151811061246957fe5b602001015160f81c60f81b60f81c60ff168161248157fe5b066124b9565b6010826002858161249457fe5b048151811061249f57fe5b602001015160f81c60f81b60f81c60ff16816124b757fe5b045b60f81b905092915050565b600080826000015114156124db576000905061250d565b60008083602001519050805160001a915060c060ff168260ff1610156125065760009250505061250d565b6001925050505b919050565b600081141561252057612574565b5b602060ff1681106125505782518252602060ff1683019250602060ff1682019150602060ff1681039050612521565b6000600182602060ff16036101000a03905080198451168184511681811785525050505b505050565b6000601582600001511461258c57600080fd5b612595826120af565b9050919050565b606080826000015167ffffffffffffffff811180156125ba57600080fd5b506040519080825280601f01601f1916602001820160405280156125ed5781602001600182028036833780820191505090505b5090506000815114156126035780915050612624565b600081602001905061261e8460200151828660000151612b9b565b81925050505b919050565b6000602182600001511461263c57600080fd5b60008060018460200151019050805191508192505050919050565b6000806000905060606126698661170b565b90506060815167ffffffffffffffff8111801561268557600080fd5b506040519080825280601f01601f1916602001820160405280156126b85781602001600182028036833780820191505090505b50905060008590505b825186018110156127335760008782815181106126da57fe5b602001015160f81c60f81b90508083888403815181106126f657fe5b60200101907effffffffffffffffffffffffffffffffffffffffffffffffffffffffffffff1916908160001a9053505080806001019150506126c1565b508080519060200120828051906020012014156127535781519250612758565b600092505b8293505050509392505050565b6000828211156127dd576040517f08c379a000000000000000000000000000000000000000000000000000000000815260040180806020018281038252601e8152602001807f536166654d6174683a207375627472616374696f6e206f766572666c6f77000081525060200191505060405180910390fd5b818303905092915050565b60008060208351816127f657fe5b061461286a576040517f08c379a00000000000000000000000000000000000000000000000000000000081526004018080602001828103825260148152602001807f496e76616c69642070726f6f66206c656e67746800000000000000000000000081525060200191505060405180910390fd5b6000602083518161287757fe5b0490508060020a85106128f2576040517f08c379a00000000000000000000000000000000000000000000000000000000081526004018080602001828103825260158152602001807f4c65616620696e64657820697320746f6f20626967000000000000000000000081525060200191505060405180910390fd5b6000808790506000602090505b855181116129a05780860151925060006002898161291957fe5b0614156129565781836040516020018083815260200182815260200192505050604051602081830303815290604052805190602001209150612988565b828260405160200180838152602001828152602001925050506040516020818303038152906040528051906020012091505b6002888161299257fe5b0497506020810190506128ff565b508581149350505050949350505050565b60008060006129c38460200151612a5a565b905060008185602001510190506000828660000151039050818194509450505050915091565b60008082600001511415612a005760009050612a55565b60008090506000612a148460200151612a5a565b84602001510190506000846000015185602001510190505b80821015612a4e57612a3d82612ae3565b820191508280600101935050612a2c565b8293505050505b919050565b600080825160001a9050608060ff16811015612a7a576000915050612ade565b60b860ff16811080612a9f575060c060ff168110158015612a9e575060f860ff1681105b5b15612aae576001915050612ade565b60c060ff16811015612ace5760018060b80360ff16820301915050612ade565b60018060f80360ff168203019150505b919050565b6000806000835160001a9050608060ff16811015612b045760019150612b91565b60b860ff16811015612b21576001608060ff168203019150612b90565b60c060ff16811015612b515760b78103600185019450806020036101000a85510460018201810193505050612b8f565b60f860ff16811015612b6e57600160c060ff168203019150612b8e565b60f78103600185019450806020036101000a855104600182018101935050505b5b5b5b8192505050919050565b6000811415612ba957612c07565b5b602060ff168110612bd95782518252602060ff1683019250602060ff1682019150602060ff1681039050612baa565b6000811115612c06576000600182602060ff16036101000a03905080198451168184511681811785525050505b5b505050565b6040518060200160405280606081525090565b60405180606001604052806060815260200160608152602001600081525090565b6040518060400160405280612c53612c73565b8152602001606081525090565b6040518060200160405280606081525090565b60405180604001604052806000815260200160008152509056fe456e756d657261626c655365743a20696e646578206f7574206f6620626f756e6473416363657373436f6e74726f6c3a2073656e646572206d75737420626520616e2061646d696e20746f206772616e74526f6f7454756e6e656c3a204241445f4e45575f434845434b504f494e545f4d414e41474552416363657373436f6e74726f6c3a2073656e646572206d75737420626520616e2061646d696e20746f207265766f6b65526f6f7454756e6e656c3a20455849545f414c52454144595f50524f434553534544526f6f7454756e6e656c3a20494e56414c49445f524543454950545f50524f4f46416363657373436f6e74726f6c3a2063616e206f6e6c792072656e6f756e636520726f6c657320666f722073656c66526f6f7454756e6e656c3a20494e56414c49445f4348494c445f54554e4e454c5f41444452455353a26469706673582212208aac1296e67ec5b0dde1da06a403c21613455e5317df961bd8c183f399a72fe864736f6c63430006060033",
  "linkReferences": {},
  "deployedLinkReferences": {}
}