{
  "_format": "hh-sol-artifact-1",
  "contractName": "TestRootTunnel",
  "sourceName": "contracts/test/TestRootTunnel.sol",
  "abi": [
    {
      "anonymous": false,
      "inputs": [
        {
          "indexed": false,
          "internalType": "uint256",
          "name": "",
          "type": "uint256"
        }
      ],
      "name": "MessageReceivedFromChild",
      "type": "event"
    },
    {
      "anonymous": false,
      "inputs": [
        {
          "indexed": true,
          "internalType": "bytes32",
          "name": "role",
          "type": "bytes32"
        },
        {
          "indexed": true,
          "internalType": "bytes32",
          "name": "previousAdminRole",
          "type": "bytes32"
        },
        {
          "indexed": true,
          "internalType": "bytes32",
          "name": "newAdminRole",
          "type": "bytes32"
        }
      ],
      "name": "RoleAdminChanged",
      "type": "event"
    },
    {
      "anonymous": false,
      "inputs": [
        {
          "indexed": true,
          "internalType": "bytes32",
          "name": "role",
          "type": "bytes32"
        },
        {
          "indexed": true,
          "internalType": "address",
          "name": "account",
          "type": "address"
        },
        {
          "indexed": true,
          "internalType": "address",
          "name": "sender",
          "type": "address"
        }
      ],
      "name": "RoleGranted",
      "type": "event"
    },
    {
      "anonymous": false,
      "inputs": [
        {
          "indexed": true,
          "internalType": "bytes32",
          "name": "role",
          "type": "bytes32"
        },
        {
          "indexed": true,
          "internalType": "address",
          "name": "account",
          "type": "address"
        },
        {
          "indexed": true,
          "internalType": "address",
          "name": "sender",
          "type": "address"
        }
      ],
      "name": "RoleRevoked",
      "type": "event"
    },
    {
      "inputs": [],
      "name": "DEFAULT_ADMIN_ROLE",
      "outputs": [
        {
          "internalType": "bytes32",
          "name": "",
          "type": "bytes32"
        }
      ],
      "stateMutability": "view",
      "type": "function"
    },
    {
      "inputs": [],
      "name": "SEND_MESSAGE_EVENT_SIG",
      "outputs": [
        {
          "internalType": "bytes32",
          "name": "",
          "type": "bytes32"
        }
      ],
      "stateMutability": "view",
      "type": "function"
    },
    {
      "inputs": [],
      "name": "checkpointManager",
      "outputs": [
        {
          "internalType": "contract ICheckpointManager",
          "name": "",
          "type": "address"
        }
      ],
      "stateMutability": "view",
      "type": "function"
    },
    {
      "inputs": [],
      "name": "childTunnel",
      "outputs": [
        {
          "internalType": "address",
          "name": "",
          "type": "address"
        }
      ],
      "stateMutability": "view",
      "type": "function"
    },
    {
      "inputs": [
        {
          "internalType": "bytes32",
          "name": "role",
          "type": "bytes32"
        }
      ],
      "name": "getRoleAdmin",
      "outputs": [
        {
          "internalType": "bytes32",
          "name": "",
          "type": "bytes32"
        }
      ],
      "stateMutability": "view",
      "type": "function"
    },
    {
      "inputs": [
        {
          "internalType": "bytes32",
          "name": "role",
          "type": "bytes32"
        },
        {
          "internalType": "uint256",
          "name": "index",
          "type": "uint256"
        }
      ],
      "name": "getRoleMember",
      "outputs": [
        {
          "internalType": "address",
          "name": "",
          "type": "address"
        }
      ],
      "stateMutability": "view",
      "type": "function"
    },
    {
      "inputs": [
        {
          "internalType": "bytes32",
          "name": "role",
          "type": "bytes32"
        }
      ],
      "name": "getRoleMemberCount",
      "outputs": [
        {
          "internalType": "uint256",
          "name": "",
          "type": "uint256"
        }
      ],
      "stateMutability": "view",
      "type": "function"
    },
    {
      "inputs": [
        {
          "internalType": "bytes32",
          "name": "role",
          "type": "bytes32"
        },
        {
          "internalType": "address",
          "name": "account",
          "type": "address"
        }
      ],
      "name": "grantRole",
      "outputs": [],
      "stateMutability": "nonpayable",
      "type": "function"
    },
    {
      "inputs": [
        {
          "internalType": "bytes32",
          "name": "role",
          "type": "bytes32"
        },
        {
          "internalType": "address",
          "name": "account",
          "type": "address"
        }
      ],
      "name": "hasRole",
      "outputs": [
        {
          "internalType": "bool",
          "name": "",
          "type": "bool"
        }
      ],
      "stateMutability": "view",
      "type": "function"
    },
    {
      "inputs": [
        {
          "internalType": "bytes32",
          "name": "",
          "type": "bytes32"
        }
      ],
      "name": "processedExits",
      "outputs": [
        {
          "internalType": "bool",
          "name": "",
          "type": "bool"
        }
      ],
      "stateMutability": "view",
      "type": "function"
    },
    {
      "inputs": [
        {
          "internalType": "bytes",
          "name": "inputData",
          "type": "bytes"
        }
      ],
      "name": "receiveMessage",
      "outputs": [],
      "stateMutability": "nonpayable",
      "type": "function"
    },
    {
      "inputs": [],
      "name": "receivedNumber",
      "outputs": [
        {
          "internalType": "uint256",
          "name": "",
          "type": "uint256"
        }
      ],
      "stateMutability": "view",
      "type": "function"
    },
    {
      "inputs": [
        {
          "internalType": "bytes32",
          "name": "role",
          "type": "bytes32"
        },
        {
          "internalType": "address",
          "name": "account",
          "type": "address"
        }
      ],
      "name": "renounceRole",
      "outputs": [],
      "stateMutability": "nonpayable",
      "type": "function"
    },
    {
      "inputs": [
        {
          "internalType": "bytes32",
          "name": "role",
          "type": "bytes32"
        },
        {
          "internalType": "address",
          "name": "account",
          "type": "address"
        }
      ],
      "name": "revokeRole",
      "outputs": [],
      "stateMutability": "nonpayable",
      "type": "function"
    },
    {
      "inputs": [
        {
          "internalType": "address",
          "name": "newCheckpointManager",
          "type": "address"
        }
      ],
      "name": "setCheckpointManager",
      "outputs": [],
      "stateMutability": "nonpayable",
      "type": "function"
    },
    {
      "inputs": [
        {
          "internalType": "address",
          "name": "newChildTunnel",
          "type": "address"
        }
      ],
      "name": "setChildTunnel",
      "outputs": [],
      "stateMutability": "nonpayable",
      "type": "function"
    },
    {
      "inputs": [
        {
          "internalType": "address",
          "name": "newStateSender",
          "type": "address"
        }
      ],
      "name": "setStateSender",
      "outputs": [],
      "stateMutability": "nonpayable",
      "type": "function"
    },
    {
      "inputs": [],
      "name": "stateSender",
      "outputs": [
        {
          "internalType": "contract IStateSender",
          "name": "",
          "type": "address"
        }
      ],
      "stateMutability": "view",
      "type": "function"
    }
  ],
  "bytecode": "0x60806040526200001a6000336001600160e01b036200005516565b60408051808201909152600a815269149bdbdd151d5b9b995b60b21b60208201526200004f906001600160e01b036200006e16565b620002d2565b6200006a82826001600160e01b036200011016565b5050565b806040516020018082805190602001908083835b60208310620000a35780518252601f19909201916020918201910162000082565b51815160209384036101000a60001901801990921691161790527f3a20494e53554646494349454e545f5045524d495353494f4e530000000000009190930190815260408051808303600519018152601a909201905280516200006a955060019450920191905062000230565b6000828152602081815260409091206200013591839062000e0862000192821b17901c565b156200006a576200014e6001600160e01b03620001bb16565b6001600160a01b0316816001600160a01b0316837f2f8788117e7eff1d82e926ec794901d17c78024a50270940304540a733656f0d60405160405180910390a45050565b6000620001b2836001600160a01b0384166001600160e01b03620001c016565b90505b92915050565b335b90565b6000620001d783836001600160e01b036200021816565b6200020f57508154600181810184556000848152602080822090930184905584548482528286019093526040902091909155620001b5565b506000620001b5565b60009081526001919091016020526040902054151590565b828054600181600116156101000203166002900490600052602060002090601f016020900481019282601f106200027357805160ff1916838001178555620002a3565b82800160010185558215620002a3579182015b82811115620002a357825182559160200191906001019062000286565b50620002b1929150620002b5565b5090565b620001bd91905b80821115620002b15760008155600101620002bc565b6121e580620002e26000396000f3fe608060405234801561001057600080fd5b50600436106101165760003560e01c8063a217fddf116100a2578063ca02b26711610071578063ca02b267146102b4578063ca15c873146102da578063cb10f94c146102f7578063d547741f146102ff578063f953cec71461032b57610116565b8063a217fddf14610276578063bc08452b1461027e578063c0857ba0146102a4578063c9f703a9146102ac57610116565b8063607f2d42116100e9578063607f2d42146101ac5780636cb136b0146101dd5780636d6aa34d146102035780639010d07c1461022757806391d148541461024a57610116565b80630e387de61461011b578063248a9ca3146101355780632f2ff15d1461015257806336568abe14610180575b600080fd5b61012361039b565b60408051918252519081900360200190f35b6101236004803603602081101561014b57600080fd5b50356103bf565b61017e6004803603604081101561016857600080fd5b50803590602001356001600160a01b03166103d7565b005b61017e6004803603604081101561019657600080fd5b50803590602001356001600160a01b0316610443565b6101c9600480360360208110156101c257600080fd5b50356104a4565b604080519115158252519081900360200190f35b61017e600480360360208110156101f357600080fd5b50356001600160a01b03166104b9565b61020b6105e6565b604080516001600160a01b039092168252519081900360200190f35b61020b6004803603604081101561023d57600080fd5b50803590602001356105f5565b6101c96004803603604081101561026057600080fd5b50803590602001356001600160a01b031661061c565b61012361063a565b61017e6004803603602081101561029457600080fd5b50356001600160a01b031661063f565b61020b61071c565b61012361072b565b61017e600480360360208110156102ca57600080fd5b50356001600160a01b0316610731565b610123600480360360208110156102f057600080fd5b503561080e565b61020b610825565b61017e6004803603604081101561031557600080fd5b50803590602001356001600160a01b0316610834565b61017e6004803603602081101561034157600080fd5b81019060208101813564010000000081111561035c57600080fd5b82018360208201111561036e57600080fd5b8035906020019184600183028401116401000000008311171561039057600080fd5b50909250905061088d565b7f8c5261668696ce22758910d05bab8f186d6eb247ceac2af2e82c7dc17669b03681565b6000818152602081905260409020600201545b919050565b6000828152602081905260409020600201546103fa906103f56108de565b61061c565b6104355760405162461bcd60e51b815260040180806020018281038252602f815260200180612091602f913960400191505060405180910390fd5b61043f82826108e2565b5050565b61044b6108de565b6001600160a01b0316816001600160a01b03161461049a5760405162461bcd60e51b815260040180806020018281038252602f815260200180612159602f913960400191505060405180910390fd5b61043f8282610951565b60056020526000908152604090205460ff1681565b60006104c7816103f56108de565b6001906105675760405162461bcd60e51b81526020600482019081528254600260001961010060018416150201909116046024830181905290918291604490910190849080156105585780601f1061052d57610100808354040283529160200191610558565b820191906000526020600020905b81548152906001019060200180831161053b57829003601f168201915b50509250505060405180910390fd5b506001600160a01b0382166105c3576040805162461bcd60e51b815260206004820181905260248201527f526f6f7454756e6e656c3a204241445f4e45575f53544154455f53454e444552604482015290519081900360640190fd5b50600280546001600160a01b0319166001600160a01b0392909216919091179055565b6004546001600160a01b031681565b6000828152602081905260408120610613908363ffffffff6109c016565b90505b92915050565b6000828152602081905260408120610613908363ffffffff6109cc16565b600081565b600061064d816103f56108de565b6001906106b35760405162461bcd60e51b81526020600482019081528254600260001961010060018416150201909116046024830181905290918291604490910190849080156105585780601f1061052d57610100808354040283529160200191610558565b506001600160a01b0382166106f95760405162461bcd60e51b81526004018080602001828103825260268152602001806120c06026913960400191505060405180910390fd5b50600380546001600160a01b0319166001600160a01b0392909216919091179055565b6003546001600160a01b031681565b60065481565b600061073f816103f56108de565b6001906107a55760405162461bcd60e51b81526020600482019081528254600260001961010060018416150201909116046024830181905290918291604490910190849080156105585780601f1061052d57610100808354040283529160200191610558565b506001600160a01b0382166107eb5760405162461bcd60e51b81526004018080602001828103825260288152602001806121886028913960400191505060405180910390fd5b50600480546001600160a01b0319166001600160a01b0392909216919091179055565b6000818152602081905260408120610616906109e1565b6002546001600160a01b031681565b600082815260208190526040902060020154610852906103f56108de565b61049a5760405162461bcd60e51b81526004018080602001828103825260308152602001806120e66030913960400191505060405180910390fd5b60606108ce83838080601f0160208091040260200160405190810160405280939291908181526020018383808284376000920191909152506109ec92505050565b90506108d981610db2565b505050565b3390565b6000828152602081905260409020610900908263ffffffff610e0816565b1561043f5761090d6108de565b6001600160a01b0316816001600160a01b0316837f2f8788117e7eff1d82e926ec794901d17c78024a50270940304540a733656f0d60405160405180910390a45050565b600082815260208190526040902061096f908263ffffffff610e1d16565b1561043f5761097c6108de565b6001600160a01b0316816001600160a01b0316837ff6391f5c32d9c69d2a47ea670b442974b53935d1edc7fd64eb21e047a839171b60405160405180910390a45050565b60006106138383610e32565b6000610613836001600160a01b038416610e96565b600061061682610eae565b60606109f6612000565b6109ff83610eb2565b90506060610a0c82610ee2565b90506000610a1983610f05565b610a2283610f28565b610a2b8561109b565b6040516020018084815260200183805190602001908083835b60208310610a635780518252601f199092019160209182019101610a44565b51815160209384036101000a6000190180199092169116179052920193845250604080518085038152938201815283519382019390932060008181526005909252929020549194505060ff16159150610aef90505760405162461bcd60e51b81526004018080602001828103825260228152602001806121166022913960400191505060405180910390fd5b6000818152600560205260409020805460ff19166001179055610b10612013565b610b19846110b1565b9050610b23612034565b610b2c8261119b565b9050610b3781611208565b6004546001600160a01b03908116911614610b99576040805162461bcd60e51b815260206004820181905260248201527f526f6f7454756e6e656c3a20494e56414c49445f4348494c445f54554e4e454c604482015290519081900360640190fd5b610bbd610ba58361122b565b85610baf88611232565b610bb889611248565b61125e565b610bf85760405162461bcd60e51b81526004018080602001828103825260218152602001806121386021913960400191505060405180910390fd5b610c36610c0486610f05565b610c0d876114a9565b610c16886114bf565b610c1f89611248565b610c288a6114d5565b610c318b6114eb565b611501565b610c3e612000565b610c478261163e565b90507f8c5261668696ce22758910d05bab8f186d6eb247ceac2af2e82c7dc17669b036610c83610c7e83600063ffffffff61166d16565b611693565b14610cd5576040805162461bcd60e51b815260206004820152601d60248201527f526f6f7454756e6e656c3a20494e56414c49445f5349474e4154555245000000604482015290519081900360640190fd5b6060610ce0836116e0565b8060200190516020811015610cf457600080fd5b8101908080516040519392919084640100000000821115610d1457600080fd5b908301906020820185811115610d2957600080fd5b8251640100000000811182820188101715610d4357600080fd5b82525081516020918201929091019080838360005b83811015610d70578181015183820152602001610d58565b50505050905090810190601f168015610d9d5780820380516001836020036101000a031916815260200191505b5060405250919b9a5050505050505050505050565b6000818060200190516020811015610dc957600080fd5b50516040805182815290519192507f898be1981b8ae7b9d60bff0dda850b61e6ea5be09fab181db7ecbaa6dcac6fba919081900360200190a160065550565b6000610613836001600160a01b0384166116f6565b6000610613836001600160a01b038416611740565b81546000908210610e745760405162461bcd60e51b815260040180806020018281038252602281526020018061206f6022913960400191505060405180910390fd5b826000018281548110610e8357fe5b9060005260206000200154905092915050565b60009081526001919091016020526040902054151590565b5490565b610eba612000565b6060610ecd610ec884611806565b61182b565b60408051602081019091529081529392505050565b60606106168260000151600881518110610ef857fe5b6020026020010151611913565b60006106168260000151600281518110610f1b57fe5b6020026020010151611693565b6040805160208101909152600081528151606091901561061657600080610f50600086611990565b60f81c90506001811480610f6757508060ff166003145b15610ff657600185516002020367ffffffffffffffff81118015610f8a57600080fd5b506040519080825280601f01601f191660200182016040528015610fb5576020820181803683370190505b5092506000610fc5600187611990565b90508084600081518110610fd557fe5b60200101906001600160f81b031916908160001a9053506001925050611047565b600285516002020367ffffffffffffffff8111801561101457600080fd5b506040519080825280601f01601f19166020018201604052801561103f576020820181803683370190505b509250600091505b60ff82165b8351811015611092576110678360ff16820360020187611990565b84828151811061107357fe5b60200101906001600160f81b031916908160001a90535060010161104c565b50505092915050565b60006106168260000151600981518110610f1b57fe5b6110b9612013565b6110cd8260000151600681518110610ef857fe5b60208201526110da612054565b6110e78260200151611806565b90506110f2816119ed565b15611107576111008161182b565b8252611187565b602082015180516060906000190167ffffffffffffffff8111801561112b57600080fd5b506040519080825280601f01601f191660200182016040528015611156576020820181803683370190505b50905060008083602101915082602001905061117482828551611a27565b611180610ec884611806565b8652505050505b6111908361109b565b604083015250919050565b6111a3612034565b6111ab612054565b6111cc83600001516003815181106111bf57fe5b602002602001015161182b565b8360400151815181106111db57fe5b6020026020010151905060405180604001604052808281526020016111ff8361182b565b90529392505050565b6000610616826020015160008151811061121e57fe5b6020026020010151611a72565b6020015190565b60606106168260000151600781518110610ef857fe5b60006106168260000151600581518110610f1b57fe5b6000611268612054565b61127184611806565b9050606061127e8261182b565b9050606080856000826112908b610f28565b90508051600014156112ac5760009750505050505050506114a1565b60005b86518110156114945781518311156112d2576000985050505050505050506114a1565b6112ee8782815181106112e157fe5b6020026020010151611a8c565b95508580519060200120841461130f576000985050505050505050506114a1565b61131e8782815181106111bf57fe5b94508451601114156113db57815183141561137a578c8051906020012061134b86601081518110610ef857fe5b805190602001201415611369576001985050505050505050506114a1565b6000985050505050505050506114a1565b600082848151811061138857fe5b016020015160f81c905060108111156113ad57600099505050505050505050506114a1565b6113cc868260ff16815181106113bf57fe5b6020026020010151611b0b565b9450506001929092019161148c565b8451600214156113695760006114016113fa87600081518110610ef857fe5b8486611b28565b905082518185011415611457578d8051906020012061142687600181518110610ef857fe5b80519060200120141561144557600199505050505050505050506114a1565b600099505050505050505050506114a1565b8061146e57600099505050505050505050506114a1565b8084019350611483866001815181106113bf57fe5b945061148c9050565b6001016112af565b5060009750505050505050505b949350505050565b60006106168260000151600381518110610f1b57fe5b60006106168260000151600481518110610f1b57fe5b60006106168260000151600081518110610f1b57fe5b60606106168260000151600181518110610ef857fe5b600354604080516320a9cea560e11b815260048101859052905160009283926001600160a01b03909116916341539d4a9160248082019260a092909190829003018186803b15801561155257600080fd5b505afa158015611566573d6000803e3d6000fd5b505050506040513d60a081101561157c57600080fd5b50805160209091015190925090506115e361159d898363ffffffff611c0716565b6040805160208082018d90528183018c9052606082018b905260808083018b90528351808403909101815260a0909201909252805191012090848663ffffffff611c4916565b611634576040805162461bcd60e51b815260206004820152601a60248201527f526f6f7454756e6e656c3a20494e56414c49445f484541444552000000000000604482015290519081900360640190fd5b5050505050505050565b611646612000565b604051806020016040528061166584602001516001815181106111bf57fe5b905292915050565b611675612054565b825180518390811061168357fe5b6020026020010151905092915050565b8051600090158015906116a857508151602110155b6116b157600080fd5b6000806116bd84611d9f565b8151919350915060208210156114a15760208290036101000a9004949350505050565b60606106168260200151600281518110610ef857fe5b60006117028383610e96565b61173857508154600181810184556000848152602080822090930184905584548482528286019093526040902091909155610616565b506000610616565b600081815260018301602052604081205480156117fc578354600019808301919081019060009087908390811061177357fe5b906000526020600020015490508087600001848154811061179057fe5b6000918252602080832090910192909255828152600189810190925260409020908401905586548790806117c057fe5b60019003818190600052602060002001600090559055866001016000878152602001908152602001600020600090556001945050505050610616565b6000915050610616565b61180e612054565b506040805180820190915281518152602082810190820152919050565b6060611836826119ed565b61183f57600080fd5b600061184a83611dc5565b905060608167ffffffffffffffff8111801561186557600080fd5b5060405190808252806020026020018201604052801561189f57816020015b61188c612054565b8152602001906001900390816118845790505b50905060006118b18560200151611e21565b60208601510190506000805b84811015611908576118ce83611e84565b91506040518060400160405280838152602001848152508482815181106118f157fe5b6020908102919091010152918101916001016118bd565b509195945050505050565b805160609061192157600080fd5b60008061192d84611d9f565b9150915060608167ffffffffffffffff8111801561194a57600080fd5b506040519080825280601f01601f191660200182016040528015611975576020820181803683370190505b50905060208101611987848285611f18565b50949350505050565b600060028306156119c15760108260028504815181106119ac57fe5b016020015160f81c816119bb57fe5b066119e3565b60108260028504815181106119d257fe5b016020015160f81c816119e157fe5b045b60f81b9392505050565b80516000906119fe575060006103d2565b6020820151805160001a9060c0821015611a1d576000925050506103d2565b5060019392505050565b80611a31576108d9565b5b60208110611a51578251825260209283019290910190601f1901611a32565b915181516020939093036101000a6000190180199091169216919091179052565b8051600090601514611a8357600080fd5b61061682611693565b606080826000015167ffffffffffffffff81118015611aaa57600080fd5b506040519080825280601f01601f191660200182016040528015611ad5576020820181803683370190505b509050805160001415611ae95790506103d2565b6000816020019050611b048460200151828660000151611f18565b5092915050565b8051600090602114611b1c57600080fd5b50602001516001015190565b6000806060611b3686610f28565b90506060815167ffffffffffffffff81118015611b5257600080fd5b506040519080825280601f01601f191660200182016040528015611b7d576020820181803683370190505b509050845b82518601811015611bd7576000878281518110611b9b57fe5b602001015160f81c60f81b9050808388840381518110611bb757fe5b60200101906001600160f81b031916908160001a90535050600101611b82565b50808051906020012082805190602001201415611bf75781519250611bfc565b600092505b509095945050505050565b600061061383836040518060400160405280601e81526020017f536166654d6174683a207375627472616374696f6e206f766572666c6f770000815250611f69565b60006020825181611c5657fe5b0615611ca0576040805162461bcd60e51b8152602060048201526014602482015273092dcecc2d8d2c840e0e4dedecc40d8cadccee8d60631b604482015290519081900360640190fd5b60006020835181611cad57fe5b0490508060020a8510611cff576040805162461bcd60e51b81526020600482015260156024820152744c65616620696e64657820697320746f6f2062696760581b604482015290519081900360640190fd5b60008660205b85518111611d915785810151925060028806611d515781836040516020018083815260200182815260200192505050604051602081830303815290604052805190602001209150611d83565b828260405160200180838152602001828152602001925050506040516020818303038152906040528051906020012091505b600288049750602001611d05565b509094149695505050505050565b6000806000611db18460200151611e21565b602085015194519481019594039392505050565b8051600090611dd6575060006103d2565b60008090506000611dea8460200151611e21565b602085015185519181019250015b80821015611e1857611e0982611e84565b60019093019290910190611df8565b50909392505050565b8051600090811a6080811015611e3b5760009150506103d2565b60b8811080611e56575060c08110801590611e56575060f881105b15611e655760019150506103d2565b60c0811015611e795760b5190190506103d2565b60f5190190506103d2565b80516000908190811a6080811015611e9f5760019150611b04565b60b8811015611eb457607e1981019150611b04565b60c0811015611ee15760b78103600185019450806020036101000a85510460018201810193505050611b04565b60f8811015611ef65760be1981019150611b04565b60019390930151602084900360f7016101000a900490920160f5190192915050565b80611f22576108d9565b5b60208110611f42578251825260209283019290910190601f1901611f23565b80156108d957915181516020939093036101000a6000190180199091169216919091179052565b60008184841115611ff85760405162461bcd60e51b81526004018080602001828103825283818151815260200191508051906020019080838360005b83811015611fbd578181015183820152602001611fa5565b50505050905090810190601f168015611fea5780820380516001836020036101000a031916815260200191505b509250505060405180910390fd5b505050900390565b6040518060200160405280606081525090565b60405180606001604052806060815260200160608152602001600081525090565b6040518060400160405280612047612054565b8152602001606081525090565b60405180604001604052806000815260200160008152509056fe456e756d657261626c655365743a20696e646578206f7574206f6620626f756e6473416363657373436f6e74726f6c3a2073656e646572206d75737420626520616e2061646d696e20746f206772616e74526f6f7454756e6e656c3a204241445f4e45575f434845434b504f494e545f4d414e41474552416363657373436f6e74726f6c3a2073656e646572206d75737420626520616e2061646d696e20746f207265766f6b65526f6f7454756e6e656c3a20455849545f414c52454144595f50524f434553534544526f6f7454756e6e656c3a20494e56414c49445f524543454950545f50524f4f46416363657373436f6e74726f6c3a2063616e206f6e6c792072656e6f756e636520726f6c657320666f722073656c66526f6f7454756e6e656c3a20494e56414c49445f4348494c445f54554e4e454c5f41444452455353a2646970667358221220ece8c9dec058fde12adfbd365b24b16535209992c50f3ab59a14ccf14e24214064736f6c63430006060033",
  "linkReferences": {},
  "deployedLinkReferences": {}
}