{"abi":[{"type":"constructor","inputs":[],"stateMutability":"nonpayable"},{"type":"function","name":"DEFAULT_ADMIN_ROLE","inputs":[],"outputs":[{"name":"","type":"bytes32","internalType":"bytes32"}],"stateMutability":"view"},{"type":"function","name":"MANAGER_ROLE","inputs":[],"outputs":[{"name":"","type":"bytes32","internalType":"bytes32"}],"stateMutability":"view"},{"type":"function","name":"TOKEN_TYPE","inputs":[],"outputs":[{"name":"","type":"bytes32","internalType":"bytes32"}],"stateMutability":"view"},{"type":"function","name":"TRANSFER_BATCH_EVENT_SIG","inputs":[],"outputs":[{"name":"","type":"bytes32","internalType":"bytes32"}],"stateMutability":"view"},{"type":"function","name":"TRANSFER_SINGLE_EVENT_SIG","inputs":[],"outputs":[{"name":"","type":"bytes32","internalType":"bytes32"}],"stateMutability":"view"},{"type":"function","name":"exitTokens","inputs":[{"name":"rootToken","type":"address","internalType":"address"},{"name":"log","type":"bytes","internalType":"bytes"}],"outputs":[],"stateMutability":"nonpayable"},{"type":"function","name":"getRoleAdmin","inputs":[{"name":"role","type":"bytes32","internalType":"bytes32"}],"outputs":[{"name":"","type":"bytes32","internalType":"bytes32"}],"stateMutability":"view"},{"type":"function","name":"getRoleMember","inputs":[{"name":"role","type":"bytes32","internalType":"bytes32"},{"name":"index","type":"uint256","internalType":"uint256"}],"outputs":[{"name":"","type":"address","internalType":"address"}],"stateMutability":"view"},{"type":"function","name":"getRoleMemberCount","inputs":[{"name":"role","type":"bytes32","internalType":"bytes32"}],"outputs":[{"name":"","type":"uint256","internalType":"uint256"}],"stateMutability":"view"},{"type":"function","name":"grantRole","inputs":[{"name":"role","type":"bytes32","internalType":"bytes32"},{"name":"account","type":"address","internalType":"address"}],"outputs":[],"stateMutability":"nonpayable"},{"type":"function","name":"hasRole","inputs":[{"name":"role","type":"bytes32","internalType":"bytes32"},{"name":"account","type":"address","internalType":"address"}],"outputs":[{"name":"","type":"bool","internalType":"bool"}],"stateMutability":"view"},{"type":"function","name":"initialize","inputs":[{"name":"_owner","type":"address","internalType":"address"}],"outputs":[],"stateMutability":"nonpayable"},{"type":"function","name":"lockTokens","inputs":[{"name":"depositor","type":"address","internalType":"address"},{"name":"depositReceiver","type":"address","internalType":"address"},{"name":"rootToken","type":"address","internalType":"address"},{"name":"depositData","type":"bytes","internalType":"bytes"}],"outputs":[],"stateMutability":"nonpayable"},{"type":"function","name":"onERC1155BatchReceived","inputs":[{"name":"","type":"address","internalType":"address"},{"name":"","type":"address","internalType":"address"},{"name":"","type":"uint256[]","internalType":"uint256[]"},{"name":"","type":"uint256[]","internalType":"uint256[]"},{"name":"","type":"bytes","internalType":"bytes"}],"outputs":[{"name":"","type":"bytes4","internalType":"bytes4"}],"stateMutability":"nonpayable"},{"type":"function","name":"onERC1155Received","inputs":[{"name":"","type":"address","internalType":"address"},{"name":"","type":"address","internalType":"address"},{"name":"","type":"uint256","internalType":"uint256"},{"name":"","type":"uint256","internalType":"uint256"},{"name":"","type":"bytes","internalType":"bytes"}],"outputs":[{"name":"","type":"bytes4","internalType":"bytes4"}],"stateMutability":"nonpayable"},{"type":"function","name":"renounceRole","inputs":[{"name":"role","type":"bytes32","internalType":"bytes32"},{"name":"account","type":"address","internalType":"address"}],"outputs":[],"stateMutability":"nonpayable"},{"type":"function","name":"revokeRole","inputs":[{"name":"role","type":"bytes32","internalType":"bytes32"},{"name":"account","type":"address","internalType":"address"}],"outputs":[],"stateMutability":"nonpayable"},{"type":"function","name":"supportsInterface","inputs":[{"name":"interfaceId","type":"bytes4","internalType":"bytes4"}],"outputs":[{"name":"","type":"bool","internalType":"bool"}],"stateMutability":"view"},{"type":"event","name":"ExitedBatchMintableERC1155","inputs":[{"name":"exitor","type":"address","indexed":true,"internalType":"address"},{"name":"rootToken","type":"address","indexed":true,"internalType":"address"},{"name":"ids","type":"uint256[]","indexed":false,"internalType":"uint256[]"},{"name":"amounts","type":"uint256[]","indexed":false,"internalType":"uint256[]"}],"anonymous":false},{"type":"event","name":"ExitedMintableERC1155","inputs":[{"name":"exitor","type":"address","indexed":true,"internalType":"address"},{"name":"rootToken","type":"address","indexed":true,"internalType":"address"},{"name":"id","type":"uint256","indexed":false,"internalType":"uint256"},{"name":"amount","type":"uint256","indexed":false,"internalType":"uint256"}],"anonymous":false},{"type":"event","name":"LockedBatchMintableERC1155","inputs":[{"name":"depositor","type":"address","indexed":true,"internalType":"address"},{"name":"depositReceiver","type":"address","indexed":true,"internalType":"address"},{"name":"rootToken","type":"address","indexed":true,"internalType":"address"},{"name":"ids","type":"uint256[]","indexed":false,"internalType":"uint256[]"},{"name":"amounts","type":"uint256[]","indexed":false,"internalType":"uint256[]"}],"anonymous":false},{"type":"event","name":"RoleAdminChanged","inputs":[{"name":"role","type":"bytes32","indexed":true,"internalType":"bytes32"},{"name":"previousAdminRole","type":"bytes32","indexed":true,"internalType":"bytes32"},{"name":"newAdminRole","type":"bytes32","indexed":true,"internalType":"bytes32"}],"anonymous":false},{"type":"event","name":"RoleGranted","inputs":[{"name":"role","type":"bytes32","indexed":true,"internalType":"bytes32"},{"name":"account","type":"address","indexed":true,"internalType":"address"},{"name":"sender","type":"address","indexed":true,"internalType":"address"}],"anonymous":false},{"type":"event","name":"RoleRevoked","inputs":[{"name":"role","type":"bytes32","indexed":true,"internalType":"bytes32"},{"name":"account","type":"address","indexed":true,"internalType":"address"},{"name":"sender","type":"address","indexed":true,"internalType":"address"}],"anonymous":false}],"bytecode":{"object":"0x60806040526003805460ff191690553480156200001b57600080fd5b50620000376301ffc9a760e01b6001600160e01b036200005816565b62000052630271189760e51b6001600160e01b036200005816565b620000dd565b6001600160e01b03198082161415620000b8576040805162461bcd60e51b815260206004820152601c60248201527f4552433136353a20696e76616c696420696e7465726661636520696400000000604482015290519081900360640190fd5b6001600160e01b0319166000908152602081905260409020805460ff19166001179055565b61280280620000ed6000396000f3fe608060405234801561001057600080fd5b50600436106101165760003560e01c8063c4d66de8116100a2578063e9cff29111610071578063e9cff2911461049c578063eacc7af2146104a4578063ec87621c146104ac578063f23a6e61146104b4578063f741a4171461054757610116565b8063c4d66de81461039e578063ca15c873146103c4578063d547741f146103e1578063e375b64e1461040d57610116565b8063609c92b8116100e9578063609c92b8146101df5780639010d07c146101e757806391d1485414610226578063a217fddf14610252578063bc197c811461025a57610116565b806301ffc9a71461011b578063248a9ca3146101565780632f2ff15d1461018557806336568abe146101b3575b600080fd5b6101426004803603602081101561013157600080fd5b50356001600160e01b0319166105c5565b604080519115158252519081900360200190f35b6101736004803603602081101561016c57600080fd5b50356105e8565b60408051918252519081900360200190f35b6101b16004803603604081101561019b57600080fd5b50803590602001356001600160a01b03166105fd565b005b6101b1600480360360408110156101c957600080fd5b50803590602001356001600160a01b0316610669565b6101736106ca565b61020a600480360360408110156101fd57600080fd5b50803590602001356106f1565b604080516001600160a01b039092168252519081900360200190f35b6101426004803603604081101561023c57600080fd5b50803590602001356001600160a01b0316610718565b610173610736565b610381600480360360a081101561027057600080fd5b6001600160a01b038235811692602081013590911691810190606081016040820135600160201b8111156102a357600080fd5b8201836020820111156102b557600080fd5b803590602001918460208302840111600160201b831117156102d657600080fd5b919390929091602081019035600160201b8111156102f357600080fd5b82018360208201111561030557600080fd5b803590602001918460208302840111600160201b8311171561032657600080fd5b919390929091602081019035600160201b81111561034357600080fd5b82018360208201111561035557600080fd5b803590602001918460018302840111600160201b8311171561037657600080fd5b50909250905061073b565b604080516001600160e01b03199092168252519081900360200190f35b6101b1600480360360208110156103b457600080fd5b50356001600160a01b031661074f565b610173600480360360208110156103da57600080fd5b503561081c565b6101b1600480360360408110156103f757600080fd5b50803590602001356001600160a01b0316610833565b6101b16004803603608081101561042357600080fd5b6001600160a01b0382358116926020810135821692604082013590921691810190608081016060820135600160201b81111561045e57600080fd5b82018360208201111561047057600080fd5b803590602001918460018302840111600160201b8311171561049157600080fd5b50909250905061088c565b610173610d5c565b610173610d77565b610173610d92565b610381600480360360a08110156104ca57600080fd5b6001600160a01b03823581169260208101359091169160408201359160608101359181019060a081016080820135600160201b81111561050957600080fd5b82018360208201111561051b57600080fd5b803590602001918460018302840111600160201b8311171561053c57600080fd5b509092509050610db6565b6101b16004803603604081101561055d57600080fd5b6001600160a01b038235169190810190604081016020820135600160201b81111561058757600080fd5b82018360208201111561059957600080fd5b803590602001918460018302840111600160201b831117156105ba57600080fd5b509092509050610dc2565b6001600160e01b0319811660009081526020819052604090205460ff165b919050565b60009081526001602052604090206002015490565b6000828152600160205260409020600201546106209061061b611aef565b610718565b61065b5760405162461bcd60e51b815260040180806020018281038252602f8152602001806125e0602f913960400191505060405180910390fd5b6106658282611af4565b5050565b610671611aef565b6001600160a01b0316816001600160a01b0316146106c05760405162461bcd60e51b815260040180806020018281038252602f81526020018061279e602f913960400191505060405180910390fd5b6106658282611b63565b604080516e4d696e7461626c654552433131353560881b8152905190819003600f01902081565b600082815260016020526040812061070f908363ffffffff611bd216565b90505b92915050565b600082815260016020526040812061070f908363ffffffff611bde16565b600081565b63bc197c8160e01b98975050505050505050565b60035460ff1615610798576040805162461bcd60e51b815260206004820152600e60248201526d185b1c9958591e481a5b9a5d195960921b604482015290519081900360640190fd5b6107d66040518060400160405280601881526020017f4d696e7461626c65455243313135355072656469636174650000000000000000815250611bf3565b6107e160008261065b565b604080516b4d414e414745525f524f4c4560a01b8152905190819003600c01902061080c908261065b565b506003805460ff19166001179055565b600081815260016020526040812061071290611c91565b6000828152600160205260409020600201546108519061061b611aef565b6106c05760405162461bcd60e51b815260040180806020018281038252603081526020018061269c6030913960400191505060405180910390fd5b604080516b4d414e414745525f524f4c4560a01b8152905190819003600c0190206108b98161061b611aef565b6002906109595760405162461bcd60e51b815260206004820190815282546002600019610100600184161502019091160460248301819052909182916044909101908490801561094a5780601f1061091f5761010080835404028352916020019161094a565b820191906000526020600020905b81548152906001019060200180831161092d57829003601f168201915b50509250505060405180910390fd5b5060608060608585606081101561096f57600080fd5b810190602081018135600160201b81111561098957600080fd5b82018360208201111561099b57600080fd5b803590602001918460208302840111600160201b831117156109bc57600080fd5b9190808060200260200160405190810160405280939291908181526020018383602002808284376000920191909152509295949360208101935035915050600160201b811115610a0b57600080fd5b820183602082011115610a1d57600080fd5b803590602001918460208302840111600160201b83111715610a3e57600080fd5b9190808060200260200160405190810160405280939291908181526020018383602002808284376000920191909152509295949360208101935035915050600160201b811115610a8d57600080fd5b820183602082011115610a9f57600080fd5b803590602001918460018302840111600160201b83111715610ac057600080fd5b91908080601f016020809104026020016040519081016040528093929190818152602001838380828437600081840152601f19601f820116905080830192505050505050509192919290505050925092509250866001600160a01b0316886001600160a01b03168a6001600160a01b03167f1f512d82dee9e34be6d1fbe7e9eee79cb3185b84686ce1968a3e95f76fdb8c6a8686604051808060200180602001838103835285818151815260200191508051906020019060200280838360005b83811015610b98578181015183820152602001610b80565b50505050905001838103825284818151815260200191508051906020019060200280838360005b83811015610bd7578181015183820152602001610bbf565b5050505090500194505050505060405180910390a4604051631759616b60e11b81526001600160a01b038a811660048301908152306024840181905260a060448501908152875160a48601528751938c1694632eb2c2d6948f948a938a938a936064820191608481019160c4909101906020808a01910280838360005b83811015610c6c578181015183820152602001610c54565b50505050905001848103835286818151815260200191508051906020019060200280838360005b83811015610cab578181015183820152602001610c93565b50505050905001848103825285818151815260200191508051906020019080838360005b83811015610ce7578181015183820152602001610ccf565b50505050905090810190601f168015610d145780820380516001836020036101000a031916815260200191505b5098505050505050505050600060405180830381600087803b158015610d3957600080fd5b505af1158015610d4d573d6000803e3d6000fd5b50505050505050505050505050565b60405180603761276782396037019050604051809103902081565b60405180603a61260f8239603a019050604051809103902081565b604080516b4d414e414745525f524f4c4560a01b8152905190819003600c01902081565b60009695505050505050565b604080516b4d414e414745525f524f4c4560a01b8152905190819003600c019020610def8161061b611aef565b600290610e555760405162461bcd60e51b815260206004820190815282546002600019610100600184161502019091160460248301819052909182916044909101908490801561094a5780601f1061091f5761010080835404028352916020019161094a565b506060610e9f610e9a85858080601f016020809104026020016040519081016040528093929190818152602001838380828437600092019190915250611c9c92505050565b611cc1565b90506060610ec082600181518110610eb357fe5b6020026020010151611cc1565b90506060610ee183600281518110610ed457fe5b6020026020010151611da9565b90506000610f0283600281518110610ef557fe5b6020026020010151611e26565b905060006001600160a01b0316610f1f84600381518110610ef557fe5b6001600160a01b031614610f645760405162461bcd60e51b815260040180806020018281038252602a815260200180612649602a913960400191505060405180910390fd5b6000610f7684600081518110610ef557fe5b6040519091508060376127678239603701905060405180910390208114156113c557600080848060200190516040811015610fb057600080fd5b50805160209182015160408051627eeac760e11b81523060048201526024810184905290519295509093508d926000926001600160a01b0385169262fdd58e926044808301939192829003018186803b15801561100c57600080fd5b505afa158015611020573d6000803e3d6000fd5b505050506040513d602081101561103657600080fd5b505190508281101561125557816001600160a01b031663731133e98786848703604051806020016040528060008152506040518563ffffffff1660e01b815260040180856001600160a01b03166001600160a01b0316815260200184815260200183815260200180602001828103825283818151815260200191508051906020019080838360005b838110156110d65781810151838201526020016110be565b50505050905090810190601f1680156111035780820380516001836020036101000a031916815260200191505b5095505050505050600060405180830381600087803b15801561112557600080fd5b505af1158015611139573d6000803e3d6000fd5b50505050816001600160a01b031663f242432a30888785604051806020016040528060008152506040518663ffffffff1660e01b815260040180866001600160a01b03166001600160a01b03168152602001856001600160a01b03166001600160a01b0316815260200184815260200183815260200180602001828103825283818151815260200191508051906020019080838360005b838110156111e85781810151838201526020016111d0565b50505050905090810190601f1680156112155780820380516001836020036101000a031916815260200191505b509650505050505050600060405180830381600087803b15801561123857600080fd5b505af115801561124c573d6000803e3d6000fd5b50505050611369565b816001600160a01b031663f242432a30888787604051806020016040528060008152506040518663ffffffff1660e01b815260040180866001600160a01b03166001600160a01b03168152602001856001600160a01b03166001600160a01b0316815260200184815260200183815260200180602001828103825283818151815260200191508051906020019080838360005b838110156113005781810151838201526020016112e8565b50505050905090810190601f16801561132d5780820380516001836020036101000a031916815260200191505b509650505050505050600060405180830381600087803b15801561135057600080fd5b505af1158015611364573d6000803e3d6000fd5b505050505b8c6001600160a01b0316866001600160a01b03167f385a7b5ded58cef3ec245cc104f90cd7086dfc6e47047df1046e2af956a3c0098686604051808381526020018281526020019250505060405180910390a350505050611ae4565b60405180603a61260f8239603a0190506040518091039020811415611aad576060808480602001905160408110156113fc57600080fd5b8101908080516040519392919084600160201b82111561141b57600080fd5b90830190602082018581111561143057600080fd5b82518660208202830111600160201b8211171561144c57600080fd5b82525081516020918201928201910280838360005b83811015611479578181015183820152602001611461565b5050505090500160405260200180516040519392919084600160201b8211156114a157600080fd5b9083019060208201858111156114b657600080fd5b82518660208202830111600160201b821117156114d257600080fd5b82525081516020918201928201910280838360005b838110156114ff5781810151838201526020016114e7565b505050509050016040525050509150915060008b90506060816001600160a01b0316634e1273f4611531308751611e74565b866040518363ffffffff1660e01b8152600401808060200180602001838103835285818151815260200191508051906020019060200280838360005b8381101561158557818101518382015260200161156d565b50505050905001838103825284818151815260200191508051906020019060200280838360005b838110156115c45781810151838201526020016115ac565b5050505090500194505050505060006040518083038186803b1580156115e957600080fd5b505afa1580156115fd573d6000803e3d6000fd5b505050506040513d6000823e601f3d908101601f19168201604052602081101561162657600080fd5b8101908080516040519392919084600160201b82111561164557600080fd5b90830190602082018581111561165a57600080fd5b82518660208202830111600160201b8211171561167657600080fd5b82525081516020918201928201910280838360005b838110156116a357818101518382015260200161168b565b50505050905001604052505050905060608060006116c18487611f80565b925092509250801561184357846001600160a01b0316631f7fdffa8a8986604051806020016040528060008152506040518563ffffffff1660e01b815260040180856001600160a01b03166001600160a01b03168152602001806020018060200180602001848103845287818151815260200191508051906020019060200280838360005b8381101561175e578181015183820152602001611746565b50505050905001848103835286818151815260200191508051906020019060200280838360005b8381101561179d578181015183820152602001611785565b50505050905001848103825285818151815260200191508051906020019080838360005b838110156117d95781810151838201526020016117c1565b50505050905090810190601f1680156118065780820380516001836020036101000a031916815260200191505b50975050505050505050600060405180830381600087803b15801561182a57600080fd5b505af115801561183e573d6000803e3d6000fd5b505050505b846001600160a01b0316632eb2c2d6308b8a86604051806020016040528060008152506040518663ffffffff1660e01b815260040180866001600160a01b03166001600160a01b03168152602001856001600160a01b03166001600160a01b03168152602001806020018060200180602001848103845287818151815260200191508051906020019060200280838360005b838110156118ed5781810151838201526020016118d5565b50505050905001848103835286818151815260200191508051906020019060200280838360005b8381101561192c578181015183820152602001611914565b50505050905001848103825285818151815260200191508051906020019080838360005b83811015611968578181015183820152602001611950565b50505050905090810190601f1680156119955780820380516001836020036101000a031916815260200191505b5098505050505050505050600060405180830381600087803b1580156119ba57600080fd5b505af11580156119ce573d6000803e3d6000fd5b505050508f6001600160a01b0316896001600160a01b03167fe7010bac2c165ded2e5a79552903a18608392de6b9d93e582cd7eabc748861b58989604051808060200180602001838103835285818151815260200191508051906020019060200280838360005b83811015611a4d578181015183820152602001611a35565b50505050905001838103825284818151815260200191508051906020019060200280838360005b83811015611a8c578181015183820152602001611a74565b5050505090500194505050505060405180910390a350505050505050611ae4565b60405162461bcd60e51b815260040180806020018281038252602e815260200180612704602e913960400191505060405180910390fd5b505050505050505050565b335b90565b6000828152600160205260409020611b12908263ffffffff61214816565b1561066557611b1f611aef565b6001600160a01b0316816001600160a01b0316837f2f8788117e7eff1d82e926ec794901d17c78024a50270940304540a733656f0d60405160405180910390a45050565b6000828152600160205260409020611b81908263ffffffff61215d16565b1561066557611b8e611aef565b6001600160a01b0316816001600160a01b0316837ff6391f5c32d9c69d2a47ea670b442974b53935d1edc7fd64eb21e047a839171b60405160405180910390a45050565b600061070f8383612172565b600061070f836001600160a01b0384166121d6565b806040516020018082805190602001908083835b60208310611c265780518252601f199092019160209182019101611c07565b51815160209384036101000a60001901801990921691161790527f3a20494e53554646494349454e545f5045524d495353494f4e530000000000009190930190815260408051808303600519018152601a90920190528051610665955060029450920191905061250b565b6000610712826121ee565b611ca4612589565b506040805180820190915281518152602082810190820152919050565b6060611ccc826121f2565b611cd557600080fd5b6000611ce08361222c565b905060608167ffffffffffffffff81118015611cfb57600080fd5b50604051908082528060200260200182016040528015611d3557816020015b611d22612589565b815260200190600190039081611d1a5790505b5090506000611d478560200151612288565b60208601510190506000805b84811015611d9e57611d64836122eb565b9150604051806040016040528083815260200184815250848281518110611d8757fe5b602090810291909101015291810191600101611d53565b509195945050505050565b8051606090611db757600080fd5b600080611dc384612384565b9150915060608167ffffffffffffffff81118015611de057600080fd5b506040519080825280601f01601f191660200182016040528015611e0b576020820181803683370190505b50905060208101611e1d8482856123aa565b50949350505050565b805160009015801590611e3b57508151602110155b611e4457600080fd5b600080611e5084612384565b815191935091506020821015611e6c5760208290036101000a90045b949350505050565b60606001600160a01b038316611ebb5760405162461bcd60e51b81526004018080602001828103825260298152602001806126736029913960400191505060405180910390fd5b60008211611efa5760405162461bcd60e51b81526004018080602001828103825260388152602001806126cc6038913960400191505060405180910390fd5b60608267ffffffffffffffff81118015611f1357600080fd5b50604051908082528060200260200182016040528015611f3d578160200160208202803683370190505b50905060005b83811015611f785784828281518110611f5857fe5b6001600160a01b0390921660209283029190910190910152600101611f43565b509392505050565b60608060008351855114611fc55760405162461bcd60e51b81526004018080602001828103825260358152602001806127326035913960400191505060405180910390fd5b6060855167ffffffffffffffff81118015611fdf57600080fd5b50604051908082528060200260200182016040528015612009578160200160208202803683370190505b5090506060865167ffffffffffffffff8111801561202657600080fd5b50604051908082528060200260200182016040528015612050578160200160208202803683370190505b5090506000805b88518110156121395787818151811061206c57fe5b602002602001015189828151811061208057fe5b602002602001015110156121045788818151811061209a57fe5b60200260200101518882815181106120ae57fe5b6020026020010151038482815181106120c357fe5b6020026020010181815250508881815181106120db57fe5b60200260200101518382815181106120ef57fe5b60200260200101818152505060019150612131565b87818151811061211057fe5b602002602001015183828151811061212457fe5b6020026020010181815250505b600101612057565b50919450925090509250925092565b600061070f836001600160a01b0384166123fb565b600061070f836001600160a01b038416612445565b815460009082106121b45760405162461bcd60e51b81526004018080602001828103825260228152602001806125be6022913960400191505060405180910390fd5b8260000182815481106121c357fe5b9060005260206000200154905092915050565b60009081526001919091016020526040902054151590565b5490565b8051600090612203575060006105e3565b6020820151805160001a9060c0821015612222576000925050506105e3565b5060019392505050565b805160009061223d575060006105e3565b600080905060006122518460200151612288565b602085015185519181019250015b8082101561227f57612270826122eb565b6001909301929091019061225f565b50909392505050565b8051600090811a60808110156122a25760009150506105e3565b60b88110806122bd575060c081108015906122bd575060f881105b156122cc5760019150506105e3565b60c08110156122e05760b5190190506105e3565b60f5190190506105e3565b80516000908190811a6080811015612306576001915061237d565b60b881101561231b57607e198101915061237d565b60c08110156123485760b78103600185019450806020036101000a8551046001820181019350505061237d565b60f881101561235d5760be198101915061237d565b60f78103600185019450806020036101000a855104600182018101935050505b5092915050565b60008060006123968460200151612288565b602085015194519481019594039392505050565b806123b4576123f6565b5b602081106123d4578251825260209283019290910190601f19016123b5565b80156123f6578251825160208390036101000a60001901801990921691161782525b505050565b600061240783836121d6565b61243d57508154600181810184556000848152602080822090930184905584548482528286019093526040902091909155610712565b506000610712565b60008181526001830160205260408120548015612501578354600019808301919081019060009087908390811061247857fe5b906000526020600020015490508087600001848154811061249557fe5b6000918252602080832090910192909255828152600189810190925260409020908401905586548790806124c557fe5b60019003818190600052602060002001600090559055866001016000878152602001908152602001600020600090556001945050505050610712565b6000915050610712565b828054600181600116156101000203166002900490600052602060002090601f016020900481019282601f1061254c57805160ff1916838001178555612579565b82800160010185558215612579579182015b8281111561257957825182559160200191906001019061255e565b506125859291506125a3565b5090565b604051806040016040528060008152602001600081525090565b611af191905b8082111561258557600081556001016125a956fe456e756d657261626c655365743a20696e646578206f7574206f6620626f756e6473416363657373436f6e74726f6c3a2073656e646572206d75737420626520616e2061646d696e20746f206772616e745472616e73666572426174636828616464726573732c616464726573732c616464726573732c75696e743235365b5d2c75696e743235365b5d294d696e7461626c65455243313135355072656469636174653a20494e56414c49445f52454345495645524d696e7461626c65455243313135355072656469636174653a20496e76616c69642061646472657373416363657373436f6e74726f6c3a2073656e646572206d75737420626520616e2061646d696e20746f207265766f6b654d696e7461626c65455243313135355072656469636174653a20496e76616c696420726573756c74696e67206172726179206c656e6774684d696e7461626c65455243313135355072656469636174653a20494e56414c49445f57495448445241575f5349474d696e7461626c65455243313135355072656469636174653a204172726179206c656e677468206d69736d6174636820666f756e645472616e7366657253696e676c6528616464726573732c616464726573732c616464726573732c75696e743235362c75696e7432353629416363657373436f6e74726f6c3a2063616e206f6e6c792072656e6f756e636520726f6c657320666f722073656c66a264697066735822122066ed36bcd96da4aa4277ba21c8d4f500fd48f39eed95cf41fe857554075f1a7364736f6c63430006060033","linkReferences":{}},"methodIdentifiers":{"DEFAULT_ADMIN_ROLE()":"a217fddf","MANAGER_ROLE()":"ec87621c","TOKEN_TYPE()":"609c92b8","TRANSFER_BATCH_EVENT_SIG()":"eacc7af2","TRANSFER_SINGLE_EVENT_SIG()":"e9cff291","exitTokens(address,bytes)":"f741a417","getRoleAdmin(bytes32)":"248a9ca3","getRoleMember(bytes32,uint256)":"9010d07c","getRoleMemberCount(bytes32)":"ca15c873","grantRole(bytes32,address)":"2f2ff15d","hasRole(bytes32,address)":"91d14854","initialize(address)":"c4d66de8","lockTokens(address,address,address,bytes)":"e375b64e","onERC1155BatchReceived(address,address,uint256[],uint256[],bytes)":"bc197c81","onERC1155Received(address,address,uint256,uint256,bytes)":"f23a6e61","renounceRole(bytes32,address)":"36568abe","revokeRole(bytes32,address)":"d547741f","supportsInterface(bytes4)":"01ffc9a7"},"id":58}