{
  "_format": "hh-sol-artifact-1",
  "contractName": "DummyMintableERC721",
  "sourceName": "contracts/root/RootToken/DummyMintableERC721.sol",
  "abi": [
    {
      "inputs": [
        {
          "internalType": "string",
          "name": "name_",
          "type": "string"
        },
        {
          "internalType": "string",
          "name": "symbol_",
          "type": "string"
        }
      ],
      "stateMutability": "nonpayable",
      "type": "constructor"
    },
    {
      "anonymous": false,
      "inputs": [
        {
          "indexed": true,
          "internalType": "address",
          "name": "owner",
          "type": "address"
        },
        {
          "indexed": true,
          "internalType": "address",
          "name": "approved",
          "type": "address"
        },
        {
          "indexed": true,
          "internalType": "uint256",
          "name": "tokenId",
          "type": "uint256"
        }
      ],
      "name": "Approval",
      "type": "event"
    },
    {
      "anonymous": false,
      "inputs": [
        {
          "indexed": true,
          "internalType": "address",
          "name": "owner",
          "type": "address"
        },
        {
          "indexed": true,
          "internalType": "address",
          "name": "operator",
          "type": "address"
        },
        {
          "indexed": false,
          "internalType": "bool",
          "name": "approved",
          "type": "bool"
        }
      ],
      "name": "ApprovalForAll",
      "type": "event"
    },
    {
      "anonymous": false,
      "inputs": [
        {
          "indexed": false,
          "internalType": "address",
          "name": "userAddress",
          "type": "address"
        },
        {
          "indexed": false,
          "internalType": "address payable",
          "name": "relayerAddress",
          "type": "address"
        },
        {
          "indexed": false,
          "internalType": "bytes",
          "name": "functionSignature",
          "type": "bytes"
        }
      ],
      "name": "MetaTransactionExecuted",
      "type": "event"
    },
    {
      "anonymous": false,
      "inputs": [
        {
          "indexed": true,
          "internalType": "bytes32",
          "name": "role",
          "type": "bytes32"
        },
        {
          "indexed": true,
          "internalType": "bytes32",
          "name": "previousAdminRole",
          "type": "bytes32"
        },
        {
          "indexed": true,
          "internalType": "bytes32",
          "name": "newAdminRole",
          "type": "bytes32"
        }
      ],
      "name": "RoleAdminChanged",
      "type": "event"
    },
    {
      "anonymous": false,
      "inputs": [
        {
          "indexed": true,
          "internalType": "bytes32",
          "name": "role",
          "type": "bytes32"
        },
        {
          "indexed": true,
          "internalType": "address",
          "name": "account",
          "type": "address"
        },
        {
          "indexed": true,
          "internalType": "address",
          "name": "sender",
          "type": "address"
        }
      ],
      "name": "RoleGranted",
      "type": "event"
    },
    {
      "anonymous": false,
      "inputs": [
        {
          "indexed": true,
          "internalType": "bytes32",
          "name": "role",
          "type": "bytes32"
        },
        {
          "indexed": true,
          "internalType": "address",
          "name": "account",
          "type": "address"
        },
        {
          "indexed": true,
          "internalType": "address",
          "name": "sender",
          "type": "address"
        }
      ],
      "name": "RoleRevoked",
      "type": "event"
    },
    {
      "anonymous": false,
      "inputs": [
        {
          "indexed": true,
          "internalType": "address",
          "name": "from",
          "type": "address"
        },
        {
          "indexed": true,
          "internalType": "address",
          "name": "to",
          "type": "address"
        },
        {
          "indexed": true,
          "internalType": "uint256",
          "name": "tokenId",
          "type": "uint256"
        }
      ],
      "name": "Transfer",
      "type": "event"
    },
    {
      "inputs": [],
      "name": "DEFAULT_ADMIN_ROLE",
      "outputs": [
        {
          "internalType": "bytes32",
          "name": "",
          "type": "bytes32"
        }
      ],
      "stateMutability": "view",
      "type": "function"
    },
    {
      "inputs": [],
      "name": "ERC712_VERSION",
      "outputs": [
        {
          "internalType": "string",
          "name": "",
          "type": "string"
        }
      ],
      "stateMutability": "view",
      "type": "function"
    },
    {
      "inputs": [],
      "name": "PREDICATE_ROLE",
      "outputs": [
        {
          "internalType": "bytes32",
          "name": "",
          "type": "bytes32"
        }
      ],
      "stateMutability": "view",
      "type": "function"
    },
    {
      "inputs": [
        {
          "internalType": "address",
          "name": "to",
          "type": "address"
        },
        {
          "internalType": "uint256",
          "name": "tokenId",
          "type": "uint256"
        }
      ],
      "name": "approve",
      "outputs": [],
      "stateMutability": "nonpayable",
      "type": "function"
    },
    {
      "inputs": [
        {
          "internalType": "address",
          "name": "owner",
          "type": "address"
        }
      ],
      "name": "balanceOf",
      "outputs": [
        {
          "internalType": "uint256",
          "name": "",
          "type": "uint256"
        }
      ],
      "stateMutability": "view",
      "type": "function"
    },
    {
      "inputs": [],
      "name": "baseURI",
      "outputs": [
        {
          "internalType": "string",
          "name": "",
          "type": "string"
        }
      ],
      "stateMutability": "view",
      "type": "function"
    },
    {
      "inputs": [
        {
          "internalType": "address",
          "name": "userAddress",
          "type": "address"
        },
        {
          "internalType": "bytes",
          "name": "functionSignature",
          "type": "bytes"
        },
        {
          "internalType": "bytes32",
          "name": "sigR",
          "type": "bytes32"
        },
        {
          "internalType": "bytes32",
          "name": "sigS",
          "type": "bytes32"
        },
        {
          "internalType": "uint8",
          "name": "sigV",
          "type": "uint8"
        }
      ],
      "name": "executeMetaTransaction",
      "outputs": [
        {
          "internalType": "bytes",
          "name": "",
          "type": "bytes"
        }
      ],
      "stateMutability": "payable",
      "type": "function"
    },
    {
      "inputs": [
        {
          "internalType": "uint256",
          "name": "tokenId",
          "type": "uint256"
        }
      ],
      "name": "exists",
      "outputs": [
        {
          "internalType": "bool",
          "name": "",
          "type": "bool"
        }
      ],
      "stateMutability": "view",
      "type": "function"
    },
    {
      "inputs": [
        {
          "internalType": "uint256",
          "name": "tokenId",
          "type": "uint256"
        }
      ],
      "name": "getApproved",
      "outputs": [
        {
          "internalType": "address",
          "name": "",
          "type": "address"
        }
      ],
      "stateMutability": "view",
      "type": "function"
    },
    {
      "inputs": [],
      "name": "getChainId",
      "outputs": [
        {
          "internalType": "uint256",
          "name": "",
          "type": "uint256"
        }
      ],
      "stateMutability": "pure",
      "type": "function"
    },
    {
      "inputs": [],
      "name": "getDomainSeperator",
      "outputs": [
        {
          "internalType": "bytes32",
          "name": "",
          "type": "bytes32"
        }
      ],
      "stateMutability": "view",
      "type": "function"
    },
    {
      "inputs": [
        {
          "internalType": "address",
          "name": "user",
          "type": "address"
        }
      ],
      "name": "getNonce",
      "outputs": [
        {
          "internalType": "uint256",
          "name": "nonce",
          "type": "uint256"
        }
      ],
      "stateMutability": "view",
      "type": "function"
    },
    {
      "inputs": [
        {
          "internalType": "bytes32",
          "name": "role",
          "type": "bytes32"
        }
      ],
      "name": "getRoleAdmin",
      "outputs": [
        {
          "internalType": "bytes32",
          "name": "",
          "type": "bytes32"
        }
      ],
      "stateMutability": "view",
      "type": "function"
    },
    {
      "inputs": [
        {
          "internalType": "bytes32",
          "name": "role",
          "type": "bytes32"
        },
        {
          "internalType": "uint256",
          "name": "index",
          "type": "uint256"
        }
      ],
      "name": "getRoleMember",
      "outputs": [
        {
          "internalType": "address",
          "name": "",
          "type": "address"
        }
      ],
      "stateMutability": "view",
      "type": "function"
    },
    {
      "inputs": [
        {
          "internalType": "bytes32",
          "name": "role",
          "type": "bytes32"
        }
      ],
      "name": "getRoleMemberCount",
      "outputs": [
        {
          "internalType": "uint256",
          "name": "",
          "type": "uint256"
        }
      ],
      "stateMutability": "view",
      "type": "function"
    },
    {
      "inputs": [
        {
          "internalType": "bytes32",
          "name": "role",
          "type": "bytes32"
        },
        {
          "internalType": "address",
          "name": "account",
          "type": "address"
        }
      ],
      "name": "grantRole",
      "outputs": [],
      "stateMutability": "nonpayable",
      "type": "function"
    },
    {
      "inputs": [
        {
          "internalType": "bytes32",
          "name": "role",
          "type": "bytes32"
        },
        {
          "internalType": "address",
          "name": "account",
          "type": "address"
        }
      ],
      "name": "hasRole",
      "outputs": [
        {
          "internalType": "bool",
          "name": "",
          "type": "bool"
        }
      ],
      "stateMutability": "view",
      "type": "function"
    },
    {
      "inputs": [
        {
          "internalType": "address",
          "name": "owner",
          "type": "address"
        },
        {
          "internalType": "address",
          "name": "operator",
          "type": "address"
        }
      ],
      "name": "isApprovedForAll",
      "outputs": [
        {
          "internalType": "bool",
          "name": "",
          "type": "bool"
        }
      ],
      "stateMutability": "view",
      "type": "function"
    },
    {
      "inputs": [
        {
          "internalType": "address",
          "name": "user",
          "type": "address"
        },
        {
          "internalType": "uint256",
          "name": "tokenId",
          "type": "uint256"
        }
      ],
      "name": "mint",
      "outputs": [],
      "stateMutability": "nonpayable",
      "type": "function"
    },
    {
      "inputs": [
        {
          "internalType": "address",
          "name": "user",
          "type": "address"
        },
        {
          "internalType": "uint256",
          "name": "tokenId",
          "type": "uint256"
        },
        {
          "internalType": "bytes",
          "name": "metaData",
          "type": "bytes"
        }
      ],
      "name": "mint",
      "outputs": [],
      "stateMutability": "nonpayable",
      "type": "function"
    },
    {
      "inputs": [],
      "name": "name",
      "outputs": [
        {
          "internalType": "string",
          "name": "",
          "type": "string"
        }
      ],
      "stateMutability": "view",
      "type": "function"
    },
    {
      "inputs": [
        {
          "internalType": "uint256",
          "name": "tokenId",
          "type": "uint256"
        }
      ],
      "name": "ownerOf",
      "outputs": [
        {
          "internalType": "address",
          "name": "",
          "type": "address"
        }
      ],
      "stateMutability": "view",
      "type": "function"
    },
    {
      "inputs": [
        {
          "internalType": "bytes32",
          "name": "role",
          "type": "bytes32"
        },
        {
          "internalType": "address",
          "name": "account",
          "type": "address"
        }
      ],
      "name": "renounceRole",
      "outputs": [],
      "stateMutability": "nonpayable",
      "type": "function"
    },
    {
      "inputs": [
        {
          "internalType": "bytes32",
          "name": "role",
          "type": "bytes32"
        },
        {
          "internalType": "address",
          "name": "account",
          "type": "address"
        }
      ],
      "name": "revokeRole",
      "outputs": [],
      "stateMutability": "nonpayable",
      "type": "function"
    },
    {
      "inputs": [
        {
          "internalType": "address",
          "name": "from",
          "type": "address"
        },
        {
          "internalType": "address",
          "name": "to",
          "type": "address"
        },
        {
          "internalType": "uint256",
          "name": "tokenId",
          "type": "uint256"
        }
      ],
      "name": "safeTransferFrom",
      "outputs": [],
      "stateMutability": "nonpayable",
      "type": "function"
    },
    {
      "inputs": [
        {
          "internalType": "address",
          "name": "from",
          "type": "address"
        },
        {
          "internalType": "address",
          "name": "to",
          "type": "address"
        },
        {
          "internalType": "uint256",
          "name": "tokenId",
          "type": "uint256"
        },
        {
          "internalType": "bytes",
          "name": "_data",
          "type": "bytes"
        }
      ],
      "name": "safeTransferFrom",
      "outputs": [],
      "stateMutability": "nonpayable",
      "type": "function"
    },
    {
      "inputs": [
        {
          "internalType": "address",
          "name": "operator",
          "type": "address"
        },
        {
          "internalType": "bool",
          "name": "approved",
          "type": "bool"
        }
      ],
      "name": "setApprovalForAll",
      "outputs": [],
      "stateMutability": "nonpayable",
      "type": "function"
    },
    {
      "inputs": [
        {
          "internalType": "bytes4",
          "name": "interfaceId",
          "type": "bytes4"
        }
      ],
      "name": "supportsInterface",
      "outputs": [
        {
          "internalType": "bool",
          "name": "",
          "type": "bool"
        }
      ],
      "stateMutability": "view",
      "type": "function"
    },
    {
      "inputs": [],
      "name": "symbol",
      "outputs": [
        {
          "internalType": "string",
          "name": "",
          "type": "string"
        }
      ],
      "stateMutability": "view",
      "type": "function"
    },
    {
      "inputs": [
        {
          "internalType": "uint256",
          "name": "index",
          "type": "uint256"
        }
      ],
      "name": "tokenByIndex",
      "outputs": [
        {
          "internalType": "uint256",
          "name": "",
          "type": "uint256"
        }
      ],
      "stateMutability": "view",
      "type": "function"
    },
    {
      "inputs": [
        {
          "internalType": "address",
          "name": "owner",
          "type": "address"
        },
        {
          "internalType": "uint256",
          "name": "index",
          "type": "uint256"
        }
      ],
      "name": "tokenOfOwnerByIndex",
      "outputs": [
        {
          "internalType": "uint256",
          "name": "",
          "type": "uint256"
        }
      ],
      "stateMutability": "view",
      "type": "function"
    },
    {
      "inputs": [
        {
          "internalType": "uint256",
          "name": "tokenId",
          "type": "uint256"
        }
      ],
      "name": "tokenURI",
      "outputs": [
        {
          "internalType": "string",
          "name": "",
          "type": "string"
        }
      ],
      "stateMutability": "view",
      "type": "function"
    },
    {
      "inputs": [],
      "name": "totalSupply",
      "outputs": [
        {
          "internalType": "uint256",
          "name": "",
          "type": "uint256"
        }
      ],
      "stateMutability": "view",
      "type": "function"
    },
    {
      "inputs": [
        {
          "internalType": "address",
          "name": "from",
          "type": "address"
        },
        {
          "internalType": "address",
          "name": "to",
          "type": "address"
        },
        {
          "internalType": "uint256",
          "name": "tokenId",
          "type": "uint256"
        }
      ],
      "name": "transferFrom",
      "outputs": [],
      "stateMutability": "nonpayable",
      "type": "function"
    }
  ],
  "bytecode": "0x60806040526000600c60006101000a81548160ff0219169083151502179055503480156200002c57600080fd5b5060405162004f9538038062004f95833981810160405260408110156200005257600080fd5b81019080805160405193929190846401000000008211156200007357600080fd5b838201915060208201858111156200008a57600080fd5b8251866001820283011164010000000082111715620000a857600080fd5b8083526020830192505050908051906020019080838360005b83811015620000de578082015181840152602081019050620000c1565b50505050905090810190601f1680156200010c5780820380516001836020036101000a031916815260200191505b50604052602001805160405193929190846401000000008211156200013057600080fd5b838201915060208201858111156200014757600080fd5b82518660018202830111640100000000821117156200016557600080fd5b8083526020830192505050908051906020019080838360005b838110156200019b5780820151818401526020810190506200017e565b50505050905090810190601f168015620001c95780820380516001836020036101000a031916815260200191505b506040525050508181620001ea6301ffc9a760e01b6200033f60201b60201c565b8160069080519060200190620002029291906200090b565b5080600790805190602001906200021b9291906200090b565b50620002346380ac58cd60e01b6200033f60201b60201c565b6200024c635b5e139f60e01b6200033f60201b60201c565b6200026463780e9d6360e01b6200033f60201b60201c565b5050620002ac6040518060400160405280601381526020017f44756d6d794d696e7461626c65455243373231000000000000000000000000008152506200044860201b60201c565b620002d06000801b620002c4620004f860201b60201c565b6200051460201b60201c565b6200032660405180807f5052454449434154455f524f4c45000000000000000000000000000000000000815250600e01905060405180910390206200031a620004f860201b60201c565b6200051460201b60201c565b62000337826200052a60201b60201c565b5050620009ba565b63ffffffff60e01b817bffffffffffffffffffffffffffffffffffffffffffffffffffffffff19161415620003dc576040517f08c379a000000000000000000000000000000000000000000000000000000000815260040180806020018281038252601c8152602001807f4552433136353a20696e76616c696420696e746572666163652069640000000081525060200191505060405180910390fd5b6001600080837bffffffffffffffffffffffffffffffffffffffffffffffffffffffff19167bffffffffffffffffffffffffffffffffffffffffffffffffffffffff1916815260200190815260200160002060006101000a81548160ff02191690831515021790555050565b806040516020018082805190602001908083835b602083106200048157805182526020820191506020810190506020830392506200045c565b6001836020036101000a038019825116818451168082178552505050505050905001807f3a20494e53554646494349454e545f5045524d495353494f4e53000000000000815250601a01915050604051602081830303815290604052600b9080519060200190620004f49291906200090b565b5050565b60006200050f620005dd60201b6200342d1760201c565b905090565b6200052682826200069460201b60201c565b5050565b600c60009054906101000a900460ff1615620005ae576040517f08c379a000000000000000000000000000000000000000000000000000000000815260040180806020018281038252600e8152602001807f616c726561647920696e6974656400000000000000000000000000000000000081525060200191505060405180910390fd5b620005bf816200073860201b60201c565b6001600c60006101000a81548160ff02191690831515021790555050565b60003073ffffffffffffffffffffffffffffffffffffffff163373ffffffffffffffffffffffffffffffffffffffff1614156200068a5760606000368080601f016020809104026020016040519081016040528093929190818152602001838380828437600081840152601f19601f820116905080830192505050505050509050600080369050905073ffffffffffffffffffffffffffffffffffffffff8183015116925050506200068e565b3390505b80905090565b620006c381600a60008581526020019081526020016000206000016200082960201b6200366e1790919060201c565b156200073457620006d9620004f860201b60201c565b73ffffffffffffffffffffffffffffffffffffffff168173ffffffffffffffffffffffffffffffffffffffff16837f2f8788117e7eff1d82e926ec794901d17c78024a50270940304540a733656f0d60405160405180910390a45b5050565b6040518060800160405280604f815260200162004f46604f91398051906020012081805190602001206040518060400160405280600181526020017f31000000000000000000000000000000000000000000000000000000000000008152508051906020012030620007af6200086160201b60201c565b60001b604051602001808681526020018581526020018481526020018373ffffffffffffffffffffffffffffffffffffffff1673ffffffffffffffffffffffffffffffffffffffff1681526020018281526020019550505050505060405160208183030381529060405280519060200120600d8190555050565b600062000859836000018373ffffffffffffffffffffffffffffffffffffffff1660001b6200086e60201b60201c565b905092915050565b6000804690508091505090565b6000620008828383620008e860201b60201c565b620008dd578260000182908060018154018082558091505060019003906000526020600020016000909190919091505582600001805490508360010160008481526020019081526020016000208190555060019050620008e2565b600090505b92915050565b600080836001016000848152602001908152602001600020541415905092915050565b828054600181600116156101000203166002900490600052602060002090601f016020900481019282601f106200094e57805160ff19168380011785556200097f565b828001600101855582156200097f579182015b828111156200097e57825182559160200191906001019062000961565b5b5090506200098e919062000992565b5090565b620009b791905b80821115620009b357600081600090555060010162000999565b5090565b90565b61457c80620009ca6000396000f3fe6080604052600436106101f95760003560e01c80634f558e791161010d57806395d89b41116100a0578063c87b56dd1161006f578063c87b56dd14610f6a578063ca15c8731461101e578063d547741f1461106d578063e72db5fd146110c8578063e985e9c5146110f3576101f9565b806395d89b4114610d40578063a217fddf14610dd0578063a22cb46514610dfb578063b88d4fde14610e58576101f9565b806370a08231116100dc57806370a0823114610b335780639010d07c14610b9857806391d1485414610c1d57806394d008ef14610c90576101f9565b80634f558e79146109865780634f6ccce7146109d95780636352211e14610a285780636c0360eb14610aa3576101f9565b806323b872dd116101905780632f745c591161015f5780632f745c59146107bb5780633408e4701461082a57806336568abe1461085557806340c10f19146108b057806342842e0e1461090b576101f9565b806323b872dd14610631578063248a9ca3146106ac5780632d0335ab146106fb5780632f2ff15d14610760576101f9565b80630c53c51c116101cc5780630c53c51c146103d65780630f7e59701461054b57806318160ddd146105db57806320379ee514610606576101f9565b806301ffc9a7146101fe57806306fdde0314610270578063081812fc14610300578063095ea7b31461037b575b600080fd5b34801561020a57600080fd5b506102566004803603602081101561022157600080fd5b8101908080357bffffffffffffffffffffffffffffffffffffffffffffffffffffffff1916906020019092919050505061117c565b604051808215151515815260200191505060405180910390f35b34801561027c57600080fd5b506102856111e3565b6040518080602001828103825283818151815260200191508051906020019080838360005b838110156102c55780820151818401526020810190506102aa565b50505050905090810190601f1680156102f25780820380516001836020036101000a031916815260200191505b509250505060405180910390f35b34801561030c57600080fd5b506103396004803603602081101561032357600080fd5b8101908080359060200190929190505050611285565b604051808273ffffffffffffffffffffffffffffffffffffffff1673ffffffffffffffffffffffffffffffffffffffff16815260200191505060405180910390f35b34801561038757600080fd5b506103d46004803603604081101561039e57600080fd5b81019080803573ffffffffffffffffffffffffffffffffffffffff16906020019092919080359060200190929190505050611320565b005b6104d0600480360360a08110156103ec57600080fd5b81019080803573ffffffffffffffffffffffffffffffffffffffff1690602001909291908035906020019064010000000081111561042957600080fd5b82018360208201111561043b57600080fd5b8035906020019184600183028401116401000000008311171561045d57600080fd5b91908080601f016020809104026020016040519081016040528093929190818152602001838380828437600081840152601f19601f8201169050808301925050505050505091929192908035906020019092919080359060200190929190803560ff169060200190929190505050611464565b6040518080602001828103825283818151815260200191508051906020019080838360005b838110156105105780820151818401526020810190506104f5565b50505050905090810190601f16801561053d5780820380516001836020036101000a031916815260200191505b509250505060405180910390f35b34801561055757600080fd5b506105606118ba565b6040518080602001828103825283818151815260200191508051906020019080838360005b838110156105a0578082015181840152602081019050610585565b50505050905090810190601f1680156105cd5780820380516001836020036101000a031916815260200191505b509250505060405180910390f35b3480156105e757600080fd5b506105f06118f3565b6040518082815260200191505060405180910390f35b34801561061257600080fd5b5061061b611904565b6040518082815260200191505060405180910390f35b34801561063d57600080fd5b506106aa6004803603606081101561065457600080fd5b81019080803573ffffffffffffffffffffffffffffffffffffffff169060200190929190803573ffffffffffffffffffffffffffffffffffffffff1690602001909291908035906020019092919050505061190e565b005b3480156106b857600080fd5b506106e5600480360360208110156106cf57600080fd5b8101908080359060200190929190505050611984565b6040518082815260200191505060405180910390f35b34801561070757600080fd5b5061074a6004803603602081101561071e57600080fd5b81019080803573ffffffffffffffffffffffffffffffffffffffff1690602001909291905050506119a4565b6040518082815260200191505060405180910390f35b34801561076c57600080fd5b506107b96004803603604081101561078357600080fd5b8101908080359060200190929190803573ffffffffffffffffffffffffffffffffffffffff1690602001909291905050506119ed565b005b3480156107c757600080fd5b50610814600480360360408110156107de57600080fd5b81019080803573ffffffffffffffffffffffffffffffffffffffff16906020019092919080359060200190929190505050611a77565b6040518082815260200191505060405180910390f35b34801561083657600080fd5b5061083f611ad2565b6040518082815260200191505060405180910390f35b34801561086157600080fd5b506108ae6004803603604081101561087857600080fd5b8101908080359060200190929190803573ffffffffffffffffffffffffffffffffffffffff169060200190929190505050611adf565b005b3480156108bc57600080fd5b50610909600480360360408110156108d357600080fd5b81019080803573ffffffffffffffffffffffffffffffffffffffff16906020019092919080359060200190929190505050611b78565b005b34801561091757600080fd5b506109846004803603606081101561092e57600080fd5b81019080803573ffffffffffffffffffffffffffffffffffffffff169060200190929190803573ffffffffffffffffffffffffffffffffffffffff16906020019092919080359060200190929190505050611c94565b005b34801561099257600080fd5b506109bf600480360360208110156109a957600080fd5b8101908080359060200190929190505050611cb4565b604051808215151515815260200191505060405180910390f35b3480156109e557600080fd5b50610a12600480360360208110156109fc57600080fd5b8101908080359060200190929190505050611cc6565b6040518082815260200191505060405180910390f35b348015610a3457600080fd5b50610a6160048036036020811015610a4b57600080fd5b8101908080359060200190929190505050611ce9565b604051808273ffffffffffffffffffffffffffffffffffffffff1673ffffffffffffffffffffffffffffffffffffffff16815260200191505060405180910390f35b348015610aaf57600080fd5b50610ab8611d20565b6040518080602001828103825283818151815260200191508051906020019080838360005b83811015610af8578082015181840152602081019050610add565b50505050905090810190601f168015610b255780820380516001836020036101000a031916815260200191505b509250505060405180910390f35b348015610b3f57600080fd5b50610b8260048036036020811015610b5657600080fd5b81019080803573ffffffffffffffffffffffffffffffffffffffff169060200190929190505050611dc2565b6040518082815260200191505060405180910390f35b348015610ba457600080fd5b50610bdb60048036036040811015610bbb57600080fd5b810190808035906020019092919080359060200190929190505050611e97565b604051808273ffffffffffffffffffffffffffffffffffffffff1673ffffffffffffffffffffffffffffffffffffffff16815260200191505060405180910390f35b348015610c2957600080fd5b50610c7660048036036040811015610c4057600080fd5b8101908080359060200190929190803573ffffffffffffffffffffffffffffffffffffffff169060200190929190505050611ec9565b604051808215151515815260200191505060405180910390f35b348015610c9c57600080fd5b50610d3e60048036036060811015610cb357600080fd5b81019080803573ffffffffffffffffffffffffffffffffffffffff1690602001909291908035906020019092919080359060200190640100000000811115610cfa57600080fd5b820183602082011115610d0c57600080fd5b80359060200191846001830284011164010000000083111715610d2e57600080fd5b9091929391929390505050611efb565b005b348015610d4c57600080fd5b50610d55612067565b6040518080602001828103825283818151815260200191508051906020019080838360005b83811015610d95578082015181840152602081019050610d7a565b50505050905090810190601f168015610dc25780820380516001836020036101000a031916815260200191505b509250505060405180910390f35b348015610ddc57600080fd5b50610de5612109565b6040518082815260200191505060405180910390f35b348015610e0757600080fd5b50610e5660048036036040811015610e1e57600080fd5b81019080803573ffffffffffffffffffffffffffffffffffffffff169060200190929190803515159060200190929190505050612110565b005b348015610e6457600080fd5b50610f6860048036036080811015610e7b57600080fd5b81019080803573ffffffffffffffffffffffffffffffffffffffff169060200190929190803573ffffffffffffffffffffffffffffffffffffffff1690602001909291908035906020019092919080359060200190640100000000811115610ee257600080fd5b820183602082011115610ef457600080fd5b80359060200191846001830284011164010000000083111715610f1657600080fd5b91908080601f016020809104026020016040519081016040528093929190818152602001838380828437600081840152601f19601f8201169050808301925050505050505091929192905050506122c8565b005b348015610f7657600080fd5b50610fa360048036036020811015610f8d57600080fd5b8101908080359060200190929190505050612340565b6040518080602001828103825283818151815260200191508051906020019080838360005b83811015610fe3578082015181840152602081019050610fc8565b50505050905090810190601f1680156110105780820380516001836020036101000a031916815260200191505b509250505060405180910390f35b34801561102a57600080fd5b506110576004803603602081101561104157600080fd5b8101908080359060200190929190505050612611565b6040518082815260200191505060405180910390f35b34801561107957600080fd5b506110c66004803603604081101561109057600080fd5b8101908080359060200190929190803573ffffffffffffffffffffffffffffffffffffffff169060200190929190505050612638565b005b3480156110d457600080fd5b506110dd6126c2565b6040518082815260200191505060405180910390f35b3480156110ff57600080fd5b506111626004803603604081101561111657600080fd5b81019080803573ffffffffffffffffffffffffffffffffffffffff169060200190929190803573ffffffffffffffffffffffffffffffffffffffff1690602001909291905050506126fb565b604051808215151515815260200191505060405180910390f35b6000806000837bffffffffffffffffffffffffffffffffffffffffffffffffffffffff19167bffffffffffffffffffffffffffffffffffffffffffffffffffffffff1916815260200190815260200160002060009054906101000a900460ff169050919050565b606060068054600181600116156101000203166002900480601f01602080910402602001604051908101604052809291908181526020018280546001816001161561010002031660029004801561127b5780601f106112505761010080835404028352916020019161127b565b820191906000526020600020905b81548152906001019060200180831161125e57829003601f168201915b5050505050905090565b60006112908261278f565b6112e5576040517f08c379a000000000000000000000000000000000000000000000000000000000815260040180806020018281038252602c8152602001806143f5602c913960400191505060405180910390fd5b6004600083815260200190815260200160002060009054906101000a900473ffffffffffffffffffffffffffffffffffffffff169050919050565b600061132b82611ce9565b90508073ffffffffffffffffffffffffffffffffffffffff168373ffffffffffffffffffffffffffffffffffffffff1614156113b2576040517f08c379a00000000000000000000000000000000000000000000000000000000081526004018080602001828103825260218152602001806144c66021913960400191505060405180910390fd5b8073ffffffffffffffffffffffffffffffffffffffff166113d16127ac565b73ffffffffffffffffffffffffffffffffffffffff16148061140057506113ff816113fa6127ac565b6126fb565b5b611455576040517f08c379a00000000000000000000000000000000000000000000000000000000081526004018080602001828103825260388152602001806143486038913960400191505060405180910390fd5b61145f83836127bb565b505050565b606061146e6140da565b6040518060600160405280600e60008a73ffffffffffffffffffffffffffffffffffffffff1673ffffffffffffffffffffffffffffffffffffffff1681526020019081526020016000205481526020018873ffffffffffffffffffffffffffffffffffffffff1681526020018781525090506114ed8782878787612874565b611542576040517f08c379a00000000000000000000000000000000000000000000000000000000081526004018080602001828103825260218152602001806144766021913960400191505060405180910390fd5b6115956001600e60008a73ffffffffffffffffffffffffffffffffffffffff1673ffffffffffffffffffffffffffffffffffffffff168152602001908152602001600020546129ab90919063ffffffff16565b600e60008973ffffffffffffffffffffffffffffffffffffffff1673ffffffffffffffffffffffffffffffffffffffff168152602001908152602001600020819055507f5845892132946850460bff5a0083f71031bc5bf9aadcd40f1de79423eac9b10b873388604051808473ffffffffffffffffffffffffffffffffffffffff1673ffffffffffffffffffffffffffffffffffffffff1681526020018373ffffffffffffffffffffffffffffffffffffffff1673ffffffffffffffffffffffffffffffffffffffff16815260200180602001828103825283818151815260200191508051906020019080838360005b838110156116a0578082015181840152602081019050611685565b50505050905090810190601f1680156116cd5780820380516001836020036101000a031916815260200191505b5094505050505060405180910390a1600060603073ffffffffffffffffffffffffffffffffffffffff16888a6040516020018083805190602001908083835b6020831061172f578051825260208201915060208101905060208303925061170c565b6001836020036101000a0380198251168184511680821785525050505050509050018273ffffffffffffffffffffffffffffffffffffffff1673ffffffffffffffffffffffffffffffffffffffff1660601b8152601401925050506040516020818303038152906040526040518082805190602001908083835b602083106117cc57805182526020820191506020810190506020830392506117a9565b6001836020036101000a0380198251168184511680821785525050505050509050019150506000604051808303816000865af19150503d806000811461182e576040519150601f19603f3d011682016040523d82523d6000602084013e611833565b606091505b5091509150816118ab576040517f08c379a000000000000000000000000000000000000000000000000000000000815260040180806020018281038252601c8152602001807f46756e6374696f6e2063616c6c206e6f74207375636365737366756c0000000081525060200191505060405180910390fd5b80935050505095945050505050565b6040518060400160405280600181526020017f310000000000000000000000000000000000000000000000000000000000000081525081565b60006118ff6002612a33565b905090565b6000600d54905090565b61191f6119196127ac565b82612a48565b611974576040517f08c379a00000000000000000000000000000000000000000000000000000000081526004018080602001828103825260318152602001806144e76031913960400191505060405180910390fd5b61197f838383612b3c565b505050565b6000600a6000838152602001908152602001600020600201549050919050565b6000600e60008373ffffffffffffffffffffffffffffffffffffffff1673ffffffffffffffffffffffffffffffffffffffff168152602001908152602001600020549050919050565b611a14600a600084815260200190815260200160002060020154611a0f6127ac565b611ec9565b611a69576040517f08c379a000000000000000000000000000000000000000000000000000000000815260040180806020018281038252602f8152602001806141d9602f913960400191505060405180910390fd5b611a738282612d7f565b5050565b6000611aca82600160008673ffffffffffffffffffffffffffffffffffffffff1673ffffffffffffffffffffffffffffffffffffffff168152602001908152602001600020612e1390919063ffffffff16565b905092915050565b6000804690508091505090565b611ae76127ac565b73ffffffffffffffffffffffffffffffffffffffff168173ffffffffffffffffffffffffffffffffffffffff1614611b6a576040517f08c379a000000000000000000000000000000000000000000000000000000000815260040180806020018281038252602f815260200180614518602f913960400191505060405180910390fd5b611b748282612e2d565b5050565b60405180807f5052454449434154455f524f4c45000000000000000000000000000000000000815250600e0190506040518091039020611bbf81611bba6127ac565b611ec9565b600b90611c84576040517f08c379a00000000000000000000000000000000000000000000000000000000081526004018080602001828103825283818154600181600116156101000203166002900481526020019150805460018160011615610100020316600290048015611c755780601f10611c4a57610100808354040283529160200191611c75565b820191906000526020600020905b815481529060010190602001808311611c5857829003601f168201915b50509250505060405180910390fd5b50611c8f8383612ec1565b505050565b611caf838383604051806020016040528060008152506122c8565b505050565b6000611cbf8261278f565b9050919050565b600080611cdd8360026130b590919063ffffffff16565b50905080915050919050565b6000611d19826040518060600160405280602981526020016143aa6029913960026130e49092919063ffffffff16565b9050919050565b606060098054600181600116156101000203166002900480601f016020809104026020016040519081016040528092919081815260200182805460018160011615610100020316600290048015611db85780601f10611d8d57610100808354040283529160200191611db8565b820191906000526020600020905b815481529060010190602001808311611d9b57829003601f168201915b5050505050905090565b60008073ffffffffffffffffffffffffffffffffffffffff168273ffffffffffffffffffffffffffffffffffffffff161415611e49576040517f08c379a000000000000000000000000000000000000000000000000000000000815260040180806020018281038252602a815260200180614380602a913960400191505060405180910390fd5b611e90600160008473ffffffffffffffffffffffffffffffffffffffff1673ffffffffffffffffffffffffffffffffffffffff168152602001908152602001600020613103565b9050919050565b6000611ec182600a600086815260200190815260200160002060000161311890919063ffffffff16565b905092915050565b6000611ef382600a600086815260200190815260200160002060000161313290919063ffffffff16565b905092915050565b60405180807f5052454449434154455f524f4c45000000000000000000000000000000000000815250600e0190506040518091039020611f4281611f3d6127ac565b611ec9565b600b90612007576040517f08c379a00000000000000000000000000000000000000000000000000000000081526004018080602001828103825283818154600181600116156101000203166002900481526020019150805460018160011615610100020316600290048015611ff85780601f10611fcd57610100808354040283529160200191611ff8565b820191906000526020600020905b815481529060010190602001808311611fdb57829003601f168201915b50509250505060405180910390fd5b506120128585612ec1565b6120608484848080601f016020809104026020016040519081016040528093929190818152602001838380828437600081840152601f19601f82011690508083019250505050505050613162565b5050505050565b606060078054600181600116156101000203166002900480601f0160208091040260200160405190810160405280929190818152602001828054600181600116156101000203166002900480156120ff5780601f106120d4576101008083540402835291602001916120ff565b820191906000526020600020905b8154815290600101906020018083116120e257829003601f168201915b5050505050905090565b6000801b81565b6121186127ac565b73ffffffffffffffffffffffffffffffffffffffff168273ffffffffffffffffffffffffffffffffffffffff1614156121b9576040517f08c379a00000000000000000000000000000000000000000000000000000000081526004018080602001828103825260198152602001807f4552433732313a20617070726f766520746f2063616c6c65720000000000000081525060200191505060405180910390fd5b80600560006121c66127ac565b73ffffffffffffffffffffffffffffffffffffffff1673ffffffffffffffffffffffffffffffffffffffff16815260200190815260200160002060008473ffffffffffffffffffffffffffffffffffffffff1673ffffffffffffffffffffffffffffffffffffffff16815260200190815260200160002060006101000a81548160ff0219169083151502179055508173ffffffffffffffffffffffffffffffffffffffff166122736127ac565b73ffffffffffffffffffffffffffffffffffffffff167f17307eab39ab6107e8899845ad3d59bd9653f200f220920489ca2b5937696c3183604051808215151515815260200191505060405180910390a35050565b6122d96122d36127ac565b83612a48565b61232e576040517f08c379a00000000000000000000000000000000000000000000000000000000081526004018080602001828103825260318152602001806144e76031913960400191505060405180910390fd5b61233a84848484613245565b50505050565b606061234b8261278f565b6123a0576040517f08c379a000000000000000000000000000000000000000000000000000000000815260040180806020018281038252602f815260200180614497602f913960400191505060405180910390fd5b6060600860008481526020019081526020016000208054600181600116156101000203166002900480601f0160208091040260200160405190810160405280929190818152602001828054600181600116156101000203166002900480156124495780601f1061241e57610100808354040283529160200191612449565b820191906000526020600020905b81548152906001019060200180831161242c57829003601f168201915b50505050509050606061245a611d20565b905060008151141561247057819250505061260c565b6000825111156125415780826040516020018083805190602001908083835b602083106124b2578051825260208201915060208101905060208303925061248f565b6001836020036101000a03801982511681845116808217855250505050505090500182805190602001908083835b6020831061250357805182526020820191506020810190506020830392506124e0565b6001836020036101000a038019825116818451168082178552505050505050905001925050506040516020818303038152906040529250505061260c565b8061254b856132b7565b6040516020018083805190602001908083835b60208310612581578051825260208201915060208101905060208303925061255e565b6001836020036101000a03801982511681845116808217855250505050505090500182805190602001908083835b602083106125d257805182526020820191506020810190506020830392506125af565b6001836020036101000a03801982511681845116808217855250505050505090500192505050604051602081830303815290604052925050505b919050565b6000612631600a60008481526020019081526020016000206000016133fe565b9050919050565b61265f600a60008481526020019081526020016000206002015461265a6127ac565b611ec9565b6126b4576040517f08c379a00000000000000000000000000000000000000000000000000000000081526004018080602001828103825260308152602001806142f36030913960400191505060405180910390fd5b6126be8282612e2d565b5050565b60405180807f5052454449434154455f524f4c45000000000000000000000000000000000000815250600e019050604051809103902081565b6000600560008473ffffffffffffffffffffffffffffffffffffffff1673ffffffffffffffffffffffffffffffffffffffff16815260200190815260200160002060008373ffffffffffffffffffffffffffffffffffffffff1673ffffffffffffffffffffffffffffffffffffffff16815260200190815260200160002060009054906101000a900460ff16905092915050565b60006127a582600261341390919063ffffffff16565b9050919050565b60006127b661342d565b905090565b816004600083815260200190815260200160002060006101000a81548173ffffffffffffffffffffffffffffffffffffffff021916908373ffffffffffffffffffffffffffffffffffffffff160217905550808273ffffffffffffffffffffffffffffffffffffffff1661282e83611ce9565b73ffffffffffffffffffffffffffffffffffffffff167f8c5be1e5ebec7d5bd14f71427d1e84f3dd0314c0f7b2291e5b200ac8c7c3b92560405160405180910390a45050565b60008073ffffffffffffffffffffffffffffffffffffffff168673ffffffffffffffffffffffffffffffffffffffff1614156128fb576040517f08c379a00000000000000000000000000000000000000000000000000000000081526004018080602001828103825260258152602001806143236025913960400191505060405180910390fd5b600161290e612909876134e2565b613588565b83868660405160008152602001604052604051808581526020018460ff1660ff1681526020018381526020018281526020019450505050506020604051602081039080840390855afa158015612968573d6000803e3d6000fd5b5050506020604051035173ffffffffffffffffffffffffffffffffffffffff168673ffffffffffffffffffffffffffffffffffffffff1614905095945050505050565b600080828401905083811015612a29576040517f08c379a000000000000000000000000000000000000000000000000000000000815260040180806020018281038252601b8152602001807f536166654d6174683a206164646974696f6e206f766572666c6f77000000000081525060200191505060405180910390fd5b8091505092915050565b6000612a41826000016135ef565b9050919050565b6000612a538261278f565b612aa8576040517f08c379a000000000000000000000000000000000000000000000000000000000815260040180806020018281038252602c8152602001806142c7602c913960400191505060405180910390fd5b6000612ab383611ce9565b90508073ffffffffffffffffffffffffffffffffffffffff168473ffffffffffffffffffffffffffffffffffffffff161480612b2257508373ffffffffffffffffffffffffffffffffffffffff16612b0a84611285565b73ffffffffffffffffffffffffffffffffffffffff16145b80612b335750612b3281856126fb565b5b91505092915050565b8273ffffffffffffffffffffffffffffffffffffffff16612b5c82611ce9565b73ffffffffffffffffffffffffffffffffffffffff1614612bc8576040517f08c379a000000000000000000000000000000000000000000000000000000000815260040180806020018281038252602981526020018061444d6029913960400191505060405180910390fd5b600073ffffffffffffffffffffffffffffffffffffffff168273ffffffffffffffffffffffffffffffffffffffff161415612c4e576040517f08c379a000000000000000000000000000000000000000000000000000000000815260040180806020018281038252602481526020018061427d6024913960400191505060405180910390fd5b612c59838383613600565b612c646000826127bb565b612cb581600160008673ffffffffffffffffffffffffffffffffffffffff1673ffffffffffffffffffffffffffffffffffffffff16815260200190815260200160002061360590919063ffffffff16565b50612d0781600160008573ffffffffffffffffffffffffffffffffffffffff1673ffffffffffffffffffffffffffffffffffffffff16815260200190815260200160002061361f90919063ffffffff16565b50612d1e818360026136399092919063ffffffff16565b50808273ffffffffffffffffffffffffffffffffffffffff168473ffffffffffffffffffffffffffffffffffffffff167fddf252ad1be2c89b69c2b068fc378daa952ba7f163c4a11628f55a4df523b3ef60405160405180910390a4505050565b612da781600a600085815260200190815260200160002060000161366e90919063ffffffff16565b15612e0f57612db46127ac565b73ffffffffffffffffffffffffffffffffffffffff168173ffffffffffffffffffffffffffffffffffffffff16837f2f8788117e7eff1d82e926ec794901d17c78024a50270940304540a733656f0d60405160405180910390a45b5050565b6000612e22836000018361369e565b60001c905092915050565b612e5581600a600085815260200190815260200160002060000161372190919063ffffffff16565b15612ebd57612e626127ac565b73ffffffffffffffffffffffffffffffffffffffff168173ffffffffffffffffffffffffffffffffffffffff16837ff6391f5c32d9c69d2a47ea670b442974b53935d1edc7fd64eb21e047a839171b60405160405180910390a45b5050565b600073ffffffffffffffffffffffffffffffffffffffff168273ffffffffffffffffffffffffffffffffffffffff161415612f64576040517f08c379a00000000000000000000000000000000000000000000000000000000081526004018080602001828103825260208152602001807f4552433732313a206d696e7420746f20746865207a65726f206164647265737381525060200191505060405180910390fd5b612f6d8161278f565b15612fe0576040517f08c379a000000000000000000000000000000000000000000000000000000000815260040180806020018281038252601c8152602001807f4552433732313a20746f6b656e20616c7265616479206d696e7465640000000081525060200191505060405180910390fd5b612fec60008383613600565b61303d81600160008573ffffffffffffffffffffffffffffffffffffffff1673ffffffffffffffffffffffffffffffffffffffff16815260200190815260200160002061361f90919063ffffffff16565b50613054818360026136399092919063ffffffff16565b50808273ffffffffffffffffffffffffffffffffffffffff16600073ffffffffffffffffffffffffffffffffffffffff167fddf252ad1be2c89b69c2b068fc378daa952ba7f163c4a11628f55a4df523b3ef60405160405180910390a45050565b6000806000806130c88660000186613751565b915091508160001c8160001c8090509350935050509250929050565b60006130f7846000018460001b846137ea565b60001c90509392505050565b6000613111826000016138e0565b9050919050565b6000613127836000018361369e565b60001c905092915050565b600061315a836000018373ffffffffffffffffffffffffffffffffffffffff1660001b6138f1565b905092915050565b606081806020019051602081101561317957600080fd5b810190808051604051939291908464010000000082111561319957600080fd5b838201915060208201858111156131af57600080fd5b82518660018202830111640100000000821117156131cc57600080fd5b8083526020830192505050908051906020019080838360005b838110156132005780820151818401526020810190506131e5565b50505050905090810190601f16801561322d5780820380516001836020036101000a031916815260200191505b5060405250505090506132408382613914565b505050565b613250848484612b3c565b61325c8484848461399e565b6132b1576040517f08c379a00000000000000000000000000000000000000000000000000000000081526004018080602001828103825260328152602001806142086032913960400191505060405180910390fd5b50505050565b606060008214156132ff576040518060400160405280600181526020017f300000000000000000000000000000000000000000000000000000000000000081525090506133f9565b600082905060005b60008214613329578080600101915050600a828161332157fe5b049150613307565b60608167ffffffffffffffff8111801561334257600080fd5b506040519080825280601f01601f1916602001820160405280156133755781602001600182028036833780820191505090505b50905060006001830390508593505b600084146133f157600a848161339657fe5b0660300160f81b828280600190039350815181106133b057fe5b60200101907effffffffffffffffffffffffffffffffffffffffffffffffffffffffffffff1916908160001a905350600a84816133e957fe5b049350613384565b819450505050505b919050565b600061340c826000016138e0565b9050919050565b6000613425836000018360001b613be3565b905092915050565b60003073ffffffffffffffffffffffffffffffffffffffff163373ffffffffffffffffffffffffffffffffffffffff1614156134d85760606000368080601f016020809104026020016040519081016040528093929190818152602001838380828437600081840152601f19601f820116905080830192505050505050509050600080369050905073ffffffffffffffffffffffffffffffffffffffff8183015116925050506134dc565b3390505b80905090565b600060405180608001604052806043815260200161423a604391398051906020012082600001518360200151846040015180519060200120604051602001808581526020018481526020018373ffffffffffffffffffffffffffffffffffffffff1673ffffffffffffffffffffffffffffffffffffffff168152602001828152602001945050505050604051602081830303815290604052805190602001209050919050565b6000613592611904565b8260405160200180807f190100000000000000000000000000000000000000000000000000000000000081525060020183815260200182815260200192505050604051602081830303815290604052805190602001209050919050565b600081600001805490509050919050565b505050565b6000613617836000018360001b613c06565b905092915050565b6000613631836000018360001b613cee565b905092915050565b6000613665846000018460001b8473ffffffffffffffffffffffffffffffffffffffff1660001b613d5e565b90509392505050565b6000613696836000018373ffffffffffffffffffffffffffffffffffffffff1660001b613cee565b905092915050565b6000818360000180549050116136ff576040517f08c379a00000000000000000000000000000000000000000000000000000000081526004018080602001828103825260228152602001806141b76022913960400191505060405180910390fd5b82600001828154811061370e57fe5b9060005260206000200154905092915050565b6000613749836000018373ffffffffffffffffffffffffffffffffffffffff1660001b613c06565b905092915050565b600080828460000180549050116137b3576040517f08c379a00000000000000000000000000000000000000000000000000000000081526004018080602001828103825260228152602001806143d36022913960400191505060405180910390fd5b60008460000184815481106137c457fe5b906000526020600020906002020190508060000154816001015492509250509250929050565b600080846001016000858152602001908152602001600020549050600081141583906138b1576040517f08c379a00000000000000000000000000000000000000000000000000000000081526004018080602001828103825283818151815260200191508051906020019080838360005b8381101561387657808201518184015260208101905061385b565b50505050905090810190601f1680156138a35780820380516001836020036101000a031916815260200191505b509250505060405180910390fd5b508460000160018203815481106138c457fe5b9060005260206000209060020201600101549150509392505050565b600081600001805490509050919050565b600080836001016000848152602001908152602001600020541415905092915050565b61391d8261278f565b613972576040517f08c379a000000000000000000000000000000000000000000000000000000000815260040180806020018281038252602c815260200180614421602c913960400191505060405180910390fd5b80600860008481526020019081526020016000209080519060200190613999929190614111565b505050565b60006139bf8473ffffffffffffffffffffffffffffffffffffffff16613e3a565b6139cc5760019050613bdb565b6060613b6263150b7a0260e01b6139e16127ac565b888787604051602401808573ffffffffffffffffffffffffffffffffffffffff1673ffffffffffffffffffffffffffffffffffffffff1681526020018473ffffffffffffffffffffffffffffffffffffffff1673ffffffffffffffffffffffffffffffffffffffff16815260200183815260200180602001828103825283818151815260200191508051906020019080838360005b83811015613a91578082015181840152602081019050613a76565b50505050905090810190601f168015613abe5780820380516001836020036101000a031916815260200191505b5095505050505050604051602081830303815290604052907bffffffffffffffffffffffffffffffffffffffffffffffffffffffff19166020820180517bffffffffffffffffffffffffffffffffffffffffffffffffffffffff8381831617835250505050604051806060016040528060328152602001614208603291398773ffffffffffffffffffffffffffffffffffffffff16613e4d9092919063ffffffff16565b90506000818060200190516020811015613b7b57600080fd5b8101908080519060200190929190505050905063150b7a0260e01b7bffffffffffffffffffffffffffffffffffffffffffffffffffffffff1916817bffffffffffffffffffffffffffffffffffffffffffffffffffffffff191614925050505b949350505050565b600080836001016000848152602001908152602001600020541415905092915050565b60008083600101600084815260200190815260200160002054905060008114613ce25760006001820390506000600186600001805490500390506000866000018281548110613c5157fe5b9060005260206000200154905080876000018481548110613c6e57fe5b9060005260206000200181905550600183018760010160008381526020019081526020016000208190555086600001805480613ca657fe5b60019003818190600052602060002001600090559055866001016000878152602001908152602001600020600090556001945050505050613ce8565b60009150505b92915050565b6000613cfa83836138f1565b613d53578260000182908060018154018082558091505060019003906000526020600020016000909190919091505582600001805490508360010160008481526020019081526020016000208190555060019050613d58565b600090505b92915050565b6000808460010160008581526020019081526020016000205490506000811415613e0557846000016040518060400160405280868152602001858152509080600181540180825580915050600190039060005260206000209060020201600090919091909150600082015181600001556020820151816001015550508460000180549050856001016000868152602001908152602001600020819055506001915050613e33565b82856000016001830381548110613e1857fe5b90600052602060002090600202016001018190555060009150505b9392505050565b600080823b905060008111915050919050565b6060613e5c8484600085613e65565b90509392505050565b606082471015613ec0576040517f08c379a00000000000000000000000000000000000000000000000000000000081526004018080602001828103825260268152602001806142a16026913960400191505060405180910390fd5b613ec985613e3a565b613f3b576040517f08c379a000000000000000000000000000000000000000000000000000000000815260040180806020018281038252601d8152602001807f416464726573733a2063616c6c20746f206e6f6e2d636f6e747261637400000081525060200191505060405180910390fd5b600060608673ffffffffffffffffffffffffffffffffffffffff1685876040518082805190602001908083835b60208310613f8b5780518252602082019150602081019050602083039250613f68565b6001836020036101000a03801982511681845116808217855250505050505090500191505060006040518083038185875af1925050503d8060008114613fed576040519150601f19603f3d011682016040523d82523d6000602084013e613ff2565b606091505b509150915061400282828661400e565b92505050949350505050565b6060831561401e578290506140d3565b6000835111156140315782518084602001fd5b816040517f08c379a00000000000000000000000000000000000000000000000000000000081526004018080602001828103825283818151815260200191508051906020019080838360005b8381101561409857808201518184015260208101905061407d565b50505050905090810190601f1680156140c55780820380516001836020036101000a031916815260200191505b509250505060405180910390fd5b9392505050565b604051806060016040528060008152602001600073ffffffffffffffffffffffffffffffffffffffff168152602001606081525090565b828054600181600116156101000203166002900490600052602060002090601f016020900481019282601f1061415257805160ff1916838001178555614180565b82800160010185558215614180579182015b8281111561417f578251825591602001919060010190614164565b5b50905061418d9190614191565b5090565b6141b391905b808211156141af576000816000905550600101614197565b5090565b9056fe456e756d657261626c655365743a20696e646578206f7574206f6620626f756e6473416363657373436f6e74726f6c3a2073656e646572206d75737420626520616e2061646d696e20746f206772616e744552433732313a207472616e7366657220746f206e6f6e20455243373231526563656976657220696d706c656d656e7465724d6574615472616e73616374696f6e2875696e74323536206e6f6e63652c616464726573732066726f6d2c62797465732066756e6374696f6e5369676e6174757265294552433732313a207472616e7366657220746f20746865207a65726f2061646472657373416464726573733a20696e73756666696369656e742062616c616e636520666f722063616c6c4552433732313a206f70657261746f7220717565727920666f72206e6f6e6578697374656e7420746f6b656e416363657373436f6e74726f6c3a2073656e646572206d75737420626520616e2061646d696e20746f207265766f6b654e61746976654d6574615472616e73616374696f6e3a20494e56414c49445f5349474e45524552433732313a20617070726f76652063616c6c6572206973206e6f74206f776e6572206e6f7220617070726f76656420666f7220616c6c4552433732313a2062616c616e636520717565727920666f7220746865207a65726f20616464726573734552433732313a206f776e657220717565727920666f72206e6f6e6578697374656e7420746f6b656e456e756d657261626c654d61703a20696e646578206f7574206f6620626f756e64734552433732313a20617070726f76656420717565727920666f72206e6f6e6578697374656e7420746f6b656e4552433732314d657461646174613a2055524920736574206f66206e6f6e6578697374656e7420746f6b656e4552433732313a207472616e73666572206f6620746f6b656e2074686174206973206e6f74206f776e5369676e657220616e64207369676e617475726520646f206e6f74206d617463684552433732314d657461646174613a2055524920717565727920666f72206e6f6e6578697374656e7420746f6b656e4552433732313a20617070726f76616c20746f2063757272656e74206f776e65724552433732313a207472616e736665722063616c6c6572206973206e6f74206f776e6572206e6f7220617070726f766564416363657373436f6e74726f6c3a2063616e206f6e6c792072656e6f756e636520726f6c657320666f722073656c66a26469706673582212200fb6d7c9a809f376ee002d76687af2cef413225785710532a5a0bc0afd87886964736f6c63430006060033454950373132446f6d61696e28737472696e67206e616d652c737472696e672076657273696f6e2c6164647265737320766572696679696e67436f6e74726163742c627974657333322073616c7429",
  "linkReferences": {},
  "deployedLinkReferences": {}
}