{
  "_format": "hh-sol-artifact-1",
  "contractName": "RootChainManager",
  "sourceName": "contracts/root/RootChainManager/RootChainManager.sol",
  "abi": [
    {
      "anonymous": false,
      "inputs": [
        {
          "indexed": false,
          "internalType": "address",
          "name": "userAddress",
          "type": "address"
        },
        {
          "indexed": false,
          "internalType": "address payable",
          "name": "relayerAddress",
          "type": "address"
        },
        {
          "indexed": false,
          "internalType": "bytes",
          "name": "functionSignature",
          "type": "bytes"
        }
      ],
      "name": "MetaTransactionExecuted",
      "type": "event"
    },
    {
      "anonymous": false,
      "inputs": [
        {
          "indexed": true,
          "internalType": "bytes32",
          "name": "tokenType",
          "type": "bytes32"
        },
        {
          "indexed": true,
          "internalType": "address",
          "name": "predicateAddress",
          "type": "address"
        }
      ],
      "name": "PredicateRegistered",
      "type": "event"
    },
    {
      "anonymous": false,
      "inputs": [
        {
          "indexed": true,
          "internalType": "bytes32",
          "name": "role",
          "type": "bytes32"
        },
        {
          "indexed": true,
          "internalType": "bytes32",
          "name": "previousAdminRole",
          "type": "bytes32"
        },
        {
          "indexed": true,
          "internalType": "bytes32",
          "name": "newAdminRole",
          "type": "bytes32"
        }
      ],
      "name": "RoleAdminChanged",
      "type": "event"
    },
    {
      "anonymous": false,
      "inputs": [
        {
          "indexed": true,
          "internalType": "bytes32",
          "name": "role",
          "type": "bytes32"
        },
        {
          "indexed": true,
          "internalType": "address",
          "name": "account",
          "type": "address"
        },
        {
          "indexed": true,
          "internalType": "address",
          "name": "sender",
          "type": "address"
        }
      ],
      "name": "RoleGranted",
      "type": "event"
    },
    {
      "anonymous": false,
      "inputs": [
        {
          "indexed": true,
          "internalType": "bytes32",
          "name": "role",
          "type": "bytes32"
        },
        {
          "indexed": true,
          "internalType": "address",
          "name": "account",
          "type": "address"
        },
        {
          "indexed": true,
          "internalType": "address",
          "name": "sender",
          "type": "address"
        }
      ],
      "name": "RoleRevoked",
      "type": "event"
    },
    {
      "anonymous": false,
      "inputs": [
        {
          "indexed": true,
          "internalType": "address",
          "name": "rootToken",
          "type": "address"
        },
        {
          "indexed": true,
          "internalType": "address",
          "name": "childToken",
          "type": "address"
        },
        {
          "indexed": true,
          "internalType": "bytes32",
          "name": "tokenType",
          "type": "bytes32"
        }
      ],
      "name": "TokenMapped",
      "type": "event"
    },
    {
      "inputs": [],
      "name": "DEFAULT_ADMIN_ROLE",
      "outputs": [
        {
          "internalType": "bytes32",
          "name": "",
          "type": "bytes32"
        }
      ],
      "stateMutability": "view",
      "type": "function"
    },
    {
      "inputs": [],
      "name": "DEPOSIT",
      "outputs": [
        {
          "internalType": "bytes32",
          "name": "",
          "type": "bytes32"
        }
      ],
      "stateMutability": "view",
      "type": "function"
    },
    {
      "inputs": [],
      "name": "ERC712_VERSION",
      "outputs": [
        {
          "internalType": "string",
          "name": "",
          "type": "string"
        }
      ],
      "stateMutability": "view",
      "type": "function"
    },
    {
      "inputs": [],
      "name": "ETHER_ADDRESS",
      "outputs": [
        {
          "internalType": "address",
          "name": "",
          "type": "address"
        }
      ],
      "stateMutability": "view",
      "type": "function"
    },
    {
      "inputs": [],
      "name": "MAPPER_ROLE",
      "outputs": [
        {
          "internalType": "bytes32",
          "name": "",
          "type": "bytes32"
        }
      ],
      "stateMutability": "view",
      "type": "function"
    },
    {
      "inputs": [],
      "name": "MAP_TOKEN",
      "outputs": [
        {
          "internalType": "bytes32",
          "name": "",
          "type": "bytes32"
        }
      ],
      "stateMutability": "view",
      "type": "function"
    },
    {
      "inputs": [],
      "name": "checkpointManagerAddress",
      "outputs": [
        {
          "internalType": "address",
          "name": "",
          "type": "address"
        }
      ],
      "stateMutability": "view",
      "type": "function"
    },
    {
      "inputs": [],
      "name": "childChainManagerAddress",
      "outputs": [
        {
          "internalType": "address",
          "name": "",
          "type": "address"
        }
      ],
      "stateMutability": "view",
      "type": "function"
    },
    {
      "inputs": [
        {
          "internalType": "address",
          "name": "",
          "type": "address"
        }
      ],
      "name": "childToRootToken",
      "outputs": [
        {
          "internalType": "address",
          "name": "",
          "type": "address"
        }
      ],
      "stateMutability": "view",
      "type": "function"
    },
    {
      "inputs": [
        {
          "internalType": "address",
          "name": "rootToken",
          "type": "address"
        },
        {
          "internalType": "address",
          "name": "childToken",
          "type": "address"
        }
      ],
      "name": "cleanMapToken",
      "outputs": [],
      "stateMutability": "nonpayable",
      "type": "function"
    },
    {
      "inputs": [
        {
          "internalType": "address",
          "name": "user",
          "type": "address"
        }
      ],
      "name": "depositEtherFor",
      "outputs": [],
      "stateMutability": "payable",
      "type": "function"
    },
    {
      "inputs": [
        {
          "internalType": "address",
          "name": "user",
          "type": "address"
        },
        {
          "internalType": "address",
          "name": "rootToken",
          "type": "address"
        },
        {
          "internalType": "bytes",
          "name": "depositData",
          "type": "bytes"
        }
      ],
      "name": "depositFor",
      "outputs": [],
      "stateMutability": "nonpayable",
      "type": "function"
    },
    {
      "inputs": [
        {
          "internalType": "address",
          "name": "userAddress",
          "type": "address"
        },
        {
          "internalType": "bytes",
          "name": "functionSignature",
          "type": "bytes"
        },
        {
          "internalType": "bytes32",
          "name": "sigR",
          "type": "bytes32"
        },
        {
          "internalType": "bytes32",
          "name": "sigS",
          "type": "bytes32"
        },
        {
          "internalType": "uint8",
          "name": "sigV",
          "type": "uint8"
        }
      ],
      "name": "executeMetaTransaction",
      "outputs": [
        {
          "internalType": "bytes",
          "name": "",
          "type": "bytes"
        }
      ],
      "stateMutability": "payable",
      "type": "function"
    },
    {
      "inputs": [
        {
          "internalType": "bytes",
          "name": "inputData",
          "type": "bytes"
        }
      ],
      "name": "exit",
      "outputs": [],
      "stateMutability": "nonpayable",
      "type": "function"
    },
    {
      "inputs": [],
      "name": "getChainId",
      "outputs": [
        {
          "internalType": "uint256",
          "name": "",
          "type": "uint256"
        }
      ],
      "stateMutability": "pure",
      "type": "function"
    },
    {
      "inputs": [],
      "name": "getDomainSeperator",
      "outputs": [
        {
          "internalType": "bytes32",
          "name": "",
          "type": "bytes32"
        }
      ],
      "stateMutability": "view",
      "type": "function"
    },
    {
      "inputs": [
        {
          "internalType": "address",
          "name": "user",
          "type": "address"
        }
      ],
      "name": "getNonce",
      "outputs": [
        {
          "internalType": "uint256",
          "name": "nonce",
          "type": "uint256"
        }
      ],
      "stateMutability": "view",
      "type": "function"
    },
    {
      "inputs": [
        {
          "internalType": "bytes32",
          "name": "role",
          "type": "bytes32"
        }
      ],
      "name": "getRoleAdmin",
      "outputs": [
        {
          "internalType": "bytes32",
          "name": "",
          "type": "bytes32"
        }
      ],
      "stateMutability": "view",
      "type": "function"
    },
    {
      "inputs": [
        {
          "internalType": "bytes32",
          "name": "role",
          "type": "bytes32"
        },
        {
          "internalType": "uint256",
          "name": "index",
          "type": "uint256"
        }
      ],
      "name": "getRoleMember",
      "outputs": [
        {
          "internalType": "address",
          "name": "",
          "type": "address"
        }
      ],
      "stateMutability": "view",
      "type": "function"
    },
    {
      "inputs": [
        {
          "internalType": "bytes32",
          "name": "role",
          "type": "bytes32"
        }
      ],
      "name": "getRoleMemberCount",
      "outputs": [
        {
          "internalType": "uint256",
          "name": "",
          "type": "uint256"
        }
      ],
      "stateMutability": "view",
      "type": "function"
    },
    {
      "inputs": [
        {
          "internalType": "bytes32",
          "name": "role",
          "type": "bytes32"
        },
        {
          "internalType": "address",
          "name": "account",
          "type": "address"
        }
      ],
      "name": "grantRole",
      "outputs": [],
      "stateMutability": "nonpayable",
      "type": "function"
    },
    {
      "inputs": [
        {
          "internalType": "bytes32",
          "name": "role",
          "type": "bytes32"
        },
        {
          "internalType": "address",
          "name": "account",
          "type": "address"
        }
      ],
      "name": "hasRole",
      "outputs": [
        {
          "internalType": "bool",
          "name": "",
          "type": "bool"
        }
      ],
      "stateMutability": "view",
      "type": "function"
    },
    {
      "inputs": [
        {
          "internalType": "address",
          "name": "_owner",
          "type": "address"
        }
      ],
      "name": "initialize",
      "outputs": [],
      "stateMutability": "nonpayable",
      "type": "function"
    },
    {
      "inputs": [],
      "name": "initializeEIP712",
      "outputs": [],
      "stateMutability": "nonpayable",
      "type": "function"
    },
    {
      "inputs": [
        {
          "internalType": "address",
          "name": "rootToken",
          "type": "address"
        },
        {
          "internalType": "address",
          "name": "childToken",
          "type": "address"
        },
        {
          "internalType": "bytes32",
          "name": "tokenType",
          "type": "bytes32"
        }
      ],
      "name": "mapToken",
      "outputs": [],
      "stateMutability": "nonpayable",
      "type": "function"
    },
    {
      "inputs": [
        {
          "internalType": "bytes32",
          "name": "",
          "type": "bytes32"
        }
      ],
      "name": "processedExits",
      "outputs": [
        {
          "internalType": "bool",
          "name": "",
          "type": "bool"
        }
      ],
      "stateMutability": "view",
      "type": "function"
    },
    {
      "inputs": [
        {
          "internalType": "bytes32",
          "name": "tokenType",
          "type": "bytes32"
        },
        {
          "internalType": "address",
          "name": "predicateAddress",
          "type": "address"
        }
      ],
      "name": "registerPredicate",
      "outputs": [],
      "stateMutability": "nonpayable",
      "type": "function"
    },
    {
      "inputs": [
        {
          "internalType": "address",
          "name": "rootToken",
          "type": "address"
        },
        {
          "internalType": "address",
          "name": "childToken",
          "type": "address"
        },
        {
          "internalType": "bytes32",
          "name": "tokenType",
          "type": "bytes32"
        }
      ],
      "name": "remapToken",
      "outputs": [],
      "stateMutability": "nonpayable",
      "type": "function"
    },
    {
      "inputs": [
        {
          "internalType": "bytes32",
          "name": "role",
          "type": "bytes32"
        },
        {
          "internalType": "address",
          "name": "account",
          "type": "address"
        }
      ],
      "name": "renounceRole",
      "outputs": [],
      "stateMutability": "nonpayable",
      "type": "function"
    },
    {
      "inputs": [
        {
          "internalType": "bytes32",
          "name": "role",
          "type": "bytes32"
        },
        {
          "internalType": "address",
          "name": "account",
          "type": "address"
        }
      ],
      "name": "revokeRole",
      "outputs": [],
      "stateMutability": "nonpayable",
      "type": "function"
    },
    {
      "inputs": [
        {
          "internalType": "address",
          "name": "",
          "type": "address"
        }
      ],
      "name": "rootToChildToken",
      "outputs": [
        {
          "internalType": "address",
          "name": "",
          "type": "address"
        }
      ],
      "stateMutability": "view",
      "type": "function"
    },
    {
      "inputs": [
        {
          "internalType": "address",
          "name": "newCheckpointManager",
          "type": "address"
        }
      ],
      "name": "setCheckpointManager",
      "outputs": [],
      "stateMutability": "nonpayable",
      "type": "function"
    },
    {
      "inputs": [
        {
          "internalType": "address",
          "name": "newChildChainManager",
          "type": "address"
        }
      ],
      "name": "setChildChainManagerAddress",
      "outputs": [],
      "stateMutability": "nonpayable",
      "type": "function"
    },
    {
      "inputs": [
        {
          "internalType": "address",
          "name": "newStateSender",
          "type": "address"
        }
      ],
      "name": "setStateSender",
      "outputs": [],
      "stateMutability": "nonpayable",
      "type": "function"
    },
    {
      "inputs": [],
      "name": "setupContractId",
      "outputs": [],
      "stateMutability": "nonpayable",
      "type": "function"
    },
    {
      "inputs": [],
      "name": "stateSenderAddress",
      "outputs": [
        {
          "internalType": "address",
          "name": "",
          "type": "address"
        }
      ],
      "stateMutability": "view",
      "type": "function"
    },
    {
      "inputs": [
        {
          "internalType": "address",
          "name": "",
          "type": "address"
        }
      ],
      "name": "tokenToType",
      "outputs": [
        {
          "internalType": "bytes32",
          "name": "",
          "type": "bytes32"
        }
      ],
      "stateMutability": "view",
      "type": "function"
    },
    {
      "inputs": [
        {
          "internalType": "bytes32",
          "name": "",
          "type": "bytes32"
        }
      ],
      "name": "typeToPredicate",
      "outputs": [
        {
          "internalType": "address",
          "name": "",
          "type": "address"
        }
      ],
      "stateMutability": "view",
      "type": "function"
    },
    {
      "stateMutability": "payable",
      "type": "receive"
    }
  ],
  "bytecode": "0x608060405260008060006101000a81548160ff02191690831515021790555034801561002a57600080fd5b50616470806200003b6000396000f3fe6080604052600436106102295760003560e01c8063886a69ba11610123578063cf1d21c0116100ab578063e2c49de11161006f578063e2c49de114610e3f578063e3dec8fb14610e96578063e43009a614610f5c578063e66f960314610fc1578063ea60c7c41461103c57610240565b8063cf1d21c014610c96578063d233a3c714610ced578063d547741f14610d68578063d81c8e5214610dc3578063dc993a2314610dee57610240565b8063a217fddf116100f2578063a217fddf14610b63578063b4b4f63e14610b8e578063bc08452b14610ba5578063c4d66de814610bf6578063ca15c87314610c4757610240565b8063886a69ba146109c55780639010d07c146109f05780639173b13914610a7557806391d1485414610af057610240565b80633138b6f1116101b1578063568b80b511610175578063568b80b51461084e578063607f2d4214610879578063630fcbfb146108cc5780636cb136b0146108e35780636e86b7701461093457610240565b80633138b6f1146106a75780633408e470146106fe57806336568abe146107295780633805550f146107845780634faa8a261461080a57610240565b80630f7e5970116101f85780630f7e5970146104dd57806320379ee51461056d578063248a9ca3146105985780632d0335ab146105e75780632f2ff15d1461064c57610240565b806304967702146102455780630c3894bb1461029c5780630c53c51c1461030d5780630c5982201461048257610240565b366102405761023e6102396110cd565b6110dc565b005b600080fd5b34801561025157600080fd5b5061025a611269565b604051808273ffffffffffffffffffffffffffffffffffffffff1673ffffffffffffffffffffffffffffffffffffffff16815260200191505060405180910390f35b3480156102a857600080fd5b5061030b600480360360408110156102bf57600080fd5b81019080803573ffffffffffffffffffffffffffffffffffffffff169060200190929190803573ffffffffffffffffffffffffffffffffffffffff16906020019092919050505061128f565b005b610407600480360360a081101561032357600080fd5b81019080803573ffffffffffffffffffffffffffffffffffffffff1690602001909291908035906020019064010000000081111561036057600080fd5b82018360208201111561037257600080fd5b8035906020019184600183028401116401000000008311171561039457600080fd5b91908080601f016020809104026020016040519081016040528093929190818152602001838380828437600081840152601f19601f8201169050808301925050505050505091929192908035906020019092919080359060200190929190803560ff16906020019092919050505061154e565b6040518080602001828103825283818151815260200191508051906020019080838360005b8381101561044757808201518184015260208101905061042c565b50505050905090810190601f1680156104745780820380516001836020036101000a031916815260200191505b509250505060405180910390f35b34801561048e57600080fd5b506104db600480360360408110156104a557600080fd5b8101908080359060200190929190803573ffffffffffffffffffffffffffffffffffffffff1690602001909291905050506119a4565b005b3480156104e957600080fd5b506104f2611b1a565b6040518080602001828103825283818151815260200191508051906020019080838360005b83811015610532578082015181840152602081019050610517565b50505050905090810190601f16801561055f5780820380516001836020036101000a031916815260200191505b509250505060405180910390f35b34801561057957600080fd5b50610582611b53565b6040518082815260200191505060405180910390f35b3480156105a457600080fd5b506105d1600480360360208110156105bb57600080fd5b8101908080359060200190929190505050611b5d565b6040518082815260200191505060405180910390f35b3480156105f357600080fd5b506106366004803603602081101561060a57600080fd5b81019080803573ffffffffffffffffffffffffffffffffffffffff169060200190929190505050611b7d565b6040518082815260200191505060405180910390f35b34801561065857600080fd5b506106a56004803603604081101561066f57600080fd5b8101908080359060200190929190803573ffffffffffffffffffffffffffffffffffffffff169060200190929190505050611bc6565b005b3480156106b357600080fd5b506106bc611c50565b604051808273ffffffffffffffffffffffffffffffffffffffff1673ffffffffffffffffffffffffffffffffffffffff16815260200191505060405180910390f35b34801561070a57600080fd5b50610713611c7a565b6040518082815260200191505060405180910390f35b34801561073557600080fd5b506107826004803603604081101561074c57600080fd5b8101908080359060200190929190803573ffffffffffffffffffffffffffffffffffffffff169060200190929190505050611c87565b005b34801561079057600080fd5b50610808600480360360208110156107a757600080fd5b81019080803590602001906401000000008111156107c457600080fd5b8201836020820111156107d657600080fd5b803590602001918460018302840111640100000000831117156107f857600080fd5b9091929391929390505050611d20565b005b61084c6004803603602081101561082057600080fd5b81019080803573ffffffffffffffffffffffffffffffffffffffff169060200190929190505050612304565b005b34801561085a57600080fd5b50610863612310565b6040518082815260200191505060405180910390f35b34801561088557600080fd5b506108b26004803603602081101561089c57600080fd5b8101908080359060200190929190505050612349565b604051808215151515815260200191505060405180910390f35b3480156108d857600080fd5b506108e1612369565b005b3480156108ef57600080fd5b506109326004803603602081101561090657600080fd5b81019080803573ffffffffffffffffffffffffffffffffffffffff169060200190929190505050612485565b005b34801561094057600080fd5b506109836004803603602081101561095757600080fd5b81019080803573ffffffffffffffffffffffffffffffffffffffff16906020019092919050505061262b565b604051808273ffffffffffffffffffffffffffffffffffffffff1673ffffffffffffffffffffffffffffffffffffffff16815260200191505060405180910390f35b3480156109d157600080fd5b506109da61265e565b6040518082815260200191505060405180910390f35b3480156109fc57600080fd5b50610a3360048036036040811015610a1357600080fd5b810190808035906020019092919080359060200190929190505050612697565b604051808273ffffffffffffffffffffffffffffffffffffffff1673ffffffffffffffffffffffffffffffffffffffff16815260200191505060405180910390f35b348015610a8157600080fd5b50610aee60048036036060811015610a9857600080fd5b81019080803573ffffffffffffffffffffffffffffffffffffffff169060200190929190803573ffffffffffffffffffffffffffffffffffffffff169060200190929190803590602001909291905050506126c9565b005b348015610afc57600080fd5b50610b4960048036036040811015610b1357600080fd5b8101908080359060200190929190803573ffffffffffffffffffffffffffffffffffffffff16906020019092919050505061297f565b604051808215151515815260200191505060405180910390f35b348015610b6f57600080fd5b50610b786129b1565b6040518082815260200191505060405180910390f35b348015610b9a57600080fd5b50610ba36129b8565b005b348015610bb157600080fd5b50610bf460048036036020811015610bc857600080fd5b81019080803573ffffffffffffffffffffffffffffffffffffffff169060200190929190505050612ad4565b005b348015610c0257600080fd5b50610c4560048036036020811015610c1957600080fd5b81019080803573ffffffffffffffffffffffffffffffffffffffff169060200190929190505050612c7a565b005b348015610c5357600080fd5b50610c8060048036036020811015610c6a57600080fd5b8101908080359060200190929190505050612de1565b6040518082815260200191505060405180910390f35b348015610ca257600080fd5b50610cab612e08565b604051808273ffffffffffffffffffffffffffffffffffffffff1673ffffffffffffffffffffffffffffffffffffffff16815260200191505060405180910390f35b348015610cf957600080fd5b50610d6660048036036060811015610d1057600080fd5b81019080803573ffffffffffffffffffffffffffffffffffffffff169060200190929190803573ffffffffffffffffffffffffffffffffffffffff16906020019092919080359060200190929190505050612e20565b005b348015610d7457600080fd5b50610dc160048036036040811015610d8b57600080fd5b8101908080359060200190929190803573ffffffffffffffffffffffffffffffffffffffff169060200190929190505050613243565b005b348015610dcf57600080fd5b50610dd86132cd565b6040518082815260200191505060405180910390f35b348015610dfa57600080fd5b50610e3d60048036036020811015610e1157600080fd5b81019080803573ffffffffffffffffffffffffffffffffffffffff169060200190929190505050613306565b005b348015610e4b57600080fd5b50610e546134ac565b604051808273ffffffffffffffffffffffffffffffffffffffff1673ffffffffffffffffffffffffffffffffffffffff16815260200191505060405180910390f35b348015610ea257600080fd5b50610f5a60048036036060811015610eb957600080fd5b81019080803573ffffffffffffffffffffffffffffffffffffffff169060200190929190803573ffffffffffffffffffffffffffffffffffffffff16906020019092919080359060200190640100000000811115610f1657600080fd5b820183602082011115610f2857600080fd5b80359060200191846001830284011164010000000083111715610f4a57600080fd5b90919293919293905050506134d6565b005b348015610f6857600080fd5b50610fab60048036036020811015610f7f57600080fd5b81019080803573ffffffffffffffffffffffffffffffffffffffff1690602001909291905050506135c4565b6040518082815260200191505060405180910390f35b348015610fcd57600080fd5b50610ffa60048036036020811015610fe457600080fd5b81019080803590602001909291905050506135dc565b604051808273ffffffffffffffffffffffffffffffffffffffff1673ffffffffffffffffffffffffffffffffffffffff16815260200191505060405180910390f35b34801561104857600080fd5b5061108b6004803603602081101561105f57600080fd5b81019080803573ffffffffffffffffffffffffffffffffffffffff16906020019092919050505061360f565b604051808273ffffffffffffffffffffffffffffffffffffffff1673ffffffffffffffffffffffffffffffffffffffff16815260200191505060405180910390f35b60006110d7613642565b905090565b60603460405160200180828152602001915050604051602081830303815290604052905061111f8273eeeeeeeeeeeeeeeeeeeeeeeeeeeeeeeeeeeeeeee836136f7565b6000600260006005600073eeeeeeeeeeeeeeeeeeeeeeeeeeeeeeeeeeeeeeee73ffffffffffffffffffffffffffffffffffffffff1673ffffffffffffffffffffffffffffffffffffffff16815260200190815260200160002054815260200190815260200160002060009054906101000a900473ffffffffffffffffffffffffffffffffffffffff1673ffffffffffffffffffffffffffffffffffffffff163460405180600001905060006040518083038185875af1925050503d8060008114611205576040519150601f19603f3d011682016040523d82523d6000602084013e61120a565b606091505b5050905080611264576040517f08c379a00000000000000000000000000000000000000000000000000000000081526004018080602001828103825260278152602001806163526027913960400191505060405180910390fd5b505050565b600960009054906101000a900473ffffffffffffffffffffffffffffffffffffffff1681565b6000801b6112a48161129f6110cd565b61297f565b600a90611369576040517f08c379a0000000000000000000000000000000000000000000000000000000008152600401808060200182810382528381815460018160011615610100020316600290048152602001915080546001816001161561010002031660029004801561135a5780601f1061132f5761010080835404028352916020019161135a565b820191906000526020600020905b81548152906001019060200180831161133d57829003601f168201915b50509250505060405180910390fd5b506000600360008573ffffffffffffffffffffffffffffffffffffffff1673ffffffffffffffffffffffffffffffffffffffff16815260200190815260200160002060006101000a81548173ffffffffffffffffffffffffffffffffffffffff021916908373ffffffffffffffffffffffffffffffffffffffff1602179055506000600460008473ffffffffffffffffffffffffffffffffffffffff1673ffffffffffffffffffffffffffffffffffffffff16815260200190815260200160002060006101000a81548173ffffffffffffffffffffffffffffffffffffffff021916908373ffffffffffffffffffffffffffffffffffffffff1602179055506000801b600560008573ffffffffffffffffffffffffffffffffffffffff1673ffffffffffffffffffffffffffffffffffffffff16815260200190815260200160002081905550600560008473ffffffffffffffffffffffffffffffffffffffff1673ffffffffffffffffffffffffffffffffffffffff168152602001908152602001600020548273ffffffffffffffffffffffffffffffffffffffff168473ffffffffffffffffffffffffffffffffffffffff167f9e651a8866fbea043e911d816ec254b0e3c992c06fff32d605e72362d6023bd960405160405180910390a4505050565b6060611558615fe1565b6040518060600160405280600c60008a73ffffffffffffffffffffffffffffffffffffffff1673ffffffffffffffffffffffffffffffffffffffff1681526020019081526020016000205481526020018873ffffffffffffffffffffffffffffffffffffffff1681526020018781525090506115d78782878787613e05565b61162c576040517f08c379a00000000000000000000000000000000000000000000000000000000081526004018080602001828103825260218152602001806163796021913960400191505060405180910390fd5b61167f6001600c60008a73ffffffffffffffffffffffffffffffffffffffff1673ffffffffffffffffffffffffffffffffffffffff16815260200190815260200160002054613f3c90919063ffffffff16565b600c60008973ffffffffffffffffffffffffffffffffffffffff1673ffffffffffffffffffffffffffffffffffffffff168152602001908152602001600020819055507f5845892132946850460bff5a0083f71031bc5bf9aadcd40f1de79423eac9b10b873388604051808473ffffffffffffffffffffffffffffffffffffffff1673ffffffffffffffffffffffffffffffffffffffff1681526020018373ffffffffffffffffffffffffffffffffffffffff1673ffffffffffffffffffffffffffffffffffffffff16815260200180602001828103825283818151815260200191508051906020019080838360005b8381101561178a57808201518184015260208101905061176f565b50505050905090810190601f1680156117b75780820380516001836020036101000a031916815260200191505b5094505050505060405180910390a1600060603073ffffffffffffffffffffffffffffffffffffffff16888a6040516020018083805190602001908083835b6020831061181957805182526020820191506020810190506020830392506117f6565b6001836020036101000a0380198251168184511680821785525050505050509050018273ffffffffffffffffffffffffffffffffffffffff1673ffffffffffffffffffffffffffffffffffffffff1660601b8152601401925050506040516020818303038152906040526040518082805190602001908083835b602083106118b65780518252602082019150602081019050602083039250611893565b6001836020036101000a0380198251168184511680821785525050505050509050019150506000604051808303816000865af19150503d8060008114611918576040519150601f19603f3d011682016040523d82523d6000602084013e61191d565b606091505b509150915081611995576040517f08c379a000000000000000000000000000000000000000000000000000000000815260040180806020018281038252601c8152602001807f46756e6374696f6e2063616c6c206e6f74207375636365737366756c0000000081525060200191505060405180910390fd5b80935050505095945050505050565b6000801b6119b9816119b46110cd565b61297f565b600a90611a7e576040517f08c379a00000000000000000000000000000000000000000000000000000000081526004018080602001828103825283818154600181600116156101000203166002900481526020019150805460018160011615610100020316600290048015611a6f5780601f10611a4457610100808354040283529160200191611a6f565b820191906000526020600020905b815481529060010190602001808311611a5257829003601f168201915b50509250505060405180910390fd5b50816002600085815260200190815260200160002060006101000a81548173ffffffffffffffffffffffffffffffffffffffff021916908373ffffffffffffffffffffffffffffffffffffffff1602179055508173ffffffffffffffffffffffffffffffffffffffff16837f8643692ae1c12ec91fa18e50b82ed93fa314f580999a236824db6de9ae0d839b60405160405180910390a3505050565b6040518060400160405280600181526020017f310000000000000000000000000000000000000000000000000000000000000081525081565b6000600b54905090565b600060016000838152602001908152602001600020600201549050919050565b6000600c60008373ffffffffffffffffffffffffffffffffffffffff1673ffffffffffffffffffffffffffffffffffffffff168152602001908152602001600020549050919050565b611bed6001600084815260200190815260200160002060020154611be86110cd565b61297f565b611c42576040517f08c379a000000000000000000000000000000000000000000000000000000000815260040180806020018281038252602f815260200180616178602f913960400191505060405180910390fd5b611c4c8282613fc4565b5050565b6000600860009054906101000a900473ffffffffffffffffffffffffffffffffffffffff16905090565b6000804690508091505090565b611c8f6110cd565b73ffffffffffffffffffffffffffffffffffffffff168173ffffffffffffffffffffffffffffffffffffffff1614611d12576040517f08c379a000000000000000000000000000000000000000000000000000000000815260040180806020018281038252602f81526020018061640c602f913960400191505060405180910390fd5b611d1c8282614058565b5050565b611d28616018565b611d7583838080601f016020809104026020016040519081016040528093929190818152602001838380828437600081840152601f19601f820116905080830192505050505050506140ec565b90506060611d8282614120565b90506000611d8f8361414a565b611d9883614174565b611da18561433b565b6040516020018084815260200183805190602001908083835b60208310611ddd5780518252602082019150602081019050602083039250611dba565b6001836020036101000a0380198251168184511680821785525050505050509050018281526020019350505050604051602081830303815290604052805190602001209050600015156006600083815260200190815260200160002060009054906101000a900460ff16151514611e9f576040517f08c379a00000000000000000000000000000000000000000000000000000000081526004018080602001828103825260288152602001806163e46028913960400191505060405180910390fd5b60016006600083815260200190815260200160002060006101000a81548160ff021916908315150217905550611ed361602b565b611edc84614365565b9050611ee661604c565b611eef82614481565b9050600060046000611f00846144f0565b73ffffffffffffffffffffffffffffffffffffffff1673ffffffffffffffffffffffffffffffffffffffff16815260200190815260200160002060009054906101000a900473ffffffffffffffffffffffffffffffffffffffff169050600073ffffffffffffffffffffffffffffffffffffffff168173ffffffffffffffffffffffffffffffffffffffff161415611fe3576040517f08c379a00000000000000000000000000000000000000000000000000000000081526004018080602001828103825260228152602001806162af6022913960400191505060405180910390fd5b600060026000600560008573ffffffffffffffffffffffffffffffffffffffff1673ffffffffffffffffffffffffffffffffffffffff16815260200190815260200160002054815260200190815260200160002060009054906101000a900473ffffffffffffffffffffffffffffffffffffffff16905060007fffffffffffffffffffffffffffffffffffffffffffffffffffffffff000000006120868961451a565b16146120dd576040517f08c379a000000000000000000000000000000000000000000000000000000000815260040180806020018281038252602581526020018061628a6025913960400191505060405180910390fd5b6121016120e985614544565b876120f38a614552565b6120fc8b61457c565b6145a9565b612173576040517f08c379a000000000000000000000000000000000000000000000000000000000815260040180806020018281038252601f8152602001807f526f6f74436861696e4d616e616765723a20494e56414c49445f50524f4f460081525060200191505060405180910390fd5b6121b161217f8861414a565b61218889614864565b6121918a61488e565b61219a8b61457c565b6121a38c6148bb565b6121ac8d6148e5565b61490f565b508073ffffffffffffffffffffffffffffffffffffffff16638274664f6121d66110cd565b846121e087614adc565b6040518463ffffffff1660e01b8152600401808473ffffffffffffffffffffffffffffffffffffffff1673ffffffffffffffffffffffffffffffffffffffff1681526020018373ffffffffffffffffffffffffffffffffffffffff1673ffffffffffffffffffffffffffffffffffffffff16815260200180602001828103825283818151815260200191508051906020019080838360005b83811015612293578082015181840152602081019050612278565b50505050905090810190601f1680156122c05780820380516001836020036101000a031916815260200191505b50945050505050600060405180830381600087803b1580156122e157600080fd5b505af11580156122f5573d6000803e3d6000fd5b50505050505050505050505050565b61230d816110dc565b50565b60405180807f4d41505045525f524f4c45000000000000000000000000000000000000000000815250600b019050604051809103902081565b60066020528060005260406000206000915054906101000a900460ff1681565b6000801b61237e816123796110cd565b61297f565b600a90612443576040517f08c379a000000000000000000000000000000000000000000000000000000000815260040180806020018281038252838181546001816001161561010002031660029004815260200191508054600181600116156101000203166002900480156124345780601f1061240957610100808354040283529160200191612434565b820191906000526020600020905b81548152906001019060200180831161241757829003601f168201915b50509250505060405180910390fd5b506124826040518060400160405280601081526020017f526f6f74436861696e4d616e6167657200000000000000000000000000000000815250614af2565b50565b6000801b61249a816124956110cd565b61297f565b600a9061255f576040517f08c379a000000000000000000000000000000000000000000000000000000000815260040180806020018281038252838181546001816001161561010002031660029004815260200191508054600181600116156101000203166002900480156125505780601f1061252557610100808354040283529160200191612550565b820191906000526020600020905b81548152906001019060200180831161253357829003601f168201915b50509250505060405180910390fd5b50600073ffffffffffffffffffffffffffffffffffffffff168273ffffffffffffffffffffffffffffffffffffffff1614156125e6576040517f08c379a000000000000000000000000000000000000000000000000000000000815260040180806020018281038252602681526020018061639a6026913960400191505060405180910390fd5b81600760006101000a81548173ffffffffffffffffffffffffffffffffffffffff021916908373ffffffffffffffffffffffffffffffffffffffff1602179055505050565b60046020528060005260406000206000915054906101000a900473ffffffffffffffffffffffffffffffffffffffff1681565b60405180807f4d41505f544f4b454e00000000000000000000000000000000000000000000008152506009019050604051809103902081565b60006126c18260016000868152602001908152602001600020600001614bda90919063ffffffff16565b905092915050565b60405180807f4d41505045525f524f4c45000000000000000000000000000000000000000000815250600b01905060405180910390206127108161270b6110cd565b61297f565b600a906127d5576040517f08c379a000000000000000000000000000000000000000000000000000000000815260040180806020018281038252838181546001816001161561010002031660029004815260200191508054600181600116156101000203166002900480156127c65780601f1061279b576101008083540402835291602001916127c6565b820191906000526020600020905b8154815290600101906020018083116127a957829003601f168201915b50509250505060405180910390fd5b50600073ffffffffffffffffffffffffffffffffffffffff16600360008673ffffffffffffffffffffffffffffffffffffffff1673ffffffffffffffffffffffffffffffffffffffff16815260200190815260200160002060009054906101000a900473ffffffffffffffffffffffffffffffffffffffff1673ffffffffffffffffffffffffffffffffffffffff161480156128fc5750600073ffffffffffffffffffffffffffffffffffffffff16600460008573ffffffffffffffffffffffffffffffffffffffff1673ffffffffffffffffffffffffffffffffffffffff16815260200190815260200160002060009054906101000a900473ffffffffffffffffffffffffffffffffffffffff1673ffffffffffffffffffffffffffffffffffffffff16145b61296e576040517f08c379a00000000000000000000000000000000000000000000000000000000081526004018080602001828103825260208152602001807f526f6f74436861696e4d616e616765723a20414c52454144595f4d415050454481525060200191505060405180910390fd5b612979848484614bf4565b50505050565b60006129a982600160008681526020019081526020016000206000016150e390919063ffffffff16565b905092915050565b6000801b81565b6000801b6129cd816129c86110cd565b61297f565b600a90612a92576040517f08c379a00000000000000000000000000000000000000000000000000000000081526004018080602001828103825283818154600181600116156101000203166002900481526020019150805460018160011615610100020316600290048015612a835780601f10612a5857610100808354040283529160200191612a83565b820191906000526020600020905b815481529060010190602001808311612a6657829003601f168201915b50509250505060405180910390fd5b50612ad16040518060400160405280601081526020017f526f6f74436861696e4d616e6167657200000000000000000000000000000000815250615113565b50565b6000801b612ae981612ae46110cd565b61297f565b600a90612bae576040517f08c379a00000000000000000000000000000000000000000000000000000000081526004018080602001828103825283818154600181600116156101000203166002900481526020019150805460018160011615610100020316600290048015612b9f5780601f10612b7457610100808354040283529160200191612b9f565b820191906000526020600020905b815481529060010190602001808311612b8257829003601f168201915b50509250505060405180910390fd5b50600073ffffffffffffffffffffffffffffffffffffffff168273ffffffffffffffffffffffffffffffffffffffff161415612c35576040517f08c379a000000000000000000000000000000000000000000000000000000000815260040180806020018281038252602c815260200180616326602c913960400191505060405180910390fd5b81600860006101000a81548173ffffffffffffffffffffffffffffffffffffffff021916908373ffffffffffffffffffffffffffffffffffffffff1602179055505050565b6000809054906101000a900460ff1615612cfc576040517f08c379a000000000000000000000000000000000000000000000000000000000815260040180806020018281038252600e8152602001807f616c726561647920696e6974656400000000000000000000000000000000000081525060200191505060405180910390fd5b612d3a6040518060400160405280601081526020017f526f6f74436861696e4d616e61676572000000000000000000000000000000008152506151bf565b612d786040518060400160405280601081526020017f526f6f74436861696e4d616e6167657200000000000000000000000000000000815250615113565b612d856000801b82615267565b612dc460405180807f4d41505045525f524f4c45000000000000000000000000000000000000000000815250600b019050604051809103902082615267565b60016000806101000a81548160ff02191690831515021790555050565b6000612e0160016000848152602001908152602001600020600001615275565b9050919050565b73eeeeeeeeeeeeeeeeeeeeeeeeeeeeeeeeeeeeeeee81565b6000801b612e3581612e306110cd565b61297f565b600a90612efa576040517f08c379a00000000000000000000000000000000000000000000000000000000081526004018080602001828103825283818154600181600116156101000203166002900481526020019150805460018160011615610100020316600290048015612eeb5780601f10612ec057610100808354040283529160200191612eeb565b820191906000526020600020905b815481529060010190602001808311612ece57829003601f168201915b50509250505060405180910390fd5b506000600360008673ffffffffffffffffffffffffffffffffffffffff1673ffffffffffffffffffffffffffffffffffffffff16815260200190815260200160002060009054906101000a900473ffffffffffffffffffffffffffffffffffffffff1690506000600460008673ffffffffffffffffffffffffffffffffffffffff1673ffffffffffffffffffffffffffffffffffffffff16815260200190815260200160002060009054906101000a900473ffffffffffffffffffffffffffffffffffffffff169050600073ffffffffffffffffffffffffffffffffffffffff16600360008373ffffffffffffffffffffffffffffffffffffffff1673ffffffffffffffffffffffffffffffffffffffff16815260200190815260200160002060009054906101000a900473ffffffffffffffffffffffffffffffffffffffff1673ffffffffffffffffffffffffffffffffffffffff161461311d576000600360008373ffffffffffffffffffffffffffffffffffffffff1673ffffffffffffffffffffffffffffffffffffffff16815260200190815260200160002060006101000a81548173ffffffffffffffffffffffffffffffffffffffff021916908373ffffffffffffffffffffffffffffffffffffffff1602179055506000801b600560008373ffffffffffffffffffffffffffffffffffffffff1673ffffffffffffffffffffffffffffffffffffffff168152602001908152602001600020819055505b600073ffffffffffffffffffffffffffffffffffffffff16600460008473ffffffffffffffffffffffffffffffffffffffff1673ffffffffffffffffffffffffffffffffffffffff16815260200190815260200160002060009054906101000a900473ffffffffffffffffffffffffffffffffffffffff1673ffffffffffffffffffffffffffffffffffffffff1614613230576000600460008473ffffffffffffffffffffffffffffffffffffffff1673ffffffffffffffffffffffffffffffffffffffff16815260200190815260200160002060006101000a81548173ffffffffffffffffffffffffffffffffffffffff021916908373ffffffffffffffffffffffffffffffffffffffff1602179055505b61323b868686614bf4565b505050505050565b61326a60016000848152602001908152602001600020600201546132656110cd565b61297f565b6132bf576040517f08c379a00000000000000000000000000000000000000000000000000000000081526004018080602001828103825260308152602001806162d16030913960400191505060405180910390fd5b6132c98282614058565b5050565b60405180807f4445504f534954000000000000000000000000000000000000000000000000008152506007019050604051809103902081565b6000801b61331b816133166110cd565b61297f565b600a906133e0576040517f08c379a000000000000000000000000000000000000000000000000000000000815260040180806020018281038252838181546001816001161561010002031660029004815260200191508054600181600116156101000203166002900480156133d15780601f106133a6576101008083540402835291602001916133d1565b820191906000526020600020905b8154815290600101906020018083116133b457829003601f168201915b50509250505060405180910390fd5b50600073ffffffffffffffffffffffffffffffffffffffff168273ffffffffffffffffffffffffffffffffffffffff161415613467576040517f08c379a000000000000000000000000000000000000000000000000000000000815260040180806020018281038252602d8152602001806161a7602d913960400191505060405180910390fd5b81600960006101000a81548173ffffffffffffffffffffffffffffffffffffffff021916908373ffffffffffffffffffffffffffffffffffffffff1602179055505050565b6000600760009054906101000a900473ffffffffffffffffffffffffffffffffffffffff16905090565b73eeeeeeeeeeeeeeeeeeeeeeeeeeeeeeeeeeeeeeee73ffffffffffffffffffffffffffffffffffffffff168373ffffffffffffffffffffffffffffffffffffffff16141561356f576040517f08c379a00000000000000000000000000000000000000000000000000000000081526004018080602001828103825260248152602001806163c06024913960400191505060405180910390fd5b6135be848484848080601f016020809104026020016040519081016040528093929190818152602001838380828437600081840152601f19601f820116905080830192505050505050506136f7565b50505050565b60056020528060005260406000206000915090505481565b60026020528060005260406000206000915054906101000a900473ffffffffffffffffffffffffffffffffffffffff1681565b60036020528060005260406000206000915054906101000a900473ffffffffffffffffffffffffffffffffffffffff1681565b60003073ffffffffffffffffffffffffffffffffffffffff163373ffffffffffffffffffffffffffffffffffffffff1614156136ed5760606000368080601f016020809104026020016040519081016040528093929190818152602001838380828437600081840152601f19601f820116905080830192505050505050509050600080369050905073ffffffffffffffffffffffffffffffffffffffff8183015116925050506136f1565b3390505b80905090565b6000600560008473ffffffffffffffffffffffffffffffffffffffff1673ffffffffffffffffffffffffffffffffffffffff168152602001908152602001600020549050600073ffffffffffffffffffffffffffffffffffffffff16600360008573ffffffffffffffffffffffffffffffffffffffff1673ffffffffffffffffffffffffffffffffffffffff16815260200190815260200160002060009054906101000a900473ffffffffffffffffffffffffffffffffffffffff1673ffffffffffffffffffffffffffffffffffffffff16141580156137da57506000801b8114155b61382f576040517f08c379a00000000000000000000000000000000000000000000000000000000081526004018080602001828103825260228152602001806162af6022913960400191505060405180910390fd5b60006002600083815260200190815260200160002060009054906101000a900473ffffffffffffffffffffffffffffffffffffffff169050600073ffffffffffffffffffffffffffffffffffffffff168173ffffffffffffffffffffffffffffffffffffffff1614156138ed576040517f08c379a00000000000000000000000000000000000000000000000000000000081526004018080602001828103825260248152602001806162176024913960400191505060405180910390fd5b600073ffffffffffffffffffffffffffffffffffffffff168573ffffffffffffffffffffffffffffffffffffffff161415613990576040517f08c379a000000000000000000000000000000000000000000000000000000000815260040180806020018281038252601e8152602001807f526f6f74436861696e4d616e616765723a20494e56414c49445f55534552000081525060200191505060405180910390fd5b8073ffffffffffffffffffffffffffffffffffffffff1663e375b64e6139b46110cd565b8787876040518563ffffffff1660e01b8152600401808573ffffffffffffffffffffffffffffffffffffffff1673ffffffffffffffffffffffffffffffffffffffff1681526020018473ffffffffffffffffffffffffffffffffffffffff1673ffffffffffffffffffffffffffffffffffffffff1681526020018373ffffffffffffffffffffffffffffffffffffffff1673ffffffffffffffffffffffffffffffffffffffff16815260200180602001828103825283818151815260200191508051906020019080838360005b83811015613a9c578082015181840152602081019050613a81565b50505050905090810190601f168015613ac95780820380516001836020036101000a031916815260200191505b5095505050505050600060405180830381600087803b158015613aeb57600080fd5b505af1158015613aff573d6000803e3d6000fd5b505050506060858585604051602001808473ffffffffffffffffffffffffffffffffffffffff1673ffffffffffffffffffffffffffffffffffffffff1681526020018373ffffffffffffffffffffffffffffffffffffffff1673ffffffffffffffffffffffffffffffffffffffff16815260200180602001828103825283818151815260200191508051906020019080838360005b83811015613baf578082015181840152602081019050613b94565b50505050905090810190601f168015613bdc5780820380516001836020036101000a031916815260200191505b509450505050506040516020818303038152906040529050600760009054906101000a900473ffffffffffffffffffffffffffffffffffffffff1673ffffffffffffffffffffffffffffffffffffffff166316f19831600960009054906101000a900473ffffffffffffffffffffffffffffffffffffffff1660405180807f4445504f5349540000000000000000000000000000000000000000000000000081525060070190506040518091039020846040516020018083815260200180602001828103825283818151815260200191508051906020019080838360005b83811015613cd5578082015181840152602081019050613cba565b50505050905090810190601f168015613d025780820380516001836020036101000a031916815260200191505b5093505050506040516020818303038152906040526040518363ffffffff1660e01b8152600401808373ffffffffffffffffffffffffffffffffffffffff1673ffffffffffffffffffffffffffffffffffffffff16815260200180602001828103825283818151815260200191508051906020019080838360005b83811015613d98578082015181840152602081019050613d7d565b50505050905090810190601f168015613dc55780820380516001836020036101000a031916815260200191505b509350505050600060405180830381600087803b158015613de557600080fd5b505af1158015613df9573d6000803e3d6000fd5b50505050505050505050565b60008073ffffffffffffffffffffffffffffffffffffffff168673ffffffffffffffffffffffffffffffffffffffff161415613e8c576040517f08c379a00000000000000000000000000000000000000000000000000000000081526004018080602001828103825260258152602001806163016025913960400191505060405180910390fd5b6001613e9f613e9a8761528a565b615330565b83868660405160008152602001604052604051808581526020018460ff1660ff1681526020018381526020018281526020019450505050506020604051602081039080840390855afa158015613ef9573d6000803e3d6000fd5b5050506020604051035173ffffffffffffffffffffffffffffffffffffffff168673ffffffffffffffffffffffffffffffffffffffff1614905095945050505050565b600080828401905083811015613fba576040517f08c379a000000000000000000000000000000000000000000000000000000000815260040180806020018281038252601b8152602001807f536166654d6174683a206164646974696f6e206f766572666c6f77000000000081525060200191505060405180910390fd5b8091505092915050565b613fec816001600085815260200190815260200160002060000161539790919063ffffffff16565b1561405457613ff96110cd565b73ffffffffffffffffffffffffffffffffffffffff168173ffffffffffffffffffffffffffffffffffffffff16837f2f8788117e7eff1d82e926ec794901d17c78024a50270940304540a733656f0d60405160405180910390a45b5050565b61408081600160008581526020019081526020016000206000016153c790919063ffffffff16565b156140e85761408d6110cd565b73ffffffffffffffffffffffffffffffffffffffff168173ffffffffffffffffffffffffffffffffffffffff16837ff6391f5c32d9c69d2a47ea670b442974b53935d1edc7fd64eb21e047a839171b60405160405180910390a45b5050565b6140f4616018565b6060614107614102846153f7565b615425565b9050604051806020016040528082815250915050919050565b6060614143826000015160088151811061413657fe5b6020026020010151615519565b9050919050565b600061416d826000015160028151811061416057fe5b60200260200101516155aa565b9050919050565b606080604051806020016040528060008152509050600083511115614332576000806141a1600086615604565b60f81c905060018160ff1614806141bb575060038160ff16145b1561426a57600160028651020367ffffffffffffffff811180156141de57600080fd5b506040519080825280601f01601f1916602001820160405280156142115781602001600182028036833780820191505090505b5092506000614221600187615604565b9050808460008151811061423157fe5b60200101907effffffffffffffffffffffffffffffffffffffffffffffffffffffffffffff1916908160001a90535060019250506142c2565b6002808651020367ffffffffffffffff8111801561428757600080fd5b506040519080825280601f01601f1916602001820160405280156142ba5781602001600182028036833780820191505090505b509250600091505b60008260ff1690505b835181101561432e576142e660028460ff1683030187615604565b8482815181106142f257fe5b60200101907effffffffffffffffffffffffffffffffffffffffffffffffffffffffffffff1916908160001a90535080806001019150506142cb565b5050505b80915050919050565b600061435e826000015160098151811061435157fe5b60200260200101516155aa565b9050919050565b61436d61602b565b61438e826000015160068151811061438157fe5b6020026020010151615519565b816020018190525061439e61606c565b6143ab82602001516153f7565b90506143b68161568a565b156143d1576143c481615425565b8260000181905250614466565b6060826020015190506060600182510367ffffffffffffffff811180156143f757600080fd5b506040519080825280601f01601f19166020018201604052801561442a5781602001600182028036833780820191505090505b509050600080836021019150826020019050614448828285516156d8565b614459614454846153f7565b615425565b8660000181905250505050505b61446f8361433b565b82604001818152505081915050919050565b61448961604c565b61449161606c565b6144b283600001516003815181106144a557fe5b6020026020010151615425565b8360400151815181106144c157fe5b6020026020010151905060405180604001604052808281526020016144e583615425565b815250915050919050565b6000614513826020015160008151811061450657fe5b602002602001015161573f565b9050919050565b600061453d826000015160088151811061453057fe5b60200260200101516155aa565b9050919050565b606081602001519050919050565b6060614575826000015160078151811061456857fe5b6020026020010151615519565b9050919050565b600061459f826000015160058151811061459257fe5b60200260200101516155aa565b60001b9050919050565b60006145b361606c565b6145bc846153f7565b905060606145c982615425565b90506060806000869050600080905060606145e38b614174565b90506000815114156145ff57600097505050505050505061485c565b60008090505b86518110156148535781518311156146285760009850505050505050505061485c565b61464487828151811061463757fe5b6020026020010151615762565b9550858051906020012084146146655760009850505050505050505061485c565b61468187828151811061467457fe5b6020026020010151615425565b94506011855114156147565781518314156146ea578c805190602001206146bb866010815181106146ae57fe5b6020026020010151615519565b8051906020012014156146d95760019850505050505050505061485c565b60009850505050505050505061485c565b60008284815181106146f857fe5b602001015160f81c60f81b60f81c905060108160ff161115614726576000995050505050505050505061485c565b614745868260ff168151811061473857fe5b60200260200101516157ef565b60001b945060018401935050614846565b6002855114156148345760006147896147828760008151811061477557fe5b6020026020010151615519565b848661581d565b9050825181850114156147ec578d805190602001206147bb876001815181106147ae57fe5b6020026020010151615519565b8051906020012014156147da576001995050505050505050505061485c565b6000995050505050505050505061485c565b6000811415614807576000995050505050505050505061485c565b80840193506148298660018151811061481c57fe5b60200260200101516157ef565b60001b945050614845565b60009850505050505050505061485c565b5b8080600101915050614605565b50505050505050505b949350505050565b6000614887826000015160038151811061487a57fe5b60200260200101516155aa565b9050919050565b60006148b182600001516004815181106148a457fe5b60200260200101516155aa565b60001b9050919050565b60006148de82600001516000815181106148d157fe5b60200260200101516155aa565b9050919050565b606061490882600001516001815181106148fb57fe5b6020026020010151615519565b9050919050565b600080600080600860009054906101000a900473ffffffffffffffffffffffffffffffffffffffff1673ffffffffffffffffffffffffffffffffffffffff166341539d4a876040518263ffffffff1660e01b81526004018082815260200191505060a06040518083038186803b15801561498857600080fd5b505afa15801561499c573d6000803e3d6000fd5b505050506040513d60a08110156149b257600080fd5b8101908080519060200190929190805190602001909291908051906020019092919080519060200190929190805190602001909291905050505093505092509250614a5a614a09838c61592b90919063ffffffff16565b84878d8d8d8d60405160200180858152602001848152602001838152602001828152602001945050505050604051602081830303815290604052805190602001206159ae909392919063ffffffff16565b614acc576040517f08c379a00000000000000000000000000000000000000000000000000000000081526004018080602001828103825260208152602001807f526f6f74436861696e4d616e616765723a20494e56414c49445f48454144455281525060200191505060405180910390fd5b8093505050509695505050505050565b6060614aeb8260000151615762565b9050919050565b6040518060800160405280604f815260200161623b604f91398051906020012081805190602001206040518060400160405280600181526020017f31000000000000000000000000000000000000000000000000000000000000008152508051906020012030614b60611c7a565b60001b604051602001808681526020018581526020018481526020018373ffffffffffffffffffffffffffffffffffffffff1673ffffffffffffffffffffffffffffffffffffffff1681526020018281526020019550505050505060405160208183030381529060405280519060200120600b8190555050565b6000614be98360000183615b77565b60001c905092915050565b600073ffffffffffffffffffffffffffffffffffffffff166002600083815260200190815260200160002060009054906101000a900473ffffffffffffffffffffffffffffffffffffffff1673ffffffffffffffffffffffffffffffffffffffff161415614cad576040517f08c379a000000000000000000000000000000000000000000000000000000000815260040180806020018281038252602a81526020018061612c602a913960400191505060405180910390fd5b81600360008573ffffffffffffffffffffffffffffffffffffffff1673ffffffffffffffffffffffffffffffffffffffff16815260200190815260200160002060006101000a81548173ffffffffffffffffffffffffffffffffffffffff021916908373ffffffffffffffffffffffffffffffffffffffff16021790555082600460008473ffffffffffffffffffffffffffffffffffffffff1673ffffffffffffffffffffffffffffffffffffffff16815260200190815260200160002060006101000a81548173ffffffffffffffffffffffffffffffffffffffff021916908373ffffffffffffffffffffffffffffffffffffffff16021790555080600560008573ffffffffffffffffffffffffffffffffffffffff1673ffffffffffffffffffffffffffffffffffffffff16815260200190815260200160002081905550808273ffffffffffffffffffffffffffffffffffffffff168473ffffffffffffffffffffffffffffffffffffffff167f9e651a8866fbea043e911d816ec254b0e3c992c06fff32d605e72362d6023bd960405160405180910390a46060838383604051602001808473ffffffffffffffffffffffffffffffffffffffff1673ffffffffffffffffffffffffffffffffffffffff1681526020018373ffffffffffffffffffffffffffffffffffffffff1673ffffffffffffffffffffffffffffffffffffffff16815260200182815260200193505050506040516020818303038152906040529050600760009054906101000a900473ffffffffffffffffffffffffffffffffffffffff1673ffffffffffffffffffffffffffffffffffffffff166316f19831600960009054906101000a900473ffffffffffffffffffffffffffffffffffffffff1660405180807f4d41505f544f4b454e000000000000000000000000000000000000000000000081525060090190506040518091039020846040516020018083815260200180602001828103825283818151815260200191508051906020019080838360005b83811015614fb5578082015181840152602081019050614f9a565b50505050905090810190601f168015614fe25780820380516001836020036101000a031916815260200191505b5093505050506040516020818303038152906040526040518363ffffffff1660e01b8152600401808373ffffffffffffffffffffffffffffffffffffffff1673ffffffffffffffffffffffffffffffffffffffff16815260200180602001828103825283818151815260200191508051906020019080838360005b8381101561507857808201518184015260208101905061505d565b50505050905090810190601f1680156150a55780820380516001836020036101000a031916815260200191505b509350505050600060405180830381600087803b1580156150c557600080fd5b505af11580156150d9573d6000803e3d6000fd5b5050505050505050565b600061510b836000018373ffffffffffffffffffffffffffffffffffffffff1660001b615bfa565b905092915050565b806040516020018082805190602001908083835b6020831061514a5780518252602082019150602081019050602083039250615127565b6001836020036101000a038019825116818451168082178552505050505050905001807f3a20494e53554646494349454e545f5045524d495353494f4e53000000000000815250601a01915050604051602081830303815290604052600a90805190602001906151bb929190616086565b5050565b6000809054906101000a900460ff1615615241576040517f08c379a000000000000000000000000000000000000000000000000000000000815260040180806020018281038252600e8152602001807f616c726561647920696e6974656400000000000000000000000000000000000081525060200191505060405180910390fd5b61524a81614af2565b60016000806101000a81548160ff02191690831515021790555050565b6152718282613fc4565b5050565b600061528382600001615c1d565b9050919050565b60006040518060800160405280604381526020016161d4604391398051906020012082600001518360200151846040015180519060200120604051602001808581526020018481526020018373ffffffffffffffffffffffffffffffffffffffff1673ffffffffffffffffffffffffffffffffffffffff168152602001828152602001945050505050604051602081830303815290604052805190602001209050919050565b600061533a611b53565b8260405160200180807f190100000000000000000000000000000000000000000000000000000000000081525060020183815260200182815260200192505050604051602081830303815290604052805190602001209050919050565b60006153bf836000018373ffffffffffffffffffffffffffffffffffffffff1660001b615c2e565b905092915050565b60006153ef836000018373ffffffffffffffffffffffffffffffffffffffff1660001b615c9e565b905092915050565b6153ff61606c565b600060208301905060405180604001604052808451815260200182815250915050919050565b60606154308261568a565b61543957600080fd5b600061544483615d86565b905060608167ffffffffffffffff8111801561545f57600080fd5b5060405190808252806020026020018201604052801561549957816020015b61548661606c565b81526020019060019003908161547e5790505b50905060006154ab8560200151615df7565b8560200151019050600080600090505b8481101561550c576154cc83615e80565b91506040518060400160405280838152602001848152508482815181106154ef57fe5b6020026020010181905250818301925080806001019150506154bb565b5082945050505050919050565b6060600082600001511161552c57600080fd5b60008061553884615f38565b9150915060608167ffffffffffffffff8111801561555557600080fd5b506040519080825280601f01601f1916602001820160405280156155885781602001600182028036833780820191505090505b509050600081602001905061559e848285615f70565b81945050505050919050565b60008082600001511180156155c457506021826000015111155b6155cd57600080fd5b6000806155d984615f38565b9150915060008251905060208210156155f957816020036101000a810490505b809350505050919050565b6000806002848161561157fe5b061461564d576010826002858161562457fe5b048151811061562f57fe5b602001015160f81c60f81b60f81c60ff168161564757fe5b0661567f565b6010826002858161565a57fe5b048151811061566557fe5b602001015160f81c60f81b60f81c60ff168161567d57fe5b045b60f81b905092915050565b600080826000015114156156a157600090506156d3565b60008083602001519050805160001a915060c060ff168260ff1610156156cc576000925050506156d3565b6001925050505b919050565b60008114156156e65761573a565b5b602060ff1681106157165782518252602060ff1683019250602060ff1682019150602060ff16810390506156e7565b6000600182602060ff16036101000a03905080198451168184511681811785525050505b505050565b6000601582600001511461575257600080fd5b61575b826155aa565b9050919050565b606080826000015167ffffffffffffffff8111801561578057600080fd5b506040519080825280601f01601f1916602001820160405280156157b35781602001600182028036833780820191505090505b5090506000815114156157c957809150506157ea565b60008160200190506157e48460200151828660000151615f70565b81925050505b919050565b6000602182600001511461580257600080fd5b60008060018460200151019050805191508192505050919050565b60008060009050606061582f86614174565b90506060815167ffffffffffffffff8111801561584b57600080fd5b506040519080825280601f01601f19166020018201604052801561587e5781602001600182028036833780820191505090505b50905060008590505b825186018110156158f95760008782815181106158a057fe5b602001015160f81c60f81b90508083888403815181106158bc57fe5b60200101907effffffffffffffffffffffffffffffffffffffffffffffffffffffffffffff1916908160001a905350508080600101915050615887565b50808051906020012082805190602001201415615919578151925061591e565b600092505b8293505050509392505050565b6000828211156159a3576040517f08c379a000000000000000000000000000000000000000000000000000000000815260040180806020018281038252601e8152602001807f536166654d6174683a207375627472616374696f6e206f766572666c6f77000081525060200191505060405180910390fd5b818303905092915050565b60008060208351816159bc57fe5b0614615a30576040517f08c379a00000000000000000000000000000000000000000000000000000000081526004018080602001828103825260148152602001807f496e76616c69642070726f6f66206c656e67746800000000000000000000000081525060200191505060405180910390fd5b60006020835181615a3d57fe5b0490508060020a8510615ab8576040517f08c379a00000000000000000000000000000000000000000000000000000000081526004018080602001828103825260158152602001807f4c65616620696e64657820697320746f6f20626967000000000000000000000081525060200191505060405180910390fd5b6000808790506000602090505b85518111615b6657808601519250600060028981615adf57fe5b061415615b1c5781836040516020018083815260200182815260200192505050604051602081830303815290604052805190602001209150615b4e565b828260405160200180838152602001828152602001925050506040516020818303038152906040528051906020012091505b60028881615b5857fe5b049750602081019050615ac5565b508581149350505050949350505050565b600081836000018054905011615bd8576040517f08c379a00000000000000000000000000000000000000000000000000000000081526004018080602001828103825260228152602001806161566022913960400191505060405180910390fd5b826000018281548110615be757fe5b9060005260206000200154905092915050565b600080836001016000848152602001908152602001600020541415905092915050565b600081600001805490509050919050565b6000615c3a8383615bfa565b615c93578260000182908060018154018082558091505060019003906000526020600020016000909190919091505582600001805490508360010160008481526020019081526020016000208190555060019050615c98565b600090505b92915050565b60008083600101600084815260200190815260200160002054905060008114615d7a5760006001820390506000600186600001805490500390506000866000018281548110615ce957fe5b9060005260206000200154905080876000018481548110615d0657fe5b9060005260206000200181905550600183018760010160008381526020019081526020016000208190555086600001805480615d3e57fe5b60019003818190600052602060002001600090559055866001016000878152602001908152602001600020600090556001945050505050615d80565b60009150505b92915050565b60008082600001511415615d9d5760009050615df2565b60008090506000615db18460200151615df7565b84602001510190506000846000015185602001510190505b80821015615deb57615dda82615e80565b820191508280600101935050615dc9565b8293505050505b919050565b600080825160001a9050608060ff16811015615e17576000915050615e7b565b60b860ff16811080615e3c575060c060ff168110158015615e3b575060f860ff1681105b5b15615e4b576001915050615e7b565b60c060ff16811015615e6b5760018060b80360ff16820301915050615e7b565b60018060f80360ff168203019150505b919050565b6000806000835160001a9050608060ff16811015615ea15760019150615f2e565b60b860ff16811015615ebe576001608060ff168203019150615f2d565b60c060ff16811015615eee5760b78103600185019450806020036101000a85510460018201810193505050615f2c565b60f860ff16811015615f0b57600160c060ff168203019150615f2b565b60f78103600185019450806020036101000a855104600182018101935050505b5b5b5b8192505050919050565b6000806000615f4a8460200151615df7565b905060008185602001510190506000828660000151039050818194509450505050915091565b6000811415615f7e57615fdc565b5b602060ff168110615fae5782518252602060ff1683019250602060ff1682019150602060ff1681039050615f7f565b6000811115615fdb576000600182602060ff16036101000a03905080198451168184511681811785525050505b5b505050565b604051806060016040528060008152602001600073ffffffffffffffffffffffffffffffffffffffff168152602001606081525090565b6040518060200160405280606081525090565b60405180606001604052806060815260200160608152602001600081525090565b604051806040016040528061605f61606c565b8152602001606081525090565b604051806040016040528060008152602001600081525090565b828054600181600116156101000203166002900490600052602060002090601f016020900481019282601f106160c757805160ff19168380011785556160f5565b828001600101855582156160f5579182015b828111156160f45782518255916020019190600101906160d9565b5b5090506161029190616106565b5090565b61612891905b8082111561612457600081600090555060010161610c565b5090565b9056fe526f6f74436861696e4d616e616765723a20544f4b454e5f545950455f4e4f545f535550504f52544544456e756d657261626c655365743a20696e646578206f7574206f6620626f756e6473416363657373436f6e74726f6c3a2073656e646572206d75737420626520616e2061646d696e20746f206772616e74526f6f74436861696e4d616e616765723a20494e56414c49445f4348494c445f434841494e5f414444524553534d6574615472616e73616374696f6e2875696e74323536206e6f6e63652c616464726573732066726f6d2c62797465732066756e6374696f6e5369676e617475726529526f6f74436861696e4d616e616765723a20494e56414c49445f544f4b454e5f54595045454950373132446f6d61696e28737472696e67206e616d652c737472696e672076657273696f6e2c6164647265737320766572696679696e67436f6e74726163742c627974657333322073616c7429526f6f74436861696e4d616e616765723a20494e56414c49445f4252414e43485f4d41534b526f6f74436861696e4d616e616765723a20544f4b454e5f4e4f545f4d4150504544416363657373436f6e74726f6c3a2073656e646572206d75737420626520616e2061646d696e20746f207265766f6b654e61746976654d6574615472616e73616374696f6e3a20494e56414c49445f5349474e4552526f6f74436861696e4d616e616765723a204241445f4e45575f434845434b504f494e545f4d414e41474552526f6f74436861696e4d616e616765723a2045544845525f5452414e534645525f4641494c45445369676e657220616e64207369676e617475726520646f206e6f74206d61746368526f6f74436861696e4d616e616765723a204241445f4e45575f53544154455f53454e444552526f6f74436861696e4d616e616765723a20494e56414c49445f524f4f545f544f4b454e526f6f74436861696e4d616e616765723a20455849545f414c52454144595f50524f434553534544416363657373436f6e74726f6c3a2063616e206f6e6c792072656e6f756e636520726f6c657320666f722073656c66a264697066735822122072f6c9998b136d6d2d122acf19e2681e9516799ec08c19055af9edcf1d10370264736f6c63430006060033",
  "linkReferences": {},
  "deployedLinkReferences": {}
}