{
  "_format": "hh-sol-artifact-1",
  "contractName": "RootChainManager",
  "sourceName": "contracts/root/RootChainManager/RootChainManager.sol",
  "abi": [
    {
      "anonymous": false,
      "inputs": [
        {
          "indexed": false,
          "internalType": "address",
          "name": "userAddress",
          "type": "address"
        },
        {
          "indexed": false,
          "internalType": "address payable",
          "name": "relayerAddress",
          "type": "address"
        },
        {
          "indexed": false,
          "internalType": "bytes",
          "name": "functionSignature",
          "type": "bytes"
        }
      ],
      "name": "MetaTransactionExecuted",
      "type": "event"
    },
    {
      "anonymous": false,
      "inputs": [
        {
          "indexed": true,
          "internalType": "bytes32",
          "name": "tokenType",
          "type": "bytes32"
        },
        {
          "indexed": true,
          "internalType": "address",
          "name": "predicateAddress",
          "type": "address"
        }
      ],
      "name": "PredicateRegistered",
      "type": "event"
    },
    {
      "anonymous": false,
      "inputs": [
        {
          "indexed": true,
          "internalType": "bytes32",
          "name": "role",
          "type": "bytes32"
        },
        {
          "indexed": true,
          "internalType": "bytes32",
          "name": "previousAdminRole",
          "type": "bytes32"
        },
        {
          "indexed": true,
          "internalType": "bytes32",
          "name": "newAdminRole",
          "type": "bytes32"
        }
      ],
      "name": "RoleAdminChanged",
      "type": "event"
    },
    {
      "anonymous": false,
      "inputs": [
        {
          "indexed": true,
          "internalType": "bytes32",
          "name": "role",
          "type": "bytes32"
        },
        {
          "indexed": true,
          "internalType": "address",
          "name": "account",
          "type": "address"
        },
        {
          "indexed": true,
          "internalType": "address",
          "name": "sender",
          "type": "address"
        }
      ],
      "name": "RoleGranted",
      "type": "event"
    },
    {
      "anonymous": false,
      "inputs": [
        {
          "indexed": true,
          "internalType": "bytes32",
          "name": "role",
          "type": "bytes32"
        },
        {
          "indexed": true,
          "internalType": "address",
          "name": "account",
          "type": "address"
        },
        {
          "indexed": true,
          "internalType": "address",
          "name": "sender",
          "type": "address"
        }
      ],
      "name": "RoleRevoked",
      "type": "event"
    },
    {
      "anonymous": false,
      "inputs": [
        {
          "indexed": true,
          "internalType": "address",
          "name": "rootToken",
          "type": "address"
        },
        {
          "indexed": true,
          "internalType": "address",
          "name": "childToken",
          "type": "address"
        },
        {
          "indexed": true,
          "internalType": "bytes32",
          "name": "tokenType",
          "type": "bytes32"
        }
      ],
      "name": "TokenMapped",
      "type": "event"
    },
    {
      "inputs": [],
      "name": "DEFAULT_ADMIN_ROLE",
      "outputs": [
        {
          "internalType": "bytes32",
          "name": "",
          "type": "bytes32"
        }
      ],
      "stateMutability": "view",
      "type": "function"
    },
    {
      "inputs": [],
      "name": "DEPOSIT",
      "outputs": [
        {
          "internalType": "bytes32",
          "name": "",
          "type": "bytes32"
        }
      ],
      "stateMutability": "view",
      "type": "function"
    },
    {
      "inputs": [],
      "name": "ERC712_VERSION",
      "outputs": [
        {
          "internalType": "string",
          "name": "",
          "type": "string"
        }
      ],
      "stateMutability": "view",
      "type": "function"
    },
    {
      "inputs": [],
      "name": "ETHER_ADDRESS",
      "outputs": [
        {
          "internalType": "address",
          "name": "",
          "type": "address"
        }
      ],
      "stateMutability": "view",
      "type": "function"
    },
    {
      "inputs": [],
      "name": "MAPPER_ROLE",
      "outputs": [
        {
          "internalType": "bytes32",
          "name": "",
          "type": "bytes32"
        }
      ],
      "stateMutability": "view",
      "type": "function"
    },
    {
      "inputs": [],
      "name": "MAP_TOKEN",
      "outputs": [
        {
          "internalType": "bytes32",
          "name": "",
          "type": "bytes32"
        }
      ],
      "stateMutability": "view",
      "type": "function"
    },
    {
      "inputs": [],
      "name": "checkpointManagerAddress",
      "outputs": [
        {
          "internalType": "address",
          "name": "",
          "type": "address"
        }
      ],
      "stateMutability": "view",
      "type": "function"
    },
    {
      "inputs": [],
      "name": "childChainManagerAddress",
      "outputs": [
        {
          "internalType": "address",
          "name": "",
          "type": "address"
        }
      ],
      "stateMutability": "view",
      "type": "function"
    },
    {
      "inputs": [
        {
          "internalType": "address",
          "name": "",
          "type": "address"
        }
      ],
      "name": "childToRootToken",
      "outputs": [
        {
          "internalType": "address",
          "name": "",
          "type": "address"
        }
      ],
      "stateMutability": "view",
      "type": "function"
    },
    {
      "inputs": [
        {
          "internalType": "address",
          "name": "rootToken",
          "type": "address"
        },
        {
          "internalType": "address",
          "name": "childToken",
          "type": "address"
        }
      ],
      "name": "cleanMapToken",
      "outputs": [],
      "stateMutability": "nonpayable",
      "type": "function"
    },
    {
      "inputs": [
        {
          "internalType": "address",
          "name": "user",
          "type": "address"
        }
      ],
      "name": "depositEtherFor",
      "outputs": [],
      "stateMutability": "payable",
      "type": "function"
    },
    {
      "inputs": [
        {
          "internalType": "address",
          "name": "user",
          "type": "address"
        },
        {
          "internalType": "address",
          "name": "rootToken",
          "type": "address"
        },
        {
          "internalType": "bytes",
          "name": "depositData",
          "type": "bytes"
        }
      ],
      "name": "depositFor",
      "outputs": [],
      "stateMutability": "nonpayable",
      "type": "function"
    },
    {
      "inputs": [
        {
          "internalType": "address",
          "name": "userAddress",
          "type": "address"
        },
        {
          "internalType": "bytes",
          "name": "functionSignature",
          "type": "bytes"
        },
        {
          "internalType": "bytes32",
          "name": "sigR",
          "type": "bytes32"
        },
        {
          "internalType": "bytes32",
          "name": "sigS",
          "type": "bytes32"
        },
        {
          "internalType": "uint8",
          "name": "sigV",
          "type": "uint8"
        }
      ],
      "name": "executeMetaTransaction",
      "outputs": [
        {
          "internalType": "bytes",
          "name": "",
          "type": "bytes"
        }
      ],
      "stateMutability": "payable",
      "type": "function"
    },
    {
      "inputs": [
        {
          "internalType": "bytes",
          "name": "inputData",
          "type": "bytes"
        }
      ],
      "name": "exit",
      "outputs": [],
      "stateMutability": "nonpayable",
      "type": "function"
    },
    {
      "inputs": [],
      "name": "getChainId",
      "outputs": [
        {
          "internalType": "uint256",
          "name": "",
          "type": "uint256"
        }
      ],
      "stateMutability": "pure",
      "type": "function"
    },
    {
      "inputs": [],
      "name": "getDomainSeperator",
      "outputs": [
        {
          "internalType": "bytes32",
          "name": "",
          "type": "bytes32"
        }
      ],
      "stateMutability": "view",
      "type": "function"
    },
    {
      "inputs": [
        {
          "internalType": "address",
          "name": "user",
          "type": "address"
        }
      ],
      "name": "getNonce",
      "outputs": [
        {
          "internalType": "uint256",
          "name": "nonce",
          "type": "uint256"
        }
      ],
      "stateMutability": "view",
      "type": "function"
    },
    {
      "inputs": [
        {
          "internalType": "bytes32",
          "name": "role",
          "type": "bytes32"
        }
      ],
      "name": "getRoleAdmin",
      "outputs": [
        {
          "internalType": "bytes32",
          "name": "",
          "type": "bytes32"
        }
      ],
      "stateMutability": "view",
      "type": "function"
    },
    {
      "inputs": [
        {
          "internalType": "bytes32",
          "name": "role",
          "type": "bytes32"
        },
        {
          "internalType": "uint256",
          "name": "index",
          "type": "uint256"
        }
      ],
      "name": "getRoleMember",
      "outputs": [
        {
          "internalType": "address",
          "name": "",
          "type": "address"
        }
      ],
      "stateMutability": "view",
      "type": "function"
    },
    {
      "inputs": [
        {
          "internalType": "bytes32",
          "name": "role",
          "type": "bytes32"
        }
      ],
      "name": "getRoleMemberCount",
      "outputs": [
        {
          "internalType": "uint256",
          "name": "",
          "type": "uint256"
        }
      ],
      "stateMutability": "view",
      "type": "function"
    },
    {
      "inputs": [
        {
          "internalType": "bytes32",
          "name": "role",
          "type": "bytes32"
        },
        {
          "internalType": "address",
          "name": "account",
          "type": "address"
        }
      ],
      "name": "grantRole",
      "outputs": [],
      "stateMutability": "nonpayable",
      "type": "function"
    },
    {
      "inputs": [
        {
          "internalType": "bytes32",
          "name": "role",
          "type": "bytes32"
        },
        {
          "internalType": "address",
          "name": "account",
          "type": "address"
        }
      ],
      "name": "hasRole",
      "outputs": [
        {
          "internalType": "bool",
          "name": "",
          "type": "bool"
        }
      ],
      "stateMutability": "view",
      "type": "function"
    },
    {
      "inputs": [
        {
          "internalType": "address",
          "name": "_owner",
          "type": "address"
        }
      ],
      "name": "initialize",
      "outputs": [],
      "stateMutability": "nonpayable",
      "type": "function"
    },
    {
      "inputs": [],
      "name": "initializeEIP712",
      "outputs": [],
      "stateMutability": "nonpayable",
      "type": "function"
    },
    {
      "inputs": [
        {
          "internalType": "address",
          "name": "rootToken",
          "type": "address"
        },
        {
          "internalType": "address",
          "name": "childToken",
          "type": "address"
        },
        {
          "internalType": "bytes32",
          "name": "tokenType",
          "type": "bytes32"
        }
      ],
      "name": "mapToken",
      "outputs": [],
      "stateMutability": "nonpayable",
      "type": "function"
    },
    {
      "inputs": [
        {
          "internalType": "bytes32",
          "name": "",
          "type": "bytes32"
        }
      ],
      "name": "processedExits",
      "outputs": [
        {
          "internalType": "bool",
          "name": "",
          "type": "bool"
        }
      ],
      "stateMutability": "view",
      "type": "function"
    },
    {
      "inputs": [
        {
          "internalType": "bytes32",
          "name": "tokenType",
          "type": "bytes32"
        },
        {
          "internalType": "address",
          "name": "predicateAddress",
          "type": "address"
        }
      ],
      "name": "registerPredicate",
      "outputs": [],
      "stateMutability": "nonpayable",
      "type": "function"
    },
    {
      "inputs": [
        {
          "internalType": "address",
          "name": "rootToken",
          "type": "address"
        },
        {
          "internalType": "address",
          "name": "childToken",
          "type": "address"
        },
        {
          "internalType": "bytes32",
          "name": "tokenType",
          "type": "bytes32"
        }
      ],
      "name": "remapToken",
      "outputs": [],
      "stateMutability": "nonpayable",
      "type": "function"
    },
    {
      "inputs": [
        {
          "internalType": "bytes32",
          "name": "role",
          "type": "bytes32"
        },
        {
          "internalType": "address",
          "name": "account",
          "type": "address"
        }
      ],
      "name": "renounceRole",
      "outputs": [],
      "stateMutability": "nonpayable",
      "type": "function"
    },
    {
      "inputs": [
        {
          "internalType": "bytes32",
          "name": "role",
          "type": "bytes32"
        },
        {
          "internalType": "address",
          "name": "account",
          "type": "address"
        }
      ],
      "name": "revokeRole",
      "outputs": [],
      "stateMutability": "nonpayable",
      "type": "function"
    },
    {
      "inputs": [
        {
          "internalType": "address",
          "name": "",
          "type": "address"
        }
      ],
      "name": "rootToChildToken",
      "outputs": [
        {
          "internalType": "address",
          "name": "",
          "type": "address"
        }
      ],
      "stateMutability": "view",
      "type": "function"
    },
    {
      "inputs": [
        {
          "internalType": "address",
          "name": "newCheckpointManager",
          "type": "address"
        }
      ],
      "name": "setCheckpointManager",
      "outputs": [],
      "stateMutability": "nonpayable",
      "type": "function"
    },
    {
      "inputs": [
        {
          "internalType": "address",
          "name": "newChildChainManager",
          "type": "address"
        }
      ],
      "name": "setChildChainManagerAddress",
      "outputs": [],
      "stateMutability": "nonpayable",
      "type": "function"
    },
    {
      "inputs": [
        {
          "internalType": "address",
          "name": "newStateSender",
          "type": "address"
        }
      ],
      "name": "setStateSender",
      "outputs": [],
      "stateMutability": "nonpayable",
      "type": "function"
    },
    {
      "inputs": [],
      "name": "setupContractId",
      "outputs": [],
      "stateMutability": "nonpayable",
      "type": "function"
    },
    {
      "inputs": [],
      "name": "stateSenderAddress",
      "outputs": [
        {
          "internalType": "address",
          "name": "",
          "type": "address"
        }
      ],
      "stateMutability": "view",
      "type": "function"
    },
    {
      "inputs": [
        {
          "internalType": "address",
          "name": "",
          "type": "address"
        }
      ],
      "name": "tokenToType",
      "outputs": [
        {
          "internalType": "bytes32",
          "name": "",
          "type": "bytes32"
        }
      ],
      "stateMutability": "view",
      "type": "function"
    },
    {
      "inputs": [
        {
          "internalType": "bytes32",
          "name": "",
          "type": "bytes32"
        }
      ],
      "name": "typeToPredicate",
      "outputs": [
        {
          "internalType": "address",
          "name": "",
          "type": "address"
        }
      ],
      "stateMutability": "view",
      "type": "function"
    },
    {
      "stateMutability": "payable",
      "type": "receive"
    }
  ],
  "bytecode": "0x608060405260008060006101000a81548160ff02191690831515021790555034801561002a57600080fd5b50616733806200003b6000396000f3fe6080604052600436106102295760003560e01c8063886a69ba11610123578063cf1d21c0116100ab578063e2c49de11161006f578063e2c49de114610e3f578063e3dec8fb14610e96578063e43009a614610f5c578063e66f960314610fc1578063ea60c7c41461103c57610240565b8063cf1d21c014610c96578063d233a3c714610ced578063d547741f14610d68578063d81c8e5214610dc3578063dc993a2314610dee57610240565b8063a217fddf116100f2578063a217fddf14610b63578063b4b4f63e14610b8e578063bc08452b14610ba5578063c4d66de814610bf6578063ca15c87314610c4757610240565b8063886a69ba146109c55780639010d07c146109f05780639173b13914610a7557806391d1485414610af057610240565b80633138b6f1116101b1578063568b80b511610175578063568b80b51461084e578063607f2d4214610879578063630fcbfb146108cc5780636cb136b0146108e35780636e86b7701461093457610240565b80633138b6f1146106a75780633408e470146106fe57806336568abe146107295780633805550f146107845780634faa8a261461080a57610240565b80630f7e5970116101f85780630f7e5970146104dd57806320379ee51461056d578063248a9ca3146105985780632d0335ab146105e75780632f2ff15d1461064c57610240565b806304967702146102455780630c3894bb1461029c5780630c53c51c1461030d5780630c5982201461048257610240565b366102405761023e6102396110cd565b6110dc565b005b600080fd5b34801561025157600080fd5b5061025a611269565b604051808273ffffffffffffffffffffffffffffffffffffffff1673ffffffffffffffffffffffffffffffffffffffff16815260200191505060405180910390f35b3480156102a857600080fd5b5061030b600480360360408110156102bf57600080fd5b81019080803573ffffffffffffffffffffffffffffffffffffffff169060200190929190803573ffffffffffffffffffffffffffffffffffffffff16906020019092919050505061128f565b005b610407600480360360a081101561032357600080fd5b81019080803573ffffffffffffffffffffffffffffffffffffffff1690602001909291908035906020019064010000000081111561036057600080fd5b82018360208201111561037257600080fd5b8035906020019184600183028401116401000000008311171561039457600080fd5b91908080601f016020809104026020016040519081016040528093929190818152602001838380828437600081840152601f19601f8201169050808301925050505050505091929192908035906020019092919080359060200190929190803560ff16906020019092919050505061154e565b6040518080602001828103825283818151815260200191508051906020019080838360005b8381101561044757808201518184015260208101905061042c565b50505050905090810190601f1680156104745780820380516001836020036101000a031916815260200191505b509250505060405180910390f35b34801561048e57600080fd5b506104db600480360360408110156104a557600080fd5b8101908080359060200190929190803573ffffffffffffffffffffffffffffffffffffffff1690602001909291905050506119a4565b005b3480156104e957600080fd5b506104f2611b1a565b6040518080602001828103825283818151815260200191508051906020019080838360005b83811015610532578082015181840152602081019050610517565b50505050905090810190601f16801561055f5780820380516001836020036101000a031916815260200191505b509250505060405180910390f35b34801561057957600080fd5b50610582611b53565b6040518082815260200191505060405180910390f35b3480156105a457600080fd5b506105d1600480360360208110156105bb57600080fd5b8101908080359060200190929190505050611b5d565b6040518082815260200191505060405180910390f35b3480156105f357600080fd5b506106366004803603602081101561060a57600080fd5b81019080803573ffffffffffffffffffffffffffffffffffffffff169060200190929190505050611b7d565b6040518082815260200191505060405180910390f35b34801561065857600080fd5b506106a56004803603604081101561066f57600080fd5b8101908080359060200190929190803573ffffffffffffffffffffffffffffffffffffffff169060200190929190505050611bc6565b005b3480156106b357600080fd5b506106bc611c50565b604051808273ffffffffffffffffffffffffffffffffffffffff1673ffffffffffffffffffffffffffffffffffffffff16815260200191505060405180910390f35b34801561070a57600080fd5b50610713611c7a565b6040518082815260200191505060405180910390f35b34801561073557600080fd5b506107826004803603604081101561074c57600080fd5b8101908080359060200190929190803573ffffffffffffffffffffffffffffffffffffffff169060200190929190505050611c87565b005b34801561079057600080fd5b50610808600480360360208110156107a757600080fd5b81019080803590602001906401000000008111156107c457600080fd5b8201836020820111156107d657600080fd5b803590602001918460018302840111640100000000831117156107f857600080fd5b9091929391929390505050611d20565b005b61084c6004803603602081101561082057600080fd5b81019080803573ffffffffffffffffffffffffffffffffffffffff1690602001909291905050506124ac565b005b34801561085a57600080fd5b506108636124b8565b6040518082815260200191505060405180910390f35b34801561088557600080fd5b506108b26004803603602081101561089c57600080fd5b81019080803590602001909291905050506124f1565b604051808215151515815260200191505060405180910390f35b3480156108d857600080fd5b506108e1612511565b005b3480156108ef57600080fd5b506109326004803603602081101561090657600080fd5b81019080803573ffffffffffffffffffffffffffffffffffffffff16906020019092919050505061262d565b005b34801561094057600080fd5b506109836004803603602081101561095757600080fd5b81019080803573ffffffffffffffffffffffffffffffffffffffff1690602001909291905050506127d3565b604051808273ffffffffffffffffffffffffffffffffffffffff1673ffffffffffffffffffffffffffffffffffffffff16815260200191505060405180910390f35b3480156109d157600080fd5b506109da612806565b6040518082815260200191505060405180910390f35b3480156109fc57600080fd5b50610a3360048036036040811015610a1357600080fd5b81019080803590602001909291908035906020019092919050505061283f565b604051808273ffffffffffffffffffffffffffffffffffffffff1673ffffffffffffffffffffffffffffffffffffffff16815260200191505060405180910390f35b348015610a8157600080fd5b50610aee60048036036060811015610a9857600080fd5b81019080803573ffffffffffffffffffffffffffffffffffffffff169060200190929190803573ffffffffffffffffffffffffffffffffffffffff16906020019092919080359060200190929190505050612871565b005b348015610afc57600080fd5b50610b4960048036036040811015610b1357600080fd5b8101908080359060200190929190803573ffffffffffffffffffffffffffffffffffffffff169060200190929190505050612b27565b604051808215151515815260200191505060405180910390f35b348015610b6f57600080fd5b50610b78612b59565b6040518082815260200191505060405180910390f35b348015610b9a57600080fd5b50610ba3612b60565b005b348015610bb157600080fd5b50610bf460048036036020811015610bc857600080fd5b81019080803573ffffffffffffffffffffffffffffffffffffffff169060200190929190505050612c7c565b005b348015610c0257600080fd5b50610c4560048036036020811015610c1957600080fd5b81019080803573ffffffffffffffffffffffffffffffffffffffff169060200190929190505050612e22565b005b348015610c5357600080fd5b50610c8060048036036020811015610c6a57600080fd5b8101908080359060200190929190505050612f89565b6040518082815260200191505060405180910390f35b348015610ca257600080fd5b50610cab612fb0565b604051808273ffffffffffffffffffffffffffffffffffffffff1673ffffffffffffffffffffffffffffffffffffffff16815260200191505060405180910390f35b348015610cf957600080fd5b50610d6660048036036060811015610d1057600080fd5b81019080803573ffffffffffffffffffffffffffffffffffffffff169060200190929190803573ffffffffffffffffffffffffffffffffffffffff16906020019092919080359060200190929190505050612fc8565b005b348015610d7457600080fd5b50610dc160048036036040811015610d8b57600080fd5b8101908080359060200190929190803573ffffffffffffffffffffffffffffffffffffffff1690602001909291905050506133eb565b005b348015610dcf57600080fd5b50610dd8613475565b6040518082815260200191505060405180910390f35b348015610dfa57600080fd5b50610e3d60048036036020811015610e1157600080fd5b81019080803573ffffffffffffffffffffffffffffffffffffffff1690602001909291905050506134ae565b005b348015610e4b57600080fd5b50610e54613654565b604051808273ffffffffffffffffffffffffffffffffffffffff1673ffffffffffffffffffffffffffffffffffffffff16815260200191505060405180910390f35b348015610ea257600080fd5b50610f5a60048036036060811015610eb957600080fd5b81019080803573ffffffffffffffffffffffffffffffffffffffff169060200190929190803573ffffffffffffffffffffffffffffffffffffffff16906020019092919080359060200190640100000000811115610f1657600080fd5b820183602082011115610f2857600080fd5b80359060200191846001830284011164010000000083111715610f4a57600080fd5b909192939192939050505061367e565b005b348015610f6857600080fd5b50610fab60048036036020811015610f7f57600080fd5b81019080803573ffffffffffffffffffffffffffffffffffffffff16906020019092919050505061376c565b6040518082815260200191505060405180910390f35b348015610fcd57600080fd5b50610ffa60048036036020811015610fe457600080fd5b8101908080359060200190929190505050613784565b604051808273ffffffffffffffffffffffffffffffffffffffff1673ffffffffffffffffffffffffffffffffffffffff16815260200191505060405180910390f35b34801561104857600080fd5b5061108b6004803603602081101561105f57600080fd5b81019080803573ffffffffffffffffffffffffffffffffffffffff1690602001909291905050506137b7565b604051808273ffffffffffffffffffffffffffffffffffffffff1673ffffffffffffffffffffffffffffffffffffffff16815260200191505060405180910390f35b60006110d76137ea565b905090565b60603460405160200180828152602001915050604051602081830303815290604052905061111f8273eeeeeeeeeeeeeeeeeeeeeeeeeeeeeeeeeeeeeeee8361389f565b6000600260006005600073eeeeeeeeeeeeeeeeeeeeeeeeeeeeeeeeeeeeeeee73ffffffffffffffffffffffffffffffffffffffff1673ffffffffffffffffffffffffffffffffffffffff16815260200190815260200160002054815260200190815260200160002060009054906101000a900473ffffffffffffffffffffffffffffffffffffffff1673ffffffffffffffffffffffffffffffffffffffff163460405180600001905060006040518083038185875af1925050503d8060008114611205576040519150601f19603f3d011682016040523d82523d6000602084013e61120a565b606091505b5050905080611264576040517f08c379a00000000000000000000000000000000000000000000000000000000081526004018080602001828103825260278152602001806165786027913960400191505060405180910390fd5b505050565b600960009054906101000a900473ffffffffffffffffffffffffffffffffffffffff1681565b6000801b6112a48161129f6110cd565b612b27565b600a90611369576040517f08c379a0000000000000000000000000000000000000000000000000000000008152600401808060200182810382528381815460018160011615610100020316600290048152602001915080546001816001161561010002031660029004801561135a5780601f1061132f5761010080835404028352916020019161135a565b820191906000526020600020905b81548152906001019060200180831161133d57829003601f168201915b50509250505060405180910390fd5b506000600360008573ffffffffffffffffffffffffffffffffffffffff1673ffffffffffffffffffffffffffffffffffffffff16815260200190815260200160002060006101000a81548173ffffffffffffffffffffffffffffffffffffffff021916908373ffffffffffffffffffffffffffffffffffffffff1602179055506000600460008473ffffffffffffffffffffffffffffffffffffffff1673ffffffffffffffffffffffffffffffffffffffff16815260200190815260200160002060006101000a81548173ffffffffffffffffffffffffffffffffffffffff021916908373ffffffffffffffffffffffffffffffffffffffff1602179055506000801b600560008573ffffffffffffffffffffffffffffffffffffffff1673ffffffffffffffffffffffffffffffffffffffff16815260200190815260200160002081905550600560008473ffffffffffffffffffffffffffffffffffffffff1673ffffffffffffffffffffffffffffffffffffffff168152602001908152602001600020548273ffffffffffffffffffffffffffffffffffffffff168473ffffffffffffffffffffffffffffffffffffffff167f9e651a8866fbea043e911d816ec254b0e3c992c06fff32d605e72362d6023bd960405160405180910390a4505050565b60606115586161bf565b6040518060600160405280600c60008a73ffffffffffffffffffffffffffffffffffffffff1673ffffffffffffffffffffffffffffffffffffffff1681526020019081526020016000205481526020018873ffffffffffffffffffffffffffffffffffffffff1681526020018781525090506115d78782878787613fad565b61162c576040517f08c379a000000000000000000000000000000000000000000000000000000000815260040180806020018281038252602181526020018061659f6021913960400191505060405180910390fd5b61167f6001600c60008a73ffffffffffffffffffffffffffffffffffffffff1673ffffffffffffffffffffffffffffffffffffffff168152602001908152602001600020546140e490919063ffffffff16565b600c60008973ffffffffffffffffffffffffffffffffffffffff1673ffffffffffffffffffffffffffffffffffffffff168152602001908152602001600020819055507f5845892132946850460bff5a0083f71031bc5bf9aadcd40f1de79423eac9b10b873388604051808473ffffffffffffffffffffffffffffffffffffffff1673ffffffffffffffffffffffffffffffffffffffff1681526020018373ffffffffffffffffffffffffffffffffffffffff1673ffffffffffffffffffffffffffffffffffffffff16815260200180602001828103825283818151815260200191508051906020019080838360005b8381101561178a57808201518184015260208101905061176f565b50505050905090810190601f1680156117b75780820380516001836020036101000a031916815260200191505b5094505050505060405180910390a1600060603073ffffffffffffffffffffffffffffffffffffffff16888a6040516020018083805190602001908083835b6020831061181957805182526020820191506020810190506020830392506117f6565b6001836020036101000a0380198251168184511680821785525050505050509050018273ffffffffffffffffffffffffffffffffffffffff1673ffffffffffffffffffffffffffffffffffffffff1660601b8152601401925050506040516020818303038152906040526040518082805190602001908083835b602083106118b65780518252602082019150602081019050602083039250611893565b6001836020036101000a0380198251168184511680821785525050505050509050019150506000604051808303816000865af19150503d8060008114611918576040519150601f19603f3d011682016040523d82523d6000602084013e61191d565b606091505b509150915081611995576040517f08c379a000000000000000000000000000000000000000000000000000000000815260040180806020018281038252601c8152602001807f46756e6374696f6e2063616c6c206e6f74207375636365737366756c0000000081525060200191505060405180910390fd5b80935050505095945050505050565b6000801b6119b9816119b46110cd565b612b27565b600a90611a7e576040517f08c379a00000000000000000000000000000000000000000000000000000000081526004018080602001828103825283818154600181600116156101000203166002900481526020019150805460018160011615610100020316600290048015611a6f5780601f10611a4457610100808354040283529160200191611a6f565b820191906000526020600020905b815481529060010190602001808311611a5257829003601f168201915b50509250505060405180910390fd5b50816002600085815260200190815260200160002060006101000a81548173ffffffffffffffffffffffffffffffffffffffff021916908373ffffffffffffffffffffffffffffffffffffffff1602179055508173ffffffffffffffffffffffffffffffffffffffff16837f8643692ae1c12ec91fa18e50b82ed93fa314f580999a236824db6de9ae0d839b60405160405180910390a3505050565b6040518060400160405280600181526020017f310000000000000000000000000000000000000000000000000000000000000081525081565b6000600b54905090565b600060016000838152602001908152602001600020600201549050919050565b6000600c60008373ffffffffffffffffffffffffffffffffffffffff1673ffffffffffffffffffffffffffffffffffffffff168152602001908152602001600020549050919050565b611bed6001600084815260200190815260200160002060020154611be86110cd565b612b27565b611c42576040517f08c379a000000000000000000000000000000000000000000000000000000000815260040180806020018281038252602f815260200180616327602f913960400191505060405180910390fd5b611c4c828261416c565b5050565b6000600860009054906101000a900473ffffffffffffffffffffffffffffffffffffffff16905090565b6000804690508091505090565b611c8f6110cd565b73ffffffffffffffffffffffffffffffffffffffff168173ffffffffffffffffffffffffffffffffffffffff1614611d12576040517f08c379a000000000000000000000000000000000000000000000000000000000815260040180806020018281038252602f815260200180616687602f913960400191505060405180910390fd5b611d1c8282614200565b5050565b6060611d77611d7284848080601f016020809104026020016040519081016040528093929190818152602001838380828437600081840152601f19601f82011690508083019250505050505050614294565b614339565b90506000611d9882600281518110611d8b57fe5b6020026020010151614504565b611dbd611db884600881518110611dab57fe5b60200260200101516146b9565b6147b9565b611dda84600981518110611dcd57fe5b6020026020010151614504565b6040516020018084815260200183805190602001908083835b60208310611e165780518252602082019150602081019050602083039250611df3565b6001836020036101000a0380198251168184511680821785525050505050509050018281526020019350505050604051602081830303815290604052805190602001209050600015156006600083815260200190815260200160002060009054906101000a900460ff16151514611ed8576040517f08c379a000000000000000000000000000000000000000000000000000000000815260040180806020018281038252602881526020018061660a6028913960400191505060405180910390fd5b60016006600083815260200190815260200160002060006101000a81548160ff0219169083151502179055506060611f33611f2e611f2985600681518110611f1c57fe5b60200260200101516146b9565b614294565b614339565b9050611f3d6161f6565b611f5a82600381518110611f4d57fe5b6020026020010151614339565b611f7785600981518110611f6a57fe5b6020026020010151614504565b81518110611f8157fe5b602002602001015190506000611fb2611f9983614339565b600081518110611fa557fe5b6020026020010151614980565b90506000600460008373ffffffffffffffffffffffffffffffffffffffff1673ffffffffffffffffffffffffffffffffffffffff16815260200190815260200160002060009054906101000a900473ffffffffffffffffffffffffffffffffffffffff169050600073ffffffffffffffffffffffffffffffffffffffff168173ffffffffffffffffffffffffffffffffffffffff16141561209e576040517f08c379a000000000000000000000000000000000000000000000000000000000815260040180806020018281038252602281526020018061645e6022913960400191505060405180910390fd5b600060026000600560008573ffffffffffffffffffffffffffffffffffffffff1673ffffffffffffffffffffffffffffffffffffffff16815260200190815260200160002054815260200190815260200160002060009054906101000a900473ffffffffffffffffffffffffffffffffffffffff16905060007fffffffffffffffffffffffffffffffffffffffffffffffffffffffff000000006121558960088151811061214857fe5b6020026020010151614504565b16146121ac576040517f08c379a00000000000000000000000000000000000000000000000000000000081526004018080602001828103825260258152602001806164396025913960400191505060405180910390fd5b61222b6121cc886006815181106121bf57fe5b60200260200101516146b9565b6121e9896008815181106121dc57fe5b60200260200101516146b9565b6122068a6007815181106121f957fe5b60200260200101516146b9565b6122238b60058151811061221657fe5b6020026020010151614504565b60001b614a4e565b61229d576040517f08c379a000000000000000000000000000000000000000000000000000000000815260040180806020018281038252601f8152602001807f526f6f74436861696e4d616e616765723a20494e56414c49445f50524f4f460081525060200191505060405180910390fd5b6123596122bd886002815181106122b057fe5b6020026020010151614504565b6122da896003815181106122cd57fe5b6020026020010151614504565b6122f78a6004815181106122ea57fe5b6020026020010151614504565b60001b6123178b60058151811061230a57fe5b6020026020010151614504565b60001b6123378c60008151811061232a57fe5b6020026020010151614504565b6123548d60018151811061234757fe5b60200260200101516146b9565b614d09565b508073ffffffffffffffffffffffffffffffffffffffff16638274664f61237e6110cd565b8461238888614ed6565b6040518463ffffffff1660e01b8152600401808473ffffffffffffffffffffffffffffffffffffffff1673ffffffffffffffffffffffffffffffffffffffff1681526020018373ffffffffffffffffffffffffffffffffffffffff1673ffffffffffffffffffffffffffffffffffffffff16815260200180602001828103825283818151815260200191508051906020019080838360005b8381101561243b578082015181840152602081019050612420565b50505050905090810190601f1680156124685780820380516001836020036101000a031916815260200191505b50945050505050600060405180830381600087803b15801561248957600080fd5b505af115801561249d573d6000803e3d6000fd5b50505050505050505050505050565b6124b5816110dc565b50565b60405180807f4d41505045525f524f4c45000000000000000000000000000000000000000000815250600b019050604051809103902081565b60066020528060005260406000206000915054906101000a900460ff1681565b6000801b612526816125216110cd565b612b27565b600a906125eb576040517f08c379a000000000000000000000000000000000000000000000000000000000815260040180806020018281038252838181546001816001161561010002031660029004815260200191508054600181600116156101000203166002900480156125dc5780601f106125b1576101008083540402835291602001916125dc565b820191906000526020600020905b8154815290600101906020018083116125bf57829003601f168201915b50509250505060405180910390fd5b5061262a6040518060400160405280601081526020017f526f6f74436861696e4d616e6167657200000000000000000000000000000000815250614f4f565b50565b6000801b6126428161263d6110cd565b612b27565b600a90612707576040517f08c379a000000000000000000000000000000000000000000000000000000000815260040180806020018281038252838181546001816001161561010002031660029004815260200191508054600181600116156101000203166002900480156126f85780601f106126cd576101008083540402835291602001916126f8565b820191906000526020600020905b8154815290600101906020018083116126db57829003601f168201915b50509250505060405180910390fd5b50600073ffffffffffffffffffffffffffffffffffffffff168273ffffffffffffffffffffffffffffffffffffffff16141561278e576040517f08c379a00000000000000000000000000000000000000000000000000000000081526004018080602001828103825260268152602001806165c06026913960400191505060405180910390fd5b81600760006101000a81548173ffffffffffffffffffffffffffffffffffffffff021916908373ffffffffffffffffffffffffffffffffffffffff1602179055505050565b60046020528060005260406000206000915054906101000a900473ffffffffffffffffffffffffffffffffffffffff1681565b60405180807f4d41505f544f4b454e00000000000000000000000000000000000000000000008152506009019050604051809103902081565b6000612869826001600086815260200190815260200160002060000161503790919063ffffffff16565b905092915050565b60405180807f4d41505045525f524f4c45000000000000000000000000000000000000000000815250600b01905060405180910390206128b8816128b36110cd565b612b27565b600a9061297d576040517f08c379a0000000000000000000000000000000000000000000000000000000008152600401808060200182810382528381815460018160011615610100020316600290048152602001915080546001816001161561010002031660029004801561296e5780601f106129435761010080835404028352916020019161296e565b820191906000526020600020905b81548152906001019060200180831161295157829003601f168201915b50509250505060405180910390fd5b50600073ffffffffffffffffffffffffffffffffffffffff16600360008673ffffffffffffffffffffffffffffffffffffffff1673ffffffffffffffffffffffffffffffffffffffff16815260200190815260200160002060009054906101000a900473ffffffffffffffffffffffffffffffffffffffff1673ffffffffffffffffffffffffffffffffffffffff16148015612aa45750600073ffffffffffffffffffffffffffffffffffffffff16600460008573ffffffffffffffffffffffffffffffffffffffff1673ffffffffffffffffffffffffffffffffffffffff16815260200190815260200160002060009054906101000a900473ffffffffffffffffffffffffffffffffffffffff1673ffffffffffffffffffffffffffffffffffffffff16145b612b16576040517f08c379a00000000000000000000000000000000000000000000000000000000081526004018080602001828103825260208152602001807f526f6f74436861696e4d616e616765723a20414c52454144595f4d415050454481525060200191505060405180910390fd5b612b21848484615051565b50505050565b6000612b51826001600086815260200190815260200160002060000161554090919063ffffffff16565b905092915050565b6000801b81565b6000801b612b7581612b706110cd565b612b27565b600a90612c3a576040517f08c379a00000000000000000000000000000000000000000000000000000000081526004018080602001828103825283818154600181600116156101000203166002900481526020019150805460018160011615610100020316600290048015612c2b5780601f10612c0057610100808354040283529160200191612c2b565b820191906000526020600020905b815481529060010190602001808311612c0e57829003601f168201915b50509250505060405180910390fd5b50612c796040518060400160405280601081526020017f526f6f74436861696e4d616e6167657200000000000000000000000000000000815250615570565b50565b6000801b612c9181612c8c6110cd565b612b27565b600a90612d56576040517f08c379a00000000000000000000000000000000000000000000000000000000081526004018080602001828103825283818154600181600116156101000203166002900481526020019150805460018160011615610100020316600290048015612d475780601f10612d1c57610100808354040283529160200191612d47565b820191906000526020600020905b815481529060010190602001808311612d2a57829003601f168201915b50509250505060405180910390fd5b50600073ffffffffffffffffffffffffffffffffffffffff168273ffffffffffffffffffffffffffffffffffffffff161415612ddd576040517f08c379a000000000000000000000000000000000000000000000000000000000815260040180806020018281038252602c81526020018061654c602c913960400191505060405180910390fd5b81600860006101000a81548173ffffffffffffffffffffffffffffffffffffffff021916908373ffffffffffffffffffffffffffffffffffffffff1602179055505050565b6000809054906101000a900460ff1615612ea4576040517f08c379a000000000000000000000000000000000000000000000000000000000815260040180806020018281038252600e8152602001807f616c726561647920696e6974656400000000000000000000000000000000000081525060200191505060405180910390fd5b612ee26040518060400160405280601081526020017f526f6f74436861696e4d616e616765720000000000000000000000000000000081525061561c565b612f206040518060400160405280601081526020017f526f6f74436861696e4d616e6167657200000000000000000000000000000000815250615570565b612f2d6000801b826156c4565b612f6c60405180807f4d41505045525f524f4c45000000000000000000000000000000000000000000815250600b0190506040518091039020826156c4565b60016000806101000a81548160ff02191690831515021790555050565b6000612fa9600160008481526020019081526020016000206000016156d2565b9050919050565b73eeeeeeeeeeeeeeeeeeeeeeeeeeeeeeeeeeeeeeee81565b6000801b612fdd81612fd86110cd565b612b27565b600a906130a2576040517f08c379a000000000000000000000000000000000000000000000000000000000815260040180806020018281038252838181546001816001161561010002031660029004815260200191508054600181600116156101000203166002900480156130935780601f1061306857610100808354040283529160200191613093565b820191906000526020600020905b81548152906001019060200180831161307657829003601f168201915b50509250505060405180910390fd5b506000600360008673ffffffffffffffffffffffffffffffffffffffff1673ffffffffffffffffffffffffffffffffffffffff16815260200190815260200160002060009054906101000a900473ffffffffffffffffffffffffffffffffffffffff1690506000600460008673ffffffffffffffffffffffffffffffffffffffff1673ffffffffffffffffffffffffffffffffffffffff16815260200190815260200160002060009054906101000a900473ffffffffffffffffffffffffffffffffffffffff169050600073ffffffffffffffffffffffffffffffffffffffff16600360008373ffffffffffffffffffffffffffffffffffffffff1673ffffffffffffffffffffffffffffffffffffffff16815260200190815260200160002060009054906101000a900473ffffffffffffffffffffffffffffffffffffffff1673ffffffffffffffffffffffffffffffffffffffff16146132c5576000600360008373ffffffffffffffffffffffffffffffffffffffff1673ffffffffffffffffffffffffffffffffffffffff16815260200190815260200160002060006101000a81548173ffffffffffffffffffffffffffffffffffffffff021916908373ffffffffffffffffffffffffffffffffffffffff1602179055506000801b600560008373ffffffffffffffffffffffffffffffffffffffff1673ffffffffffffffffffffffffffffffffffffffff168152602001908152602001600020819055505b600073ffffffffffffffffffffffffffffffffffffffff16600460008473ffffffffffffffffffffffffffffffffffffffff1673ffffffffffffffffffffffffffffffffffffffff16815260200190815260200160002060009054906101000a900473ffffffffffffffffffffffffffffffffffffffff1673ffffffffffffffffffffffffffffffffffffffff16146133d8576000600460008473ffffffffffffffffffffffffffffffffffffffff1673ffffffffffffffffffffffffffffffffffffffff16815260200190815260200160002060006101000a81548173ffffffffffffffffffffffffffffffffffffffff021916908373ffffffffffffffffffffffffffffffffffffffff1602179055505b6133e3868686615051565b505050505050565b613412600160008481526020019081526020016000206002015461340d6110cd565b612b27565b613467576040517f08c379a00000000000000000000000000000000000000000000000000000000081526004018080602001828103825260308152602001806164a86030913960400191505060405180910390fd5b6134718282614200565b5050565b60405180807f4445504f534954000000000000000000000000000000000000000000000000008152506007019050604051809103902081565b6000801b6134c3816134be6110cd565b612b27565b600a90613588576040517f08c379a000000000000000000000000000000000000000000000000000000000815260040180806020018281038252838181546001816001161561010002031660029004815260200191508054600181600116156101000203166002900480156135795780601f1061354e57610100808354040283529160200191613579565b820191906000526020600020905b81548152906001019060200180831161355c57829003601f168201915b50509250505060405180910390fd5b50600073ffffffffffffffffffffffffffffffffffffffff168273ffffffffffffffffffffffffffffffffffffffff16141561360f576040517f08c379a000000000000000000000000000000000000000000000000000000000815260040180806020018281038252602d815260200180616356602d913960400191505060405180910390fd5b81600960006101000a81548173ffffffffffffffffffffffffffffffffffffffff021916908373ffffffffffffffffffffffffffffffffffffffff1602179055505050565b6000600760009054906101000a900473ffffffffffffffffffffffffffffffffffffffff16905090565b73eeeeeeeeeeeeeeeeeeeeeeeeeeeeeeeeeeeeeeee73ffffffffffffffffffffffffffffffffffffffff168373ffffffffffffffffffffffffffffffffffffffff161415613717576040517f08c379a00000000000000000000000000000000000000000000000000000000081526004018080602001828103825260248152602001806165e66024913960400191505060405180910390fd5b613766848484848080601f016020809104026020016040519081016040528093929190818152602001838380828437600081840152601f19601f8201169050808301925050505050505061389f565b50505050565b60056020528060005260406000206000915090505481565b60026020528060005260406000206000915054906101000a900473ffffffffffffffffffffffffffffffffffffffff1681565b60036020528060005260406000206000915054906101000a900473ffffffffffffffffffffffffffffffffffffffff1681565b60003073ffffffffffffffffffffffffffffffffffffffff163373ffffffffffffffffffffffffffffffffffffffff1614156138955760606000368080601f016020809104026020016040519081016040528093929190818152602001838380828437600081840152601f19601f820116905080830192505050505050509050600080369050905073ffffffffffffffffffffffffffffffffffffffff818301511692505050613899565b3390505b80905090565b6000600560008473ffffffffffffffffffffffffffffffffffffffff1673ffffffffffffffffffffffffffffffffffffffff168152602001908152602001600020549050600073ffffffffffffffffffffffffffffffffffffffff16600360008573ffffffffffffffffffffffffffffffffffffffff1673ffffffffffffffffffffffffffffffffffffffff16815260200190815260200160002060009054906101000a900473ffffffffffffffffffffffffffffffffffffffff1673ffffffffffffffffffffffffffffffffffffffff161415801561398257506000801b8114155b6139d7576040517f08c379a000000000000000000000000000000000000000000000000000000000815260040180806020018281038252602281526020018061645e6022913960400191505060405180910390fd5b60006002600083815260200190815260200160002060009054906101000a900473ffffffffffffffffffffffffffffffffffffffff169050600073ffffffffffffffffffffffffffffffffffffffff168173ffffffffffffffffffffffffffffffffffffffff161415613a95576040517f08c379a00000000000000000000000000000000000000000000000000000000081526004018080602001828103825260248152602001806163c66024913960400191505060405180910390fd5b600073ffffffffffffffffffffffffffffffffffffffff168573ffffffffffffffffffffffffffffffffffffffff161415613b38576040517f08c379a000000000000000000000000000000000000000000000000000000000815260040180806020018281038252601e8152602001807f526f6f74436861696e4d616e616765723a20494e56414c49445f55534552000081525060200191505060405180910390fd5b8073ffffffffffffffffffffffffffffffffffffffff1663e375b64e613b5c6110cd565b8787876040518563ffffffff1660e01b8152600401808573ffffffffffffffffffffffffffffffffffffffff1673ffffffffffffffffffffffffffffffffffffffff1681526020018473ffffffffffffffffffffffffffffffffffffffff1673ffffffffffffffffffffffffffffffffffffffff1681526020018373ffffffffffffffffffffffffffffffffffffffff1673ffffffffffffffffffffffffffffffffffffffff16815260200180602001828103825283818151815260200191508051906020019080838360005b83811015613c44578082015181840152602081019050613c29565b50505050905090810190601f168015613c715780820380516001836020036101000a031916815260200191505b5095505050505050600060405180830381600087803b158015613c9357600080fd5b505af1158015613ca7573d6000803e3d6000fd5b505050506060858585604051602001808473ffffffffffffffffffffffffffffffffffffffff1673ffffffffffffffffffffffffffffffffffffffff1681526020018373ffffffffffffffffffffffffffffffffffffffff1673ffffffffffffffffffffffffffffffffffffffff16815260200180602001828103825283818151815260200191508051906020019080838360005b83811015613d57578082015181840152602081019050613d3c565b50505050905090810190601f168015613d845780820380516001836020036101000a031916815260200191505b509450505050506040516020818303038152906040529050600760009054906101000a900473ffffffffffffffffffffffffffffffffffffffff1673ffffffffffffffffffffffffffffffffffffffff166316f19831600960009054906101000a900473ffffffffffffffffffffffffffffffffffffffff1660405180807f4445504f5349540000000000000000000000000000000000000000000000000081525060070190506040518091039020846040516020018083815260200180602001828103825283818151815260200191508051906020019080838360005b83811015613e7d578082015181840152602081019050613e62565b50505050905090810190601f168015613eaa5780820380516001836020036101000a031916815260200191505b5093505050506040516020818303038152906040526040518363ffffffff1660e01b8152600401808373ffffffffffffffffffffffffffffffffffffffff1673ffffffffffffffffffffffffffffffffffffffff16815260200180602001828103825283818151815260200191508051906020019080838360005b83811015613f40578082015181840152602081019050613f25565b50505050905090810190601f168015613f6d5780820380516001836020036101000a031916815260200191505b509350505050600060405180830381600087803b158015613f8d57600080fd5b505af1158015613fa1573d6000803e3d6000fd5b50505050505050505050565b60008073ffffffffffffffffffffffffffffffffffffffff168673ffffffffffffffffffffffffffffffffffffffff161415614034576040517f08c379a00000000000000000000000000000000000000000000000000000000081526004018080602001828103825260258152602001806164d86025913960400191505060405180910390fd5b6001614047614042876156e7565b61578d565b83868660405160008152602001604052604051808581526020018460ff1660ff1681526020018381526020018281526020019450505050506020604051602081039080840390855afa1580156140a1573d6000803e3d6000fd5b5050506020604051035173ffffffffffffffffffffffffffffffffffffffff168673ffffffffffffffffffffffffffffffffffffffff1614905095945050505050565b600080828401905083811015614162576040517f08c379a000000000000000000000000000000000000000000000000000000000815260040180806020018281038252601b8152602001807f536166654d6174683a206164646974696f6e206f766572666c6f77000000000081525060200191505060405180910390fd5b8091505092915050565b61419481600160008581526020019081526020016000206000016157f490919063ffffffff16565b156141fc576141a16110cd565b73ffffffffffffffffffffffffffffffffffffffff168173ffffffffffffffffffffffffffffffffffffffff16837f2f8788117e7eff1d82e926ec794901d17c78024a50270940304540a733656f0d60405160405180910390a45b5050565b614228816001600085815260200190815260200160002060000161582490919063ffffffff16565b15614290576142356110cd565b73ffffffffffffffffffffffffffffffffffffffff168173ffffffffffffffffffffffffffffffffffffffff16837ff6391f5c32d9c69d2a47ea670b442974b53935d1edc7fd64eb21e047a839171b60405160405180910390a45b5050565b61429c6161f6565b6000825111614313576040517f08c379a000000000000000000000000000000000000000000000000000000000815260040180806020018281038252601f8152602001807f524c505265616465723a20494e56414c49445f42595445535f4c454e4754480081525060200191505060405180910390fd5b600060208301905060405180604001604052808451815260200182815250915050919050565b606061434482615854565b6143b6576040517f08c379a00000000000000000000000000000000000000000000000000000000081526004018080602001828103825260188152602001807f524c505265616465723a204954454d5f4e4f545f4c495354000000000000000081525060200191505060405180910390fd5b60006143c18361588d565b905060608167ffffffffffffffff811180156143dc57600080fd5b5060405190808252806020026020018201604052801561441657816020015b6144036161f6565b8152602001906001900390816143fb5790505b50905060006144288560200151615941565b905084600001518114614486576040517f08c379a00000000000000000000000000000000000000000000000000000000081526004018080602001828103825260278152602001806166326027913960400191505060405180910390fd5b600061449586602001516159f9565b8660200151019050600080600090505b858110156144f6576144b683615941565b91506040518060400160405280838152602001848152508582815181106144d957fe5b6020026020010181905250818301925080806001019150506144a5565b508395505050505050919050565b600061450f82615854565b15614582576040517f08c379a00000000000000000000000000000000000000000000000000000000081526004018080602001828103825260208152602001807f524c505265616465723a204445434f44494e475f4c4953545f41535f55494e5481525060200191505060405180910390fd5b6021826000015111156145fd576040517f08c379a000000000000000000000000000000000000000000000000000000000815260040180806020018281038252601e8152602001807f524c505265616465723a20494e56414c49445f55494e545f4c454e475448000081525060200191505060405180910390fd5b600061460c8360200151615941565b90508260000151811461466a576040517f08c379a00000000000000000000000000000000000000000000000000000000081526004018080602001828103825260278152602001806166b66027913960400191505060405180910390fd5b600061467984602001516159f9565b905060008185600001510390506000808387602001510190508051915060208310156146ac57826020036101000a820491505b8195505050505050919050565b606060006146ca8360200151615941565b905082600001518114614728576040517f08c379a00000000000000000000000000000000000000000000000000000000081526004018080602001828103825260288152602001806164806028913960400191505060405180910390fd5b600061473784602001516159f9565b9050600081856000015103905060608167ffffffffffffffff8111801561475d57600080fd5b506040519080825280601f01601f1916602001820160405280156147905781602001600182028036833780820191505090505b50905060008160200190506147ac848860200151018285615a82565b8195505050505050919050565b606080604051806020016040528060008152509050600083511115614977576000806147e6600086615ae9565b60f81c905060018160ff161480614800575060038160ff16145b156148af57600160028651020367ffffffffffffffff8111801561482357600080fd5b506040519080825280601f01601f1916602001820160405280156148565781602001600182028036833780820191505090505b5092506000614866600187615ae9565b9050808460008151811061487657fe5b60200101907effffffffffffffffffffffffffffffffffffffffffffffffffffffffffffff1916908160001a9053506001925050614907565b6002808651020367ffffffffffffffff811180156148cc57600080fd5b506040519080825280601f01601f1916602001820160405280156148ff5781602001600182028036833780820191505090505b509250600091505b60008260ff1690505b83518110156149735761492b60028460ff1683030187615ae9565b84828151811061493757fe5b60200101907effffffffffffffffffffffffffffffffffffffffffffffffffffffffffffff1916908160001a9053508080600101915050614910565b5050505b80915050919050565b600061498b82615854565b156149e1576040517f08c379a00000000000000000000000000000000000000000000000000000000081526004018080602001828103825260238152602001806165296023913960400191505060405180910390fd5b6015826000015114614a3e576040517f08c379a00000000000000000000000000000000000000000000000000000000081526004018080602001828103825260218152602001806166dd6021913960400191505060405180910390fd5b614a4782614504565b9050919050565b6000614a586161f6565b614a6184614294565b90506060614a6e82614339565b9050606080600086905060008090506060614a888b6147b9565b9050600081511415614aa4576000975050505050505050614d01565b60008090505b8651811015614cf8578151831115614acd57600098505050505050505050614d01565b614ae9878281518110614adc57fe5b6020026020010151614ed6565b955085805190602001208414614b0a57600098505050505050505050614d01565b614b26878281518110614b1957fe5b6020026020010151614339565b9450601185511415614bfb578151831415614b8f578c80519060200120614b6086601081518110614b5357fe5b60200260200101516146b9565b805190602001201415614b7e57600198505050505050505050614d01565b600098505050505050505050614d01565b6000828481518110614b9d57fe5b602001015160f81c60f81b60f81c905060108160ff161115614bcb5760009950505050505050505050614d01565b614bea868260ff1681518110614bdd57fe5b6020026020010151615b6f565b60001b945060018401935050614ceb565b600285511415614cd9576000614c2e614c2787600081518110614c1a57fe5b60200260200101516146b9565b8486615c56565b905082518185011415614c91578d80519060200120614c6087600181518110614c5357fe5b60200260200101516146b9565b805190602001201415614c7f5760019950505050505050505050614d01565b60009950505050505050505050614d01565b6000811415614cac5760009950505050505050505050614d01565b8084019350614cce86600181518110614cc157fe5b6020026020010151615b6f565b60001b945050614cea565b600098505050505050505050614d01565b5b8080600101915050614aaa565b50505050505050505b949350505050565b600080600080600860009054906101000a900473ffffffffffffffffffffffffffffffffffffffff1673ffffffffffffffffffffffffffffffffffffffff166341539d4a876040518263ffffffff1660e01b81526004018082815260200191505060a06040518083038186803b158015614d8257600080fd5b505afa158015614d96573d6000803e3d6000fd5b505050506040513d60a0811015614dac57600080fd5b8101908080519060200190929190805190602001909291908051906020019092919080519060200190929190805190602001909291905050505093505092509250614e54614e03838c615d6490919063ffffffff16565b84878d8d8d8d6040516020018085815260200184815260200183815260200182815260200194505050505060405160208183030381529060405280519060200120615de7909392919063ffffffff16565b614ec6576040517f08c379a00000000000000000000000000000000000000000000000000000000081526004018080602001828103825260208152602001807f526f6f74436861696e4d616e616765723a20494e56414c49445f48454144455281525060200191505060405180910390fd5b8093505050509695505050505050565b606080826000015167ffffffffffffffff81118015614ef457600080fd5b506040519080825280601f01601f191660200182016040528015614f275781602001600182028036833780820191505090505b5090506000816020019050614f458460200151828660000151615a82565b8192505050919050565b6040518060800160405280604f81526020016163ea604f91398051906020012081805190602001206040518060400160405280600181526020017f31000000000000000000000000000000000000000000000000000000000000008152508051906020012030614fbd611c7a565b60001b604051602001808681526020018581526020018481526020018373ffffffffffffffffffffffffffffffffffffffff1673ffffffffffffffffffffffffffffffffffffffff1681526020018281526020019550505050505060405160208183030381529060405280519060200120600b8190555050565b60006150468360000183615fb0565b60001c905092915050565b600073ffffffffffffffffffffffffffffffffffffffff166002600083815260200190815260200160002060009054906101000a900473ffffffffffffffffffffffffffffffffffffffff1673ffffffffffffffffffffffffffffffffffffffff16141561510a576040517f08c379a000000000000000000000000000000000000000000000000000000000815260040180806020018281038252602a8152602001806162b6602a913960400191505060405180910390fd5b81600360008573ffffffffffffffffffffffffffffffffffffffff1673ffffffffffffffffffffffffffffffffffffffff16815260200190815260200160002060006101000a81548173ffffffffffffffffffffffffffffffffffffffff021916908373ffffffffffffffffffffffffffffffffffffffff16021790555082600460008473ffffffffffffffffffffffffffffffffffffffff1673ffffffffffffffffffffffffffffffffffffffff16815260200190815260200160002060006101000a81548173ffffffffffffffffffffffffffffffffffffffff021916908373ffffffffffffffffffffffffffffffffffffffff16021790555080600560008573ffffffffffffffffffffffffffffffffffffffff1673ffffffffffffffffffffffffffffffffffffffff16815260200190815260200160002081905550808273ffffffffffffffffffffffffffffffffffffffff168473ffffffffffffffffffffffffffffffffffffffff167f9e651a8866fbea043e911d816ec254b0e3c992c06fff32d605e72362d6023bd960405160405180910390a46060838383604051602001808473ffffffffffffffffffffffffffffffffffffffff1673ffffffffffffffffffffffffffffffffffffffff1681526020018373ffffffffffffffffffffffffffffffffffffffff1673ffffffffffffffffffffffffffffffffffffffff16815260200182815260200193505050506040516020818303038152906040529050600760009054906101000a900473ffffffffffffffffffffffffffffffffffffffff1673ffffffffffffffffffffffffffffffffffffffff166316f19831600960009054906101000a900473ffffffffffffffffffffffffffffffffffffffff1660405180807f4d41505f544f4b454e000000000000000000000000000000000000000000000081525060090190506040518091039020846040516020018083815260200180602001828103825283818151815260200191508051906020019080838360005b838110156154125780820151818401526020810190506153f7565b50505050905090810190601f16801561543f5780820380516001836020036101000a031916815260200191505b5093505050506040516020818303038152906040526040518363ffffffff1660e01b8152600401808373ffffffffffffffffffffffffffffffffffffffff1673ffffffffffffffffffffffffffffffffffffffff16815260200180602001828103825283818151815260200191508051906020019080838360005b838110156154d55780820151818401526020810190506154ba565b50505050905090810190601f1680156155025780820380516001836020036101000a031916815260200191505b509350505050600060405180830381600087803b15801561552257600080fd5b505af1158015615536573d6000803e3d6000fd5b5050505050505050565b6000615568836000018373ffffffffffffffffffffffffffffffffffffffff1660001b616033565b905092915050565b806040516020018082805190602001908083835b602083106155a75780518252602082019150602081019050602083039250615584565b6001836020036101000a038019825116818451168082178552505050505050905001807f3a20494e53554646494349454e545f5045524d495353494f4e53000000000000815250601a01915050604051602081830303815290604052600a9080519060200190615618929190616210565b5050565b6000809054906101000a900460ff161561569e576040517f08c379a000000000000000000000000000000000000000000000000000000000815260040180806020018281038252600e8152602001807f616c726561647920696e6974656400000000000000000000000000000000000081525060200191505060405180910390fd5b6156a781614f4f565b60016000806101000a81548160ff02191690831515021790555050565b6156ce828261416c565b5050565b60006156e082600001616056565b9050919050565b6000604051806080016040528060438152602001616383604391398051906020012082600001518360200151846040015180519060200120604051602001808581526020018481526020018373ffffffffffffffffffffffffffffffffffffffff1673ffffffffffffffffffffffffffffffffffffffff168152602001828152602001945050505050604051602081830303815290604052805190602001209050919050565b6000615797611b53565b8260405160200180807f190100000000000000000000000000000000000000000000000000000000000081525060020183815260200182815260200192505050604051602081830303815290604052805190602001209050919050565b600061581c836000018373ffffffffffffffffffffffffffffffffffffffff1660001b616067565b905092915050565b600061584c836000018373ffffffffffffffffffffffffffffffffffffffff1660001b6160d7565b905092915050565b600080600083602001519050805160001a915060c060ff168260ff16101561588157600092505050615888565b6001925050505b919050565b6000806000905060006158a384602001516159f9565b84602001510190506000846000015185602001510190505b80821015615936576158cc82615941565b8201915080821115615929576040517f08c379a000000000000000000000000000000000000000000000000000000000815260040180806020018281038252602c8152602001806164fd602c913960400191505060405180910390fd5b82806001019350506158bb565b829350505050919050565b6000806000835160001a9050608060ff1681101561596257600191506159ef565b60b860ff1681101561597f576001608060ff1682030191506159ee565b60c060ff168110156159af5760b78103600185019450806020036101000a855104600182018101935050506159ed565b60f860ff168110156159cc57600160c060ff1682030191506159ec565b60f78103600185019450806020036101000a855104600182018101935050505b5b5b5b8192505050919050565b600080825160001a9050608060ff16811015615a19576000915050615a7d565b60b860ff16811080615a3e575060c060ff168110158015615a3d575060f860ff1681105b5b15615a4d576001915050615a7d565b60c060ff16811015615a6d5760018060b80360ff16820301915050615a7d565b60018060f80360ff168203019150505b919050565b6000811415615a9057615ae4565b5b602060ff168110615ac05782518252602060ff1683019250602060ff1682019150602060ff1681039050615a91565b6000600182602060ff16036101000a03905080198451168184511681811785525050505b505050565b60008060028481615af657fe5b0614615b325760108260028581615b0957fe5b0481518110615b1457fe5b602001015160f81c60f81b60f81c60ff1681615b2c57fe5b06615b64565b60108260028581615b3f57fe5b0481518110615b4a57fe5b602001015160f81c60f81b60f81c60ff1681615b6257fe5b045b60f81b905092915050565b600080615b7f8360200151615941565b905082600001518114615bdd576040517f08c379a000000000000000000000000000000000000000000000000000000000815260040180806020018281038252602e815260200180616659602e913960400191505060405180910390fd5b6021836000015114615c3a576040517f08c379a00000000000000000000000000000000000000000000000000000000081526004018080602001828103825260258152602001806163026025913960400191505060405180910390fd5b6000806001856020015101905080519150819350505050919050565b600080600090506060615c68866147b9565b90506060815167ffffffffffffffff81118015615c8457600080fd5b506040519080825280601f01601f191660200182016040528015615cb75781602001600182028036833780820191505090505b50905060008590505b82518601811015615d32576000878281518110615cd957fe5b602001015160f81c60f81b9050808388840381518110615cf557fe5b60200101907effffffffffffffffffffffffffffffffffffffffffffffffffffffffffffff1916908160001a905350508080600101915050615cc0565b50808051906020012082805190602001201415615d525781519250615d57565b600092505b8293505050509392505050565b600082821115615ddc576040517f08c379a000000000000000000000000000000000000000000000000000000000815260040180806020018281038252601e8152602001807f536166654d6174683a207375627472616374696f6e206f766572666c6f77000081525060200191505060405180910390fd5b818303905092915050565b6000806020835181615df557fe5b0614615e69576040517f08c379a00000000000000000000000000000000000000000000000000000000081526004018080602001828103825260148152602001807f496e76616c69642070726f6f66206c656e67746800000000000000000000000081525060200191505060405180910390fd5b60006020835181615e7657fe5b0490508060020a8510615ef1576040517f08c379a00000000000000000000000000000000000000000000000000000000081526004018080602001828103825260158152602001807f4c65616620696e64657820697320746f6f20626967000000000000000000000081525060200191505060405180910390fd5b6000808790506000602090505b85518111615f9f57808601519250600060028981615f1857fe5b061415615f555781836040516020018083815260200182815260200192505050604051602081830303815290604052805190602001209150615f87565b828260405160200180838152602001828152602001925050506040516020818303038152906040528051906020012091505b60028881615f9157fe5b049750602081019050615efe565b508581149350505050949350505050565b600081836000018054905011616011576040517f08c379a00000000000000000000000000000000000000000000000000000000081526004018080602001828103825260228152602001806162e06022913960400191505060405180910390fd5b82600001828154811061602057fe5b9060005260206000200154905092915050565b600080836001016000848152602001908152602001600020541415905092915050565b600081600001805490509050919050565b60006160738383616033565b6160cc5782600001829080600181540180825580915050600190039060005260206000200160009091909190915055826000018054905083600101600084815260200190815260200160002081905550600190506160d1565b600090505b92915050565b600080836001016000848152602001908152602001600020549050600081146161b3576000600182039050600060018660000180549050039050600086600001828154811061612257fe5b906000526020600020015490508087600001848154811061613f57fe5b906000526020600020018190555060018301876001016000838152602001908152602001600020819055508660000180548061617757fe5b600190038181906000526020600020016000905590558660010160008781526020019081526020016000206000905560019450505050506161b9565b60009150505b92915050565b604051806060016040528060008152602001600073ffffffffffffffffffffffffffffffffffffffff168152602001606081525090565b604051806040016040528060008152602001600081525090565b828054600181600116156101000203166002900490600052602060002090601f016020900481019282601f1061625157805160ff191683800117855561627f565b8280016001018555821561627f579182015b8281111561627e578251825591602001919060010190616263565b5b50905061628c9190616290565b5090565b6162b291905b808211156162ae576000816000905550600101616296565b5090565b9056fe526f6f74436861696e4d616e616765723a20544f4b454e5f545950455f4e4f545f535550504f52544544456e756d657261626c655365743a20696e646578206f7574206f6620626f756e6473524c505265616465723a20494e56414c49445f55494e545f5354524943545f4c454e475448416363657373436f6e74726f6c3a2073656e646572206d75737420626520616e2061646d696e20746f206772616e74526f6f74436861696e4d616e616765723a20494e56414c49445f4348494c445f434841494e5f414444524553534d6574615472616e73616374696f6e2875696e74323536206e6f6e63652c616464726573732066726f6d2c62797465732066756e6374696f6e5369676e617475726529526f6f74436861696e4d616e616765723a20494e56414c49445f544f4b454e5f54595045454950373132446f6d61696e28737472696e67206e616d652c737472696e672076657273696f6e2c6164647265737320766572696679696e67436f6e74726163742c627974657333322073616c7429526f6f74436861696e4d616e616765723a20494e56414c49445f4252414e43485f4d41534b526f6f74436861696e4d616e616765723a20544f4b454e5f4e4f545f4d4150504544524c505265616465723a2042595445535f4445434f4445445f4c454e4754485f4d49534d41544348416363657373436f6e74726f6c3a2073656e646572206d75737420626520616e2061646d696e20746f207265766f6b654e61746976654d6574615472616e73616374696f6e3a20494e56414c49445f5349474e4552524c505265616465723a204e554d5f4954454d535f4445434f4445445f4c454e4754485f4d49534d41544348524c505265616465723a204445434f44494e475f4c4953545f41535f41444452455353526f6f74436861696e4d616e616765723a204241445f4e45575f434845434b504f494e545f4d414e41474552526f6f74436861696e4d616e616765723a2045544845525f5452414e534645525f4641494c45445369676e657220616e64207369676e617475726520646f206e6f74206d61746368526f6f74436861696e4d616e616765723a204241445f4e45575f53544154455f53454e444552526f6f74436861696e4d616e616765723a20494e56414c49445f524f4f545f544f4b454e526f6f74436861696e4d616e616765723a20455849545f414c52454144595f50524f434553534544524c505265616465723a204c4953545f4445434f4445445f4c454e4754485f4d49534d41544348524c505265616465723a2055494e545f5354524943545f4445434f4445445f4c454e4754485f4d49534d41544348416363657373436f6e74726f6c3a2063616e206f6e6c792072656e6f756e636520726f6c657320666f722073656c66524c505265616465723a2055494e545f4445434f4445445f4c454e4754485f4d49534d41544348524c505265616465723a20494e56414c49445f414444524553535f4c454e475448a2646970667358221220dfb5e7d0d94c5b76555230edad456a074c02053850b18d0dfa733fe0d471a34e64736f6c63430006060033",
  "linkReferences": {},
  "deployedLinkReferences": {}
}