{"abi":[{"type":"function","name":"headerBlocks","inputs":[{"name":"","type":"uint256","internalType":"uint256"}],"outputs":[{"name":"root","type":"bytes32","internalType":"bytes32"},{"name":"start","type":"uint256","internalType":"uint256"},{"name":"end","type":"uint256","internalType":"uint256"},{"name":"createdAt","type":"uint256","internalType":"uint256"},{"name":"proposer","type":"address","internalType":"address"}],"stateMutability":"view"}],"bytecode":{"object":"0x608060405234801561001057600080fd5b5060e98061001f6000396000f3fe6080604052348015600f57600080fd5b506004361060285760003560e01c806341539d4a14602d575b600080fd5b604760048036036020811015604157600080fd5b5035607b565b6040805195865260208601949094528484019290925260608401526001600160a01b03166080830152519081900360a00190f35b60006020819052908152604090208054600182015460028301546003840154600490940154929391929091906001600160a01b03168556fea264697066735822122022e864c1fb045cea9dbdac8084fe52f0921cd7fb258c7ac69bf7145849a3196d64736f6c63430006060033","linkReferences":{}},"methodIdentifiers":{"headerBlocks(uint256)":"41539d4a"},"id":30}