{"abi":[{"type":"constructor","inputs":[{"name":"name_","type":"string","internalType":"string"},{"name":"symbol_","type":"string","internalType":"string"},{"name":"childChainManager","type":"address","internalType":"address"}],"stateMutability":"nonpayable"},{"type":"function","name":"BATCH_LIMIT","inputs":[],"outputs":[{"name":"","type":"uint256","internalType":"uint256"}],"stateMutability":"view"},{"type":"function","name":"DEFAULT_ADMIN_ROLE","inputs":[],"outputs":[{"name":"","type":"bytes32","internalType":"bytes32"}],"stateMutability":"view"},{"type":"function","name":"DEPOSITOR_ROLE","inputs":[],"outputs":[{"name":"","type":"bytes32","internalType":"bytes32"}],"stateMutability":"view"},{"type":"function","name":"ERC712_VERSION","inputs":[],"outputs":[{"name":"","type":"string","internalType":"string"}],"stateMutability":"view"},{"type":"function","name":"approve","inputs":[{"name":"to","type":"address","internalType":"address"},{"name":"tokenId","type":"uint256","internalType":"uint256"}],"outputs":[],"stateMutability":"nonpayable"},{"type":"function","name":"balanceOf","inputs":[{"name":"owner","type":"address","internalType":"address"}],"outputs":[{"name":"","type":"uint256","internalType":"uint256"}],"stateMutability":"view"},{"type":"function","name":"baseURI","inputs":[],"outputs":[{"name":"","type":"string","internalType":"string"}],"stateMutability":"view"},{"type":"function","name":"deposit","inputs":[{"name":"user","type":"address","internalType":"address"},{"name":"depositData","type":"bytes","internalType":"bytes"}],"outputs":[],"stateMutability":"nonpayable"},{"type":"function","name":"executeMetaTransaction","inputs":[{"name":"userAddress","type":"address","internalType":"address"},{"name":"functionSignature","type":"bytes","internalType":"bytes"},{"name":"sigR","type":"bytes32","internalType":"bytes32"},{"name":"sigS","type":"bytes32","internalType":"bytes32"},{"name":"sigV","type":"uint8","internalType":"uint8"}],"outputs":[{"name":"","type":"bytes","internalType":"bytes"}],"stateMutability":"payable"},{"type":"function","name":"getApproved","inputs":[{"name":"tokenId","type":"uint256","internalType":"uint256"}],"outputs":[{"name":"","type":"address","internalType":"address"}],"stateMutability":"view"},{"type":"function","name":"getChainId","inputs":[],"outputs":[{"name":"","type":"uint256","internalType":"uint256"}],"stateMutability":"pure"},{"type":"function","name":"getDomainSeperator","inputs":[],"outputs":[{"name":"","type":"bytes32","internalType":"bytes32"}],"stateMutability":"view"},{"type":"function","name":"getNonce","inputs":[{"name":"user","type":"address","internalType":"address"}],"outputs":[{"name":"nonce","type":"uint256","internalType":"uint256"}],"stateMutability":"view"},{"type":"function","name":"getRoleAdmin","inputs":[{"name":"role","type":"bytes32","internalType":"bytes32"}],"outputs":[{"name":"","type":"bytes32","internalType":"bytes32"}],"stateMutability":"view"},{"type":"function","name":"getRoleMember","inputs":[{"name":"role","type":"bytes32","internalType":"bytes32"},{"name":"index","type":"uint256","internalType":"uint256"}],"outputs":[{"name":"","type":"address","internalType":"address"}],"stateMutability":"view"},{"type":"function","name":"getRoleMemberCount","inputs":[{"name":"role","type":"bytes32","internalType":"bytes32"}],"outputs":[{"name":"","type":"uint256","internalType":"uint256"}],"stateMutability":"view"},{"type":"function","name":"grantRole","inputs":[{"name":"role","type":"bytes32","internalType":"bytes32"},{"name":"account","type":"address","internalType":"address"}],"outputs":[],"stateMutability":"nonpayable"},{"type":"function","name":"hasRole","inputs":[{"name":"role","type":"bytes32","internalType":"bytes32"},{"name":"account","type":"address","internalType":"address"}],"outputs":[{"name":"","type":"bool","internalType":"bool"}],"stateMutability":"view"},{"type":"function","name":"isApprovedForAll","inputs":[{"name":"owner","type":"address","internalType":"address"},{"name":"operator","type":"address","internalType":"address"}],"outputs":[{"name":"","type":"bool","internalType":"bool"}],"stateMutability":"view"},{"type":"function","name":"name","inputs":[],"outputs":[{"name":"","type":"string","internalType":"string"}],"stateMutability":"view"},{"type":"function","name":"ownerOf","inputs":[{"name":"tokenId","type":"uint256","internalType":"uint256"}],"outputs":[{"name":"","type":"address","internalType":"address"}],"stateMutability":"view"},{"type":"function","name":"renounceRole","inputs":[{"name":"role","type":"bytes32","internalType":"bytes32"},{"name":"account","type":"address","internalType":"address"}],"outputs":[],"stateMutability":"nonpayable"},{"type":"function","name":"revokeRole","inputs":[{"name":"role","type":"bytes32","internalType":"bytes32"},{"name":"account","type":"address","internalType":"address"}],"outputs":[],"stateMutability":"nonpayable"},{"type":"function","name":"safeTransferFrom","inputs":[{"name":"from","type":"address","internalType":"address"},{"name":"to","type":"address","internalType":"address"},{"name":"tokenId","type":"uint256","internalType":"uint256"}],"outputs":[],"stateMutability":"nonpayable"},{"type":"function","name":"safeTransferFrom","inputs":[{"name":"from","type":"address","internalType":"address"},{"name":"to","type":"address","internalType":"address"},{"name":"tokenId","type":"uint256","internalType":"uint256"},{"name":"_data","type":"bytes","internalType":"bytes"}],"outputs":[],"stateMutability":"nonpayable"},{"type":"function","name":"setApprovalForAll","inputs":[{"name":"operator","type":"address","internalType":"address"},{"name":"approved","type":"bool","internalType":"bool"}],"outputs":[],"stateMutability":"nonpayable"},{"type":"function","name":"supportsInterface","inputs":[{"name":"interfaceId","type":"bytes4","internalType":"bytes4"}],"outputs":[{"name":"","type":"bool","internalType":"bool"}],"stateMutability":"view"},{"type":"function","name":"symbol","inputs":[],"outputs":[{"name":"","type":"string","internalType":"string"}],"stateMutability":"view"},{"type":"function","name":"tokenByIndex","inputs":[{"name":"index","type":"uint256","internalType":"uint256"}],"outputs":[{"name":"","type":"uint256","internalType":"uint256"}],"stateMutability":"view"},{"type":"function","name":"tokenOfOwnerByIndex","inputs":[{"name":"owner","type":"address","internalType":"address"},{"name":"index","type":"uint256","internalType":"uint256"}],"outputs":[{"name":"","type":"uint256","internalType":"uint256"}],"stateMutability":"view"},{"type":"function","name":"tokenURI","inputs":[{"name":"tokenId","type":"uint256","internalType":"uint256"}],"outputs":[{"name":"","type":"string","internalType":"string"}],"stateMutability":"view"},{"type":"function","name":"totalSupply","inputs":[],"outputs":[{"name":"","type":"uint256","internalType":"uint256"}],"stateMutability":"view"},{"type":"function","name":"transferFrom","inputs":[{"name":"from","type":"address","internalType":"address"},{"name":"to","type":"address","internalType":"address"},{"name":"tokenId","type":"uint256","internalType":"uint256"}],"outputs":[],"stateMutability":"nonpayable"},{"type":"function","name":"withdraw","inputs":[{"name":"tokenId","type":"uint256","internalType":"uint256"}],"outputs":[],"stateMutability":"nonpayable"},{"type":"function","name":"withdrawBatch","inputs":[{"name":"tokenIds","type":"uint256[]","internalType":"uint256[]"}],"outputs":[],"stateMutability":"nonpayable"},{"type":"event","name":"Approval","inputs":[{"name":"owner","type":"address","indexed":true,"internalType":"address"},{"name":"approved","type":"address","indexed":true,"internalType":"address"},{"name":"tokenId","type":"uint256","indexed":true,"internalType":"uint256"}],"anonymous":false},{"type":"event","name":"ApprovalForAll","inputs":[{"name":"owner","type":"address","indexed":true,"internalType":"address"},{"name":"operator","type":"address","indexed":true,"internalType":"address"},{"name":"approved","type":"bool","indexed":false,"internalType":"bool"}],"anonymous":false},{"type":"event","name":"MetaTransactionExecuted","inputs":[{"name":"userAddress","type":"address","indexed":true,"internalType":"address"},{"name":"relayerAddress","type":"address","indexed":true,"internalType":"address payable"},{"name":"functionSignature","type":"bytes","indexed":false,"internalType":"bytes"}],"anonymous":false},{"type":"event","name":"RoleAdminChanged","inputs":[{"name":"role","type":"bytes32","indexed":true,"internalType":"bytes32"},{"name":"previousAdminRole","type":"bytes32","indexed":true,"internalType":"bytes32"},{"name":"newAdminRole","type":"bytes32","indexed":true,"internalType":"bytes32"}],"anonymous":false},{"type":"event","name":"RoleGranted","inputs":[{"name":"role","type":"bytes32","indexed":true,"internalType":"bytes32"},{"name":"account","type":"address","indexed":true,"internalType":"address"},{"name":"sender","type":"address","indexed":true,"internalType":"address"}],"anonymous":false},{"type":"event","name":"RoleRevoked","inputs":[{"name":"role","type":"bytes32","indexed":true,"internalType":"bytes32"},{"name":"account","type":"address","indexed":true,"internalType":"address"},{"name":"sender","type":"address","indexed":true,"internalType":"address"}],"anonymous":false},{"type":"event","name":"Transfer","inputs":[{"name":"from","type":"address","indexed":true,"internalType":"address"},{"name":"to","type":"address","indexed":true,"internalType":"address"},{"name":"tokenId","type":"uint256","indexed":true,"internalType":"uint256"}],"anonymous":false},{"type":"event","name":"WithdrawnBatch","inputs":[{"name":"user","type":"address","indexed":true,"internalType":"address"},{"name":"tokenIds","type":"uint256[]","indexed":false,"internalType":"uint256[]"}],"anonymous":false}],"bytecode":{"object":"0x6080604052600c805460ff191690553480156200001b57600080fd5b506040516200383438038062003834833981810160405260608110156200004157600080fd5b81019080805160405193929190846401000000008211156200006257600080fd5b9083019060208201858111156200007857600080fd5b82516401000000008111828201881017156200009357600080fd5b82525081516020918201929091019080838360005b83811015620000c2578181015183820152602001620000a8565b50505050905090810190601f168015620000f05780820380516001836020036101000a031916815260200191505b50604052602001805160405193929190846401000000008211156200011457600080fd5b9083019060208201858111156200012a57600080fd5b82516401000000008111828201881017156200014557600080fd5b82525081516020918201929091019080838360005b83811015620001745781810151838201526020016200015a565b50505050905090810190601f168015620001a25780820380516001836020036101000a031916815260200191505b5060405260200151915083905082620001cb6301ffc9a760e01b6001600160e01b03620002fd16565b8151620001e090600690602085019062000710565b508051620001f690600790602084019062000710565b50620002126380ac58cd60e01b6001600160e01b03620002fd16565b6200022d635b5e139f60e01b6001600160e01b03620002fd16565b6200024863780e9d6360e01b6001600160e01b03620002fd16565b505060408051808201909152600b81526a4368696c6445524337323160a81b602082015262000280906001600160e01b036200038216565b620002a86000620002996001600160e01b036200042816565b6001600160e01b036200044516565b604080516d4445504f5349544f525f524f4c4560901b8152905190819003600e019020620002e090826001600160e01b036200044516565b620002f4836001600160e01b036200045a16565b505050620007b2565b6001600160e01b031980821614156200035d576040805162461bcd60e51b815260206004820152601c60248201527f4552433136353a20696e76616c696420696e7465726661636520696400000000604482015290519081900360640190fd5b6001600160e01b0319166000908152602081905260409020805460ff19166001179055565b806040516020018082805190602001908083835b60208310620003b75780518252601f19909201916020918201910162000396565b51815160209384036101000a60001901801990921691161790527f3a20494e53554646494349454e545f5045524d495353494f4e530000000000009190930190815260408051808303600519018152601a90920190528051620004249550600b9450920191905062000710565b5050565b60006200043f620004c860201b6200233f1760201c565b90505b90565b6200042482826001600160e01b036200052716565b600c5460ff1615620004a4576040805162461bcd60e51b815260206004820152600e60248201526d185b1c9958591e481a5b9a5d195960921b604482015290519081900360640190fd5b620004b8816001600160e01b03620005ab16565b50600c805460ff19166001179055565b600033301415620005225760606000368080601f0160208091040260200160405190810160405280939291908181526020018383808284376000920191909152505050503601516001600160a01b03169150620004429050565b503390565b6000828152600a602090815260409091206200054e918390620024b262000673821b17901c565b156200042457620005676001600160e01b036200042816565b6001600160a01b0316816001600160a01b0316837f2f8788117e7eff1d82e926ec794901d17c78024a50270940304540a733656f0d60405160405180910390a45050565b6040518060800160405280604f8152602001620037e5604f913980516020918201208251838301206040805180820190915260018152603160f81b930192909252907fc89efdaa54c0f20c7adf612882df0950f5a951637e0307cdcb4c672f298b8bc630620006226001600160e01b036200069c16565b604080516020808201979097528082019590955260608501939093526001600160a01b03909116608084015260a0808401919091528151808403909101815260c090920190528051910120600d5550565b600062000693836001600160a01b0384166001600160e01b03620006a016565b90505b92915050565b4690565b6000620006b783836001600160e01b03620006f816565b620006ef5750815460018181018455600084815260208082209093018490558454848252828601909352604090209190915562000696565b50600062000696565b60009081526001919091016020526040902054151590565b828054600181600116156101000203166002900490600052602060002090601f016020900481019282601f106200075357805160ff191683800117855562000783565b8280016001018555821562000783579182015b828111156200078357825182559160200191906001019062000766565b506200079192915062000795565b5090565b6200044291905b808211156200079157600081556001016200079c565b61302380620007c26000396000f3fe6080604052600436106102045760003560e01c80634f6ccce711610118578063a217fddf116100a0578063c87b56dd1161006f578063c87b56dd146108e7578063ca15c87314610911578063cf2c52cb1461093b578063d547741f146109c6578063e985e9c5146109ff57610204565b8063a217fddf146107b1578063a22cb465146107c6578063a3b0b5a314610801578063b88d4fde1461081657610204565b80639010d07c116100e75780639010d07c146106a357806391d14854146106d35780639559c0bd1461070c57806395d89b41146107215780639c8d41561461073657610204565b80634f6ccce7146106075780636352211e146106315780636c0360eb1461065b57806370a082311461067057610204565b806323b872dd1161019b5780632f2ff15d1161016a5780632f2ff15d146105045780632f745c591461053d5780633408e4701461057657806336568abe1461058b57806342842e0e146105c457610204565b806323b872dd1461043a578063248a9ca31461047d5780632d0335ab146104a75780632e1a7d4d146104da57610204565b80630c53c51c116101d75780630c53c51c1461035c5780630f7e5970146103e957806318160ddd146103fe57806320379ee51461042557610204565b806301ffc9a71461020957806306fdde0314610251578063081812fc146102db578063095ea7b314610321575b600080fd5b34801561021557600080fd5b5061023d6004803603602081101561022c57600080fd5b50356001600160e01b031916610a3a565b604080519115158252519081900360200190f35b34801561025d57600080fd5b50610266610a5d565b6040805160208082528351818301528351919283929083019185019080838360005b838110156102a0578181015183820152602001610288565b50505050905090810190601f1680156102cd5780820380516001836020036101000a031916815260200191505b509250505060405180910390f35b3480156102e757600080fd5b50610305600480360360208110156102fe57600080fd5b5035610af4565b604080516001600160a01b039092168252519081900360200190f35b34801561032d57600080fd5b5061035a6004803603604081101561034457600080fd5b506001600160a01b038135169060200135610b56565b005b610266600480360360a081101561037257600080fd5b6001600160a01b038235169190810190604081016020820135600160201b81111561039c57600080fd5b8201836020820111156103ae57600080fd5b803590602001918460018302840111600160201b831117156103cf57600080fd5b91935091508035906020810135906040013560ff16610c31565b3480156103f557600080fd5b50610266610eba565b34801561040a57600080fd5b50610413610ed7565b60408051918252519081900360200190f35b34801561043157600080fd5b50610413610ee8565b34801561044657600080fd5b5061035a6004803603606081101561045d57600080fd5b506001600160a01b03813581169160208101359091169060400135610eee565b34801561048957600080fd5b50610413600480360360208110156104a057600080fd5b5035610f45565b3480156104b357600080fd5b50610413600480360360208110156104ca57600080fd5b50356001600160a01b0316610f5a565b3480156104e657600080fd5b5061035a600480360360208110156104fd57600080fd5b5035610f75565b34801561051057600080fd5b5061035a6004803603604081101561052757600080fd5b50803590602001356001600160a01b0316610ff6565b34801561054957600080fd5b506104136004803603604081101561056057600080fd5b506001600160a01b038135169060200135611062565b34801561058257600080fd5b50610413611093565b34801561059757600080fd5b5061035a600480360360408110156105ae57600080fd5b50803590602001356001600160a01b0316611097565b3480156105d057600080fd5b5061035a600480360360608110156105e757600080fd5b506001600160a01b038135811691602081013590911690604001356110f8565b34801561061357600080fd5b506104136004803603602081101561062a57600080fd5b5035611113565b34801561063d57600080fd5b506103056004803603602081101561065457600080fd5b503561112f565b34801561066757600080fd5b5061026661115d565b34801561067c57600080fd5b506104136004803603602081101561069357600080fd5b50356001600160a01b03166111be565b3480156106af57600080fd5b50610305600480360360408110156106c657600080fd5b5080359060200135611226565b3480156106df57600080fd5b5061023d600480360360408110156106f657600080fd5b50803590602001356001600160a01b0316611244565b34801561071857600080fd5b50610413611262565b34801561072d57600080fd5b50610266611267565b34801561074257600080fd5b5061035a6004803603602081101561075957600080fd5b810190602081018135600160201b81111561077357600080fd5b82018360208201111561078557600080fd5b803590602001918460208302840111600160201b831117156107a657600080fd5b5090925090506112c8565b3480156107bd57600080fd5b506104136114a6565b3480156107d257600080fd5b5061035a600480360360408110156107e957600080fd5b506001600160a01b03813516906020013515156114ab565b34801561080d57600080fd5b506104136115b0565b34801561082257600080fd5b5061035a6004803603608081101561083957600080fd5b6001600160a01b03823581169260208101359091169160408201359190810190608081016060820135600160201b81111561087357600080fd5b82018360208201111561088557600080fd5b803590602001918460018302840111600160201b831117156108a657600080fd5b91908080601f0160208091040260200160405190810160405280939291908181526020018383808284376000920191909152509295506115d6945050505050565b3480156108f357600080fd5b506102666004803603602081101561090a57600080fd5b5035611634565b34801561091d57600080fd5b506104136004803603602081101561093457600080fd5b50356118db565b34801561094757600080fd5b5061035a6004803603604081101561095e57600080fd5b6001600160a01b038235169190810190604081016020820135600160201b81111561098857600080fd5b82018360208201111561099a57600080fd5b803590602001918460018302840111600160201b831117156109bb57600080fd5b5090925090506118f2565b3480156109d257600080fd5b5061035a600480360360408110156109e957600080fd5b50803590602001356001600160a01b0316611ac5565b348015610a0b57600080fd5b5061023d60048036036040811015610a2257600080fd5b506001600160a01b0381358116916020013516611b1e565b6001600160e01b0319811660009081526020819052604090205460ff165b919050565b60068054604080516020601f6002600019610100600188161502019095169490940493840181900481028201810190925282815260609390929091830182828015610ae95780601f10610abe57610100808354040283529160200191610ae9565b820191906000526020600020905b815481529060010190602001808311610acc57829003601f168201915b505050505090505b90565b6000610aff82611b4c565b610b3a5760405162461bcd60e51b815260040180806020018281038252602c815260200180612ec8602c913960400191505060405180910390fd5b506000908152600460205260409020546001600160a01b031690565b6000610b618261112f565b9050806001600160a01b0316836001600160a01b03161415610bb45760405162461bcd60e51b8152600401808060200182810382526021815260200180612f6d6021913960400191505060405180910390fd5b806001600160a01b0316610bc6611b5f565b6001600160a01b03161480610be75750610be781610be2611b5f565b611b1e565b610c225760405162461bcd60e51b8152600401808060200182810382526038815260200180612e1b6038913960400191505060405180910390fd5b610c2c8383611b69565b505050565b6060610c3b612c0b565b604080516060810182526001600160a01b038a166000818152600e602090815290849020548352808301919091528251601f8a0182900482028101820184528981529192830191908a908a908190840183828082843760009201919091525050509152509050610cae8882878787611bd7565b610ce95760405162461bcd60e51b8152600401808060200182810382526021815260200180612f1d6021913960400191505060405180910390fd5b6001600160a01b0388166000818152600e60209081526040918290208054600101905581518181529081018990523392917f5845892132946850460bff5a0083f71031bc5bf9aadcd40f1de79423eac9b10b918b918b919081908101848480828437600083820152604051601f909101601f19169092018290039550909350505050a360006060306001600160a01b031689898c6040516020018084848082843780830192505050826001600160a01b03166001600160a01b031660601b815260140193505050506040516020818303038152906040526040518082805190602001908083835b60208310610def5780518252601f199092019160209182019101610dd0565b6001836020036101000a0380198251168184511680821785525050505050509050019150506000604051808303816000865af19150503d8060008114610e51576040519150601f19603f3d011682016040523d82523d6000602084013e610e56565b606091505b509150915081610ead576040805162461bcd60e51b815260206004820152601c60248201527f46756e6374696f6e2063616c6c206e6f74207375636365737366756c00000000604482015290519081900360640190fd5b9998505050505050505050565b604051806040016040528060018152602001603160f81b81525081565b6000610ee36002611cb4565b905090565b600d5490565b610eff610ef9611b5f565b82611cbf565b610f3a5760405162461bcd60e51b8152600401808060200182810382526031815260200180612f8e6031913960400191505060405180910390fd5b610c2c838383611d63565b6000908152600a602052604090206002015490565b6001600160a01b03166000908152600e602052604090205490565b610f7e8161112f565b6001600160a01b0316610f8f611b5f565b6001600160a01b031614610fea576040805162461bcd60e51b815260206004820181905260248201527f4368696c644552433732313a20494e56414c49445f544f4b454e5f4f574e4552604482015290519081900360640190fd5b610ff381611ec1565b50565b6000828152600a602052604090206002015461101990611014611b5f565b611244565b6110545760405162461bcd60e51b815260040180806020018281038252602f815260200180612cb1602f913960400191505060405180910390fd5b61105e8282611f9a565b5050565b6001600160a01b038216600090815260016020526040812061108a908363ffffffff61200916565b90505b92915050565b4690565b61109f611b5f565b6001600160a01b0316816001600160a01b0316146110ee5760405162461bcd60e51b815260040180806020018281038252602f815260200180612fbf602f913960400191505060405180910390fd5b61105e8282612015565b610c2c838383604051806020016040528060008152506115d6565b60008061112760028463ffffffff61208416565b509392505050565b600061108d82604051806060016040528060298152602001612e7d602991396002919063ffffffff6120a016565b60098054604080516020601f6002600019610100600188161502019095169490940493840181900481028201810190925282815260609390929091830182828015610ae95780601f10610abe57610100808354040283529160200191610ae9565b60006001600160a01b0382166112055760405162461bcd60e51b815260040180806020018281038252602a815260200180612e53602a913960400191505060405180910390fd5b6001600160a01b038216600090815260016020526040902061108d90611cb4565b6000828152600a6020526040812061108a908363ffffffff61200916565b6000828152600a6020526040812061108a908363ffffffff6120b716565b601481565b60078054604080516020601f6002600019610100600188161502019095169490940493840181900481028201810190925282815260609390929091830182828015610ae95780601f10610abe57610100808354040283529160200191610ae9565b80601481111561131f576040805162461bcd60e51b815260206004820181905260248201527f4368696c644552433732313a20455843454544535f42415443485f4c494d4954604482015290519081900360640190fd5b60005b8181101561142c57600084848381811061133857fe5b90506020020135905061134a8161112f565b6001600160a01b031661135b611b5f565b6001600160a01b031614816040516020018080612dd560219139602101828152602001915050604051602081830303815290604052906114195760405162461bcd60e51b81526004018080602001828103825283818151815260200191508051906020019080838360005b838110156113de5781810151838201526020016113c6565b50505050905090810190601f16801561140b5780820380516001836020036101000a031916815260200191505b509250505060405180910390fd5b5061142381611ec1565b50600101611322565b50611435611b5f565b6001600160a01b03167ff871896b17e9cb7a64941c62c188a4f5c621b86800e3d15452ece01ce56073df848460405180806020018281038252848482818152602001925060200280828437600083820152604051601f909101601f19169092018290039550909350505050a2505050565b600081565b6114b3611b5f565b6001600160a01b0316826001600160a01b03161415611519576040805162461bcd60e51b815260206004820152601960248201527f4552433732313a20617070726f766520746f2063616c6c657200000000000000604482015290519081900360640190fd5b8060056000611526611b5f565b6001600160a01b03908116825260208083019390935260409182016000908120918716808252919093529120805460ff19169215159290921790915561156a611b5f565b60408051841515815290516001600160a01b0392909216917f17307eab39ab6107e8899845ad3d59bd9653f200f220920489ca2b5937696c319181900360200190a35050565b604080516d4445504f5349544f525f524f4c4560901b8152905190819003600e01902081565b6115e76115e1611b5f565b83611cbf565b6116225760405162461bcd60e51b8152600401808060200182810382526031815260200180612f8e6031913960400191505060405180910390fd5b61162e848484846120cc565b50505050565b606061163f82611b4c565b61167a5760405162461bcd60e51b815260040180806020018281038252602f815260200180612f3e602f913960400191505060405180910390fd5b60008281526008602090815260409182902080548351601f600260001961010060018616150201909316929092049182018490048402810184019094528084526060939283018282801561170f5780601f106116e45761010080835404028352916020019161170f565b820191906000526020600020905b8154815290600101906020018083116116f257829003601f168201915b505060095493945050505060026000196101006001841615020190911604611738579050610a58565b8051156118095760098160405160200180838054600181600116156101000203166002900480156117a05780601f1061177e5761010080835404028352918201916117a0565b820191906000526020600020905b81548152906001019060200180831161178c575b5050825160208401908083835b602083106117cc5780518252601f1990920191602091820191016117ad565b6001836020036101000a03801982511681845116808217855250505050505090500192505050604051602081830303815290604052915050610a58565b60096118148461211e565b60405160200180838054600181600116156101000203166002900480156118725780601f10611850576101008083540402835291820191611872565b820191906000526020600020905b81548152906001019060200180831161185e575b5050825160208401908083835b6020831061189e5780518252601f19909201916020918201910161187f565b6001836020036101000a03801982511681845116808217855250505050505090500192505050604051602081830303815290604052915050919050565b6000818152600a6020526040812061108d90611cb4565b604080516d4445504f5349544f525f524f4c4560901b8152905190819003600e01902061192181611014611b5f565b600b906119c15760405162461bcd60e51b81526020600482019081528254600260001961010060018416150201909116046024830181905290918291604490910190849080156119b25780601f10611987576101008083540402835291602001916119b2565b820191906000526020600020905b81548152906001019060200180831161199557829003601f168201915b50509250505060405180910390fd5b5060208214156119f1576000838360208110156119dd57600080fd5b503590506119eb85826121f9565b5061162e565b606083836020811015611a0357600080fd5b810190602081018135600160201b811115611a1d57600080fd5b820183602082011115611a2f57600080fd5b803590602001918460208302840111600160201b83111715611a5057600080fd5b91908080602002602001604051908101604052809392919081815260200183836020028082843760009201829052508451949850939650929450505050505b81811015611abc57611ab487848381518110611aa757fe5b60200260200101516121f9565b600101611a8f565b50505050505050565b6000828152600a6020526040902060020154611ae390611014611b5f565b6110ee5760405162461bcd60e51b8152600401808060200182810382526030815260200180612da56030913960400191505060405180910390fd5b6001600160a01b03918216600090815260056020908152604080832093909416825291909152205460ff1690565b600061108d60028363ffffffff61233316565b6000610ee361233f565b600081815260046020526040902080546001600160a01b0319166001600160a01b0384169081179091558190611b9e8261112f565b6001600160a01b03167f8c5be1e5ebec7d5bd14f71427d1e84f3dd0314c0f7b2291e5b200ac8c7c3b92560405160405180910390a45050565b60006001600160a01b038616611c1e5760405162461bcd60e51b8152600401808060200182810382526025815260200180612df66025913960400191505060405180910390fd5b6001611c31611c2c8761239c565b612428565b83868660405160008152602001604052604051808581526020018460ff1660ff1681526020018381526020018281526020019450505050506020604051602081039080840390855afa158015611c8b573d6000803e3d6000fd5b505050602060405103516001600160a01b0316866001600160a01b031614905095945050505050565b600061108d82612474565b6000611cca82611b4c565b611d055760405162461bcd60e51b815260040180806020018281038252602c815260200180612d79602c913960400191505060405180910390fd5b6000611d108361112f565b9050806001600160a01b0316846001600160a01b03161480611d4b5750836001600160a01b0316611d4084610af4565b6001600160a01b0316145b80611d5b5750611d5b8185611b1e565b949350505050565b826001600160a01b0316611d768261112f565b6001600160a01b031614611dbb5760405162461bcd60e51b8152600401808060200182810382526029815260200180612ef46029913960400191505060405180910390fd5b6001600160a01b038216611e005760405162461bcd60e51b8152600401808060200182810382526024815260200180612d556024913960400191505060405180910390fd5b611e0b838383610c2c565b611e16600082611b69565b6001600160a01b0383166000908152600160205260409020611e3e908263ffffffff61247816565b506001600160a01b0382166000908152600160205260409020611e67908263ffffffff61248416565b50611e7a6002828463ffffffff61249016565b5080826001600160a01b0316846001600160a01b03167fddf252ad1be2c89b69c2b068fc378daa952ba7f163c4a11628f55a4df523b3ef60405160405180910390a4505050565b6000611ecc8261112f565b9050611eda81600084610c2c565b611ee5600083611b69565b6000828152600860205260409020546002600019610100600184161502019091160415611f23576000828152600860205260408120611f2391612c35565b6001600160a01b0381166000908152600160205260409020611f4b908363ffffffff61247816565b50611f5d60028363ffffffff6124a616565b5060405182906000906001600160a01b038416907fddf252ad1be2c89b69c2b068fc378daa952ba7f163c4a11628f55a4df523b3ef908390a45050565b6000828152600a60205260409020611fb8908263ffffffff6124b216565b1561105e57611fc5611b5f565b6001600160a01b0316816001600160a01b0316837f2f8788117e7eff1d82e926ec794901d17c78024a50270940304540a733656f0d60405160405180910390a45050565b600061108a83836124c7565b6000828152600a60205260409020612033908263ffffffff61252b16565b1561105e57612040611b5f565b6001600160a01b0316816001600160a01b0316837ff6391f5c32d9c69d2a47ea670b442974b53935d1edc7fd64eb21e047a839171b60405160405180910390a45050565b60008080806120938686612540565b9097909650945050505050565b60006120ad8484846125bb565b90505b9392505050565b600061108a836001600160a01b038416612648565b6120d7848484611d63565b6120e384848484612660565b61162e5760405162461bcd60e51b8152600401808060200182810382526032815260200180612ce06032913960400191505060405180910390fd5b60608161214357506040805180820190915260018152600360fc1b6020820152610a58565b8160005b811561215b57600101600a82049150612147565b60608167ffffffffffffffff8111801561217457600080fd5b506040519080825280601f01601f19166020018201604052801561219f576020820181803683370190505b50859350905060001982015b83156121f057600a840660300160f81b828280600190039350815181106121ce57fe5b60200101906001600160f81b031916908160001a905350600a840493506121ab565b50949350505050565b6001600160a01b038216612254576040805162461bcd60e51b815260206004820181905260248201527f4552433732313a206d696e7420746f20746865207a65726f2061646472657373604482015290519081900360640190fd5b61225d81611b4c565b156122af576040805162461bcd60e51b815260206004820152601c60248201527f4552433732313a20746f6b656e20616c7265616479206d696e74656400000000604482015290519081900360640190fd5b6122bb60008383610c2c565b6001600160a01b03821660009081526001602052604090206122e3908263ffffffff61248416565b506122f66002828463ffffffff61249016565b5060405181906001600160a01b038416906000907fddf252ad1be2c89b69c2b068fc378daa952ba7f163c4a11628f55a4df523b3ef908290a45050565b600061108a8383612648565b6000333014156123975760606000368080601f0160208091040260200160405190810160405280939291908181526020018383808284376000920191909152505050503601516001600160a01b03169150610af19050565b503390565b6000604051806080016040528060438152602001612d1260439139805190602001208260000151836020015184604001518051906020012060405160200180858152602001848152602001836001600160a01b03166001600160a01b03168152602001828152602001945050505050604051602081830303815290604052805190602001209050919050565b6000612432610ee8565b82604051602001808061190160f01b81525060020183815260200182815260200192505050604051602081830303815290604052805190602001209050919050565b5490565b600061108a83836127e0565b600061108a83836128a6565b60006120ad84846001600160a01b0385166128f0565b600061108a8383612987565b600061108a836001600160a01b0384166128a6565b815460009082106125095760405162461bcd60e51b8152600401808060200182810382526022815260200180612c8f6022913960400191505060405180910390fd5b82600001828154811061251857fe5b9060005260206000200154905092915050565b600061108a836001600160a01b0384166127e0565b8154600090819083106125845760405162461bcd60e51b8152600401808060200182810382526022815260200180612ea66022913960400191505060405180910390fd5b600084600001848154811061259557fe5b906000526020600020906002020190508060000154816001015492509250509250929050565b600082815260018401602052604081205482816126195760405162461bcd60e51b81526020600482018181528351602484015283519092839260449091019190850190808383600083156113de5781810151838201526020016113c6565b5084600001600182038154811061262c57fe5b9060005260206000209060020201600101549150509392505050565b60009081526001919091016020526040902054151590565b6000612674846001600160a01b0316612a5b565b61268057506001611d5b565b60606127a6630a85bd0160e11b612695611b5f565b88878760405160240180856001600160a01b03166001600160a01b03168152602001846001600160a01b03166001600160a01b0316815260200183815260200180602001828103825283818151815260200191508051906020019080838360005b8381101561270e5781810151838201526020016126f6565b50505050905090810190601f16801561273b5780820380516001836020036101000a031916815260200191505b5095505050505050604051602081830303815290604052906001600160e01b0319166020820180516001600160e01b038381831617835250505050604051806060016040528060328152602001612ce0603291396001600160a01b038816919063ffffffff612a9416565b905060008180602001905160208110156127bf57600080fd5b50516001600160e01b031916630a85bd0160e11b1492505050949350505050565b6000818152600183016020526040812054801561289c578354600019808301919081019060009087908390811061281357fe5b906000526020600020015490508087600001848154811061283057fe5b60009182526020808320909101929092558281526001898101909252604090209084019055865487908061286057fe5b6001900381819060005260206000200160009055905586600101600087815260200190815260200160002060009055600194505050505061108d565b600091505061108d565b60006128b28383612648565b6128e85750815460018181018455600084815260208082209093018490558454848252828601909352604090209190915561108d565b50600061108d565b6000828152600184016020526040812054806129555750506040805180820182528381526020808201848152865460018181018955600089815284812095516002909302909501918255915190820155865486845281880190925292909120556120b0565b8285600001600183038154811061296857fe5b90600052602060002090600202016001018190555060009150506120b0565b6000818152600183016020526040812054801561289c57835460001980830191908101906000908790839081106129ba57fe5b90600052602060002090600202019050808760000184815481106129da57fe5b600091825260208083208454600290930201918255600193840154918401919091558354825289830190526040902090840190558654879080612a1957fe5b600082815260208082206002600019909401938402018281556001908101839055929093558881528982019092526040822091909155945061108d9350505050565b6000813f7fc5d2460186f7233c927e7db2dcc703c0e500b653ca82273b7bfad8045d85a470818114801590611d5b575050151592915050565b60606120ad84846000856060612aa985612a5b565b612afa576040805162461bcd60e51b815260206004820152601d60248201527f416464726573733a2063616c6c20746f206e6f6e2d636f6e7472616374000000604482015290519081900360640190fd5b60006060866001600160a01b031685876040518082805190602001908083835b60208310612b395780518252601f199092019160209182019101612b1a565b6001836020036101000a03801982511681845116808217855250505050505090500191505060006040518083038185875af1925050503d8060008114612b9b576040519150601f19603f3d011682016040523d82523d6000602084013e612ba0565b606091505b50915091508115612bb4579150611d5b9050565b805115612bc45780518082602001fd5b60405162461bcd60e51b81526020600482018181528651602484015286518793919283926044019190850190808383600083156113de5781810151838201526020016113c6565b60405180606001604052806000815260200160006001600160a01b03168152602001606081525090565b50805460018160011615610100020316600290046000825580601f10612c5b5750610ff3565b6000918252602091829020610ff392610af192601f01048101905b80821115612c8a5760008155600101612c76565b509056fe456e756d657261626c655365743a20696e646578206f7574206f6620626f756e6473416363657373436f6e74726f6c3a2073656e646572206d75737420626520616e2061646d696e20746f206772616e744552433732313a207472616e7366657220746f206e6f6e20455243373231526563656976657220696d706c656d656e7465724d6574615472616e73616374696f6e2875696e74323536206e6f6e63652c616464726573732066726f6d2c62797465732066756e6374696f6e5369676e6174757265294552433732313a207472616e7366657220746f20746865207a65726f20616464726573734552433732313a206f70657261746f7220717565727920666f72206e6f6e6578697374656e7420746f6b656e416363657373436f6e74726f6c3a2073656e646572206d75737420626520616e2061646d696e20746f207265766f6b654368696c644552433732313a20494e56414c49445f544f4b454e5f4f574e4552204e61746976654d6574615472616e73616374696f6e3a20494e56414c49445f5349474e45524552433732313a20617070726f76652063616c6c6572206973206e6f74206f776e6572206e6f7220617070726f76656420666f7220616c6c4552433732313a2062616c616e636520717565727920666f7220746865207a65726f20616464726573734552433732313a206f776e657220717565727920666f72206e6f6e6578697374656e7420746f6b656e456e756d657261626c654d61703a20696e646578206f7574206f6620626f756e64734552433732313a20617070726f76656420717565727920666f72206e6f6e6578697374656e7420746f6b656e4552433732313a207472616e73666572206f6620746f6b656e2074686174206973206e6f74206f776e5369676e657220616e64207369676e617475726520646f206e6f74206d617463684552433732314d657461646174613a2055524920717565727920666f72206e6f6e6578697374656e7420746f6b656e4552433732313a20617070726f76616c20746f2063757272656e74206f776e65724552433732313a207472616e736665722063616c6c6572206973206e6f74206f776e6572206e6f7220617070726f766564416363657373436f6e74726f6c3a2063616e206f6e6c792072656e6f756e636520726f6c657320666f722073656c66a26469706673582212208d4fbde406740e1a30f902e280753aa31e2eeb90ee82f481f50e2ec988bf554964736f6c63430006060033454950373132446f6d61696e28737472696e67206e616d652c737472696e672076657273696f6e2c6164647265737320766572696679696e67436f6e74726163742c627974657333322073616c7429","linkReferences":{}},"methodIdentifiers":{"BATCH_LIMIT()":"9559c0bd","DEFAULT_ADMIN_ROLE()":"a217fddf","DEPOSITOR_ROLE()":"a3b0b5a3","ERC712_VERSION()":"0f7e5970","approve(address,uint256)":"095ea7b3","balanceOf(address)":"70a08231","baseURI()":"6c0360eb","deposit(address,bytes)":"cf2c52cb","executeMetaTransaction(address,bytes,bytes32,bytes32,uint8)":"0c53c51c","getApproved(uint256)":"081812fc","getChainId()":"3408e470","getDomainSeperator()":"20379ee5","getNonce(address)":"2d0335ab","getRoleAdmin(bytes32)":"248a9ca3","getRoleMember(bytes32,uint256)":"9010d07c","getRoleMemberCount(bytes32)":"ca15c873","grantRole(bytes32,address)":"2f2ff15d","hasRole(bytes32,address)":"91d14854","isApprovedForAll(address,address)":"e985e9c5","name()":"06fdde03","ownerOf(uint256)":"6352211e","renounceRole(bytes32,address)":"36568abe","revokeRole(bytes32,address)":"d547741f","safeTransferFrom(address,address,uint256)":"42842e0e","safeTransferFrom(address,address,uint256,bytes)":"b88d4fde","setApprovalForAll(address,bool)":"a22cb465","supportsInterface(bytes4)":"01ffc9a7","symbol()":"95d89b41","tokenByIndex(uint256)":"4f6ccce7","tokenOfOwnerByIndex(address,uint256)":"2f745c59","tokenURI(uint256)":"c87b56dd","totalSupply()":"18160ddd","transferFrom(address,address,uint256)":"23b872dd","withdraw(uint256)":"2e1a7d4d","withdrawBatch(uint256[])":"9c8d4156"},"id":6}