{"abi":[{"type":"function","name":"ERC712_VERSION","inputs":[],"outputs":[{"name":"","type":"string","internalType":"string"}],"stateMutability":"view"},{"type":"function","name":"executeMetaTransaction","inputs":[{"name":"userAddress","type":"address","internalType":"address"},{"name":"functionSignature","type":"bytes","internalType":"bytes"},{"name":"sigR","type":"bytes32","internalType":"bytes32"},{"name":"sigS","type":"bytes32","internalType":"bytes32"},{"name":"sigV","type":"uint8","internalType":"uint8"}],"outputs":[{"name":"","type":"bytes","internalType":"bytes"}],"stateMutability":"payable"},{"type":"function","name":"getChainId","inputs":[],"outputs":[{"name":"","type":"uint256","internalType":"uint256"}],"stateMutability":"pure"},{"type":"function","name":"getDomainSeperator","inputs":[],"outputs":[{"name":"","type":"bytes32","internalType":"bytes32"}],"stateMutability":"view"},{"type":"function","name":"getNonce","inputs":[{"name":"user","type":"address","internalType":"address"}],"outputs":[{"name":"nonce","type":"uint256","internalType":"uint256"}],"stateMutability":"view"},{"type":"event","name":"MetaTransactionExecuted","inputs":[{"name":"userAddress","type":"address","indexed":true,"internalType":"address"},{"name":"relayerAddress","type":"address","indexed":true,"internalType":"address payable"},{"name":"functionSignature","type":"bytes","indexed":false,"internalType":"bytes"}],"anonymous":false}],"bytecode":{"object":"0x60806040526000805460ff1916905534801561001a57600080fd5b506107408061002a6000396000f3fe60806040526004361061004a5760003560e01c80630c53c51c1461004f5780630f7e59701461015357806320379ee5146101685780632d0335ab1461018f5780633408e470146101c2575b600080fd5b6100de600480360360a081101561006557600080fd5b6001600160a01b03823516919081019060408101602082013564010000000081111561009057600080fd5b8201836020820111156100a257600080fd5b803590602001918460018302840111640100000000831117156100c457600080fd5b91935091508035906020810135906040013560ff166101d7565b6040805160208082528351818301528351919283929083019185019080838360005b83811015610118578181015183820152602001610100565b50505050905090810190601f1680156101455780820380516001836020036101000a031916815260200191505b509250505060405180910390f35b34801561015f57600080fd5b506100de610460565b34801561017457600080fd5b5061017d61047d565b60408051918252519081900360200190f35b34801561019b57600080fd5b5061017d600480360360208110156101b257600080fd5b50356001600160a01b0316610483565b3480156101ce57600080fd5b5061017d61049e565b60606101e1610657565b604080516060810182526001600160a01b038a1660008181526002602090815290849020548352808301919091528251601f8a0182900482028101820184528981529192830191908a908a90819084018382808284376000920191909152505050915250905061025488828787876104a2565b61028f5760405162461bcd60e51b81526004018080602001828103825260218152602001806106ea6021913960400191505060405180910390fd5b6001600160a01b0388166000818152600260209081526040918290208054600101905581518181529081018990523392917f5845892132946850460bff5a0083f71031bc5bf9aadcd40f1de79423eac9b10b918b918b919081908101848480828437600083820152604051601f909101601f19169092018290039550909350505050a360006060306001600160a01b031689898c6040516020018084848082843780830192505050826001600160a01b03166001600160a01b031660601b815260140193505050506040516020818303038152906040526040518082805190602001908083835b602083106103955780518252601f199092019160209182019101610376565b6001836020036101000a0380198251168184511680821785525050505050509050019150506000604051808303816000865af19150503d80600081146103f7576040519150601f19603f3d011682016040523d82523d6000602084013e6103fc565b606091505b509150915081610453576040805162461bcd60e51b815260206004820152601c60248201527f46756e6374696f6e2063616c6c206e6f74207375636365737366756c00000000604482015290519081900360640190fd5b9998505050505050505050565b604051806040016040528060018152602001603160f81b81525081565b60015490565b6001600160a01b031660009081526002602052604090205490565b4690565b60006001600160a01b0386166104e95760405162461bcd60e51b81526004018080602001828103825260258152602001806106c56025913960400191505060405180910390fd5b60016104fc6104f78761057f565b61060b565b83868660405160008152602001604052604051808581526020018460ff1660ff1681526020018381526020018281526020019450505050506020604051602081039080840390855afa158015610556573d6000803e3d6000fd5b505050602060405103516001600160a01b0316866001600160a01b031614905095945050505050565b600060405180608001604052806043815260200161068260439139805190602001208260000151836020015184604001518051906020012060405160200180858152602001848152602001836001600160a01b03166001600160a01b03168152602001828152602001945050505050604051602081830303815290604052805190602001209050919050565b600061061561047d565b82604051602001808061190160f01b81525060020183815260200182815260200192505050604051602081830303815290604052805190602001209050919050565b60405180606001604052806000815260200160006001600160a01b0316815260200160608152509056fe4d6574615472616e73616374696f6e2875696e74323536206e6f6e63652c616464726573732066726f6d2c62797465732066756e6374696f6e5369676e6174757265294e61746976654d6574615472616e73616374696f6e3a20494e56414c49445f5349474e45525369676e657220616e64207369676e617475726520646f206e6f74206d61746368a26469706673582212200ab10b112eb17209199c66649e62ce9bde295c5c3af37b8568ea2e4c14502a9464736f6c63430006060033","linkReferences":{}},"methodIdentifiers":{"ERC712_VERSION()":"0f7e5970","executeMetaTransaction(address,bytes,bytes32,bytes32,uint8)":"0c53c51c","getChainId()":"3408e470","getDomainSeperator()":"20379ee5","getNonce(address)":"2d0335ab"},"id":21}