{"abi":[{"type":"function","name":"DEFAULT_ADMIN_ROLE","inputs":[],"outputs":[{"name":"","type":"bytes32","internalType":"bytes32"}],"stateMutability":"view"},{"type":"function","name":"DEPOSIT","inputs":[],"outputs":[{"name":"","type":"bytes32","internalType":"bytes32"}],"stateMutability":"view"},{"type":"function","name":"MAPPER_ROLE","inputs":[],"outputs":[{"name":"","type":"bytes32","internalType":"bytes32"}],"stateMutability":"view"},{"type":"function","name":"MAP_TOKEN","inputs":[],"outputs":[{"name":"","type":"bytes32","internalType":"bytes32"}],"stateMutability":"view"},{"type":"function","name":"STATE_SYNCER_ROLE","inputs":[],"outputs":[{"name":"","type":"bytes32","internalType":"bytes32"}],"stateMutability":"view"},{"type":"function","name":"childToRootToken","inputs":[{"name":"","type":"address","internalType":"address"}],"outputs":[{"name":"","type":"address","internalType":"address"}],"stateMutability":"view"},{"type":"function","name":"cleanMapToken","inputs":[{"name":"rootToken","type":"address","internalType":"address"},{"name":"childToken","type":"address","internalType":"address"}],"outputs":[],"stateMutability":"nonpayable"},{"type":"function","name":"getRoleAdmin","inputs":[{"name":"role","type":"bytes32","internalType":"bytes32"}],"outputs":[{"name":"","type":"bytes32","internalType":"bytes32"}],"stateMutability":"view"},{"type":"function","name":"getRoleMember","inputs":[{"name":"role","type":"bytes32","internalType":"bytes32"},{"name":"index","type":"uint256","internalType":"uint256"}],"outputs":[{"name":"","type":"address","internalType":"address"}],"stateMutability":"view"},{"type":"function","name":"getRoleMemberCount","inputs":[{"name":"role","type":"bytes32","internalType":"bytes32"}],"outputs":[{"name":"","type":"uint256","internalType":"uint256"}],"stateMutability":"view"},{"type":"function","name":"grantRole","inputs":[{"name":"role","type":"bytes32","internalType":"bytes32"},{"name":"account","type":"address","internalType":"address"}],"outputs":[],"stateMutability":"nonpayable"},{"type":"function","name":"hasRole","inputs":[{"name":"role","type":"bytes32","internalType":"bytes32"},{"name":"account","type":"address","internalType":"address"}],"outputs":[{"name":"","type":"bool","internalType":"bool"}],"stateMutability":"view"},{"type":"function","name":"initialize","inputs":[{"name":"_owner","type":"address","internalType":"address"}],"outputs":[],"stateMutability":"nonpayable"},{"type":"function","name":"mapToken","inputs":[{"name":"rootToken","type":"address","internalType":"address"},{"name":"childToken","type":"address","internalType":"address"}],"outputs":[],"stateMutability":"nonpayable"},{"type":"function","name":"onStateReceive","inputs":[{"name":"","type":"uint256","internalType":"uint256"},{"name":"data","type":"bytes","internalType":"bytes"}],"outputs":[],"stateMutability":"nonpayable"},{"type":"function","name":"renounceRole","inputs":[{"name":"role","type":"bytes32","internalType":"bytes32"},{"name":"account","type":"address","internalType":"address"}],"outputs":[],"stateMutability":"nonpayable"},{"type":"function","name":"revokeRole","inputs":[{"name":"role","type":"bytes32","internalType":"bytes32"},{"name":"account","type":"address","internalType":"address"}],"outputs":[],"stateMutability":"nonpayable"},{"type":"function","name":"rootToChildToken","inputs":[{"name":"","type":"address","internalType":"address"}],"outputs":[{"name":"","type":"address","internalType":"address"}],"stateMutability":"view"},{"type":"event","name":"RoleAdminChanged","inputs":[{"name":"role","type":"bytes32","indexed":true,"internalType":"bytes32"},{"name":"previousAdminRole","type":"bytes32","indexed":true,"internalType":"bytes32"},{"name":"newAdminRole","type":"bytes32","indexed":true,"internalType":"bytes32"}],"anonymous":false},{"type":"event","name":"RoleGranted","inputs":[{"name":"role","type":"bytes32","indexed":true,"internalType":"bytes32"},{"name":"account","type":"address","indexed":true,"internalType":"address"},{"name":"sender","type":"address","indexed":true,"internalType":"address"}],"anonymous":false},{"type":"event","name":"RoleRevoked","inputs":[{"name":"role","type":"bytes32","indexed":true,"internalType":"bytes32"},{"name":"account","type":"address","indexed":true,"internalType":"address"},{"name":"sender","type":"address","indexed":true,"internalType":"address"}],"anonymous":false},{"type":"event","name":"TokenMapped","inputs":[{"name":"rootToken","type":"address","indexed":true,"internalType":"address"},{"name":"childToken","type":"address","indexed":true,"internalType":"address"}],"anonymous":false},{"type":"event","name":"TokenUnmapped","inputs":[{"name":"rootToken","type":"address","indexed":true,"internalType":"address"},{"name":"childToken","type":"address","indexed":true,"internalType":"address"}],"anonymous":false}],"bytecode":{"object":"0x60806040526000805460ff1916905534801561001a57600080fd5b506113748061002a6000396000f3fe608060405234801561001057600080fd5b50600436106101165760003560e01c8063886a69ba116100a2578063c4d66de811610071578063c4d66de81461033c578063ca15c87314610362578063d547741f1461037f578063d81c8e52146103ab578063ea60c7c4146103b357610116565b8063886a69ba146102c95780639010d07c146102d157806391d14854146102f4578063a217fddf1461033457610116565b806336568abe116100e957806336568abe1461021d57806347400269146102495780634dee449814610277578063568b80b51461027f5780636e86b7701461028757610116565b80630c3894bb1461011b578063248a9ca31461014b57806326c53bea1461017a5780632f2ff15d146101f1575b600080fd5b6101496004803603604081101561013157600080fd5b506001600160a01b03813581169160200135166103d9565b005b6101686004803603602081101561016157600080fd5b5035610519565b60408051918252519081900360200190f35b6101496004803603604081101561019057600080fd5b813591908101906040810160208201356401000000008111156101b257600080fd5b8201836020820111156101c457600080fd5b803590602001918460018302840111640100000000831117156101e657600080fd5b50909250905061052e565b6101496004803603604081101561020757600080fd5b50803590602001356001600160a01b031661073f565b6101496004803603604081101561023357600080fd5b50803590602001356001600160a01b03166107a6565b6101496004803603604081101561025f57600080fd5b506001600160a01b0381358116916020013516610807565b6101686108a9565b6101686108d2565b6102ad6004803603602081101561029d57600080fd5b50356001600160a01b03166108f5565b604080516001600160a01b039092168252519081900360200190f35b610168610910565b6102ad600480360360408110156102e757600080fd5b5080359060200135610931565b6103206004803603604081101561030a57600080fd5b50803590602001356001600160a01b0316610958565b604080519115158252519081900360200190f35b610168610976565b6101496004803603602081101561035257600080fd5b50356001600160a01b031661097b565b6101686004803603602081101561037857600080fd5b5035610a6b565b6101496004803603604081101561039557600080fd5b50803590602001356001600160a01b0316610a82565b610168610adb565b6102ad600480360360208110156103c957600080fd5b50356001600160a01b0316610afa565b604080516a4d41505045525f524f4c4560a81b8152905190819003600b01902061040a81610405610b15565b610958565b6002906104aa5760405162461bcd60e51b815260206004820190815282546002600019610100600184161502019091160460248301819052909182916044909101908490801561049b5780601f106104705761010080835404028352916020019161049b565b820191906000526020600020905b81548152906001019060200180831161047e57829003601f168201915b50509250505060405180910390fd5b506001600160a01b03808416600081815260036020908152604080832080546001600160a01b03199081169091559487168084526004909252808320805490951690945592517f1ef21354731af5719d3ed797a24232555038c66d8eca203597e756bc2e225a769190a3505050565b60009081526001602052604090206002015490565b604080517053544154455f53594e4345525f524f4c4560781b8152905190819003601101902061056081610405610b15565b6002906105c65760405162461bcd60e51b815260206004820190815282546002600019610100600184161502019091160460248301819052909182916044909101908490801561049b5780601f106104705761010080835404028352916020019161049b565b5060006060848460408110156105db57600080fd5b813591908101906040810160208201356401000000008111156105fd57600080fd5b82018360208201111561060f57600080fd5b8035906020019184600183028401116401000000008311171561063157600080fd5b91908080601f01602080910402602001604051908101604052809392919081815260200183838082843760009201919091525050604080516611115413d4d25560ca1b815290519081900360070190209698509196505050509184141591506106a490505761069f81610b1a565b610737565b604080516826a0a82faa27a5a2a760b91b81529051908190036009019020821415610700576000808280602001905160608110156106e157600080fd5b50805160209091015190925090506106f98282610d29565b5050610737565b60405162461bcd60e51b81526004018080602001828103825260248152602001806112996024913960400191505060405180910390fd5b505050505050565b60008281526001602052604090206002015461075d90610405610b15565b6107985760405162461bcd60e51b815260040180806020018281038252602f81526020018061126a602f913960400191505060405180910390fd5b6107a28282610e4d565b5050565b6107ae610b15565b6001600160a01b0316816001600160a01b0316146107fd5760405162461bcd60e51b815260040180806020018281038252602f815260200180611310602f913960400191505060405180910390fd5b6107a28282610ebc565b604080516a4d41505045525f524f4c4560a81b8152905190819003600b01902061083381610405610b15565b6002906108995760405162461bcd60e51b815260206004820190815282546002600019610100600184161502019091160460248301819052909182916044909101908490801561049b5780601f106104705761010080835404028352916020019161049b565b506108a48383610d29565b505050565b604080517053544154455f53594e4345525f524f4c4560781b8152905190819003601101902081565b604080516a4d41505045525f524f4c4560a81b8152905190819003600b01902081565b6004602052600090815260409020546001600160a01b031681565b604080516826a0a82faa27a5a2a760b91b8152905190819003600901902081565b600082815260016020526040812061094f908363ffffffff610f2b16565b90505b92915050565b600082815260016020526040812061094f908363ffffffff610f3716565b600081565b60005460ff16156109c4576040805162461bcd60e51b815260206004820152600e60248201526d185b1c9958591e481a5b9a5d195960921b604482015290519081900360640190fd5b6109f66040518060400160405280601181526020017021b434b63221b430b4b726b0b730b3b2b960791b815250610f4c565b610a01600082610798565b604080516a4d41505045525f524f4c4560a81b8152905190819003600b019020610a2b9082610798565b604080517053544154455f53594e4345525f524f4c4560781b81529051908190036011019020610a5b9082610798565b506000805460ff19166001179055565b600081815260016020526040812061095290610fea565b600082815260016020526040902060020154610aa090610405610b15565b6107fd5760405162461bcd60e51b81526004018080602001828103825260308152602001806112e06030913960400191505060405180910390fd5b604080516611115413d4d25560ca1b8152905190819003600701902081565b6003602052600090815260409020546001600160a01b031681565b335b90565b6000806060838060200190516060811015610b3457600080fd5b81516020830151604080850180519151939592948301929184640100000000821115610b5f57600080fd5b908301906020820185811115610b7457600080fd5b8251640100000000811182820188101715610b8e57600080fd5b82525081516020918201929091019080838360005b83811015610bbb578181015183820152602001610ba3565b50505050905090810190601f168015610be85780820380516001836020036101000a031916815260200191505b5060409081526001600160a01b0380871660009081526003602052919091205496995094975092955050509116905080610c535760405162461bcd60e51b81526004018080602001828103825260238152602001806112bd6023913960400191505060405180910390fd5b6040805163cf2c52cb60e01b81526001600160a01b03868116600483019081526024830193845285516044840152855185949285169363cf2c52cb938a938993909260640190602085019080838360005b83811015610cbc578181015183820152602001610ca4565b50505050905090810190601f168015610ce95780820380516001836020036101000a031916815260200191505b509350505050600060405180830381600087803b158015610d0957600080fd5b505af1158015610d1d573d6000803e3d6000fd5b50505050505050505050565b6001600160a01b0380831660009081526003602081815260408084205486861685526004835281852054861680865293909252909220549183169290911615610d93576001600160a01b038116600090815260036020526040902080546001600160a01b03191690555b6001600160a01b038281166000908152600460205260409020541615610dda576001600160a01b038216600090815260046020526040902080546001600160a01b03191690555b6001600160a01b03808516600081815260036020908152604080832080549589166001600160a01b0319968716811790915580845260049092528083208054909516841790945592517f85920d35e6c72f6b2affffa04298b0cecfeba86e4a9f407df661f1cb8ab5e6179190a350505050565b6000828152600160205260409020610e6b908263ffffffff610ff516565b156107a257610e78610b15565b6001600160a01b0316816001600160a01b0316837f2f8788117e7eff1d82e926ec794901d17c78024a50270940304540a733656f0d60405160405180910390a45050565b6000828152600160205260409020610eda908263ffffffff61100a16565b156107a257610ee7610b15565b6001600160a01b0316816001600160a01b0316837ff6391f5c32d9c69d2a47ea670b442974b53935d1edc7fd64eb21e047a839171b60405160405180910390a45050565b600061094f838361101f565b600061094f836001600160a01b038416611083565b806040516020018082805190602001908083835b60208310610f7f5780518252601f199092019160209182019101610f60565b51815160209384036101000a60001901801990921691161790527f3a20494e53554646494349454e545f5045524d495353494f4e530000000000009190930190815260408051808303600519018152601a909201905280516107a295506002945092019190506111af565b60006109528261109b565b600061094f836001600160a01b03841661109f565b600061094f836001600160a01b0384166110e9565b815460009082106110615760405162461bcd60e51b81526004018080602001828103825260228152602001806112486022913960400191505060405180910390fd5b82600001828154811061107057fe5b9060005260206000200154905092915050565b60009081526001919091016020526040902054151590565b5490565b60006110ab8383611083565b6110e157508154600181810184556000848152602080822090930184905584548482528286019093526040902091909155610952565b506000610952565b600081815260018301602052604081205480156111a5578354600019808301919081019060009087908390811061111c57fe5b906000526020600020015490508087600001848154811061113957fe5b60009182526020808320909101929092558281526001898101909252604090209084019055865487908061116957fe5b60019003818190600052602060002001600090559055866001016000878152602001908152602001600020600090556001945050505050610952565b6000915050610952565b828054600181600116156101000203166002900490600052602060002090601f016020900481019282601f106111f057805160ff191683800117855561121d565b8280016001018555821561121d579182015b8281111561121d578251825591602001919060010190611202565b5061122992915061122d565b5090565b610b1791905b80821115611229576000815560010161123356fe456e756d657261626c655365743a20696e646578206f7574206f6620626f756e6473416363657373436f6e74726f6c3a2073656e646572206d75737420626520616e2061646d696e20746f206772616e744368696c64436861696e4d616e616765723a20494e56414c49445f53594e435f545950454368696c64436861696e4d616e616765723a20544f4b454e5f4e4f545f4d4150504544416363657373436f6e74726f6c3a2073656e646572206d75737420626520616e2061646d696e20746f207265766f6b65416363657373436f6e74726f6c3a2063616e206f6e6c792072656e6f756e636520726f6c657320666f722073656c66a2646970667358221220b3de7e83b83a712eddf8d65b40000b0ac9ce09332575133e8d005aecd4792cdc64736f6c63430006060033","linkReferences":{}},"methodIdentifiers":{"DEFAULT_ADMIN_ROLE()":"a217fddf","DEPOSIT()":"d81c8e52","MAPPER_ROLE()":"568b80b5","MAP_TOKEN()":"886a69ba","STATE_SYNCER_ROLE()":"4dee4498","childToRootToken(address)":"6e86b770","cleanMapToken(address,address)":"0c3894bb","getRoleAdmin(bytes32)":"248a9ca3","getRoleMember(bytes32,uint256)":"9010d07c","getRoleMemberCount(bytes32)":"ca15c873","grantRole(bytes32,address)":"2f2ff15d","hasRole(bytes32,address)":"91d14854","initialize(address)":"c4d66de8","mapToken(address,address)":"47400269","onStateReceive(uint256,bytes)":"26c53bea","renounceRole(bytes32,address)":"36568abe","revokeRole(bytes32,address)":"d547741f","rootToChildToken(address)":"ea60c7c4"},"id":1}