{
  "_format": "hh-sol-artifact-1",
  "contractName": "ExitPayloadReaderTest",
  "sourceName": "contracts/lib/ExitPayloadReaderTest.sol",
  "abi": [
    {
      "inputs": [
        {
          "internalType": "bytes",
          "name": "receiptOrBytes",
          "type": "bytes"
        }
      ],
      "name": "tryParseReceipt",
      "outputs": [
        {
          "components": [
            {
              "components": [
                {
                  "internalType": "uint256",
                  "name": "len",
                  "type": "uint256"
                },
                {
                  "internalType": "uint256",
                  "name": "memPtr",
                  "type": "uint256"
                }
              ],
              "internalType": "struct RLPReader.RLPItem[]",
              "name": "data",
              "type": "tuple[]"
            },
            {
              "internalType": "bytes",
              "name": "raw",
              "type": "bytes"
            },
            {
              "internalType": "uint256",
              "name": "logIndex",
              "type": "uint256"
            }
          ],
          "internalType": "struct ExitPayloadReader.Receipt",
          "name": "",
          "type": "tuple"
        }
      ],
      "stateMutability": "pure",
      "type": "function"
    }
  ],
  "bytecode": "0x608060405234801561001057600080fd5b50610aa1806100206000396000f3fe608060405234801561001057600080fd5b506004361061002b5760003560e01c8063ff4117e714610030575b600080fd5b61004a600480360381019061004591906107b9565b610060565b604051610057919061093e565b60405180910390f35b610068610717565b61007961007483610080565b6100b4565b9050919050565b610088610738565b606061009b610096846101d0565b6101fe565b9050604051806020016040528082815250915050919050565b6100bc610717565b6100dd82600001516006815181106100d057fe5b60200260200101516102f2565b81602001819052506100ed61074b565b6100fa82602001516101d0565b905061010581610383565b1561012057610113816101fe565b82600001819052506101b5565b6060826020015190506060600182510367ffffffffffffffff8111801561014657600080fd5b506040519080825280601f01601f1916602001820160405280156101795781602001600182028036833780820191505090505b509050600080836021019150826020019050610197828285516103d1565b6101a86101a3846101d0565b6101fe565b8660000181905250505050505b6101be83610438565b82604001818152505081915050919050565b6101d861074b565b600060208301905060405180604001604052808451815260200182815250915050919050565b606061020982610383565b61021257600080fd5b600061021d83610462565b905060608167ffffffffffffffff8111801561023857600080fd5b5060405190808252806020026020018201604052801561027257816020015b61025f61074b565b8152602001906001900390816102575790505b509050600061028485602001516104d3565b8560200151019050600080600090505b848110156102e5576102a58361055c565b91506040518060400160405280838152602001848152508482815181106102c857fe5b602002602001018190525081830192508080600101915050610294565b5082945050505050919050565b6060600082600001511161030557600080fd5b60008061031184610614565b9150915060608167ffffffffffffffff8111801561032e57600080fd5b506040519080825280601f01601f1916602001820160405280156103615781602001600182028036833780820191505090505b509050600081602001905061037784828561064c565b81945050505050919050565b6000808260000151141561039a57600090506103cc565b60008083602001519050805160001a915060c060ff168260ff1610156103c5576000925050506103cc565b6001925050505b919050565b60008114156103df57610433565b5b602060ff16811061040f5782518252602060ff1683019250602060ff1682019150602060ff16810390506103e0565b6000600182602060ff16036101000a03905080198451168184511681811785525050505b505050565b600061045b826000015160098151811061044e57fe5b60200260200101516106bd565b9050919050565b6000808260000151141561047957600090506104ce565b6000809050600061048d84602001516104d3565b84602001510190506000846000015185602001510190505b808210156104c7576104b68261055c565b8201915082806001019350506104a5565b8293505050505b919050565b600080825160001a9050608060ff168110156104f3576000915050610557565b60b860ff16811080610518575060c060ff168110158015610517575060f860ff1681105b5b15610527576001915050610557565b60c060ff168110156105475760018060b80360ff16820301915050610557565b60018060f80360ff168203019150505b919050565b6000806000835160001a9050608060ff1681101561057d576001915061060a565b60b860ff1681101561059a576001608060ff168203019150610609565b60c060ff168110156105ca5760b78103600185019450806020036101000a85510460018201810193505050610608565b60f860ff168110156105e757600160c060ff168203019150610607565b60f78103600185019450806020036101000a855104600182018101935050505b5b5b5b8192505050919050565b600080600061062684602001516104d3565b905060008185602001510190506000828660000151039050818194509450505050915091565b600081141561065a576106b8565b5b602060ff16811061068a5782518252602060ff1683019250602060ff1682019150602060ff168103905061065b565b60008111156106b7576000600182602060ff16036101000a03905080198451168184511681811785525050505b5b505050565b60008082600001511180156106d757506021826000015111155b6106e057600080fd5b6000806106ec84610614565b91509150600082519050602082101561070c57816020036101000a810490505b809350505050919050565b60405180606001604052806060815260200160608152602001600081525090565b6040518060200160405280606081525090565b604051806040016040528060008152602001600081525090565b600082601f83011261077657600080fd5b81356107896107848261098d565b610960565b915080825260208301602083018583830111156107a557600080fd5b6107b0838284610a18565b50505092915050565b6000602082840312156107cb57600080fd5b600082013567ffffffffffffffff8111156107e557600080fd5b6107f184828501610765565b91505092915050565b600061080683836108a9565b60408301905092915050565b600061081d826109c9565b61082781856109ec565b9350610832836109b9565b8060005b8381101561086357815161084a88826107fa565b9750610855836109df565b925050600181019050610836565b5085935050505092915050565b600061087b826109d4565b61088581856109fd565b9350610895818560208601610a27565b61089e81610a5a565b840191505092915050565b6040820160008201516108bf600085018261092f565b5060208201516108d2602085018261092f565b50505050565b600060608301600083015184820360008601526108f58282610812565b9150506020830151848203602086015261090f8282610870565b9150506040830151610924604086018261092f565b508091505092915050565b61093881610a0e565b82525050565b6000602082019050818103600083015261095881846108d8565b905092915050565b6000604051905081810181811067ffffffffffffffff8211171561098357600080fd5b8060405250919050565b600067ffffffffffffffff8211156109a457600080fd5b601f19601f8301169050602081019050919050565b6000819050602082019050919050565b600081519050919050565b600081519050919050565b6000602082019050919050565b600082825260208201905092915050565b600082825260208201905092915050565b6000819050919050565b82818337600083830152505050565b60005b83811015610a45578082015181840152602081019050610a2a565b83811115610a54576000848401525b50505050565b6000601f19601f830116905091905056fea264697066735822122048c1f9ce7c47d2b28d2d6e66e8f5f12b3aa168af9716af5f19a3f6237336756664736f6c63430006060033",
  "linkReferences": {},
  "deployedLinkReferences": {}
}