{
  "_format": "hh-sol-artifact-1",
  "contractName": "MintableERC20Predicate",
  "sourceName": "contracts/root/TokenPredicates/MintableERC20Predicate.sol",
  "abi": [
    {
      "inputs": [],
      "stateMutability": "nonpayable",
      "type": "constructor"
    },
    {
      "anonymous": false,
      "inputs": [
        {
          "indexed": true,
          "internalType": "address",
          "name": "depositor",
          "type": "address"
        },
        {
          "indexed": true,
          "internalType": "address",
          "name": "depositReceiver",
          "type": "address"
        },
        {
          "indexed": true,
          "internalType": "address",
          "name": "rootToken",
          "type": "address"
        },
        {
          "indexed": false,
          "internalType": "uint256",
          "name": "amount",
          "type": "uint256"
        }
      ],
      "name": "LockedMintableERC20",
      "type": "event"
    },
    {
      "anonymous": false,
      "inputs": [
        {
          "indexed": true,
          "internalType": "bytes32",
          "name": "role",
          "type": "bytes32"
        },
        {
          "indexed": true,
          "internalType": "bytes32",
          "name": "previousAdminRole",
          "type": "bytes32"
        },
        {
          "indexed": true,
          "internalType": "bytes32",
          "name": "newAdminRole",
          "type": "bytes32"
        }
      ],
      "name": "RoleAdminChanged",
      "type": "event"
    },
    {
      "anonymous": false,
      "inputs": [
        {
          "indexed": true,
          "internalType": "bytes32",
          "name": "role",
          "type": "bytes32"
        },
        {
          "indexed": true,
          "internalType": "address",
          "name": "account",
          "type": "address"
        },
        {
          "indexed": true,
          "internalType": "address",
          "name": "sender",
          "type": "address"
        }
      ],
      "name": "RoleGranted",
      "type": "event"
    },
    {
      "anonymous": false,
      "inputs": [
        {
          "indexed": true,
          "internalType": "bytes32",
          "name": "role",
          "type": "bytes32"
        },
        {
          "indexed": true,
          "internalType": "address",
          "name": "account",
          "type": "address"
        },
        {
          "indexed": true,
          "internalType": "address",
          "name": "sender",
          "type": "address"
        }
      ],
      "name": "RoleRevoked",
      "type": "event"
    },
    {
      "inputs": [],
      "name": "DEFAULT_ADMIN_ROLE",
      "outputs": [
        {
          "internalType": "bytes32",
          "name": "",
          "type": "bytes32"
        }
      ],
      "stateMutability": "view",
      "type": "function"
    },
    {
      "inputs": [],
      "name": "MANAGER_ROLE",
      "outputs": [
        {
          "internalType": "bytes32",
          "name": "",
          "type": "bytes32"
        }
      ],
      "stateMutability": "view",
      "type": "function"
    },
    {
      "inputs": [],
      "name": "TOKEN_TYPE",
      "outputs": [
        {
          "internalType": "bytes32",
          "name": "",
          "type": "bytes32"
        }
      ],
      "stateMutability": "view",
      "type": "function"
    },
    {
      "inputs": [],
      "name": "TRANSFER_EVENT_SIG",
      "outputs": [
        {
          "internalType": "bytes32",
          "name": "",
          "type": "bytes32"
        }
      ],
      "stateMutability": "view",
      "type": "function"
    },
    {
      "inputs": [
        {
          "internalType": "address",
          "name": "",
          "type": "address"
        },
        {
          "internalType": "address",
          "name": "rootToken",
          "type": "address"
        },
        {
          "internalType": "bytes",
          "name": "log",
          "type": "bytes"
        }
      ],
      "name": "exitTokens",
      "outputs": [],
      "stateMutability": "nonpayable",
      "type": "function"
    },
    {
      "inputs": [
        {
          "internalType": "bytes32",
          "name": "role",
          "type": "bytes32"
        }
      ],
      "name": "getRoleAdmin",
      "outputs": [
        {
          "internalType": "bytes32",
          "name": "",
          "type": "bytes32"
        }
      ],
      "stateMutability": "view",
      "type": "function"
    },
    {
      "inputs": [
        {
          "internalType": "bytes32",
          "name": "role",
          "type": "bytes32"
        },
        {
          "internalType": "uint256",
          "name": "index",
          "type": "uint256"
        }
      ],
      "name": "getRoleMember",
      "outputs": [
        {
          "internalType": "address",
          "name": "",
          "type": "address"
        }
      ],
      "stateMutability": "view",
      "type": "function"
    },
    {
      "inputs": [
        {
          "internalType": "bytes32",
          "name": "role",
          "type": "bytes32"
        }
      ],
      "name": "getRoleMemberCount",
      "outputs": [
        {
          "internalType": "uint256",
          "name": "",
          "type": "uint256"
        }
      ],
      "stateMutability": "view",
      "type": "function"
    },
    {
      "inputs": [
        {
          "internalType": "bytes32",
          "name": "role",
          "type": "bytes32"
        },
        {
          "internalType": "address",
          "name": "account",
          "type": "address"
        }
      ],
      "name": "grantRole",
      "outputs": [],
      "stateMutability": "nonpayable",
      "type": "function"
    },
    {
      "inputs": [
        {
          "internalType": "bytes32",
          "name": "role",
          "type": "bytes32"
        },
        {
          "internalType": "address",
          "name": "account",
          "type": "address"
        }
      ],
      "name": "hasRole",
      "outputs": [
        {
          "internalType": "bool",
          "name": "",
          "type": "bool"
        }
      ],
      "stateMutability": "view",
      "type": "function"
    },
    {
      "inputs": [
        {
          "internalType": "address",
          "name": "_owner",
          "type": "address"
        }
      ],
      "name": "initialize",
      "outputs": [],
      "stateMutability": "nonpayable",
      "type": "function"
    },
    {
      "inputs": [
        {
          "internalType": "address",
          "name": "depositor",
          "type": "address"
        },
        {
          "internalType": "address",
          "name": "depositReceiver",
          "type": "address"
        },
        {
          "internalType": "address",
          "name": "rootToken",
          "type": "address"
        },
        {
          "internalType": "bytes",
          "name": "depositData",
          "type": "bytes"
        }
      ],
      "name": "lockTokens",
      "outputs": [],
      "stateMutability": "nonpayable",
      "type": "function"
    },
    {
      "inputs": [
        {
          "internalType": "bytes32",
          "name": "role",
          "type": "bytes32"
        },
        {
          "internalType": "address",
          "name": "account",
          "type": "address"
        }
      ],
      "name": "renounceRole",
      "outputs": [],
      "stateMutability": "nonpayable",
      "type": "function"
    },
    {
      "inputs": [
        {
          "internalType": "bytes32",
          "name": "role",
          "type": "bytes32"
        },
        {
          "internalType": "address",
          "name": "account",
          "type": "address"
        }
      ],
      "name": "revokeRole",
      "outputs": [],
      "stateMutability": "nonpayable",
      "type": "function"
    }
  ],
  "bytecode": "0x60806040526000600260006101000a81548160ff02191690831515021790555034801561002b57600080fd5b5061201d8061003b6000396000f3fe608060405234801561001057600080fd5b50600436106100ea5760003560e01c8063a217fddf1161008c578063ca15c87311610066578063ca15c87314610444578063d547741f14610486578063e375b64e146104d4578063ec87621c146105ad576100ea565b8063a217fddf146103c4578063b017a30f146103e2578063c4d66de814610400576100ea565b8063609c92b8116100c8578063609c92b8146101cd5780638274664f146101eb5780639010d07c146102e657806391d148541461035e576100ea565b8063248a9ca3146100ef5780632f2ff15d1461013157806336568abe1461017f575b600080fd5b61011b6004803603602081101561010557600080fd5b81019080803590602001909291905050506105cb565b6040518082815260200191505060405180910390f35b61017d6004803603604081101561014757600080fd5b8101908080359060200190929190803573ffffffffffffffffffffffffffffffffffffffff1690602001909291905050506105ea565b005b6101cb6004803603604081101561019557600080fd5b8101908080359060200190929190803573ffffffffffffffffffffffffffffffffffffffff169060200190929190505050610673565b005b6101d561070c565b6040518082815260200191505060405180910390f35b6102e46004803603606081101561020157600080fd5b81019080803573ffffffffffffffffffffffffffffffffffffffff169060200190929190803573ffffffffffffffffffffffffffffffffffffffff1690602001909291908035906020019064010000000081111561025e57600080fd5b82018360208201111561027057600080fd5b8035906020019184600183028401116401000000008311171561029257600080fd5b91908080601f016020809104026020016040519081016040528093929190818152602001838380828437600081840152601f19601f820116905080830192505050505050509192919290505050610745565b005b61031c600480360360408110156102fc57600080fd5b810190808035906020019092919080359060200190929190505050610b9c565b604051808273ffffffffffffffffffffffffffffffffffffffff1673ffffffffffffffffffffffffffffffffffffffff16815260200191505060405180910390f35b6103aa6004803603604081101561037457600080fd5b8101908080359060200190929190803573ffffffffffffffffffffffffffffffffffffffff169060200190929190505050610bcd565b604051808215151515815260200191505060405180910390f35b6103cc610bfe565b6040518082815260200191505060405180910390f35b6103ea610c05565b6040518082815260200191505060405180910390f35b6104426004803603602081101561041657600080fd5b81019080803573ffffffffffffffffffffffffffffffffffffffff169060200190929190505050610c21565b005b6104706004803603602081101561045a57600080fd5b8101908080359060200190929190505050610d4c565b6040518082815260200191505060405180910390f35b6104d26004803603604081101561049c57600080fd5b8101908080359060200190929190803573ffffffffffffffffffffffffffffffffffffffff169060200190929190505050610d72565b005b6105ab600480360360808110156104ea57600080fd5b81019080803573ffffffffffffffffffffffffffffffffffffffff169060200190929190803573ffffffffffffffffffffffffffffffffffffffff169060200190929190803573ffffffffffffffffffffffffffffffffffffffff1690602001909291908035906020019064010000000081111561056757600080fd5b82018360208201111561057957600080fd5b8035906020019184600183028401116401000000008311171561059b57600080fd5b9091929391929390505050610dfb565b005b6105b5610fdf565b6040518082815260200191505060405180910390f35b6000806000838152602001908152602001600020600201549050919050565b6106106000808481526020019081526020016000206002015461060b611018565b610bcd565b610665576040517f08c379a000000000000000000000000000000000000000000000000000000000815260040180806020018281038252602f815260200180611e98602f913960400191505060405180910390fd5b61066f8282611020565b5050565b61067b611018565b73ffffffffffffffffffffffffffffffffffffffff168173ffffffffffffffffffffffffffffffffffffffff16146106fe576040517f08c379a000000000000000000000000000000000000000000000000000000000815260040180806020018281038252602f815260200180611fb9602f913960400191505060405180910390fd5b61070882826110b3565b5050565b60405180807f4d696e7461626c65455243323000000000000000000000000000000000000000815250600d019050604051809103902081565b60405180807f4d414e414745525f524f4c450000000000000000000000000000000000000000815250600c019050604051809103902061078c81610787611018565b610bcd565b600190610851576040517f08c379a000000000000000000000000000000000000000000000000000000000815260040180806020018281038252838181546001816001161561010002031660029004815260200191508054600181600116156101000203166002900480156108425780601f1061081757610100808354040283529160200191610842565b820191906000526020600020905b81548152906001019060200180831161082557829003601f168201915b50509250505060405180910390fd5b50606061086561086084611146565b611174565b905060606108868260018151811061087957fe5b6020026020010151611174565b90506040518080611f6e60219139602101905060405180910390206108be826000815181106108b157fe5b6020026020010151611268565b60001b14610917576040517f08c379a0000000000000000000000000000000000000000000000000000000008152600401808060200182810382526029815260200180611f1d6029913960400191505060405180910390fd5b60006109368260018151811061092957fe5b6020026020010151611268565b9050600073ffffffffffffffffffffffffffffffffffffffff1661096d8360028151811061096057fe5b6020026020010151611268565b73ffffffffffffffffffffffffffffffffffffffff16146109d9576040517f08c379a0000000000000000000000000000000000000000000000000000000008152600401808060200182810382526028815260200180611f466028913960400191505060405180910390fd5b600086905060008173ffffffffffffffffffffffffffffffffffffffff166370a08231306040518263ffffffff1660e01b8152600401808273ffffffffffffffffffffffffffffffffffffffff1673ffffffffffffffffffffffffffffffffffffffff16815260200191505060206040518083038186803b158015610a5d57600080fd5b505afa158015610a71573d6000803e3d6000fd5b505050506040513d6020811015610a8757600080fd5b810190808051906020019092919050505090506000610ab986600281518110610aac57fe5b6020026020010151611268565b905080821015610b65578273ffffffffffffffffffffffffffffffffffffffff166340c10f19308484036040518363ffffffff1660e01b8152600401808373ffffffffffffffffffffffffffffffffffffffff1673ffffffffffffffffffffffffffffffffffffffff16815260200182815260200192505050600060405180830381600087803b158015610b4c57600080fd5b505af1158015610b60573d6000803e3d6000fd5b505050505b610b9084828b73ffffffffffffffffffffffffffffffffffffffff166112c29092919063ffffffff16565b50505050505050505050565b6000610bc58260008086815260200190815260200160002060000161137a90919063ffffffff16565b905092915050565b6000610bf68260008086815260200190815260200160002060000161139490919063ffffffff16565b905092915050565b6000801b81565b6040518080611f6e602191396021019050604051809103902081565b600260009054906101000a900460ff1615610ca4576040517f08c379a000000000000000000000000000000000000000000000000000000000815260040180806020018281038252600e8152602001807f616c726561647920696e6974656400000000000000000000000000000000000081525060200191505060405180910390fd5b610ce26040518060400160405280601681526020017f4d696e7461626c654552433230507265646963617465000000000000000000008152506113c4565b610cef6000801b82611470565b610d2e60405180807f4d414e414745525f524f4c450000000000000000000000000000000000000000815250600c019050604051809103902082611470565b6001600260006101000a81548160ff02191690831515021790555050565b6000610d6b60008084815260200190815260200160002060000161147e565b9050919050565b610d9860008084815260200190815260200160002060020154610d93611018565b610bcd565b610ded576040517f08c379a0000000000000000000000000000000000000000000000000000000008152600401808060200182810382526030815260200180611eed6030913960400191505060405180910390fd5b610df782826110b3565b5050565b60405180807f4d414e414745525f524f4c450000000000000000000000000000000000000000815250600c0190506040518091039020610e4281610e3d611018565b610bcd565b600190610f07576040517f08c379a00000000000000000000000000000000000000000000000000000000081526004018080602001828103825283818154600181600116156101000203166002900481526020019150805460018160011615610100020316600290048015610ef85780601f10610ecd57610100808354040283529160200191610ef8565b820191906000526020600020905b815481529060010190602001808311610edb57829003601f168201915b50509250505060405180910390fd5b50600083836020811015610f1a57600080fd5b810190808035906020019092919050505090508473ffffffffffffffffffffffffffffffffffffffff168673ffffffffffffffffffffffffffffffffffffffff168873ffffffffffffffffffffffffffffffffffffffff167f31472eae9e158460fea5622d1fcb0c5bdc65b6ffb51827f7bc9ef5788410c34c846040518082815260200191505060405180910390a4610fd68730838873ffffffffffffffffffffffffffffffffffffffff16611493909392919063ffffffff16565b50505050505050565b60405180807f4d414e414745525f524f4c450000000000000000000000000000000000000000815250600c019050604051809103902081565b600033905090565b6110478160008085815260200190815260200160002060000161158090919063ffffffff16565b156110af57611054611018565b73ffffffffffffffffffffffffffffffffffffffff168173ffffffffffffffffffffffffffffffffffffffff16837f2f8788117e7eff1d82e926ec794901d17c78024a50270940304540a733656f0d60405160405180910390a45b5050565b6110da816000808581526020019081526020016000206000016115b090919063ffffffff16565b15611142576110e7611018565b73ffffffffffffffffffffffffffffffffffffffff168173ffffffffffffffffffffffffffffffffffffffff16837ff6391f5c32d9c69d2a47ea670b442974b53935d1edc7fd64eb21e047a839171b60405160405180910390a45b5050565b61114e611db6565b600060208301905060405180604001604052808451815260200182815250915050919050565b606061117f826115e0565b61118857600080fd5b60006111938361162e565b905060608167ffffffffffffffff811180156111ae57600080fd5b506040519080825280602002602001820160405280156111e857816020015b6111d5611db6565b8152602001906001900390816111cd5790505b50905060006111fa856020015161169f565b8560200151019050600080600090505b8481101561125b5761121b83611728565b915060405180604001604052808381526020018481525084828151811061123e57fe5b60200260200101819052508183019250808060010191505061120a565b5082945050505050919050565b600080826000015111801561128257506021826000015111155b61128b57600080fd5b600080611297846117e0565b9150915060008251905060208210156112b757816020036101000a810490505b809350505050919050565b6113758363a9059cbb60e01b8484604051602401808373ffffffffffffffffffffffffffffffffffffffff1673ffffffffffffffffffffffffffffffffffffffff16815260200182815260200192505050604051602081830303815290604052907bffffffffffffffffffffffffffffffffffffffffffffffffffffffff19166020820180517bffffffffffffffffffffffffffffffffffffffffffffffffffffffff8381831617835250505050611818565b505050565b60006113898360000183611907565b60001c905092915050565b60006113bc836000018373ffffffffffffffffffffffffffffffffffffffff1660001b61198a565b905092915050565b806040516020018082805190602001908083835b602083106113fb57805182526020820191506020810190506020830392506113d8565b6001836020036101000a038019825116818451168082178552505050505050905001807f3a20494e53554646494349454e545f5045524d495353494f4e53000000000000815250601a019150506040516020818303038152906040526001908051906020019061146c929190611dd0565b5050565b61147a8282611020565b5050565b600061148c826000016119ad565b9050919050565b61157a846323b872dd60e01b858585604051602401808473ffffffffffffffffffffffffffffffffffffffff1673ffffffffffffffffffffffffffffffffffffffff1681526020018373ffffffffffffffffffffffffffffffffffffffff1673ffffffffffffffffffffffffffffffffffffffff1681526020018281526020019350505050604051602081830303815290604052907bffffffffffffffffffffffffffffffffffffffffffffffffffffffff19166020820180517bffffffffffffffffffffffffffffffffffffffffffffffffffffffff8381831617835250505050611818565b50505050565b60006115a8836000018373ffffffffffffffffffffffffffffffffffffffff1660001b6119be565b905092915050565b60006115d8836000018373ffffffffffffffffffffffffffffffffffffffff1660001b611a2e565b905092915050565b600080826000015114156115f75760009050611629565b60008083602001519050805160001a915060c060ff168260ff16101561162257600092505050611629565b6001925050505b919050565b60008082600001511415611645576000905061169a565b60008090506000611659846020015161169f565b84602001510190506000846000015185602001510190505b808210156116935761168282611728565b820191508280600101935050611671565b8293505050505b919050565b600080825160001a9050608060ff168110156116bf576000915050611723565b60b860ff168110806116e4575060c060ff1681101580156116e3575060f860ff1681105b5b156116f3576001915050611723565b60c060ff168110156117135760018060b80360ff16820301915050611723565b60018060f80360ff168203019150505b919050565b6000806000835160001a9050608060ff1681101561174957600191506117d6565b60b860ff16811015611766576001608060ff1682030191506117d5565b60c060ff168110156117965760b78103600185019450806020036101000a855104600182018101935050506117d4565b60f860ff168110156117b357600160c060ff1682030191506117d3565b60f78103600185019450806020036101000a855104600182018101935050505b5b5b5b8192505050919050565b60008060006117f2846020015161169f565b905060008185602001510190506000828660000151039050818194509450505050915091565b606061187a826040518060400160405280602081526020017f5361666545524332303a206c6f772d6c6576656c2063616c6c206661696c65648152508573ffffffffffffffffffffffffffffffffffffffff16611b169092919063ffffffff16565b90506000815111156119025780806020019051602081101561189b57600080fd5b8101908080519060200190929190505050611901576040517f08c379a000000000000000000000000000000000000000000000000000000000815260040180806020018281038252602a815260200180611f8f602a913960400191505060405180910390fd5b5b505050565b600081836000018054905011611968576040517f08c379a0000000000000000000000000000000000000000000000000000000008152600401808060200182810382526022815260200180611e766022913960400191505060405180910390fd5b82600001828154811061197757fe5b9060005260206000200154905092915050565b600080836001016000848152602001908152602001600020541415905092915050565b600081600001805490509050919050565b60006119ca838361198a565b611a23578260000182908060018154018082558091505060019003906000526020600020016000909190919091505582600001805490508360010160008481526020019081526020016000208190555060019050611a28565b600090505b92915050565b60008083600101600084815260200190815260200160002054905060008114611b0a5760006001820390506000600186600001805490500390506000866000018281548110611a7957fe5b9060005260206000200154905080876000018481548110611a9657fe5b9060005260206000200181905550600183018760010160008381526020019081526020016000208190555086600001805480611ace57fe5b60019003818190600052602060002001600090559055866001016000878152602001908152602001600020600090556001945050505050611b10565b60009150505b92915050565b6060611b258484600085611b2e565b90509392505050565b606082471015611b89576040517f08c379a0000000000000000000000000000000000000000000000000000000008152600401808060200182810382526026815260200180611ec76026913960400191505060405180910390fd5b611b9285611cd7565b611c04576040517f08c379a000000000000000000000000000000000000000000000000000000000815260040180806020018281038252601d8152602001807f416464726573733a2063616c6c20746f206e6f6e2d636f6e747261637400000081525060200191505060405180910390fd5b600060608673ffffffffffffffffffffffffffffffffffffffff1685876040518082805190602001908083835b60208310611c545780518252602082019150602081019050602083039250611c31565b6001836020036101000a03801982511681845116808217855250505050505090500191505060006040518083038185875af1925050503d8060008114611cb6576040519150601f19603f3d011682016040523d82523d6000602084013e611cbb565b606091505b5091509150611ccb828286611cea565b92505050949350505050565b600080823b905060008111915050919050565b60608315611cfa57829050611daf565b600083511115611d0d5782518084602001fd5b816040517f08c379a00000000000000000000000000000000000000000000000000000000081526004018080602001828103825283818151815260200191508051906020019080838360005b83811015611d74578082015181840152602081019050611d59565b50505050905090810190601f168015611da15780820380516001836020036101000a031916815260200191505b509250505060405180910390fd5b9392505050565b604051806040016040528060008152602001600081525090565b828054600181600116156101000203166002900490600052602060002090601f016020900481019282601f10611e1157805160ff1916838001178555611e3f565b82800160010185558215611e3f579182015b82811115611e3e578251825591602001919060010190611e23565b5b509050611e4c9190611e50565b5090565b611e7291905b80821115611e6e576000816000905550600101611e56565b5090565b9056fe456e756d657261626c655365743a20696e646578206f7574206f6620626f756e6473416363657373436f6e74726f6c3a2073656e646572206d75737420626520616e2061646d696e20746f206772616e74416464726573733a20696e73756666696369656e742062616c616e636520666f722063616c6c416363657373436f6e74726f6c3a2073656e646572206d75737420626520616e2061646d696e20746f207265766f6b654d696e7461626c6545524332305072656469636174653a20494e56414c49445f5349474e41545552454d696e7461626c6545524332305072656469636174653a20494e56414c49445f52454345495645525472616e7366657228616464726573732c616464726573732c75696e74323536295361666545524332303a204552433230206f7065726174696f6e20646964206e6f742073756363656564416363657373436f6e74726f6c3a2063616e206f6e6c792072656e6f756e636520726f6c657320666f722073656c66a264697066735822122098761533a8bbffe363a3b14264853d71801acd9d630a809283884e8bd14a408c64736f6c63430006060033",
  "linkReferences": {},
  "deployedLinkReferences": {}
}