{"abi":[{"type":"function","name":"a","inputs":[],"outputs":[{"name":"","type":"uint256","internalType":"uint256"}],"stateMutability":"view"},{"type":"function","name":"b","inputs":[],"outputs":[{"name":"","type":"uint256","internalType":"uint256"}],"stateMutability":"view"}],"bytecode":{"object":"0x60806040526000805460ff19169055348015601957600080fd5b506097806100286000396000f3fe6080604052348015600f57600080fd5b506004361060325760003560e01c80630dbe671f1460375780634df7e3d014604f575b600080fd5b603d6055565b60408051918252519081900360200190f35b603d605b565b60025481565b6001548156fea26469706673582212204ece99f320755745fbf36d765ac54966deef2070a6a276cb22fe4e1a0c897ac664736f6c63430006060033","linkReferences":{}},"methodIdentifiers":{"a()":"0dbe671f","b()":"4df7e3d0"},"id":71}