{
  "_format": "hh-sol-artifact-1",
  "contractName": "TestChildTunnel",
  "sourceName": "contracts/test/TestChildTunnel.sol",
  "abi": [
    {
      "anonymous": false,
      "inputs": [
        {
          "indexed": false,
          "internalType": "bytes",
          "name": "message",
          "type": "bytes"
        }
      ],
      "name": "MessageSent",
      "type": "event"
    },
    {
      "anonymous": false,
      "inputs": [
        {
          "indexed": true,
          "internalType": "bytes32",
          "name": "role",
          "type": "bytes32"
        },
        {
          "indexed": true,
          "internalType": "bytes32",
          "name": "previousAdminRole",
          "type": "bytes32"
        },
        {
          "indexed": true,
          "internalType": "bytes32",
          "name": "newAdminRole",
          "type": "bytes32"
        }
      ],
      "name": "RoleAdminChanged",
      "type": "event"
    },
    {
      "anonymous": false,
      "inputs": [
        {
          "indexed": true,
          "internalType": "bytes32",
          "name": "role",
          "type": "bytes32"
        },
        {
          "indexed": true,
          "internalType": "address",
          "name": "account",
          "type": "address"
        },
        {
          "indexed": true,
          "internalType": "address",
          "name": "sender",
          "type": "address"
        }
      ],
      "name": "RoleGranted",
      "type": "event"
    },
    {
      "anonymous": false,
      "inputs": [
        {
          "indexed": true,
          "internalType": "bytes32",
          "name": "role",
          "type": "bytes32"
        },
        {
          "indexed": true,
          "internalType": "address",
          "name": "account",
          "type": "address"
        },
        {
          "indexed": true,
          "internalType": "address",
          "name": "sender",
          "type": "address"
        }
      ],
      "name": "RoleRevoked",
      "type": "event"
    },
    {
      "inputs": [],
      "name": "DEFAULT_ADMIN_ROLE",
      "outputs": [
        {
          "internalType": "bytes32",
          "name": "",
          "type": "bytes32"
        }
      ],
      "stateMutability": "view",
      "type": "function"
    },
    {
      "inputs": [],
      "name": "STATE_SYNCER_ROLE",
      "outputs": [
        {
          "internalType": "bytes32",
          "name": "",
          "type": "bytes32"
        }
      ],
      "stateMutability": "view",
      "type": "function"
    },
    {
      "inputs": [],
      "name": "TYPE1",
      "outputs": [
        {
          "internalType": "bytes32",
          "name": "",
          "type": "bytes32"
        }
      ],
      "stateMutability": "view",
      "type": "function"
    },
    {
      "inputs": [],
      "name": "TYPE2",
      "outputs": [
        {
          "internalType": "bytes32",
          "name": "",
          "type": "bytes32"
        }
      ],
      "stateMutability": "view",
      "type": "function"
    },
    {
      "inputs": [
        {
          "internalType": "bytes32",
          "name": "role",
          "type": "bytes32"
        }
      ],
      "name": "getRoleAdmin",
      "outputs": [
        {
          "internalType": "bytes32",
          "name": "",
          "type": "bytes32"
        }
      ],
      "stateMutability": "view",
      "type": "function"
    },
    {
      "inputs": [
        {
          "internalType": "bytes32",
          "name": "role",
          "type": "bytes32"
        },
        {
          "internalType": "uint256",
          "name": "index",
          "type": "uint256"
        }
      ],
      "name": "getRoleMember",
      "outputs": [
        {
          "internalType": "address",
          "name": "",
          "type": "address"
        }
      ],
      "stateMutability": "view",
      "type": "function"
    },
    {
      "inputs": [
        {
          "internalType": "bytes32",
          "name": "role",
          "type": "bytes32"
        }
      ],
      "name": "getRoleMemberCount",
      "outputs": [
        {
          "internalType": "uint256",
          "name": "",
          "type": "uint256"
        }
      ],
      "stateMutability": "view",
      "type": "function"
    },
    {
      "inputs": [
        {
          "internalType": "bytes32",
          "name": "role",
          "type": "bytes32"
        },
        {
          "internalType": "address",
          "name": "account",
          "type": "address"
        }
      ],
      "name": "grantRole",
      "outputs": [],
      "stateMutability": "nonpayable",
      "type": "function"
    },
    {
      "inputs": [
        {
          "internalType": "bytes32",
          "name": "role",
          "type": "bytes32"
        },
        {
          "internalType": "address",
          "name": "account",
          "type": "address"
        }
      ],
      "name": "hasRole",
      "outputs": [
        {
          "internalType": "bool",
          "name": "",
          "type": "bool"
        }
      ],
      "stateMutability": "view",
      "type": "function"
    },
    {
      "inputs": [],
      "name": "number",
      "outputs": [
        {
          "internalType": "uint256",
          "name": "",
          "type": "uint256"
        }
      ],
      "stateMutability": "view",
      "type": "function"
    },
    {
      "inputs": [
        {
          "internalType": "uint256",
          "name": "",
          "type": "uint256"
        },
        {
          "internalType": "bytes",
          "name": "message",
          "type": "bytes"
        }
      ],
      "name": "onStateReceive",
      "outputs": [],
      "stateMutability": "nonpayable",
      "type": "function"
    },
    {
      "inputs": [
        {
          "internalType": "bytes32",
          "name": "role",
          "type": "bytes32"
        },
        {
          "internalType": "address",
          "name": "account",
          "type": "address"
        }
      ],
      "name": "renounceRole",
      "outputs": [],
      "stateMutability": "nonpayable",
      "type": "function"
    },
    {
      "inputs": [
        {
          "internalType": "bytes32",
          "name": "role",
          "type": "bytes32"
        },
        {
          "internalType": "address",
          "name": "account",
          "type": "address"
        }
      ],
      "name": "revokeRole",
      "outputs": [],
      "stateMutability": "nonpayable",
      "type": "function"
    },
    {
      "inputs": [
        {
          "internalType": "bytes",
          "name": "message",
          "type": "bytes"
        }
      ],
      "name": "sendMessage",
      "outputs": [],
      "stateMutability": "nonpayable",
      "type": "function"
    }
  ],
  "bytecode": "0x6080604052620000196000801b33620000ae60201b60201c565b6200006260405180807f53544154455f53594e4345525f524f4c4500000000000000000000000000000081525060110190506040518091039020611001620000ae60201b60201c565b620000a86040518060400160405280600b81526020017f4368696c6454756e6e656c000000000000000000000000000000000000000000815250620000c460201b60201c565b620003a3565b620000c082826200017460201b60201c565b5050565b806040516020018082805190602001908083835b60208310620000fd5780518252602082019150602081019050602083039250620000d8565b6001836020036101000a038019825116818451168082178552505050505050905001807f3a20494e53554646494349454e545f5045524d495353494f4e53000000000000815250601a019150506040516020818303038152906040526001908051906020019062000170929190620002f4565b5050565b620001a2816000808581526020019081526020016000206000016200021760201b62000c841790919060201c565b156200021357620001b86200024f60201b60201c565b73ffffffffffffffffffffffffffffffffffffffff168173ffffffffffffffffffffffffffffffffffffffff16837f2f8788117e7eff1d82e926ec794901d17c78024a50270940304540a733656f0d60405160405180910390a45b5050565b600062000247836000018373ffffffffffffffffffffffffffffffffffffffff1660001b6200025760201b60201c565b905092915050565b600033905090565b60006200026b8383620002d160201b60201c565b620002c6578260000182908060018154018082558091505060019003906000526020600020016000909190919091505582600001805490508360010160008481526020019081526020016000208190555060019050620002cb565b600090505b92915050565b600080836001016000848152602001908152602001600020541415905092915050565b828054600181600116156101000203166002900490600052602060002090601f016020900481019282601f106200033757805160ff191683800117855562000368565b8280016001018555821562000368579182015b82811115620003675782518255916020019190600101906200034a565b5b5090506200037791906200037b565b5090565b620003a091905b808211156200039c57600081600090555060010162000382565b5090565b90565b610fd980620003b36000396000f3fe608060405234801561001057600080fd5b50600436106100ea5760003560e01c80638381f58a1161008c578063a217fddf11610066578063a217fddf14610443578063a618f4c614610461578063ca15c8731461047f578063d547741f146104c1576100ea565b80638381f58a146103475780639010d07c1461036557806391d14854146103dd576100ea565b806336568abe116100c857806336568abe146102445780634dee44981461029257806367cedeef146102b057806382646a58146102ce576100ea565b8063248a9ca3146100ef57806326c53bea146101315780632f2ff15d146101f6575b600080fd5b61011b6004803603602081101561010557600080fd5b810190808035906020019092919050505061050f565b6040518082815260200191505060405180910390f35b6101f46004803603604081101561014757600080fd5b81019080803590602001909291908035906020019064010000000081111561016e57600080fd5b82018360208201111561018057600080fd5b803590602001918460018302840111640100000000831117156101a257600080fd5b91908080601f016020809104026020016040519081016040528093929190818152602001838380828437600081840152601f19601f82011690508083019250505050505050919291929050505061052e565b005b6102426004803603604081101561020c57600080fd5b8101908080359060200190929190803573ffffffffffffffffffffffffffffffffffffffff169060200190929190505050610649565b005b6102906004803603604081101561025a57600080fd5b8101908080359060200190929190803573ffffffffffffffffffffffffffffffffffffffff1690602001909291905050506106d2565b005b61029a61076b565b6040518082815260200191505060405180910390f35b6102b86107a4565b6040518082815260200191505060405180910390f35b610345600480360360208110156102e457600080fd5b810190808035906020019064010000000081111561030157600080fd5b82018360208201111561031357600080fd5b8035906020019184600183028401116401000000008311171561033557600080fd5b90919293919293905050506107dd565b005b61034f61082e565b6040518082815260200191505060405180910390f35b61039b6004803603604081101561037b57600080fd5b810190808035906020019092919080359060200190929190505050610834565b604051808273ffffffffffffffffffffffffffffffffffffffff1673ffffffffffffffffffffffffffffffffffffffff16815260200191505060405180910390f35b610429600480360360408110156103f357600080fd5b8101908080359060200190929190803573ffffffffffffffffffffffffffffffffffffffff169060200190929190505050610865565b604051808215151515815260200191505060405180910390f35b61044b610896565b6040518082815260200191505060405180910390f35b61046961089d565b6040518082815260200191505060405180910390f35b6104ab6004803603602081101561049557600080fd5b81019080803590602001909291905050506108d6565b6040518082815260200191505060405180910390f35b61050d600480360360408110156104d757600080fd5b8101908080359060200190929190803573ffffffffffffffffffffffffffffffffffffffff1690602001909291905050506108fc565b005b6000806000838152602001908152602001600020600201549050919050565b60405180807f53544154455f53594e4345525f524f4c450000000000000000000000000000008152506011019050604051809103902061057581610570610985565b610865565b60019061063a576040517f08c379a0000000000000000000000000000000000000000000000000000000008152600401808060200182810382528381815460018160011615610100020316600290048152602001915080546001816001161561010002031660029004801561062b5780601f106106005761010080835404028352916020019161062b565b820191906000526020600020905b81548152906001019060200180831161060e57829003601f168201915b50509250505060405180910390fd5b506106448261098d565b505050565b61066f6000808481526020019081526020016000206002015461066a610985565b610865565b6106c4576040517f08c379a000000000000000000000000000000000000000000000000000000000815260040180806020018281038252602f815260200180610f16602f913960400191505060405180910390fd5b6106ce8282610a60565b5050565b6106da610985565b73ffffffffffffffffffffffffffffffffffffffff168173ffffffffffffffffffffffffffffffffffffffff161461075d576040517f08c379a000000000000000000000000000000000000000000000000000000000815260040180806020018281038252602f815260200180610f75602f913960400191505060405180910390fd5b6107678282610af3565b5050565b60405180807f53544154455f53594e4345525f524f4c450000000000000000000000000000008152506011019050604051809103902081565b60405180807f54595045310000000000000000000000000000000000000000000000000000008152506005019050604051809103902081565b61082a82828080601f016020809104026020016040519081016040528093929190818152602001838380828437600081840152601f19601f82011690508083019250505050505050610b86565b5050565b60025481565b600061085d82600080868152602001908152602001600020600001610c2590919063ffffffff16565b905092915050565b600061088e82600080868152602001908152602001600020600001610c3f90919063ffffffff16565b905092915050565b6000801b81565b60405180807f54595045320000000000000000000000000000000000000000000000000000008152506005019050604051809103902081565b60006108f5600080848152602001908152602001600020600001610c6f565b9050919050565b6109226000808481526020019081526020016000206002015461091d610985565b610865565b610977576040517f08c379a0000000000000000000000000000000000000000000000000000000008152600401808060200182810382526030815260200180610f456030913960400191505060405180910390fd5b6109818282610af3565b5050565b600033905090565b6000808280602001905160408110156109a557600080fd5b810190808051906020019092919080519060200190929190505050915091508160405180807f5459504531000000000000000000000000000000000000000000000000000000815250600501905060405180910390201415610a11578060025401600281905550610a5b565b8160405180807f5459504532000000000000000000000000000000000000000000000000000000815250600501905060405180910390201415610a5a5780600254036002819055505b5b505050565b610a8781600080858152602001908152602001600020600001610c8490919063ffffffff16565b15610aef57610a94610985565b73ffffffffffffffffffffffffffffffffffffffff168173ffffffffffffffffffffffffffffffffffffffff16837f2f8788117e7eff1d82e926ec794901d17c78024a50270940304540a733656f0d60405160405180910390a45b5050565b610b1a81600080858152602001908152602001600020600001610cb490919063ffffffff16565b15610b8257610b27610985565b73ffffffffffffffffffffffffffffffffffffffff168173ffffffffffffffffffffffffffffffffffffffff16837ff6391f5c32d9c69d2a47ea670b442974b53935d1edc7fd64eb21e047a839171b60405160405180910390a45b5050565b7f8c5261668696ce22758910d05bab8f186d6eb247ceac2af2e82c7dc17669b036816040518080602001828103825283818151815260200191508051906020019080838360005b83811015610be8578082015181840152602081019050610bcd565b50505050905090810190601f168015610c155780820380516001836020036101000a031916815260200191505b509250505060405180910390a150565b6000610c348360000183610ce4565b60001c905092915050565b6000610c67836000018373ffffffffffffffffffffffffffffffffffffffff1660001b610d67565b905092915050565b6000610c7d82600001610d8a565b9050919050565b6000610cac836000018373ffffffffffffffffffffffffffffffffffffffff1660001b610d9b565b905092915050565b6000610cdc836000018373ffffffffffffffffffffffffffffffffffffffff1660001b610e0b565b905092915050565b600081836000018054905011610d45576040517f08c379a0000000000000000000000000000000000000000000000000000000008152600401808060200182810382526022815260200180610ef46022913960400191505060405180910390fd5b826000018281548110610d5457fe5b9060005260206000200154905092915050565b600080836001016000848152602001908152602001600020541415905092915050565b600081600001805490509050919050565b6000610da78383610d67565b610e00578260000182908060018154018082558091505060019003906000526020600020016000909190919091505582600001805490508360010160008481526020019081526020016000208190555060019050610e05565b600090505b92915050565b60008083600101600084815260200190815260200160002054905060008114610ee75760006001820390506000600186600001805490500390506000866000018281548110610e5657fe5b9060005260206000200154905080876000018481548110610e7357fe5b9060005260206000200181905550600183018760010160008381526020019081526020016000208190555086600001805480610eab57fe5b60019003818190600052602060002001600090559055866001016000878152602001908152602001600020600090556001945050505050610eed565b60009150505b9291505056fe456e756d657261626c655365743a20696e646578206f7574206f6620626f756e6473416363657373436f6e74726f6c3a2073656e646572206d75737420626520616e2061646d696e20746f206772616e74416363657373436f6e74726f6c3a2073656e646572206d75737420626520616e2061646d696e20746f207265766f6b65416363657373436f6e74726f6c3a2063616e206f6e6c792072656e6f756e636520726f6c657320666f722073656c66a26469706673582212202d1e1f38a74abc3371caea56e9550583a4e23c418e0eb87dcc05ffefda601dd364736f6c63430006060033",
  "linkReferences": {},
  "deployedLinkReferences": {}
}