{"abi":[{"type":"constructor","inputs":[],"stateMutability":"nonpayable"},{"type":"function","name":"CHAIN_EXIT_EVENT_SIG","inputs":[],"outputs":[{"name":"","type":"bytes32","internalType":"bytes32"}],"stateMutability":"view"},{"type":"function","name":"DEFAULT_ADMIN_ROLE","inputs":[],"outputs":[{"name":"","type":"bytes32","internalType":"bytes32"}],"stateMutability":"view"},{"type":"function","name":"MANAGER_ROLE","inputs":[],"outputs":[{"name":"","type":"bytes32","internalType":"bytes32"}],"stateMutability":"view"},{"type":"function","name":"TOKEN_TYPE","inputs":[],"outputs":[{"name":"","type":"bytes32","internalType":"bytes32"}],"stateMutability":"view"},{"type":"function","name":"exitTokens","inputs":[{"name":"rootToken","type":"address","internalType":"address"},{"name":"log","type":"bytes","internalType":"bytes"}],"outputs":[],"stateMutability":"nonpayable"},{"type":"function","name":"getRoleAdmin","inputs":[{"name":"role","type":"bytes32","internalType":"bytes32"}],"outputs":[{"name":"","type":"bytes32","internalType":"bytes32"}],"stateMutability":"view"},{"type":"function","name":"getRoleMember","inputs":[{"name":"role","type":"bytes32","internalType":"bytes32"},{"name":"index","type":"uint256","internalType":"uint256"}],"outputs":[{"name":"","type":"address","internalType":"address"}],"stateMutability":"view"},{"type":"function","name":"getRoleMemberCount","inputs":[{"name":"role","type":"bytes32","internalType":"bytes32"}],"outputs":[{"name":"","type":"uint256","internalType":"uint256"}],"stateMutability":"view"},{"type":"function","name":"grantRole","inputs":[{"name":"role","type":"bytes32","internalType":"bytes32"},{"name":"account","type":"address","internalType":"address"}],"outputs":[],"stateMutability":"nonpayable"},{"type":"function","name":"hasRole","inputs":[{"name":"role","type":"bytes32","internalType":"bytes32"},{"name":"account","type":"address","internalType":"address"}],"outputs":[{"name":"","type":"bool","internalType":"bool"}],"stateMutability":"view"},{"type":"function","name":"initialize","inputs":[{"name":"_owner","type":"address","internalType":"address"}],"outputs":[],"stateMutability":"nonpayable"},{"type":"function","name":"lockTokens","inputs":[{"name":"depositor","type":"address","internalType":"address"},{"name":"depositReceiver","type":"address","internalType":"address"},{"name":"rootToken","type":"address","internalType":"address"},{"name":"depositData","type":"bytes","internalType":"bytes"}],"outputs":[],"stateMutability":"nonpayable"},{"type":"function","name":"onERC1155BatchReceived","inputs":[{"name":"","type":"address","internalType":"address"},{"name":"","type":"address","internalType":"address"},{"name":"","type":"uint256[]","internalType":"uint256[]"},{"name":"","type":"uint256[]","internalType":"uint256[]"},{"name":"","type":"bytes","internalType":"bytes"}],"outputs":[{"name":"","type":"bytes4","internalType":"bytes4"}],"stateMutability":"nonpayable"},{"type":"function","name":"onERC1155Received","inputs":[{"name":"","type":"address","internalType":"address"},{"name":"","type":"address","internalType":"address"},{"name":"","type":"uint256","internalType":"uint256"},{"name":"","type":"uint256","internalType":"uint256"},{"name":"","type":"bytes","internalType":"bytes"}],"outputs":[{"name":"","type":"bytes4","internalType":"bytes4"}],"stateMutability":"nonpayable"},{"type":"function","name":"renounceRole","inputs":[{"name":"role","type":"bytes32","internalType":"bytes32"},{"name":"account","type":"address","internalType":"address"}],"outputs":[],"stateMutability":"nonpayable"},{"type":"function","name":"revokeRole","inputs":[{"name":"role","type":"bytes32","internalType":"bytes32"},{"name":"account","type":"address","internalType":"address"}],"outputs":[],"stateMutability":"nonpayable"},{"type":"function","name":"supportsInterface","inputs":[{"name":"interfaceId","type":"bytes4","internalType":"bytes4"}],"outputs":[{"name":"","type":"bool","internalType":"bool"}],"stateMutability":"view"},{"type":"event","name":"LockedBatchChainExitERC1155","inputs":[{"name":"depositor","type":"address","indexed":true,"internalType":"address"},{"name":"depositReceiver","type":"address","indexed":true,"internalType":"address"},{"name":"rootToken","type":"address","indexed":true,"internalType":"address"},{"name":"ids","type":"uint256[]","indexed":false,"internalType":"uint256[]"},{"name":"amounts","type":"uint256[]","indexed":false,"internalType":"uint256[]"}],"anonymous":false},{"type":"event","name":"RoleAdminChanged","inputs":[{"name":"role","type":"bytes32","indexed":true,"internalType":"bytes32"},{"name":"previousAdminRole","type":"bytes32","indexed":true,"internalType":"bytes32"},{"name":"newAdminRole","type":"bytes32","indexed":true,"internalType":"bytes32"}],"anonymous":false},{"type":"event","name":"RoleGranted","inputs":[{"name":"role","type":"bytes32","indexed":true,"internalType":"bytes32"},{"name":"account","type":"address","indexed":true,"internalType":"address"},{"name":"sender","type":"address","indexed":true,"internalType":"address"}],"anonymous":false},{"type":"event","name":"RoleRevoked","inputs":[{"name":"role","type":"bytes32","indexed":true,"internalType":"bytes32"},{"name":"account","type":"address","indexed":true,"internalType":"address"},{"name":"sender","type":"address","indexed":true,"internalType":"address"}],"anonymous":false}],"bytecode":{"object":"0x60806040526003805460ff191690553480156200001b57600080fd5b50620000376301ffc9a760e01b6001600160e01b036200005816565b62000052630271189760e51b6001600160e01b036200005816565b620000dd565b6001600160e01b03198082161415620000b8576040805162461bcd60e51b815260206004820152601c60248201527f4552433136353a20696e76616c696420696e7465726661636520696400000000604482015290519081900360640190fd5b6001600160e01b0319166000908152602081905260409020805460ff19166001179055565b61225780620000ed6000396000f3fe608060405234801561001057600080fd5b506004361061010b5760003560e01c8063bc197c81116100a2578063d547741f11610071578063d547741f146103de578063e375b64e1461040a578063ec87621c14610499578063f23a6e61146104a1578063f741a417146105345761010b565b8063bc197c811461024f578063c23ed3e714610393578063c4d66de81461039b578063ca15c873146103c15761010b565b8063609c92b8116100de578063609c92b8146101d45780639010d07c146101dc57806391d148541461021b578063a217fddf146102475761010b565b806301ffc9a714610110578063248a9ca31461014b5780632f2ff15d1461017a57806336568abe146101a8575b600080fd5b6101376004803603602081101561012657600080fd5b50356001600160e01b0319166105b2565b604080519115158252519081900360200190f35b6101686004803603602081101561016157600080fd5b50356105d5565b60408051918252519081900360200190f35b6101a66004803603604081101561019057600080fd5b50803590602001356001600160a01b03166105ea565b005b6101a6600480360360408110156101be57600080fd5b50803590602001356001600160a01b0316610656565b6101686106b7565b6101ff600480360360408110156101f257600080fd5b50803590602001356106df565b604080516001600160a01b039092168252519081900360200190f35b6101376004803603604081101561023157600080fd5b50803590602001356001600160a01b0316610706565b610168610724565b610376600480360360a081101561026557600080fd5b6001600160a01b038235811692602081013590911691810190606081016040820135600160201b81111561029857600080fd5b8201836020820111156102aa57600080fd5b803590602001918460208302840111600160201b831117156102cb57600080fd5b919390929091602081019035600160201b8111156102e857600080fd5b8201836020820111156102fa57600080fd5b803590602001918460208302840111600160201b8311171561031b57600080fd5b919390929091602081019035600160201b81111561033857600080fd5b82018360208201111561034a57600080fd5b803590602001918460018302840111600160201b8311171561036b57600080fd5b509092509050610729565b604080516001600160e01b03199092168252519081900360200190f35b61016861073d565b6101a6600480360360208110156103b157600080fd5b50356001600160a01b0316610758565b610168600480360360208110156103d757600080fd5b5035610825565b6101a6600480360360408110156103f457600080fd5b50803590602001356001600160a01b031661083c565b6101a66004803603608081101561042057600080fd5b6001600160a01b0382358116926020810135821692604082013590921691810190608081016060820135600160201b81111561045b57600080fd5b82018360208201111561046d57600080fd5b803590602001918460018302840111600160201b8311171561048e57600080fd5b509092509050610895565b610168610d65565b610376600480360360a08110156104b757600080fd5b6001600160a01b03823581169260208101359091169160408201359160608101359181019060a081016080820135600160201b8111156104f657600080fd5b82018360208201111561050857600080fd5b803590602001918460018302840111600160201b8311171561052957600080fd5b509092509050610d89565b6101a66004803603604081101561054a57600080fd5b6001600160a01b038235169190810190604081016020820135600160201b81111561057457600080fd5b82018360208201111561058657600080fd5b803590602001918460018302840111600160201b831117156105a757600080fd5b509092509050610d95565b6001600160e01b0319811660009081526020819052604090205460ff165b919050565b60009081526001602052604090206002015490565b60008281526001602052604090206002015461060d90610608611603565b610706565b6106485760405162461bcd60e51b815260040180806020018281038252602f815260200180612075602f913960400191505060405180910390fd5b6106528282611608565b5050565b61065e611603565b6001600160a01b0316816001600160a01b0316146106ad5760405162461bcd60e51b815260040180806020018281038252602f8152602001806121f3602f913960400191505060405180910390fd5b6106528282611677565b604080516f436861696e457869744552433131353560801b8152905190819003601001902081565b60008281526001602052604081206106fd908363ffffffff6116e616565b90505b92915050565b60008281526001602052604081206106fd908363ffffffff6116f216565b600081565b63bc197c8160e01b98975050505050505050565b60405180602c6121678239602c019050604051809103902081565b60035460ff16156107a1576040805162461bcd60e51b815260206004820152600e60248201526d185b1c9958591e481a5b9a5d195960921b604482015290519081900360640190fd5b6107df6040518060400160405280601981526020017f436861696e457869744552433131353550726564696361746500000000000000815250611707565b6107ea600082610648565b604080516b4d414e414745525f524f4c4560a01b8152905190819003600c0190206108159082610648565b506003805460ff19166001179055565b6000818152600160205260408120610700906117a5565b60008281526001602052604090206002015461085a90610608611603565b6106ad5760405162461bcd60e51b81526004018080602001828103825260308152602001806121376030913960400191505060405180910390fd5b604080516b4d414e414745525f524f4c4560a01b8152905190819003600c0190206108c281610608611603565b6002906109625760405162461bcd60e51b81526020600482019081528254600260001961010060018416150201909116046024830181905290918291604490910190849080156109535780601f1061092857610100808354040283529160200191610953565b820191906000526020600020905b81548152906001019060200180831161093657829003601f168201915b50509250505060405180910390fd5b5060608060608585606081101561097857600080fd5b810190602081018135600160201b81111561099257600080fd5b8201836020820111156109a457600080fd5b803590602001918460208302840111600160201b831117156109c557600080fd5b9190808060200260200160405190810160405280939291908181526020018383602002808284376000920191909152509295949360208101935035915050600160201b811115610a1457600080fd5b820183602082011115610a2657600080fd5b803590602001918460208302840111600160201b83111715610a4757600080fd5b9190808060200260200160405190810160405280939291908181526020018383602002808284376000920191909152509295949360208101935035915050600160201b811115610a9657600080fd5b820183602082011115610aa857600080fd5b803590602001918460018302840111600160201b83111715610ac957600080fd5b91908080601f016020809104026020016040519081016040528093929190818152602001838380828437600081840152601f19601f820116905080830192505050505050509192919290505050925092509250866001600160a01b0316886001600160a01b03168a6001600160a01b03167fecf1f094c6a68f46c74b2e3aae719d6996bf2172e8bac7413a744748938da99e8686604051808060200180602001838103835285818151815260200191508051906020019060200280838360005b83811015610ba1578181015183820152602001610b89565b50505050905001838103825284818151815260200191508051906020019060200280838360005b83811015610be0578181015183820152602001610bc8565b5050505090500194505050505060405180910390a4604051631759616b60e11b81526001600160a01b038a811660048301908152306024840181905260a060448501908152875160a48601528751938c1694632eb2c2d6948f948a938a938a936064820191608481019160c4909101906020808a01910280838360005b83811015610c75578181015183820152602001610c5d565b50505050905001848103835286818151815260200191508051906020019060200280838360005b83811015610cb4578181015183820152602001610c9c565b50505050905001848103825285818151815260200191508051906020019080838360005b83811015610cf0578181015183820152602001610cd8565b50505050905090810190601f168015610d1d5780820380516001836020036101000a031916815260200191505b5098505050505050505050600060405180830381600087803b158015610d4257600080fd5b505af1158015610d56573d6000803e3d6000fd5b50505050505050505050505050565b604080516b4d414e414745525f524f4c4560a01b8152905190819003600c01902081565b60009695505050505050565b604080516b4d414e414745525f524f4c4560a01b8152905190819003600c019020610dc281610608611603565b600290610e285760405162461bcd60e51b81526020600482019081528254600260001961010060018416150201909116046024830181905290918291604490910190849080156109535780601f1061092857610100808354040283529160200191610953565b506060610e72610e6d85858080601f0160208091040260200160405190810160405280939291908181526020018383808284376000920191909152506117b092505050565b6117d5565b90506060610e9382600181518110610e8657fe5b60200260200101516117d5565b90506060610eb483600281518110610ea757fe5b60200260200101516118bd565b90506040518080612167602c9139602c0190506040518091039020610eec83600081518110610edf57fe5b602002602001015161193a565b14156115c3576000610f0483600181518110610edf57fe5b90506001600160a01b038116610f4b5760405162461bcd60e51b815260040180806020018281038252602b8152602001806120dd602b913960400191505060405180910390fd5b6060806060848060200190516060811015610f6557600080fd5b8101908080516040519392919084600160201b821115610f8457600080fd5b908301906020820185811115610f9957600080fd5b82518660208202830111600160201b82111715610fb557600080fd5b82525081516020918201928201910280838360005b83811015610fe2578181015183820152602001610fca565b5050505090500160405260200180516040519392919084600160201b82111561100a57600080fd5b90830190602082018581111561101f57600080fd5b82518660208202830111600160201b8211171561103b57600080fd5b82525081516020918201928201910280838360005b83811015611068578181015183820152602001611050565b5050505090500160405260200180516040519392919084600160201b82111561109057600080fd5b9083019060208201858111156110a557600080fd5b8251600160201b8111828201881017156110be57600080fd5b82525081516020918201929091019080838360005b838110156110eb5781810151838201526020016110d3565b50505050905090810190601f1680156111185780820380516001836020036101000a031916815260200191505b5060405250505092509250925060008b90506060816001600160a01b0316634e1273f4611146308851611988565b876040518363ffffffff1660e01b8152600401808060200180602001838103835285818151815260200191508051906020019060200280838360005b8381101561119a578181015183820152602001611182565b50505050905001838103825284818151815260200191508051906020019060200280838360005b838110156111d95781810151838201526020016111c1565b5050505090500194505050505060006040518083038186803b1580156111fe57600080fd5b505afa158015611212573d6000803e3d6000fd5b505050506040513d6000823e601f3d908101601f19168201604052602081101561123b57600080fd5b8101908080516040519392919084600160201b82111561125a57600080fd5b90830190602082018581111561126f57600080fd5b82518660208202830111600160201b8211171561128b57600080fd5b82525081516020918201928201910280838360005b838110156112b85781810151838201526020016112a0565b50505050905001604052505050905060606000806112d68488611a94565b925092509250811561144957846001600160a01b0316631f7fdffa8a8a868a6040518563ffffffff1660e01b815260040180856001600160a01b03166001600160a01b03168152602001806020018060200180602001848103845287818151815260200191508051906020019060200280838360005b8381101561136457818101518382015260200161134c565b50505050905001848103835286818151815260200191508051906020019060200280838360005b838110156113a357818101518382015260200161138b565b50505050905001848103825285818151815260200191508051906020019080838360005b838110156113df5781810151838201526020016113c7565b50505050905090810190601f16801561140c5780820380516001836020036101000a031916815260200191505b50975050505050505050600060405180830381600087803b15801561143057600080fd5b505af1158015611444573d6000803e3d6000fd5b505050505b80156115b557604051631759616b60e11b815230600482018181526001600160a01b038c8116602485015260a0604485019081528c5160a48601528c51918a1694632eb2c2d694938f938f938c938f93926064820191608481019160c4909101906020808a01910280838360005b838110156114cf5781810151838201526020016114b7565b50505050905001848103835286818151815260200191508051906020019060200280838360005b8381101561150e5781810151838201526020016114f6565b50505050905001848103825285818151815260200191508051906020019080838360005b8381101561154a578181015183820152602001611532565b50505050905090810190601f1680156115775780820380516001836020036101000a031916815260200191505b5098505050505050505050600060405180830381600087803b15801561159c57600080fd5b505af11580156115b0573d6000803e3d6000fd5b505050505b5050505050505050506115fa565b60405162461bcd60e51b815260040180806020018281038252602f815260200180612108602f913960400191505060405180910390fd5b50505050505050565b335b90565b6000828152600160205260409020611626908263ffffffff611bdd16565b1561065257611633611603565b6001600160a01b0316816001600160a01b0316837f2f8788117e7eff1d82e926ec794901d17c78024a50270940304540a733656f0d60405160405180910390a45050565b6000828152600160205260409020611695908263ffffffff611bf216565b15610652576116a2611603565b6001600160a01b0316816001600160a01b0316837ff6391f5c32d9c69d2a47ea670b442974b53935d1edc7fd64eb21e047a839171b60405160405180910390a45050565b60006106fd8383611c07565b60006106fd836001600160a01b038416611c6b565b806040516020018082805190602001908083835b6020831061173a5780518252601f19909201916020918201910161171b565b51815160209384036101000a60001901801990921691161790527f3a20494e53554646494349454e545f5045524d495353494f4e530000000000009190930190815260408051808303600519018152601a909201905280516106529550600294509201919050611fa0565b600061070082611c83565b6117b861201e565b506040805180820190915281518152602082810190820152919050565b60606117e082611c87565b6117e957600080fd5b60006117f483611cc1565b905060608167ffffffffffffffff8111801561180f57600080fd5b5060405190808252806020026020018201604052801561184957816020015b61183661201e565b81526020019060019003908161182e5790505b509050600061185b8560200151611d1d565b60208601510190506000805b848110156118b25761187883611d80565b915060405180604001604052808381526020018481525084828151811061189b57fe5b602090810291909101015291810191600101611867565b509195945050505050565b80516060906118cb57600080fd5b6000806118d784611e19565b9150915060608167ffffffffffffffff811180156118f457600080fd5b506040519080825280601f01601f19166020018201604052801561191f576020820181803683370190505b50905060208101611931848285611e3f565b50949350505050565b80516000901580159061194f57508151602110155b61195857600080fd5b60008061196484611e19565b8151919350915060208210156119805760208290036101000a90045b949350505050565b60606001600160a01b0383166119cf5760405162461bcd60e51b815260040180806020018281038252602a8152602001806121c9602a913960400191505060405180910390fd5b60008211611a0e5760405162461bcd60e51b81526004018080602001828103825260398152602001806120a46039913960400191505060405180910390fd5b60608267ffffffffffffffff81118015611a2757600080fd5b50604051908082528060200260200182016040528015611a51578160200160208202803683370190505b50905060005b83811015611a8c5784828281518110611a6c57fe5b6001600160a01b0390921660209283029190910190910152600101611a57565b509392505050565b606060008060008551905084518114611ade5760405162461bcd60e51b81526004018080602001828103825260368152602001806121936036913960400191505060405180910390fd5b60608167ffffffffffffffff81118015611af757600080fd5b50604051908082528060200260200182016040528015611b21578160200160208202803683370190505b509050600080805b84811015611bcd57888181518110611b3d57fe5b60200260200101518a8281518110611b5157fe5b60200260200101511015611ba557898181518110611b6b57fe5b6020026020010151898281518110611b7f57fe5b602002602001015103848281518110611b9457fe5b602002602001018181525050600192505b898181518110611bb157fe5b6020026020010151600014611bc557600191505b600101611b29565b5091955093509150509250925092565b60006106fd836001600160a01b038416611e90565b60006106fd836001600160a01b038416611eda565b81546000908210611c495760405162461bcd60e51b81526004018080602001828103825260228152602001806120536022913960400191505060405180910390fd5b826000018281548110611c5857fe5b9060005260206000200154905092915050565b60009081526001919091016020526040902054151590565b5490565b8051600090611c98575060006105d0565b6020820151805160001a9060c0821015611cb7576000925050506105d0565b5060019392505050565b8051600090611cd2575060006105d0565b60008090506000611ce68460200151611d1d565b602085015185519181019250015b80821015611d1457611d0582611d80565b60019093019290910190611cf4565b50909392505050565b8051600090811a6080811015611d375760009150506105d0565b60b8811080611d52575060c08110801590611d52575060f881105b15611d615760019150506105d0565b60c0811015611d755760b5190190506105d0565b60f5190190506105d0565b80516000908190811a6080811015611d9b5760019150611e12565b60b8811015611db057607e1981019150611e12565b60c0811015611ddd5760b78103600185019450806020036101000a85510460018201810193505050611e12565b60f8811015611df25760be1981019150611e12565b60f78103600185019450806020036101000a855104600182018101935050505b5092915050565b6000806000611e2b8460200151611d1d565b602085015194519481019594039392505050565b80611e4957611e8b565b5b60208110611e69578251825260209283019290910190601f1901611e4a565b8015611e8b578251825160208390036101000a60001901801990921691161782525b505050565b6000611e9c8383611c6b565b611ed257508154600181810184556000848152602080822090930184905584548482528286019093526040902091909155610700565b506000610700565b60008181526001830160205260408120548015611f965783546000198083019190810190600090879083908110611f0d57fe5b9060005260206000200154905080876000018481548110611f2a57fe5b600091825260208083209091019290925582815260018981019092526040902090840190558654879080611f5a57fe5b60019003818190600052602060002001600090559055866001016000878152602001908152602001600020600090556001945050505050610700565b6000915050610700565b828054600181600116156101000203166002900490600052602060002090601f016020900481019282601f10611fe157805160ff191683800117855561200e565b8280016001018555821561200e579182015b8281111561200e578251825591602001919060010190611ff3565b5061201a929150612038565b5090565b604051806040016040528060008152602001600081525090565b61160591905b8082111561201a576000815560010161203e56fe456e756d657261626c655365743a20696e646578206f7574206f6620626f756e6473416363657373436f6e74726f6c3a2073656e646572206d75737420626520616e2061646d696e20746f206772616e74436861696e45786974455243313135355072656469636174653a20496e76616c696420726573756c74696e67206172726179206c656e677468436861696e45786974455243313135355072656469636174653a20494e56414c49445f5245434549564552436861696e45786974455243313135355072656469636174653a20494e56414c49445f57495448445241575f534947416363657373436f6e74726f6c3a2073656e646572206d75737420626520616e2061646d696e20746f207265766f6b65436861696e4578697428616464726573732c75696e743235365b5d2c75696e743235365b5d2c627974657329436861696e45786974455243313135355072656469636174653a204172726179206c656e677468206d69736d6174636820666f756e64436861696e45786974455243313135355072656469636174653a20496e76616c69642061646472657373416363657373436f6e74726f6c3a2063616e206f6e6c792072656e6f756e636520726f6c657320666f722073656c66a264697066735822122026e4fadc510c9a89c6dc54fabfc9bd7ed2e4c12a06d61705a03284e171d7e04e64736f6c63430006060033","linkReferences":{}},"methodIdentifiers":{"CHAIN_EXIT_EVENT_SIG()":"c23ed3e7","DEFAULT_ADMIN_ROLE()":"a217fddf","MANAGER_ROLE()":"ec87621c","TOKEN_TYPE()":"609c92b8","exitTokens(address,bytes)":"f741a417","getRoleAdmin(bytes32)":"248a9ca3","getRoleMember(bytes32,uint256)":"9010d07c","getRoleMemberCount(bytes32)":"ca15c873","grantRole(bytes32,address)":"2f2ff15d","hasRole(bytes32,address)":"91d14854","initialize(address)":"c4d66de8","lockTokens(address,address,address,bytes)":"e375b64e","onERC1155BatchReceived(address,address,uint256[],uint256[],bytes)":"bc197c81","onERC1155Received(address,address,uint256,uint256,bytes)":"f23a6e61","renounceRole(bytes32,address)":"36568abe","revokeRole(bytes32,address)":"d547741f","supportsInterface(bytes4)":"01ffc9a7"},"id":47}