{"abi":[{"type":"constructor","inputs":[{"name":"uri_","type":"string","internalType":"string"},{"name":"childChainManager","type":"address","internalType":"address"}],"stateMutability":"nonpayable"},{"type":"function","name":"DEFAULT_ADMIN_ROLE","inputs":[],"outputs":[{"name":"","type":"bytes32","internalType":"bytes32"}],"stateMutability":"view"},{"type":"function","name":"DEPOSITOR_ROLE","inputs":[],"outputs":[{"name":"","type":"bytes32","internalType":"bytes32"}],"stateMutability":"view"},{"type":"function","name":"ERC712_VERSION","inputs":[],"outputs":[{"name":"","type":"string","internalType":"string"}],"stateMutability":"view"},{"type":"function","name":"balanceOf","inputs":[{"name":"account","type":"address","internalType":"address"},{"name":"id","type":"uint256","internalType":"uint256"}],"outputs":[{"name":"","type":"uint256","internalType":"uint256"}],"stateMutability":"view"},{"type":"function","name":"balanceOfBatch","inputs":[{"name":"accounts","type":"address[]","internalType":"address[]"},{"name":"ids","type":"uint256[]","internalType":"uint256[]"}],"outputs":[{"name":"","type":"uint256[]","internalType":"uint256[]"}],"stateMutability":"view"},{"type":"function","name":"deposit","inputs":[{"name":"user","type":"address","internalType":"address"},{"name":"depositData","type":"bytes","internalType":"bytes"}],"outputs":[],"stateMutability":"nonpayable"},{"type":"function","name":"executeMetaTransaction","inputs":[{"name":"userAddress","type":"address","internalType":"address"},{"name":"functionSignature","type":"bytes","internalType":"bytes"},{"name":"sigR","type":"bytes32","internalType":"bytes32"},{"name":"sigS","type":"bytes32","internalType":"bytes32"},{"name":"sigV","type":"uint8","internalType":"uint8"}],"outputs":[{"name":"","type":"bytes","internalType":"bytes"}],"stateMutability":"payable"},{"type":"function","name":"getChainId","inputs":[],"outputs":[{"name":"","type":"uint256","internalType":"uint256"}],"stateMutability":"pure"},{"type":"function","name":"getDomainSeperator","inputs":[],"outputs":[{"name":"","type":"bytes32","internalType":"bytes32"}],"stateMutability":"view"},{"type":"function","name":"getNonce","inputs":[{"name":"user","type":"address","internalType":"address"}],"outputs":[{"name":"nonce","type":"uint256","internalType":"uint256"}],"stateMutability":"view"},{"type":"function","name":"getRoleAdmin","inputs":[{"name":"role","type":"bytes32","internalType":"bytes32"}],"outputs":[{"name":"","type":"bytes32","internalType":"bytes32"}],"stateMutability":"view"},{"type":"function","name":"getRoleMember","inputs":[{"name":"role","type":"bytes32","internalType":"bytes32"},{"name":"index","type":"uint256","internalType":"uint256"}],"outputs":[{"name":"","type":"address","internalType":"address"}],"stateMutability":"view"},{"type":"function","name":"getRoleMemberCount","inputs":[{"name":"role","type":"bytes32","internalType":"bytes32"}],"outputs":[{"name":"","type":"uint256","internalType":"uint256"}],"stateMutability":"view"},{"type":"function","name":"grantRole","inputs":[{"name":"role","type":"bytes32","internalType":"bytes32"},{"name":"account","type":"address","internalType":"address"}],"outputs":[],"stateMutability":"nonpayable"},{"type":"function","name":"hasRole","inputs":[{"name":"role","type":"bytes32","internalType":"bytes32"},{"name":"account","type":"address","internalType":"address"}],"outputs":[{"name":"","type":"bool","internalType":"bool"}],"stateMutability":"view"},{"type":"function","name":"isApprovedForAll","inputs":[{"name":"account","type":"address","internalType":"address"},{"name":"operator","type":"address","internalType":"address"}],"outputs":[{"name":"","type":"bool","internalType":"bool"}],"stateMutability":"view"},{"type":"function","name":"renounceRole","inputs":[{"name":"role","type":"bytes32","internalType":"bytes32"},{"name":"account","type":"address","internalType":"address"}],"outputs":[],"stateMutability":"nonpayable"},{"type":"function","name":"revokeRole","inputs":[{"name":"role","type":"bytes32","internalType":"bytes32"},{"name":"account","type":"address","internalType":"address"}],"outputs":[],"stateMutability":"nonpayable"},{"type":"function","name":"safeBatchTransferFrom","inputs":[{"name":"from","type":"address","internalType":"address"},{"name":"to","type":"address","internalType":"address"},{"name":"ids","type":"uint256[]","internalType":"uint256[]"},{"name":"amounts","type":"uint256[]","internalType":"uint256[]"},{"name":"data","type":"bytes","internalType":"bytes"}],"outputs":[],"stateMutability":"nonpayable"},{"type":"function","name":"safeTransferFrom","inputs":[{"name":"from","type":"address","internalType":"address"},{"name":"to","type":"address","internalType":"address"},{"name":"id","type":"uint256","internalType":"uint256"},{"name":"amount","type":"uint256","internalType":"uint256"},{"name":"data","type":"bytes","internalType":"bytes"}],"outputs":[],"stateMutability":"nonpayable"},{"type":"function","name":"setApprovalForAll","inputs":[{"name":"operator","type":"address","internalType":"address"},{"name":"approved","type":"bool","internalType":"bool"}],"outputs":[],"stateMutability":"nonpayable"},{"type":"function","name":"supportsInterface","inputs":[{"name":"interfaceId","type":"bytes4","internalType":"bytes4"}],"outputs":[{"name":"","type":"bool","internalType":"bool"}],"stateMutability":"view"},{"type":"function","name":"uri","inputs":[{"name":"","type":"uint256","internalType":"uint256"}],"outputs":[{"name":"","type":"string","internalType":"string"}],"stateMutability":"view"},{"type":"function","name":"withdrawBatch","inputs":[{"name":"ids","type":"uint256[]","internalType":"uint256[]"},{"name":"amounts","type":"uint256[]","internalType":"uint256[]"}],"outputs":[],"stateMutability":"nonpayable"},{"type":"function","name":"withdrawSingle","inputs":[{"name":"id","type":"uint256","internalType":"uint256"},{"name":"amount","type":"uint256","internalType":"uint256"}],"outputs":[],"stateMutability":"nonpayable"},{"type":"event","name":"ApprovalForAll","inputs":[{"name":"account","type":"address","indexed":true,"internalType":"address"},{"name":"operator","type":"address","indexed":true,"internalType":"address"},{"name":"approved","type":"bool","indexed":false,"internalType":"bool"}],"anonymous":false},{"type":"event","name":"MetaTransactionExecuted","inputs":[{"name":"userAddress","type":"address","indexed":true,"internalType":"address"},{"name":"relayerAddress","type":"address","indexed":true,"internalType":"address payable"},{"name":"functionSignature","type":"bytes","indexed":false,"internalType":"bytes"}],"anonymous":false},{"type":"event","name":"RoleAdminChanged","inputs":[{"name":"role","type":"bytes32","indexed":true,"internalType":"bytes32"},{"name":"previousAdminRole","type":"bytes32","indexed":true,"internalType":"bytes32"},{"name":"newAdminRole","type":"bytes32","indexed":true,"internalType":"bytes32"}],"anonymous":false},{"type":"event","name":"RoleGranted","inputs":[{"name":"role","type":"bytes32","indexed":true,"internalType":"bytes32"},{"name":"account","type":"address","indexed":true,"internalType":"address"},{"name":"sender","type":"address","indexed":true,"internalType":"address"}],"anonymous":false},{"type":"event","name":"RoleRevoked","inputs":[{"name":"role","type":"bytes32","indexed":true,"internalType":"bytes32"},{"name":"account","type":"address","indexed":true,"internalType":"address"},{"name":"sender","type":"address","indexed":true,"internalType":"address"}],"anonymous":false},{"type":"event","name":"TransferBatch","inputs":[{"name":"operator","type":"address","indexed":true,"internalType":"address"},{"name":"from","type":"address","indexed":true,"internalType":"address"},{"name":"to","type":"address","indexed":true,"internalType":"address"},{"name":"ids","type":"uint256[]","indexed":false,"internalType":"uint256[]"},{"name":"values","type":"uint256[]","indexed":false,"internalType":"uint256[]"}],"anonymous":false},{"type":"event","name":"TransferSingle","inputs":[{"name":"operator","type":"address","indexed":true,"internalType":"address"},{"name":"from","type":"address","indexed":true,"internalType":"address"},{"name":"to","type":"address","indexed":true,"internalType":"address"},{"name":"id","type":"uint256","indexed":false,"internalType":"uint256"},{"name":"value","type":"uint256","indexed":false,"internalType":"uint256"}],"anonymous":false},{"type":"event","name":"URI","inputs":[{"name":"value","type":"string","indexed":false,"internalType":"string"},{"name":"id","type":"uint256","indexed":true,"internalType":"uint256"}],"anonymous":false}],"bytecode":{"object":"0x60806040526006805460ff191690553480156200001b57600080fd5b506040516200384538038062003845833981810160405260408110156200004157600080fd5b81019080805160405193929190846401000000008211156200006257600080fd5b9083019060208201858111156200007857600080fd5b82516401000000008111828201881017156200009357600080fd5b82525081516020918201929091019080838360005b83811015620000c2578181015183820152602001620000a8565b50505050905090810190601f168015620000f05780820380516001836020036101000a031916815260200191505b50604052602001519150829050620001186301ffc9a760e01b6001600160e01b036200021616565b6200012c816001600160e01b036200029b16565b62000147636cdb3d1360e11b6001600160e01b036200021616565b620001626303a24d0760e21b6001600160e01b036200021616565b5060408051808201909152600c81526b4368696c644552433131353560a01b60208201526200019a906001600160e01b03620002b416565b620001c26000620001b36001600160e01b036200035616565b6001600160e01b036200037316565b604080516d4445504f5349544f525f524f4c4560901b8152905190819003600e019020620001fa90826001600160e01b036200037316565b6200020e826001600160e01b036200038816565b5050620006e0565b6001600160e01b0319808216141562000276576040805162461bcd60e51b815260206004820152601c60248201527f4552433136353a20696e76616c696420696e7465726661636520696400000000604482015290519081900360640190fd5b6001600160e01b0319166000908152602081905260409020805460ff19166001179055565b8051620002b09060039060208401906200063e565b5050565b806040516020018082805190602001908083835b60208310620002e95780518252601f199092019160209182019101620002c8565b51815160209384036101000a60001901801990921691161790527f3a20494e53554646494349454e545f5045524d495353494f4e530000000000009190930190815260408051808303600519018152601a90920190528051620002b095506005945092019190506200063e565b60006200036d620003f660201b62002ab31760201c565b90505b90565b620002b082826001600160e01b036200045516565b60065460ff1615620003d2576040805162461bcd60e51b815260206004820152600e60248201526d185b1c9958591e481a5b9a5d195960921b604482015290519081900360640190fd5b620003e6816001600160e01b03620004d916565b506006805460ff19166001179055565b600033301415620004505760606000368080601f0160208091040260200160405190810160405280939291908181526020018383808284376000920191909152505050503601516001600160a01b03169150620003709050565b503390565b60008281526004602090815260409091206200047c91839062002b4d620005a1821b17901c565b15620002b057620004956001600160e01b036200035616565b6001600160a01b0316816001600160a01b0316837f2f8788117e7eff1d82e926ec794901d17c78024a50270940304540a733656f0d60405160405180910390a45050565b6040518060800160405280604f8152602001620037f6604f913980516020918201208251838301206040805180820190915260018152603160f81b930192909252907fc89efdaa54c0f20c7adf612882df0950f5a951637e0307cdcb4c672f298b8bc630620005506001600160e01b03620005ca16565b604080516020808201979097528082019590955260608501939093526001600160a01b03909116608084015260a0808401919091528151808403909101815260c09092019052805191012060075550565b6000620005c1836001600160a01b0384166001600160e01b03620005ce16565b90505b92915050565b4690565b6000620005e583836001600160e01b036200062616565b6200061d57508154600181810184556000848152602080822090930184905584548482528286019093526040902091909155620005c4565b506000620005c4565b60009081526001919091016020526040902054151590565b828054600181600116156101000203166002900490600052602060002090601f016020900481019282601f106200068157805160ff1916838001178555620006b1565b82800160010185558215620006b1579182015b82811115620006b157825182559160200191906001019062000694565b50620006bf929150620006c3565b5090565b6200037091905b80821115620006bf5760008155600101620006ca565b61310680620006f06000396000f3fe6080604052600436106101655760003560e01c806336568abe116100d1578063a22cb4651161008a578063cf2c52cb11610064578063cf2c52cb14610996578063d547741f14610a21578063e985e9c514610a5a578063f242432a14610a9557610165565b8063a22cb4651461091c578063a3b0b5a314610957578063ca15c8731461096c57610165565b806336568abe146105fe5780634e1273f4146106375780635c5fb521146107b75780639010d07c1461088257806391d14854146108ce578063a217fddf1461090757610165565b80632262f53f116101235780632262f53f14610353578063248a9ca3146103855780632d0335ab146103af5780632eb2c2d6146103e25780632f2ff15d146105b05780633408e470146105e957610165565b8062fdd58e1461016a57806301ffc9a7146101b55780630c53c51c146101fd5780630e89341c146102ff5780630f7e59701461032957806320379ee51461033e575b600080fd5b34801561017657600080fd5b506101a36004803603604081101561018d57600080fd5b506001600160a01b038135169060200135610b6b565b60408051918252519081900360200190f35b3480156101c157600080fd5b506101e9600480360360208110156101d857600080fd5b50356001600160e01b031916610bdd565b604080519115158252519081900360200190f35b61028a600480360360a081101561021357600080fd5b6001600160a01b038235169190810190604081016020820135600160201b81111561023d57600080fd5b82018360208201111561024f57600080fd5b803590602001918460018302840111600160201b8311171561027057600080fd5b91935091508035906020810135906040013560ff16610bfc565b6040805160208082528351818301528351919283929083019185019080838360005b838110156102c45781810151838201526020016102ac565b50505050905090810190601f1680156102f15780820380516001836020036101000a031916815260200191505b509250505060405180910390f35b34801561030b57600080fd5b5061028a6004803603602081101561032257600080fd5b5035610e85565b34801561033557600080fd5b5061028a610f1d565b34801561034a57600080fd5b506101a3610f3a565b34801561035f57600080fd5b506103836004803603604081101561037657600080fd5b5080359060200135610f40565b005b34801561039157600080fd5b506101a3600480360360208110156103a857600080fd5b5035610f56565b3480156103bb57600080fd5b506101a3600480360360208110156103d257600080fd5b50356001600160a01b0316610f6b565b3480156103ee57600080fd5b50610383600480360360a081101561040557600080fd5b6001600160a01b038235811692602081013590911691810190606081016040820135600160201b81111561043857600080fd5b82018360208201111561044a57600080fd5b803590602001918460208302840111600160201b8311171561046b57600080fd5b9190808060200260200160405190810160405280939291908181526020018383602002808284376000920191909152509295949360208101935035915050600160201b8111156104ba57600080fd5b8201836020820111156104cc57600080fd5b803590602001918460208302840111600160201b831117156104ed57600080fd5b9190808060200260200160405190810160405280939291908181526020018383602002808284376000920191909152509295949360208101935035915050600160201b81111561053c57600080fd5b82018360208201111561054e57600080fd5b803590602001918460018302840111600160201b8311171561056f57600080fd5b91908080601f016020809104026020016040519081016040528093929190818152602001838380828437600092019190915250929550610f86945050505050565b3480156105bc57600080fd5b50610383600480360360408110156105d357600080fd5b50803590602001356001600160a01b0316611284565b3480156105f557600080fd5b506101a36112ec565b34801561060a57600080fd5b506103836004803603604081101561062157600080fd5b50803590602001356001600160a01b03166112f0565b34801561064357600080fd5b506107676004803603604081101561065a57600080fd5b810190602081018135600160201b81111561067457600080fd5b82018360208201111561068657600080fd5b803590602001918460208302840111600160201b831117156106a757600080fd5b9190808060200260200160405190810160405280939291908181526020018383602002808284376000920191909152509295949360208101935035915050600160201b8111156106f657600080fd5b82018360208201111561070857600080fd5b803590602001918460208302840111600160201b8311171561072957600080fd5b919080806020026020016040519081016040528093929190818152602001838360200280828437600092019190915250929550611351945050505050565b60408051602080825283518183015283519192839290830191858101910280838360005b838110156107a357818101518382015260200161078b565b505050509050019250505060405180910390f35b3480156107c357600080fd5b50610383600480360360408110156107da57600080fd5b810190602081018135600160201b8111156107f457600080fd5b82018360208201111561080657600080fd5b803590602001918460208302840111600160201b8311171561082757600080fd5b919390929091602081019035600160201b81111561084457600080fd5b82018360208201111561085657600080fd5b803590602001918460208302840111600160201b8311171561087757600080fd5b5090925090506114cf565b34801561088e57600080fd5b506108b2600480360360408110156108a557600080fd5b508035906020013561154a565b604080516001600160a01b039092168252519081900360200190f35b3480156108da57600080fd5b506101e9600480360360408110156108f157600080fd5b50803590602001356001600160a01b031661156f565b34801561091357600080fd5b506101a361158d565b34801561092857600080fd5b506103836004803603604081101561093f57600080fd5b506001600160a01b0381351690602001351515611592565b34801561096357600080fd5b506101a3611681565b34801561097857600080fd5b506101a36004803603602081101561098f57600080fd5b50356116a7565b3480156109a257600080fd5b50610383600480360360408110156109b957600080fd5b6001600160a01b038235169190810190604081016020820135600160201b8111156109e357600080fd5b8201836020820111156109f557600080fd5b803590602001918460018302840111600160201b83111715610a1657600080fd5b5090925090506116be565b348015610a2d57600080fd5b5061038360048036036040811015610a4457600080fd5b50803590602001356001600160a01b0316611994565b348015610a6657600080fd5b506101e960048036036040811015610a7d57600080fd5b506001600160a01b03813581169160200135166119ed565b348015610aa157600080fd5b50610383600480360360a0811015610ab857600080fd5b6001600160a01b03823581169260208101359091169160408201359160608101359181019060a081016080820135600160201b811115610af757600080fd5b820183602082011115610b0957600080fd5b803590602001918460018302840111600160201b83111715610b2a57600080fd5b91908080601f016020809104026020016040519081016040528093929190818152602001838380828437600092019190915250929550611a1b945050505050565b60006001600160a01b038316610bb25760405162461bcd60e51b815260040180806020018281038252602b815260200180612ddf602b913960400191505060405180910390fd5b5060008181526001602090815260408083206001600160a01b03861684529091529020545b92915050565b6001600160e01b03191660009081526020819052604090205460ff1690565b6060610c06612d07565b604080516060810182526001600160a01b038a1660008181526008602090815290849020548352808301919091528251601f8a0182900482028101820184528981529192830191908a908a908190840183828082843760009201919091525050509152509050610c798882878787611bec565b610cb45760405162461bcd60e51b8152600401808060200182810382526021815260200180612fe66021913960400191505060405180910390fd5b6001600160a01b0388166000818152600860209081526040918290208054600101905581518181529081018990523392917f5845892132946850460bff5a0083f71031bc5bf9aadcd40f1de79423eac9b10b918b918b919081908101848480828437600083820152604051601f909101601f19169092018290039550909350505050a360006060306001600160a01b031689898c6040516020018084848082843780830192505050826001600160a01b03166001600160a01b031660601b815260140193505050506040516020818303038152906040526040518082805190602001908083835b60208310610dba5780518252601f199092019160209182019101610d9b565b6001836020036101000a0380198251168184511680821785525050505050509050019150506000604051808303816000865af19150503d8060008114610e1c576040519150601f19603f3d011682016040523d82523d6000602084013e610e21565b606091505b509150915081610e78576040805162461bcd60e51b815260206004820152601c60248201527f46756e6374696f6e2063616c6c206e6f74207375636365737366756c00000000604482015290519081900360640190fd5b9998505050505050505050565b60038054604080516020601f6002600019610100600188161502019095169490940493840181900481028201810190925282815260609390929091830182828015610f115780601f10610ee657610100808354040283529160200191610f11565b820191906000526020600020905b815481529060010190602001808311610ef457829003601f168201915b50505050509050919050565b604051806040016040528060018152602001603160f81b81525081565b60075490565b610f52610f4b611cc9565b8383611cd8565b5050565b60009081526004602052604090206002015490565b6001600160a01b031660009081526008602052604090205490565b8151835114610fc65760405162461bcd60e51b81526004018080602001828103825260288152602001806130596028913960400191505060405180910390fd5b6001600160a01b03841661100b5760405162461bcd60e51b8152600401808060200182810382526025815260200180612f426025913960400191505060405180910390fd5b611013611cc9565b6001600160a01b0316856001600160a01b0316148061103e575061103e85611039611cc9565b6119ed565b6110795760405162461bcd60e51b8152600401808060200182810382526032815260200180612f676032913960400191505060405180910390fd5b6000611083611cc9565b905061109381878787878761127c565b60005b84518110156111945760008582815181106110ad57fe5b6020026020010151905060008583815181106110c557fe5b60200260200101519050611132816040518060600160405280602a8152602001612fbc602a91396001600086815260200190815260200160002060008d6001600160a01b03166001600160a01b0316815260200190815260200160002054611e119092919063ffffffff16565b60008381526001602090815260408083206001600160a01b038e811685529252808320939093558a16815220546111699082611ea8565b60009283526001602081815260408086206001600160a01b038d168752909152909320555001611096565b50846001600160a01b0316866001600160a01b0316826001600160a01b03167f4a39dc06d4c0dbc64b70af90fd698a233a518aa5d07e595d983b8c0526c8f7fb8787604051808060200180602001838103835285818151815260200191508051906020019060200280838360005b8381101561121a578181015183820152602001611202565b50505050905001838103825284818151815260200191508051906020019060200280838360005b83811015611259578181015183820152602001611241565b5050505090500194505050505060405180910390a461127c818787878787611f02565b505050505050565b6000828152600460205260409020600201546112a7906112a2611cc9565b61156f565b6112e25760405162461bcd60e51b815260040180806020018281038252602f815260200180612db0602f913960400191505060405180910390fd5b610f528282612237565b4690565b6112f8611cc9565b6001600160a01b0316816001600160a01b0316146113475760405162461bcd60e51b815260040180806020018281038252602f8152602001806130a2602f913960400191505060405180910390fd5b610f5282826122a6565b606081518351146113935760405162461bcd60e51b81526004018080602001828103825260298152602001806130306029913960400191505060405180910390fd5b6060835167ffffffffffffffff811180156113ad57600080fd5b506040519080825280602002602001820160405280156113d7578160200160208202803683370190505b50905060005b84518110156114c75760006001600160a01b03168582815181106113fd57fe5b60200260200101516001600160a01b0316141561144b5760405162461bcd60e51b8152600401808060200182810382526031815260200180612e0a6031913960400191505060405180910390fd5b6001600085838151811061145b57fe5b60200260200101518152602001908152602001600020600086838151811061147f57fe5b60200260200101516001600160a01b03166001600160a01b03168152602001908152602001600020548282815181106114b457fe5b60209081029190910101526001016113dd565b509392505050565b6115446114da611cc9565b8585808060200260200160405190810160405280939291908181526020018383602002808284376000920191909152505060408051602080890282810182019093528882529093508892508791829185019084908082843760009201919091525061231592505050565b50505050565b6000828152600460205260408120611568908363ffffffff61258316565b9392505050565b6000828152600460205260408120611568908363ffffffff61258f16565b600081565b816001600160a01b03166115a4611cc9565b6001600160a01b031614156115ea5760405162461bcd60e51b81526004018080602001828103825260298152602001806130076029913960400191505060405180910390fd5b80600260006115f7611cc9565b6001600160a01b03908116825260208083019390935260409182016000908120918716808252919093529120805460ff19169215159290921790915561163b611cc9565b60408051841515815290516001600160a01b0392909216917f17307eab39ab6107e8899845ad3d59bd9653f200f220920489ca2b5937696c319181900360200190a35050565b604080516d4445504f5349544f525f524f4c4560901b8152905190819003600e01902081565b6000818152600460205260408120610bd7906125a4565b604080516d4445504f5349544f525f524f4c4560901b8152905190819003600e0190206116ed816112a2611cc9565b60059061178d5760405162461bcd60e51b815260206004820190815282546002600019610100600184161502019091160460248301819052909182916044909101908490801561177e5780601f106117535761010080835404028352916020019161177e565b820191906000526020600020905b81548152906001019060200180831161176157829003601f168201915b50509250505060405180910390fd5b506060806060858560608110156117a357600080fd5b810190602081018135600160201b8111156117bd57600080fd5b8201836020820111156117cf57600080fd5b803590602001918460208302840111600160201b831117156117f057600080fd5b9190808060200260200160405190810160405280939291908181526020018383602002808284376000920191909152509295949360208101935035915050600160201b81111561183f57600080fd5b82018360208201111561185157600080fd5b803590602001918460208302840111600160201b8311171561187257600080fd5b9190808060200260200160405190810160405280939291908181526020018383602002808284376000920191909152509295949360208101935035915050600160201b8111156118c157600080fd5b8201836020820111156118d357600080fd5b803590602001918460018302840111600160201b831117156118f457600080fd5b91908080601f016020809104026020016040519081016040528093929190818152602001838380828437600092019190915250979a50959850909650505050506001600160a01b0389161515915061197f90505760405162461bcd60e51b8152600401808060200182810382526022815260200180612ea26022913960400191505060405180910390fd5b61198b878484846125af565b50505050505050565b6000828152600460205260409020600201546119b2906112a2611cc9565b6113475760405162461bcd60e51b8152600401808060200182810382526030815260200180612eed6030913960400191505060405180910390fd5b6001600160a01b03918216600090815260026020908152604080832093909416825291909152205460ff1690565b6001600160a01b038416611a605760405162461bcd60e51b8152600401808060200182810382526025815260200180612f426025913960400191505060405180910390fd5b611a68611cc9565b6001600160a01b0316856001600160a01b03161480611a8e5750611a8e85611039611cc9565b611ac95760405162461bcd60e51b8152600401808060200182810382526029815260200180612ec46029913960400191505060405180910390fd5b6000611ad3611cc9565b9050611af3818787611ae488612804565b611aed88612804565b8761127c565b611b40836040518060600160405280602a8152602001612fbc602a913960008781526001602090815260408083206001600160a01b038d168452909152902054919063ffffffff611e1116565b60008581526001602090815260408083206001600160a01b038b81168552925280832093909355871681522054611b779084611ea8565b60008581526001602090815260408083206001600160a01b03808b168086529184529382902094909455805188815291820187905280518a8416938616927fc3d58168c5ae7397731d063d5bbf3d657854427343f4c083240f7aacaa2d0f6292908290030190a461127c818787878787612848565b60006001600160a01b038616611c335760405162461bcd60e51b8152600401808060200182810382526025815260200180612f1d6025913960400191505060405180910390fd5b6001611c46611c41876129db565b612a67565b83868660405160008152602001604052604051808581526020018460ff1660ff1681526020018381526020018281526020019450505050506020604051602081039080840390855afa158015611ca0573d6000803e3d6000fd5b505050602060405103516001600160a01b0316866001600160a01b031614905095945050505050565b6000611cd3612ab3565b905090565b6001600160a01b038316611d1d5760405162461bcd60e51b8152600401808060200182810382526023815260200180612f996023913960400191505060405180910390fd5b6000611d27611cc9565b9050611d5781856000611d3987612804565b611d4287612804565b6040518060200160405280600081525061127c565b611da482604051806060016040528060248152602001612e7e6024913960008681526001602090815260408083206001600160a01b038b168452909152902054919063ffffffff611e1116565b60008481526001602090815260408083206001600160a01b03808a16808652918452828520959095558151888152928301879052815193949093908616927fc3d58168c5ae7397731d063d5bbf3d657854427343f4c083240f7aacaa2d0f6292908290030190a450505050565b60008184841115611ea05760405162461bcd60e51b81526004018080602001828103825283818151815260200191508051906020019080838360005b83811015611e65578181015183820152602001611e4d565b50505050905090810190601f168015611e925780820380516001836020036101000a031916815260200191505b509250505060405180910390fd5b505050900390565b600082820183811015611568576040805162461bcd60e51b815260206004820152601b60248201527f536166654d6174683a206164646974696f6e206f766572666c6f770000000000604482015290519081900360640190fd5b611f14846001600160a01b0316612b11565b1561127c57836001600160a01b031663bc197c8187878686866040518663ffffffff1660e01b815260040180866001600160a01b03166001600160a01b03168152602001856001600160a01b03166001600160a01b03168152602001806020018060200180602001848103845287818151815260200191508051906020019060200280838360005b83811015611fb4578181015183820152602001611f9c565b50505050905001848103835286818151815260200191508051906020019060200280838360005b83811015611ff3578181015183820152602001611fdb565b50505050905001848103825285818151815260200191508051906020019080838360005b8381101561202f578181015183820152602001612017565b50505050905090810190601f16801561205c5780820380516001836020036101000a031916815260200191505b5098505050505050505050602060405180830381600087803b15801561208157600080fd5b505af19250505080156120a657506040513d60208110156120a157600080fd5b505160015b6121e8576040516000815260443d10156120c25750600061215f565b60046000803e60005160e01c6308c379a081146120e357600091505061215f565b60043d036004833e81513d602482011167ffffffffffffffff8211171561210f5760009250505061215f565b808301805167ffffffffffffffff81111561213157600094505050505061215f565b8060208301013d860181111561214f5760009550505050505061215f565b601f01601f191660405250925050505b8061216a57506121b1565b60405162461bcd60e51b8152602060048201818152835160248401528351849391928392604401919085019080838360008315611e65578181015183820152602001611e4d565b60405162461bcd60e51b8152600401808060200182810382526034815260200180612d326034913960400191505060405180910390fd5b6001600160e01b0319811663bc197c8160e01b1461198b5760405162461bcd60e51b8152600401808060200182810382526028815260200180612d886028913960400191505060405180910390fd5b6000828152600460205260409020612255908263ffffffff612b4d16565b15610f5257612262611cc9565b6001600160a01b0316816001600160a01b0316837f2f8788117e7eff1d82e926ec794901d17c78024a50270940304540a733656f0d60405160405180910390a45050565b60008281526004602052604090206122c4908263ffffffff612b6216565b15610f52576122d1611cc9565b6001600160a01b0316816001600160a01b0316837ff6391f5c32d9c69d2a47ea670b442974b53935d1edc7fd64eb21e047a839171b60405160405180910390a45050565b6001600160a01b03831661235a5760405162461bcd60e51b8152600401808060200182810382526023815260200180612f996023913960400191505060405180910390fd5b805182511461239a5760405162461bcd60e51b81526004018080602001828103825260288152602001806130596028913960400191505060405180910390fd5b60006123a4611cc9565b90506123c48185600086866040518060200160405280600081525061127c565b60005b83518110156124a2576124598382815181106123df57fe5b6020026020010151604051806060016040528060248152602001612e7e602491396001600088868151811061241057fe5b602002602001015181526020019081526020016000206000896001600160a01b03166001600160a01b0316815260200190815260200160002054611e119092919063ffffffff16565b6001600086848151811061246957fe5b602090810291909101810151825281810192909252604090810160009081206001600160a01b038a1682529092529020556001016123c7565b5060006001600160a01b0316846001600160a01b0316826001600160a01b03167f4a39dc06d4c0dbc64b70af90fd698a233a518aa5d07e595d983b8c0526c8f7fb8686604051808060200180602001838103835285818151815260200191508051906020019060200280838360005b83811015612529578181015183820152602001612511565b50505050905001838103825284818151815260200191508051906020019060200280838360005b83811015612568578181015183820152602001612550565b5050505090500194505050505060405180910390a450505050565b60006115688383612b77565b6000611568836001600160a01b038416612bdb565b6000610bd782612bf3565b6001600160a01b0384166125f45760405162461bcd60e51b81526004018080602001828103825260218152602001806130816021913960400191505060405180910390fd5b81518351146126345760405162461bcd60e51b81526004018080602001828103825260288152602001806130596028913960400191505060405180910390fd5b600061263e611cc9565b905061264f8160008787878761127c565b60005b8451811015612713576126ca6001600087848151811061266e57fe5b602002602001015181526020019081526020016000206000886001600160a01b03166001600160a01b03168152602001908152602001600020548583815181106126b457fe5b6020026020010151611ea890919063ffffffff16565b600160008784815181106126da57fe5b602090810291909101810151825281810192909252604090810160009081206001600160a01b038b168252909252902055600101612652565b50846001600160a01b031660006001600160a01b0316826001600160a01b03167f4a39dc06d4c0dbc64b70af90fd698a233a518aa5d07e595d983b8c0526c8f7fb8787604051808060200180602001838103835285818151815260200191508051906020019060200280838360005b8381101561279a578181015183820152602001612782565b50505050905001838103825284818151815260200191508051906020019060200280838360005b838110156127d95781810151838201526020016127c1565b5050505090500194505050505060405180910390a46127fd81600087878787611f02565b5050505050565b60408051600180825281830190925260609182919060208083019080368337019050509050828160008151811061283757fe5b602090810291909101015292915050565b61285a846001600160a01b0316612b11565b1561127c57836001600160a01b031663f23a6e6187878686866040518663ffffffff1660e01b815260040180866001600160a01b03166001600160a01b03168152602001856001600160a01b03166001600160a01b0316815260200184815260200183815260200180602001828103825283818151815260200191508051906020019080838360005b838110156128fb5781810151838201526020016128e3565b50505050905090810190601f1680156129285780820380516001836020036101000a031916815260200191505b509650505050505050602060405180830381600087803b15801561294b57600080fd5b505af192505050801561297057506040513d602081101561296b57600080fd5b505160015b61298c576040516000815260443d10156120c25750600061215f565b6001600160e01b0319811663f23a6e6160e01b1461198b5760405162461bcd60e51b8152600401808060200182810382526028815260200180612d886028913960400191505060405180910390fd5b6000604051806080016040528060438152602001612e3b60439139805190602001208260000151836020015184604001518051906020012060405160200180858152602001848152602001836001600160a01b03166001600160a01b03168152602001828152602001945050505050604051602081830303815290604052805190602001209050919050565b6000612a71610f3a565b82604051602001808061190160f01b81525060020183815260200182815260200192505050604051602081830303815290604052805190602001209050919050565b600033301415612b0b5760606000368080601f0160208091040260200160405190810160405280939291908181526020018383808284376000920191909152505050503601516001600160a01b03169150612b0e9050565b50335b90565b6000813f7fc5d2460186f7233c927e7db2dcc703c0e500b653ca82273b7bfad8045d85a470818114801590612b4557508115155b949350505050565b6000611568836001600160a01b038416612bf7565b6000611568836001600160a01b038416612c41565b81546000908210612bb95760405162461bcd60e51b8152600401808060200182810382526022815260200180612d666022913960400191505060405180910390fd5b826000018281548110612bc857fe5b9060005260206000200154905092915050565b60009081526001919091016020526040902054151590565b5490565b6000612c038383612bdb565b612c3957508154600181810184556000848152602080822090930184905584548482528286019093526040902091909155610bd7565b506000610bd7565b60008181526001830160205260408120548015612cfd5783546000198083019190810190600090879083908110612c7457fe5b9060005260206000200154905080876000018481548110612c9157fe5b600091825260208083209091019290925582815260018981019092526040902090840190558654879080612cc157fe5b60019003818190600052602060002001600090559055866001016000878152602001908152602001600020600090556001945050505050610bd7565b6000915050610bd7565b60405180606001604052806000815260200160006001600160a01b0316815260200160608152509056fe455243313135353a207472616e7366657220746f206e6f6e2045524331313535526563656976657220696d706c656d656e746572456e756d657261626c655365743a20696e646578206f7574206f6620626f756e6473455243313135353a204552433131353552656365697665722072656a656374656420746f6b656e73416363657373436f6e74726f6c3a2073656e646572206d75737420626520616e2061646d696e20746f206772616e74455243313135353a2062616c616e636520717565727920666f7220746865207a65726f2061646472657373455243313135353a2062617463682062616c616e636520717565727920666f7220746865207a65726f20616464726573734d6574615472616e73616374696f6e2875696e74323536206e6f6e63652c616464726573732066726f6d2c62797465732066756e6374696f6e5369676e617475726529455243313135353a206275726e20616d6f756e7420657863656564732062616c616e63654368696c64455243313135353a20494e56414c49445f4445504f5349545f55534552455243313135353a2063616c6c6572206973206e6f74206f776e6572206e6f7220617070726f766564416363657373436f6e74726f6c3a2073656e646572206d75737420626520616e2061646d696e20746f207265766f6b654e61746976654d6574615472616e73616374696f6e3a20494e56414c49445f5349474e4552455243313135353a207472616e7366657220746f20746865207a65726f2061646472657373455243313135353a207472616e736665722063616c6c6572206973206e6f74206f776e6572206e6f7220617070726f766564455243313135353a206275726e2066726f6d20746865207a65726f2061646472657373455243313135353a20696e73756666696369656e742062616c616e636520666f72207472616e736665725369676e657220616e64207369676e617475726520646f206e6f74206d61746368455243313135353a2073657474696e6720617070726f76616c2073746174757320666f722073656c66455243313135353a206163636f756e747320616e6420696473206c656e677468206d69736d61746368455243313135353a2069647320616e6420616d6f756e7473206c656e677468206d69736d61746368455243313135353a206d696e7420746f20746865207a65726f2061646472657373416363657373436f6e74726f6c3a2063616e206f6e6c792072656e6f756e636520726f6c657320666f722073656c66a26469706673582212207924b951c6d6d739b72cbb3d1d08c235948e556944c6c55fd5cde9f7f55a94ea64736f6c63430006060033454950373132446f6d61696e28737472696e67206e616d652c737472696e672076657273696f6e2c6164647265737320766572696679696e67436f6e74726163742c627974657333322073616c7429","linkReferences":{}},"methodIdentifiers":{"DEFAULT_ADMIN_ROLE()":"a217fddf","DEPOSITOR_ROLE()":"a3b0b5a3","ERC712_VERSION()":"0f7e5970","balanceOf(address,uint256)":"00fdd58e","balanceOfBatch(address[],uint256[])":"4e1273f4","deposit(address,bytes)":"cf2c52cb","executeMetaTransaction(address,bytes,bytes32,bytes32,uint8)":"0c53c51c","getChainId()":"3408e470","getDomainSeperator()":"20379ee5","getNonce(address)":"2d0335ab","getRoleAdmin(bytes32)":"248a9ca3","getRoleMember(bytes32,uint256)":"9010d07c","getRoleMemberCount(bytes32)":"ca15c873","grantRole(bytes32,address)":"2f2ff15d","hasRole(bytes32,address)":"91d14854","isApprovedForAll(address,address)":"e985e9c5","renounceRole(bytes32,address)":"36568abe","revokeRole(bytes32,address)":"d547741f","safeBatchTransferFrom(address,address,uint256[],uint256[],bytes)":"2eb2c2d6","safeTransferFrom(address,address,uint256,uint256,bytes)":"f242432a","setApprovalForAll(address,bool)":"a22cb465","supportsInterface(bytes4)":"01ffc9a7","uri(uint256)":"0e89341c","withdrawBatch(uint256[],uint256[])":"5c5fb521","withdrawSingle(uint256,uint256)":"2262f53f"},"id":4}