{"abi":[{"type":"constructor","inputs":[{"name":"name_","type":"string","internalType":"string"},{"name":"symbol_","type":"string","internalType":"string"},{"name":"decimals_","type":"uint8","internalType":"uint8"},{"name":"childChainManager","type":"address","internalType":"address"}],"stateMutability":"nonpayable"},{"type":"function","name":"DEFAULT_ADMIN_ROLE","inputs":[],"outputs":[{"name":"","type":"bytes32","internalType":"bytes32"}],"stateMutability":"view"},{"type":"function","name":"DEPOSITOR_ROLE","inputs":[],"outputs":[{"name":"","type":"bytes32","internalType":"bytes32"}],"stateMutability":"view"},{"type":"function","name":"ERC712_VERSION","inputs":[],"outputs":[{"name":"","type":"string","internalType":"string"}],"stateMutability":"view"},{"type":"function","name":"allowance","inputs":[{"name":"owner","type":"address","internalType":"address"},{"name":"spender","type":"address","internalType":"address"}],"outputs":[{"name":"","type":"uint256","internalType":"uint256"}],"stateMutability":"view"},{"type":"function","name":"approve","inputs":[{"name":"spender","type":"address","internalType":"address"},{"name":"amount","type":"uint256","internalType":"uint256"}],"outputs":[{"name":"","type":"bool","internalType":"bool"}],"stateMutability":"nonpayable"},{"type":"function","name":"balanceOf","inputs":[{"name":"account","type":"address","internalType":"address"}],"outputs":[{"name":"","type":"uint256","internalType":"uint256"}],"stateMutability":"view"},{"type":"function","name":"decimals","inputs":[],"outputs":[{"name":"","type":"uint8","internalType":"uint8"}],"stateMutability":"view"},{"type":"function","name":"decreaseAllowance","inputs":[{"name":"spender","type":"address","internalType":"address"},{"name":"subtractedValue","type":"uint256","internalType":"uint256"}],"outputs":[{"name":"","type":"bool","internalType":"bool"}],"stateMutability":"nonpayable"},{"type":"function","name":"deposit","inputs":[{"name":"user","type":"address","internalType":"address"},{"name":"depositData","type":"bytes","internalType":"bytes"}],"outputs":[],"stateMutability":"nonpayable"},{"type":"function","name":"executeMetaTransaction","inputs":[{"name":"userAddress","type":"address","internalType":"address"},{"name":"functionSignature","type":"bytes","internalType":"bytes"},{"name":"sigR","type":"bytes32","internalType":"bytes32"},{"name":"sigS","type":"bytes32","internalType":"bytes32"},{"name":"sigV","type":"uint8","internalType":"uint8"}],"outputs":[{"name":"","type":"bytes","internalType":"bytes"}],"stateMutability":"payable"},{"type":"function","name":"getChainId","inputs":[],"outputs":[{"name":"","type":"uint256","internalType":"uint256"}],"stateMutability":"pure"},{"type":"function","name":"getDomainSeperator","inputs":[],"outputs":[{"name":"","type":"bytes32","internalType":"bytes32"}],"stateMutability":"view"},{"type":"function","name":"getNonce","inputs":[{"name":"user","type":"address","internalType":"address"}],"outputs":[{"name":"nonce","type":"uint256","internalType":"uint256"}],"stateMutability":"view"},{"type":"function","name":"getRoleAdmin","inputs":[{"name":"role","type":"bytes32","internalType":"bytes32"}],"outputs":[{"name":"","type":"bytes32","internalType":"bytes32"}],"stateMutability":"view"},{"type":"function","name":"getRoleMember","inputs":[{"name":"role","type":"bytes32","internalType":"bytes32"},{"name":"index","type":"uint256","internalType":"uint256"}],"outputs":[{"name":"","type":"address","internalType":"address"}],"stateMutability":"view"},{"type":"function","name":"getRoleMemberCount","inputs":[{"name":"role","type":"bytes32","internalType":"bytes32"}],"outputs":[{"name":"","type":"uint256","internalType":"uint256"}],"stateMutability":"view"},{"type":"function","name":"grantRole","inputs":[{"name":"role","type":"bytes32","internalType":"bytes32"},{"name":"account","type":"address","internalType":"address"}],"outputs":[],"stateMutability":"nonpayable"},{"type":"function","name":"hasRole","inputs":[{"name":"role","type":"bytes32","internalType":"bytes32"},{"name":"account","type":"address","internalType":"address"}],"outputs":[{"name":"","type":"bool","internalType":"bool"}],"stateMutability":"view"},{"type":"function","name":"increaseAllowance","inputs":[{"name":"spender","type":"address","internalType":"address"},{"name":"addedValue","type":"uint256","internalType":"uint256"}],"outputs":[{"name":"","type":"bool","internalType":"bool"}],"stateMutability":"nonpayable"},{"type":"function","name":"mint","inputs":[{"name":"user","type":"address","internalType":"address"},{"name":"amount","type":"uint256","internalType":"uint256"}],"outputs":[],"stateMutability":"nonpayable"},{"type":"function","name":"name","inputs":[],"outputs":[{"name":"","type":"string","internalType":"string"}],"stateMutability":"view"},{"type":"function","name":"renounceRole","inputs":[{"name":"role","type":"bytes32","internalType":"bytes32"},{"name":"account","type":"address","internalType":"address"}],"outputs":[],"stateMutability":"nonpayable"},{"type":"function","name":"revokeRole","inputs":[{"name":"role","type":"bytes32","internalType":"bytes32"},{"name":"account","type":"address","internalType":"address"}],"outputs":[],"stateMutability":"nonpayable"},{"type":"function","name":"symbol","inputs":[],"outputs":[{"name":"","type":"string","internalType":"string"}],"stateMutability":"view"},{"type":"function","name":"totalSupply","inputs":[],"outputs":[{"name":"","type":"uint256","internalType":"uint256"}],"stateMutability":"view"},{"type":"function","name":"transfer","inputs":[{"name":"recipient","type":"address","internalType":"address"},{"name":"amount","type":"uint256","internalType":"uint256"}],"outputs":[{"name":"","type":"bool","internalType":"bool"}],"stateMutability":"nonpayable"},{"type":"function","name":"transferFrom","inputs":[{"name":"sender","type":"address","internalType":"address"},{"name":"recipient","type":"address","internalType":"address"},{"name":"amount","type":"uint256","internalType":"uint256"}],"outputs":[{"name":"","type":"bool","internalType":"bool"}],"stateMutability":"nonpayable"},{"type":"function","name":"withdraw","inputs":[{"name":"amount","type":"uint256","internalType":"uint256"}],"outputs":[],"stateMutability":"nonpayable"},{"type":"event","name":"Approval","inputs":[{"name":"owner","type":"address","indexed":true,"internalType":"address"},{"name":"spender","type":"address","indexed":true,"internalType":"address"},{"name":"value","type":"uint256","indexed":false,"internalType":"uint256"}],"anonymous":false},{"type":"event","name":"MetaTransactionExecuted","inputs":[{"name":"userAddress","type":"address","indexed":true,"internalType":"address"},{"name":"relayerAddress","type":"address","indexed":true,"internalType":"address payable"},{"name":"functionSignature","type":"bytes","indexed":false,"internalType":"bytes"}],"anonymous":false},{"type":"event","name":"RoleAdminChanged","inputs":[{"name":"role","type":"bytes32","indexed":true,"internalType":"bytes32"},{"name":"previousAdminRole","type":"bytes32","indexed":true,"internalType":"bytes32"},{"name":"newAdminRole","type":"bytes32","indexed":true,"internalType":"bytes32"}],"anonymous":false},{"type":"event","name":"RoleGranted","inputs":[{"name":"role","type":"bytes32","indexed":true,"internalType":"bytes32"},{"name":"account","type":"address","indexed":true,"internalType":"address"},{"name":"sender","type":"address","indexed":true,"internalType":"address"}],"anonymous":false},{"type":"event","name":"RoleRevoked","inputs":[{"name":"role","type":"bytes32","indexed":true,"internalType":"bytes32"},{"name":"account","type":"address","indexed":true,"internalType":"address"},{"name":"sender","type":"address","indexed":true,"internalType":"address"}],"anonymous":false},{"type":"event","name":"Transfer","inputs":[{"name":"from","type":"address","indexed":true,"internalType":"address"},{"name":"to","type":"address","indexed":true,"internalType":"address"},{"name":"value","type":"uint256","indexed":false,"internalType":"uint256"}],"anonymous":false}],"bytecode":{"object":"0x60806040526008805460ff191690553480156200001b57600080fd5b506040516200259638038062002596833981810160405260808110156200004157600080fd5b81019080805160405193929190846401000000008211156200006257600080fd5b9083019060208201858111156200007857600080fd5b82516401000000008111828201881017156200009357600080fd5b82525081516020918201929091019080838360005b83811015620000c2578181015183820152602001620000a8565b50505050905090810190601f168015620000f05780820380516001836020036101000a031916815260200191505b50604052602001805160405193929190846401000000008211156200011457600080fd5b9083019060208201858111156200012a57600080fd5b82516401000000008111828201881017156200014557600080fd5b82525081516020918201929091019080838360005b83811015620001745781810151838201526020016200015a565b50505050905090810190601f168015620001a25780820380516001836020036101000a031916815260200191505b50604090815260208281015192909101518651929450925085918591620001cf916003918501906200066a565b508051620001e59060049060208401906200066a565b50506005805460ff19166012908117909155604080518082019091529081527104368696c644d696e7461626c6545524332360741b60208201526200023491506001600160e01b03620002c616565b62000248826001600160e01b036200036c16565b620002706000620002616001600160e01b036200038216565b6001600160e01b036200039f16565b604080516d4445504f5349544f525f524f4c4560901b8152905190819003600e019020620002a890826001600160e01b036200039f16565b620002bc846001600160e01b03620003b416565b505050506200070c565b806040516020018082805190602001908083835b60208310620002fb5780518252601f199092019160209182019101620002da565b51815160209384036101000a60001901801990921691161790527f3a20494e53554646494349454e545f5045524d495353494f4e530000000000009190930190815260408051808303600519018152601a909201905280516200036895506007945092019190506200066a565b5050565b6005805460ff191660ff92909216919091179055565b6000620003996200042260201b6200181c1760201c565b90505b90565b6200036882826001600160e01b036200048116565b60085460ff1615620003fe576040805162461bcd60e51b815260206004820152600e60248201526d185b1c9958591e481a5b9a5d195960921b604482015290519081900360640190fd5b62000412816001600160e01b036200050516565b506008805460ff19166001179055565b6000333014156200047c5760606000368080601f0160208091040260200160405190810160405280939291908181526020018383808284376000920191909152505050503601516001600160a01b031691506200039c9050565b503390565b6000828152600660209081526040909120620004a891839062001994620005cd821b17901c565b156200036857620004c16001600160e01b036200038216565b6001600160a01b0316816001600160a01b0316837f2f8788117e7eff1d82e926ec794901d17c78024a50270940304540a733656f0d60405160405180910390a45050565b6040518060800160405280604f815260200162002547604f913980516020918201208251838301206040805180820190915260018152603160f81b930192909252907fc89efdaa54c0f20c7adf612882df0950f5a951637e0307cdcb4c672f298b8bc6306200057c6001600160e01b03620005f616565b604080516020808201979097528082019590955260608501939093526001600160a01b03909116608084015260a0808401919091528151808403909101815260c09092019052805191012060095550565b6000620005ed836001600160a01b0384166001600160e01b03620005fa16565b90505b92915050565b4690565b60006200061183836001600160e01b036200065216565b6200064957508154600181810184556000848152602080822090930184905584548482528286019093526040902091909155620005f0565b506000620005f0565b60009081526001919091016020526040902054151590565b828054600181600116156101000203166002900490600052602060002090601f016020900481019282601f10620006ad57805160ff1916838001178555620006dd565b82800160010185558215620006dd579182015b82811115620006dd578251825591602001919060010190620006c0565b50620006eb929150620006ef565b5090565b6200039c91905b80821115620006eb5760008155600101620006f6565b611e2b806200071c6000396000f3fe6080604052600436106101b75760003560e01c806339509351116100ec578063a3b0b5a31161008a578063ca15c87311610064578063ca15c873146106cc578063cf2c52cb146106f6578063d547741f14610783578063dd62ed3e146107bc576101b7565b8063a3b0b5a314610645578063a457c2d71461065a578063a9059cbb14610693576101b7565b80639010d07c116100c65780639010d07c1461059657806391d14854146105e257806395d89b411461061b578063a217fddf14610630576101b7565b806339509351146104f157806340c10f191461052a57806370a0823114610563576101b7565b8063248a9ca3116101595780632f2ff15d116101335780632f2ff15d1461043f578063313ce567146104785780633408e470146104a357806336568abe146104b8576101b7565b8063248a9ca3146103b65780632d0335ab146103e05780632e1a7d4d14610413576101b7565b80630f7e5970116101955780630f7e59701461032257806318160ddd1461033757806320379ee51461035e57806323b872dd14610373576101b7565b806306fdde03146101bc578063095ea7b3146102465780630c53c51c14610293575b600080fd5b3480156101c857600080fd5b506101d16107f7565b6040805160208082528351818301528351919283929083019185019080838360005b8381101561020b5781810151838201526020016101f3565b50505050905090810190601f1680156102385780820380516001836020036101000a031916815260200191505b509250505060405180910390f35b34801561025257600080fd5b5061027f6004803603604081101561026957600080fd5b506001600160a01b03813516906020013561088d565b604080519115158252519081900360200190f35b6101d1600480360360a08110156102a957600080fd5b6001600160a01b0382351691908101906040810160208201356401000000008111156102d457600080fd5b8201836020820111156102e657600080fd5b8035906020019184600183028401116401000000008311171561030857600080fd5b91935091508035906020810135906040013560ff166108ab565b34801561032e57600080fd5b506101d1610b34565b34801561034357600080fd5b5061034c610b51565b60408051918252519081900360200190f35b34801561036a57600080fd5b5061034c610b57565b34801561037f57600080fd5b5061027f6004803603606081101561039657600080fd5b506001600160a01b03813581169160208101359091169060400135610b5d565b3480156103c257600080fd5b5061034c600480360360208110156103d957600080fd5b5035610bea565b3480156103ec57600080fd5b5061034c6004803603602081101561040357600080fd5b50356001600160a01b0316610bff565b34801561041f57600080fd5b5061043d6004803603602081101561043657600080fd5b5035610c1a565b005b34801561044b57600080fd5b5061043d6004803603604081101561046257600080fd5b50803590602001356001600160a01b0316610c2e565b34801561048457600080fd5b5061048d610c9a565b6040805160ff9092168252519081900360200190f35b3480156104af57600080fd5b5061034c610ca3565b3480156104c457600080fd5b5061043d600480360360408110156104db57600080fd5b50803590602001356001600160a01b0316610ca7565b3480156104fd57600080fd5b5061027f6004803603604081101561051457600080fd5b506001600160a01b038135169060200135610d08565b34801561053657600080fd5b5061043d6004803603604081101561054d57600080fd5b506001600160a01b038135169060200135610d5c565b34801561056f57600080fd5b5061034c6004803603602081101561058657600080fd5b50356001600160a01b0316610e1a565b3480156105a257600080fd5b506105c6600480360360408110156105b957600080fd5b5080359060200135610e35565b604080516001600160a01b039092168252519081900360200190f35b3480156105ee57600080fd5b5061027f6004803603604081101561060557600080fd5b50803590602001356001600160a01b0316610e5a565b34801561062757600080fd5b506101d1610e78565b34801561063c57600080fd5b5061034c610ed9565b34801561065157600080fd5b5061034c610ede565b34801561066657600080fd5b5061027f6004803603604081101561067d57600080fd5b506001600160a01b038135169060200135610f04565b34801561069f57600080fd5b5061027f600480360360408110156106b657600080fd5b506001600160a01b038135169060200135610f72565b3480156106d857600080fd5b5061034c600480360360208110156106ef57600080fd5b5035610f86565b34801561070257600080fd5b5061043d6004803603604081101561071957600080fd5b6001600160a01b03823516919081019060408101602082013564010000000081111561074457600080fd5b82018360208201111561075657600080fd5b8035906020019184600183028401116401000000008311171561077857600080fd5b509092509050610f9d565b34801561078f57600080fd5b5061043d600480360360408110156107a657600080fd5b50803590602001356001600160a01b031661105a565b3480156107c857600080fd5b5061034c600480360360408110156107df57600080fd5b506001600160a01b03813581169160200135166110b3565b60038054604080516020601f60026000196101006001881615020190951694909404938401819004810282018101909252828152606093909290918301828280156108835780601f1061085857610100808354040283529160200191610883565b820191906000526020600020905b81548152906001019060200180831161086657829003601f168201915b5050505050905090565b60006108a161089a6110de565b84846110ed565b5060015b92915050565b60606108b5611b4e565b604080516060810182526001600160a01b038a166000818152600a602090815290849020548352808301919091528251601f8a0182900482028101820184528981529192830191908a908a90819084018382808284376000920191909152505050915250905061092888828787876111d9565b6109635760405162461bcd60e51b8152600401808060200182810382526021815260200180611d176021913960400191505060405180910390fd5b6001600160a01b0388166000818152600a60209081526040918290208054600101905581518181529081018990523392917f5845892132946850460bff5a0083f71031bc5bf9aadcd40f1de79423eac9b10b918b918b919081908101848480828437600083820152604051601f909101601f19169092018290039550909350505050a360006060306001600160a01b031689898c6040516020018084848082843780830192505050826001600160a01b03166001600160a01b031660601b815260140193505050506040516020818303038152906040526040518082805190602001908083835b60208310610a695780518252601f199092019160209182019101610a4a565b6001836020036101000a0380198251168184511680821785525050505050509050019150506000604051808303816000865af19150503d8060008114610acb576040519150601f19603f3d011682016040523d82523d6000602084013e610ad0565b606091505b509150915081610b27576040805162461bcd60e51b815260206004820152601c60248201527f46756e6374696f6e2063616c6c206e6f74207375636365737366756c00000000604482015290519081900360640190fd5b9998505050505050505050565b604051806040016040528060018152602001603160f81b81525081565b60025490565b60095490565b6000610b6a8484846112b6565b610be084610b766110de565b610bdb85604051806060016040528060288152602001611cef602891396001600160a01b038a16600090815260016020526040812090610bb46110de565b6001600160a01b03168152602081019190915260400160002054919063ffffffff61141d16565b6110ed565b5060019392505050565b60009081526006602052604090206002015490565b6001600160a01b03166000908152600a602052604090205490565b610c2b610c256110de565b826114b4565b50565b600082815260066020526040902060020154610c5190610c4c6110de565b610e5a565b610c8c5760405162461bcd60e51b815260040180806020018281038252602f815260200180611bbe602f913960400191505060405180910390fd5b610c9682826115bc565b5050565b60055460ff1690565b4690565b610caf6110de565b6001600160a01b0316816001600160a01b031614610cfe5760405162461bcd60e51b815260040180806020018281038252602f815260200180611dc7602f913960400191505060405180910390fd5b610c96828261162b565b60006108a1610d156110de565b84610bdb8560016000610d266110de565b6001600160a01b03908116825260208083019390935260409182016000908120918c16815292529020549063ffffffff61169a16565b6000610d6a81610c4c6110de565b600790610e0a5760405162461bcd60e51b8152602060048201908152825460026000196101006001841615020190911604602483018190529091829160449091019084908015610dfb5780601f10610dd057610100808354040283529160200191610dfb565b820191906000526020600020905b815481529060010190602001808311610dde57829003601f168201915b50509250505060405180910390fd5b50610e1583836116f4565b505050565b6001600160a01b031660009081526020819052604090205490565b6000828152600660205260408120610e53908363ffffffff6117f016565b9392505050565b6000828152600660205260408120610e53908363ffffffff6117fc16565b60048054604080516020601f60026000196101006001881615020190951694909404938401819004810282018101909252828152606093909290918301828280156108835780601f1061085857610100808354040283529160200191610883565b600081565b604080516d4445504f5349544f525f524f4c4560901b8152905190819003600e01902081565b60006108a1610f116110de565b84610bdb85604051806060016040528060258152602001611da26025913960016000610f3b6110de565b6001600160a01b03908116825260208083019390935260409182016000908120918d1681529252902054919063ffffffff61141d16565b60006108a1610f7f6110de565b84846112b6565b60008181526006602052604081206108a590611811565b604080516d4445504f5349544f525f524f4c4560901b8152905190819003600e019020610fcc81610c4c6110de565b6007906110325760405162461bcd60e51b8152602060048201908152825460026000196101006001841615020190911604602483018190529091829160449091019084908015610dfb5780601f10610dd057610100808354040283529160200191610dfb565b5060008383602081101561104557600080fd5b5035905061105385826116f4565b5050505050565b60008281526006602052604090206002015461107890610c4c6110de565b610cfe5760405162461bcd60e51b8152600401808060200182810382526030815260200180611c9a6030913960400191505060405180910390fd5b6001600160a01b03918216600090815260016020908152604080832093909416825291909152205490565b60006110e861181c565b905090565b6001600160a01b0383166111325760405162461bcd60e51b8152600401808060200182810382526024815260200180611d7e6024913960400191505060405180910390fd5b6001600160a01b0382166111775760405162461bcd60e51b8152600401808060200182810382526022815260200180611c526022913960400191505060405180910390fd5b6001600160a01b03808416600081815260016020908152604080832094871680845294825291829020859055815185815291517f8c5be1e5ebec7d5bd14f71427d1e84f3dd0314c0f7b2291e5b200ac8c7c3b9259281900390910190a3505050565b60006001600160a01b0386166112205760405162461bcd60e51b8152600401808060200182810382526025815260200180611cca6025913960400191505060405180910390fd5b600161123361122e8761187a565b611906565b83868660405160008152602001604052604051808581526020018460ff1660ff1681526020018381526020018281526020019450505050506020604051602081039080840390855afa15801561128d573d6000803e3d6000fd5b505050602060405103516001600160a01b0316866001600160a01b031614905095945050505050565b6001600160a01b0383166112fb5760405162461bcd60e51b8152600401808060200182810382526025815260200180611d596025913960400191505060405180910390fd5b6001600160a01b0382166113405760405162461bcd60e51b8152600401808060200182810382526023815260200180611b9b6023913960400191505060405180910390fd5b61134b838383610e15565b61138e81604051806060016040528060268152602001611c74602691396001600160a01b038616600090815260208190526040902054919063ffffffff61141d16565b6001600160a01b0380851660009081526020819052604080822093909355908416815220546113c3908263ffffffff61169a16565b6001600160a01b038084166000818152602081815260409182902094909455805185815290519193928716927fddf252ad1be2c89b69c2b068fc378daa952ba7f163c4a11628f55a4df523b3ef92918290030190a3505050565b600081848411156114ac5760405162461bcd60e51b81526004018080602001828103825283818151815260200191508051906020019080838360005b83811015611471578181015183820152602001611459565b50505050905090810190601f16801561149e5780820380516001836020036101000a031916815260200191505b509250505060405180910390fd5b505050900390565b6001600160a01b0382166114f95760405162461bcd60e51b8152600401808060200182810382526021815260200180611d386021913960400191505060405180910390fd5b61150582600083610e15565b61154881604051806060016040528060228152602001611bed602291396001600160a01b038516600090815260208190526040902054919063ffffffff61141d16565b6001600160a01b038316600090815260208190526040902055600254611574908263ffffffff61195216565b6002556040805182815290516000916001600160a01b038516917fddf252ad1be2c89b69c2b068fc378daa952ba7f163c4a11628f55a4df523b3ef9181900360200190a35050565b60008281526006602052604090206115da908263ffffffff61199416565b15610c96576115e76110de565b6001600160a01b0316816001600160a01b0316837f2f8788117e7eff1d82e926ec794901d17c78024a50270940304540a733656f0d60405160405180910390a45050565b6000828152600660205260409020611649908263ffffffff6119a916565b15610c96576116566110de565b6001600160a01b0316816001600160a01b0316837ff6391f5c32d9c69d2a47ea670b442974b53935d1edc7fd64eb21e047a839171b60405160405180910390a45050565b600082820183811015610e53576040805162461bcd60e51b815260206004820152601b60248201527f536166654d6174683a206164646974696f6e206f766572666c6f770000000000604482015290519081900360640190fd5b6001600160a01b03821661174f576040805162461bcd60e51b815260206004820152601f60248201527f45524332303a206d696e7420746f20746865207a65726f206164647265737300604482015290519081900360640190fd5b61175b60008383610e15565b60025461176e908263ffffffff61169a16565b6002556001600160a01b03821660009081526020819052604090205461179a908263ffffffff61169a16565b6001600160a01b0383166000818152602081815260408083209490945583518581529351929391927fddf252ad1be2c89b69c2b068fc378daa952ba7f163c4a11628f55a4df523b3ef9281900390910190a35050565b6000610e5383836119be565b6000610e53836001600160a01b038416611a22565b60006108a582611a3a565b6000333014156118745760606000368080601f0160208091040260200160405190810160405280939291908181526020018383808284376000920191909152505050503601516001600160a01b031691506118779050565b50335b90565b6000604051806080016040528060438152602001611c0f60439139805190602001208260000151836020015184604001518051906020012060405160200180858152602001848152602001836001600160a01b03166001600160a01b03168152602001828152602001945050505050604051602081830303815290604052805190602001209050919050565b6000611910610b57565b82604051602001808061190160f01b81525060020183815260200182815260200192505050604051602081830303815290604052805190602001209050919050565b6000610e5383836040518060400160405280601e81526020017f536166654d6174683a207375627472616374696f6e206f766572666c6f77000081525061141d565b6000610e53836001600160a01b038416611a3e565b6000610e53836001600160a01b038416611a88565b81546000908210611a005760405162461bcd60e51b8152600401808060200182810382526022815260200180611b796022913960400191505060405180910390fd5b826000018281548110611a0f57fe5b9060005260206000200154905092915050565b60009081526001919091016020526040902054151590565b5490565b6000611a4a8383611a22565b611a80575081546001818101845560008481526020808220909301849055845484825282860190935260409020919091556108a5565b5060006108a5565b60008181526001830160205260408120548015611b445783546000198083019190810190600090879083908110611abb57fe5b9060005260206000200154905080876000018481548110611ad857fe5b600091825260208083209091019290925582815260018981019092526040902090840190558654879080611b0857fe5b600190038181906000526020600020016000905590558660010160008781526020019081526020016000206000905560019450505050506108a5565b60009150506108a5565b60405180606001604052806000815260200160006001600160a01b0316815260200160608152509056fe456e756d657261626c655365743a20696e646578206f7574206f6620626f756e647345524332303a207472616e7366657220746f20746865207a65726f2061646472657373416363657373436f6e74726f6c3a2073656e646572206d75737420626520616e2061646d696e20746f206772616e7445524332303a206275726e20616d6f756e7420657863656564732062616c616e63654d6574615472616e73616374696f6e2875696e74323536206e6f6e63652c616464726573732066726f6d2c62797465732066756e6374696f6e5369676e61747572652945524332303a20617070726f766520746f20746865207a65726f206164647265737345524332303a207472616e7366657220616d6f756e7420657863656564732062616c616e6365416363657373436f6e74726f6c3a2073656e646572206d75737420626520616e2061646d696e20746f207265766f6b654e61746976654d6574615472616e73616374696f6e3a20494e56414c49445f5349474e455245524332303a207472616e7366657220616d6f756e74206578636565647320616c6c6f77616e63655369676e657220616e64207369676e617475726520646f206e6f74206d6174636845524332303a206275726e2066726f6d20746865207a65726f206164647265737345524332303a207472616e736665722066726f6d20746865207a65726f206164647265737345524332303a20617070726f76652066726f6d20746865207a65726f206164647265737345524332303a2064656372656173656420616c6c6f77616e63652062656c6f77207a65726f416363657373436f6e74726f6c3a2063616e206f6e6c792072656e6f756e636520726f6c657320666f722073656c66a2646970667358221220cf66ae8c6fb41a6e10c591f3b0ca1f92ca3f846557a2af04d82e6a0316240c9564736f6c63430006060033454950373132446f6d61696e28737472696e67206e616d652c737472696e672076657273696f6e2c6164647265737320766572696679696e67436f6e74726163742c627974657333322073616c7429","linkReferences":{}},"methodIdentifiers":{"DEFAULT_ADMIN_ROLE()":"a217fddf","DEPOSITOR_ROLE()":"a3b0b5a3","ERC712_VERSION()":"0f7e5970","allowance(address,address)":"dd62ed3e","approve(address,uint256)":"095ea7b3","balanceOf(address)":"70a08231","decimals()":"313ce567","decreaseAllowance(address,uint256)":"a457c2d7","deposit(address,bytes)":"cf2c52cb","executeMetaTransaction(address,bytes,bytes32,bytes32,uint8)":"0c53c51c","getChainId()":"3408e470","getDomainSeperator()":"20379ee5","getNonce(address)":"2d0335ab","getRoleAdmin(bytes32)":"248a9ca3","getRoleMember(bytes32,uint256)":"9010d07c","getRoleMemberCount(bytes32)":"ca15c873","grantRole(bytes32,address)":"2f2ff15d","hasRole(bytes32,address)":"91d14854","increaseAllowance(address,uint256)":"39509351","mint(address,uint256)":"40c10f19","name()":"06fdde03","renounceRole(bytes32,address)":"36568abe","revokeRole(bytes32,address)":"d547741f","symbol()":"95d89b41","totalSupply()":"18160ddd","transfer(address,uint256)":"a9059cbb","transferFrom(address,address,uint256)":"23b872dd","withdraw(uint256)":"2e1a7d4d"},"id":8}