{"abi":[{"type":"constructor","inputs":[{"name":"name_","type":"string","internalType":"string"},{"name":"symbol_","type":"string","internalType":"string"}],"stateMutability":"nonpayable"},{"type":"function","name":"DEFAULT_ADMIN_ROLE","inputs":[],"outputs":[{"name":"","type":"bytes32","internalType":"bytes32"}],"stateMutability":"view"},{"type":"function","name":"ERC712_VERSION","inputs":[],"outputs":[{"name":"","type":"string","internalType":"string"}],"stateMutability":"view"},{"type":"function","name":"PREDICATE_ROLE","inputs":[],"outputs":[{"name":"","type":"bytes32","internalType":"bytes32"}],"stateMutability":"view"},{"type":"function","name":"approve","inputs":[{"name":"to","type":"address","internalType":"address"},{"name":"tokenId","type":"uint256","internalType":"uint256"}],"outputs":[],"stateMutability":"nonpayable"},{"type":"function","name":"balanceOf","inputs":[{"name":"owner","type":"address","internalType":"address"}],"outputs":[{"name":"","type":"uint256","internalType":"uint256"}],"stateMutability":"view"},{"type":"function","name":"baseURI","inputs":[],"outputs":[{"name":"","type":"string","internalType":"string"}],"stateMutability":"view"},{"type":"function","name":"executeMetaTransaction","inputs":[{"name":"userAddress","type":"address","internalType":"address"},{"name":"functionSignature","type":"bytes","internalType":"bytes"},{"name":"sigR","type":"bytes32","internalType":"bytes32"},{"name":"sigS","type":"bytes32","internalType":"bytes32"},{"name":"sigV","type":"uint8","internalType":"uint8"}],"outputs":[{"name":"","type":"bytes","internalType":"bytes"}],"stateMutability":"payable"},{"type":"function","name":"getApproved","inputs":[{"name":"tokenId","type":"uint256","internalType":"uint256"}],"outputs":[{"name":"","type":"address","internalType":"address"}],"stateMutability":"view"},{"type":"function","name":"getChainId","inputs":[],"outputs":[{"name":"","type":"uint256","internalType":"uint256"}],"stateMutability":"pure"},{"type":"function","name":"getDomainSeperator","inputs":[],"outputs":[{"name":"","type":"bytes32","internalType":"bytes32"}],"stateMutability":"view"},{"type":"function","name":"getNonce","inputs":[{"name":"user","type":"address","internalType":"address"}],"outputs":[{"name":"nonce","type":"uint256","internalType":"uint256"}],"stateMutability":"view"},{"type":"function","name":"getRoleAdmin","inputs":[{"name":"role","type":"bytes32","internalType":"bytes32"}],"outputs":[{"name":"","type":"bytes32","internalType":"bytes32"}],"stateMutability":"view"},{"type":"function","name":"getRoleMember","inputs":[{"name":"role","type":"bytes32","internalType":"bytes32"},{"name":"index","type":"uint256","internalType":"uint256"}],"outputs":[{"name":"","type":"address","internalType":"address"}],"stateMutability":"view"},{"type":"function","name":"getRoleMemberCount","inputs":[{"name":"role","type":"bytes32","internalType":"bytes32"}],"outputs":[{"name":"","type":"uint256","internalType":"uint256"}],"stateMutability":"view"},{"type":"function","name":"grantRole","inputs":[{"name":"role","type":"bytes32","internalType":"bytes32"},{"name":"account","type":"address","internalType":"address"}],"outputs":[],"stateMutability":"nonpayable"},{"type":"function","name":"hasRole","inputs":[{"name":"role","type":"bytes32","internalType":"bytes32"},{"name":"account","type":"address","internalType":"address"}],"outputs":[{"name":"","type":"bool","internalType":"bool"}],"stateMutability":"view"},{"type":"function","name":"isApprovedForAll","inputs":[{"name":"owner","type":"address","internalType":"address"},{"name":"operator","type":"address","internalType":"address"}],"outputs":[{"name":"","type":"bool","internalType":"bool"}],"stateMutability":"view"},{"type":"function","name":"mint","inputs":[{"name":"tokenId","type":"uint256","internalType":"uint256"}],"outputs":[],"stateMutability":"nonpayable"},{"type":"function","name":"name","inputs":[],"outputs":[{"name":"","type":"string","internalType":"string"}],"stateMutability":"view"},{"type":"function","name":"ownerOf","inputs":[{"name":"tokenId","type":"uint256","internalType":"uint256"}],"outputs":[{"name":"","type":"address","internalType":"address"}],"stateMutability":"view"},{"type":"function","name":"renounceRole","inputs":[{"name":"role","type":"bytes32","internalType":"bytes32"},{"name":"account","type":"address","internalType":"address"}],"outputs":[],"stateMutability":"nonpayable"},{"type":"function","name":"revokeRole","inputs":[{"name":"role","type":"bytes32","internalType":"bytes32"},{"name":"account","type":"address","internalType":"address"}],"outputs":[],"stateMutability":"nonpayable"},{"type":"function","name":"safeTransferFrom","inputs":[{"name":"from","type":"address","internalType":"address"},{"name":"to","type":"address","internalType":"address"},{"name":"tokenId","type":"uint256","internalType":"uint256"}],"outputs":[],"stateMutability":"nonpayable"},{"type":"function","name":"safeTransferFrom","inputs":[{"name":"from","type":"address","internalType":"address"},{"name":"to","type":"address","internalType":"address"},{"name":"tokenId","type":"uint256","internalType":"uint256"},{"name":"_data","type":"bytes","internalType":"bytes"}],"outputs":[],"stateMutability":"nonpayable"},{"type":"function","name":"setApprovalForAll","inputs":[{"name":"operator","type":"address","internalType":"address"},{"name":"approved","type":"bool","internalType":"bool"}],"outputs":[],"stateMutability":"nonpayable"},{"type":"function","name":"supportsInterface","inputs":[{"name":"interfaceId","type":"bytes4","internalType":"bytes4"}],"outputs":[{"name":"","type":"bool","internalType":"bool"}],"stateMutability":"view"},{"type":"function","name":"symbol","inputs":[],"outputs":[{"name":"","type":"string","internalType":"string"}],"stateMutability":"view"},{"type":"function","name":"tokenByIndex","inputs":[{"name":"index","type":"uint256","internalType":"uint256"}],"outputs":[{"name":"","type":"uint256","internalType":"uint256"}],"stateMutability":"view"},{"type":"function","name":"tokenOfOwnerByIndex","inputs":[{"name":"owner","type":"address","internalType":"address"},{"name":"index","type":"uint256","internalType":"uint256"}],"outputs":[{"name":"","type":"uint256","internalType":"uint256"}],"stateMutability":"view"},{"type":"function","name":"tokenURI","inputs":[{"name":"tokenId","type":"uint256","internalType":"uint256"}],"outputs":[{"name":"","type":"string","internalType":"string"}],"stateMutability":"view"},{"type":"function","name":"totalSupply","inputs":[],"outputs":[{"name":"","type":"uint256","internalType":"uint256"}],"stateMutability":"view"},{"type":"function","name":"transferFrom","inputs":[{"name":"from","type":"address","internalType":"address"},{"name":"to","type":"address","internalType":"address"},{"name":"tokenId","type":"uint256","internalType":"uint256"}],"outputs":[],"stateMutability":"nonpayable"},{"type":"event","name":"Approval","inputs":[{"name":"owner","type":"address","indexed":true,"internalType":"address"},{"name":"approved","type":"address","indexed":true,"internalType":"address"},{"name":"tokenId","type":"uint256","indexed":true,"internalType":"uint256"}],"anonymous":false},{"type":"event","name":"ApprovalForAll","inputs":[{"name":"owner","type":"address","indexed":true,"internalType":"address"},{"name":"operator","type":"address","indexed":true,"internalType":"address"},{"name":"approved","type":"bool","indexed":false,"internalType":"bool"}],"anonymous":false},{"type":"event","name":"MetaTransactionExecuted","inputs":[{"name":"userAddress","type":"address","indexed":true,"internalType":"address"},{"name":"relayerAddress","type":"address","indexed":true,"internalType":"address payable"},{"name":"functionSignature","type":"bytes","indexed":false,"internalType":"bytes"}],"anonymous":false},{"type":"event","name":"RoleAdminChanged","inputs":[{"name":"role","type":"bytes32","indexed":true,"internalType":"bytes32"},{"name":"previousAdminRole","type":"bytes32","indexed":true,"internalType":"bytes32"},{"name":"newAdminRole","type":"bytes32","indexed":true,"internalType":"bytes32"}],"anonymous":false},{"type":"event","name":"RoleGranted","inputs":[{"name":"role","type":"bytes32","indexed":true,"internalType":"bytes32"},{"name":"account","type":"address","indexed":true,"internalType":"address"},{"name":"sender","type":"address","indexed":true,"internalType":"address"}],"anonymous":false},{"type":"event","name":"RoleRevoked","inputs":[{"name":"role","type":"bytes32","indexed":true,"internalType":"bytes32"},{"name":"account","type":"address","indexed":true,"internalType":"address"},{"name":"sender","type":"address","indexed":true,"internalType":"address"}],"anonymous":false},{"type":"event","name":"Transfer","inputs":[{"name":"from","type":"address","indexed":true,"internalType":"address"},{"name":"to","type":"address","indexed":true,"internalType":"address"},{"name":"tokenId","type":"uint256","indexed":true,"internalType":"uint256"}],"anonymous":false}],"bytecode":{"object":"0x6080604052600c805460ff191690553480156200001b57600080fd5b50604051620030e2380380620030e2833981810160405260408110156200004157600080fd5b81019080805160405193929190846401000000008211156200006257600080fd5b9083019060208201858111156200007857600080fd5b82516401000000008111828201881017156200009357600080fd5b82525081516020918201929091019080838360005b83811015620000c2578181015183820152602001620000a8565b50505050905090810190601f168015620000f05780820380516001836020036101000a031916815260200191505b50604052602001805160405193929190846401000000008211156200011457600080fd5b9083019060208201858111156200012a57600080fd5b82516401000000008111828201881017156200014557600080fd5b82525081516020918201929091019080838360005b83811015620001745781810151838201526020016200015a565b50505050905090810190601f168015620001a25780820380516001836020036101000a031916815260200191505b5060405250839150829050620001c86301ffc9a760e01b6001600160e01b03620002fc16565b8151620001dd9060069060208501906200070f565b508051620001f39060079060208401906200070f565b506200020f6380ac58cd60e01b6001600160e01b03620002fc16565b6200022a635b5e139f60e01b6001600160e01b03620002fc16565b6200024563780e9d6360e01b6001600160e01b03620002fc16565b505060408051808201909152600b81526a44756d6d7945524337323160a81b60208201526200027d906001600160e01b036200038116565b620002a56000620002966001600160e01b036200042716565b6001600160e01b036200044416565b604080516d5052454449434154455f524f4c4560901b8152905190819003600e019020620002e090620002966001600160e01b036200042716565b620002f4826001600160e01b036200045916565b5050620007b1565b6001600160e01b031980821614156200035c576040805162461bcd60e51b815260206004820152601c60248201527f4552433136353a20696e76616c696420696e7465726661636520696400000000604482015290519081900360640190fd5b6001600160e01b0319166000908152602081905260409020805460ff19166001179055565b806040516020018082805190602001908083835b60208310620003b65780518252601f19909201916020918201910162000395565b51815160209384036101000a60001901801990921691161790527f3a20494e53554646494349454e545f5045524d495353494f4e530000000000009190930190815260408051808303600519018152601a90920190528051620004239550600b945092019190506200070f565b5050565b60006200043e620004c760201b62001d0a1760201c565b90505b90565b6200042382826001600160e01b036200052616565b600c5460ff1615620004a3576040805162461bcd60e51b815260206004820152600e60248201526d185b1c9958591e481a5b9a5d195960921b604482015290519081900360640190fd5b620004b7816001600160e01b03620005aa16565b50600c805460ff19166001179055565b600033301415620005215760606000368080601f0160208091040260200160405190810160405280939291908181526020018383808284376000920191909152505050503601516001600160a01b03169150620004419050565b503390565b6000828152600a602090815260409091206200054d91839062001e7262000672821b17901c565b156200042357620005666001600160e01b036200042716565b6001600160a01b0316816001600160a01b0316837f2f8788117e7eff1d82e926ec794901d17c78024a50270940304540a733656f0d60405160405180910390a45050565b6040518060800160405280604f815260200162003093604f913980516020918201208251838301206040805180820190915260018152603160f81b930192909252907fc89efdaa54c0f20c7adf612882df0950f5a951637e0307cdcb4c672f298b8bc630620006216001600160e01b036200069b16565b604080516020808201979097528082019590955260608501939093526001600160a01b03909116608084015260a0808401919091528151808403909101815260c090920190528051910120600d5550565b600062000692836001600160a01b0384166001600160e01b036200069f16565b90505b92915050565b4690565b6000620006b683836001600160e01b03620006f716565b620006ee5750815460018181018455600084815260208082209093018490558454848252828601909352604090209190915562000695565b50600062000695565b60009081526001919091016020526040902054151590565b828054600181600116156101000203166002900490600052602060002090601f016020900481019282601f106200075257805160ff191683800117855562000782565b8280016001018555821562000782579182015b828111156200078257825182559160200191906001019062000765565b506200079092915062000794565b5090565b6200044191905b808211156200079057600081556001016200079b565b6128d280620007c16000396000f3fe6080604052600436106101e35760003560e01c80634f6ccce711610102578063a217fddf11610095578063ca15c87311610064578063ca15c8731461084f578063d547741f14610879578063e72db5fd146108b2578063e985e9c5146108c7576101e3565b8063a217fddf14610702578063a22cb46514610717578063b88d4fde14610752578063c87b56dd14610825576101e3565b80639010d07c116100d15780639010d07c1461065a57806391d148541461068a57806395d89b41146106c3578063a0712d68146106d8576101e3565b80634f6ccce7146105be5780636352211e146105e85780636c0360eb1461061257806370a0823114610627576101e3565b806323b872dd1161017a5780632f745c59116101495780632f745c59146104f45780633408e4701461052d57806336568abe1461054257806342842e0e1461057b576101e3565b806323b872dd1461041b578063248a9ca31461045e5780632d0335ab146104885780632f2ff15d146104bb576101e3565b80630c53c51c116101b65780630c53c51c1461033b5780630f7e5970146103ca57806318160ddd146103df57806320379ee514610406576101e3565b806301ffc9a7146101e857806306fdde0314610230578063081812fc146102ba578063095ea7b314610300575b600080fd5b3480156101f457600080fd5b5061021c6004803603602081101561020b57600080fd5b50356001600160e01b031916610902565b604080519115158252519081900360200190f35b34801561023c57600080fd5b50610245610925565b6040805160208082528351818301528351919283929083019185019080838360005b8381101561027f578181015183820152602001610267565b50505050905090810190601f1680156102ac5780820380516001836020036101000a031916815260200191505b509250505060405180910390f35b3480156102c657600080fd5b506102e4600480360360208110156102dd57600080fd5b50356109bb565b604080516001600160a01b039092168252519081900360200190f35b34801561030c57600080fd5b506103396004803603604081101561032357600080fd5b506001600160a01b038135169060200135610a1d565b005b610245600480360360a081101561035157600080fd5b6001600160a01b03823516919081019060408101602082013564010000000081111561037c57600080fd5b82018360208201111561038e57600080fd5b803590602001918460018302840111640100000000831117156103b057600080fd5b91935091508035906020810135906040013560ff16610af8565b3480156103d657600080fd5b50610245610d81565b3480156103eb57600080fd5b506103f4610d9e565b60408051918252519081900360200190f35b34801561041257600080fd5b506103f4610daf565b34801561042757600080fd5b506103396004803603606081101561043e57600080fd5b506001600160a01b03813581169160208101359091169060400135610db5565b34801561046a57600080fd5b506103f46004803603602081101561048157600080fd5b5035610e0c565b34801561049457600080fd5b506103f4600480360360208110156104ab57600080fd5b50356001600160a01b0316610e21565b3480156104c757600080fd5b50610339600480360360408110156104de57600080fd5b50803590602001356001600160a01b0316610e3c565b34801561050057600080fd5b506103f46004803603604081101561051757600080fd5b506001600160a01b038135169060200135610ea8565b34801561053957600080fd5b506103f4610ed9565b34801561054e57600080fd5b506103396004803603604081101561056557600080fd5b50803590602001356001600160a01b0316610edd565b34801561058757600080fd5b506103396004803603606081101561059e57600080fd5b506001600160a01b03813581169160208101359091169060400135610f3e565b3480156105ca57600080fd5b506103f4600480360360208110156105e157600080fd5b5035610f59565b3480156105f457600080fd5b506102e46004803603602081101561060b57600080fd5b5035610f75565b34801561061e57600080fd5b50610245610fa3565b34801561063357600080fd5b506103f46004803603602081101561064a57600080fd5b50356001600160a01b0316611004565b34801561066657600080fd5b506102e46004803603604081101561067d57600080fd5b508035906020013561106c565b34801561069657600080fd5b5061021c600480360360408110156106ad57600080fd5b50803590602001356001600160a01b031661108a565b3480156106cf57600080fd5b506102456110a8565b3480156106e457600080fd5b50610339600480360360208110156106fb57600080fd5b5035611109565b34801561070e57600080fd5b506103f461111d565b34801561072357600080fd5b506103396004803603604081101561073a57600080fd5b506001600160a01b0381351690602001351515611122565b34801561075e57600080fd5b506103396004803603608081101561077557600080fd5b6001600160a01b038235811692602081013590911691604082013591908101906080810160608201356401000000008111156107b057600080fd5b8201836020820111156107c257600080fd5b803590602001918460018302840111640100000000831117156107e457600080fd5b91908080601f016020809104026020016040519081016040528093929190818152602001838380828437600092019190915250929550611227945050505050565b34801561083157600080fd5b506102456004803603602081101561084857600080fd5b5035611285565b34801561085b57600080fd5b506103f46004803603602081101561087257600080fd5b503561152c565b34801561088557600080fd5b506103396004803603604081101561089c57600080fd5b50803590602001356001600160a01b0316611543565b3480156108be57600080fd5b506103f461159c565b3480156108d357600080fd5b5061021c600480360360408110156108ea57600080fd5b506001600160a01b03813581169160200135166115c2565b6001600160e01b0319811660009081526020819052604090205460ff165b919050565b60068054604080516020601f60026000196101006001881615020190951694909404938401819004810282018101909252828152606093909290918301828280156109b15780601f10610986576101008083540402835291602001916109b1565b820191906000526020600020905b81548152906001019060200180831161099457829003601f168201915b5050505050905090565b60006109c6826115f0565b610a015760405162461bcd60e51b815260040180806020018281038252602c815260200180612777602c913960400191505060405180910390fd5b506000908152600460205260409020546001600160a01b031690565b6000610a2882610f75565b9050806001600160a01b0316836001600160a01b03161415610a7b5760405162461bcd60e51b815260040180806020018281038252602181526020018061281c6021913960400191505060405180910390fd5b806001600160a01b0316610a8d611603565b6001600160a01b03161480610aae5750610aae81610aa9611603565b6115c2565b610ae95760405162461bcd60e51b81526004018080602001828103825260388152602001806126ca6038913960400191505060405180910390fd5b610af3838361160d565b505050565b6060610b02612534565b604080516060810182526001600160a01b038a166000818152600e602090815290849020548352808301919091528251601f8a0182900482028101820184528981529192830191908a908a908190840183828082843760009201919091525050509152509050610b75888287878761167b565b610bb05760405162461bcd60e51b81526004018080602001828103825260218152602001806127cc6021913960400191505060405180910390fd5b6001600160a01b0388166000818152600e60209081526040918290208054600101905581518181529081018990523392917f5845892132946850460bff5a0083f71031bc5bf9aadcd40f1de79423eac9b10b918b918b919081908101848480828437600083820152604051601f909101601f19169092018290039550909350505050a360006060306001600160a01b031689898c6040516020018084848082843780830192505050826001600160a01b03166001600160a01b031660601b815260140193505050506040516020818303038152906040526040518082805190602001908083835b60208310610cb65780518252601f199092019160209182019101610c97565b6001836020036101000a0380198251168184511680821785525050505050509050019150506000604051808303816000865af19150503d8060008114610d18576040519150601f19603f3d011682016040523d82523d6000602084013e610d1d565b606091505b509150915081610d74576040805162461bcd60e51b815260206004820152601c60248201527f46756e6374696f6e2063616c6c206e6f74207375636365737366756c00000000604482015290519081900360640190fd5b9998505050505050505050565b604051806040016040528060018152602001603160f81b81525081565b6000610daa6002611758565b905090565b600d5490565b610dc6610dc0611603565b82611763565b610e015760405162461bcd60e51b815260040180806020018281038252603181526020018061283d6031913960400191505060405180910390fd5b610af3838383611807565b6000908152600a602052604090206002015490565b6001600160a01b03166000908152600e602052604090205490565b6000828152600a6020526040902060020154610e5f90610e5a611603565b61108a565b610e9a5760405162461bcd60e51b815260040180806020018281038252602f815260200180612581602f913960400191505060405180910390fd5b610ea48282611965565b5050565b6001600160a01b0382166000908152600160205260408120610ed0908363ffffffff6119d416565b90505b92915050565b4690565b610ee5611603565b6001600160a01b0316816001600160a01b031614610f345760405162461bcd60e51b815260040180806020018281038252602f81526020018061286e602f913960400191505060405180910390fd5b610ea482826119e0565b610af383838360405180602001604052806000815250611227565b600080610f6d60028463ffffffff611a4f16565b509392505050565b6000610ed38260405180606001604052806029815260200161272c602991396002919063ffffffff611a6b16565b60098054604080516020601f60026000196101006001881615020190951694909404938401819004810282018101909252828152606093909290918301828280156109b15780601f10610986576101008083540402835291602001916109b1565b60006001600160a01b03821661104b5760405162461bcd60e51b815260040180806020018281038252602a815260200180612702602a913960400191505060405180910390fd5b6001600160a01b0382166000908152600160205260409020610ed390611758565b6000828152600a60205260408120610ed0908363ffffffff6119d416565b6000828152600a60205260408120610ed0908363ffffffff611a8216565b60078054604080516020601f60026000196101006001881615020190951694909404938401819004810282018101909252828152606093909290918301828280156109b15780601f10610986576101008083540402835291602001916109b1565b61111a611114611603565b82611a97565b50565b600081565b61112a611603565b6001600160a01b0316826001600160a01b03161415611190576040805162461bcd60e51b815260206004820152601960248201527f4552433732313a20617070726f766520746f2063616c6c657200000000000000604482015290519081900360640190fd5b806005600061119d611603565b6001600160a01b03908116825260208083019390935260409182016000908120918716808252919093529120805460ff1916921515929092179091556111e1611603565b60408051841515815290516001600160a01b0392909216917f17307eab39ab6107e8899845ad3d59bd9653f200f220920489ca2b5937696c319181900360200190a35050565b611238611232611603565b83611763565b6112735760405162461bcd60e51b815260040180806020018281038252603181526020018061283d6031913960400191505060405180910390fd5b61127f84848484611bd1565b50505050565b6060611290826115f0565b6112cb5760405162461bcd60e51b815260040180806020018281038252602f8152602001806127ed602f913960400191505060405180910390fd5b60008281526008602090815260409182902080548351601f60026000196101006001861615020190931692909204918201849004840281018401909452808452606093928301828280156113605780601f1061133557610100808354040283529160200191611360565b820191906000526020600020905b81548152906001019060200180831161134357829003601f168201915b505060095493945050505060026000196101006001841615020190911604611389579050610920565b80511561145a5760098160405160200180838054600181600116156101000203166002900480156113f15780601f106113cf5761010080835404028352918201916113f1565b820191906000526020600020905b8154815290600101906020018083116113dd575b5050825160208401908083835b6020831061141d5780518252601f1990920191602091820191016113fe565b6001836020036101000a03801982511681845116808217855250505050505090500192505050604051602081830303815290604052915050610920565b600961146584611c23565b60405160200180838054600181600116156101000203166002900480156114c35780601f106114a15761010080835404028352918201916114c3565b820191906000526020600020905b8154815290600101906020018083116114af575b5050825160208401908083835b602083106114ef5780518252601f1990920191602091820191016114d0565b6001836020036101000a03801982511681845116808217855250505050505090500192505050604051602081830303815290604052915050919050565b6000818152600a60205260408120610ed390611758565b6000828152600a602052604090206002015461156190610e5a611603565b610f345760405162461bcd60e51b81526004018080602001828103825260308152602001806126756030913960400191505060405180910390fd5b604080516d5052454449434154455f524f4c4560901b8152905190819003600e01902081565b6001600160a01b03918216600090815260056020908152604080832093909416825291909152205460ff1690565b6000610ed360028363ffffffff611cfe16565b6000610daa611d0a565b600081815260046020526040902080546001600160a01b0319166001600160a01b038416908117909155819061164282610f75565b6001600160a01b03167f8c5be1e5ebec7d5bd14f71427d1e84f3dd0314c0f7b2291e5b200ac8c7c3b92560405160405180910390a45050565b60006001600160a01b0386166116c25760405162461bcd60e51b81526004018080602001828103825260258152602001806126a56025913960400191505060405180910390fd5b60016116d56116d087611d68565b611df4565b83868660405160008152602001604052604051808581526020018460ff1660ff1681526020018381526020018281526020019450505050506020604051602081039080840390855afa15801561172f573d6000803e3d6000fd5b505050602060405103516001600160a01b0316866001600160a01b031614905095945050505050565b6000610ed382611e40565b600061176e826115f0565b6117a95760405162461bcd60e51b815260040180806020018281038252602c815260200180612649602c913960400191505060405180910390fd5b60006117b483610f75565b9050806001600160a01b0316846001600160a01b031614806117ef5750836001600160a01b03166117e4846109bb565b6001600160a01b0316145b806117ff57506117ff81856115c2565b949350505050565b826001600160a01b031661181a82610f75565b6001600160a01b03161461185f5760405162461bcd60e51b81526004018080602001828103825260298152602001806127a36029913960400191505060405180910390fd5b6001600160a01b0382166118a45760405162461bcd60e51b81526004018080602001828103825260248152602001806126256024913960400191505060405180910390fd5b6118af838383610af3565b6118ba60008261160d565b6001600160a01b03831660009081526001602052604090206118e2908263ffffffff611e4416565b506001600160a01b038216600090815260016020526040902061190b908263ffffffff611e5016565b5061191e6002828463ffffffff611e5c16565b5080826001600160a01b0316846001600160a01b03167fddf252ad1be2c89b69c2b068fc378daa952ba7f163c4a11628f55a4df523b3ef60405160405180910390a4505050565b6000828152600a60205260409020611983908263ffffffff611e7216565b15610ea457611990611603565b6001600160a01b0316816001600160a01b0316837f2f8788117e7eff1d82e926ec794901d17c78024a50270940304540a733656f0d60405160405180910390a45050565b6000610ed08383611e87565b6000828152600a602052604090206119fe908263ffffffff611eeb16565b15610ea457611a0b611603565b6001600160a01b0316816001600160a01b0316837ff6391f5c32d9c69d2a47ea670b442974b53935d1edc7fd64eb21e047a839171b60405160405180910390a45050565b6000808080611a5e8686611f00565b9097909650945050505050565b6000611a78848484611f7b565b90505b9392505050565b6000610ed0836001600160a01b038416612045565b6001600160a01b038216611af2576040805162461bcd60e51b815260206004820181905260248201527f4552433732313a206d696e7420746f20746865207a65726f2061646472657373604482015290519081900360640190fd5b611afb816115f0565b15611b4d576040805162461bcd60e51b815260206004820152601c60248201527f4552433732313a20746f6b656e20616c7265616479206d696e74656400000000604482015290519081900360640190fd5b611b5960008383610af3565b6001600160a01b0382166000908152600160205260409020611b81908263ffffffff611e5016565b50611b946002828463ffffffff611e5c16565b5060405181906001600160a01b038416906000907fddf252ad1be2c89b69c2b068fc378daa952ba7f163c4a11628f55a4df523b3ef908290a45050565b611bdc848484611807565b611be88484848461205d565b61127f5760405162461bcd60e51b81526004018080602001828103825260328152602001806125b06032913960400191505060405180910390fd5b606081611c4857506040805180820190915260018152600360fc1b6020820152610920565b8160005b8115611c6057600101600a82049150611c4c565b60608167ffffffffffffffff81118015611c7957600080fd5b506040519080825280601f01601f191660200182016040528015611ca4576020820181803683370190505b50859350905060001982015b8315611cf557600a840660300160f81b82828060019003935081518110611cd357fe5b60200101906001600160f81b031916908160001a905350600a84049350611cb0565b50949350505050565b6000610ed08383612045565b600033301415611d625760606000368080601f0160208091040260200160405190810160405280939291908181526020018383808284376000920191909152505050503601516001600160a01b03169150611d659050565b50335b90565b60006040518060800160405280604381526020016125e260439139805190602001208260000151836020015184604001518051906020012060405160200180858152602001848152602001836001600160a01b03166001600160a01b03168152602001828152602001945050505050604051602081830303815290604052805190602001209050919050565b6000611dfe610daf565b82604051602001808061190160f01b81525060020183815260200182815260200192505050604051602081830303815290604052805190602001209050919050565b5490565b6000610ed083836121dd565b6000610ed083836122a3565b6000611a7884846001600160a01b0385166122ed565b6000610ed0836001600160a01b0384166122a3565b81546000908210611ec95760405162461bcd60e51b815260040180806020018281038252602281526020018061255f6022913960400191505060405180910390fd5b826000018281548110611ed857fe5b9060005260206000200154905092915050565b6000610ed0836001600160a01b0384166121dd565b815460009081908310611f445760405162461bcd60e51b81526004018080602001828103825260228152602001806127556022913960400191505060405180910390fd5b6000846000018481548110611f5557fe5b906000526020600020906002020190508060000154816001015492509250509250929050565b600082815260018401602052604081205482816120165760405162461bcd60e51b81526004018080602001828103825283818151815260200191508051906020019080838360005b83811015611fdb578181015183820152602001611fc3565b50505050905090810190601f1680156120085780820380516001836020036101000a031916815260200191505b509250505060405180910390fd5b5084600001600182038154811061202957fe5b9060005260206000209060020201600101549150509392505050565b60009081526001919091016020526040902054151590565b6000612071846001600160a01b0316612384565b61207d575060016117ff565b60606121a3630a85bd0160e11b612092611603565b88878760405160240180856001600160a01b03166001600160a01b03168152602001846001600160a01b03166001600160a01b0316815260200183815260200180602001828103825283818151815260200191508051906020019080838360005b8381101561210b5781810151838201526020016120f3565b50505050905090810190601f1680156121385780820380516001836020036101000a031916815260200191505b5095505050505050604051602081830303815290604052906001600160e01b0319166020820180516001600160e01b0383818316178352505050506040518060600160405280603281526020016125b0603291396001600160a01b038816919063ffffffff6123bd16565b905060008180602001905160208110156121bc57600080fd5b50516001600160e01b031916630a85bd0160e11b1492505050949350505050565b60008181526001830160205260408120548015612299578354600019808301919081019060009087908390811061221057fe5b906000526020600020015490508087600001848154811061222d57fe5b60009182526020808320909101929092558281526001898101909252604090209084019055865487908061225d57fe5b60019003818190600052602060002001600090559055866001016000878152602001908152602001600020600090556001945050505050610ed3565b6000915050610ed3565b60006122af8383612045565b6122e557508154600181810184556000848152602080822090930184905584548482528286019093526040902091909155610ed3565b506000610ed3565b600082815260018401602052604081205480612352575050604080518082018252838152602080820184815286546001818101895560008981528481209551600290930290950191825591519082015586548684528188019092529290912055611a7b565b8285600001600183038154811061236557fe5b9060005260206000209060020201600101819055506000915050611a7b565b6000813f7fc5d2460186f7233c927e7db2dcc703c0e500b653ca82273b7bfad8045d85a4708181148015906117ff575050151592915050565b6060611a78848460008560606123d285612384565b612423576040805162461bcd60e51b815260206004820152601d60248201527f416464726573733a2063616c6c20746f206e6f6e2d636f6e7472616374000000604482015290519081900360640190fd5b60006060866001600160a01b031685876040518082805190602001908083835b602083106124625780518252601f199092019160209182019101612443565b6001836020036101000a03801982511681845116808217855250505050505090500191505060006040518083038185875af1925050503d80600081146124c4576040519150601f19603f3d011682016040523d82523d6000602084013e6124c9565b606091505b509150915081156124dd5791506117ff9050565b8051156124ed5780518082602001fd5b60405162461bcd60e51b8152602060048201818152865160248401528651879391928392604401919085019080838360008315611fdb578181015183820152602001611fc3565b60405180606001604052806000815260200160006001600160a01b0316815260200160608152509056fe456e756d657261626c655365743a20696e646578206f7574206f6620626f756e6473416363657373436f6e74726f6c3a2073656e646572206d75737420626520616e2061646d696e20746f206772616e744552433732313a207472616e7366657220746f206e6f6e20455243373231526563656976657220696d706c656d656e7465724d6574615472616e73616374696f6e2875696e74323536206e6f6e63652c616464726573732066726f6d2c62797465732066756e6374696f6e5369676e6174757265294552433732313a207472616e7366657220746f20746865207a65726f20616464726573734552433732313a206f70657261746f7220717565727920666f72206e6f6e6578697374656e7420746f6b656e416363657373436f6e74726f6c3a2073656e646572206d75737420626520616e2061646d696e20746f207265766f6b654e61746976654d6574615472616e73616374696f6e3a20494e56414c49445f5349474e45524552433732313a20617070726f76652063616c6c6572206973206e6f74206f776e6572206e6f7220617070726f76656420666f7220616c6c4552433732313a2062616c616e636520717565727920666f7220746865207a65726f20616464726573734552433732313a206f776e657220717565727920666f72206e6f6e6578697374656e7420746f6b656e456e756d657261626c654d61703a20696e646578206f7574206f6620626f756e64734552433732313a20617070726f76656420717565727920666f72206e6f6e6578697374656e7420746f6b656e4552433732313a207472616e73666572206f6620746f6b656e2074686174206973206e6f74206f776e5369676e657220616e64207369676e617475726520646f206e6f74206d617463684552433732314d657461646174613a2055524920717565727920666f72206e6f6e6578697374656e7420746f6b656e4552433732313a20617070726f76616c20746f2063757272656e74206f776e65724552433732313a207472616e736665722063616c6c6572206973206e6f74206f776e6572206e6f7220617070726f766564416363657373436f6e74726f6c3a2063616e206f6e6c792072656e6f756e636520726f6c657320666f722073656c66a264697066735822122062ddae9b7f139891414a3fa5f44743175e53b03b3a3efc249c1c67fd3e8b129664736f6c63430006060033454950373132446f6d61696e28737472696e67206e616d652c737472696e672076657273696f6e2c6164647265737320766572696679696e67436f6e74726163742c627974657333322073616c7429","linkReferences":{}},"methodIdentifiers":{"DEFAULT_ADMIN_ROLE()":"a217fddf","ERC712_VERSION()":"0f7e5970","PREDICATE_ROLE()":"e72db5fd","approve(address,uint256)":"095ea7b3","balanceOf(address)":"70a08231","baseURI()":"6c0360eb","executeMetaTransaction(address,bytes,bytes32,bytes32,uint8)":"0c53c51c","getApproved(uint256)":"081812fc","getChainId()":"3408e470","getDomainSeperator()":"20379ee5","getNonce(address)":"2d0335ab","getRoleAdmin(bytes32)":"248a9ca3","getRoleMember(bytes32,uint256)":"9010d07c","getRoleMemberCount(bytes32)":"ca15c873","grantRole(bytes32,address)":"2f2ff15d","hasRole(bytes32,address)":"91d14854","isApprovedForAll(address,address)":"e985e9c5","mint(uint256)":"a0712d68","name()":"06fdde03","ownerOf(uint256)":"6352211e","renounceRole(bytes32,address)":"36568abe","revokeRole(bytes32,address)":"d547741f","safeTransferFrom(address,address,uint256)":"42842e0e","safeTransferFrom(address,address,uint256,bytes)":"b88d4fde","setApprovalForAll(address,bool)":"a22cb465","supportsInterface(bytes4)":"01ffc9a7","symbol()":"95d89b41","tokenByIndex(uint256)":"4f6ccce7","tokenOfOwnerByIndex(address,uint256)":"2f745c59","tokenURI(uint256)":"c87b56dd","totalSupply()":"18160ddd","transferFrom(address,address,uint256)":"23b872dd"},"id":38}