{
  "_format": "hh-sol-artifact-1",
  "contractName": "MerklePatriciaTest",
  "sourceName": "contracts/test/MerklePatriciaTest.sol",
  "abi": [
    {
      "inputs": [
        {
          "internalType": "uint256",
          "name": "receiptRoot",
          "type": "uint256"
        },
        {
          "internalType": "bytes",
          "name": "receipt",
          "type": "bytes"
        },
        {
          "internalType": "bytes",
          "name": "receiptProof",
          "type": "bytes"
        },
        {
          "internalType": "bytes",
          "name": "branchMask",
          "type": "bytes"
        }
      ],
      "name": "verify",
      "outputs": [
        {
          "internalType": "bool",
          "name": "",
          "type": "bool"
        }
      ],
      "stateMutability": "pure",
      "type": "function"
    }
  ],
  "bytecode": "0x608060405234801561001057600080fd5b506110f8806100206000396000f3fe608060405234801561001057600080fd5b506004361061002b5760003560e01c8063d1f13e2814610030575b600080fd5b61015b6004803603608081101561004657600080fd5b81019080803590602001909291908035906020019064010000000081111561006d57600080fd5b82018360208201111561007f57600080fd5b803590602001918460018302840111640100000000831117156100a157600080fd5b9091929391929390803590602001906401000000008111156100c257600080fd5b8201836020820111156100d457600080fd5b803590602001918460018302840111640100000000831117156100f657600080fd5b90919293919293908035906020019064010000000081111561011757600080fd5b82018360208201111561012957600080fd5b8035906020019184600183028401116401000000008311171561014b57600080fd5b9091929391929390505050610175565b604051808215151515815260200191505060405180910390f35b600061025287878080601f016020809104026020016040519081016040528093929190818152602001838380828437600081840152601f19601f8201169050808301925050505050505084848080601f016020809104026020016040519081016040528093929190818152602001838380828437600081840152601f19601f8201169050808301925050505050505087878080601f016020809104026020016040519081016040528093929190818152602001838380828437600081840152601f19601f820116905080830192505050505050508b60001b61025f565b9050979650505050505050565b6000610269610fda565b6102728461051a565b9050606061027f826105bf565b90506060806000869050600080905060606102998b61078a565b90506000815114156102b5576000975050505050505050610512565b60008090505b86518110156105095781518311156102de57600098505050505050505050610512565b6102fa8782815181106102ed57fe5b6020026020010151610951565b95508580519060200120841461031b57600098505050505050505050610512565b61033787828151811061032a57fe5b60200260200101516105bf565b945060118551141561040c5781518314156103a0578c805190602001206103718660108151811061036457fe5b60200260200101516109ca565b80519060200120141561038f57600198505050505050505050610512565b600098505050505050505050610512565b60008284815181106103ae57fe5b602001015160f81c60f81b60f81c905060108160ff1611156103dc5760009950505050505050505050610512565b6103fb868260ff16815181106103ee57fe5b6020026020010151610aca565b60001b9450600184019350506104fc565b6002855114156104ea57600061043f6104388760008151811061042b57fe5b60200260200101516109ca565b8486610bb1565b9050825181850114156104a2578d805190602001206104718760018151811061046457fe5b60200260200101516109ca565b8051906020012014156104905760019950505050505050505050610512565b60009950505050505050505050610512565b60008114156104bd5760009950505050505050505050610512565b80840193506104df866001815181106104d257fe5b6020026020010151610aca565b60001b9450506104fb565b600098505050505050505050610512565b5b80806001019150506102bb565b50505050505050505b949350505050565b610522610fda565b6000825111610599576040517f08c379a000000000000000000000000000000000000000000000000000000000815260040180806020018281038252601f8152602001807f524c505265616465723a20494e56414c49445f42595445535f4c454e4754480081525060200191505060405180910390fd5b600060208301905060405180604001604052808451815260200182815250915050919050565b60606105ca82610cbf565b61063c576040517f08c379a00000000000000000000000000000000000000000000000000000000081526004018080602001828103825260188152602001807f524c505265616465723a204954454d5f4e4f545f4c495354000000000000000081525060200191505060405180910390fd5b600061064783610cf8565b905060608167ffffffffffffffff8111801561066257600080fd5b5060405190808252806020026020018201604052801561069c57816020015b610689610fda565b8152602001906001900390816106815790505b50905060006106ae8560200151610dac565b90508460000151811461070c576040517f08c379a000000000000000000000000000000000000000000000000000000000815260040180806020018281038252602781526020018061106e6027913960400191505060405180910390fd5b600061071b8660200151610e64565b8660200151019050600080600090505b8581101561077c5761073c83610dac565b915060405180604001604052808381526020018481525085828151811061075f57fe5b60200260200101819052508183019250808060010191505061072b565b508395505050505050919050565b606080604051806020016040528060008152509050600083511115610948576000806107b7600086610eed565b60f81c905060018160ff1614806107d1575060038160ff16145b1561088057600160028651020367ffffffffffffffff811180156107f457600080fd5b506040519080825280601f01601f1916602001820160405280156108275781602001600182028036833780820191505090505b5092506000610837600187610eed565b9050808460008151811061084757fe5b60200101907effffffffffffffffffffffffffffffffffffffffffffffffffffffffffffff1916908160001a90535060019250506108d8565b6002808651020367ffffffffffffffff8111801561089d57600080fd5b506040519080825280601f01601f1916602001820160405280156108d05781602001600182028036833780820191505090505b509250600091505b60008260ff1690505b8351811015610944576108fc60028460ff1683030187610eed565b84828151811061090857fe5b60200101907effffffffffffffffffffffffffffffffffffffffffffffffffffffffffffff1916908160001a90535080806001019150506108e1565b5050505b80915050919050565b606080826000015167ffffffffffffffff8111801561096f57600080fd5b506040519080825280601f01601f1916602001820160405280156109a25781602001600182028036833780820191505090505b50905060008160200190506109c08460200151828660000151610f73565b8192505050919050565b606060006109db8360200151610dac565b905082600001518114610a39576040517f08c379a000000000000000000000000000000000000000000000000000000000815260040180806020018281038252602881526020018061101a6028913960400191505060405180910390fd5b6000610a488460200151610e64565b9050600081856000015103905060608167ffffffffffffffff81118015610a6e57600080fd5b506040519080825280601f01601f191660200182016040528015610aa15781602001600182028036833780820191505090505b5090506000816020019050610abd848860200151018285610f73565b8195505050505050919050565b600080610ada8360200151610dac565b905082600001518114610b38576040517f08c379a000000000000000000000000000000000000000000000000000000000815260040180806020018281038252602e815260200180611095602e913960400191505060405180910390fd5b6021836000015114610b95576040517f08c379a0000000000000000000000000000000000000000000000000000000008152600401808060200182810382526025815260200180610ff56025913960400191505060405180910390fd5b6000806001856020015101905080519150819350505050919050565b600080600090506060610bc38661078a565b90506060815167ffffffffffffffff81118015610bdf57600080fd5b506040519080825280601f01601f191660200182016040528015610c125781602001600182028036833780820191505090505b50905060008590505b82518601811015610c8d576000878281518110610c3457fe5b602001015160f81c60f81b9050808388840381518110610c5057fe5b60200101907effffffffffffffffffffffffffffffffffffffffffffffffffffffffffffff1916908160001a905350508080600101915050610c1b565b50808051906020012082805190602001201415610cad5781519250610cb2565b600092505b8293505050509392505050565b600080600083602001519050805160001a915060c060ff168260ff161015610cec57600092505050610cf3565b6001925050505b919050565b600080600090506000610d0e8460200151610e64565b84602001510190506000846000015185602001510190505b80821015610da157610d3782610dac565b8201915080821115610d94576040517f08c379a000000000000000000000000000000000000000000000000000000000815260040180806020018281038252602c815260200180611042602c913960400191505060405180910390fd5b8280600101935050610d26565b829350505050919050565b6000806000835160001a9050608060ff16811015610dcd5760019150610e5a565b60b860ff16811015610dea576001608060ff168203019150610e59565b60c060ff16811015610e1a5760b78103600185019450806020036101000a85510460018201810193505050610e58565b60f860ff16811015610e3757600160c060ff168203019150610e57565b60f78103600185019450806020036101000a855104600182018101935050505b5b5b5b8192505050919050565b600080825160001a9050608060ff16811015610e84576000915050610ee8565b60b860ff16811080610ea9575060c060ff168110158015610ea8575060f860ff1681105b5b15610eb8576001915050610ee8565b60c060ff16811015610ed85760018060b80360ff16820301915050610ee8565b60018060f80360ff168203019150505b919050565b60008060028481610efa57fe5b0614610f365760108260028581610f0d57fe5b0481518110610f1857fe5b602001015160f81c60f81b60f81c60ff1681610f3057fe5b06610f68565b60108260028581610f4357fe5b0481518110610f4e57fe5b602001015160f81c60f81b60f81c60ff1681610f6657fe5b045b60f81b905092915050565b6000811415610f8157610fd5565b5b602060ff168110610fb15782518252602060ff1683019250602060ff1682019150602060ff1681039050610f82565b6000600182602060ff16036101000a03905080198451168184511681811785525050505b505050565b60405180604001604052806000815260200160008152509056fe524c505265616465723a20494e56414c49445f55494e545f5354524943545f4c454e475448524c505265616465723a2042595445535f4445434f4445445f4c454e4754485f4d49534d41544348524c505265616465723a204e554d5f4954454d535f4445434f4445445f4c454e4754485f4d49534d41544348524c505265616465723a204c4953545f4445434f4445445f4c454e4754485f4d49534d41544348524c505265616465723a2055494e545f5354524943545f4445434f4445445f4c454e4754485f4d49534d41544348a26469706673582212200af7bab3737b56dfeecc4f7123dd469919ecd95ea5c52c4b600278e28cbc393d64736f6c63430006060033",
  "linkReferences": {},
  "deployedLinkReferences": {}
}