{
  "_format": "hh-sol-artifact-1",
  "contractName": "MerklePatriciaTest",
  "sourceName": "contracts/test/MerklePatriciaTest.sol",
  "abi": [
    {
      "inputs": [
        {
          "internalType": "uint256",
          "name": "receiptRoot",
          "type": "uint256"
        },
        {
          "internalType": "bytes",
          "name": "receipt",
          "type": "bytes"
        },
        {
          "internalType": "bytes",
          "name": "receiptProof",
          "type": "bytes"
        },
        {
          "internalType": "bytes",
          "name": "branchMask",
          "type": "bytes"
        }
      ],
      "name": "verify",
      "outputs": [
        {
          "internalType": "bool",
          "name": "",
          "type": "bool"
        }
      ],
      "stateMutability": "pure",
      "type": "function"
    }
  ],
  "bytecode": "0x608060405234801561001057600080fd5b50610ddc806100206000396000f3fe608060405234801561001057600080fd5b506004361061002b5760003560e01c8063d1f13e2814610030575b600080fd5b61015b6004803603608081101561004657600080fd5b81019080803590602001909291908035906020019064010000000081111561006d57600080fd5b82018360208201111561007f57600080fd5b803590602001918460018302840111640100000000831117156100a157600080fd5b9091929391929390803590602001906401000000008111156100c257600080fd5b8201836020820111156100d457600080fd5b803590602001918460018302840111640100000000831117156100f657600080fd5b90919293919293908035906020019064010000000081111561011757600080fd5b82018360208201111561012957600080fd5b8035906020019184600183028401116401000000008311171561014b57600080fd5b9091929391929390505050610175565b604051808215151515815260200191505060405180910390f35b600061025287878080601f016020809104026020016040519081016040528093929190818152602001838380828437600081840152601f19601f8201169050808301925050505050505084848080601f016020809104026020016040519081016040528093929190818152602001838380828437600081840152601f19601f8201169050808301925050505050505087878080601f016020809104026020016040519081016040528093929190818152602001838380828437600081840152601f19601f820116905080830192505050505050508b60001b61025f565b9050979650505050505050565b6000610269610d8c565b6102728461051a565b9050606061027f82610548565b90506060806000869050600080905060606102998b61063c565b90506000815114156102b5576000975050505050505050610512565b60008090505b86518110156105095781518311156102de57600098505050505050505050610512565b6102fa8782815181106102ed57fe5b6020026020010151610803565b95508580519060200120841461031b57600098505050505050505050610512565b61033787828151811061032a57fe5b6020026020010151610548565b945060118551141561040c5781518314156103a0578c805190602001206103718660108151811061036457fe5b6020026020010151610890565b80519060200120141561038f57600198505050505050505050610512565b600098505050505050505050610512565b60008284815181106103ae57fe5b602001015160f81c60f81b60f81c905060108160ff1611156103dc5760009950505050505050505050610512565b6103fb868260ff16815181106103ee57fe5b6020026020010151610921565b60001b9450600184019350506104fc565b6002855114156104ea57600061043f6104388760008151811061042b57fe5b6020026020010151610890565b848661094f565b9050825181850114156104a2578d805190602001206104718760018151811061046457fe5b6020026020010151610890565b8051906020012014156104905760019950505050505050505050610512565b60009950505050505050505050610512565b60008114156104bd5760009950505050505050505050610512565b80840193506104df866001815181106104d257fe5b6020026020010151610921565b60001b9450506104fb565b600098505050505050505050610512565b5b80806001019150506102bb565b50505050505050505b949350505050565b610522610d8c565b600060208301905060405180604001604052808451815260200182815250915050919050565b606061055382610a5d565b61055c57600080fd5b600061056783610aab565b905060608167ffffffffffffffff8111801561058257600080fd5b506040519080825280602002602001820160405280156105bc57816020015b6105a9610d8c565b8152602001906001900390816105a15790505b50905060006105ce8560200151610b1c565b8560200151019050600080600090505b8481101561062f576105ef83610ba5565b915060405180604001604052808381526020018481525084828151811061061257fe5b6020026020010181905250818301925080806001019150506105de565b5082945050505050919050565b6060806040518060200160405280600081525090506000835111156107fa57600080610669600086610c5d565b60f81c905060018160ff161480610683575060038160ff16145b1561073257600160028651020367ffffffffffffffff811180156106a657600080fd5b506040519080825280601f01601f1916602001820160405280156106d95781602001600182028036833780820191505090505b50925060006106e9600187610c5d565b905080846000815181106106f957fe5b60200101907effffffffffffffffffffffffffffffffffffffffffffffffffffffffffffff1916908160001a905350600192505061078a565b6002808651020367ffffffffffffffff8111801561074f57600080fd5b506040519080825280601f01601f1916602001820160405280156107825781602001600182028036833780820191505090505b509250600091505b60008260ff1690505b83518110156107f6576107ae60028460ff1683030187610c5d565b8482815181106107ba57fe5b60200101907effffffffffffffffffffffffffffffffffffffffffffffffffffffffffffff1916908160001a9053508080600101915050610793565b5050505b80915050919050565b606080826000015167ffffffffffffffff8111801561082157600080fd5b506040519080825280601f01601f1916602001820160405280156108545781602001600182028036833780820191505090505b50905060008151141561086a578091505061088b565b60008160200190506108858460200151828660000151610ce3565b81925050505b919050565b606060008260000151116108a357600080fd5b6000806108af84610d54565b9150915060608167ffffffffffffffff811180156108cc57600080fd5b506040519080825280601f01601f1916602001820160405280156108ff5781602001600182028036833780820191505090505b5090506000816020019050610915848285610ce3565b81945050505050919050565b6000602182600001511461093457600080fd5b60008060018460200151019050805191508192505050919050565b6000806000905060606109618661063c565b90506060815167ffffffffffffffff8111801561097d57600080fd5b506040519080825280601f01601f1916602001820160405280156109b05781602001600182028036833780820191505090505b50905060008590505b82518601811015610a2b5760008782815181106109d257fe5b602001015160f81c60f81b90508083888403815181106109ee57fe5b60200101907effffffffffffffffffffffffffffffffffffffffffffffffffffffffffffff1916908160001a9053505080806001019150506109b9565b50808051906020012082805190602001201415610a4b5781519250610a50565b600092505b8293505050509392505050565b60008082600001511415610a745760009050610aa6565b60008083602001519050805160001a915060c060ff168260ff161015610a9f57600092505050610aa6565b6001925050505b919050565b60008082600001511415610ac25760009050610b17565b60008090506000610ad68460200151610b1c565b84602001510190506000846000015185602001510190505b80821015610b1057610aff82610ba5565b820191508280600101935050610aee565b8293505050505b919050565b600080825160001a9050608060ff16811015610b3c576000915050610ba0565b60b860ff16811080610b61575060c060ff168110158015610b60575060f860ff1681105b5b15610b70576001915050610ba0565b60c060ff16811015610b905760018060b80360ff16820301915050610ba0565b60018060f80360ff168203019150505b919050565b6000806000835160001a9050608060ff16811015610bc65760019150610c53565b60b860ff16811015610be3576001608060ff168203019150610c52565b60c060ff16811015610c135760b78103600185019450806020036101000a85510460018201810193505050610c51565b60f860ff16811015610c3057600160c060ff168203019150610c50565b60f78103600185019450806020036101000a855104600182018101935050505b5b5b5b8192505050919050565b60008060028481610c6a57fe5b0614610ca65760108260028581610c7d57fe5b0481518110610c8857fe5b602001015160f81c60f81b60f81c60ff1681610ca057fe5b06610cd8565b60108260028581610cb357fe5b0481518110610cbe57fe5b602001015160f81c60f81b60f81c60ff1681610cd657fe5b045b60f81b905092915050565b6000811415610cf157610d4f565b5b602060ff168110610d215782518252602060ff1683019250602060ff1682019150602060ff1681039050610cf2565b6000811115610d4e576000600182602060ff16036101000a03905080198451168184511681811785525050505b5b505050565b6000806000610d668460200151610b1c565b905060008185602001510190506000828660000151039050818194509450505050915091565b60405180604001604052806000815260200160008152509056fea264697066735822122025c3c0e4e060393a8222b4bba2f5864a393466c9209addcc09600b40aabba26f64736f6c63430006060033",
  "linkReferences": {},
  "deployedLinkReferences": {}
}