{"abi":[{"type":"constructor","inputs":[],"stateMutability":"nonpayable"},{"type":"function","name":"a","inputs":[],"outputs":[{"name":"","type":"uint256","internalType":"uint256"}],"stateMutability":"view"},{"type":"function","name":"b","inputs":[],"outputs":[{"name":"","type":"uint256","internalType":"uint256"}],"stateMutability":"view"},{"type":"function","name":"ctorInit","inputs":[],"outputs":[{"name":"","type":"uint256","internalType":"uint256"}],"stateMutability":"view"},{"type":"function","name":"init","inputs":[],"outputs":[],"stateMutability":"nonpayable"}],"bytecode":{"object":"0x60806040526000805460ff19169055600180556002805534801561002257600080fd5b506003805561011f806100366000396000f3fe6080604052348015600f57600080fd5b506004361060465760003560e01c80630dbe671f14604b5780634df7e3d014606357806394eb090c146069578063e1c7392a14606f575b600080fd5b60516077565b60408051918252519081900360200190f35b6051607d565b60516083565b60756089565b005b60015481565b60025481565b60035481565b60005460ff161560d1576040805162461bcd60e51b815260206004820152600e60248201526d185b1c9958591e481a5b9a5d195960921b604482015290519081900360640190fd5b6001808055600280556000805460ff1916909117905556fea26469706673582212207af1424a8e4cda3c3d15bd70cd5faee6dec12ef8d145901e9cd9997313153b9864736f6c63430006060033","linkReferences":{}},"methodIdentifiers":{"a()":"0dbe671f","b()":"4df7e3d0","ctorInit()":"94eb090c","init()":"e1c7392a"},"id":70}