{"abi":[{"type":"constructor","inputs":[{"name":"name_","type":"string","internalType":"string"},{"name":"symbol_","type":"string","internalType":"string"},{"name":"childChainManager","type":"address","internalType":"address"}],"stateMutability":"nonpayable"},{"type":"function","name":"BATCH_LIMIT","inputs":[],"outputs":[{"name":"","type":"uint256","internalType":"uint256"}],"stateMutability":"view"},{"type":"function","name":"DEFAULT_ADMIN_ROLE","inputs":[],"outputs":[{"name":"","type":"bytes32","internalType":"bytes32"}],"stateMutability":"view"},{"type":"function","name":"DEPOSITOR_ROLE","inputs":[],"outputs":[{"name":"","type":"bytes32","internalType":"bytes32"}],"stateMutability":"view"},{"type":"function","name":"ERC712_VERSION","inputs":[],"outputs":[{"name":"","type":"string","internalType":"string"}],"stateMutability":"view"},{"type":"function","name":"approve","inputs":[{"name":"to","type":"address","internalType":"address"},{"name":"tokenId","type":"uint256","internalType":"uint256"}],"outputs":[],"stateMutability":"nonpayable"},{"type":"function","name":"balanceOf","inputs":[{"name":"owner","type":"address","internalType":"address"}],"outputs":[{"name":"","type":"uint256","internalType":"uint256"}],"stateMutability":"view"},{"type":"function","name":"baseURI","inputs":[],"outputs":[{"name":"","type":"string","internalType":"string"}],"stateMutability":"view"},{"type":"function","name":"deposit","inputs":[{"name":"user","type":"address","internalType":"address"},{"name":"depositData","type":"bytes","internalType":"bytes"}],"outputs":[],"stateMutability":"nonpayable"},{"type":"function","name":"encodeTokenMetadata","inputs":[{"name":"tokenId","type":"uint256","internalType":"uint256"}],"outputs":[{"name":"","type":"bytes","internalType":"bytes"}],"stateMutability":"view"},{"type":"function","name":"executeMetaTransaction","inputs":[{"name":"userAddress","type":"address","internalType":"address"},{"name":"functionSignature","type":"bytes","internalType":"bytes"},{"name":"sigR","type":"bytes32","internalType":"bytes32"},{"name":"sigS","type":"bytes32","internalType":"bytes32"},{"name":"sigV","type":"uint8","internalType":"uint8"}],"outputs":[{"name":"","type":"bytes","internalType":"bytes"}],"stateMutability":"payable"},{"type":"function","name":"getApproved","inputs":[{"name":"tokenId","type":"uint256","internalType":"uint256"}],"outputs":[{"name":"","type":"address","internalType":"address"}],"stateMutability":"view"},{"type":"function","name":"getChainId","inputs":[],"outputs":[{"name":"","type":"uint256","internalType":"uint256"}],"stateMutability":"pure"},{"type":"function","name":"getDomainSeperator","inputs":[],"outputs":[{"name":"","type":"bytes32","internalType":"bytes32"}],"stateMutability":"view"},{"type":"function","name":"getNonce","inputs":[{"name":"user","type":"address","internalType":"address"}],"outputs":[{"name":"nonce","type":"uint256","internalType":"uint256"}],"stateMutability":"view"},{"type":"function","name":"getRoleAdmin","inputs":[{"name":"role","type":"bytes32","internalType":"bytes32"}],"outputs":[{"name":"","type":"bytes32","internalType":"bytes32"}],"stateMutability":"view"},{"type":"function","name":"getRoleMember","inputs":[{"name":"role","type":"bytes32","internalType":"bytes32"},{"name":"index","type":"uint256","internalType":"uint256"}],"outputs":[{"name":"","type":"address","internalType":"address"}],"stateMutability":"view"},{"type":"function","name":"getRoleMemberCount","inputs":[{"name":"role","type":"bytes32","internalType":"bytes32"}],"outputs":[{"name":"","type":"uint256","internalType":"uint256"}],"stateMutability":"view"},{"type":"function","name":"grantRole","inputs":[{"name":"role","type":"bytes32","internalType":"bytes32"},{"name":"account","type":"address","internalType":"address"}],"outputs":[],"stateMutability":"nonpayable"},{"type":"function","name":"hasRole","inputs":[{"name":"role","type":"bytes32","internalType":"bytes32"},{"name":"account","type":"address","internalType":"address"}],"outputs":[{"name":"","type":"bool","internalType":"bool"}],"stateMutability":"view"},{"type":"function","name":"isApprovedForAll","inputs":[{"name":"owner","type":"address","internalType":"address"},{"name":"operator","type":"address","internalType":"address"}],"outputs":[{"name":"","type":"bool","internalType":"bool"}],"stateMutability":"view"},{"type":"function","name":"mint","inputs":[{"name":"user","type":"address","internalType":"address"},{"name":"tokenId","type":"uint256","internalType":"uint256"}],"outputs":[],"stateMutability":"nonpayable"},{"type":"function","name":"name","inputs":[],"outputs":[{"name":"","type":"string","internalType":"string"}],"stateMutability":"view"},{"type":"function","name":"ownerOf","inputs":[{"name":"tokenId","type":"uint256","internalType":"uint256"}],"outputs":[{"name":"","type":"address","internalType":"address"}],"stateMutability":"view"},{"type":"function","name":"renounceRole","inputs":[{"name":"role","type":"bytes32","internalType":"bytes32"},{"name":"account","type":"address","internalType":"address"}],"outputs":[],"stateMutability":"nonpayable"},{"type":"function","name":"revokeRole","inputs":[{"name":"role","type":"bytes32","internalType":"bytes32"},{"name":"account","type":"address","internalType":"address"}],"outputs":[],"stateMutability":"nonpayable"},{"type":"function","name":"safeTransferFrom","inputs":[{"name":"from","type":"address","internalType":"address"},{"name":"to","type":"address","internalType":"address"},{"name":"tokenId","type":"uint256","internalType":"uint256"}],"outputs":[],"stateMutability":"nonpayable"},{"type":"function","name":"safeTransferFrom","inputs":[{"name":"from","type":"address","internalType":"address"},{"name":"to","type":"address","internalType":"address"},{"name":"tokenId","type":"uint256","internalType":"uint256"},{"name":"_data","type":"bytes","internalType":"bytes"}],"outputs":[],"stateMutability":"nonpayable"},{"type":"function","name":"setApprovalForAll","inputs":[{"name":"operator","type":"address","internalType":"address"},{"name":"approved","type":"bool","internalType":"bool"}],"outputs":[],"stateMutability":"nonpayable"},{"type":"function","name":"supportsInterface","inputs":[{"name":"interfaceId","type":"bytes4","internalType":"bytes4"}],"outputs":[{"name":"","type":"bool","internalType":"bool"}],"stateMutability":"view"},{"type":"function","name":"symbol","inputs":[],"outputs":[{"name":"","type":"string","internalType":"string"}],"stateMutability":"view"},{"type":"function","name":"tokenByIndex","inputs":[{"name":"index","type":"uint256","internalType":"uint256"}],"outputs":[{"name":"","type":"uint256","internalType":"uint256"}],"stateMutability":"view"},{"type":"function","name":"tokenOfOwnerByIndex","inputs":[{"name":"owner","type":"address","internalType":"address"},{"name":"index","type":"uint256","internalType":"uint256"}],"outputs":[{"name":"","type":"uint256","internalType":"uint256"}],"stateMutability":"view"},{"type":"function","name":"tokenURI","inputs":[{"name":"tokenId","type":"uint256","internalType":"uint256"}],"outputs":[{"name":"","type":"string","internalType":"string"}],"stateMutability":"view"},{"type":"function","name":"totalSupply","inputs":[],"outputs":[{"name":"","type":"uint256","internalType":"uint256"}],"stateMutability":"view"},{"type":"function","name":"transferFrom","inputs":[{"name":"from","type":"address","internalType":"address"},{"name":"to","type":"address","internalType":"address"},{"name":"tokenId","type":"uint256","internalType":"uint256"}],"outputs":[],"stateMutability":"nonpayable"},{"type":"function","name":"withdraw","inputs":[{"name":"tokenId","type":"uint256","internalType":"uint256"}],"outputs":[],"stateMutability":"nonpayable"},{"type":"function","name":"withdrawBatch","inputs":[{"name":"tokenIds","type":"uint256[]","internalType":"uint256[]"}],"outputs":[],"stateMutability":"nonpayable"},{"type":"function","name":"withdrawWithMetadata","inputs":[{"name":"tokenId","type":"uint256","internalType":"uint256"}],"outputs":[],"stateMutability":"nonpayable"},{"type":"function","name":"withdrawnTokens","inputs":[{"name":"","type":"uint256","internalType":"uint256"}],"outputs":[{"name":"","type":"bool","internalType":"bool"}],"stateMutability":"view"},{"type":"event","name":"Approval","inputs":[{"name":"owner","type":"address","indexed":true,"internalType":"address"},{"name":"approved","type":"address","indexed":true,"internalType":"address"},{"name":"tokenId","type":"uint256","indexed":true,"internalType":"uint256"}],"anonymous":false},{"type":"event","name":"ApprovalForAll","inputs":[{"name":"owner","type":"address","indexed":true,"internalType":"address"},{"name":"operator","type":"address","indexed":true,"internalType":"address"},{"name":"approved","type":"bool","indexed":false,"internalType":"bool"}],"anonymous":false},{"type":"event","name":"MetaTransactionExecuted","inputs":[{"name":"userAddress","type":"address","indexed":true,"internalType":"address"},{"name":"relayerAddress","type":"address","indexed":true,"internalType":"address payable"},{"name":"functionSignature","type":"bytes","indexed":false,"internalType":"bytes"}],"anonymous":false},{"type":"event","name":"RoleAdminChanged","inputs":[{"name":"role","type":"bytes32","indexed":true,"internalType":"bytes32"},{"name":"previousAdminRole","type":"bytes32","indexed":true,"internalType":"bytes32"},{"name":"newAdminRole","type":"bytes32","indexed":true,"internalType":"bytes32"}],"anonymous":false},{"type":"event","name":"RoleGranted","inputs":[{"name":"role","type":"bytes32","indexed":true,"internalType":"bytes32"},{"name":"account","type":"address","indexed":true,"internalType":"address"},{"name":"sender","type":"address","indexed":true,"internalType":"address"}],"anonymous":false},{"type":"event","name":"RoleRevoked","inputs":[{"name":"role","type":"bytes32","indexed":true,"internalType":"bytes32"},{"name":"account","type":"address","indexed":true,"internalType":"address"},{"name":"sender","type":"address","indexed":true,"internalType":"address"}],"anonymous":false},{"type":"event","name":"Transfer","inputs":[{"name":"from","type":"address","indexed":true,"internalType":"address"},{"name":"to","type":"address","indexed":true,"internalType":"address"},{"name":"tokenId","type":"uint256","indexed":true,"internalType":"uint256"}],"anonymous":false},{"type":"event","name":"TransferWithMetadata","inputs":[{"name":"from","type":"address","indexed":true,"internalType":"address"},{"name":"to","type":"address","indexed":true,"internalType":"address"},{"name":"tokenId","type":"uint256","indexed":true,"internalType":"uint256"},{"name":"metaData","type":"bytes","indexed":false,"internalType":"bytes"}],"anonymous":false},{"type":"event","name":"WithdrawnBatch","inputs":[{"name":"user","type":"address","indexed":true,"internalType":"address"},{"name":"tokenIds","type":"uint256[]","indexed":false,"internalType":"uint256[]"}],"anonymous":false}],"bytecode":{"object":"0x6080604052600c805460ff191690553480156200001b57600080fd5b5060405162003dd638038062003dd6833981810160405260608110156200004157600080fd5b81019080805160405193929190846401000000008211156200006257600080fd5b9083019060208201858111156200007857600080fd5b82516401000000008111828201881017156200009357600080fd5b82525081516020918201929091019080838360005b83811015620000c2578181015183820152602001620000a8565b50505050905090810190601f168015620000f05780820380516001836020036101000a031916815260200191505b50604052602001805160405193929190846401000000008211156200011457600080fd5b9083019060208201858111156200012a57600080fd5b82516401000000008111828201881017156200014557600080fd5b82525081516020918201929091019080838360005b83811015620001745781810151838201526020016200015a565b50505050905090810190601f168015620001a25780820380516001836020036101000a031916815260200191505b5060405260200151915083905082620001cb6301ffc9a760e01b6001600160e01b036200030f16565b8151620001e090600690602085019062000722565b508051620001f690600790602084019062000722565b50620002126380ac58cd60e01b6001600160e01b036200030f16565b6200022d635b5e139f60e01b6001600160e01b036200030f16565b6200024863780e9d6360e01b6001600160e01b036200030f16565b505060408051808201909152601381527f4368696c644d696e7461626c6545524337323100000000000000000000000000602082015262000292906001600160e01b036200039416565b620002ba6000620002ab6001600160e01b036200043a16565b6001600160e01b036200045716565b604080516d4445504f5349544f525f524f4c4560901b8152905190819003600e019020620002f290826001600160e01b036200045716565b62000306836001600160e01b036200046c16565b505050620007c4565b6001600160e01b031980821614156200036f576040805162461bcd60e51b815260206004820152601c60248201527f4552433136353a20696e76616c696420696e7465726661636520696400000000604482015290519081900360640190fd5b6001600160e01b0319166000908152602081905260409020805460ff19166001179055565b806040516020018082805190602001908083835b60208310620003c95780518252601f199092019160209182019101620003a8565b51815160209384036101000a60001901801990921691161790527f3a20494e53554646494349454e545f5045524d495353494f4e530000000000009190930190815260408051808303600519018152601a90920190528051620004369550600b9450920191905062000722565b5050565b600062000451620004da60201b620028481760201c565b90505b90565b6200043682826001600160e01b036200053916565b600c5460ff1615620004b6576040805162461bcd60e51b815260206004820152600e60248201526d185b1c9958591e481a5b9a5d195960921b604482015290519081900360640190fd5b620004ca816001600160e01b03620005bd16565b50600c805460ff19166001179055565b600033301415620005345760606000368080601f0160208091040260200160405190810160405280939291908181526020018383808284376000920191909152505050503601516001600160a01b03169150620004549050565b503390565b6000828152600a6020908152604090912062000560918390620029bb62000685821b17901c565b156200043657620005796001600160e01b036200043a16565b6001600160a01b0316816001600160a01b0316837f2f8788117e7eff1d82e926ec794901d17c78024a50270940304540a733656f0d60405160405180910390a45050565b6040518060800160405280604f815260200162003d87604f913980516020918201208251838301206040805180820190915260018152603160f81b930192909252907fc89efdaa54c0f20c7adf612882df0950f5a951637e0307cdcb4c672f298b8bc630620006346001600160e01b03620006ae16565b604080516020808201979097528082019590955260608501939093526001600160a01b03909116608084015260a0808401919091528151808403909101815260c090920190528051910120600d5550565b6000620006a5836001600160a01b0384166001600160e01b03620006b216565b90505b92915050565b4690565b6000620006c983836001600160e01b036200070a16565b6200070157508154600181810184556000848152602080822090930184905584548482528286019093526040902091909155620006a8565b506000620006a8565b60009081526001919091016020526040902054151590565b828054600181600116156101000203166002900490600052602060002090601f016020900481019282601f106200076557805160ff191683800117855562000795565b8280016001018555821562000795579182015b828111156200079557825182559160200191906001019062000778565b50620007a3929150620007a7565b5090565b6200045491905b80821115620007a35760008155600101620007ae565b6135b380620007d46000396000f3fe6080604052600436106102305760003560e01c806342842e0e1161012e578063a217fddf116100ab578063c87b56dd1161006f578063c87b56dd146109ca578063ca15c873146109f4578063cf2c52cb14610a1e578063d547741f14610aa9578063e985e9c514610ae257610230565b8063a217fddf1461086a578063a22cb4651461087f578063a3b0b5a3146108ba578063a5e584dc146108cf578063b88d4fde146108f957610230565b80639010d07c116100f25780639010d07c1461075c57806391d148541461078c5780639559c0bd146107c557806395d89b41146107da5780639c8d4156146107ef57610230565b806342842e0e1461067d5780634f6ccce7146106c05780636352211e146106ea5780636c0360eb1461071457806370a082311461072957610230565b806320379ee5116101bc5780632f2ff15d116101805780632f2ff15d146105845780632f745c59146105bd5780633408e470146105f657806336568abe1461060b57806340c10f191461064457610230565b806320379ee5146104a557806323b872dd146104ba578063248a9ca3146104fd5780632d0335ab146105275780632e1a7d4d1461055a57610230565b8063095ea7b311610203578063095ea7b3146103775780630c53c51c146103b25780630f7e59701461043f5780631653c39a1461045457806318160ddd1461047e57610230565b806301ffc9a71461023557806306fdde031461027d57806307a974fc14610307578063081812fc14610331575b600080fd5b34801561024157600080fd5b506102696004803603602081101561025857600080fd5b50356001600160e01b031916610b1d565b604080519115158252519081900360200190f35b34801561028957600080fd5b50610292610b40565b6040805160208082528351818301528351919283929083019185019080838360005b838110156102cc5781810151838201526020016102b4565b50505050905090810190601f1680156102f95780820380516001836020036101000a031916815260200191505b509250505060405180910390f35b34801561031357600080fd5b506102696004803603602081101561032a57600080fd5b5035610bd7565b34801561033d57600080fd5b5061035b6004803603602081101561035457600080fd5b5035610bec565b604080516001600160a01b039092168252519081900360200190f35b34801561038357600080fd5b506103b06004803603604081101561039a57600080fd5b506001600160a01b038135169060200135610c4e565b005b610292600480360360a08110156103c857600080fd5b6001600160a01b038235169190810190604081016020820135600160201b8111156103f257600080fd5b82018360208201111561040457600080fd5b803590602001918460018302840111600160201b8311171561042557600080fd5b91935091508035906020810135906040013560ff16610d29565b34801561044b57600080fd5b50610292610fb2565b34801561046057600080fd5b506102926004803603602081101561047757600080fd5b5035610fcf565b34801561048a57600080fd5b50610493611061565b60408051918252519081900360200190f35b3480156104b157600080fd5b50610493611072565b3480156104c657600080fd5b506103b0600480360360608110156104dd57600080fd5b506001600160a01b03813581169160208101359091169060400135611078565b34801561050957600080fd5b506104936004803603602081101561052057600080fd5b50356110cf565b34801561053357600080fd5b506104936004803603602081101561054a57600080fd5b50356001600160a01b03166110e4565b34801561056657600080fd5b506103b06004803603602081101561057d57600080fd5b50356110ff565b34801561059057600080fd5b506103b0600480360360408110156105a757600080fd5b50803590602001356001600160a01b0316611183565b3480156105c957600080fd5b50610493600480360360408110156105e057600080fd5b506001600160a01b0381351690602001356111ef565b34801561060257600080fd5b50610493611220565b34801561061757600080fd5b506103b06004803603604081101561062e57600080fd5b50803590602001356001600160a01b0316611224565b34801561065057600080fd5b506103b06004803603604081101561066757600080fd5b506001600160a01b038135169060200135611285565b34801561068957600080fd5b506103b0600480360360608110156106a057600080fd5b506001600160a01b0381358116916020810135909116906040013561138c565b3480156106cc57600080fd5b50610493600480360360208110156106e357600080fd5b50356113a7565b3480156106f657600080fd5b5061035b6004803603602081101561070d57600080fd5b50356113c3565b34801561072057600080fd5b506102926113f1565b34801561073557600080fd5b506104936004803603602081101561074c57600080fd5b50356001600160a01b0316611452565b34801561076857600080fd5b5061035b6004803603604081101561077f57600080fd5b50803590602001356114ba565b34801561079857600080fd5b50610269600480360360408110156107af57600080fd5b50803590602001356001600160a01b03166114d8565b3480156107d157600080fd5b506104936114f6565b3480156107e657600080fd5b506102926114fb565b3480156107fb57600080fd5b506103b06004803603602081101561081257600080fd5b810190602081018135600160201b81111561082c57600080fd5b82018360208201111561083e57600080fd5b803590602001918460208302840111600160201b8311171561085f57600080fd5b50909250905061155c565b34801561087657600080fd5b5061049361173d565b34801561088b57600080fd5b506103b0600480360360408110156108a257600080fd5b506001600160a01b0381351690602001351515611742565b3480156108c657600080fd5b50610493611847565b3480156108db57600080fd5b506103b0600480360360208110156108f257600080fd5b503561186d565b34801561090557600080fd5b506103b06004803603608081101561091c57600080fd5b6001600160a01b03823581169260208101359091169160408201359190810190608081016060820135600160201b81111561095657600080fd5b82018360208201111561096857600080fd5b803590602001918460018302840111600160201b8311171561098957600080fd5b91908080601f016020809104026020016040519081016040528093929190818152602001838380828437600092019190915250929550611ac4945050505050565b3480156109d657600080fd5b50610292600480360360208110156109ed57600080fd5b5035611b22565b348015610a0057600080fd5b5061049360048036036020811015610a1757600080fd5b5035611dc9565b348015610a2a57600080fd5b506103b060048036036040811015610a4157600080fd5b6001600160a01b038235169190810190604081016020820135600160201b811115610a6b57600080fd5b820183602082011115610a7d57600080fd5b803590602001918460018302840111600160201b83111715610a9e57600080fd5b509092509050611de0565b348015610ab557600080fd5b506103b060048036036040811015610acc57600080fd5b50803590602001356001600160a01b0316611fce565b348015610aee57600080fd5b5061026960048036036040811015610b0557600080fd5b506001600160a01b0381358116916020013516612027565b6001600160e01b0319811660009081526020819052604090205460ff165b919050565b60068054604080516020601f6002600019610100600188161502019095169490940493840181900481028201810190925282815260609390929091830182828015610bcc5780601f10610ba157610100808354040283529160200191610bcc565b820191906000526020600020905b815481529060010190602001808311610baf57829003601f168201915b505050505090505b90565b600f6020526000908152604090205460ff1681565b6000610bf782612055565b610c325760405162461bcd60e51b815260040180806020018281038252602c815260200180613458602c913960400191505060405180910390fd5b506000908152600460205260409020546001600160a01b031690565b6000610c59826113c3565b9050806001600160a01b0316836001600160a01b03161415610cac5760405162461bcd60e51b81526004018080602001828103825260218152602001806134fd6021913960400191505060405180910390fd5b806001600160a01b0316610cbe612068565b6001600160a01b03161480610cdf5750610cdf81610cda612068565b612027565b610d1a5760405162461bcd60e51b815260040180806020018281038252603881526020018061335b6038913960400191505060405180910390fd5b610d248383612072565b505050565b6060610d33613114565b604080516060810182526001600160a01b038a166000818152600e602090815290849020548352808301919091528251601f8a0182900482028101820184528981529192830191908a908a908190840183828082843760009201919091525050509152509050610da688828787876120e0565b610de15760405162461bcd60e51b81526004018080602001828103825260218152602001806134ad6021913960400191505060405180910390fd5b6001600160a01b0388166000818152600e60209081526040918290208054600101905581518181529081018990523392917f5845892132946850460bff5a0083f71031bc5bf9aadcd40f1de79423eac9b10b918b918b919081908101848480828437600083820152604051601f909101601f19169092018290039550909350505050a360006060306001600160a01b031689898c6040516020018084848082843780830192505050826001600160a01b03166001600160a01b031660601b815260140193505050506040516020818303038152906040526040518082805190602001908083835b60208310610ee75780518252601f199092019160209182019101610ec8565b6001836020036101000a0380198251168184511680821785525050505050509050019150506000604051808303816000865af19150503d8060008114610f49576040519150601f19603f3d011682016040523d82523d6000602084013e610f4e565b606091505b509150915081610fa5576040805162461bcd60e51b815260206004820152601c60248201527f46756e6374696f6e2063616c6c206e6f74207375636365737366756c00000000604482015290519081900360640190fd5b9998505050505050505050565b604051806040016040528060018152602001603160f81b81525081565b6060610fda82611b22565b6040516020018080602001828103825283818151815260200191508051906020019080838360005b8381101561101a578181015183820152602001611002565b50505050905090810190601f1680156110475780820380516001836020036101000a031916815260200191505b5060408051601f1981840301815291905295945050505050565b600061106d60026121bd565b905090565b600d5490565b611089611083612068565b826121c8565b6110c45760405162461bcd60e51b815260040180806020018281038252603181526020018061351e6031913960400191505060405180910390fd5b610d2483838361226c565b6000908152600a602052604090206002015490565b6001600160a01b03166000908152600e602052604090205490565b611108816113c3565b6001600160a01b0316611119612068565b6001600160a01b03161461115e5760405162461bcd60e51b81526004018080602001828103825260288152602001806133936028913960400191505060405180910390fd5b6000818152600f60205260409020805460ff19166001179055611180816123ca565b50565b6000828152600a60205260409020600201546111a6906111a1612068565b6114d8565b6111e15760405162461bcd60e51b815260040180806020018281038252602f8152602001806131ba602f913960400191505060405180910390fd5b6111eb82826124a3565b5050565b6001600160a01b0382166000908152600160205260408120611217908363ffffffff61251216565b90505b92915050565b4690565b61122c612068565b6001600160a01b0316816001600160a01b03161461127b5760405162461bcd60e51b815260040180806020018281038252602f81526020018061354f602f913960400191505060405180910390fd5b6111eb828261251e565b6000611293816111a1612068565b600b906113335760405162461bcd60e51b81526020600482019081528254600260001961010060018416150201909116046024830181905290918291604490910190849080156113245780601f106112f957610100808354040283529160200191611324565b820191906000526020600020905b81548152906001019060200180831161130757829003601f168201915b50509250505060405180910390fd5b506000828152600f602052604090205460ff16156113825760405162461bcd60e51b815260040180806020018281038252602f81526020018061321b602f913960400191505060405180910390fd5b610d24838361258d565b610d2483838360405180602001604052806000815250611ac4565b6000806113bb60028463ffffffff6126c716565b509392505050565b600061121a826040518060600160405280602981526020016133e5602991396002919063ffffffff6126e316565b60098054604080516020601f6002600019610100600188161502019095169490940493840181900481028201810190925282815260609390929091830182828015610bcc5780601f10610ba157610100808354040283529160200191610bcc565b60006001600160a01b0382166114995760405162461bcd60e51b815260040180806020018281038252602a8152602001806133bb602a913960400191505060405180910390fd5b6001600160a01b038216600090815260016020526040902061121a906121bd565b6000828152600a60205260408120611217908363ffffffff61251216565b6000828152600a60205260408120611217908363ffffffff6126fa16565b601481565b60078054604080516020601f6002600019610100600188161502019095169490940493840181900481028201810190925282815260609390929091830182828015610bcc5780601f10610ba157610100808354040283529160200191610bcc565b80601481111561159d5760405162461bcd60e51b81526004018080602001828103825260288152602001806134306028913960400191505060405180910390fd5b60005b818110156116c35760008484838181106115b657fe5b9050602002013590506115c8816113c3565b6001600160a01b03166115d9612068565b6001600160a01b03161481604051602001808061328d60299139602901828152602001915050604051602081830303815290604052906116975760405162461bcd60e51b81526004018080602001828103825283818151815260200191508051906020019080838360005b8381101561165c578181015183820152602001611644565b50505050905090810190601f1680156116895780820380516001836020036101000a031916815260200191505b509250505060405180910390fd5b506000818152600f60205260409020805460ff191660011790556116ba816123ca565b506001016115a0565b506116cc612068565b6001600160a01b03167ff871896b17e9cb7a64941c62c188a4f5c621b86800e3d15452ece01ce56073df848460405180806020018281038252848482818152602001925060200280828437600083820152604051601f909101601f19169092018290039550909350505050a2505050565b600081565b61174a612068565b6001600160a01b0316826001600160a01b031614156117b0576040805162461bcd60e51b815260206004820152601960248201527f4552433732313a20617070726f766520746f2063616c6c657200000000000000604482015290519081900360640190fd5b80600560006117bd612068565b6001600160a01b03908116825260208083019390935260409182016000908120918716808252919093529120805460ff191692151592909217909155611801612068565b60408051841515815290516001600160a01b0392909216917f17307eab39ab6107e8899845ad3d59bd9653f200f220920489ca2b5937696c319181900360200190a35050565b604080516d4445504f5349544f525f524f4c4560901b8152905190819003600e01902081565b611876816113c3565b6001600160a01b0316611887612068565b6001600160a01b0316146118cc5760405162461bcd60e51b81526004018080602001828103825260288152602001806133936028913960400191505060405180910390fd5b6000818152600f60205260408120805460ff1916600117905581906118f0826113c3565b6001600160a01b03167ff94915c6d1fd521cee85359239227480c7e8776d7caf1fc3bacad5c269b66a14306001600160a01b0316631653c39a866040518263ffffffff1660e01b81526004018082815260200191505060006040518083038186803b15801561195e57600080fd5b505afa158015611972573d6000803e3d6000fd5b505050506040513d6000823e601f3d908101601f19168201604052602081101561199b57600080fd5b8101908080516040519392919084600160201b8211156119ba57600080fd5b9083019060208201858111156119cf57600080fd5b8251600160201b8111828201881017156119e857600080fd5b82525081516020918201929091019080838360005b83811015611a155781810151838201526020016119fd565b50505050905090810190601f168015611a425780820380516001836020036101000a031916815260200191505b50604081815260208083528651818401528651929550859450908401925085019080838360005b83811015611a81578181015183820152602001611a69565b50505050905090810190601f168015611aae5780820380516001836020036101000a031916815260200191505b509250505060405180910390a4611180816123ca565b611ad5611acf612068565b836121c8565b611b105760405162461bcd60e51b815260040180806020018281038252603181526020018061351e6031913960400191505060405180910390fd5b611b1c8484848461270f565b50505050565b6060611b2d82612055565b611b685760405162461bcd60e51b815260040180806020018281038252602f8152602001806134ce602f913960400191505060405180910390fd5b60008281526008602090815260409182902080548351601f6002600019610100600186161502019093169290920491820184900484028101840190945280845260609392830182828015611bfd5780601f10611bd257610100808354040283529160200191611bfd565b820191906000526020600020905b815481529060010190602001808311611be057829003601f168201915b505060095493945050505060026000196101006001841615020190911604611c26579050610b3b565b805115611cf7576009816040516020018083805460018160011615610100020316600290048015611c8e5780601f10611c6c576101008083540402835291820191611c8e565b820191906000526020600020905b815481529060010190602001808311611c7a575b5050825160208401908083835b60208310611cba5780518252601f199092019160209182019101611c9b565b6001836020036101000a03801982511681845116808217855250505050505090500192505050604051602081830303815290604052915050610b3b565b6009611d0284612761565b6040516020018083805460018160011615610100020316600290048015611d605780601f10611d3e576101008083540402835291820191611d60565b820191906000526020600020905b815481529060010190602001808311611d4c575b5050825160208401908083835b60208310611d8c5780518252601f199092019160209182019101611d6d565b6001836020036101000a03801982511681845116808217855250505050505090500192505050604051602081830303815290604052915050919050565b6000818152600a6020526040812061121a906121bd565b604080516d4445504f5349544f525f524f4c4560901b8152905190819003600e019020611e0f816111a1612068565b600b90611e755760405162461bcd60e51b81526020600482019081528254600260001961010060018416150201909116046024830181905290918291604490910190849080156113245780601f106112f957610100808354040283529160200191611324565b506020821415611ebb57600083836020811015611e9157600080fd5b50356000818152600f60205260409020805460ff191690559050611eb5858261258d565b50611b1c565b606083836020811015611ecd57600080fd5b810190602081018135600160201b811115611ee757600080fd5b820183602082011115611ef957600080fd5b803590602001918460208302840111600160201b83111715611f1a57600080fd5b91908080602002602001604051908101604052809392919081815260200183836020028082843760009201829052508451949850939650929450505050505b81811015611fc5576000600f6000858481518110611f7357fe5b6020026020010151815260200190815260200160002060006101000a81548160ff021916908315150217905550611fbd87848381518110611fb057fe5b602002602001015161258d565b600101611f59565b50505050505050565b6000828152600a6020526040902060020154611fec906111a1612068565b61127b5760405162461bcd60e51b81526004018080602001828103825260308152602001806133066030913960400191505060405180910390fd5b6001600160a01b03918216600090815260056020908152604080832093909416825291909152205460ff1690565b600061121a60028363ffffffff61283c16565b600061106d612848565b600081815260046020526040902080546001600160a01b0319166001600160a01b03841690811790915581906120a7826113c3565b6001600160a01b03167f8c5be1e5ebec7d5bd14f71427d1e84f3dd0314c0f7b2291e5b200ac8c7c3b92560405160405180910390a45050565b60006001600160a01b0386166121275760405162461bcd60e51b81526004018080602001828103825260258152602001806133366025913960400191505060405180910390fd5b600161213a612135876128a5565b612931565b83868660405160008152602001604052604051808581526020018460ff1660ff1681526020018381526020018281526020019450505050506020604051602081039080840390855afa158015612194573d6000803e3d6000fd5b505050602060405103516001600160a01b0316866001600160a01b031614905095945050505050565b600061121a8261297d565b60006121d382612055565b61220e5760405162461bcd60e51b815260040180806020018281038252602c8152602001806132da602c913960400191505060405180910390fd5b6000612219836113c3565b9050806001600160a01b0316846001600160a01b031614806122545750836001600160a01b031661224984610bec565b6001600160a01b0316145b8061226457506122648185612027565b949350505050565b826001600160a01b031661227f826113c3565b6001600160a01b0316146122c45760405162461bcd60e51b81526004018080602001828103825260298152602001806134846029913960400191505060405180910390fd5b6001600160a01b0382166123095760405162461bcd60e51b81526004018080602001828103825260248152602001806132b66024913960400191505060405180910390fd5b612314838383610d24565b61231f600082612072565b6001600160a01b0383166000908152600160205260409020612347908263ffffffff61298116565b506001600160a01b0382166000908152600160205260409020612370908263ffffffff61298d16565b506123836002828463ffffffff61299916565b5080826001600160a01b0316846001600160a01b03167fddf252ad1be2c89b69c2b068fc378daa952ba7f163c4a11628f55a4df523b3ef60405160405180910390a4505050565b60006123d5826113c3565b90506123e381600084610d24565b6123ee600083612072565b600082815260086020526040902054600260001961010060018416150201909116041561242c57600082815260086020526040812061242c9161313e565b6001600160a01b0381166000908152600160205260409020612454908363ffffffff61298116565b5061246660028363ffffffff6129af16565b5060405182906000906001600160a01b038416907fddf252ad1be2c89b69c2b068fc378daa952ba7f163c4a11628f55a4df523b3ef908390a45050565b6000828152600a602052604090206124c1908263ffffffff6129bb16565b156111eb576124ce612068565b6001600160a01b0316816001600160a01b0316837f2f8788117e7eff1d82e926ec794901d17c78024a50270940304540a733656f0d60405160405180910390a45050565b600061121783836129d0565b6000828152600a6020526040902061253c908263ffffffff612a3416565b156111eb57612549612068565b6001600160a01b0316816001600160a01b0316837ff6391f5c32d9c69d2a47ea670b442974b53935d1edc7fd64eb21e047a839171b60405160405180910390a45050565b6001600160a01b0382166125e8576040805162461bcd60e51b815260206004820181905260248201527f4552433732313a206d696e7420746f20746865207a65726f2061646472657373604482015290519081900360640190fd5b6125f181612055565b15612643576040805162461bcd60e51b815260206004820152601c60248201527f4552433732313a20746f6b656e20616c7265616479206d696e74656400000000604482015290519081900360640190fd5b61264f60008383610d24565b6001600160a01b0382166000908152600160205260409020612677908263ffffffff61298d16565b5061268a6002828463ffffffff61299916565b5060405181906001600160a01b038416906000907fddf252ad1be2c89b69c2b068fc378daa952ba7f163c4a11628f55a4df523b3ef908290a45050565b60008080806126d68686612a49565b9097909650945050505050565b60006126f0848484612ac4565b90505b9392505050565b6000611217836001600160a01b038416612b51565b61271a84848461226c565b61272684848484612b69565b611b1c5760405162461bcd60e51b81526004018080602001828103825260328152602001806131e96032913960400191505060405180910390fd5b60608161278657506040805180820190915260018152600360fc1b6020820152610b3b565b8160005b811561279e57600101600a8204915061278a565b60608167ffffffffffffffff811180156127b757600080fd5b506040519080825280601f01601f1916602001820160405280156127e2576020820181803683370190505b50859350905060001982015b831561283357600a840660300160f81b8282806001900393508151811061281157fe5b60200101906001600160f81b031916908160001a905350600a840493506127ee565b50949350505050565b60006112178383612b51565b6000333014156128a05760606000368080601f0160208091040260200160405190810160405280939291908181526020018383808284376000920191909152505050503601516001600160a01b03169150610bd49050565b503390565b600060405180608001604052806043815260200161324a60439139805190602001208260000151836020015184604001518051906020012060405160200180858152602001848152602001836001600160a01b03166001600160a01b03168152602001828152602001945050505050604051602081830303815290604052805190602001209050919050565b600061293b611072565b82604051602001808061190160f01b81525060020183815260200182815260200192505050604051602081830303815290604052805190602001209050919050565b5490565b60006112178383612ce9565b60006112178383612daf565b60006126f084846001600160a01b038516612df9565b60006112178383612e90565b6000611217836001600160a01b038416612daf565b81546000908210612a125760405162461bcd60e51b81526004018080602001828103825260228152602001806131986022913960400191505060405180910390fd5b826000018281548110612a2157fe5b9060005260206000200154905092915050565b6000611217836001600160a01b038416612ce9565b815460009081908310612a8d5760405162461bcd60e51b815260040180806020018281038252602281526020018061340e6022913960400191505060405180910390fd5b6000846000018481548110612a9e57fe5b906000526020600020906002020190508060000154816001015492509250509250929050565b60008281526001840160205260408120548281612b225760405162461bcd60e51b815260206004820181815283516024840152835190928392604490910191908501908083836000831561165c578181015183820152602001611644565b50846000016001820381548110612b3557fe5b9060005260206000209060020201600101549150509392505050565b60009081526001919091016020526040902054151590565b6000612b7d846001600160a01b0316612f64565b612b8957506001612264565b6060612caf630a85bd0160e11b612b9e612068565b88878760405160240180856001600160a01b03166001600160a01b03168152602001846001600160a01b03166001600160a01b0316815260200183815260200180602001828103825283818151815260200191508051906020019080838360005b83811015612c17578181015183820152602001612bff565b50505050905090810190601f168015612c445780820380516001836020036101000a031916815260200191505b5095505050505050604051602081830303815290604052906001600160e01b0319166020820180516001600160e01b0383818316178352505050506040518060600160405280603281526020016131e9603291396001600160a01b038816919063ffffffff612f9d16565b90506000818060200190516020811015612cc857600080fd5b50516001600160e01b031916630a85bd0160e11b1492505050949350505050565b60008181526001830160205260408120548015612da55783546000198083019190810190600090879083908110612d1c57fe5b9060005260206000200154905080876000018481548110612d3957fe5b600091825260208083209091019290925582815260018981019092526040902090840190558654879080612d6957fe5b6001900381819060005260206000200160009055905586600101600087815260200190815260200160002060009055600194505050505061121a565b600091505061121a565b6000612dbb8383612b51565b612df15750815460018181018455600084815260208082209093018490558454848252828601909352604090209190915561121a565b50600061121a565b600082815260018401602052604081205480612e5e5750506040805180820182528381526020808201848152865460018181018955600089815284812095516002909302909501918255915190820155865486845281880190925292909120556126f3565b82856000016001830381548110612e7157fe5b90600052602060002090600202016001018190555060009150506126f3565b60008181526001830160205260408120548015612da55783546000198083019190810190600090879083908110612ec357fe5b9060005260206000209060020201905080876000018481548110612ee357fe5b600091825260208083208454600290930201918255600193840154918401919091558354825289830190526040902090840190558654879080612f2257fe5b600082815260208082206002600019909401938402018281556001908101839055929093558881528982019092526040822091909155945061121a9350505050565b6000813f7fc5d2460186f7233c927e7db2dcc703c0e500b653ca82273b7bfad8045d85a470818114801590612264575050151592915050565b60606126f084846000856060612fb285612f64565b613003576040805162461bcd60e51b815260206004820152601d60248201527f416464726573733a2063616c6c20746f206e6f6e2d636f6e7472616374000000604482015290519081900360640190fd5b60006060866001600160a01b031685876040518082805190602001908083835b602083106130425780518252601f199092019160209182019101613023565b6001836020036101000a03801982511681845116808217855250505050505090500191505060006040518083038185875af1925050503d80600081146130a4576040519150601f19603f3d011682016040523d82523d6000602084013e6130a9565b606091505b509150915081156130bd5791506122649050565b8051156130cd5780518082602001fd5b60405162461bcd60e51b815260206004820181815286516024840152865187939192839260440191908501908083836000831561165c578181015183820152602001611644565b60405180606001604052806000815260200160006001600160a01b03168152602001606081525090565b50805460018160011615610100020316600290046000825580601f106131645750611180565b600091825260209182902061118092610bd492601f01048101905b80821115613193576000815560010161317f565b509056fe456e756d657261626c655365743a20696e646578206f7574206f6620626f756e6473416363657373436f6e74726f6c3a2073656e646572206d75737420626520616e2061646d696e20746f206772616e744552433732313a207472616e7366657220746f206e6f6e20455243373231526563656976657220696d706c656d656e7465724368696c644d696e7461626c654552433732313a20544f4b454e5f4558495354535f4f4e5f524f4f545f434841494e4d6574615472616e73616374696f6e2875696e74323536206e6f6e63652c616464726573732066726f6d2c62797465732066756e6374696f6e5369676e6174757265294368696c644d696e7461626c654552433732313a20494e56414c49445f544f4b454e5f4f574e4552204552433732313a207472616e7366657220746f20746865207a65726f20616464726573734552433732313a206f70657261746f7220717565727920666f72206e6f6e6578697374656e7420746f6b656e416363657373436f6e74726f6c3a2073656e646572206d75737420626520616e2061646d696e20746f207265766f6b654e61746976654d6574615472616e73616374696f6e3a20494e56414c49445f5349474e45524552433732313a20617070726f76652063616c6c6572206973206e6f74206f776e6572206e6f7220617070726f76656420666f7220616c6c4368696c644d696e7461626c654552433732313a20494e56414c49445f544f4b454e5f4f574e45524552433732313a2062616c616e636520717565727920666f7220746865207a65726f20616464726573734552433732313a206f776e657220717565727920666f72206e6f6e6578697374656e7420746f6b656e456e756d657261626c654d61703a20696e646578206f7574206f6620626f756e64734368696c644d696e7461626c654552433732313a20455843454544535f42415443485f4c494d49544552433732313a20617070726f76656420717565727920666f72206e6f6e6578697374656e7420746f6b656e4552433732313a207472616e73666572206f6620746f6b656e2074686174206973206e6f74206f776e5369676e657220616e64207369676e617475726520646f206e6f74206d617463684552433732314d657461646174613a2055524920717565727920666f72206e6f6e6578697374656e7420746f6b656e4552433732313a20617070726f76616c20746f2063757272656e74206f776e65724552433732313a207472616e736665722063616c6c6572206973206e6f74206f776e6572206e6f7220617070726f766564416363657373436f6e74726f6c3a2063616e206f6e6c792072656e6f756e636520726f6c657320666f722073656c66a264697066735822122047630ced08cbc27431f912a9f9cd2fc27204e0532c6ecf7aa9927d6c809585ec64736f6c63430006060033454950373132446f6d61696e28737472696e67206e616d652c737472696e672076657273696f6e2c6164647265737320766572696679696e67436f6e74726163742c627974657333322073616c7429","linkReferences":{}},"methodIdentifiers":{"BATCH_LIMIT()":"9559c0bd","DEFAULT_ADMIN_ROLE()":"a217fddf","DEPOSITOR_ROLE()":"a3b0b5a3","ERC712_VERSION()":"0f7e5970","approve(address,uint256)":"095ea7b3","balanceOf(address)":"70a08231","baseURI()":"6c0360eb","deposit(address,bytes)":"cf2c52cb","encodeTokenMetadata(uint256)":"1653c39a","executeMetaTransaction(address,bytes,bytes32,bytes32,uint8)":"0c53c51c","getApproved(uint256)":"081812fc","getChainId()":"3408e470","getDomainSeperator()":"20379ee5","getNonce(address)":"2d0335ab","getRoleAdmin(bytes32)":"248a9ca3","getRoleMember(bytes32,uint256)":"9010d07c","getRoleMemberCount(bytes32)":"ca15c873","grantRole(bytes32,address)":"2f2ff15d","hasRole(bytes32,address)":"91d14854","isApprovedForAll(address,address)":"e985e9c5","mint(address,uint256)":"40c10f19","name()":"06fdde03","ownerOf(uint256)":"6352211e","renounceRole(bytes32,address)":"36568abe","revokeRole(bytes32,address)":"d547741f","safeTransferFrom(address,address,uint256)":"42842e0e","safeTransferFrom(address,address,uint256,bytes)":"b88d4fde","setApprovalForAll(address,bool)":"a22cb465","supportsInterface(bytes4)":"01ffc9a7","symbol()":"95d89b41","tokenByIndex(uint256)":"4f6ccce7","tokenOfOwnerByIndex(address,uint256)":"2f745c59","tokenURI(uint256)":"c87b56dd","totalSupply()":"18160ddd","transferFrom(address,address,uint256)":"23b872dd","withdraw(uint256)":"2e1a7d4d","withdrawBatch(uint256[])":"9c8d4156","withdrawWithMetadata(uint256)":"a5e584dc","withdrawnTokens(uint256)":"07a974fc"},"id":9}