{
  "_format": "hh-sol-artifact-1",
  "contractName": "ERC721Predicate",
  "sourceName": "contracts/root/TokenPredicates/ERC721Predicate.sol",
  "abi": [
    {
      "inputs": [],
      "stateMutability": "nonpayable",
      "type": "constructor"
    },
    {
      "anonymous": false,
      "inputs": [
        {
          "indexed": true,
          "internalType": "address",
          "name": "depositor",
          "type": "address"
        },
        {
          "indexed": true,
          "internalType": "address",
          "name": "depositReceiver",
          "type": "address"
        },
        {
          "indexed": true,
          "internalType": "address",
          "name": "rootToken",
          "type": "address"
        },
        {
          "indexed": false,
          "internalType": "uint256",
          "name": "tokenId",
          "type": "uint256"
        }
      ],
      "name": "LockedERC721",
      "type": "event"
    },
    {
      "anonymous": false,
      "inputs": [
        {
          "indexed": true,
          "internalType": "address",
          "name": "depositor",
          "type": "address"
        },
        {
          "indexed": true,
          "internalType": "address",
          "name": "depositReceiver",
          "type": "address"
        },
        {
          "indexed": true,
          "internalType": "address",
          "name": "rootToken",
          "type": "address"
        },
        {
          "indexed": false,
          "internalType": "uint256[]",
          "name": "tokenIds",
          "type": "uint256[]"
        }
      ],
      "name": "LockedERC721Batch",
      "type": "event"
    },
    {
      "anonymous": false,
      "inputs": [
        {
          "indexed": true,
          "internalType": "bytes32",
          "name": "role",
          "type": "bytes32"
        },
        {
          "indexed": true,
          "internalType": "bytes32",
          "name": "previousAdminRole",
          "type": "bytes32"
        },
        {
          "indexed": true,
          "internalType": "bytes32",
          "name": "newAdminRole",
          "type": "bytes32"
        }
      ],
      "name": "RoleAdminChanged",
      "type": "event"
    },
    {
      "anonymous": false,
      "inputs": [
        {
          "indexed": true,
          "internalType": "bytes32",
          "name": "role",
          "type": "bytes32"
        },
        {
          "indexed": true,
          "internalType": "address",
          "name": "account",
          "type": "address"
        },
        {
          "indexed": true,
          "internalType": "address",
          "name": "sender",
          "type": "address"
        }
      ],
      "name": "RoleGranted",
      "type": "event"
    },
    {
      "anonymous": false,
      "inputs": [
        {
          "indexed": true,
          "internalType": "bytes32",
          "name": "role",
          "type": "bytes32"
        },
        {
          "indexed": true,
          "internalType": "address",
          "name": "account",
          "type": "address"
        },
        {
          "indexed": true,
          "internalType": "address",
          "name": "sender",
          "type": "address"
        }
      ],
      "name": "RoleRevoked",
      "type": "event"
    },
    {
      "inputs": [],
      "name": "BATCH_LIMIT",
      "outputs": [
        {
          "internalType": "uint256",
          "name": "",
          "type": "uint256"
        }
      ],
      "stateMutability": "view",
      "type": "function"
    },
    {
      "inputs": [],
      "name": "DEFAULT_ADMIN_ROLE",
      "outputs": [
        {
          "internalType": "bytes32",
          "name": "",
          "type": "bytes32"
        }
      ],
      "stateMutability": "view",
      "type": "function"
    },
    {
      "inputs": [],
      "name": "MANAGER_ROLE",
      "outputs": [
        {
          "internalType": "bytes32",
          "name": "",
          "type": "bytes32"
        }
      ],
      "stateMutability": "view",
      "type": "function"
    },
    {
      "inputs": [],
      "name": "TOKEN_TYPE",
      "outputs": [
        {
          "internalType": "bytes32",
          "name": "",
          "type": "bytes32"
        }
      ],
      "stateMutability": "view",
      "type": "function"
    },
    {
      "inputs": [],
      "name": "TRANSFER_EVENT_SIG",
      "outputs": [
        {
          "internalType": "bytes32",
          "name": "",
          "type": "bytes32"
        }
      ],
      "stateMutability": "view",
      "type": "function"
    },
    {
      "inputs": [],
      "name": "TRANSFER_WITH_METADATA_EVENT_SIG",
      "outputs": [
        {
          "internalType": "bytes32",
          "name": "",
          "type": "bytes32"
        }
      ],
      "stateMutability": "view",
      "type": "function"
    },
    {
      "inputs": [],
      "name": "WITHDRAW_BATCH_EVENT_SIG",
      "outputs": [
        {
          "internalType": "bytes32",
          "name": "",
          "type": "bytes32"
        }
      ],
      "stateMutability": "view",
      "type": "function"
    },
    {
      "inputs": [
        {
          "internalType": "address",
          "name": "",
          "type": "address"
        },
        {
          "internalType": "address",
          "name": "rootToken",
          "type": "address"
        },
        {
          "internalType": "bytes",
          "name": "log",
          "type": "bytes"
        }
      ],
      "name": "exitTokens",
      "outputs": [],
      "stateMutability": "nonpayable",
      "type": "function"
    },
    {
      "inputs": [
        {
          "internalType": "bytes32",
          "name": "role",
          "type": "bytes32"
        }
      ],
      "name": "getRoleAdmin",
      "outputs": [
        {
          "internalType": "bytes32",
          "name": "",
          "type": "bytes32"
        }
      ],
      "stateMutability": "view",
      "type": "function"
    },
    {
      "inputs": [
        {
          "internalType": "bytes32",
          "name": "role",
          "type": "bytes32"
        },
        {
          "internalType": "uint256",
          "name": "index",
          "type": "uint256"
        }
      ],
      "name": "getRoleMember",
      "outputs": [
        {
          "internalType": "address",
          "name": "",
          "type": "address"
        }
      ],
      "stateMutability": "view",
      "type": "function"
    },
    {
      "inputs": [
        {
          "internalType": "bytes32",
          "name": "role",
          "type": "bytes32"
        }
      ],
      "name": "getRoleMemberCount",
      "outputs": [
        {
          "internalType": "uint256",
          "name": "",
          "type": "uint256"
        }
      ],
      "stateMutability": "view",
      "type": "function"
    },
    {
      "inputs": [
        {
          "internalType": "bytes32",
          "name": "role",
          "type": "bytes32"
        },
        {
          "internalType": "address",
          "name": "account",
          "type": "address"
        }
      ],
      "name": "grantRole",
      "outputs": [],
      "stateMutability": "nonpayable",
      "type": "function"
    },
    {
      "inputs": [
        {
          "internalType": "bytes32",
          "name": "role",
          "type": "bytes32"
        },
        {
          "internalType": "address",
          "name": "account",
          "type": "address"
        }
      ],
      "name": "hasRole",
      "outputs": [
        {
          "internalType": "bool",
          "name": "",
          "type": "bool"
        }
      ],
      "stateMutability": "view",
      "type": "function"
    },
    {
      "inputs": [
        {
          "internalType": "address",
          "name": "_owner",
          "type": "address"
        }
      ],
      "name": "initialize",
      "outputs": [],
      "stateMutability": "nonpayable",
      "type": "function"
    },
    {
      "inputs": [
        {
          "internalType": "address",
          "name": "depositor",
          "type": "address"
        },
        {
          "internalType": "address",
          "name": "depositReceiver",
          "type": "address"
        },
        {
          "internalType": "address",
          "name": "rootToken",
          "type": "address"
        },
        {
          "internalType": "bytes",
          "name": "depositData",
          "type": "bytes"
        }
      ],
      "name": "lockTokens",
      "outputs": [],
      "stateMutability": "nonpayable",
      "type": "function"
    },
    {
      "inputs": [
        {
          "internalType": "address",
          "name": "",
          "type": "address"
        },
        {
          "internalType": "address",
          "name": "",
          "type": "address"
        },
        {
          "internalType": "uint256",
          "name": "",
          "type": "uint256"
        },
        {
          "internalType": "bytes",
          "name": "",
          "type": "bytes"
        }
      ],
      "name": "onERC721Received",
      "outputs": [
        {
          "internalType": "bytes4",
          "name": "",
          "type": "bytes4"
        }
      ],
      "stateMutability": "nonpayable",
      "type": "function"
    },
    {
      "inputs": [
        {
          "internalType": "bytes32",
          "name": "role",
          "type": "bytes32"
        },
        {
          "internalType": "address",
          "name": "account",
          "type": "address"
        }
      ],
      "name": "renounceRole",
      "outputs": [],
      "stateMutability": "nonpayable",
      "type": "function"
    },
    {
      "inputs": [
        {
          "internalType": "bytes32",
          "name": "role",
          "type": "bytes32"
        },
        {
          "internalType": "address",
          "name": "account",
          "type": "address"
        }
      ],
      "name": "revokeRole",
      "outputs": [],
      "stateMutability": "nonpayable",
      "type": "function"
    }
  ],
  "bytecode": "0x60806040526000600260006101000a81548160ff02191690831515021790555034801561002b57600080fd5b5061264d8061003b6000396000f3fe608060405234801561001057600080fd5b50600436106101165760003560e01c806391d14854116100a2578063c4d66de811610071578063c4d66de81461059b578063ca15c873146105df578063d547741f14610621578063e375b64e1461066f578063ec87621c1461074857610116565b806391d14854146104db5780639559c0bd14610541578063a217fddf1461055f578063b017a30f1461057d57610116565b80634794b430116100e95780634794b4301461030e57806349f5124b1461032c578063609c92b81461034a5780638274664f146103685780639010d07c1461046357610116565b8063150b7a021461011b578063248a9ca3146102305780632f2ff15d1461027257806336568abe146102c0575b600080fd5b6101dc6004803603608081101561013157600080fd5b81019080803573ffffffffffffffffffffffffffffffffffffffff169060200190929190803573ffffffffffffffffffffffffffffffffffffffff169060200190929190803590602001909291908035906020019064010000000081111561019857600080fd5b8201836020820111156101aa57600080fd5b803590602001918460018302840111640100000000831117156101cc57600080fd5b9091929391929390505050610766565b60405180827bffffffffffffffffffffffffffffffffffffffffffffffffffffffff19167bffffffffffffffffffffffffffffffffffffffffffffffffffffffff1916815260200191505060405180910390f35b61025c6004803603602081101561024657600080fd5b810190808035906020019092919050505061077b565b6040518082815260200191505060405180910390f35b6102be6004803603604081101561028857600080fd5b8101908080359060200190929190803573ffffffffffffffffffffffffffffffffffffffff16906020019092919050505061079a565b005b61030c600480360360408110156102d657600080fd5b8101908080359060200190929190803573ffffffffffffffffffffffffffffffffffffffff169060200190929190505050610823565b005b6103166108bc565b6040518082815260200191505060405180910390f35b6103346108e3565b6040518082815260200191505060405180910390f35b61035261090a565b6040518082815260200191505060405180910390f35b6104616004803603606081101561037e57600080fd5b81019080803573ffffffffffffffffffffffffffffffffffffffff169060200190929190803573ffffffffffffffffffffffffffffffffffffffff169060200190929190803590602001906401000000008111156103db57600080fd5b8201836020820111156103ed57600080fd5b8035906020019184600183028401116401000000008311171561040f57600080fd5b91908080601f016020809104026020016040519081016040528093929190818152602001838380828437600081840152601f19601f820116905080830192505050505050509192919290505050610943565b005b6104996004803603604081101561047957600080fd5b8101908080359060200190929190803590602001909291905050506112c4565b604051808273ffffffffffffffffffffffffffffffffffffffff1673ffffffffffffffffffffffffffffffffffffffff16815260200191505060405180910390f35b610527600480360360408110156104f157600080fd5b8101908080359060200190929190803573ffffffffffffffffffffffffffffffffffffffff1690602001909291905050506112f5565b604051808215151515815260200191505060405180910390f35b610549611326565b6040518082815260200191505060405180910390f35b61056761132b565b6040518082815260200191505060405180910390f35b610585611332565b6040518082815260200191505060405180910390f35b6105dd600480360360208110156105b157600080fd5b81019080803573ffffffffffffffffffffffffffffffffffffffff169060200190929190505050611359565b005b61060b600480360360208110156105f557600080fd5b8101908080359060200190929190505050611484565b6040518082815260200191505060405180910390f35b61066d6004803603604081101561063757600080fd5b8101908080359060200190929190803573ffffffffffffffffffffffffffffffffffffffff1690602001909291905050506114aa565b005b6107466004803603608081101561068557600080fd5b81019080803573ffffffffffffffffffffffffffffffffffffffff169060200190929190803573ffffffffffffffffffffffffffffffffffffffff169060200190929190803573ffffffffffffffffffffffffffffffffffffffff1690602001909291908035906020019064010000000081111561070257600080fd5b82018360208201111561071457600080fd5b8035906020019184600183028401116401000000008311171561073657600080fd5b9091929391929390505050611533565b005b610750611a9c565b6040518082815260200191505060405180910390f35b600063150b7a0260e01b905095945050505050565b6000806000838152602001908152602001600020600201549050919050565b6107c0600080848152602001908152602001600020600201546107bb611ad5565b6112f5565b610815576040517f08c379a000000000000000000000000000000000000000000000000000000000815260040180806020018281038252602f815260200180612523602f913960400191505060405180910390fd5b61081f8282611add565b5050565b61082b611ad5565b73ffffffffffffffffffffffffffffffffffffffff168173ffffffffffffffffffffffffffffffffffffffff16146108ae576040517f08c379a000000000000000000000000000000000000000000000000000000000815260040180806020018281038252602f8152602001806125e9602f913960400191505060405180910390fd5b6108b88282611b70565b5050565b7ff871896b17e9cb7a64941c62c188a4f5c621b86800e3d15452ece01ce56073df60001b81565b7ff94915c6d1fd521cee85359239227480c7e8776d7caf1fc3bacad5c269b66a1460001b81565b60405180807f45524337323100000000000000000000000000000000000000000000000000008152506006019050604051809103902081565b60405180807f4d414e414745525f524f4c450000000000000000000000000000000000000000815250600c019050604051809103902061098a81610985611ad5565b6112f5565b600190610a4f576040517f08c379a00000000000000000000000000000000000000000000000000000000081526004018080602001828103825283818154600181600116156101000203166002900481526020019150805460018160011615610100020316600290048015610a405780601f10610a1557610100808354040283529160200191610a40565b820191906000526020600020905b815481529060010190602001808311610a2357829003601f168201915b50509250505060405180910390fd5b506060610a63610a5e84611c03565b611c31565b90506060610a8482600181518110610a7757fe5b6020026020010151611c31565b90506000610aa582600181518110610a9857fe5b6020026020010151611d25565b90507fddf252ad1be2c89b69c2b068fc378daa952ba7f163c4a11628f55a4df523b3ef60001b610ae883600081518110610adb57fe5b6020026020010151611d25565b60001b1415610c8657600073ffffffffffffffffffffffffffffffffffffffff16610b2683600281518110610b1957fe5b6020026020010151611d25565b73ffffffffffffffffffffffffffffffffffffffff1614610b92576040517f08c379a00000000000000000000000000000000000000000000000000000000081526004018080602001828103825260218152602001806125c86021913960400191505060405180910390fd5b8573ffffffffffffffffffffffffffffffffffffffff166342842e0e3083610bcd86600381518110610bc057fe5b6020026020010151611d25565b6040518463ffffffff1660e01b8152600401808473ffffffffffffffffffffffffffffffffffffffff1673ffffffffffffffffffffffffffffffffffffffff1681526020018373ffffffffffffffffffffffffffffffffffffffff1673ffffffffffffffffffffffffffffffffffffffff1681526020018281526020019350505050600060405180830381600087803b158015610c6957600080fd5b505af1158015610c7d573d6000803e3d6000fd5b505050506112bb565b7ff871896b17e9cb7a64941c62c188a4f5c621b86800e3d15452ece01ce56073df60001b610cc783600081518110610cba57fe5b6020026020010151611d25565b60001b1415610eae576060610cef84600281518110610ce257fe5b6020026020010151611d7f565b90506060818060200190516020811015610d0857600080fd5b8101908080516040519392919084640100000000821115610d2857600080fd5b83820191506020820185811115610d3e57600080fd5b8251866020820283011164010000000082111715610d5b57600080fd5b8083526020830192505050908051906020019060200280838360005b83811015610d92578082015181840152602081019050610d77565b50505050905001604052505050905060008151905060005b81811015610ea5578973ffffffffffffffffffffffffffffffffffffffff166342842e0e3087868581518110610ddc57fe5b60200260200101516040518463ffffffff1660e01b8152600401808473ffffffffffffffffffffffffffffffffffffffff1673ffffffffffffffffffffffffffffffffffffffff1681526020018373ffffffffffffffffffffffffffffffffffffffff1673ffffffffffffffffffffffffffffffffffffffff1681526020018281526020019350505050600060405180830381600087803b158015610e8057600080fd5b505af1158015610e94573d6000803e3d6000fd5b505050508080600101915050610daa565b505050506112ba565b7ff94915c6d1fd521cee85359239227480c7e8776d7caf1fc3bacad5c269b66a1460001b610eef83600081518110610ee257fe5b6020026020010151611d25565b60001b141561126857600073ffffffffffffffffffffffffffffffffffffffff16610f2d83600281518110610f2057fe5b6020026020010151611d25565b73ffffffffffffffffffffffffffffffffffffffff1614610f99576040517f08c379a00000000000000000000000000000000000000000000000000000000081526004018080602001828103825260218152602001806125c86021913960400191505060405180910390fd5b60008690506000610fbd84600381518110610fb057fe5b6020026020010151611d25565b90508173ffffffffffffffffffffffffffffffffffffffff166342842e0e3085846040518463ffffffff1660e01b8152600401808473ffffffffffffffffffffffffffffffffffffffff1673ffffffffffffffffffffffffffffffffffffffff1681526020018373ffffffffffffffffffffffffffffffffffffffff1673ffffffffffffffffffffffffffffffffffffffff1681526020018281526020019350505050600060405180830381600087803b15801561107a57600080fd5b505af115801561108e573d6000803e3d6000fd5b5050505060606110b1866002815181106110a457fe5b6020026020010151611d7f565b905060608180602001905160208110156110ca57600080fd5b81019080805160405193929190846401000000008211156110ea57600080fd5b8382019150602082018581111561110057600080fd5b825186600182028301116401000000008211171561111d57600080fd5b8083526020830192505050908051906020019080838360005b83811015611151578082015181840152602081019050611136565b50505050905090810190601f16801561117e5780820380516001836020036101000a031916815260200191505b5060405250505090508373ffffffffffffffffffffffffffffffffffffffff166349b9530b84836040518363ffffffff1660e01b81526004018083815260200180602001828103825283818151815260200191508051906020019080838360005b838110156111fa5780820151818401526020810190506111df565b50505050905090810190601f1680156112275780820380516001836020036101000a031916815260200191505b509350505050600060405180830381600087803b15801561124757600080fd5b505af115801561125b573d6000803e3d6000fd5b50505050505050506112b9565b6040517f08c379a00000000000000000000000000000000000000000000000000000000081526004018080602001828103825260228152602001806125a66022913960400191505060405180910390fd5b5b5b50505050505050565b60006112ed82600080868152602001908152602001600020600001611e1090919063ffffffff16565b905092915050565b600061131e82600080868152602001908152602001600020600001611e2a90919063ffffffff16565b905092915050565b601481565b6000801b81565b7fddf252ad1be2c89b69c2b068fc378daa952ba7f163c4a11628f55a4df523b3ef60001b81565b600260009054906101000a900460ff16156113dc576040517f08c379a000000000000000000000000000000000000000000000000000000000815260040180806020018281038252600e8152602001807f616c726561647920696e6974656400000000000000000000000000000000000081525060200191505060405180910390fd5b61141a6040518060400160405280600f81526020017f4552433732315072656469636174650000000000000000000000000000000000815250611e5a565b6114276000801b82611f06565b61146660405180807f4d414e414745525f524f4c450000000000000000000000000000000000000000815250600c019050604051809103902082611f06565b6001600260006101000a81548160ff02191690831515021790555050565b60006114a3600080848152602001908152602001600020600001611f14565b9050919050565b6114d0600080848152602001908152602001600020600201546114cb611ad5565b6112f5565b611525576040517f08c379a00000000000000000000000000000000000000000000000000000000081526004018080602001828103825260308152602001806125526030913960400191505060405180910390fd5b61152f8282611b70565b5050565b60405180807f4d414e414745525f524f4c450000000000000000000000000000000000000000815250600c019050604051809103902061157a81611575611ad5565b6112f5565b60019061163f576040517f08c379a000000000000000000000000000000000000000000000000000000000815260040180806020018281038252838181546001816001161561010002031660029004815260200191508054600181600116156101000203166002900480156116305780601f1061160557610100808354040283529160200191611630565b820191906000526020600020905b81548152906001019060200180831161161357829003601f168201915b50509250505060405180910390fd5b5060208383905014156117c65760008383602081101561165e57600080fd5b810190808035906020019092919050505090508473ffffffffffffffffffffffffffffffffffffffff168673ffffffffffffffffffffffffffffffffffffffff168873ffffffffffffffffffffffffffffffffffffffff167f8357472e13612a8c3d6f3e9d71fbba8a78ab77dbdcc7fcf3b7b645585f0bbbfc846040518082815260200191505060405180910390a48473ffffffffffffffffffffffffffffffffffffffff166342842e0e8830846040518463ffffffff1660e01b8152600401808473ffffffffffffffffffffffffffffffffffffffff1673ffffffffffffffffffffffffffffffffffffffff1681526020018373ffffffffffffffffffffffffffffffffffffffff1673ffffffffffffffffffffffffffffffffffffffff1681526020018281526020019350505050600060405180830381600087803b1580156117a857600080fd5b505af11580156117bc573d6000803e3d6000fd5b5050505050611a94565b6060838360208110156117d857600080fd5b81019080803590602001906401000000008111156117f557600080fd5b82018360208201111561180757600080fd5b8035906020019184602083028401116401000000008311171561182957600080fd5b919080806020026020016040519081016040528093929190818152602001838360200280828437600081840152601f19601f82011690508083019250505050505050919291929050505090508473ffffffffffffffffffffffffffffffffffffffff168673ffffffffffffffffffffffffffffffffffffffff168873ffffffffffffffffffffffffffffffffffffffff167f5345c2beb0e49c805f42bb70c4ec5c3c3d9680ce45b8f4529c028d5f3e0f7a0d846040518080602001828103825283818151815260200191508051906020019060200280838360005b8381101561191f578082015181840152602081019050611904565b505050509050019250505060405180910390a46000815190506014811115611992576040517f08c379a00000000000000000000000000000000000000000000000000000000081526004018080602001828103825260248152602001806125826024913960400191505060405180910390fd5b60005b81811015611a90578673ffffffffffffffffffffffffffffffffffffffff166342842e0e8a308685815181106119c757fe5b60200260200101516040518463ffffffff1660e01b8152600401808473ffffffffffffffffffffffffffffffffffffffff1673ffffffffffffffffffffffffffffffffffffffff1681526020018373ffffffffffffffffffffffffffffffffffffffff1673ffffffffffffffffffffffffffffffffffffffff1681526020018281526020019350505050600060405180830381600087803b158015611a6b57600080fd5b505af1158015611a7f573d6000803e3d6000fd5b505050508080600101915050611995565b5050505b505050505050565b60405180807f4d414e414745525f524f4c450000000000000000000000000000000000000000815250600c019050604051809103902081565b600033905090565b611b0481600080858152602001908152602001600020600001611f2990919063ffffffff16565b15611b6c57611b11611ad5565b73ffffffffffffffffffffffffffffffffffffffff168173ffffffffffffffffffffffffffffffffffffffff16837f2f8788117e7eff1d82e926ec794901d17c78024a50270940304540a733656f0d60405160405180910390a45b5050565b611b9781600080858152602001908152602001600020600001611f5990919063ffffffff16565b15611bff57611ba4611ad5565b73ffffffffffffffffffffffffffffffffffffffff168173ffffffffffffffffffffffffffffffffffffffff16837ff6391f5c32d9c69d2a47ea670b442974b53935d1edc7fd64eb21e047a839171b60405160405180910390a45b5050565b611c0b612441565b600060208301905060405180604001604052808451815260200182815250915050919050565b6060611c3c82611f89565b611c4557600080fd5b6000611c5083611fd7565b905060608167ffffffffffffffff81118015611c6b57600080fd5b50604051908082528060200260200182016040528015611ca557816020015b611c92612441565b815260200190600190039081611c8a5790505b5090506000611cb78560200151612048565b8560200151019050600080600090505b84811015611d1857611cd8836120d1565b9150604051806040016040528083815260200184815250848281518110611cfb57fe5b602002602001018190525081830192508080600101915050611cc7565b5082945050505050919050565b6000808260000151118015611d3f57506021826000015111155b611d4857600080fd5b600080611d5484612189565b915091506000825190506020821015611d7457816020036101000a810490505b809350505050919050565b60606000826000015111611d9257600080fd5b600080611d9e84612189565b9150915060608167ffffffffffffffff81118015611dbb57600080fd5b506040519080825280601f01601f191660200182016040528015611dee5781602001600182028036833780820191505090505b5090506000816020019050611e048482856121c1565b81945050505050919050565b6000611e1f8360000183612232565b60001c905092915050565b6000611e52836000018373ffffffffffffffffffffffffffffffffffffffff1660001b6122b5565b905092915050565b806040516020018082805190602001908083835b60208310611e915780518252602082019150602081019050602083039250611e6e565b6001836020036101000a038019825116818451168082178552505050505050905001807f3a20494e53554646494349454e545f5045524d495353494f4e53000000000000815250601a0191505060405160208183030381529060405260019080519060200190611f0292919061245b565b5050565b611f108282611add565b5050565b6000611f22826000016122d8565b9050919050565b6000611f51836000018373ffffffffffffffffffffffffffffffffffffffff1660001b6122e9565b905092915050565b6000611f81836000018373ffffffffffffffffffffffffffffffffffffffff1660001b612359565b905092915050565b60008082600001511415611fa05760009050611fd2565b60008083602001519050805160001a915060c060ff168260ff161015611fcb57600092505050611fd2565b6001925050505b919050565b60008082600001511415611fee5760009050612043565b600080905060006120028460200151612048565b84602001510190506000846000015185602001510190505b8082101561203c5761202b826120d1565b82019150828060010193505061201a565b8293505050505b919050565b600080825160001a9050608060ff168110156120685760009150506120cc565b60b860ff1681108061208d575060c060ff16811015801561208c575060f860ff1681105b5b1561209c5760019150506120cc565b60c060ff168110156120bc5760018060b80360ff168203019150506120cc565b60018060f80360ff168203019150505b919050565b6000806000835160001a9050608060ff168110156120f2576001915061217f565b60b860ff1681101561210f576001608060ff16820301915061217e565b60c060ff1681101561213f5760b78103600185019450806020036101000a8551046001820181019350505061217d565b60f860ff1681101561215c57600160c060ff16820301915061217c565b60f78103600185019450806020036101000a855104600182018101935050505b5b5b5b8192505050919050565b600080600061219b8460200151612048565b905060008185602001510190506000828660000151039050818194509450505050915091565b60008114156121cf5761222d565b5b602060ff1681106121ff5782518252602060ff1683019250602060ff1682019150602060ff16810390506121d0565b600081111561222c576000600182602060ff16036101000a03905080198451168184511681811785525050505b5b505050565b600081836000018054905011612293576040517f08c379a00000000000000000000000000000000000000000000000000000000081526004018080602001828103825260228152602001806125016022913960400191505060405180910390fd5b8260000182815481106122a257fe5b9060005260206000200154905092915050565b600080836001016000848152602001908152602001600020541415905092915050565b600081600001805490509050919050565b60006122f583836122b5565b61234e578260000182908060018154018082558091505060019003906000526020600020016000909190919091505582600001805490508360010160008481526020019081526020016000208190555060019050612353565b600090505b92915050565b6000808360010160008481526020019081526020016000205490506000811461243557600060018203905060006001866000018054905003905060008660000182815481106123a457fe5b90600052602060002001549050808760000184815481106123c157fe5b90600052602060002001819055506001830187600101600083815260200190815260200160002081905550866000018054806123f957fe5b6001900381819060005260206000200160009055905586600101600087815260200190815260200160002060009055600194505050505061243b565b60009150505b92915050565b604051806040016040528060008152602001600081525090565b828054600181600116156101000203166002900490600052602060002090601f016020900481019282601f1061249c57805160ff19168380011785556124ca565b828001600101855582156124ca579182015b828111156124c95782518255916020019190600101906124ae565b5b5090506124d791906124db565b5090565b6124fd91905b808211156124f95760008160009055506001016124e1565b5090565b9056fe456e756d657261626c655365743a20696e646578206f7574206f6620626f756e6473416363657373436f6e74726f6c3a2073656e646572206d75737420626520616e2061646d696e20746f206772616e74416363657373436f6e74726f6c3a2073656e646572206d75737420626520616e2061646d696e20746f207265766f6b654552433732315072656469636174653a20455843454544535f42415443485f4c494d49544552433732315072656469636174653a20494e56414c49445f5349474e41545552454552433732315072656469636174653a20494e56414c49445f5245434549564552416363657373436f6e74726f6c3a2063616e206f6e6c792072656e6f756e636520726f6c657320666f722073656c66a26469706673582212207fd7c021e1580cab334a2de28dbc89efc1ea310d62f38c91494909c37cb97ebc64736f6c63430006060033",
  "linkReferences": {},
  "deployedLinkReferences": {}
}