{
  "_format": "hh-sol-artifact-1",
  "contractName": "RootTunnel",
  "sourceName": "contracts/tunnel/RootTunnel.sol",
  "abi": [
    {
      "anonymous": false,
      "inputs": [
        {
          "indexed": true,
          "internalType": "bytes32",
          "name": "role",
          "type": "bytes32"
        },
        {
          "indexed": true,
          "internalType": "bytes32",
          "name": "previousAdminRole",
          "type": "bytes32"
        },
        {
          "indexed": true,
          "internalType": "bytes32",
          "name": "newAdminRole",
          "type": "bytes32"
        }
      ],
      "name": "RoleAdminChanged",
      "type": "event"
    },
    {
      "anonymous": false,
      "inputs": [
        {
          "indexed": true,
          "internalType": "bytes32",
          "name": "role",
          "type": "bytes32"
        },
        {
          "indexed": true,
          "internalType": "address",
          "name": "account",
          "type": "address"
        },
        {
          "indexed": true,
          "internalType": "address",
          "name": "sender",
          "type": "address"
        }
      ],
      "name": "RoleGranted",
      "type": "event"
    },
    {
      "anonymous": false,
      "inputs": [
        {
          "indexed": true,
          "internalType": "bytes32",
          "name": "role",
          "type": "bytes32"
        },
        {
          "indexed": true,
          "internalType": "address",
          "name": "account",
          "type": "address"
        },
        {
          "indexed": true,
          "internalType": "address",
          "name": "sender",
          "type": "address"
        }
      ],
      "name": "RoleRevoked",
      "type": "event"
    },
    {
      "inputs": [],
      "name": "DEFAULT_ADMIN_ROLE",
      "outputs": [
        {
          "internalType": "bytes32",
          "name": "",
          "type": "bytes32"
        }
      ],
      "stateMutability": "view",
      "type": "function"
    },
    {
      "inputs": [],
      "name": "SEND_MESSAGE_EVENT_SIG",
      "outputs": [
        {
          "internalType": "bytes32",
          "name": "",
          "type": "bytes32"
        }
      ],
      "stateMutability": "view",
      "type": "function"
    },
    {
      "inputs": [],
      "name": "checkpointManager",
      "outputs": [
        {
          "internalType": "contract ICheckpointManager",
          "name": "",
          "type": "address"
        }
      ],
      "stateMutability": "view",
      "type": "function"
    },
    {
      "inputs": [],
      "name": "childTunnel",
      "outputs": [
        {
          "internalType": "address",
          "name": "",
          "type": "address"
        }
      ],
      "stateMutability": "view",
      "type": "function"
    },
    {
      "inputs": [
        {
          "internalType": "bytes32",
          "name": "role",
          "type": "bytes32"
        }
      ],
      "name": "getRoleAdmin",
      "outputs": [
        {
          "internalType": "bytes32",
          "name": "",
          "type": "bytes32"
        }
      ],
      "stateMutability": "view",
      "type": "function"
    },
    {
      "inputs": [
        {
          "internalType": "bytes32",
          "name": "role",
          "type": "bytes32"
        },
        {
          "internalType": "uint256",
          "name": "index",
          "type": "uint256"
        }
      ],
      "name": "getRoleMember",
      "outputs": [
        {
          "internalType": "address",
          "name": "",
          "type": "address"
        }
      ],
      "stateMutability": "view",
      "type": "function"
    },
    {
      "inputs": [
        {
          "internalType": "bytes32",
          "name": "role",
          "type": "bytes32"
        }
      ],
      "name": "getRoleMemberCount",
      "outputs": [
        {
          "internalType": "uint256",
          "name": "",
          "type": "uint256"
        }
      ],
      "stateMutability": "view",
      "type": "function"
    },
    {
      "inputs": [
        {
          "internalType": "bytes32",
          "name": "role",
          "type": "bytes32"
        },
        {
          "internalType": "address",
          "name": "account",
          "type": "address"
        }
      ],
      "name": "grantRole",
      "outputs": [],
      "stateMutability": "nonpayable",
      "type": "function"
    },
    {
      "inputs": [
        {
          "internalType": "bytes32",
          "name": "role",
          "type": "bytes32"
        },
        {
          "internalType": "address",
          "name": "account",
          "type": "address"
        }
      ],
      "name": "hasRole",
      "outputs": [
        {
          "internalType": "bool",
          "name": "",
          "type": "bool"
        }
      ],
      "stateMutability": "view",
      "type": "function"
    },
    {
      "inputs": [
        {
          "internalType": "bytes32",
          "name": "",
          "type": "bytes32"
        }
      ],
      "name": "processedExits",
      "outputs": [
        {
          "internalType": "bool",
          "name": "",
          "type": "bool"
        }
      ],
      "stateMutability": "view",
      "type": "function"
    },
    {
      "inputs": [
        {
          "internalType": "bytes",
          "name": "inputData",
          "type": "bytes"
        }
      ],
      "name": "receiveMessage",
      "outputs": [],
      "stateMutability": "nonpayable",
      "type": "function"
    },
    {
      "inputs": [
        {
          "internalType": "bytes32",
          "name": "role",
          "type": "bytes32"
        },
        {
          "internalType": "address",
          "name": "account",
          "type": "address"
        }
      ],
      "name": "renounceRole",
      "outputs": [],
      "stateMutability": "nonpayable",
      "type": "function"
    },
    {
      "inputs": [
        {
          "internalType": "bytes32",
          "name": "role",
          "type": "bytes32"
        },
        {
          "internalType": "address",
          "name": "account",
          "type": "address"
        }
      ],
      "name": "revokeRole",
      "outputs": [],
      "stateMutability": "nonpayable",
      "type": "function"
    },
    {
      "inputs": [
        {
          "internalType": "address",
          "name": "newCheckpointManager",
          "type": "address"
        }
      ],
      "name": "setCheckpointManager",
      "outputs": [],
      "stateMutability": "nonpayable",
      "type": "function"
    },
    {
      "inputs": [
        {
          "internalType": "address",
          "name": "newChildTunnel",
          "type": "address"
        }
      ],
      "name": "setChildTunnel",
      "outputs": [],
      "stateMutability": "nonpayable",
      "type": "function"
    },
    {
      "inputs": [
        {
          "internalType": "address",
          "name": "newStateSender",
          "type": "address"
        }
      ],
      "name": "setStateSender",
      "outputs": [],
      "stateMutability": "nonpayable",
      "type": "function"
    },
    {
      "inputs": [],
      "name": "stateSender",
      "outputs": [
        {
          "internalType": "contract IStateSender",
          "name": "",
          "type": "address"
        }
      ],
      "stateMutability": "view",
      "type": "function"
    }
  ],
  "bytecode": "0x60806040526200001a6000336001600160e01b036200005516565b60408051808201909152600a815269149bdbdd151d5b9b995b60b21b60208201526200004f906001600160e01b036200006e16565b620002d2565b6200006a82826001600160e01b036200011016565b5050565b806040516020018082805190602001908083835b60208310620000a35780518252601f19909201916020918201910162000082565b51815160209384036101000a60001901801990921691161790527f3a20494e53554646494349454e545f5045524d495353494f4e530000000000009190930190815260408051808303600519018152601a909201905280516200006a955060019450920191905062000230565b6000828152602081815260409091206200013591839062000d9c62000192821b17901c565b156200006a576200014e6001600160e01b03620001bb16565b6001600160a01b0316816001600160a01b0316837f2f8788117e7eff1d82e926ec794901d17c78024a50270940304540a733656f0d60405160405180910390a45050565b6000620001b2836001600160a01b0384166001600160e01b03620001c016565b90505b92915050565b335b90565b6000620001d783836001600160e01b036200021816565b6200020f57508154600181810184556000848152602080822090930184905584548482528286019093526040902091909155620001b5565b506000620001b5565b60009081526001919091016020526040902054151590565b828054600181600116156101000203166002900490600052602060002090601f016020900481019282601f106200027357805160ff1916838001178555620002a3565b82800160010185558215620002a3579182015b82811115620002a357825182559160200191906001019062000286565b50620002b1929150620002b5565b5090565b620001bd91905b80821115620002b15760008155600101620002bc565b61217980620002e26000396000f3fe608060405234801561001057600080fd5b506004361061010b5760003560e01c806391d14854116100a2578063ca02b26711610071578063ca02b267146102a1578063ca15c873146102c7578063cb10f94c146102e4578063d547741f146102ec578063f953cec7146103185761010b565b806391d148541461023f578063a217fddf1461026b578063bc08452b14610273578063c0857ba0146102995761010b565b8063607f2d42116100de578063607f2d42146101a15780636cb136b0146101d25780636d6aa34d146101f85780639010d07c1461021c5761010b565b80630e387de614610110578063248a9ca31461012a5780632f2ff15d1461014757806336568abe14610175575b600080fd5b610118610388565b60408051918252519081900360200190f35b6101186004803603602081101561014057600080fd5b50356103ac565b6101736004803603604081101561015d57600080fd5b50803590602001356001600160a01b03166103c4565b005b6101736004803603604081101561018b57600080fd5b50803590602001356001600160a01b0316610430565b6101be600480360360208110156101b757600080fd5b5035610491565b604080519115158252519081900360200190f35b610173600480360360208110156101e857600080fd5b50356001600160a01b03166104a6565b6102006105d3565b604080516001600160a01b039092168252519081900360200190f35b6102006004803603604081101561023257600080fd5b50803590602001356105e2565b6101be6004803603604081101561025557600080fd5b50803590602001356001600160a01b0316610609565b610118610627565b6101736004803603602081101561028957600080fd5b50356001600160a01b031661062c565b610200610709565b610173600480360360208110156102b757600080fd5b50356001600160a01b0316610718565b610118600480360360208110156102dd57600080fd5b50356107f5565b61020061080c565b6101736004803603604081101561030257600080fd5b50803590602001356001600160a01b031661081b565b6101736004803603602081101561032e57600080fd5b81019060208101813564010000000081111561034957600080fd5b82018360208201111561035b57600080fd5b8035906020019184600183028401116401000000008311171561037d57600080fd5b509092509050610874565b7f8c5261668696ce22758910d05bab8f186d6eb247ceac2af2e82c7dc17669b03681565b6000818152602081905260409020600201545b919050565b6000828152602081905260409020600201546103e7906103e26108c5565b610609565b6104225760405162461bcd60e51b815260040180806020018281038252602f815260200180612025602f913960400191505060405180910390fd5b61042c82826108c9565b5050565b6104386108c5565b6001600160a01b0316816001600160a01b0316146104875760405162461bcd60e51b815260040180806020018281038252602f8152602001806120ed602f913960400191505060405180910390fd5b61042c8282610938565b60056020526000908152604090205460ff1681565b60006104b4816103e26108c5565b6001906105545760405162461bcd60e51b81526020600482019081528254600260001961010060018416150201909116046024830181905290918291604490910190849080156105455780601f1061051a57610100808354040283529160200191610545565b820191906000526020600020905b81548152906001019060200180831161052857829003601f168201915b50509250505060405180910390fd5b506001600160a01b0382166105b0576040805162461bcd60e51b815260206004820181905260248201527f526f6f7454756e6e656c3a204241445f4e45575f53544154455f53454e444552604482015290519081900360640190fd5b50600280546001600160a01b0319166001600160a01b0392909216919091179055565b6004546001600160a01b031681565b6000828152602081905260408120610600908363ffffffff6109a716565b90505b92915050565b6000828152602081905260408120610600908363ffffffff6109b316565b600081565b600061063a816103e26108c5565b6001906106a05760405162461bcd60e51b81526020600482019081528254600260001961010060018416150201909116046024830181905290918291604490910190849080156105455780601f1061051a57610100808354040283529160200191610545565b506001600160a01b0382166106e65760405162461bcd60e51b81526004018080602001828103825260268152602001806120546026913960400191505060405180910390fd5b50600380546001600160a01b0319166001600160a01b0392909216919091179055565b6003546001600160a01b031681565b6000610726816103e26108c5565b60019061078c5760405162461bcd60e51b81526020600482019081528254600260001961010060018416150201909116046024830181905290918291604490910190849080156105455780601f1061051a57610100808354040283529160200191610545565b506001600160a01b0382166107d25760405162461bcd60e51b815260040180806020018281038252602881526020018061211c6028913960400191505060405180910390fd5b50600480546001600160a01b0319166001600160a01b0392909216919091179055565b6000818152602081905260408120610603906109c8565b6002546001600160a01b031681565b600082815260208190526040902060020154610839906103e26108c5565b6104875760405162461bcd60e51b815260040180806020018281038252603081526020018061207a6030913960400191505060405180910390fd5b60606108b583838080601f0160208091040260200160405190810160405280939291908181526020018383808284376000920191909152506109d392505050565b90506108c081610d99565b505050565b3390565b60008281526020819052604090206108e7908263ffffffff610d9c16565b1561042c576108f46108c5565b6001600160a01b0316816001600160a01b0316837f2f8788117e7eff1d82e926ec794901d17c78024a50270940304540a733656f0d60405160405180910390a45050565b6000828152602081905260409020610956908263ffffffff610db116565b1561042c576109636108c5565b6001600160a01b0316816001600160a01b0316837ff6391f5c32d9c69d2a47ea670b442974b53935d1edc7fd64eb21e047a839171b60405160405180910390a45050565b60006106008383610dc6565b6000610600836001600160a01b038416610e2a565b600061060382610e42565b60606109dd611f94565b6109e683610e46565b905060606109f382610e76565b90506000610a0083610e99565b610a0983610ebc565b610a128561102f565b6040516020018084815260200183805190602001908083835b60208310610a4a5780518252601f199092019160209182019101610a2b565b51815160209384036101000a6000190180199092169116179052920193845250604080518085038152938201815283519382019390932060008181526005909252929020549194505060ff16159150610ad690505760405162461bcd60e51b81526004018080602001828103825260228152602001806120aa6022913960400191505060405180910390fd5b6000818152600560205260409020805460ff19166001179055610af7611fa7565b610b0084611045565b9050610b0a611fc8565b610b138261112f565b9050610b1e8161119c565b6004546001600160a01b03908116911614610b80576040805162461bcd60e51b815260206004820181905260248201527f526f6f7454756e6e656c3a20494e56414c49445f4348494c445f54554e4e454c604482015290519081900360640190fd5b610ba4610b8c836111bf565b85610b96886111c6565b610b9f896111dc565b6111f2565b610bdf5760405162461bcd60e51b81526004018080602001828103825260218152602001806120cc6021913960400191505060405180910390fd5b610c1d610beb86610e99565b610bf48761143d565b610bfd88611453565b610c06896111dc565b610c0f8a611469565b610c188b61147f565b611495565b610c25611f94565b610c2e826115d2565b90507f8c5261668696ce22758910d05bab8f186d6eb247ceac2af2e82c7dc17669b036610c6a610c6583600063ffffffff61160116565b611627565b14610cbc576040805162461bcd60e51b815260206004820152601d60248201527f526f6f7454756e6e656c3a20494e56414c49445f5349474e4154555245000000604482015290519081900360640190fd5b6060610cc783611674565b8060200190516020811015610cdb57600080fd5b8101908080516040519392919084640100000000821115610cfb57600080fd5b908301906020820185811115610d1057600080fd5b8251640100000000811182820188101715610d2a57600080fd5b82525081516020918201929091019080838360005b83811015610d57578181015183820152602001610d3f565b50505050905090810190601f168015610d845780820380516001836020036101000a031916815260200191505b5060405250919b9a5050505050505050505050565b50565b6000610600836001600160a01b03841661168a565b6000610600836001600160a01b0384166116d4565b81546000908210610e085760405162461bcd60e51b81526004018080602001828103825260228152602001806120036022913960400191505060405180910390fd5b826000018281548110610e1757fe5b9060005260206000200154905092915050565b60009081526001919091016020526040902054151590565b5490565b610e4e611f94565b6060610e61610e5c8461179a565b6117bf565b60408051602081019091529081529392505050565b60606106038260000151600881518110610e8c57fe5b60200260200101516118a7565b60006106038260000151600281518110610eaf57fe5b6020026020010151611627565b6040805160208101909152600081528151606091901561060357600080610ee4600086611924565b60f81c90506001811480610efb57508060ff166003145b15610f8a57600185516002020367ffffffffffffffff81118015610f1e57600080fd5b506040519080825280601f01601f191660200182016040528015610f49576020820181803683370190505b5092506000610f59600187611924565b90508084600081518110610f6957fe5b60200101906001600160f81b031916908160001a9053506001925050610fdb565b600285516002020367ffffffffffffffff81118015610fa857600080fd5b506040519080825280601f01601f191660200182016040528015610fd3576020820181803683370190505b509250600091505b60ff82165b835181101561102657610ffb8360ff16820360020187611924565b84828151811061100757fe5b60200101906001600160f81b031916908160001a905350600101610fe0565b50505092915050565b60006106038260000151600981518110610eaf57fe5b61104d611fa7565b6110618260000151600681518110610e8c57fe5b602082015261106e611fe8565b61107b826020015161179a565b905061108681611981565b1561109b57611094816117bf565b825261111b565b602082015180516060906000190167ffffffffffffffff811180156110bf57600080fd5b506040519080825280601f01601f1916602001820160405280156110ea576020820181803683370190505b509050600080836021019150826020019050611108828285516119bb565b611114610e5c8461179a565b8652505050505b6111248361102f565b604083015250919050565b611137611fc8565b61113f611fe8565b611160836000015160038151811061115357fe5b60200260200101516117bf565b83604001518151811061116f57fe5b602002602001015190506040518060400160405280828152602001611193836117bf565b90529392505050565b600061060382602001516000815181106111b257fe5b6020026020010151611a06565b6020015190565b60606106038260000151600781518110610e8c57fe5b60006106038260000151600581518110610eaf57fe5b60006111fc611fe8565b6112058461179a565b90506060611212826117bf565b9050606080856000826112248b610ebc565b9050805160001415611240576000975050505050505050611435565b60005b865181101561142857815183111561126657600098505050505050505050611435565b61128287828151811061127557fe5b6020026020010151611a20565b9550858051906020012084146112a357600098505050505050505050611435565b6112b287828151811061115357fe5b945084516011141561136f57815183141561130e578c805190602001206112df86601081518110610e8c57fe5b8051906020012014156112fd57600198505050505050505050611435565b600098505050505050505050611435565b600082848151811061131c57fe5b016020015160f81c905060108111156113415760009950505050505050505050611435565b611360868260ff168151811061135357fe5b6020026020010151611a9f565b94505060019290920191611420565b8451600214156112fd57600061139561138e87600081518110610e8c57fe5b8486611abc565b9050825181850114156113eb578d805190602001206113ba87600181518110610e8c57fe5b8051906020012014156113d95760019950505050505050505050611435565b60009950505050505050505050611435565b806114025760009950505050505050505050611435565b80840193506114178660018151811061135357fe5b94506114209050565b600101611243565b5060009750505050505050505b949350505050565b60006106038260000151600381518110610eaf57fe5b60006106038260000151600481518110610eaf57fe5b60006106038260000151600081518110610eaf57fe5b60606106038260000151600181518110610e8c57fe5b600354604080516320a9cea560e11b815260048101859052905160009283926001600160a01b03909116916341539d4a9160248082019260a092909190829003018186803b1580156114e657600080fd5b505afa1580156114fa573d6000803e3d6000fd5b505050506040513d60a081101561151057600080fd5b5080516020909101519092509050611577611531898363ffffffff611b9b16565b6040805160208082018d90528183018c9052606082018b905260808083018b90528351808403909101815260a0909201909252805191012090848663ffffffff611bdd16565b6115c8576040805162461bcd60e51b815260206004820152601a60248201527f526f6f7454756e6e656c3a20494e56414c49445f484541444552000000000000604482015290519081900360640190fd5b5050505050505050565b6115da611f94565b60405180602001604052806115f9846020015160018151811061115357fe5b905292915050565b611609611fe8565b825180518390811061161757fe5b6020026020010151905092915050565b80516000901580159061163c57508151602110155b61164557600080fd5b60008061165184611d33565b8151919350915060208210156114355760208290036101000a9004949350505050565b60606106038260200151600281518110610e8c57fe5b60006116968383610e2a565b6116cc57508154600181810184556000848152602080822090930184905584548482528286019093526040902091909155610603565b506000610603565b60008181526001830160205260408120548015611790578354600019808301919081019060009087908390811061170757fe5b906000526020600020015490508087600001848154811061172457fe5b60009182526020808320909101929092558281526001898101909252604090209084019055865487908061175457fe5b60019003818190600052602060002001600090559055866001016000878152602001908152602001600020600090556001945050505050610603565b6000915050610603565b6117a2611fe8565b506040805180820190915281518152602082810190820152919050565b60606117ca82611981565b6117d357600080fd5b60006117de83611d59565b905060608167ffffffffffffffff811180156117f957600080fd5b5060405190808252806020026020018201604052801561183357816020015b611820611fe8565b8152602001906001900390816118185790505b50905060006118458560200151611db5565b60208601510190506000805b8481101561189c5761186283611e18565b915060405180604001604052808381526020018481525084828151811061188557fe5b602090810291909101015291810191600101611851565b509195945050505050565b80516060906118b557600080fd5b6000806118c184611d33565b9150915060608167ffffffffffffffff811180156118de57600080fd5b506040519080825280601f01601f191660200182016040528015611909576020820181803683370190505b5090506020810161191b848285611eac565b50949350505050565b6000600283061561195557601082600285048151811061194057fe5b016020015160f81c8161194f57fe5b06611977565b601082600285048151811061196657fe5b016020015160f81c8161197557fe5b045b60f81b9392505050565b8051600090611992575060006103bf565b6020820151805160001a9060c08210156119b1576000925050506103bf565b5060019392505050565b806119c5576108c0565b5b602081106119e5578251825260209283019290910190601f19016119c6565b915181516020939093036101000a6000190180199091169216919091179052565b8051600090601514611a1757600080fd5b61060382611627565b606080826000015167ffffffffffffffff81118015611a3e57600080fd5b506040519080825280601f01601f191660200182016040528015611a69576020820181803683370190505b509050805160001415611a7d5790506103bf565b6000816020019050611a988460200151828660000151611eac565b5092915050565b8051600090602114611ab057600080fd5b50602001516001015190565b6000806060611aca86610ebc565b90506060815167ffffffffffffffff81118015611ae657600080fd5b506040519080825280601f01601f191660200182016040528015611b11576020820181803683370190505b509050845b82518601811015611b6b576000878281518110611b2f57fe5b602001015160f81c60f81b9050808388840381518110611b4b57fe5b60200101906001600160f81b031916908160001a90535050600101611b16565b50808051906020012082805190602001201415611b8b5781519250611b90565b600092505b509095945050505050565b600061060083836040518060400160405280601e81526020017f536166654d6174683a207375627472616374696f6e206f766572666c6f770000815250611efd565b60006020825181611bea57fe5b0615611c34576040805162461bcd60e51b8152602060048201526014602482015273092dcecc2d8d2c840e0e4dedecc40d8cadccee8d60631b604482015290519081900360640190fd5b60006020835181611c4157fe5b0490508060020a8510611c93576040805162461bcd60e51b81526020600482015260156024820152744c65616620696e64657820697320746f6f2062696760581b604482015290519081900360640190fd5b60008660205b85518111611d255785810151925060028806611ce55781836040516020018083815260200182815260200192505050604051602081830303815290604052805190602001209150611d17565b828260405160200180838152602001828152602001925050506040516020818303038152906040528051906020012091505b600288049750602001611c99565b509094149695505050505050565b6000806000611d458460200151611db5565b602085015194519481019594039392505050565b8051600090611d6a575060006103bf565b60008090506000611d7e8460200151611db5565b602085015185519181019250015b80821015611dac57611d9d82611e18565b60019093019290910190611d8c565b50909392505050565b8051600090811a6080811015611dcf5760009150506103bf565b60b8811080611dea575060c08110801590611dea575060f881105b15611df95760019150506103bf565b60c0811015611e0d5760b5190190506103bf565b60f5190190506103bf565b80516000908190811a6080811015611e335760019150611a98565b60b8811015611e4857607e1981019150611a98565b60c0811015611e755760b78103600185019450806020036101000a85510460018201810193505050611a98565b60f8811015611e8a5760be1981019150611a98565b60019390930151602084900360f7016101000a900490920160f5190192915050565b80611eb6576108c0565b5b60208110611ed6578251825260209283019290910190601f1901611eb7565b80156108c057915181516020939093036101000a6000190180199091169216919091179052565b60008184841115611f8c5760405162461bcd60e51b81526004018080602001828103825283818151815260200191508051906020019080838360005b83811015611f51578181015183820152602001611f39565b50505050905090810190601f168015611f7e5780820380516001836020036101000a031916815260200191505b509250505060405180910390fd5b505050900390565b6040518060200160405280606081525090565b60405180606001604052806060815260200160608152602001600081525090565b6040518060400160405280611fdb611fe8565b8152602001606081525090565b60405180604001604052806000815260200160008152509056fe456e756d657261626c655365743a20696e646578206f7574206f6620626f756e6473416363657373436f6e74726f6c3a2073656e646572206d75737420626520616e2061646d696e20746f206772616e74526f6f7454756e6e656c3a204241445f4e45575f434845434b504f494e545f4d414e41474552416363657373436f6e74726f6c3a2073656e646572206d75737420626520616e2061646d696e20746f207265766f6b65526f6f7454756e6e656c3a20455849545f414c52454144595f50524f434553534544526f6f7454756e6e656c3a20494e56414c49445f524543454950545f50524f4f46416363657373436f6e74726f6c3a2063616e206f6e6c792072656e6f756e636520726f6c657320666f722073656c66526f6f7454756e6e656c3a20494e56414c49445f4348494c445f54554e4e454c5f41444452455353a264697066735822122062364597e39aaa530f66b25abb3b66464a05cabdd5e882b7f154ce27e067379d64736f6c63430006060033",
  "linkReferences": {},
  "deployedLinkReferences": {}
}