{
  "_format": "hh-sol-artifact-1",
  "contractName": "RootTunnel",
  "sourceName": "contracts/tunnel/RootTunnel.sol",
  "abi": [
    {
      "anonymous": false,
      "inputs": [
        {
          "indexed": true,
          "internalType": "bytes32",
          "name": "role",
          "type": "bytes32"
        },
        {
          "indexed": true,
          "internalType": "bytes32",
          "name": "previousAdminRole",
          "type": "bytes32"
        },
        {
          "indexed": true,
          "internalType": "bytes32",
          "name": "newAdminRole",
          "type": "bytes32"
        }
      ],
      "name": "RoleAdminChanged",
      "type": "event"
    },
    {
      "anonymous": false,
      "inputs": [
        {
          "indexed": true,
          "internalType": "bytes32",
          "name": "role",
          "type": "bytes32"
        },
        {
          "indexed": true,
          "internalType": "address",
          "name": "account",
          "type": "address"
        },
        {
          "indexed": true,
          "internalType": "address",
          "name": "sender",
          "type": "address"
        }
      ],
      "name": "RoleGranted",
      "type": "event"
    },
    {
      "anonymous": false,
      "inputs": [
        {
          "indexed": true,
          "internalType": "bytes32",
          "name": "role",
          "type": "bytes32"
        },
        {
          "indexed": true,
          "internalType": "address",
          "name": "account",
          "type": "address"
        },
        {
          "indexed": true,
          "internalType": "address",
          "name": "sender",
          "type": "address"
        }
      ],
      "name": "RoleRevoked",
      "type": "event"
    },
    {
      "inputs": [],
      "name": "DEFAULT_ADMIN_ROLE",
      "outputs": [
        {
          "internalType": "bytes32",
          "name": "",
          "type": "bytes32"
        }
      ],
      "stateMutability": "view",
      "type": "function"
    },
    {
      "inputs": [],
      "name": "SEND_MESSAGE_EVENT_SIG",
      "outputs": [
        {
          "internalType": "bytes32",
          "name": "",
          "type": "bytes32"
        }
      ],
      "stateMutability": "view",
      "type": "function"
    },
    {
      "inputs": [],
      "name": "checkpointManager",
      "outputs": [
        {
          "internalType": "contract ICheckpointManager",
          "name": "",
          "type": "address"
        }
      ],
      "stateMutability": "view",
      "type": "function"
    },
    {
      "inputs": [],
      "name": "childTunnel",
      "outputs": [
        {
          "internalType": "address",
          "name": "",
          "type": "address"
        }
      ],
      "stateMutability": "view",
      "type": "function"
    },
    {
      "inputs": [
        {
          "internalType": "bytes32",
          "name": "role",
          "type": "bytes32"
        }
      ],
      "name": "getRoleAdmin",
      "outputs": [
        {
          "internalType": "bytes32",
          "name": "",
          "type": "bytes32"
        }
      ],
      "stateMutability": "view",
      "type": "function"
    },
    {
      "inputs": [
        {
          "internalType": "bytes32",
          "name": "role",
          "type": "bytes32"
        },
        {
          "internalType": "uint256",
          "name": "index",
          "type": "uint256"
        }
      ],
      "name": "getRoleMember",
      "outputs": [
        {
          "internalType": "address",
          "name": "",
          "type": "address"
        }
      ],
      "stateMutability": "view",
      "type": "function"
    },
    {
      "inputs": [
        {
          "internalType": "bytes32",
          "name": "role",
          "type": "bytes32"
        }
      ],
      "name": "getRoleMemberCount",
      "outputs": [
        {
          "internalType": "uint256",
          "name": "",
          "type": "uint256"
        }
      ],
      "stateMutability": "view",
      "type": "function"
    },
    {
      "inputs": [
        {
          "internalType": "bytes32",
          "name": "role",
          "type": "bytes32"
        },
        {
          "internalType": "address",
          "name": "account",
          "type": "address"
        }
      ],
      "name": "grantRole",
      "outputs": [],
      "stateMutability": "nonpayable",
      "type": "function"
    },
    {
      "inputs": [
        {
          "internalType": "bytes32",
          "name": "role",
          "type": "bytes32"
        },
        {
          "internalType": "address",
          "name": "account",
          "type": "address"
        }
      ],
      "name": "hasRole",
      "outputs": [
        {
          "internalType": "bool",
          "name": "",
          "type": "bool"
        }
      ],
      "stateMutability": "view",
      "type": "function"
    },
    {
      "inputs": [
        {
          "internalType": "bytes32",
          "name": "",
          "type": "bytes32"
        }
      ],
      "name": "processedExits",
      "outputs": [
        {
          "internalType": "bool",
          "name": "",
          "type": "bool"
        }
      ],
      "stateMutability": "view",
      "type": "function"
    },
    {
      "inputs": [
        {
          "internalType": "bytes",
          "name": "inputData",
          "type": "bytes"
        }
      ],
      "name": "receiveMessage",
      "outputs": [],
      "stateMutability": "nonpayable",
      "type": "function"
    },
    {
      "inputs": [
        {
          "internalType": "bytes32",
          "name": "role",
          "type": "bytes32"
        },
        {
          "internalType": "address",
          "name": "account",
          "type": "address"
        }
      ],
      "name": "renounceRole",
      "outputs": [],
      "stateMutability": "nonpayable",
      "type": "function"
    },
    {
      "inputs": [
        {
          "internalType": "bytes32",
          "name": "role",
          "type": "bytes32"
        },
        {
          "internalType": "address",
          "name": "account",
          "type": "address"
        }
      ],
      "name": "revokeRole",
      "outputs": [],
      "stateMutability": "nonpayable",
      "type": "function"
    },
    {
      "inputs": [
        {
          "internalType": "address",
          "name": "newCheckpointManager",
          "type": "address"
        }
      ],
      "name": "setCheckpointManager",
      "outputs": [],
      "stateMutability": "nonpayable",
      "type": "function"
    },
    {
      "inputs": [
        {
          "internalType": "address",
          "name": "newChildTunnel",
          "type": "address"
        }
      ],
      "name": "setChildTunnel",
      "outputs": [],
      "stateMutability": "nonpayable",
      "type": "function"
    },
    {
      "inputs": [
        {
          "internalType": "address",
          "name": "newStateSender",
          "type": "address"
        }
      ],
      "name": "setStateSender",
      "outputs": [],
      "stateMutability": "nonpayable",
      "type": "function"
    },
    {
      "inputs": [],
      "name": "stateSender",
      "outputs": [
        {
          "internalType": "contract IStateSender",
          "name": "",
          "type": "address"
        }
      ],
      "stateMutability": "view",
      "type": "function"
    }
  ],
  "bytecode": "0x6080604052620000196000801b336200006560201b60201c565b6200005f6040518060400160405280600a81526020017f526f6f7454756e6e656c000000000000000000000000000000000000000000008152506200007b60201b60201c565b6200035a565b6200007782826200012b60201b60201c565b5050565b806040516020018082805190602001908083835b60208310620000b457805182526020820191506020810190506020830392506200008f565b6001836020036101000a038019825116818451168082178552505050505050905001807f3a20494e53554646494349454e545f5045524d495353494f4e53000000000000815250601a019150506040516020818303038152906040526001908051906020019062000127929190620002ab565b5050565b6200015981600080858152602001908152602001600020600001620001ce60201b620016901790919060201c565b15620001ca576200016f6200020660201b60201c565b73ffffffffffffffffffffffffffffffffffffffff168173ffffffffffffffffffffffffffffffffffffffff16837f2f8788117e7eff1d82e926ec794901d17c78024a50270940304540a733656f0d60405160405180910390a45b5050565b6000620001fe836000018373ffffffffffffffffffffffffffffffffffffffff1660001b6200020e60201b60201c565b905092915050565b600033905090565b60006200022283836200028860201b60201c565b6200027d57826000018290806001815401808255809150506001900390600052602060002001600090919091909150558260000180549050836001016000848152602001908152602001600020819055506001905062000282565b600090505b92915050565b600080836001016000848152602001908152602001600020541415905092915050565b828054600181600116156101000203166002900490600052602060002090601f016020900481019282601f10620002ee57805160ff19168380011785556200031f565b828001600101855582156200031f579182015b828111156200031e57825182559160200191906001019062000301565b5b5090506200032e919062000332565b5090565b6200035791905b808211156200035357600081600090555060010162000339565b5090565b90565b612fe0806200036a6000396000f3fe608060405234801561001057600080fd5b506004361061010b5760003560e01c806391d14854116100a2578063ca02b26711610071578063ca02b2671461046a578063ca15c873146104ae578063cb10f94c146104f0578063d547741f1461053a578063f953cec7146105885761010b565b806391d1485414610358578063a217fddf146103be578063bc08452b146103dc578063c0857ba0146104205761010b565b8063607f2d42116100de578063607f2d421461020c5780636cb136b0146102525780636d6aa34d146102965780639010d07c146102e05761010b565b80630e387de614610110578063248a9ca31461012e5780632f2ff15d1461017057806336568abe146101be575b600080fd5b610118610643565b6040518082815260200191505060405180910390f35b61015a6004803603602081101561014457600080fd5b810190808035906020019092919050505061066a565b6040518082815260200191505060405180910390f35b6101bc6004803603604081101561018657600080fd5b8101908080359060200190929190803573ffffffffffffffffffffffffffffffffffffffff169060200190929190505050610689565b005b61020a600480360360408110156101d457600080fd5b8101908080359060200190929190803573ffffffffffffffffffffffffffffffffffffffff169060200190929190505050610712565b005b6102386004803603602081101561022257600080fd5b81019080803590602001909291905050506107ab565b604051808215151515815260200191505060405180910390f35b6102946004803603602081101561026857600080fd5b81019080803573ffffffffffffffffffffffffffffffffffffffff1690602001909291905050506107cb565b005b61029e61098e565b604051808273ffffffffffffffffffffffffffffffffffffffff1673ffffffffffffffffffffffffffffffffffffffff16815260200191505060405180910390f35b610316600480360360408110156102f657600080fd5b8101908080359060200190929190803590602001909291905050506109b4565b604051808273ffffffffffffffffffffffffffffffffffffffff1673ffffffffffffffffffffffffffffffffffffffff16815260200191505060405180910390f35b6103a46004803603604081101561036e57600080fd5b8101908080359060200190929190803573ffffffffffffffffffffffffffffffffffffffff1690602001909291905050506109e5565b604051808215151515815260200191505060405180910390f35b6103c6610a16565b6040518082815260200191505060405180910390f35b61041e600480360360208110156103f257600080fd5b81019080803573ffffffffffffffffffffffffffffffffffffffff169060200190929190505050610a1d565b005b610428610bc3565b604051808273ffffffffffffffffffffffffffffffffffffffff1673ffffffffffffffffffffffffffffffffffffffff16815260200191505060405180910390f35b6104ac6004803603602081101561048057600080fd5b81019080803573ffffffffffffffffffffffffffffffffffffffff169060200190929190505050610be9565b005b6104da600480360360208110156104c457600080fd5b8101908080359060200190929190505050610d8f565b6040518082815260200191505060405180910390f35b6104f8610db5565b604051808273ffffffffffffffffffffffffffffffffffffffff1673ffffffffffffffffffffffffffffffffffffffff16815260200191505060405180910390f35b6105866004803603604081101561055057600080fd5b8101908080359060200190929190803573ffffffffffffffffffffffffffffffffffffffff169060200190929190505050610ddb565b005b6106416004803603602081101561059e57600080fd5b81019080803590602001906401000000008111156105bb57600080fd5b8201836020820111156105cd57600080fd5b803590602001918460018302840111640100000000831117156105ef57600080fd5b91908080601f016020809104026020016040519081016040528093929190818152602001838380828437600081840152601f19601f820116905080830192505050505050509192919290505050610e64565b005b7f8c5261668696ce22758910d05bab8f186d6eb247ceac2af2e82c7dc17669b03660001b81565b6000806000838152602001908152602001600020600201549050919050565b6106af600080848152602001908152602001600020600201546106aa610e7e565b6109e5565b610704576040517f08c379a000000000000000000000000000000000000000000000000000000000815260040180806020018281038252602f815260200180612d78602f913960400191505060405180910390fd5b61070e8282610e86565b5050565b61071a610e7e565b73ffffffffffffffffffffffffffffffffffffffff168173ffffffffffffffffffffffffffffffffffffffff161461079d576040517f08c379a000000000000000000000000000000000000000000000000000000000815260040180806020018281038252602f815260200180612f0c602f913960400191505060405180910390fd5b6107a78282610f19565b5050565b60056020528060005260406000206000915054906101000a900460ff1681565b6000801b6107e0816107db610e7e565b6109e5565b6001906108a5576040517f08c379a000000000000000000000000000000000000000000000000000000000815260040180806020018281038252838181546001816001161561010002031660029004815260200191508054600181600116156101000203166002900480156108965780601f1061086b57610100808354040283529160200191610896565b820191906000526020600020905b81548152906001019060200180831161087957829003601f168201915b50509250505060405180910390fd5b50600073ffffffffffffffffffffffffffffffffffffffff168273ffffffffffffffffffffffffffffffffffffffff161415610949576040517f08c379a00000000000000000000000000000000000000000000000000000000081526004018080602001828103825260208152602001807f526f6f7454756e6e656c3a204241445f4e45575f53544154455f53454e44455281525060200191505060405180910390fd5b81600260006101000a81548173ffffffffffffffffffffffffffffffffffffffff021916908373ffffffffffffffffffffffffffffffffffffffff1602179055505050565b600460009054906101000a900473ffffffffffffffffffffffffffffffffffffffff1681565b60006109dd82600080868152602001908152602001600020600001610fac90919063ffffffff16565b905092915050565b6000610a0e82600080868152602001908152602001600020600001610fc690919063ffffffff16565b905092915050565b6000801b81565b6000801b610a3281610a2d610e7e565b6109e5565b600190610af7576040517f08c379a00000000000000000000000000000000000000000000000000000000081526004018080602001828103825283818154600181600116156101000203166002900481526020019150805460018160011615610100020316600290048015610ae85780601f10610abd57610100808354040283529160200191610ae8565b820191906000526020600020905b815481529060010190602001808311610acb57829003601f168201915b50509250505060405180910390fd5b50600073ffffffffffffffffffffffffffffffffffffffff168273ffffffffffffffffffffffffffffffffffffffff161415610b7e576040517f08c379a0000000000000000000000000000000000000000000000000000000008152600401808060200182810382526026815260200180612da76026913960400191505060405180910390fd5b81600360006101000a81548173ffffffffffffffffffffffffffffffffffffffff021916908373ffffffffffffffffffffffffffffffffffffffff1602179055505050565b600360009054906101000a900473ffffffffffffffffffffffffffffffffffffffff1681565b6000801b610bfe81610bf9610e7e565b6109e5565b600190610cc3576040517f08c379a00000000000000000000000000000000000000000000000000000000081526004018080602001828103825283818154600181600116156101000203166002900481526020019150805460018160011615610100020316600290048015610cb45780601f10610c8957610100808354040283529160200191610cb4565b820191906000526020600020905b815481529060010190602001808311610c9757829003601f168201915b50509250505060405180910390fd5b50600073ffffffffffffffffffffffffffffffffffffffff168273ffffffffffffffffffffffffffffffffffffffff161415610d4a576040517f08c379a0000000000000000000000000000000000000000000000000000000008152600401808060200182810382526028815260200180612f836028913960400191505060405180910390fd5b81600460006101000a81548173ffffffffffffffffffffffffffffffffffffffff021916908373ffffffffffffffffffffffffffffffffffffffff1602179055505050565b6000610dae600080848152602001908152602001600020600001610ff6565b9050919050565b600260009054906101000a900473ffffffffffffffffffffffffffffffffffffffff1681565b610e0160008084815260200190815260200160002060020154610dfc610e7e565b6109e5565b610e56576040517f08c379a0000000000000000000000000000000000000000000000000000000008152600401808060200182810382526030815260200180612df56030913960400191505060405180910390fd5b610e608282610f19565b5050565b6060610e6f8261100b565b9050610e7a8161168d565b5050565b600033905090565b610ead8160008085815260200190815260200160002060000161169090919063ffffffff16565b15610f1557610eba610e7e565b73ffffffffffffffffffffffffffffffffffffffff168173ffffffffffffffffffffffffffffffffffffffff16837f2f8788117e7eff1d82e926ec794901d17c78024a50270940304540a733656f0d60405160405180910390a45b5050565b610f40816000808581526020019081526020016000206000016116c090919063ffffffff16565b15610fa857610f4d610e7e565b73ffffffffffffffffffffffffffffffffffffffff168173ffffffffffffffffffffffffffffffffffffffff16837ff6391f5c32d9c69d2a47ea670b442974b53935d1edc7fd64eb21e047a839171b60405160405180910390a45b5050565b6000610fbb83600001836116f0565b60001c905092915050565b6000610fee836000018373ffffffffffffffffffffffffffffffffffffffff1660001b611773565b905092915050565b600061100482600001611796565b9050919050565b60608061101f61101a846117a7565b61184c565b905060006110408260028151811061103357fe5b6020026020010151611a17565b6110656110608460088151811061105357fe5b6020026020010151611bcc565b611ccc565b6110828460098151811061107557fe5b6020026020010151611a17565b6040516020018084815260200183805190602001908083835b602083106110be578051825260208201915060208101905060208303925061109b565b6001836020036101000a0380198251168184511680821785525050505050509050018281526020019350505050604051602081830303815290604052805190602001209050600015156005600083815260200190815260200160002060009054906101000a900460ff16151514611180576040517f08c379a0000000000000000000000000000000000000000000000000000000008152600401808060200182810382526022815260200180612e746022913960400191505060405180910390fd5b60016005600083815260200190815260200160002060006101000a81548160ff02191690831515021790555060606111db6111d66111d1856006815181106111c457fe5b6020026020010151611bcc565b6117a7565b61184c565b90506111e5612d16565b611202826003815181106111f557fe5b602002602001015161184c565b61121f8560098151811061121257fe5b6020026020010151611a17565b8151811061122957fe5b60200260200101519050606061123e8261184c565b905061125d8160008151811061125057fe5b6020026020010151611e93565b73ffffffffffffffffffffffffffffffffffffffff16600460009054906101000a900473ffffffffffffffffffffffffffffffffffffffff1673ffffffffffffffffffffffffffffffffffffffff161461131f576040517f08c379a00000000000000000000000000000000000000000000000000000000081526004018080602001828103825260208152602001807f526f6f7454756e6e656c3a20494e56414c49445f4348494c445f54554e4e454c81525060200191505060405180910390fd5b61139e61133f8660068151811061133257fe5b6020026020010151611bcc565b61135c8760088151811061134f57fe5b6020026020010151611bcc565b6113798860078151811061136c57fe5b6020026020010151611bcc565b6113968960058151811061138957fe5b6020026020010151611a17565b60001b611f61565b6113f3576040517f08c379a0000000000000000000000000000000000000000000000000000000008152600401808060200182810382526021815260200180612e966021913960400191505060405180910390fd5b6114af6114138660028151811061140657fe5b6020026020010151611a17565b6114308760038151811061142357fe5b6020026020010151611a17565b61144d8860048151811061144057fe5b6020026020010151611a17565b60001b61146d8960058151811061146057fe5b6020026020010151611a17565b60001b61148d8a60008151811061148057fe5b6020026020010151611a17565b6114aa8b60018151811061149d57fe5b6020026020010151611bcc565b61221c565b5060606114cf826001815181106114c257fe5b602002602001015161184c565b90507f8c5261668696ce22758910d05bab8f186d6eb247ceac2af2e82c7dc17669b03660001b6115128260008151811061150557fe5b6020026020010151611a17565b60001b14611588576040517f08c379a000000000000000000000000000000000000000000000000000000000815260040180806020018281038252601d8152602001807f526f6f7454756e6e656c3a20494e56414c49445f5349474e415455524500000081525060200191505060405180910390fd5b60606115a78360028151811061159a57fe5b6020026020010151611bcc565b905060608180602001905160208110156115c057600080fd5b81019080805160405193929190846401000000008211156115e057600080fd5b838201915060208201858111156115f657600080fd5b825186600182028301116401000000008211171561161357600080fd5b8083526020830192505050908051906020019080838360005b8381101561164757808201518184015260208101905061162c565b50505050905090810190601f1680156116745780820380516001836020036101000a031916815260200191505b5060405250505090508098505050505050505050919050565b50565b60006116b8836000018373ffffffffffffffffffffffffffffffffffffffff1660001b6123e9565b905092915050565b60006116e8836000018373ffffffffffffffffffffffffffffffffffffffff1660001b612459565b905092915050565b600081836000018054905011611751576040517f08c379a0000000000000000000000000000000000000000000000000000000008152600401808060200182810382526022815260200180612d316022913960400191505060405180910390fd5b82600001828154811061176057fe5b9060005260206000200154905092915050565b600080836001016000848152602001908152602001600020541415905092915050565b600081600001805490509050919050565b6117af612d16565b6000825111611826576040517f08c379a000000000000000000000000000000000000000000000000000000000815260040180806020018281038252601f8152602001807f524c505265616465723a20494e56414c49445f42595445535f4c454e4754480081525060200191505060405180910390fd5b600060208301905060405180604001604052808451815260200182815250915050919050565b606061185782612541565b6118c9576040517f08c379a00000000000000000000000000000000000000000000000000000000081526004018080602001828103825260188152602001807f524c505265616465723a204954454d5f4e4f545f4c495354000000000000000081525060200191505060405180910390fd5b60006118d48361257a565b905060608167ffffffffffffffff811180156118ef57600080fd5b5060405190808252806020026020018201604052801561192957816020015b611916612d16565b81526020019060019003908161190e5790505b509050600061193b856020015161262e565b905084600001518114611999576040517f08c379a0000000000000000000000000000000000000000000000000000000008152600401808060200182810382526027815260200180612eb76027913960400191505060405180910390fd5b60006119a886602001516126e6565b8660200151019050600080600090505b85811015611a09576119c98361262e565b91506040518060400160405280838152602001848152508582815181106119ec57fe5b6020026020010181905250818301925080806001019150506119b8565b508395505050505050919050565b6000611a2282612541565b15611a95576040517f08c379a00000000000000000000000000000000000000000000000000000000081526004018080602001828103825260208152602001807f524c505265616465723a204445434f44494e475f4c4953545f41535f55494e5481525060200191505060405180910390fd5b602182600001511115611b10576040517f08c379a000000000000000000000000000000000000000000000000000000000815260040180806020018281038252601e8152602001807f524c505265616465723a20494e56414c49445f55494e545f4c454e475448000081525060200191505060405180910390fd5b6000611b1f836020015161262e565b905082600001518114611b7d576040517f08c379a0000000000000000000000000000000000000000000000000000000008152600401808060200182810382526027815260200180612f3b6027913960400191505060405180910390fd5b6000611b8c84602001516126e6565b90506000818560000151039050600080838760200151019050805191506020831015611bbf57826020036101000a820491505b8195505050505050919050565b60606000611bdd836020015161262e565b905082600001518114611c3b576040517f08c379a0000000000000000000000000000000000000000000000000000000008152600401808060200182810382526028815260200180612dcd6028913960400191505060405180910390fd5b6000611c4a84602001516126e6565b9050600081856000015103905060608167ffffffffffffffff81118015611c7057600080fd5b506040519080825280601f01601f191660200182016040528015611ca35781602001600182028036833780820191505090505b5090506000816020019050611cbf84886020015101828561276f565b8195505050505050919050565b606080604051806020016040528060008152509050600083511115611e8a57600080611cf96000866127d6565b60f81c905060018160ff161480611d13575060038160ff16145b15611dc257600160028651020367ffffffffffffffff81118015611d3657600080fd5b506040519080825280601f01601f191660200182016040528015611d695781602001600182028036833780820191505090505b5092506000611d796001876127d6565b90508084600081518110611d8957fe5b60200101907effffffffffffffffffffffffffffffffffffffffffffffffffffffffffffff1916908160001a9053506001925050611e1a565b6002808651020367ffffffffffffffff81118015611ddf57600080fd5b506040519080825280601f01601f191660200182016040528015611e125781602001600182028036833780820191505090505b509250600091505b60008260ff1690505b8351811015611e8657611e3e60028460ff16830301876127d6565b848281518110611e4a57fe5b60200101907effffffffffffffffffffffffffffffffffffffffffffffffffffffffffffff1916908160001a9053508080600101915050611e23565b5050505b80915050919050565b6000611e9e82612541565b15611ef4576040517f08c379a0000000000000000000000000000000000000000000000000000000008152600401808060200182810382526023815260200180612e516023913960400191505060405180910390fd5b6015826000015114611f51576040517f08c379a0000000000000000000000000000000000000000000000000000000008152600401808060200182810382526021815260200180612f626021913960400191505060405180910390fd5b611f5a82611a17565b9050919050565b6000611f6b612d16565b611f74846117a7565b90506060611f818261184c565b9050606080600086905060008090506060611f9b8b611ccc565b9050600081511415611fb7576000975050505050505050612214565b60008090505b865181101561220b578151831115611fe057600098505050505050505050612214565b611ffc878281518110611fef57fe5b602002602001015161285c565b95508580519060200120841461201d57600098505050505050505050612214565b61203987828151811061202c57fe5b602002602001015161184c565b945060118551141561210e5781518314156120a2578c805190602001206120738660108151811061206657fe5b6020026020010151611bcc565b80519060200120141561209157600198505050505050505050612214565b600098505050505050505050612214565b60008284815181106120b057fe5b602001015160f81c60f81b60f81c905060108160ff1611156120de5760009950505050505050505050612214565b6120fd868260ff16815181106120f057fe5b60200260200101516128d5565b60001b9450600184019350506121fe565b6002855114156121ec57600061214161213a8760008151811061212d57fe5b6020026020010151611bcc565b84866129bc565b9050825181850114156121a4578d805190602001206121738760018151811061216657fe5b6020026020010151611bcc565b8051906020012014156121925760019950505050505050505050612214565b60009950505050505050505050612214565b60008114156121bf5760009950505050505050505050612214565b80840193506121e1866001815181106121d457fe5b60200260200101516128d5565b60001b9450506121fd565b600098505050505050505050612214565b5b8080600101915050611fbd565b50505050505050505b949350505050565b600080600080600360009054906101000a900473ffffffffffffffffffffffffffffffffffffffff1673ffffffffffffffffffffffffffffffffffffffff166341539d4a876040518263ffffffff1660e01b81526004018082815260200191505060a06040518083038186803b15801561229557600080fd5b505afa1580156122a9573d6000803e3d6000fd5b505050506040513d60a08110156122bf57600080fd5b8101908080519060200190929190805190602001909291908051906020019092919080519060200190929190805190602001909291905050505093505092509250612367612316838c612aca90919063ffffffff16565b84878d8d8d8d6040516020018085815260200184815260200183815260200182815260200194505050505060405160208183030381529060405280519060200120612b4d909392919063ffffffff16565b6123d9576040517f08c379a000000000000000000000000000000000000000000000000000000000815260040180806020018281038252601a8152602001807f526f6f7454756e6e656c3a20494e56414c49445f48454144455200000000000081525060200191505060405180910390fd5b8093505050509695505050505050565b60006123f58383611773565b61244e578260000182908060018154018082558091505060019003906000526020600020016000909190919091505582600001805490508360010160008481526020019081526020016000208190555060019050612453565b600090505b92915050565b6000808360010160008481526020019081526020016000205490506000811461253557600060018203905060006001866000018054905003905060008660000182815481106124a457fe5b90600052602060002001549050808760000184815481106124c157fe5b90600052602060002001819055506001830187600101600083815260200190815260200160002081905550866000018054806124f957fe5b6001900381819060005260206000200160009055905586600101600087815260200190815260200160002060009055600194505050505061253b565b60009150505b92915050565b600080600083602001519050805160001a915060c060ff168260ff16101561256e57600092505050612575565b6001925050505b919050565b60008060009050600061259084602001516126e6565b84602001510190506000846000015185602001510190505b80821015612623576125b98261262e565b8201915080821115612616576040517f08c379a000000000000000000000000000000000000000000000000000000000815260040180806020018281038252602c815260200180612e25602c913960400191505060405180910390fd5b82806001019350506125a8565b829350505050919050565b6000806000835160001a9050608060ff1681101561264f57600191506126dc565b60b860ff1681101561266c576001608060ff1682030191506126db565b60c060ff1681101561269c5760b78103600185019450806020036101000a855104600182018101935050506126da565b60f860ff168110156126b957600160c060ff1682030191506126d9565b60f78103600185019450806020036101000a855104600182018101935050505b5b5b5b8192505050919050565b600080825160001a9050608060ff1681101561270657600091505061276a565b60b860ff1681108061272b575060c060ff16811015801561272a575060f860ff1681105b5b1561273a57600191505061276a565b60c060ff1681101561275a5760018060b80360ff1682030191505061276a565b60018060f80360ff168203019150505b919050565b600081141561277d576127d1565b5b602060ff1681106127ad5782518252602060ff1683019250602060ff1682019150602060ff168103905061277e565b6000600182602060ff16036101000a03905080198451168184511681811785525050505b505050565b600080600284816127e357fe5b061461281f57601082600285816127f657fe5b048151811061280157fe5b602001015160f81c60f81b60f81c60ff168161281957fe5b06612851565b6010826002858161282c57fe5b048151811061283757fe5b602001015160f81c60f81b60f81c60ff168161284f57fe5b045b60f81b905092915050565b606080826000015167ffffffffffffffff8111801561287a57600080fd5b506040519080825280601f01601f1916602001820160405280156128ad5781602001600182028036833780820191505090505b50905060008160200190506128cb846020015182866000015161276f565b8192505050919050565b6000806128e5836020015161262e565b905082600001518114612943576040517f08c379a000000000000000000000000000000000000000000000000000000000815260040180806020018281038252602e815260200180612ede602e913960400191505060405180910390fd5b60218360000151146129a0576040517f08c379a0000000000000000000000000000000000000000000000000000000008152600401808060200182810382526025815260200180612d536025913960400191505060405180910390fd5b6000806001856020015101905080519150819350505050919050565b6000806000905060606129ce86611ccc565b90506060815167ffffffffffffffff811180156129ea57600080fd5b506040519080825280601f01601f191660200182016040528015612a1d5781602001600182028036833780820191505090505b50905060008590505b82518601811015612a98576000878281518110612a3f57fe5b602001015160f81c60f81b9050808388840381518110612a5b57fe5b60200101907effffffffffffffffffffffffffffffffffffffffffffffffffffffffffffff1916908160001a905350508080600101915050612a26565b50808051906020012082805190602001201415612ab85781519250612abd565b600092505b8293505050509392505050565b600082821115612b42576040517f08c379a000000000000000000000000000000000000000000000000000000000815260040180806020018281038252601e8152602001807f536166654d6174683a207375627472616374696f6e206f766572666c6f77000081525060200191505060405180910390fd5b818303905092915050565b6000806020835181612b5b57fe5b0614612bcf576040517f08c379a00000000000000000000000000000000000000000000000000000000081526004018080602001828103825260148152602001807f496e76616c69642070726f6f66206c656e67746800000000000000000000000081525060200191505060405180910390fd5b60006020835181612bdc57fe5b0490508060020a8510612c57576040517f08c379a00000000000000000000000000000000000000000000000000000000081526004018080602001828103825260158152602001807f4c65616620696e64657820697320746f6f20626967000000000000000000000081525060200191505060405180910390fd5b6000808790506000602090505b85518111612d0557808601519250600060028981612c7e57fe5b061415612cbb5781836040516020018083815260200182815260200192505050604051602081830303815290604052805190602001209150612ced565b828260405160200180838152602001828152602001925050506040516020818303038152906040528051906020012091505b60028881612cf757fe5b049750602081019050612c64565b508581149350505050949350505050565b60405180604001604052806000815260200160008152509056fe456e756d657261626c655365743a20696e646578206f7574206f6620626f756e6473524c505265616465723a20494e56414c49445f55494e545f5354524943545f4c454e475448416363657373436f6e74726f6c3a2073656e646572206d75737420626520616e2061646d696e20746f206772616e74526f6f7454756e6e656c3a204241445f4e45575f434845434b504f494e545f4d414e41474552524c505265616465723a2042595445535f4445434f4445445f4c454e4754485f4d49534d41544348416363657373436f6e74726f6c3a2073656e646572206d75737420626520616e2061646d696e20746f207265766f6b65524c505265616465723a204e554d5f4954454d535f4445434f4445445f4c454e4754485f4d49534d41544348524c505265616465723a204445434f44494e475f4c4953545f41535f41444452455353526f6f7454756e6e656c3a20455849545f414c52454144595f50524f434553534544526f6f7454756e6e656c3a20494e56414c49445f524543454950545f50524f4f46524c505265616465723a204c4953545f4445434f4445445f4c454e4754485f4d49534d41544348524c505265616465723a2055494e545f5354524943545f4445434f4445445f4c454e4754485f4d49534d41544348416363657373436f6e74726f6c3a2063616e206f6e6c792072656e6f756e636520726f6c657320666f722073656c66524c505265616465723a2055494e545f4445434f4445445f4c454e4754485f4d49534d41544348524c505265616465723a20494e56414c49445f414444524553535f4c454e475448526f6f7454756e6e656c3a20494e56414c49445f4348494c445f54554e4e454c5f41444452455353a264697066735822122071ed2fd55aa8d76126f25e2351bc1fcb2d85bde4b47e126a7c709cb141a86b2464736f6c63430006060033",
  "linkReferences": {},
  "deployedLinkReferences": {}
}