{
  "_format": "hh-sol-artifact-1",
  "contractName": "ChildTunnel",
  "sourceName": "contracts/tunnel/ChildTunnel.sol",
  "abi": [
    {
      "anonymous": false,
      "inputs": [
        {
          "indexed": false,
          "internalType": "bytes",
          "name": "message",
          "type": "bytes"
        }
      ],
      "name": "MessageSent",
      "type": "event"
    },
    {
      "anonymous": false,
      "inputs": [
        {
          "indexed": true,
          "internalType": "bytes32",
          "name": "role",
          "type": "bytes32"
        },
        {
          "indexed": true,
          "internalType": "bytes32",
          "name": "previousAdminRole",
          "type": "bytes32"
        },
        {
          "indexed": true,
          "internalType": "bytes32",
          "name": "newAdminRole",
          "type": "bytes32"
        }
      ],
      "name": "RoleAdminChanged",
      "type": "event"
    },
    {
      "anonymous": false,
      "inputs": [
        {
          "indexed": true,
          "internalType": "bytes32",
          "name": "role",
          "type": "bytes32"
        },
        {
          "indexed": true,
          "internalType": "address",
          "name": "account",
          "type": "address"
        },
        {
          "indexed": true,
          "internalType": "address",
          "name": "sender",
          "type": "address"
        }
      ],
      "name": "RoleGranted",
      "type": "event"
    },
    {
      "anonymous": false,
      "inputs": [
        {
          "indexed": true,
          "internalType": "bytes32",
          "name": "role",
          "type": "bytes32"
        },
        {
          "indexed": true,
          "internalType": "address",
          "name": "account",
          "type": "address"
        },
        {
          "indexed": true,
          "internalType": "address",
          "name": "sender",
          "type": "address"
        }
      ],
      "name": "RoleRevoked",
      "type": "event"
    },
    {
      "inputs": [],
      "name": "DEFAULT_ADMIN_ROLE",
      "outputs": [
        {
          "internalType": "bytes32",
          "name": "",
          "type": "bytes32"
        }
      ],
      "stateMutability": "view",
      "type": "function"
    },
    {
      "inputs": [],
      "name": "STATE_SYNCER_ROLE",
      "outputs": [
        {
          "internalType": "bytes32",
          "name": "",
          "type": "bytes32"
        }
      ],
      "stateMutability": "view",
      "type": "function"
    },
    {
      "inputs": [
        {
          "internalType": "bytes32",
          "name": "role",
          "type": "bytes32"
        }
      ],
      "name": "getRoleAdmin",
      "outputs": [
        {
          "internalType": "bytes32",
          "name": "",
          "type": "bytes32"
        }
      ],
      "stateMutability": "view",
      "type": "function"
    },
    {
      "inputs": [
        {
          "internalType": "bytes32",
          "name": "role",
          "type": "bytes32"
        },
        {
          "internalType": "uint256",
          "name": "index",
          "type": "uint256"
        }
      ],
      "name": "getRoleMember",
      "outputs": [
        {
          "internalType": "address",
          "name": "",
          "type": "address"
        }
      ],
      "stateMutability": "view",
      "type": "function"
    },
    {
      "inputs": [
        {
          "internalType": "bytes32",
          "name": "role",
          "type": "bytes32"
        }
      ],
      "name": "getRoleMemberCount",
      "outputs": [
        {
          "internalType": "uint256",
          "name": "",
          "type": "uint256"
        }
      ],
      "stateMutability": "view",
      "type": "function"
    },
    {
      "inputs": [
        {
          "internalType": "bytes32",
          "name": "role",
          "type": "bytes32"
        },
        {
          "internalType": "address",
          "name": "account",
          "type": "address"
        }
      ],
      "name": "grantRole",
      "outputs": [],
      "stateMutability": "nonpayable",
      "type": "function"
    },
    {
      "inputs": [
        {
          "internalType": "bytes32",
          "name": "role",
          "type": "bytes32"
        },
        {
          "internalType": "address",
          "name": "account",
          "type": "address"
        }
      ],
      "name": "hasRole",
      "outputs": [
        {
          "internalType": "bool",
          "name": "",
          "type": "bool"
        }
      ],
      "stateMutability": "view",
      "type": "function"
    },
    {
      "inputs": [
        {
          "internalType": "uint256",
          "name": "",
          "type": "uint256"
        },
        {
          "internalType": "bytes",
          "name": "message",
          "type": "bytes"
        }
      ],
      "name": "onStateReceive",
      "outputs": [],
      "stateMutability": "nonpayable",
      "type": "function"
    },
    {
      "inputs": [
        {
          "internalType": "bytes32",
          "name": "role",
          "type": "bytes32"
        },
        {
          "internalType": "address",
          "name": "account",
          "type": "address"
        }
      ],
      "name": "renounceRole",
      "outputs": [],
      "stateMutability": "nonpayable",
      "type": "function"
    },
    {
      "inputs": [
        {
          "internalType": "bytes32",
          "name": "role",
          "type": "bytes32"
        },
        {
          "internalType": "address",
          "name": "account",
          "type": "address"
        }
      ],
      "name": "revokeRole",
      "outputs": [],
      "stateMutability": "nonpayable",
      "type": "function"
    }
  ],
  "bytecode": "0x6080604052620000196000801b33620000ae60201b60201c565b6200006260405180807f53544154455f53594e4345525f524f4c4500000000000000000000000000000081525060110190506040518091039020611001620000ae60201b60201c565b620000a86040518060400160405280600b81526020017f4368696c6454756e6e656c000000000000000000000000000000000000000000815250620000c460201b60201c565b620003a3565b620000c082826200017460201b60201c565b5050565b806040516020018082805190602001908083835b60208310620000fd5780518252602082019150602081019050602083039250620000d8565b6001836020036101000a038019825116818451168082178552505050505050905001807f3a20494e53554646494349454e545f5045524d495353494f4e53000000000000815250601a019150506040516020818303038152906040526001908051906020019062000170929190620002f4565b5050565b620001a2816000808581526020019081526020016000206000016200021760201b6200092d1790919060201c565b156200021357620001b86200024f60201b60201c565b73ffffffffffffffffffffffffffffffffffffffff168173ffffffffffffffffffffffffffffffffffffffff16837f2f8788117e7eff1d82e926ec794901d17c78024a50270940304540a733656f0d60405160405180910390a45b5050565b600062000247836000018373ffffffffffffffffffffffffffffffffffffffff1660001b6200025760201b60201c565b905092915050565b600033905090565b60006200026b8383620002d160201b60201c565b620002c6578260000182908060018154018082558091505060019003906000526020600020016000909190919091505582600001805490508360010160008481526020019081526020016000208190555060019050620002cb565b600090505b92915050565b600080836001016000848152602001908152602001600020541415905092915050565b828054600181600116156101000203166002900490600052602060002090601f016020900481019282601f106200033757805160ff191683800117855562000368565b8280016001018555821562000368579182015b82811115620003675782518255916020019190600101906200034a565b5b5090506200037791906200037b565b5090565b620003a091905b808211156200039c57600081600090555060010162000382565b5090565b90565b610c8280620003b36000396000f3fe608060405234801561001057600080fd5b506004361061009e5760003560e01c80639010d07c116100665780639010d07c1461026457806391d14854146102dc578063a217fddf14610342578063ca15c87314610360578063d547741f146103a25761009e565b8063248a9ca3146100a357806326c53bea146100e55780632f2ff15d146101aa57806336568abe146101f85780634dee449814610246575b600080fd5b6100cf600480360360208110156100b957600080fd5b81019080803590602001909291905050506103f0565b6040518082815260200191505060405180910390f35b6101a8600480360360408110156100fb57600080fd5b81019080803590602001909291908035906020019064010000000081111561012257600080fd5b82018360208201111561013457600080fd5b8035906020019184600183028401116401000000008311171561015657600080fd5b91908080601f016020809104026020016040519081016040528093929190818152602001838380828437600081840152601f19601f82011690508083019250505050505050919291929050505061040f565b005b6101f6600480360360408110156101c057600080fd5b8101908080359060200190929190803573ffffffffffffffffffffffffffffffffffffffff16906020019092919050505061052a565b005b6102446004803603604081101561020e57600080fd5b8101908080359060200190929190803573ffffffffffffffffffffffffffffffffffffffff1690602001909291905050506105b3565b005b61024e61064c565b6040518082815260200191505060405180910390f35b61029a6004803603604081101561027a57600080fd5b810190808035906020019092919080359060200190929190505050610685565b604051808273ffffffffffffffffffffffffffffffffffffffff1673ffffffffffffffffffffffffffffffffffffffff16815260200191505060405180910390f35b610328600480360360408110156102f257600080fd5b8101908080359060200190929190803573ffffffffffffffffffffffffffffffffffffffff1690602001909291905050506106b6565b604051808215151515815260200191505060405180910390f35b61034a6106e7565b6040518082815260200191505060405180910390f35b61038c6004803603602081101561037657600080fd5b81019080803590602001909291905050506106ee565b6040518082815260200191505060405180910390f35b6103ee600480360360408110156103b857600080fd5b8101908080359060200190929190803573ffffffffffffffffffffffffffffffffffffffff169060200190929190505050610714565b005b6000806000838152602001908152602001600020600201549050919050565b60405180807f53544154455f53594e4345525f524f4c45000000000000000000000000000000815250601101905060405180910390206104568161045161079d565b6106b6565b60019061051b576040517f08c379a0000000000000000000000000000000000000000000000000000000008152600401808060200182810382528381815460018160011615610100020316600290048152602001915080546001816001161561010002031660029004801561050c5780601f106104e15761010080835404028352916020019161050c565b820191906000526020600020905b8154815290600101906020018083116104ef57829003601f168201915b50509250505060405180910390fd5b50610525826107a5565b505050565b6105506000808481526020019081526020016000206002015461054b61079d565b6106b6565b6105a5576040517f08c379a000000000000000000000000000000000000000000000000000000000815260040180806020018281038252602f815260200180610bbf602f913960400191505060405180910390fd5b6105af82826107a8565b5050565b6105bb61079d565b73ffffffffffffffffffffffffffffffffffffffff168173ffffffffffffffffffffffffffffffffffffffff161461063e576040517f08c379a000000000000000000000000000000000000000000000000000000000815260040180806020018281038252602f815260200180610c1e602f913960400191505060405180910390fd5b610648828261083b565b5050565b60405180807f53544154455f53594e4345525f524f4c450000000000000000000000000000008152506011019050604051809103902081565b60006106ae826000808681526020019081526020016000206000016108ce90919063ffffffff16565b905092915050565b60006106df826000808681526020019081526020016000206000016108e890919063ffffffff16565b905092915050565b6000801b81565b600061070d600080848152602001908152602001600020600001610918565b9050919050565b61073a6000808481526020019081526020016000206002015461073561079d565b6106b6565b61078f576040517f08c379a0000000000000000000000000000000000000000000000000000000008152600401808060200182810382526030815260200180610bee6030913960400191505060405180910390fd5b610799828261083b565b5050565b600033905090565b50565b6107cf8160008085815260200190815260200160002060000161092d90919063ffffffff16565b15610837576107dc61079d565b73ffffffffffffffffffffffffffffffffffffffff168173ffffffffffffffffffffffffffffffffffffffff16837f2f8788117e7eff1d82e926ec794901d17c78024a50270940304540a733656f0d60405160405180910390a45b5050565b6108628160008085815260200190815260200160002060000161095d90919063ffffffff16565b156108ca5761086f61079d565b73ffffffffffffffffffffffffffffffffffffffff168173ffffffffffffffffffffffffffffffffffffffff16837ff6391f5c32d9c69d2a47ea670b442974b53935d1edc7fd64eb21e047a839171b60405160405180910390a45b5050565b60006108dd836000018361098d565b60001c905092915050565b6000610910836000018373ffffffffffffffffffffffffffffffffffffffff1660001b610a10565b905092915050565b600061092682600001610a33565b9050919050565b6000610955836000018373ffffffffffffffffffffffffffffffffffffffff1660001b610a44565b905092915050565b6000610985836000018373ffffffffffffffffffffffffffffffffffffffff1660001b610ab4565b905092915050565b6000818360000180549050116109ee576040517f08c379a0000000000000000000000000000000000000000000000000000000008152600401808060200182810382526022815260200180610b9d6022913960400191505060405180910390fd5b8260000182815481106109fd57fe5b9060005260206000200154905092915050565b600080836001016000848152602001908152602001600020541415905092915050565b600081600001805490509050919050565b6000610a508383610a10565b610aa9578260000182908060018154018082558091505060019003906000526020600020016000909190919091505582600001805490508360010160008481526020019081526020016000208190555060019050610aae565b600090505b92915050565b60008083600101600084815260200190815260200160002054905060008114610b905760006001820390506000600186600001805490500390506000866000018281548110610aff57fe5b9060005260206000200154905080876000018481548110610b1c57fe5b9060005260206000200181905550600183018760010160008381526020019081526020016000208190555086600001805480610b5457fe5b60019003818190600052602060002001600090559055866001016000878152602001908152602001600020600090556001945050505050610b96565b60009150505b9291505056fe456e756d657261626c655365743a20696e646578206f7574206f6620626f756e6473416363657373436f6e74726f6c3a2073656e646572206d75737420626520616e2061646d696e20746f206772616e74416363657373436f6e74726f6c3a2073656e646572206d75737420626520616e2061646d696e20746f207265766f6b65416363657373436f6e74726f6c3a2063616e206f6e6c792072656e6f756e636520726f6c657320666f722073656c66a264697066735822122079519de1e1b19f72426560c94236256889ccd2f7a510c61ce619abc58b28351a64736f6c63430006060033",
  "linkReferences": {},
  "deployedLinkReferences": {}
}