{"abi":[{"type":"constructor","inputs":[{"name":"name_","type":"string","internalType":"string"},{"name":"symbol_","type":"string","internalType":"string"}],"stateMutability":"nonpayable"},{"type":"function","name":"DEFAULT_ADMIN_ROLE","inputs":[],"outputs":[{"name":"","type":"bytes32","internalType":"bytes32"}],"stateMutability":"view"},{"type":"function","name":"ERC712_VERSION","inputs":[],"outputs":[{"name":"","type":"string","internalType":"string"}],"stateMutability":"view"},{"type":"function","name":"PREDICATE_ROLE","inputs":[],"outputs":[{"name":"","type":"bytes32","internalType":"bytes32"}],"stateMutability":"view"},{"type":"function","name":"approve","inputs":[{"name":"to","type":"address","internalType":"address"},{"name":"tokenId","type":"uint256","internalType":"uint256"}],"outputs":[],"stateMutability":"nonpayable"},{"type":"function","name":"balanceOf","inputs":[{"name":"owner","type":"address","internalType":"address"}],"outputs":[{"name":"","type":"uint256","internalType":"uint256"}],"stateMutability":"view"},{"type":"function","name":"baseURI","inputs":[],"outputs":[{"name":"","type":"string","internalType":"string"}],"stateMutability":"view"},{"type":"function","name":"executeMetaTransaction","inputs":[{"name":"userAddress","type":"address","internalType":"address"},{"name":"functionSignature","type":"bytes","internalType":"bytes"},{"name":"sigR","type":"bytes32","internalType":"bytes32"},{"name":"sigS","type":"bytes32","internalType":"bytes32"},{"name":"sigV","type":"uint8","internalType":"uint8"}],"outputs":[{"name":"","type":"bytes","internalType":"bytes"}],"stateMutability":"payable"},{"type":"function","name":"exists","inputs":[{"name":"tokenId","type":"uint256","internalType":"uint256"}],"outputs":[{"name":"","type":"bool","internalType":"bool"}],"stateMutability":"view"},{"type":"function","name":"getApproved","inputs":[{"name":"tokenId","type":"uint256","internalType":"uint256"}],"outputs":[{"name":"","type":"address","internalType":"address"}],"stateMutability":"view"},{"type":"function","name":"getChainId","inputs":[],"outputs":[{"name":"","type":"uint256","internalType":"uint256"}],"stateMutability":"pure"},{"type":"function","name":"getDomainSeperator","inputs":[],"outputs":[{"name":"","type":"bytes32","internalType":"bytes32"}],"stateMutability":"view"},{"type":"function","name":"getNonce","inputs":[{"name":"user","type":"address","internalType":"address"}],"outputs":[{"name":"nonce","type":"uint256","internalType":"uint256"}],"stateMutability":"view"},{"type":"function","name":"getRoleAdmin","inputs":[{"name":"role","type":"bytes32","internalType":"bytes32"}],"outputs":[{"name":"","type":"bytes32","internalType":"bytes32"}],"stateMutability":"view"},{"type":"function","name":"getRoleMember","inputs":[{"name":"role","type":"bytes32","internalType":"bytes32"},{"name":"index","type":"uint256","internalType":"uint256"}],"outputs":[{"name":"","type":"address","internalType":"address"}],"stateMutability":"view"},{"type":"function","name":"getRoleMemberCount","inputs":[{"name":"role","type":"bytes32","internalType":"bytes32"}],"outputs":[{"name":"","type":"uint256","internalType":"uint256"}],"stateMutability":"view"},{"type":"function","name":"grantRole","inputs":[{"name":"role","type":"bytes32","internalType":"bytes32"},{"name":"account","type":"address","internalType":"address"}],"outputs":[],"stateMutability":"nonpayable"},{"type":"function","name":"hasRole","inputs":[{"name":"role","type":"bytes32","internalType":"bytes32"},{"name":"account","type":"address","internalType":"address"}],"outputs":[{"name":"","type":"bool","internalType":"bool"}],"stateMutability":"view"},{"type":"function","name":"isApprovedForAll","inputs":[{"name":"owner","type":"address","internalType":"address"},{"name":"operator","type":"address","internalType":"address"}],"outputs":[{"name":"","type":"bool","internalType":"bool"}],"stateMutability":"view"},{"type":"function","name":"mint","inputs":[{"name":"user","type":"address","internalType":"address"},{"name":"tokenId","type":"uint256","internalType":"uint256"}],"outputs":[],"stateMutability":"nonpayable"},{"type":"function","name":"mint","inputs":[{"name":"user","type":"address","internalType":"address"},{"name":"tokenId","type":"uint256","internalType":"uint256"},{"name":"metaData","type":"bytes","internalType":"bytes"}],"outputs":[],"stateMutability":"nonpayable"},{"type":"function","name":"name","inputs":[],"outputs":[{"name":"","type":"string","internalType":"string"}],"stateMutability":"view"},{"type":"function","name":"ownerOf","inputs":[{"name":"tokenId","type":"uint256","internalType":"uint256"}],"outputs":[{"name":"","type":"address","internalType":"address"}],"stateMutability":"view"},{"type":"function","name":"renounceRole","inputs":[{"name":"role","type":"bytes32","internalType":"bytes32"},{"name":"account","type":"address","internalType":"address"}],"outputs":[],"stateMutability":"nonpayable"},{"type":"function","name":"revokeRole","inputs":[{"name":"role","type":"bytes32","internalType":"bytes32"},{"name":"account","type":"address","internalType":"address"}],"outputs":[],"stateMutability":"nonpayable"},{"type":"function","name":"safeTransferFrom","inputs":[{"name":"from","type":"address","internalType":"address"},{"name":"to","type":"address","internalType":"address"},{"name":"tokenId","type":"uint256","internalType":"uint256"}],"outputs":[],"stateMutability":"nonpayable"},{"type":"function","name":"safeTransferFrom","inputs":[{"name":"from","type":"address","internalType":"address"},{"name":"to","type":"address","internalType":"address"},{"name":"tokenId","type":"uint256","internalType":"uint256"},{"name":"_data","type":"bytes","internalType":"bytes"}],"outputs":[],"stateMutability":"nonpayable"},{"type":"function","name":"setApprovalForAll","inputs":[{"name":"operator","type":"address","internalType":"address"},{"name":"approved","type":"bool","internalType":"bool"}],"outputs":[],"stateMutability":"nonpayable"},{"type":"function","name":"supportsInterface","inputs":[{"name":"interfaceId","type":"bytes4","internalType":"bytes4"}],"outputs":[{"name":"","type":"bool","internalType":"bool"}],"stateMutability":"view"},{"type":"function","name":"symbol","inputs":[],"outputs":[{"name":"","type":"string","internalType":"string"}],"stateMutability":"view"},{"type":"function","name":"tokenByIndex","inputs":[{"name":"index","type":"uint256","internalType":"uint256"}],"outputs":[{"name":"","type":"uint256","internalType":"uint256"}],"stateMutability":"view"},{"type":"function","name":"tokenOfOwnerByIndex","inputs":[{"name":"owner","type":"address","internalType":"address"},{"name":"index","type":"uint256","internalType":"uint256"}],"outputs":[{"name":"","type":"uint256","internalType":"uint256"}],"stateMutability":"view"},{"type":"function","name":"tokenURI","inputs":[{"name":"tokenId","type":"uint256","internalType":"uint256"}],"outputs":[{"name":"","type":"string","internalType":"string"}],"stateMutability":"view"},{"type":"function","name":"totalSupply","inputs":[],"outputs":[{"name":"","type":"uint256","internalType":"uint256"}],"stateMutability":"view"},{"type":"function","name":"transferFrom","inputs":[{"name":"from","type":"address","internalType":"address"},{"name":"to","type":"address","internalType":"address"},{"name":"tokenId","type":"uint256","internalType":"uint256"}],"outputs":[],"stateMutability":"nonpayable"},{"type":"event","name":"Approval","inputs":[{"name":"owner","type":"address","indexed":true,"internalType":"address"},{"name":"approved","type":"address","indexed":true,"internalType":"address"},{"name":"tokenId","type":"uint256","indexed":true,"internalType":"uint256"}],"anonymous":false},{"type":"event","name":"ApprovalForAll","inputs":[{"name":"owner","type":"address","indexed":true,"internalType":"address"},{"name":"operator","type":"address","indexed":true,"internalType":"address"},{"name":"approved","type":"bool","indexed":false,"internalType":"bool"}],"anonymous":false},{"type":"event","name":"MetaTransactionExecuted","inputs":[{"name":"userAddress","type":"address","indexed":true,"internalType":"address"},{"name":"relayerAddress","type":"address","indexed":true,"internalType":"address payable"},{"name":"functionSignature","type":"bytes","indexed":false,"internalType":"bytes"}],"anonymous":false},{"type":"event","name":"RoleAdminChanged","inputs":[{"name":"role","type":"bytes32","indexed":true,"internalType":"bytes32"},{"name":"previousAdminRole","type":"bytes32","indexed":true,"internalType":"bytes32"},{"name":"newAdminRole","type":"bytes32","indexed":true,"internalType":"bytes32"}],"anonymous":false},{"type":"event","name":"RoleGranted","inputs":[{"name":"role","type":"bytes32","indexed":true,"internalType":"bytes32"},{"name":"account","type":"address","indexed":true,"internalType":"address"},{"name":"sender","type":"address","indexed":true,"internalType":"address"}],"anonymous":false},{"type":"event","name":"RoleRevoked","inputs":[{"name":"role","type":"bytes32","indexed":true,"internalType":"bytes32"},{"name":"account","type":"address","indexed":true,"internalType":"address"},{"name":"sender","type":"address","indexed":true,"internalType":"address"}],"anonymous":false},{"type":"event","name":"Transfer","inputs":[{"name":"from","type":"address","indexed":true,"internalType":"address"},{"name":"to","type":"address","indexed":true,"internalType":"address"},{"name":"tokenId","type":"uint256","indexed":true,"internalType":"uint256"}],"anonymous":false}],"bytecode":{"object":"0x6080604052600c805460ff191690553480156200001b57600080fd5b506040516200357f3803806200357f833981810160405260408110156200004157600080fd5b81019080805160405193929190846401000000008211156200006257600080fd5b9083019060208201858111156200007857600080fd5b82516401000000008111828201881017156200009357600080fd5b82525081516020918201929091019080838360005b83811015620000c2578181015183820152602001620000a8565b50505050905090810190601f168015620000f05780820380516001836020036101000a031916815260200191505b50604052602001805160405193929190846401000000008211156200011457600080fd5b9083019060208201858111156200012a57600080fd5b82516401000000008111828201881017156200014557600080fd5b82525081516020918201929091019080838360005b83811015620001745781810151838201526020016200015a565b50505050905090810190601f168015620001a25780820380516001836020036101000a031916815260200191505b5060405250839150829050620001c86301ffc9a760e01b6001600160e01b036200030e16565b8151620001dd90600690602085019062000721565b508051620001f390600790602084019062000721565b506200020f6380ac58cd60e01b6001600160e01b036200030e16565b6200022a635b5e139f60e01b6001600160e01b036200030e16565b6200024563780e9d6360e01b6001600160e01b036200030e16565b505060408051808201909152601381527f44756d6d794d696e7461626c654552433732310000000000000000000000000060208201526200028f906001600160e01b036200039316565b620002b76000620002a86001600160e01b036200043916565b6001600160e01b036200045616565b604080516d5052454449434154455f524f4c4560901b8152905190819003600e019020620002f290620002a86001600160e01b036200043916565b62000306826001600160e01b036200046b16565b5050620007c3565b6001600160e01b031980821614156200036e576040805162461bcd60e51b815260206004820152601c60248201527f4552433136353a20696e76616c696420696e7465726661636520696400000000604482015290519081900360640190fd5b6001600160e01b0319166000908152602081905260409020805460ff19166001179055565b806040516020018082805190602001908083835b60208310620003c85780518252601f199092019160209182019101620003a7565b51815160209384036101000a60001901801990921691161790527f3a20494e53554646494349454e545f5045524d495353494f4e530000000000009190930190815260408051808303600519018152601a90920190528051620004359550600b9450920191905062000721565b5050565b600062000450620004d960201b6200206f1760201c565b90505b90565b6200043582826001600160e01b036200053816565b600c5460ff1615620004b5576040805162461bcd60e51b815260206004820152600e60248201526d185b1c9958591e481a5b9a5d195960921b604482015290519081900360640190fd5b620004c9816001600160e01b03620005bc16565b50600c805460ff19166001179055565b600033301415620005335760606000368080601f0160208091040260200160405190810160405280939291908181526020018383808284376000920191909152505050503601516001600160a01b03169150620004539050565b503390565b6000828152600a602090815260409091206200055f918390620021d662000684821b17901c565b156200043557620005786001600160e01b036200043916565b6001600160a01b0316816001600160a01b0316837f2f8788117e7eff1d82e926ec794901d17c78024a50270940304540a733656f0d60405160405180910390a45050565b6040518060800160405280604f815260200162003530604f913980516020918201208251838301206040805180820190915260018152603160f81b930192909252907fc89efdaa54c0f20c7adf612882df0950f5a951637e0307cdcb4c672f298b8bc630620006336001600160e01b03620006ad16565b604080516020808201979097528082019590955260608501939093526001600160a01b03909116608084015260a0808401919091528151808403909101815260c090920190528051910120600d5550565b6000620006a4836001600160a01b0384166001600160e01b03620006b116565b90505b92915050565b4690565b6000620006c883836001600160e01b036200070916565b6200070057508154600181810184556000848152602080822090930184905584548482528286019093526040902091909155620006a7565b506000620006a7565b60009081526001919091016020526040902054151590565b828054600181600116156101000203166002900490600052602060002090601f016020900481019282601f106200076457805160ff191683800117855562000794565b8280016001018555821562000794579182015b828111156200079457825182559160200191906001019062000777565b50620007a2929150620007a6565b5090565b6200045391905b80821115620007a25760008155600101620007ad565b612d5d80620007d36000396000f3fe6080604052600436106101f95760003560e01c80634f558e791161010d57806395d89b41116100a0578063c87b56dd1161006f578063c87b56dd14610900578063ca15c8731461092a578063d547741f14610954578063e72db5fd1461098d578063e985e9c5146109a2576101f9565b806395d89b41146107ca578063a217fddf146107df578063a22cb465146107f4578063b88d4fde1461082f576101f9565b806370a08231116100dc57806370a082311461069e5780639010d07c146106d157806391d148541461070157806394d008ef1461073a576101f9565b80634f558e791461060b5780634f6ccce7146106355780636352211e1461065f5780636c0360eb14610689576101f9565b806323b872dd116101905780632f745c591161015f5780632f745c59146105085780633408e4701461054157806336568abe1461055657806340c10f191461058f57806342842e0e146105c8576101f9565b806323b872dd1461042f578063248a9ca3146104725780632d0335ab1461049c5780632f2ff15d146104cf576101f9565b80630c53c51c116101cc5780630c53c51c146103515780630f7e5970146103de57806318160ddd146103f357806320379ee51461041a576101f9565b806301ffc9a7146101fe57806306fdde0314610246578063081812fc146102d0578063095ea7b314610316575b600080fd5b34801561020a57600080fd5b506102326004803603602081101561022157600080fd5b50356001600160e01b0319166109dd565b604080519115158252519081900360200190f35b34801561025257600080fd5b5061025b610a00565b6040805160208082528351818301528351919283929083019185019080838360005b8381101561029557818101518382015260200161027d565b50505050905090810190601f1680156102c25780820380516001836020036101000a031916815260200191505b509250505060405180910390f35b3480156102dc57600080fd5b506102fa600480360360208110156102f357600080fd5b5035610a97565b604080516001600160a01b039092168252519081900360200190f35b34801561032257600080fd5b5061034f6004803603604081101561033957600080fd5b506001600160a01b038135169060200135610af9565b005b61025b600480360360a081101561036757600080fd5b6001600160a01b038235169190810190604081016020820135600160201b81111561039157600080fd5b8201836020820111156103a357600080fd5b803590602001918460018302840111600160201b831117156103c457600080fd5b91935091508035906020810135906040013560ff16610bd4565b3480156103ea57600080fd5b5061025b610e5d565b3480156103ff57600080fd5b50610408610e7a565b60408051918252519081900360200190f35b34801561042657600080fd5b50610408610e8b565b34801561043b57600080fd5b5061034f6004803603606081101561045257600080fd5b506001600160a01b03813581169160208101359091169060400135610e91565b34801561047e57600080fd5b506104086004803603602081101561049557600080fd5b5035610ee8565b3480156104a857600080fd5b50610408600480360360208110156104bf57600080fd5b50356001600160a01b0316610efd565b3480156104db57600080fd5b5061034f600480360360408110156104f257600080fd5b50803590602001356001600160a01b0316610f18565b34801561051457600080fd5b506104086004803603604081101561052b57600080fd5b506001600160a01b038135169060200135610f84565b34801561054d57600080fd5b50610408610fb5565b34801561056257600080fd5b5061034f6004803603604081101561057957600080fd5b50803590602001356001600160a01b0316610fb9565b34801561059b57600080fd5b5061034f600480360360408110156105b257600080fd5b506001600160a01b03813516906020013561101a565b3480156105d457600080fd5b5061034f600480360360608110156105eb57600080fd5b506001600160a01b038135811691602081013590911690604001356110f4565b34801561061757600080fd5b506102326004803603602081101561062e57600080fd5b503561110f565b34801561064157600080fd5b506104086004803603602081101561065857600080fd5b503561111a565b34801561066b57600080fd5b506102fa6004803603602081101561068257600080fd5b5035611136565b34801561069557600080fd5b5061025b611164565b3480156106aa57600080fd5b50610408600480360360208110156106c157600080fd5b50356001600160a01b03166111c5565b3480156106dd57600080fd5b506102fa600480360360408110156106f457600080fd5b508035906020013561122d565b34801561070d57600080fd5b506102326004803603604081101561072457600080fd5b50803590602001356001600160a01b031661124b565b34801561074657600080fd5b5061034f6004803603606081101561075d57600080fd5b6001600160a01b0382351691602081013591810190606081016040820135600160201b81111561078c57600080fd5b82018360208201111561079e57600080fd5b803590602001918460018302840111600160201b831117156107bf57600080fd5b509092509050611269565b3480156107d657600080fd5b5061025b611350565b3480156107eb57600080fd5b506104086113b1565b34801561080057600080fd5b5061034f6004803603604081101561081757600080fd5b506001600160a01b03813516906020013515156113b6565b34801561083b57600080fd5b5061034f6004803603608081101561085257600080fd5b6001600160a01b03823581169260208101359091169160408201359190810190608081016060820135600160201b81111561088c57600080fd5b82018360208201111561089e57600080fd5b803590602001918460018302840111600160201b831117156108bf57600080fd5b91908080601f0160208091040260200160405190810160405280939291908181526020018383808284376000920191909152509295506114bb945050505050565b34801561090c57600080fd5b5061025b6004803603602081101561092357600080fd5b5035611519565b34801561093657600080fd5b506104086004803603602081101561094d57600080fd5b50356117c0565b34801561096057600080fd5b5061034f6004803603604081101561097757600080fd5b50803590602001356001600160a01b03166117d7565b34801561099957600080fd5b50610408611830565b3480156109ae57600080fd5b50610232600480360360408110156109c557600080fd5b506001600160a01b0381358116916020013516611856565b6001600160e01b0319811660009081526020819052604090205460ff165b919050565b60068054604080516020601f6002600019610100600188161502019095169490940493840181900481028201810190925282815260609390929091830182828015610a8c5780601f10610a6157610100808354040283529160200191610a8c565b820191906000526020600020905b815481529060010190602001808311610a6f57829003601f168201915b505050505090505b90565b6000610aa282611884565b610add5760405162461bcd60e51b815260040180806020018281038252602c815260200180612bd6602c913960400191505060405180910390fd5b506000908152600460205260409020546001600160a01b031690565b6000610b0482611136565b9050806001600160a01b0316836001600160a01b03161415610b575760405162461bcd60e51b8152600401808060200182810382526021815260200180612ca76021913960400191505060405180910390fd5b806001600160a01b0316610b69611897565b6001600160a01b03161480610b8a5750610b8a81610b85611897565b611856565b610bc55760405162461bcd60e51b8152600401808060200182810382526038815260200180612b296038913960400191505060405180910390fd5b610bcf83836118a1565b505050565b6060610bde6128fb565b604080516060810182526001600160a01b038a166000818152600e602090815290849020548352808301919091528251601f8a0182900482028101820184528981529192830191908a908a908190840183828082843760009201919091525050509152509050610c51888287878761190f565b610c8c5760405162461bcd60e51b8152600401808060200182810382526021815260200180612c576021913960400191505060405180910390fd5b6001600160a01b0388166000818152600e60209081526040918290208054600101905581518181529081018990523392917f5845892132946850460bff5a0083f71031bc5bf9aadcd40f1de79423eac9b10b918b918b919081908101848480828437600083820152604051601f909101601f19169092018290039550909350505050a360006060306001600160a01b031689898c6040516020018084848082843780830192505050826001600160a01b03166001600160a01b031660601b815260140193505050506040516020818303038152906040526040518082805190602001908083835b60208310610d925780518252601f199092019160209182019101610d73565b6001836020036101000a0380198251168184511680821785525050505050509050019150506000604051808303816000865af19150503d8060008114610df4576040519150601f19603f3d011682016040523d82523d6000602084013e610df9565b606091505b509150915081610e50576040805162461bcd60e51b815260206004820152601c60248201527f46756e6374696f6e2063616c6c206e6f74207375636365737366756c00000000604482015290519081900360640190fd5b9998505050505050505050565b604051806040016040528060018152602001603160f81b81525081565b6000610e8660026119ec565b905090565b600d5490565b610ea2610e9c611897565b826119f7565b610edd5760405162461bcd60e51b8152600401808060200182810382526031815260200180612cc86031913960400191505060405180910390fd5b610bcf838383611a9b565b6000908152600a602052604090206002015490565b6001600160a01b03166000908152600e602052604090205490565b6000828152600a6020526040902060020154610f3b90610f36611897565b61124b565b610f765760405162461bcd60e51b815260040180806020018281038252602f8152602001806129e0602f913960400191505060405180910390fd5b610f808282611bf9565b5050565b6001600160a01b0382166000908152600160205260408120610fac908363ffffffff611c6816565b90505b92915050565b4690565b610fc1611897565b6001600160a01b0316816001600160a01b0316146110105760405162461bcd60e51b815260040180806020018281038252602f815260200180612cf9602f913960400191505060405180910390fd5b610f808282611c74565b604080516d5052454449434154455f524f4c4560901b8152905190819003600e01902061104981610f36611897565b600b906110e95760405162461bcd60e51b81526020600482019081528254600260001961010060018416150201909116046024830181905290918291604490910190849080156110da5780601f106110af576101008083540402835291602001916110da565b820191906000526020600020905b8154815290600101906020018083116110bd57829003601f168201915b50509250505060405180910390fd5b50610bcf8383611ce3565b610bcf838383604051806020016040528060008152506114bb565b6000610faf82611884565b60008061112e60028463ffffffff611e1d16565b509392505050565b6000610faf82604051806060016040528060298152602001612b8b602991396002919063ffffffff611e3916565b60098054604080516020601f6002600019610100600188161502019095169490940493840181900481028201810190925282815260609390929091830182828015610a8c5780601f10610a6157610100808354040283529160200191610a8c565b60006001600160a01b03821661120c5760405162461bcd60e51b815260040180806020018281038252602a815260200180612b61602a913960400191505060405180910390fd5b6001600160a01b0382166000908152600160205260409020610faf906119ec565b6000828152600a60205260408120610fac908363ffffffff611c6816565b6000828152600a60205260408120610fac908363ffffffff611e5016565b604080516d5052454449434154455f524f4c4560901b8152905190819003600e01902061129881610f36611897565b600b906112fe5760405162461bcd60e51b81526020600482019081528254600260001961010060018416150201909116046024830181905290918291604490910190849080156110da5780601f106110af576101008083540402835291602001916110da565b506113098585611ce3565b6113498484848080601f016020809104026020016040519081016040528093929190818152602001838380828437600092019190915250611e6592505050565b5050505050565b60078054604080516020601f6002600019610100600188161502019095169490940493840181900481028201810190925282815260609390929091830182828015610a8c5780601f10610a6157610100808354040283529160200191610a8c565b600081565b6113be611897565b6001600160a01b0316826001600160a01b03161415611424576040805162461bcd60e51b815260206004820152601960248201527f4552433732313a20617070726f766520746f2063616c6c657200000000000000604482015290519081900360640190fd5b8060056000611431611897565b6001600160a01b03908116825260208083019390935260409182016000908120918716808252919093529120805460ff191692151592909217909155611475611897565b60408051841515815290516001600160a01b0392909216917f17307eab39ab6107e8899845ad3d59bd9653f200f220920489ca2b5937696c319181900360200190a35050565b6114cc6114c6611897565b836119f7565b6115075760405162461bcd60e51b8152600401808060200182810382526031815260200180612cc86031913960400191505060405180910390fd5b61151384848484611f36565b50505050565b606061152482611884565b61155f5760405162461bcd60e51b815260040180806020018281038252602f815260200180612c78602f913960400191505060405180910390fd5b60008281526008602090815260409182902080548351601f60026000196101006001861615020190931692909204918201849004840281018401909452808452606093928301828280156115f45780601f106115c9576101008083540402835291602001916115f4565b820191906000526020600020905b8154815290600101906020018083116115d757829003601f168201915b50506009549394505050506002600019610100600184161502019091160461161d5790506109fb565b8051156116ee5760098160405160200180838054600181600116156101000203166002900480156116855780601f10611663576101008083540402835291820191611685565b820191906000526020600020905b815481529060010190602001808311611671575b5050825160208401908083835b602083106116b15780518252601f199092019160209182019101611692565b6001836020036101000a038019825116818451168082178552505050505050905001925050506040516020818303038152906040529150506109fb565b60096116f984611f88565b60405160200180838054600181600116156101000203166002900480156117575780601f10611735576101008083540402835291820191611757565b820191906000526020600020905b815481529060010190602001808311611743575b5050825160208401908083835b602083106117835780518252601f199092019160209182019101611764565b6001836020036101000a03801982511681845116808217855250505050505090500192505050604051602081830303815290604052915050919050565b6000818152600a60205260408120610faf906119ec565b6000828152600a60205260409020600201546117f590610f36611897565b6110105760405162461bcd60e51b8152600401808060200182810382526030815260200180612ad46030913960400191505060405180910390fd5b604080516d5052454449434154455f524f4c4560901b8152905190819003600e01902081565b6001600160a01b03918216600090815260056020908152604080832093909416825291909152205460ff1690565b6000610faf60028363ffffffff61206316565b6000610e8661206f565b600081815260046020526040902080546001600160a01b0319166001600160a01b03841690811790915581906118d682611136565b6001600160a01b03167f8c5be1e5ebec7d5bd14f71427d1e84f3dd0314c0f7b2291e5b200ac8c7c3b92560405160405180910390a45050565b60006001600160a01b0386166119565760405162461bcd60e51b8152600401808060200182810382526025815260200180612b046025913960400191505060405180910390fd5b6001611969611964876120cc565b612158565b83868660405160008152602001604052604051808581526020018460ff1660ff1681526020018381526020018281526020019450505050506020604051602081039080840390855afa1580156119c3573d6000803e3d6000fd5b505050602060405103516001600160a01b0316866001600160a01b031614905095945050505050565b6000610faf826121a4565b6000611a0282611884565b611a3d5760405162461bcd60e51b815260040180806020018281038252602c815260200180612aa8602c913960400191505060405180910390fd5b6000611a4883611136565b9050806001600160a01b0316846001600160a01b03161480611a835750836001600160a01b0316611a7884610a97565b6001600160a01b0316145b80611a935750611a938185611856565b949350505050565b826001600160a01b0316611aae82611136565b6001600160a01b031614611af35760405162461bcd60e51b8152600401808060200182810382526029815260200180612c2e6029913960400191505060405180910390fd5b6001600160a01b038216611b385760405162461bcd60e51b8152600401808060200182810382526024815260200180612a846024913960400191505060405180910390fd5b611b43838383610bcf565b611b4e6000826118a1565b6001600160a01b0383166000908152600160205260409020611b76908263ffffffff6121a816565b506001600160a01b0382166000908152600160205260409020611b9f908263ffffffff6121b416565b50611bb26002828463ffffffff6121c016565b5080826001600160a01b0316846001600160a01b03167fddf252ad1be2c89b69c2b068fc378daa952ba7f163c4a11628f55a4df523b3ef60405160405180910390a4505050565b6000828152600a60205260409020611c17908263ffffffff6121d616565b15610f8057611c24611897565b6001600160a01b0316816001600160a01b0316837f2f8788117e7eff1d82e926ec794901d17c78024a50270940304540a733656f0d60405160405180910390a45050565b6000610fac83836121eb565b6000828152600a60205260409020611c92908263ffffffff61224f16565b15610f8057611c9f611897565b6001600160a01b0316816001600160a01b0316837ff6391f5c32d9c69d2a47ea670b442974b53935d1edc7fd64eb21e047a839171b60405160405180910390a45050565b6001600160a01b038216611d3e576040805162461bcd60e51b815260206004820181905260248201527f4552433732313a206d696e7420746f20746865207a65726f2061646472657373604482015290519081900360640190fd5b611d4781611884565b15611d99576040805162461bcd60e51b815260206004820152601c60248201527f4552433732313a20746f6b656e20616c7265616479206d696e74656400000000604482015290519081900360640190fd5b611da560008383610bcf565b6001600160a01b0382166000908152600160205260409020611dcd908263ffffffff6121b416565b50611de06002828463ffffffff6121c016565b5060405181906001600160a01b038416906000907fddf252ad1be2c89b69c2b068fc378daa952ba7f163c4a11628f55a4df523b3ef908290a45050565b6000808080611e2c8686612264565b9097909650945050505050565b6000611e468484846122df565b90505b9392505050565b6000610fac836001600160a01b0384166123a9565b6060818060200190516020811015611e7c57600080fd5b8101908080516040519392919084600160201b821115611e9b57600080fd5b908301906020820185811115611eb057600080fd5b8251600160201b811182820188101715611ec957600080fd5b82525081516020918201929091019080838360005b83811015611ef6578181015183820152602001611ede565b50505050905090810190601f168015611f235780820380516001836020036101000a031916815260200191505b506040525050509050610bcf83826123c1565b611f41848484611a9b565b611f4d84848484612424565b6115135760405162461bcd60e51b8152600401808060200182810382526032815260200180612a0f6032913960400191505060405180910390fd5b606081611fad57506040805180820190915260018152600360fc1b60208201526109fb565b8160005b8115611fc557600101600a82049150611fb1565b60608167ffffffffffffffff81118015611fde57600080fd5b506040519080825280601f01601f191660200182016040528015612009576020820181803683370190505b50859350905060001982015b831561205a57600a840660300160f81b8282806001900393508151811061203857fe5b60200101906001600160f81b031916908160001a905350600a84049350612015565b50949350505050565b6000610fac83836123a9565b6000333014156120c75760606000368080601f0160208091040260200160405190810160405280939291908181526020018383808284376000920191909152505050503601516001600160a01b03169150610a949050565b503390565b6000604051806080016040528060438152602001612a4160439139805190602001208260000151836020015184604001518051906020012060405160200180858152602001848152602001836001600160a01b03166001600160a01b03168152602001828152602001945050505050604051602081830303815290604052805190602001209050919050565b6000612162610e8b565b82604051602001808061190160f01b81525060020183815260200182815260200192505050604051602081830303815290604052805190602001209050919050565b5490565b6000610fac83836125a4565b6000610fac838361266a565b6000611e4684846001600160a01b0385166126b4565b6000610fac836001600160a01b03841661266a565b8154600090821061222d5760405162461bcd60e51b81526004018080602001828103825260228152602001806129be6022913960400191505060405180910390fd5b82600001828154811061223c57fe5b9060005260206000200154905092915050565b6000610fac836001600160a01b0384166125a4565b8154600090819083106122a85760405162461bcd60e51b8152600401808060200182810382526022815260200180612bb46022913960400191505060405180910390fd5b60008460000184815481106122b957fe5b906000526020600020906002020190508060000154816001015492509250509250929050565b6000828152600184016020526040812054828161237a5760405162461bcd60e51b81526004018080602001828103825283818151815260200191508051906020019080838360005b8381101561233f578181015183820152602001612327565b50505050905090810190601f16801561236c5780820380516001836020036101000a031916815260200191505b509250505060405180910390fd5b5084600001600182038154811061238d57fe5b9060005260206000209060020201600101549150509392505050565b60009081526001919091016020526040902054151590565b6123ca82611884565b6124055760405162461bcd60e51b815260040180806020018281038252602c815260200180612c02602c913960400191505060405180910390fd5b60008281526008602090815260409091208251610bcf92840190612925565b6000612438846001600160a01b031661274b565b61244457506001611a93565b606061256a630a85bd0160e11b612459611897565b88878760405160240180856001600160a01b03166001600160a01b03168152602001846001600160a01b03166001600160a01b0316815260200183815260200180602001828103825283818151815260200191508051906020019080838360005b838110156124d25781810151838201526020016124ba565b50505050905090810190601f1680156124ff5780820380516001836020036101000a031916815260200191505b5095505050505050604051602081830303815290604052906001600160e01b0319166020820180516001600160e01b038381831617835250505050604051806060016040528060328152602001612a0f603291396001600160a01b038816919063ffffffff61278416565b9050600081806020019051602081101561258357600080fd5b50516001600160e01b031916630a85bd0160e11b1492505050949350505050565b6000818152600183016020526040812054801561266057835460001980830191908101906000908790839081106125d757fe5b90600052602060002001549050808760000184815481106125f457fe5b60009182526020808320909101929092558281526001898101909252604090209084019055865487908061262457fe5b60019003818190600052602060002001600090559055866001016000878152602001908152602001600020600090556001945050505050610faf565b6000915050610faf565b600061267683836123a9565b6126ac57508154600181810184556000848152602080822090930184905584548482528286019093526040902091909155610faf565b506000610faf565b600082815260018401602052604081205480612719575050604080518082018252838152602080820184815286546001818101895560008981528481209551600290930290950191825591519082015586548684528188019092529290912055611e49565b8285600001600183038154811061272c57fe5b9060005260206000209060020201600101819055506000915050611e49565b6000813f7fc5d2460186f7233c927e7db2dcc703c0e500b653ca82273b7bfad8045d85a470818114801590611a93575050151592915050565b6060611e46848460008560606127998561274b565b6127ea576040805162461bcd60e51b815260206004820152601d60248201527f416464726573733a2063616c6c20746f206e6f6e2d636f6e7472616374000000604482015290519081900360640190fd5b60006060866001600160a01b031685876040518082805190602001908083835b602083106128295780518252601f19909201916020918201910161280a565b6001836020036101000a03801982511681845116808217855250505050505090500191505060006040518083038185875af1925050503d806000811461288b576040519150601f19603f3d011682016040523d82523d6000602084013e612890565b606091505b509150915081156128a4579150611a939050565b8051156128b45780518082602001fd5b60405162461bcd60e51b815260206004820181815286516024840152865187939192839260440191908501908083836000831561233f578181015183820152602001612327565b60405180606001604052806000815260200160006001600160a01b03168152602001606081525090565b828054600181600116156101000203166002900490600052602060002090601f016020900481019282601f1061296657805160ff1916838001178555612993565b82800160010185558215612993579182015b82811115612993578251825591602001919060010190612978565b5061299f9291506129a3565b5090565b610a9491905b8082111561299f57600081556001016129a956fe456e756d657261626c655365743a20696e646578206f7574206f6620626f756e6473416363657373436f6e74726f6c3a2073656e646572206d75737420626520616e2061646d696e20746f206772616e744552433732313a207472616e7366657220746f206e6f6e20455243373231526563656976657220696d706c656d656e7465724d6574615472616e73616374696f6e2875696e74323536206e6f6e63652c616464726573732066726f6d2c62797465732066756e6374696f6e5369676e6174757265294552433732313a207472616e7366657220746f20746865207a65726f20616464726573734552433732313a206f70657261746f7220717565727920666f72206e6f6e6578697374656e7420746f6b656e416363657373436f6e74726f6c3a2073656e646572206d75737420626520616e2061646d696e20746f207265766f6b654e61746976654d6574615472616e73616374696f6e3a20494e56414c49445f5349474e45524552433732313a20617070726f76652063616c6c6572206973206e6f74206f776e6572206e6f7220617070726f76656420666f7220616c6c4552433732313a2062616c616e636520717565727920666f7220746865207a65726f20616464726573734552433732313a206f776e657220717565727920666f72206e6f6e6578697374656e7420746f6b656e456e756d657261626c654d61703a20696e646578206f7574206f6620626f756e64734552433732313a20617070726f76656420717565727920666f72206e6f6e6578697374656e7420746f6b656e4552433732314d657461646174613a2055524920736574206f66206e6f6e6578697374656e7420746f6b656e4552433732313a207472616e73666572206f6620746f6b656e2074686174206973206e6f74206f776e5369676e657220616e64207369676e617475726520646f206e6f74206d617463684552433732314d657461646174613a2055524920717565727920666f72206e6f6e6578697374656e7420746f6b656e4552433732313a20617070726f76616c20746f2063757272656e74206f776e65724552433732313a207472616e736665722063616c6c6572206973206e6f74206f776e6572206e6f7220617070726f766564416363657373436f6e74726f6c3a2063616e206f6e6c792072656e6f756e636520726f6c657320666f722073656c66a2646970667358221220723d23023fc77c90331dc2edde375aa0793f3ace0c61c5e1be9241ee9709e4e564736f6c63430006060033454950373132446f6d61696e28737472696e67206e616d652c737472696e672076657273696f6e2c6164647265737320766572696679696e67436f6e74726163742c627974657333322073616c7429","linkReferences":{}},"methodIdentifiers":{"DEFAULT_ADMIN_ROLE()":"a217fddf","ERC712_VERSION()":"0f7e5970","PREDICATE_ROLE()":"e72db5fd","approve(address,uint256)":"095ea7b3","balanceOf(address)":"70a08231","baseURI()":"6c0360eb","executeMetaTransaction(address,bytes,bytes32,bytes32,uint8)":"0c53c51c","exists(uint256)":"4f558e79","getApproved(uint256)":"081812fc","getChainId()":"3408e470","getDomainSeperator()":"20379ee5","getNonce(address)":"2d0335ab","getRoleAdmin(bytes32)":"248a9ca3","getRoleMember(bytes32,uint256)":"9010d07c","getRoleMemberCount(bytes32)":"ca15c873","grantRole(bytes32,address)":"2f2ff15d","hasRole(bytes32,address)":"91d14854","isApprovedForAll(address,address)":"e985e9c5","mint(address,uint256)":"40c10f19","mint(address,uint256,bytes)":"94d008ef","name()":"06fdde03","ownerOf(uint256)":"6352211e","renounceRole(bytes32,address)":"36568abe","revokeRole(bytes32,address)":"d547741f","safeTransferFrom(address,address,uint256)":"42842e0e","safeTransferFrom(address,address,uint256,bytes)":"b88d4fde","setApprovalForAll(address,bool)":"a22cb465","supportsInterface(bytes4)":"01ffc9a7","symbol()":"95d89b41","tokenByIndex(uint256)":"4f6ccce7","tokenOfOwnerByIndex(address,uint256)":"2f745c59","tokenURI(uint256)":"c87b56dd","totalSupply()":"18160ddd","transferFrom(address,address,uint256)":"23b872dd"},"id":41}