{
  "_format": "hh-sol-artifact-1",
  "contractName": "ProxyTestImpl",
  "sourceName": "contracts/test/ProxyTestImpl.sol",
  "abi": [
    {
      "inputs": [],
      "stateMutability": "nonpayable",
      "type": "constructor"
    },
    {
      "inputs": [],
      "name": "a",
      "outputs": [
        {
          "internalType": "uint256",
          "name": "",
          "type": "uint256"
        }
      ],
      "stateMutability": "view",
      "type": "function"
    },
    {
      "inputs": [],
      "name": "b",
      "outputs": [
        {
          "internalType": "uint256",
          "name": "",
          "type": "uint256"
        }
      ],
      "stateMutability": "view",
      "type": "function"
    },
    {
      "inputs": [],
      "name": "ctorInit",
      "outputs": [
        {
          "internalType": "uint256",
          "name": "",
          "type": "uint256"
        }
      ],
      "stateMutability": "view",
      "type": "function"
    },
    {
      "inputs": [],
      "name": "init",
      "outputs": [],
      "stateMutability": "nonpayable",
      "type": "function"
    }
  ],
  "bytecode": "0x608060405260008060006101000a81548160ff021916908315150217905550600180556002805534801561003257600080fd5b50600380819055506101a9806100496000396000f3fe608060405234801561001057600080fd5b506004361061004c5760003560e01c80630dbe671f146100515780634df7e3d01461006f57806394eb090c1461008d578063e1c7392a146100ab575b600080fd5b6100596100b5565b6040518082815260200191505060405180910390f35b6100776100bb565b6040518082815260200191505060405180910390f35b6100956100c1565b6040518082815260200191505060405180910390f35b6100b36100c7565b005b60015481565b60025481565b60035481565b6000809054906101000a900460ff1615610149576040517f08c379a000000000000000000000000000000000000000000000000000000000815260040180806020018281038252600e8152602001807f616c726561647920696e6974656400000000000000000000000000000000000081525060200191505060405180910390fd5b600180819055506002808190555060016000806101000a81548160ff02191690831515021790555056fea2646970667358221220795a3e8dbd458b5618b9a3a0b06b901b5e6023719ae56eac68ed7b4d18e7d2c764736f6c63430006060033",
  "linkReferences": {},
  "deployedLinkReferences": {}
}