{"abi":[{"type":"constructor","inputs":[],"stateMutability":"nonpayable"},{"type":"function","name":"BATCH_LIMIT","inputs":[],"outputs":[{"name":"","type":"uint256","internalType":"uint256"}],"stateMutability":"view"},{"type":"function","name":"DEFAULT_ADMIN_ROLE","inputs":[],"outputs":[{"name":"","type":"bytes32","internalType":"bytes32"}],"stateMutability":"view"},{"type":"function","name":"MANAGER_ROLE","inputs":[],"outputs":[{"name":"","type":"bytes32","internalType":"bytes32"}],"stateMutability":"view"},{"type":"function","name":"TOKEN_TYPE","inputs":[],"outputs":[{"name":"","type":"bytes32","internalType":"bytes32"}],"stateMutability":"view"},{"type":"function","name":"TRANSFER_EVENT_SIG","inputs":[],"outputs":[{"name":"","type":"bytes32","internalType":"bytes32"}],"stateMutability":"view"},{"type":"function","name":"exitTokens","inputs":[{"name":"rootToken","type":"address","internalType":"address"},{"name":"log","type":"bytes","internalType":"bytes"}],"outputs":[],"stateMutability":"nonpayable"},{"type":"function","name":"getRoleAdmin","inputs":[{"name":"role","type":"bytes32","internalType":"bytes32"}],"outputs":[{"name":"","type":"bytes32","internalType":"bytes32"}],"stateMutability":"view"},{"type":"function","name":"getRoleMember","inputs":[{"name":"role","type":"bytes32","internalType":"bytes32"},{"name":"index","type":"uint256","internalType":"uint256"}],"outputs":[{"name":"","type":"address","internalType":"address"}],"stateMutability":"view"},{"type":"function","name":"getRoleMemberCount","inputs":[{"name":"role","type":"bytes32","internalType":"bytes32"}],"outputs":[{"name":"","type":"uint256","internalType":"uint256"}],"stateMutability":"view"},{"type":"function","name":"grantRole","inputs":[{"name":"role","type":"bytes32","internalType":"bytes32"},{"name":"account","type":"address","internalType":"address"}],"outputs":[],"stateMutability":"nonpayable"},{"type":"function","name":"hasRole","inputs":[{"name":"role","type":"bytes32","internalType":"bytes32"},{"name":"account","type":"address","internalType":"address"}],"outputs":[{"name":"","type":"bool","internalType":"bool"}],"stateMutability":"view"},{"type":"function","name":"initialize","inputs":[{"name":"_owner","type":"address","internalType":"address"}],"outputs":[],"stateMutability":"nonpayable"},{"type":"function","name":"lockTokens","inputs":[{"name":"depositor","type":"address","internalType":"address"},{"name":"depositReceiver","type":"address","internalType":"address"},{"name":"rootToken","type":"address","internalType":"address"},{"name":"depositData","type":"bytes","internalType":"bytes"}],"outputs":[],"stateMutability":"nonpayable"},{"type":"function","name":"onERC721Received","inputs":[{"name":"","type":"address","internalType":"address"},{"name":"","type":"address","internalType":"address"},{"name":"","type":"uint256","internalType":"uint256"},{"name":"","type":"bytes","internalType":"bytes"}],"outputs":[{"name":"","type":"bytes4","internalType":"bytes4"}],"stateMutability":"nonpayable"},{"type":"function","name":"renounceRole","inputs":[{"name":"role","type":"bytes32","internalType":"bytes32"},{"name":"account","type":"address","internalType":"address"}],"outputs":[],"stateMutability":"nonpayable"},{"type":"function","name":"revokeRole","inputs":[{"name":"role","type":"bytes32","internalType":"bytes32"},{"name":"account","type":"address","internalType":"address"}],"outputs":[],"stateMutability":"nonpayable"},{"type":"event","name":"ExitedERC721","inputs":[{"name":"exitor","type":"address","indexed":true,"internalType":"address"},{"name":"rootToken","type":"address","indexed":true,"internalType":"address"},{"name":"tokenId","type":"uint256","indexed":false,"internalType":"uint256"}],"anonymous":false},{"type":"event","name":"LockedERC721","inputs":[{"name":"depositor","type":"address","indexed":true,"internalType":"address"},{"name":"depositReceiver","type":"address","indexed":true,"internalType":"address"},{"name":"rootToken","type":"address","indexed":true,"internalType":"address"},{"name":"tokenId","type":"uint256","indexed":false,"internalType":"uint256"}],"anonymous":false},{"type":"event","name":"LockedERC721Batch","inputs":[{"name":"depositor","type":"address","indexed":true,"internalType":"address"},{"name":"depositReceiver","type":"address","indexed":true,"internalType":"address"},{"name":"rootToken","type":"address","indexed":true,"internalType":"address"},{"name":"tokenIds","type":"uint256[]","indexed":false,"internalType":"uint256[]"}],"anonymous":false},{"type":"event","name":"RoleAdminChanged","inputs":[{"name":"role","type":"bytes32","indexed":true,"internalType":"bytes32"},{"name":"previousAdminRole","type":"bytes32","indexed":true,"internalType":"bytes32"},{"name":"newAdminRole","type":"bytes32","indexed":true,"internalType":"bytes32"}],"anonymous":false},{"type":"event","name":"RoleGranted","inputs":[{"name":"role","type":"bytes32","indexed":true,"internalType":"bytes32"},{"name":"account","type":"address","indexed":true,"internalType":"address"},{"name":"sender","type":"address","indexed":true,"internalType":"address"}],"anonymous":false},{"type":"event","name":"RoleRevoked","inputs":[{"name":"role","type":"bytes32","indexed":true,"internalType":"bytes32"},{"name":"account","type":"address","indexed":true,"internalType":"address"},{"name":"sender","type":"address","indexed":true,"internalType":"address"}],"anonymous":false}],"bytecode":{"object":"0x60806040526002805460ff1916905534801561001a57600080fd5b506116658061002a6000396000f3fe608060405234801561001057600080fd5b50600436106101005760003560e01c8063a217fddf11610097578063d547741f11610066578063d547741f1461031b578063e375b64e14610347578063ec87621c146103d6578063f741a417146103de57610100565b8063a217fddf146102c8578063b017a30f146102d0578063c4d66de8146102d8578063ca15c873146102fe57610100565b8063609c92b8116100d3578063609c92b8146102395780639010d07c1461024157806391d14854146102805780639559c0bd146102c057610100565b8063150b7a0214610105578063248a9ca3146101b05780632f2ff15d146101df57806336568abe1461020d575b600080fd5b6101936004803603608081101561011b57600080fd5b6001600160a01b03823581169260208101359091169160408201359190810190608081016060820135600160201b81111561015557600080fd5b82018360208201111561016757600080fd5b803590602001918460018302840111600160201b8311171561018857600080fd5b50909250905061045c565b604080516001600160e01b03199092168252519081900360200190f35b6101cd600480360360208110156101c657600080fd5b503561046d565b60408051918252519081900360200190f35b61020b600480360360408110156101f557600080fd5b50803590602001356001600160a01b0316610485565b005b61020b6004803603604081101561022357600080fd5b50803590602001356001600160a01b03166104f1565b6101cd610552565b6102646004803603604081101561025757600080fd5b5080359060200135610570565b604080516001600160a01b039092168252519081900360200190f35b6102ac6004803603604081101561029657600080fd5b50803590602001356001600160a01b0316610597565b604080519115158252519081900360200190f35b6101cd6105b5565b6101cd6105ba565b6101cd6105bf565b61020b600480360360208110156102ee57600080fd5b50356001600160a01b03166105e3565b6101cd6004803603602081101561031457600080fd5b50356106a2565b61020b6004803603604081101561033157600080fd5b50803590602001356001600160a01b03166106b9565b61020b6004803603608081101561035d57600080fd5b6001600160a01b0382358116926020810135821692604082013590921691810190608081016060820135600160201b81111561039857600080fd5b8201836020820111156103aa57600080fd5b803590602001918460018302840111600160201b831117156103cb57600080fd5b509092509050610712565b6101cd610b06565b61020b600480360360408110156103f457600080fd5b6001600160a01b038235169190810190604081016020820135600160201b81111561041e57600080fd5b82018360208201111561043057600080fd5b803590602001918460018302840111600160201b8311171561045157600080fd5b509092509050610b2a565b630a85bd0160e11b95945050505050565b6000818152602081905260409020600201545b919050565b6000828152602081905260409020600201546104a8906104a3610dec565b610597565b6104e35760405162461bcd60e51b815260040180806020018281038252602f81526020018061153b602f913960400191505060405180910390fd5b6104ed8282610df1565b5050565b6104f9610dec565b6001600160a01b0316816001600160a01b0316146105485760405162461bcd60e51b815260040180806020018281038252602f815260200180611601602f913960400191505060405180910390fd5b6104ed8282610e60565b604080516545524337323160d01b8152905190819003600601902081565b600082815260208190526040812061058e908363ffffffff610ecf16565b90505b92915050565b600082815260208190526040812061058e908363ffffffff610edb16565b601481565b600081565b7fddf252ad1be2c89b69c2b068fc378daa952ba7f163c4a11628f55a4df523b3ef81565b60025460ff161561062c576040805162461bcd60e51b815260206004820152600e60248201526d185b1c9958591e481a5b9a5d195960921b604482015290519081900360640190fd5b61065c6040518060400160405280600f81526020016e45524337323150726564696361746560881b815250610ef0565b6106676000826104e3565b604080516b4d414e414745525f524f4c4560a01b8152905190819003600c01902061069290826104e3565b506002805460ff19166001179055565b600081815260208190526040812061059190610f8e565b6000828152602081905260409020600201546106d7906104a3610dec565b6105485760405162461bcd60e51b815260040180806020018281038252603081526020018061156a6030913960400191505060405180910390fd5b604080516b4d414e414745525f524f4c4560a01b8152905190819003600c01902061073f816104a3610dec565b6001906107df5760405162461bcd60e51b81526020600482019081528254600260001961010060018416150201909116046024830181905290918291604490910190849080156107d05780601f106107a5576101008083540402835291602001916107d0565b820191906000526020600020905b8154815290600101906020018083116107b357829003601f168201915b50509250505060405180910390fd5b5060208214156108be576000838360208110156107fb57600080fd5b5060408051913580835290519092506001600160a01b038088169289821692918b16917f8357472e13612a8c3d6f3e9d71fbba8a78ab77dbdcc7fcf3b7b645585f0bbbfc9181900360200190a460408051632142170760e11b81526001600160a01b038981166004830152306024830152604482018490529151918716916342842e0e9160648082019260009290919082900301818387803b1580156108a057600080fd5b505af11580156108b4573d6000803e3d6000fd5b5050505050610afe565b6060838360208110156108d057600080fd5b810190602081018135600160201b8111156108ea57600080fd5b8201836020820111156108fc57600080fd5b803590602001918460208302840111600160201b8311171561091d57600080fd5b919080806020026020016040519081016040528093929190818152602001838360200280828437600081840152601f19601f8201169050808301925050505050505091929192905050509050846001600160a01b0316866001600160a01b0316886001600160a01b03167f5345c2beb0e49c805f42bb70c4ec5c3c3d9680ce45b8f4529c028d5f3e0f7a0d846040518080602001828103825283818151815260200191508051906020019060200280838360005b838110156109e95781810151838201526020016109d1565b505050509050019250505060405180910390a480516014811115610a3e5760405162461bcd60e51b815260040180806020018281038252602481526020018061159a6024913960400191505060405180910390fd5b60005b81811015610afa57866001600160a01b03166342842e0e8a30868581518110610a6657fe5b60200260200101516040518463ffffffff1660e01b815260040180846001600160a01b03166001600160a01b03168152602001836001600160a01b03166001600160a01b031681526020018281526020019350505050600060405180830381600087803b158015610ad657600080fd5b505af1158015610aea573d6000803e3d6000fd5b505060019092019150610a419050565b5050505b505050505050565b604080516b4d414e414745525f524f4c4560a01b8152905190819003600c01902081565b604080516b4d414e414745525f524f4c4560a01b8152905190819003600c019020610b57816104a3610dec565b600190610bbd5760405162461bcd60e51b81526020600482019081528254600260001961010060018416150201909116046024830181905290918291604490910190849080156107d05780601f106107a5576101008083540402835291602001916107d0565b506060610c07610c0285858080601f016020809104026020016040519081016040528093929190818152602001838380828437600092019190915250610f9992505050565b610fbe565b90506060610c2882600181518110610c1b57fe5b6020026020010151610fbe565b90506000610c4982600181518110610c3c57fe5b60200260200101516110a6565b90507fddf252ad1be2c89b69c2b068fc378daa952ba7f163c4a11628f55a4df523b3ef60001b610c7f83600081518110610c3c57fe5b14610cbb5760405162461bcd60e51b81526004018080602001828103825260228152602001806115be6022913960400191505060405180910390fd5b60006001600160a01b0316610cd683600281518110610c3c57fe5b6001600160a01b031614610d1b5760405162461bcd60e51b81526004018080602001828103825260218152602001806115e06021913960400191505060405180910390fd5b6000610d2d83600381518110610c3c57fe5b60408051632142170760e11b81523060048201526001600160a01b038581166024830152604482018490529151929350908a16916342842e0e9160648082019260009290919082900301818387803b158015610d8857600080fd5b505af1158015610d9c573d6000803e3d6000fd5b50506040805184815290516001600160a01b03808d169450861692507fe9ae525a9512e4ebce82a4301c43bc0915b47778d50e13d49319952b6881f7a99181900360200190a35050505050505050565b335b90565b6000828152602081905260409020610e0f908263ffffffff6110f416565b156104ed57610e1c610dec565b6001600160a01b0316816001600160a01b0316837f2f8788117e7eff1d82e926ec794901d17c78024a50270940304540a733656f0d60405160405180910390a45050565b6000828152602081905260409020610e7e908263ffffffff61110916565b156104ed57610e8b610dec565b6001600160a01b0316816001600160a01b0316837ff6391f5c32d9c69d2a47ea670b442974b53935d1edc7fd64eb21e047a839171b60405160405180910390a45050565b600061058e838361111e565b600061058e836001600160a01b038416611182565b806040516020018082805190602001908083835b60208310610f235780518252601f199092019160209182019101610f04565b51815160209384036101000a60001901801990921691161790527f3a20494e53554646494349454e545f5045524d495353494f4e530000000000009190930190815260408051808303600519018152601a909201905280516104ed9550600194509201919050611466565b60006105918261119a565b610fa16114e4565b506040805180820190915281518152602082810190820152919050565b6060610fc98261119e565b610fd257600080fd5b6000610fdd836111d8565b905060608167ffffffffffffffff81118015610ff857600080fd5b5060405190808252806020026020018201604052801561103257816020015b61101f6114e4565b8152602001906001900390816110175790505b50905060006110448560200151611234565b60208601510190506000805b8481101561109b5761106183611297565b915060405180604001604052808381526020018481525084828151811061108457fe5b602090810291909101015291810191600101611050565b509195945050505050565b8051600090158015906110bb57508151602110155b6110c457600080fd5b6000806110d084611330565b8151919350915060208210156110ec5760208290036101000a90045b949350505050565b600061058e836001600160a01b038416611356565b600061058e836001600160a01b0384166113a0565b815460009082106111605760405162461bcd60e51b81526004018080602001828103825260228152602001806115196022913960400191505060405180910390fd5b82600001828154811061116f57fe5b9060005260206000200154905092915050565b60009081526001919091016020526040902054151590565b5490565b80516000906111af57506000610480565b6020820151805160001a9060c08210156111ce57600092505050610480565b5060019392505050565b80516000906111e957506000610480565b600080905060006111fd8460200151611234565b602085015185519181019250015b8082101561122b5761121c82611297565b6001909301929091019061120b565b50909392505050565b8051600090811a608081101561124e576000915050610480565b60b8811080611269575060c08110801590611269575060f881105b15611278576001915050610480565b60c081101561128c5760b519019050610480565b60f519019050610480565b80516000908190811a60808110156112b25760019150611329565b60b88110156112c757607e1981019150611329565b60c08110156112f45760b78103600185019450806020036101000a85510460018201810193505050611329565b60f88110156113095760be1981019150611329565b60f78103600185019450806020036101000a855104600182018101935050505b5092915050565b60008060006113428460200151611234565b602085015194519481019594039392505050565b60006113628383611182565b61139857508154600181810184556000848152602080822090930184905584548482528286019093526040902091909155610591565b506000610591565b6000818152600183016020526040812054801561145c57835460001980830191908101906000908790839081106113d357fe5b90600052602060002001549050808760000184815481106113f057fe5b60009182526020808320909101929092558281526001898101909252604090209084019055865487908061142057fe5b60019003818190600052602060002001600090559055866001016000878152602001908152602001600020600090556001945050505050610591565b6000915050610591565b828054600181600116156101000203166002900490600052602060002090601f016020900481019282601f106114a757805160ff19168380011785556114d4565b828001600101855582156114d4579182015b828111156114d45782518255916020019190600101906114b9565b506114e09291506114fe565b5090565b604051806040016040528060008152602001600081525090565b610dee91905b808211156114e0576000815560010161150456fe456e756d657261626c655365743a20696e646578206f7574206f6620626f756e6473416363657373436f6e74726f6c3a2073656e646572206d75737420626520616e2061646d696e20746f206772616e74416363657373436f6e74726f6c3a2073656e646572206d75737420626520616e2061646d696e20746f207265766f6b654552433732315072656469636174653a20455843454544535f42415443485f4c494d49544552433732315072656469636174653a20494e56414c49445f5349474e41545552454552433732315072656469636174653a20494e56414c49445f5245434549564552416363657373436f6e74726f6c3a2063616e206f6e6c792072656e6f756e636520726f6c657320666f722073656c66a2646970667358221220d382245d1be0e271ec9d7fedc7fe917b9635c68107b5fe6effabba9e5027ec8464736f6c63430006060033","linkReferences":{}},"methodIdentifiers":{"BATCH_LIMIT()":"9559c0bd","DEFAULT_ADMIN_ROLE()":"a217fddf","MANAGER_ROLE()":"ec87621c","TOKEN_TYPE()":"609c92b8","TRANSFER_EVENT_SIG()":"b017a30f","exitTokens(address,bytes)":"f741a417","getRoleAdmin(bytes32)":"248a9ca3","getRoleMember(bytes32,uint256)":"9010d07c","getRoleMemberCount(bytes32)":"ca15c873","grantRole(bytes32,address)":"2f2ff15d","hasRole(bytes32,address)":"91d14854","initialize(address)":"c4d66de8","lockTokens(address,address,address,bytes)":"e375b64e","onERC721Received(address,address,uint256,bytes)":"150b7a02","renounceRole(bytes32,address)":"36568abe","revokeRole(bytes32,address)":"d547741f"},"id":53}