{"abi":[{"type":"function","name":"currentCheckpointNumber","inputs":[],"outputs":[{"name":"","type":"uint256","internalType":"uint256"}],"stateMutability":"view"},{"type":"function","name":"headerBlocks","inputs":[{"name":"","type":"uint256","internalType":"uint256"}],"outputs":[{"name":"root","type":"bytes32","internalType":"bytes32"},{"name":"start","type":"uint256","internalType":"uint256"},{"name":"end","type":"uint256","internalType":"uint256"},{"name":"createdAt","type":"uint256","internalType":"uint256"},{"name":"proposer","type":"address","internalType":"address"}],"stateMutability":"view"},{"type":"function","name":"setCheckpoint","inputs":[{"name":"rootHash","type":"bytes32","internalType":"bytes32"},{"name":"start","type":"uint256","internalType":"uint256"},{"name":"end","type":"uint256","internalType":"uint256"}],"outputs":[],"stateMutability":"nonpayable"}],"bytecode":{"object":"0x6080604052600060015534801561001557600080fd5b50610292806100256000396000f3fe608060405234801561001057600080fd5b50600436106100415760003560e01c806341539d4a146100465780634d5505d314610097578063afa764d7146100b1575b600080fd5b6100636004803603602081101561005c57600080fd5b50356100dc565b6040805195865260208601949094528484019290925260608401526001600160a01b03166080830152519081900360a00190f35b61009f610114565b60408051918252519081900360200190f35b6100da600480360360608110156100c757600080fd5b508035906020810135906040013561011a565b005b60006020819052908152604090208054600182015460028301546003840154600490940154929391929091906001600160a01b031685565b60015481565b610122610221565b506040805160a081018252848152602081018490529081018290524260608201523360808201526001805461015c9163ffffffff6101c016565b60018181556000918252602082815260409283902084518155908401519181019190915590820151600282015560608201516003820155608090910151600490910180546001600160a01b0319166001600160a01b03909216919091179055505050565b60008282018381101561021a576040805162461bcd60e51b815260206004820152601b60248201527f536166654d6174683a206164646974696f6e206f766572666c6f770000000000604482015290519081900360640190fd5b9392505050565b6040518060a001604052806000801916815260200160008152602001600081526020016000815260200160006001600160a01b03168152509056fea2646970667358221220101baf36fca55ed8b36313c4176e7568002574710d16962bf873bad31cd3e43764736f6c63430006060033","linkReferences":{}},"methodIdentifiers":{"currentCheckpointNumber()":"4d5505d3","headerBlocks(uint256)":"41539d4a","setCheckpoint(bytes32,uint256,uint256)":"afa764d7"},"id":31}