{"abi":[{"type":"constructor","inputs":[{"name":"uri_","type":"string","internalType":"string"}],"stateMutability":"nonpayable"},{"type":"function","name":"DEFAULT_ADMIN_ROLE","inputs":[],"outputs":[{"name":"","type":"bytes32","internalType":"bytes32"}],"stateMutability":"view"},{"type":"function","name":"ERC712_VERSION","inputs":[],"outputs":[{"name":"","type":"string","internalType":"string"}],"stateMutability":"view"},{"type":"function","name":"PREDICATE_ROLE","inputs":[],"outputs":[{"name":"","type":"bytes32","internalType":"bytes32"}],"stateMutability":"view"},{"type":"function","name":"balanceOf","inputs":[{"name":"account","type":"address","internalType":"address"},{"name":"id","type":"uint256","internalType":"uint256"}],"outputs":[{"name":"","type":"uint256","internalType":"uint256"}],"stateMutability":"view"},{"type":"function","name":"balanceOfBatch","inputs":[{"name":"accounts","type":"address[]","internalType":"address[]"},{"name":"ids","type":"uint256[]","internalType":"uint256[]"}],"outputs":[{"name":"","type":"uint256[]","internalType":"uint256[]"}],"stateMutability":"view"},{"type":"function","name":"executeMetaTransaction","inputs":[{"name":"userAddress","type":"address","internalType":"address"},{"name":"functionSignature","type":"bytes","internalType":"bytes"},{"name":"sigR","type":"bytes32","internalType":"bytes32"},{"name":"sigS","type":"bytes32","internalType":"bytes32"},{"name":"sigV","type":"uint8","internalType":"uint8"}],"outputs":[{"name":"","type":"bytes","internalType":"bytes"}],"stateMutability":"payable"},{"type":"function","name":"getChainId","inputs":[],"outputs":[{"name":"","type":"uint256","internalType":"uint256"}],"stateMutability":"pure"},{"type":"function","name":"getDomainSeperator","inputs":[],"outputs":[{"name":"","type":"bytes32","internalType":"bytes32"}],"stateMutability":"view"},{"type":"function","name":"getNonce","inputs":[{"name":"user","type":"address","internalType":"address"}],"outputs":[{"name":"nonce","type":"uint256","internalType":"uint256"}],"stateMutability":"view"},{"type":"function","name":"getRoleAdmin","inputs":[{"name":"role","type":"bytes32","internalType":"bytes32"}],"outputs":[{"name":"","type":"bytes32","internalType":"bytes32"}],"stateMutability":"view"},{"type":"function","name":"getRoleMember","inputs":[{"name":"role","type":"bytes32","internalType":"bytes32"},{"name":"index","type":"uint256","internalType":"uint256"}],"outputs":[{"name":"","type":"address","internalType":"address"}],"stateMutability":"view"},{"type":"function","name":"getRoleMemberCount","inputs":[{"name":"role","type":"bytes32","internalType":"bytes32"}],"outputs":[{"name":"","type":"uint256","internalType":"uint256"}],"stateMutability":"view"},{"type":"function","name":"grantRole","inputs":[{"name":"role","type":"bytes32","internalType":"bytes32"},{"name":"account","type":"address","internalType":"address"}],"outputs":[],"stateMutability":"nonpayable"},{"type":"function","name":"hasRole","inputs":[{"name":"role","type":"bytes32","internalType":"bytes32"},{"name":"account","type":"address","internalType":"address"}],"outputs":[{"name":"","type":"bool","internalType":"bool"}],"stateMutability":"view"},{"type":"function","name":"isApprovedForAll","inputs":[{"name":"account","type":"address","internalType":"address"},{"name":"operator","type":"address","internalType":"address"}],"outputs":[{"name":"","type":"bool","internalType":"bool"}],"stateMutability":"view"},{"type":"function","name":"mint","inputs":[{"name":"account","type":"address","internalType":"address"},{"name":"id","type":"uint256","internalType":"uint256"},{"name":"amount","type":"uint256","internalType":"uint256"},{"name":"data","type":"bytes","internalType":"bytes"}],"outputs":[],"stateMutability":"nonpayable"},{"type":"function","name":"mintBatch","inputs":[{"name":"to","type":"address","internalType":"address"},{"name":"ids","type":"uint256[]","internalType":"uint256[]"},{"name":"amounts","type":"uint256[]","internalType":"uint256[]"},{"name":"data","type":"bytes","internalType":"bytes"}],"outputs":[],"stateMutability":"nonpayable"},{"type":"function","name":"renounceRole","inputs":[{"name":"role","type":"bytes32","internalType":"bytes32"},{"name":"account","type":"address","internalType":"address"}],"outputs":[],"stateMutability":"nonpayable"},{"type":"function","name":"revokeRole","inputs":[{"name":"role","type":"bytes32","internalType":"bytes32"},{"name":"account","type":"address","internalType":"address"}],"outputs":[],"stateMutability":"nonpayable"},{"type":"function","name":"safeBatchTransferFrom","inputs":[{"name":"from","type":"address","internalType":"address"},{"name":"to","type":"address","internalType":"address"},{"name":"ids","type":"uint256[]","internalType":"uint256[]"},{"name":"amounts","type":"uint256[]","internalType":"uint256[]"},{"name":"data","type":"bytes","internalType":"bytes"}],"outputs":[],"stateMutability":"nonpayable"},{"type":"function","name":"safeTransferFrom","inputs":[{"name":"from","type":"address","internalType":"address"},{"name":"to","type":"address","internalType":"address"},{"name":"id","type":"uint256","internalType":"uint256"},{"name":"amount","type":"uint256","internalType":"uint256"},{"name":"data","type":"bytes","internalType":"bytes"}],"outputs":[],"stateMutability":"nonpayable"},{"type":"function","name":"setApprovalForAll","inputs":[{"name":"operator","type":"address","internalType":"address"},{"name":"approved","type":"bool","internalType":"bool"}],"outputs":[],"stateMutability":"nonpayable"},{"type":"function","name":"supportsInterface","inputs":[{"name":"interfaceId","type":"bytes4","internalType":"bytes4"}],"outputs":[{"name":"","type":"bool","internalType":"bool"}],"stateMutability":"view"},{"type":"function","name":"uri","inputs":[{"name":"","type":"uint256","internalType":"uint256"}],"outputs":[{"name":"","type":"string","internalType":"string"}],"stateMutability":"view"},{"type":"event","name":"ApprovalForAll","inputs":[{"name":"account","type":"address","indexed":true,"internalType":"address"},{"name":"operator","type":"address","indexed":true,"internalType":"address"},{"name":"approved","type":"bool","indexed":false,"internalType":"bool"}],"anonymous":false},{"type":"event","name":"MetaTransactionExecuted","inputs":[{"name":"userAddress","type":"address","indexed":true,"internalType":"address"},{"name":"relayerAddress","type":"address","indexed":true,"internalType":"address payable"},{"name":"functionSignature","type":"bytes","indexed":false,"internalType":"bytes"}],"anonymous":false},{"type":"event","name":"RoleAdminChanged","inputs":[{"name":"role","type":"bytes32","indexed":true,"internalType":"bytes32"},{"name":"previousAdminRole","type":"bytes32","indexed":true,"internalType":"bytes32"},{"name":"newAdminRole","type":"bytes32","indexed":true,"internalType":"bytes32"}],"anonymous":false},{"type":"event","name":"RoleGranted","inputs":[{"name":"role","type":"bytes32","indexed":true,"internalType":"bytes32"},{"name":"account","type":"address","indexed":true,"internalType":"address"},{"name":"sender","type":"address","indexed":true,"internalType":"address"}],"anonymous":false},{"type":"event","name":"RoleRevoked","inputs":[{"name":"role","type":"bytes32","indexed":true,"internalType":"bytes32"},{"name":"account","type":"address","indexed":true,"internalType":"address"},{"name":"sender","type":"address","indexed":true,"internalType":"address"}],"anonymous":false},{"type":"event","name":"TransferBatch","inputs":[{"name":"operator","type":"address","indexed":true,"internalType":"address"},{"name":"from","type":"address","indexed":true,"internalType":"address"},{"name":"to","type":"address","indexed":true,"internalType":"address"},{"name":"ids","type":"uint256[]","indexed":false,"internalType":"uint256[]"},{"name":"values","type":"uint256[]","indexed":false,"internalType":"uint256[]"}],"anonymous":false},{"type":"event","name":"TransferSingle","inputs":[{"name":"operator","type":"address","indexed":true,"internalType":"address"},{"name":"from","type":"address","indexed":true,"internalType":"address"},{"name":"to","type":"address","indexed":true,"internalType":"address"},{"name":"id","type":"uint256","indexed":false,"internalType":"uint256"},{"name":"value","type":"uint256","indexed":false,"internalType":"uint256"}],"anonymous":false},{"type":"event","name":"URI","inputs":[{"name":"value","type":"string","indexed":false,"internalType":"string"},{"name":"id","type":"uint256","indexed":true,"internalType":"uint256"}],"anonymous":false}],"bytecode":{"object":"0x60806040526006805460ff191690553480156200001b57600080fd5b506040516200346738038062003467833981810160405260208110156200004157600080fd5b81019080805160405193929190846401000000008211156200006257600080fd5b9083019060208201858111156200007857600080fd5b82516401000000008111828201881017156200009357600080fd5b82525081516020918201929091019080838360005b83811015620000c2578181015183820152602001620000a8565b50505050905090810190601f168015620000f05780820380516001836020036101000a031916815260200191505b50604052508291506200011590506301ffc9a760e01b6001600160e01b036200022616565b62000129816001600160e01b03620002ab16565b62000144636cdb3d1360e11b6001600160e01b036200022616565b6200015f6303a24d0760e21b6001600160e01b036200022616565b5060408051808201909152601481527f44756d6d794d696e7461626c65455243313135350000000000000000000000006020820152620001a8906001600160e01b03620002c416565b620001d06000620001c16001600160e01b036200036616565b6001600160e01b036200038316565b604080516d5052454449434154455f524f4c4560901b8152905190819003600e0190206200020b90620001c16001600160e01b036200036616565b6200021f816001600160e01b036200039816565b50620006f0565b6001600160e01b0319808216141562000286576040805162461bcd60e51b815260206004820152601c60248201527f4552433136353a20696e76616c696420696e7465726661636520696400000000604482015290519081900360640190fd5b6001600160e01b0319166000908152602081905260409020805460ff19166001179055565b8051620002c09060039060208401906200064e565b5050565b806040516020018082805190602001908083835b60208310620002f95780518252601f199092019160209182019101620002d8565b51815160209384036101000a60001901801990921691161790527f3a20494e53554646494349454e545f5045524d495353494f4e530000000000009190930190815260408051808303600519018152601a90920190528051620002c095506005945092019190506200064e565b60006200037d6200040660201b6200272e1760201c565b90505b90565b620002c082826001600160e01b036200046516565b60065460ff1615620003e2576040805162461bcd60e51b815260206004820152600e60248201526d185b1c9958591e481a5b9a5d195960921b604482015290519081900360640190fd5b620003f6816001600160e01b03620004e916565b506006805460ff19166001179055565b600033301415620004605760606000368080601f0160208091040260200160405190810160405280939291908181526020018383808284376000920191909152505050503601516001600160a01b03169150620003809050565b503390565b60008281526004602090815260409091206200048c918390620027c8620005b1821b17901c565b15620002c057620004a56001600160e01b036200036616565b6001600160a01b0316816001600160a01b0316837f2f8788117e7eff1d82e926ec794901d17c78024a50270940304540a733656f0d60405160405180910390a45050565b6040518060800160405280604f815260200162003418604f913980516020918201208251838301206040805180820190915260018152603160f81b930192909252907fc89efdaa54c0f20c7adf612882df0950f5a951637e0307cdcb4c672f298b8bc630620005606001600160e01b03620005da16565b604080516020808201979097528082019590955260608501939093526001600160a01b03909116608084015260a0808401919091528151808403909101815260c09092019052805191012060075550565b6000620005d1836001600160a01b0384166001600160e01b03620005de16565b90505b92915050565b4690565b6000620005f583836001600160e01b036200063616565b6200062d57508154600181810184556000848152602080822090930184905584548482528286019093526040902091909155620005d4565b506000620005d4565b60009081526001919091016020526040902054151590565b828054600181600116156101000203166002900490600052602060002090601f016020900481019282601f106200069157805160ff1916838001178555620006c1565b82800160010185558215620006c1579182015b82811115620006c1578251825591602001919060010190620006a4565b50620006cf929150620006d3565b5090565b6200038091905b80821115620006cf5760008155600101620006da565b612d1880620007006000396000f3fe60806040526004361061014a5760003560e01c806336568abe116100b6578063a22cb4651161006f578063a22cb465146109c8578063ca15c87314610a03578063d547741f14610a2d578063e72db5fd14610a66578063e985e9c514610a7b578063f242432a14610ab65761014a565b806336568abe146106de5780634e1273f414610717578063731133e9146108975780639010d07c1461092e57806391d148541461097a578063a217fddf146109b35761014a565b806320379ee51161010857806320379ee514610450578063248a9ca3146104655780632d0335ab1461048f5780632eb2c2d6146104c25780632f2ff15d146106905780633408e470146106c95761014a565b8062fdd58e1461014f57806301ffc9a71461019a5780630c53c51c146101e25780630e89341c146102e45780630f7e59701461030e5780631f7fdffa14610323575b600080fd5b34801561015b57600080fd5b506101886004803603604081101561017257600080fd5b506001600160a01b038135169060200135610b8c565b60408051918252519081900360200190f35b3480156101a657600080fd5b506101ce600480360360208110156101bd57600080fd5b50356001600160e01b031916610bfe565b604080519115158252519081900360200190f35b61026f600480360360a08110156101f857600080fd5b6001600160a01b038235169190810190604081016020820135600160201b81111561022257600080fd5b82018360208201111561023457600080fd5b803590602001918460018302840111600160201b8311171561025557600080fd5b91935091508035906020810135906040013560ff16610c1d565b6040805160208082528351818301528351919283929083019185019080838360005b838110156102a9578181015183820152602001610291565b50505050905090810190601f1680156102d65780820380516001836020036101000a031916815260200191505b509250505060405180910390f35b3480156102f057600080fd5b5061026f6004803603602081101561030757600080fd5b5035610ea6565b34801561031a57600080fd5b5061026f610f3e565b34801561032f57600080fd5b5061044e6004803603608081101561034657600080fd5b6001600160a01b038235169190810190604081016020820135600160201b81111561037057600080fd5b82018360208201111561038257600080fd5b803590602001918460208302840111600160201b831117156103a357600080fd5b919390929091602081019035600160201b8111156103c057600080fd5b8201836020820111156103d257600080fd5b803590602001918460208302840111600160201b831117156103f357600080fd5b919390929091602081019035600160201b81111561041057600080fd5b82018360208201111561042257600080fd5b803590602001918460018302840111600160201b8311171561044357600080fd5b509092509050610f5b565b005b34801561045c57600080fd5b506101886110dc565b34801561047157600080fd5b506101886004803603602081101561048857600080fd5b50356110e2565b34801561049b57600080fd5b50610188600480360360208110156104b257600080fd5b50356001600160a01b03166110f7565b3480156104ce57600080fd5b5061044e600480360360a08110156104e557600080fd5b6001600160a01b038235811692602081013590911691810190606081016040820135600160201b81111561051857600080fd5b82018360208201111561052a57600080fd5b803590602001918460208302840111600160201b8311171561054b57600080fd5b9190808060200260200160405190810160405280939291908181526020018383602002808284376000920191909152509295949360208101935035915050600160201b81111561059a57600080fd5b8201836020820111156105ac57600080fd5b803590602001918460208302840111600160201b831117156105cd57600080fd5b9190808060200260200160405190810160405280939291908181526020018383602002808284376000920191909152509295949360208101935035915050600160201b81111561061c57600080fd5b82018360208201111561062e57600080fd5b803590602001918460018302840111600160201b8311171561064f57600080fd5b91908080601f016020809104026020016040519081016040528093929190818152602001838380828437600092019190915250929550611112945050505050565b34801561069c57600080fd5b5061044e600480360360408110156106b357600080fd5b50803590602001356001600160a01b0316611410565b3480156106d557600080fd5b50610188611477565b3480156106ea57600080fd5b5061044e6004803603604081101561070157600080fd5b50803590602001356001600160a01b031661147b565b34801561072357600080fd5b506108476004803603604081101561073a57600080fd5b810190602081018135600160201b81111561075457600080fd5b82018360208201111561076657600080fd5b803590602001918460208302840111600160201b8311171561078757600080fd5b9190808060200260200160405190810160405280939291908181526020018383602002808284376000920191909152509295949360208101935035915050600160201b8111156107d657600080fd5b8201836020820111156107e857600080fd5b803590602001918460208302840111600160201b8311171561080957600080fd5b9190808060200260200160405190810160405280939291908181526020018383602002808284376000920191909152509295506114dc945050505050565b60408051602080825283518183015283519192839290830191858101910280838360005b8381101561088357818101518382015260200161086b565b505050509050019250505060405180910390f35b3480156108a357600080fd5b5061044e600480360360808110156108ba57600080fd5b6001600160a01b038235169160208101359160408201359190810190608081016060820135600160201b8111156108f057600080fd5b82018360208201111561090257600080fd5b803590602001918460018302840111600160201b8311171561092357600080fd5b50909250905061165a565b34801561093a57600080fd5b5061095e6004803603604081101561095157600080fd5b5080359060200135611732565b604080516001600160a01b039092168252519081900360200190f35b34801561098657600080fd5b506101ce6004803603604081101561099d57600080fd5b50803590602001356001600160a01b0316611757565b3480156109bf57600080fd5b50610188611775565b3480156109d457600080fd5b5061044e600480360360408110156109eb57600080fd5b506001600160a01b038135169060200135151561177a565b348015610a0f57600080fd5b5061018860048036036020811015610a2657600080fd5b5035611869565b348015610a3957600080fd5b5061044e60048036036040811015610a5057600080fd5b50803590602001356001600160a01b0316611880565b348015610a7257600080fd5b506101886118d9565b348015610a8757600080fd5b506101ce60048036036040811015610a9e57600080fd5b506001600160a01b03813581169160200135166118ff565b348015610ac257600080fd5b5061044e600480360360a0811015610ad957600080fd5b6001600160a01b03823581169260208101359091169160408201359160608101359181019060a081016080820135600160201b811115610b1857600080fd5b820183602082011115610b2a57600080fd5b803590602001918460018302840111600160201b83111715610b4b57600080fd5b91908080601f01602080910402602001604051908101604052809392919081815260200183838082843760009201919091525092955061192d945050505050565b60006001600160a01b038316610bd35760405162461bcd60e51b815260040180806020018281038252602b815260200180612a5a602b913960400191505060405180910390fd5b5060008181526001602090815260408083206001600160a01b03861684529091529020545b92915050565b6001600160e01b03191660009081526020819052604090205460ff1690565b6060610c27612982565b604080516060810182526001600160a01b038a1660008181526008602090815290849020548352808301919091528251601f8a0182900482028101820184528981529192830191908a908a908190840183828082843760009201919091525050509152509050610c9a8882878787611afe565b610cd55760405162461bcd60e51b8152600401808060200182810382526021815260200180612bf86021913960400191505060405180910390fd5b6001600160a01b0388166000818152600860209081526040918290208054600101905581518181529081018990523392917f5845892132946850460bff5a0083f71031bc5bf9aadcd40f1de79423eac9b10b918b918b919081908101848480828437600083820152604051601f909101601f19169092018290039550909350505050a360006060306001600160a01b031689898c6040516020018084848082843780830192505050826001600160a01b03166001600160a01b031660601b815260140193505050506040516020818303038152906040526040518082805190602001908083835b60208310610ddb5780518252601f199092019160209182019101610dbc565b6001836020036101000a0380198251168184511680821785525050505050509050019150506000604051808303816000865af19150503d8060008114610e3d576040519150601f19603f3d011682016040523d82523d6000602084013e610e42565b606091505b509150915081610e99576040805162461bcd60e51b815260206004820152601c60248201527f46756e6374696f6e2063616c6c206e6f74207375636365737366756c00000000604482015290519081900360640190fd5b9998505050505050505050565b60038054604080516020601f6002600019610100600188161502019095169490940493840181900481028201810190925282815260609390929091830182828015610f325780601f10610f0757610100808354040283529160200191610f32565b820191906000526020600020905b815481529060010190602001808311610f1557829003601f168201915b50505050509050919050565b604051806040016040528060018152602001603160f81b81525081565b604080516d5052454449434154455f524f4c4560901b8152905190819003600e019020610f8f81610f8a611bdb565b611757565b60059061102f5760405162461bcd60e51b81526020600482019081528254600260001961010060018416150201909116046024830181905290918291604490910190849080156110205780601f10610ff557610100808354040283529160200191611020565b820191906000526020600020905b81548152906001019060200180831161100357829003601f168201915b50509250505060405180910390fd5b506110d28888888080602002602001604051908101604052809392919081815260200183836020028082843760009201919091525050604080516020808c0282810182019093528b82529093508b92508a91829185019084908082843760009201919091525050604080516020601f8b018190048102820181019092528981529250899150889081908401838280828437600092019190915250611bea92505050565b5050505050505050565b60075490565b60009081526004602052604090206002015490565b6001600160a01b031660009081526008602052604090205490565b81518351146111525760405162461bcd60e51b8152600401808060200182810382526028815260200180612c6b6028913960400191505060405180910390fd5b6001600160a01b0384166111975760405162461bcd60e51b8152600401808060200182810382526025815260200180612b776025913960400191505060405180910390fd5b61119f611bdb565b6001600160a01b0316856001600160a01b031614806111ca57506111ca856111c5611bdb565b6118ff565b6112055760405162461bcd60e51b8152600401808060200182810382526032815260200180612b9c6032913960400191505060405180910390fd5b600061120f611bdb565b905061121f818787878787611408565b60005b845181101561132057600085828151811061123957fe5b60200260200101519050600085838151811061125157fe5b602002602001015190506112be816040518060600160405280602a8152602001612bce602a91396001600086815260200190815260200160002060008d6001600160a01b03166001600160a01b0316815260200190815260200160002054611e3f9092919063ffffffff16565b60008381526001602090815260408083206001600160a01b038e811685529252808320939093558a16815220546112f59082611ed6565b60009283526001602081815260408086206001600160a01b038d168752909152909320555001611222565b50846001600160a01b0316866001600160a01b0316826001600160a01b03167f4a39dc06d4c0dbc64b70af90fd698a233a518aa5d07e595d983b8c0526c8f7fb8787604051808060200180602001838103835285818151815260200191508051906020019060200280838360005b838110156113a657818101518382015260200161138e565b50505050905001838103825284818151815260200191508051906020019060200280838360005b838110156113e55781810151838201526020016113cd565b5050505090500194505050505060405180910390a4611408818787878787611f30565b505050505050565b60008281526004602052604090206002015461142e90610f8a611bdb565b6114695760405162461bcd60e51b815260040180806020018281038252602f815260200180612a2b602f913960400191505060405180910390fd5b611473828261226e565b5050565b4690565b611483611bdb565b6001600160a01b0316816001600160a01b0316146114d25760405162461bcd60e51b815260040180806020018281038252602f815260200180612cb4602f913960400191505060405180910390fd5b61147382826122dd565b6060815183511461151e5760405162461bcd60e51b8152600401808060200182810382526029815260200180612c426029913960400191505060405180910390fd5b6060835167ffffffffffffffff8111801561153857600080fd5b50604051908082528060200260200182016040528015611562578160200160208202803683370190505b50905060005b84518110156116525760006001600160a01b031685828151811061158857fe5b60200260200101516001600160a01b031614156115d65760405162461bcd60e51b8152600401808060200182810382526031815260200180612a856031913960400191505060405180910390fd5b600160008583815181106115e657fe5b60200260200101518152602001908152602001600020600086838151811061160a57fe5b60200260200101516001600160a01b03166001600160a01b031681526020019081526020016000205482828151811061163f57fe5b6020908102919091010152600101611568565b509392505050565b604080516d5052454449434154455f524f4c4560901b8152905190819003600e01902061168981610f8a611bdb565b6005906116ef5760405162461bcd60e51b81526020600482019081528254600260001961010060018416150201909116046024830181905290918291604490910190849080156110205780601f10610ff557610100808354040283529160200191611020565b5061140886868686868080601f01602080910402602001604051908101604052809392919081815260200183838082843760009201919091525061234c92505050565b6000828152600460205260408120611750908363ffffffff61245316565b9392505050565b6000828152600460205260408120611750908363ffffffff61245f16565b600081565b816001600160a01b031661178c611bdb565b6001600160a01b031614156117d25760405162461bcd60e51b8152600401808060200182810382526029815260200180612c196029913960400191505060405180910390fd5b80600260006117df611bdb565b6001600160a01b03908116825260208083019390935260409182016000908120918716808252919093529120805460ff191692151592909217909155611823611bdb565b60408051841515815290516001600160a01b0392909216917f17307eab39ab6107e8899845ad3d59bd9653f200f220920489ca2b5937696c319181900360200190a35050565b6000818152600460205260408120610bf890612474565b60008281526004602052604090206002015461189e90610f8a611bdb565b6114d25760405162461bcd60e51b8152600401808060200182810382526030815260200180612b226030913960400191505060405180910390fd5b604080516d5052454449434154455f524f4c4560901b8152905190819003600e01902081565b6001600160a01b03918216600090815260026020908152604080832093909416825291909152205460ff1690565b6001600160a01b0384166119725760405162461bcd60e51b8152600401808060200182810382526025815260200180612b776025913960400191505060405180910390fd5b61197a611bdb565b6001600160a01b0316856001600160a01b031614806119a057506119a0856111c5611bdb565b6119db5760405162461bcd60e51b8152600401808060200182810382526029815260200180612af96029913960400191505060405180910390fd5b60006119e5611bdb565b9050611a058187876119f68861247f565b6119ff8861247f565b87611408565b611a52836040518060600160405280602a8152602001612bce602a913960008781526001602090815260408083206001600160a01b038d168452909152902054919063ffffffff611e3f16565b60008581526001602090815260408083206001600160a01b038b81168552925280832093909355871681522054611a899084611ed6565b60008581526001602090815260408083206001600160a01b03808b168086529184529382902094909455805188815291820187905280518a8416938616927fc3d58168c5ae7397731d063d5bbf3d657854427343f4c083240f7aacaa2d0f6292908290030190a46114088187878787876124c3565b60006001600160a01b038616611b455760405162461bcd60e51b8152600401808060200182810382526025815260200180612b526025913960400191505060405180910390fd5b6001611b58611b5387612656565b6126e2565b83868660405160008152602001604052604051808581526020018460ff1660ff1681526020018381526020018281526020019450505050506020604051602081039080840390855afa158015611bb2573d6000803e3d6000fd5b505050602060405103516001600160a01b0316866001600160a01b031614905095945050505050565b6000611be561272e565b905090565b6001600160a01b038416611c2f5760405162461bcd60e51b8152600401808060200182810382526021815260200180612c936021913960400191505060405180910390fd5b8151835114611c6f5760405162461bcd60e51b8152600401808060200182810382526028815260200180612c6b6028913960400191505060405180910390fd5b6000611c79611bdb565b9050611c8a81600087878787611408565b60005b8451811015611d4e57611d0560016000878481518110611ca957fe5b602002602001015181526020019081526020016000206000886001600160a01b03166001600160a01b0316815260200190815260200160002054858381518110611cef57fe5b6020026020010151611ed690919063ffffffff16565b60016000878481518110611d1557fe5b602090810291909101810151825281810192909252604090810160009081206001600160a01b038b168252909252902055600101611c8d565b50846001600160a01b031660006001600160a01b0316826001600160a01b03167f4a39dc06d4c0dbc64b70af90fd698a233a518aa5d07e595d983b8c0526c8f7fb8787604051808060200180602001838103835285818151815260200191508051906020019060200280838360005b83811015611dd5578181015183820152602001611dbd565b50505050905001838103825284818151815260200191508051906020019060200280838360005b83811015611e14578181015183820152602001611dfc565b5050505090500194505050505060405180910390a4611e3881600087878787611f30565b5050505050565b60008184841115611ece5760405162461bcd60e51b81526004018080602001828103825283818151815260200191508051906020019080838360005b83811015611e93578181015183820152602001611e7b565b50505050905090810190601f168015611ec05780820380516001836020036101000a031916815260200191505b509250505060405180910390fd5b505050900390565b600082820183811015611750576040805162461bcd60e51b815260206004820152601b60248201527f536166654d6174683a206164646974696f6e206f766572666c6f770000000000604482015290519081900360640190fd5b611f42846001600160a01b031661278c565b1561140857836001600160a01b031663bc197c8187878686866040518663ffffffff1660e01b815260040180866001600160a01b03166001600160a01b03168152602001856001600160a01b03166001600160a01b03168152602001806020018060200180602001848103845287818151815260200191508051906020019060200280838360005b83811015611fe2578181015183820152602001611fca565b50505050905001848103835286818151815260200191508051906020019060200280838360005b83811015612021578181015183820152602001612009565b50505050905001848103825285818151815260200191508051906020019080838360005b8381101561205d578181015183820152602001612045565b50505050905090810190601f16801561208a5780820380516001836020036101000a031916815260200191505b5098505050505050505050602060405180830381600087803b1580156120af57600080fd5b505af19250505080156120d457506040513d60208110156120cf57600080fd5b505160015b612216576040516000815260443d10156120f05750600061218d565b60046000803e60005160e01c6308c379a0811461211157600091505061218d565b60043d036004833e81513d602482011167ffffffffffffffff8211171561213d5760009250505061218d565b808301805167ffffffffffffffff81111561215f57600094505050505061218d565b8060208301013d860181111561217d5760009550505050505061218d565b601f01601f191660405250925050505b8061219857506121df565b60405162461bcd60e51b8152602060048201818152835160248401528351849391928392604401919085019080838360008315611e93578181015183820152602001611e7b565b60405162461bcd60e51b81526004018080602001828103825260348152602001806129ad6034913960400191505060405180910390fd5b6001600160e01b0319811663bc197c8160e01b146122655760405162461bcd60e51b8152600401808060200182810382526028815260200180612a036028913960400191505060405180910390fd5b50505050505050565b600082815260046020526040902061228c908263ffffffff6127c816565b1561147357612299611bdb565b6001600160a01b0316816001600160a01b0316837f2f8788117e7eff1d82e926ec794901d17c78024a50270940304540a733656f0d60405160405180910390a45050565b60008281526004602052604090206122fb908263ffffffff6127dd16565b1561147357612308611bdb565b6001600160a01b0316816001600160a01b0316837ff6391f5c32d9c69d2a47ea670b442974b53935d1edc7fd64eb21e047a839171b60405160405180910390a45050565b6001600160a01b0384166123915760405162461bcd60e51b8152600401808060200182810382526021815260200180612c936021913960400191505060405180910390fd5b600061239b611bdb565b90506123ad816000876119f68861247f565b60008481526001602090815260408083206001600160a01b03891684529091529020546123e0908463ffffffff611ed616565b60008581526001602090815260408083206001600160a01b03808b16808652918452828520959095558151898152928301889052815190948616927fc3d58168c5ae7397731d063d5bbf3d657854427343f4c083240f7aacaa2d0f6292908290030190a4611e38816000878787876124c3565b600061175083836127f2565b6000611750836001600160a01b038416612856565b6000610bf88261286e565b6040805160018082528183019092526060918291906020808301908036833701905050905082816000815181106124b257fe5b602090810291909101015292915050565b6124d5846001600160a01b031661278c565b1561140857836001600160a01b031663f23a6e6187878686866040518663ffffffff1660e01b815260040180866001600160a01b03166001600160a01b03168152602001856001600160a01b03166001600160a01b0316815260200184815260200183815260200180602001828103825283818151815260200191508051906020019080838360005b8381101561257657818101518382015260200161255e565b50505050905090810190601f1680156125a35780820380516001836020036101000a031916815260200191505b509650505050505050602060405180830381600087803b1580156125c657600080fd5b505af19250505080156125eb57506040513d60208110156125e657600080fd5b505160015b612607576040516000815260443d10156120f05750600061218d565b6001600160e01b0319811663f23a6e6160e01b146122655760405162461bcd60e51b8152600401808060200182810382526028815260200180612a036028913960400191505060405180910390fd5b6000604051806080016040528060438152602001612ab660439139805190602001208260000151836020015184604001518051906020012060405160200180858152602001848152602001836001600160a01b03166001600160a01b03168152602001828152602001945050505050604051602081830303815290604052805190602001209050919050565b60006126ec6110dc565b82604051602001808061190160f01b81525060020183815260200182815260200192505050604051602081830303815290604052805190602001209050919050565b6000333014156127865760606000368080601f0160208091040260200160405190810160405280939291908181526020018383808284376000920191909152505050503601516001600160a01b031691506127899050565b50335b90565b6000813f7fc5d2460186f7233c927e7db2dcc703c0e500b653ca82273b7bfad8045d85a4708181148015906127c057508115155b949350505050565b6000611750836001600160a01b038416612872565b6000611750836001600160a01b0384166128bc565b815460009082106128345760405162461bcd60e51b81526004018080602001828103825260228152602001806129e16022913960400191505060405180910390fd5b82600001828154811061284357fe5b9060005260206000200154905092915050565b60009081526001919091016020526040902054151590565b5490565b600061287e8383612856565b6128b457508154600181810184556000848152602080822090930184905584548482528286019093526040902091909155610bf8565b506000610bf8565b6000818152600183016020526040812054801561297857835460001980830191908101906000908790839081106128ef57fe5b906000526020600020015490508087600001848154811061290c57fe5b60009182526020808320909101929092558281526001898101909252604090209084019055865487908061293c57fe5b60019003818190600052602060002001600090559055866001016000878152602001908152602001600020600090556001945050505050610bf8565b6000915050610bf8565b60405180606001604052806000815260200160006001600160a01b0316815260200160608152509056fe455243313135353a207472616e7366657220746f206e6f6e2045524331313535526563656976657220696d706c656d656e746572456e756d657261626c655365743a20696e646578206f7574206f6620626f756e6473455243313135353a204552433131353552656365697665722072656a656374656420746f6b656e73416363657373436f6e74726f6c3a2073656e646572206d75737420626520616e2061646d696e20746f206772616e74455243313135353a2062616c616e636520717565727920666f7220746865207a65726f2061646472657373455243313135353a2062617463682062616c616e636520717565727920666f7220746865207a65726f20616464726573734d6574615472616e73616374696f6e2875696e74323536206e6f6e63652c616464726573732066726f6d2c62797465732066756e6374696f6e5369676e617475726529455243313135353a2063616c6c6572206973206e6f74206f776e6572206e6f7220617070726f766564416363657373436f6e74726f6c3a2073656e646572206d75737420626520616e2061646d696e20746f207265766f6b654e61746976654d6574615472616e73616374696f6e3a20494e56414c49445f5349474e4552455243313135353a207472616e7366657220746f20746865207a65726f2061646472657373455243313135353a207472616e736665722063616c6c6572206973206e6f74206f776e6572206e6f7220617070726f766564455243313135353a20696e73756666696369656e742062616c616e636520666f72207472616e736665725369676e657220616e64207369676e617475726520646f206e6f74206d61746368455243313135353a2073657474696e6720617070726f76616c2073746174757320666f722073656c66455243313135353a206163636f756e747320616e6420696473206c656e677468206d69736d61746368455243313135353a2069647320616e6420616d6f756e7473206c656e677468206d69736d61746368455243313135353a206d696e7420746f20746865207a65726f2061646472657373416363657373436f6e74726f6c3a2063616e206f6e6c792072656e6f756e636520726f6c657320666f722073656c66a2646970667358221220e7776f509e4bc85de04413074ac392bc0185c0eeba5db998d2db8d374a5ebd7664736f6c63430006060033454950373132446f6d61696e28737472696e67206e616d652c737472696e672076657273696f6e2c6164647265737320766572696679696e67436f6e74726163742c627974657333322073616c7429","linkReferences":{}},"methodIdentifiers":{"DEFAULT_ADMIN_ROLE()":"a217fddf","ERC712_VERSION()":"0f7e5970","PREDICATE_ROLE()":"e72db5fd","balanceOf(address,uint256)":"00fdd58e","balanceOfBatch(address[],uint256[])":"4e1273f4","executeMetaTransaction(address,bytes,bytes32,bytes32,uint8)":"0c53c51c","getChainId()":"3408e470","getDomainSeperator()":"20379ee5","getNonce(address)":"2d0335ab","getRoleAdmin(bytes32)":"248a9ca3","getRoleMember(bytes32,uint256)":"9010d07c","getRoleMemberCount(bytes32)":"ca15c873","grantRole(bytes32,address)":"2f2ff15d","hasRole(bytes32,address)":"91d14854","isApprovedForAll(address,address)":"e985e9c5","mint(address,uint256,uint256,bytes)":"731133e9","mintBatch(address,uint256[],uint256[],bytes)":"1f7fdffa","renounceRole(bytes32,address)":"36568abe","revokeRole(bytes32,address)":"d547741f","safeBatchTransferFrom(address,address,uint256[],uint256[],bytes)":"2eb2c2d6","safeTransferFrom(address,address,uint256,uint256,bytes)":"f242432a","setApprovalForAll(address,bool)":"a22cb465","supportsInterface(bytes4)":"01ffc9a7","uri(uint256)":"0e89341c"},"id":39}