{"abi":[{"type":"function","name":"DEFAULT_ADMIN_ROLE","inputs":[],"outputs":[{"name":"","type":"bytes32","internalType":"bytes32"}],"stateMutability":"view"},{"type":"function","name":"STATE_SYNCER_ROLE","inputs":[],"outputs":[{"name":"","type":"bytes32","internalType":"bytes32"}],"stateMutability":"view"},{"type":"function","name":"TYPE1","inputs":[],"outputs":[{"name":"","type":"bytes32","internalType":"bytes32"}],"stateMutability":"view"},{"type":"function","name":"TYPE2","inputs":[],"outputs":[{"name":"","type":"bytes32","internalType":"bytes32"}],"stateMutability":"view"},{"type":"function","name":"getRoleAdmin","inputs":[{"name":"role","type":"bytes32","internalType":"bytes32"}],"outputs":[{"name":"","type":"bytes32","internalType":"bytes32"}],"stateMutability":"view"},{"type":"function","name":"getRoleMember","inputs":[{"name":"role","type":"bytes32","internalType":"bytes32"},{"name":"index","type":"uint256","internalType":"uint256"}],"outputs":[{"name":"","type":"address","internalType":"address"}],"stateMutability":"view"},{"type":"function","name":"getRoleMemberCount","inputs":[{"name":"role","type":"bytes32","internalType":"bytes32"}],"outputs":[{"name":"","type":"uint256","internalType":"uint256"}],"stateMutability":"view"},{"type":"function","name":"grantRole","inputs":[{"name":"role","type":"bytes32","internalType":"bytes32"},{"name":"account","type":"address","internalType":"address"}],"outputs":[],"stateMutability":"nonpayable"},{"type":"function","name":"hasRole","inputs":[{"name":"role","type":"bytes32","internalType":"bytes32"},{"name":"account","type":"address","internalType":"address"}],"outputs":[{"name":"","type":"bool","internalType":"bool"}],"stateMutability":"view"},{"type":"function","name":"number","inputs":[],"outputs":[{"name":"","type":"uint256","internalType":"uint256"}],"stateMutability":"view"},{"type":"function","name":"onStateReceive","inputs":[{"name":"","type":"uint256","internalType":"uint256"},{"name":"message","type":"bytes","internalType":"bytes"}],"outputs":[],"stateMutability":"nonpayable"},{"type":"function","name":"renounceRole","inputs":[{"name":"role","type":"bytes32","internalType":"bytes32"},{"name":"account","type":"address","internalType":"address"}],"outputs":[],"stateMutability":"nonpayable"},{"type":"function","name":"revokeRole","inputs":[{"name":"role","type":"bytes32","internalType":"bytes32"},{"name":"account","type":"address","internalType":"address"}],"outputs":[],"stateMutability":"nonpayable"},{"type":"function","name":"sendMessage","inputs":[{"name":"message","type":"bytes","internalType":"bytes"}],"outputs":[],"stateMutability":"nonpayable"},{"type":"event","name":"MessageSent","inputs":[{"name":"message","type":"bytes","indexed":false,"internalType":"bytes"}],"anonymous":false},{"type":"event","name":"RoleAdminChanged","inputs":[{"name":"role","type":"bytes32","indexed":true,"internalType":"bytes32"},{"name":"previousAdminRole","type":"bytes32","indexed":true,"internalType":"bytes32"},{"name":"newAdminRole","type":"bytes32","indexed":true,"internalType":"bytes32"}],"anonymous":false},{"type":"event","name":"RoleGranted","inputs":[{"name":"role","type":"bytes32","indexed":true,"internalType":"bytes32"},{"name":"account","type":"address","indexed":true,"internalType":"address"},{"name":"sender","type":"address","indexed":true,"internalType":"address"}],"anonymous":false},{"type":"event","name":"RoleRevoked","inputs":[{"name":"role","type":"bytes32","indexed":true,"internalType":"bytes32"},{"name":"account","type":"address","indexed":true,"internalType":"address"},{"name":"sender","type":"address","indexed":true,"internalType":"address"}],"anonymous":false}],"bytecode":{"object":"0x60806040526200001a6000336001600160e01b036200009316565b604080517053544154455f53594e4345525f524f4c4560781b8152905190819003601101902062000057906110016001600160e01b036200009316565b60408051808201909152600b81526a10da1a5b19151d5b9b995b60aa1b60208201526200008d906001600160e01b03620000ac16565b62000310565b620000a882826001600160e01b036200014e16565b5050565b806040516020018082805190602001908083835b60208310620000e15780518252601f199092019160209182019101620000c0565b51815160209384036101000a60001901801990921691161790527f3a20494e53554646494349454e545f5045524d495353494f4e530000000000009190930190815260408051808303600519018152601a90920190528051620000a895506001945092019190506200026e565b60008281526020818152604090912062000173918390620008d9620001d0821b17901c565b15620000a8576200018c6001600160e01b03620001f916565b6001600160a01b0316816001600160a01b0316837f2f8788117e7eff1d82e926ec794901d17c78024a50270940304540a733656f0d60405160405180910390a45050565b6000620001f0836001600160a01b0384166001600160e01b03620001fe16565b90505b92915050565b335b90565b60006200021583836001600160e01b036200025616565b6200024d57508154600181810184556000848152602080822090930184905584548482528286019093526040902091909155620001f3565b506000620001f3565b60009081526001919091016020526040902054151590565b828054600181600116156101000203166002900490600052602060002090601f016020900481019282601f10620002b157805160ff1916838001178555620002e1565b82800160010185558215620002e1579182015b82811115620002e1578251825591602001919060010190620002c4565b50620002ef929150620002f3565b5090565b620001fb91905b80821115620002ef5760008155600101620002fa565b610b7980620003206000396000f3fe608060405234801561001057600080fd5b50600436106100ea5760003560e01c80638381f58a1161008c578063a217fddf11610066578063a217fddf146102f6578063a618f4c6146102fe578063ca15c87314610306578063d547741f14610323576100ea565b80638381f58a1461026f5780639010d07c1461027757806391d14854146102b6576100ea565b806336568abe116100c857806336568abe146101c35780634dee4498146101ef57806367cedeef146101f757806382646a58146101ff576100ea565b8063248a9ca3146100ef57806326c53bea1461011e5780632f2ff15d14610197575b600080fd5b61010c6004803603602081101561010557600080fd5b503561034f565b60408051918252519081900360200190f35b6101956004803603604081101561013457600080fd5b8135919081019060408101602082013564010000000081111561015657600080fd5b82018360208201111561016857600080fd5b8035906020019184600183028401116401000000008311171561018a57600080fd5b509092509050610364565b005b610195600480360360408110156101ad57600080fd5b50803590602001356001600160a01b0316610481565b610195600480360360408110156101d957600080fd5b50803590602001356001600160a01b03166104e8565b61010c610549565b61010c610572565b6101956004803603602081101561021557600080fd5b81019060208101813564010000000081111561023057600080fd5b82018360208201111561024257600080fd5b8035906020019184600183028401116401000000008311171561026457600080fd5b50909250905061058f565b61010c6105ce565b61029a6004803603604081101561028d57600080fd5b50803590602001356105d4565b604080516001600160a01b039092168252519081900360200190f35b6102e2600480360360408110156102cc57600080fd5b50803590602001356001600160a01b03166105fb565b604080519115158252519081900360200190f35b61010c610619565b61010c61061e565b61010c6004803603602081101561031c57600080fd5b503561063b565b6101956004803603604081101561033957600080fd5b50803590602001356001600160a01b0316610652565b60009081526020819052604090206002015490565b604080517053544154455f53594e4345525f524f4c4560781b8152905190819003601101902061039b816103966106ab565b6105fb565b60019061043b5760405162461bcd60e51b815260206004820190815282546002600019610100600184161502019091160460248301819052909182916044909101908490801561042c5780601f106104015761010080835404028352916020019161042c565b820191906000526020600020905b81548152906001019060200180831161040f57829003601f168201915b50509250505060405180910390fd5b5061047b83838080601f0160208091040260200160405190810160405280939291908181526020018383808284376000920191909152506106af92505050565b50505050565b60008281526020819052604090206002015461049f906103966106ab565b6104da5760405162461bcd60e51b815260040180806020018281038252602f815260200180610ab6602f913960400191505060405180910390fd5b6104e48282610733565b5050565b6104f06106ab565b6001600160a01b0316816001600160a01b03161461053f5760405162461bcd60e51b815260040180806020018281038252602f815260200180610b15602f913960400191505060405180910390fd5b6104e482826107a2565b604080517053544154455f53594e4345525f524f4c4560781b8152905190819003601101902081565b6040805164545950453160d81b8152905190819003600501902081565b6104e482828080601f01602080910402602001604051908101604052809392919081815260200183838082843760009201919091525061081192505050565b60025481565b60008281526020819052604081206105f2908363ffffffff6108ad16565b90505b92915050565b60008281526020819052604081206105f2908363ffffffff6108b916565b600081565b60408051642a2ca8229960d91b8152905190819003600501902081565b60008181526020819052604081206105f5906108ce565b600082815260208190526040902060020154610670906103966106ab565b61053f5760405162461bcd60e51b8152600401808060200182810382526030815260200180610ae56030913960400191505060405180910390fd5b3390565b6000808280602001905160408110156106c757600080fd5b5080516020909101516040805164545950453160d81b81529051908190036005019020919350915082141561070357600280548201905561072e565b60408051642a2ca8229960d91b8152905190819003600501902082141561072e576002805482900390555b505050565b6000828152602081905260409020610751908263ffffffff6108d916565b156104e45761075e6106ab565b6001600160a01b0316816001600160a01b0316837f2f8788117e7eff1d82e926ec794901d17c78024a50270940304540a733656f0d60405160405180910390a45050565b60008281526020819052604090206107c0908263ffffffff6108ee16565b156104e4576107cd6106ab565b6001600160a01b0316816001600160a01b0316837ff6391f5c32d9c69d2a47ea670b442974b53935d1edc7fd64eb21e047a839171b60405160405180910390a45050565b7f8c5261668696ce22758910d05bab8f186d6eb247ceac2af2e82c7dc17669b036816040518080602001828103825283818151815260200191508051906020019080838360005b83811015610870578181015183820152602001610858565b50505050905090810190601f16801561089d5780820380516001836020036101000a031916815260200191505b509250505060405180910390a150565b60006105f28383610903565b60006105f2836001600160a01b038416610967565b60006105f58261097f565b60006105f2836001600160a01b038416610983565b60006105f2836001600160a01b0384166109cd565b815460009082106109455760405162461bcd60e51b8152600401808060200182810382526022815260200180610a946022913960400191505060405180910390fd5b82600001828154811061095457fe5b9060005260206000200154905092915050565b60009081526001919091016020526040902054151590565b5490565b600061098f8383610967565b6109c5575081546001818101845560008481526020808220909301849055845484825282860190935260409020919091556105f5565b5060006105f5565b60008181526001830160205260408120548015610a895783546000198083019190810190600090879083908110610a0057fe5b9060005260206000200154905080876000018481548110610a1d57fe5b600091825260208083209091019290925582815260018981019092526040902090840190558654879080610a4d57fe5b600190038181906000526020600020016000905590558660010160008781526020019081526020016000206000905560019450505050506105f5565b60009150506105f556fe456e756d657261626c655365743a20696e646578206f7574206f6620626f756e6473416363657373436f6e74726f6c3a2073656e646572206d75737420626520616e2061646d696e20746f206772616e74416363657373436f6e74726f6c3a2073656e646572206d75737420626520616e2061646d696e20746f207265766f6b65416363657373436f6e74726f6c3a2063616e206f6e6c792072656e6f756e636520726f6c657320666f722073656c66a2646970667358221220f80dd056e48c6c8fdb25aa7709720324279a87ede0b4505578979df18bf259ff64736f6c63430006060033","linkReferences":{}},"methodIdentifiers":{"DEFAULT_ADMIN_ROLE()":"a217fddf","STATE_SYNCER_ROLE()":"4dee4498","TYPE1()":"67cedeef","TYPE2()":"a618f4c6","getRoleAdmin(bytes32)":"248a9ca3","getRoleMember(bytes32,uint256)":"9010d07c","getRoleMemberCount(bytes32)":"ca15c873","grantRole(bytes32,address)":"2f2ff15d","hasRole(bytes32,address)":"91d14854","number()":"8381f58a","onStateReceive(uint256,bytes)":"26c53bea","renounceRole(bytes32,address)":"36568abe","revokeRole(bytes32,address)":"d547741f","sendMessage(bytes)":"82646a58"},"id":72}