{"abi":[{"type":"function","name":"tryParseReceipt","inputs":[{"name":"receiptOrBytes","type":"bytes","internalType":"bytes"}],"outputs":[{"name":"","type":"tuple","internalType":"struct ExitPayloadReader.Receipt","components":[{"name":"data","type":"tuple[]","internalType":"struct RLPReader.RLPItem[]","components":[{"name":"len","type":"uint256","internalType":"uint256"},{"name":"memPtr","type":"uint256","internalType":"uint256"}]},{"name":"raw","type":"bytes","internalType":"bytes"},{"name":"logIndex","type":"uint256","internalType":"uint256"}]}],"stateMutability":"pure"}],"bytecode":{"object":"0x608060405234801561001057600080fd5b506107ec806100206000396000f3fe608060405234801561001057600080fd5b506004361061002b5760003560e01c8063ff4117e714610030575b600080fd5b61004361003e36600461063e565b610059565b6040516100509190610724565b60405180910390f35b6100616105f0565b61007261006d8361007a565b6100aa565b90505b919050565b610082610611565b6060610095610090846101a1565b6101c6565b60408051602081019091529081529392505050565b6100b26105f0565b6100d382600001516006815181106100c657fe5b60200260200101516102ae565b60208201526100e0610624565b6100ed82602001516101a1565b90506100f88161032b565b1561010d57610106816101c6565b825261018d565b602082015180516060906000190167ffffffffffffffff8111801561013157600080fd5b506040519080825280601f01601f19166020018201604052801561015c576020820181803683370190505b50905060008083602101915082602001905061017a82828551610365565b610186610090846101a1565b8652505050505b610196836103b0565b604083015250919050565b6101a9610624565b506040805180820190915281518152602082810190820152919050565b60606101d18261032b565b6101da57600080fd5b60006101e5836103d3565b905060608167ffffffffffffffff8111801561020057600080fd5b5060405190808252806020026020018201604052801561023a57816020015b610227610624565b81526020019060019003908161021f5790505b509050600061024c856020015161042f565b60208601510190506000805b848110156102a35761026983610492565b915060405180604001604052808381526020018481525084828151811061028c57fe5b602090810291909101015291810191600101610258565b509195945050505050565b80516060906102bc57600080fd5b6000806102c88461052b565b9150915060608167ffffffffffffffff811180156102e557600080fd5b506040519080825280601f01601f191660200182016040528015610310576020820181803683370190505b50905060208101610322848285610551565b50949350505050565b805160009061033c57506000610075565b6020820151805160001a9060c082101561035b57600092505050610075565b5060019392505050565b8061036f576103ab565b5b6020811061038f578251825260209283019290910190601f1901610370565b8251825160208390036101000a60001901801990921691161782525b505050565b600061007282600001516009815181106103c657fe5b60200260200101516105a2565b80516000906103e457506000610075565b600080905060006103f8846020015161042f565b602085015185519181019250015b808210156104265761041782610492565b60019093019290910190610406565b50909392505050565b8051600090811a6080811015610449576000915050610075565b60b8811080610464575060c08110801590610464575060f881105b15610473576001915050610075565b60c08110156104875760b519019050610075565b60f519019050610075565b80516000908190811a60808110156104ad5760019150610524565b60b88110156104c257607e1981019150610524565b60c08110156104ef5760b78103600185019450806020036101000a85510460018201810193505050610524565b60f88110156105045760be1981019150610524565b60f78103600185019450806020036101000a855104600182018101935050505b5092915050565b600080600061053d846020015161042f565b602085015194519481019594039392505050565b8061055b576103ab565b5b6020811061057b578251825260209283019290910190601f190161055c565b80156103ab57915181516020939093036101000a6000190180199091169216919091179052565b8051600090158015906105b757508151602110155b6105c057600080fd5b6000806105cc8461052b565b8151919350915060208210156105e85760208290036101000a90045b949350505050565b60405180606001604052806060815260200160608152602001600081525090565b6040518060200160405280606081525090565b604051806040016040528060008152602001600081525090565b60006020828403121561064f578081fd5b813567ffffffffffffffff80821115610666578283fd5b81840185601f820112610677578384fd5b8035925081831115610687578384fd5b604051601f8401601f1916810160200183811182821017156106a7578586fd5b6040528381528184016020018710156106be578485fd5b6106cf8460208301602085016107aa565b9695505050505050565b60008151808452815b818110156106fe576020818501810151868301820152016106e2565b8181111561070f5782602083870101525b50601f01601f19169290920160200192915050565b6020808252825160608383015280516080840181905260009291820190839060a08601905b8083101561077457835180518352850151858301529284019260019290920191604090910190610749565b5086840151868203601f19016040880152925061079181846106d9565b9350505050604084015160608401528091505092915050565b8281833750600091015256fea2646970667358221220662e57cbf198128a958e01a13a16063e3e874b7f4263cbd9a2d618b4d3c8f22964736f6c63430006060033","linkReferences":{}},"methodIdentifiers":{"tryParseReceipt(bytes)":"ff4117e7"},"id":26}