{"abi":[{"type":"function","name":"DEFAULT_ADMIN_ROLE","inputs":[],"outputs":[{"name":"","type":"bytes32","internalType":"bytes32"}],"stateMutability":"view"},{"type":"function","name":"DEPOSITOR_ROLE","inputs":[],"outputs":[{"name":"","type":"bytes32","internalType":"bytes32"}],"stateMutability":"view"},{"type":"function","name":"ERC712_VERSION","inputs":[],"outputs":[{"name":"","type":"string","internalType":"string"}],"stateMutability":"view"},{"type":"function","name":"PERMIT_TYPEHASH","inputs":[],"outputs":[{"name":"","type":"bytes32","internalType":"bytes32"}],"stateMutability":"view"},{"type":"function","name":"allowance","inputs":[{"name":"owner","type":"address","internalType":"address"},{"name":"spender","type":"address","internalType":"address"}],"outputs":[{"name":"","type":"uint256","internalType":"uint256"}],"stateMutability":"view"},{"type":"function","name":"approve","inputs":[{"name":"spender","type":"address","internalType":"address"},{"name":"amount","type":"uint256","internalType":"uint256"}],"outputs":[{"name":"","type":"bool","internalType":"bool"}],"stateMutability":"nonpayable"},{"type":"function","name":"balanceOf","inputs":[{"name":"account","type":"address","internalType":"address"}],"outputs":[{"name":"","type":"uint256","internalType":"uint256"}],"stateMutability":"view"},{"type":"function","name":"changeName","inputs":[{"name":"name_","type":"string","internalType":"string"}],"outputs":[],"stateMutability":"nonpayable"},{"type":"function","name":"decimals","inputs":[],"outputs":[{"name":"","type":"uint8","internalType":"uint8"}],"stateMutability":"view"},{"type":"function","name":"decreaseAllowance","inputs":[{"name":"spender","type":"address","internalType":"address"},{"name":"subtractedValue","type":"uint256","internalType":"uint256"}],"outputs":[{"name":"","type":"bool","internalType":"bool"}],"stateMutability":"nonpayable"},{"type":"function","name":"deposit","inputs":[{"name":"user","type":"address","internalType":"address"},{"name":"depositData","type":"bytes","internalType":"bytes"}],"outputs":[],"stateMutability":"nonpayable"},{"type":"function","name":"executeMetaTransaction","inputs":[{"name":"userAddress","type":"address","internalType":"address"},{"name":"functionSignature","type":"bytes","internalType":"bytes"},{"name":"sigR","type":"bytes32","internalType":"bytes32"},{"name":"sigS","type":"bytes32","internalType":"bytes32"},{"name":"sigV","type":"uint8","internalType":"uint8"}],"outputs":[{"name":"","type":"bytes","internalType":"bytes"}],"stateMutability":"payable"},{"type":"function","name":"getChainId","inputs":[],"outputs":[{"name":"","type":"uint256","internalType":"uint256"}],"stateMutability":"pure"},{"type":"function","name":"getDomainSeperator","inputs":[],"outputs":[{"name":"","type":"bytes32","internalType":"bytes32"}],"stateMutability":"view"},{"type":"function","name":"getNonce","inputs":[{"name":"user","type":"address","internalType":"address"}],"outputs":[{"name":"nonce","type":"uint256","internalType":"uint256"}],"stateMutability":"view"},{"type":"function","name":"getRoleAdmin","inputs":[{"name":"role","type":"bytes32","internalType":"bytes32"}],"outputs":[{"name":"","type":"bytes32","internalType":"bytes32"}],"stateMutability":"view"},{"type":"function","name":"getRoleMember","inputs":[{"name":"role","type":"bytes32","internalType":"bytes32"},{"name":"index","type":"uint256","internalType":"uint256"}],"outputs":[{"name":"","type":"address","internalType":"address"}],"stateMutability":"view"},{"type":"function","name":"getRoleMemberCount","inputs":[{"name":"role","type":"bytes32","internalType":"bytes32"}],"outputs":[{"name":"","type":"uint256","internalType":"uint256"}],"stateMutability":"view"},{"type":"function","name":"grantRole","inputs":[{"name":"role","type":"bytes32","internalType":"bytes32"},{"name":"account","type":"address","internalType":"address"}],"outputs":[],"stateMutability":"nonpayable"},{"type":"function","name":"hasRole","inputs":[{"name":"role","type":"bytes32","internalType":"bytes32"},{"name":"account","type":"address","internalType":"address"}],"outputs":[{"name":"","type":"bool","internalType":"bool"}],"stateMutability":"view"},{"type":"function","name":"increaseAllowance","inputs":[{"name":"spender","type":"address","internalType":"address"},{"name":"addedValue","type":"uint256","internalType":"uint256"}],"outputs":[{"name":"","type":"bool","internalType":"bool"}],"stateMutability":"nonpayable"},{"type":"function","name":"initialize","inputs":[{"name":"name_","type":"string","internalType":"string"},{"name":"symbol_","type":"string","internalType":"string"},{"name":"decimals_","type":"uint8","internalType":"uint8"},{"name":"childChainManager","type":"address","internalType":"address"}],"outputs":[],"stateMutability":"nonpayable"},{"type":"function","name":"move","inputs":[{"name":"src","type":"address","internalType":"address"},{"name":"dst","type":"address","internalType":"address"},{"name":"wad","type":"uint256","internalType":"uint256"}],"outputs":[],"stateMutability":"nonpayable"},{"type":"function","name":"name","inputs":[],"outputs":[{"name":"","type":"string","internalType":"string"}],"stateMutability":"view"},{"type":"function","name":"permit","inputs":[{"name":"holder","type":"address","internalType":"address"},{"name":"spender","type":"address","internalType":"address"},{"name":"nonce","type":"uint256","internalType":"uint256"},{"name":"expiry","type":"uint256","internalType":"uint256"},{"name":"allowed","type":"bool","internalType":"bool"},{"name":"v","type":"uint8","internalType":"uint8"},{"name":"r","type":"bytes32","internalType":"bytes32"},{"name":"s","type":"bytes32","internalType":"bytes32"}],"outputs":[],"stateMutability":"nonpayable"},{"type":"function","name":"pull","inputs":[{"name":"usr","type":"address","internalType":"address"},{"name":"wad","type":"uint256","internalType":"uint256"}],"outputs":[],"stateMutability":"nonpayable"},{"type":"function","name":"push","inputs":[{"name":"usr","type":"address","internalType":"address"},{"name":"wad","type":"uint256","internalType":"uint256"}],"outputs":[],"stateMutability":"nonpayable"},{"type":"function","name":"renounceRole","inputs":[{"name":"role","type":"bytes32","internalType":"bytes32"},{"name":"account","type":"address","internalType":"address"}],"outputs":[],"stateMutability":"nonpayable"},{"type":"function","name":"revokeRole","inputs":[{"name":"role","type":"bytes32","internalType":"bytes32"},{"name":"account","type":"address","internalType":"address"}],"outputs":[],"stateMutability":"nonpayable"},{"type":"function","name":"symbol","inputs":[],"outputs":[{"name":"","type":"string","internalType":"string"}],"stateMutability":"view"},{"type":"function","name":"totalSupply","inputs":[],"outputs":[{"name":"","type":"uint256","internalType":"uint256"}],"stateMutability":"view"},{"type":"function","name":"transfer","inputs":[{"name":"recipient","type":"address","internalType":"address"},{"name":"amount","type":"uint256","internalType":"uint256"}],"outputs":[{"name":"","type":"bool","internalType":"bool"}],"stateMutability":"nonpayable"},{"type":"function","name":"transferFrom","inputs":[{"name":"sender","type":"address","internalType":"address"},{"name":"recipient","type":"address","internalType":"address"},{"name":"amount","type":"uint256","internalType":"uint256"}],"outputs":[{"name":"","type":"bool","internalType":"bool"}],"stateMutability":"nonpayable"},{"type":"function","name":"withdraw","inputs":[{"name":"amount","type":"uint256","internalType":"uint256"}],"outputs":[],"stateMutability":"nonpayable"},{"type":"event","name":"Approval","inputs":[{"name":"owner","type":"address","indexed":true,"internalType":"address"},{"name":"spender","type":"address","indexed":true,"internalType":"address"},{"name":"value","type":"uint256","indexed":false,"internalType":"uint256"}],"anonymous":false},{"type":"event","name":"MetaTransactionExecuted","inputs":[{"name":"userAddress","type":"address","indexed":true,"internalType":"address"},{"name":"relayerAddress","type":"address","indexed":true,"internalType":"address payable"},{"name":"functionSignature","type":"bytes","indexed":false,"internalType":"bytes"}],"anonymous":false},{"type":"event","name":"RoleAdminChanged","inputs":[{"name":"role","type":"bytes32","indexed":true,"internalType":"bytes32"},{"name":"previousAdminRole","type":"bytes32","indexed":true,"internalType":"bytes32"},{"name":"newAdminRole","type":"bytes32","indexed":true,"internalType":"bytes32"}],"anonymous":false},{"type":"event","name":"RoleGranted","inputs":[{"name":"role","type":"bytes32","indexed":true,"internalType":"bytes32"},{"name":"account","type":"address","indexed":true,"internalType":"address"},{"name":"sender","type":"address","indexed":true,"internalType":"address"}],"anonymous":false},{"type":"event","name":"RoleRevoked","inputs":[{"name":"role","type":"bytes32","indexed":true,"internalType":"bytes32"},{"name":"account","type":"address","indexed":true,"internalType":"address"},{"name":"sender","type":"address","indexed":true,"internalType":"address"}],"anonymous":false},{"type":"event","name":"Transfer","inputs":[{"name":"from","type":"address","indexed":true,"internalType":"address"},{"name":"to","type":"address","indexed":true,"internalType":"address"},{"name":"value","type":"uint256","indexed":false,"internalType":"uint256"}],"anonymous":false}],"bytecode":{"object":"0x6008805460ff191690556000608081815260c060405260a082815290916200002c90600390839062000058565b5080516200004290600490602084019062000058565b50506005805460ff1916601217905550620000fd565b828054600181600116156101000203166002900490600052602060002090601f016020900481019282601f106200009b57805160ff1916838001178555620000cb565b82800160010185558215620000cb579182015b82811115620000cb578251825591602001919060010190620000ae565b50620000d9929150620000dd565b5090565b620000fa91905b80821115620000d95760008155600101620000e4565b90565b612930806200010d6000396000f3fe6080604052600436106101f95760003560e01c806370a082311161010d578063a9059cbb116100a0578063cf2c52cb1161006f578063cf2c52cb14610870578063d547741f146108fb578063dd62ed3e14610934578063de7ea79d1461096f578063f2d5d56b14610a4c576101f9565b8063a9059cbb14610791578063b753a98c146107ca578063bb35783b14610803578063ca15c87314610846576101f9565b806395d89b41116100dc57806395d89b4114610719578063a217fddf1461072e578063a3b0b5a314610743578063a457c2d714610758576101f9565b806370a08231146105fa5780638fcbaf0c1461062d5780639010d07c1461069457806391d14854146106e0576101f9565b80632d0335ab11610190578063313ce5671161015f578063313ce567146104cd5780633408e470146104f857806336568abe1461050d57806339509351146105465780635353a2d81461057f576101f9565b80632d0335ab146104205780632e1a7d4d146104535780632f2ff15d1461047f57806330adf81f146104b8576101f9565b806318160ddd116101cc57806318160ddd1461037757806320379ee51461039e57806323b872dd146103b3578063248a9ca3146103f6576101f9565b806306fdde03146101fe578063095ea7b3146102885780630c53c51c146102d55780630f7e597014610362575b600080fd5b34801561020a57600080fd5b50610213610a85565b6040805160208082528351818301528351919283929083019185019080838360005b8381101561024d578181015183820152602001610235565b50505050905090810190601f16801561027a5780820380516001836020036101000a031916815260200191505b509250505060405180910390f35b34801561029457600080fd5b506102c1600480360360408110156102ab57600080fd5b506001600160a01b038135169060200135610b1c565b604080519115158252519081900360200190f35b610213600480360360a08110156102eb57600080fd5b6001600160a01b038235169190810190604081016020820135600160201b81111561031557600080fd5b82018360208201111561032757600080fd5b803590602001918460018302840111600160201b8311171561034857600080fd5b91935091508035906020810135906040013560ff16610b3a565b34801561036e57600080fd5b50610213610dc3565b34801561038357600080fd5b5061038c610de0565b60408051918252519081900360200190f35b3480156103aa57600080fd5b5061038c610de6565b3480156103bf57600080fd5b506102c1600480360360608110156103d657600080fd5b506001600160a01b03813581169160208101359091169060400135610dec565b34801561040257600080fd5b5061038c6004803603602081101561041957600080fd5b5035610e79565b34801561042c57600080fd5b5061038c6004803603602081101561044357600080fd5b50356001600160a01b0316610e8e565b34801561045f57600080fd5b5061047d6004803603602081101561047657600080fd5b5035610ea9565b005b34801561048b57600080fd5b5061047d600480360360408110156104a257600080fd5b50803590602001356001600160a01b0316610ebd565b3480156104c457600080fd5b5061038c610f29565b3480156104d957600080fd5b506104e2610f4d565b6040805160ff9092168252519081900360200190f35b34801561050457600080fd5b5061038c610f56565b34801561051957600080fd5b5061047d6004803603604081101561053057600080fd5b50803590602001356001600160a01b0316610f5a565b34801561055257600080fd5b506102c16004803603604081101561056957600080fd5b506001600160a01b038135169060200135610fbb565b34801561058b57600080fd5b5061047d600480360360208110156105a257600080fd5b810190602081018135600160201b8111156105bc57600080fd5b8201836020820111156105ce57600080fd5b803590602001918460018302840111600160201b831117156105ef57600080fd5b50909250905061100f565b34801561060657600080fd5b5061038c6004803603602081101561061d57600080fd5b50356001600160a01b0316611141565b34801561063957600080fd5b5061047d600480360361010081101561065157600080fd5b506001600160a01b038135811691602081013590911690604081013590606081013590608081013515159060ff60a0820135169060c08101359060e0013561115c565b3480156106a057600080fd5b506106c4600480360360408110156106b757600080fd5b508035906020013561146f565b604080516001600160a01b039092168252519081900360200190f35b3480156106ec57600080fd5b506102c16004803603604081101561070357600080fd5b50803590602001356001600160a01b0316611494565b34801561072557600080fd5b506102136114b2565b34801561073a57600080fd5b5061038c611513565b34801561074f57600080fd5b5061038c611518565b34801561076457600080fd5b506102c16004803603604081101561077b57600080fd5b506001600160a01b03813516906020013561153e565b34801561079d57600080fd5b506102c1600480360360408110156107b457600080fd5b506001600160a01b0381351690602001356115ac565b3480156107d657600080fd5b5061047d600480360360408110156107ed57600080fd5b506001600160a01b0381351690602001356115c0565b34801561080f57600080fd5b5061047d6004803603606081101561082657600080fd5b506001600160a01b038135811691602081013590911690604001356115cb565b34801561085257600080fd5b5061038c6004803603602081101561086957600080fd5b50356115dc565b34801561087c57600080fd5b5061047d6004803603604081101561089357600080fd5b6001600160a01b038235169190810190604081016020820135600160201b8111156108bd57600080fd5b8201836020820111156108cf57600080fd5b803590602001918460018302840111600160201b831117156108f057600080fd5b5090925090506115f3565b34801561090757600080fd5b5061047d6004803603604081101561091e57600080fd5b50803590602001356001600160a01b03166116b0565b34801561094057600080fd5b5061038c6004803603604081101561095757600080fd5b506001600160a01b0381358116916020013516611709565b34801561097b57600080fd5b5061047d6004803603608081101561099257600080fd5b810190602081018135600160201b8111156109ac57600080fd5b8201836020820111156109be57600080fd5b803590602001918460018302840111600160201b831117156109df57600080fd5b919390929091602081019035600160201b8111156109fc57600080fd5b820183602082011115610a0e57600080fd5b803590602001918460018302840111600160201b83111715610a2f57600080fd5b9193509150803560ff1690602001356001600160a01b0316611734565b348015610a5857600080fd5b5061047d60048036036040811015610a6f57600080fd5b506001600160a01b0381351690602001356118d8565b60038054604080516020601f6002600019610100600188161502019095169490940493840181900481028201810190925282815260609390929091830182828015610b115780601f10610ae657610100808354040283529160200191610b11565b820191906000526020600020905b815481529060010190602001808311610af457829003601f168201915b505050505090505b90565b6000610b30610b296118e3565b84846118f2565b5060015b92915050565b6060610b4461254a565b604080516060810182526001600160a01b038a166000818152600a602090815290849020548352808301919091528251601f8a0182900482028101820184528981529192830191908a908a908190840183828082843760009201919091525050509152509050610bb788828787876119de565b610bf25760405162461bcd60e51b81526004018080602001828103825260218152602001806127fa6021913960400191505060405180910390fd5b6001600160a01b0388166000818152600a60209081526040918290208054600101905581518181529081018990523392917f5845892132946850460bff5a0083f71031bc5bf9aadcd40f1de79423eac9b10b918b918b919081908101848480828437600083820152604051601f909101601f19169092018290039550909350505050a360006060306001600160a01b031689898c6040516020018084848082843780830192505050826001600160a01b03166001600160a01b031660601b815260140193505050506040516020818303038152906040526040518082805190602001908083835b60208310610cf85780518252601f199092019160209182019101610cd9565b6001836020036101000a0380198251168184511680821785525050505050509050019150506000604051808303816000865af19150503d8060008114610d5a576040519150601f19603f3d011682016040523d82523d6000602084013e610d5f565b606091505b509150915081610db6576040805162461bcd60e51b815260206004820152601c60248201527f46756e6374696f6e2063616c6c206e6f74207375636365737366756c00000000604482015290519081900360640190fd5b9998505050505050505050565b604051806040016040528060018152602001603160f81b81525081565b60025490565b60095490565b6000610df9848484611abb565b610e6f84610e056118e3565b610e6a856040518060600160405280602881526020016127d2602891396001600160a01b038a16600090815260016020526040812090610e436118e3565b6001600160a01b03168152602081019190915260400160002054919063ffffffff611c2216565b6118f2565b5060019392505050565b60009081526006602052604090206002015490565b6001600160a01b03166000908152600a602052604090205490565b610eba610eb46118e3565b82611cb9565b50565b600082815260066020526040902060020154610ee090610edb6118e3565b611494565b610f1b5760405162461bcd60e51b815260040180806020018281038252602f815260200180612652602f913960400191505060405180910390fd5b610f258282611dc1565b5050565b7fea2aa0a1be11a07ed86d755c93467f4f82362b452371d1ba94d1715123511acb81565b60055460ff1690565b4690565b610f626118e3565b6001600160a01b0316816001600160a01b031614610fb15760405162461bcd60e51b815260040180806020018281038252602f8152602001806128aa602f913960400191505060405180910390fd5b610f258282611e30565b6000610b30610fc86118e3565b84610e6a8560016000610fd96118e3565b6001600160a01b03908116825260208083019390935260409182016000908120918c16815292529020549063ffffffff611e9f16565b600061101d81610edb6118e3565b6007906110bd5760405162461bcd60e51b81526020600482019081528254600260001961010060018416150201909116046024830181905290918291604490910190849080156110ae5780601f10611083576101008083540402835291602001916110ae565b820191906000526020600020905b81548152906001019060200180831161109157829003601f168201915b50509250505060405180910390fd5b506110fd83838080601f016020809104026020016040519081016040528093929190818152602001838380828437600092019190915250611ef992505050565b61113c83838080601f016020809104026020016040519081016040528093929190818152602001838380828437600092019190915250611f0c92505050565b505050565b6001600160a01b031660009081526020819052604090205490565b6001600160a01b0388166111b0576040805162461bcd60e51b8152602060048201526016602482015275554368696c644441493a20484f4c4445522d5a45524f60501b604482015290519081900360640190fd5b60006111ba610de6565b604080517fea2aa0a1be11a07ed86d755c93467f4f82362b452371d1ba94d1715123511acb6020808301919091526001600160a01b03808e16838501528c166060830152608082018b905260a082018a905288151560c0808401919091528351808403909101815260e08301845280519082012061190160f01b610100840152610102830194909452610122808301949094528251808303909401845261014282018084528451948201949094206000909452610162820180845284905260ff88166101828301526101a282018790526101c2820186905291519293506001926101e28083019392601f198301929081900390910190855afa1580156112c4573d6000803e3d6000fd5b505050602060405103516001600160a01b0316896001600160a01b031614611333576040805162461bcd60e51b815260206004820152601960248201527f554368696c644441493a20494e56414c49442d5045524d495400000000000000604482015290519081900360640190fd5b8515806113405750854211155b611391576040805162461bcd60e51b815260206004820152601960248201527f554368696c644441493a205045524d49542d4558504952454400000000000000604482015290519081900360640190fd5b6001600160a01b0389166000908152600a602052604090208054600181019091558714611405576040805162461bcd60e51b815260206004820152601860248201527f554368696c644441493a20494e56414c49442d4e4f4e43450000000000000000604482015290519081900360640190fd5b333014156114445760405162461bcd60e51b81526004018080602001828103825260228152602001806128d96022913960400191505060405180910390fd5b600085611452576000611456565b6000195b90506114638a8a836118f2565b50505050505050505050565b600082815260066020526040812061148d908363ffffffff611fc816565b9392505050565b600082815260066020526040812061148d908363ffffffff611fd416565b60048054604080516020601f6002600019610100600188161502019095169490940493840181900481028201810190925282815260609390929091830182828015610b115780601f10610ae657610100808354040283529160200191610b11565b600081565b604080516d4445504f5349544f525f524f4c4560901b8152905190819003600e01902081565b6000610b3061154b6118e3565b84610e6a8560405180606001604052806025815260200161288560259139600160006115756118e3565b6001600160a01b03908116825260208083019390935260409182016000908120918d1681529252902054919063ffffffff611c2216565b6000610b306115b96118e3565b8484611abb565b61113c338383610dec565b6115d6838383610dec565b50505050565b6000818152600660205260408120610b3490611fe9565b604080516d4445504f5349544f525f524f4c4560901b8152905190819003600e01902061162281610edb6118e3565b6007906116885760405162461bcd60e51b81526020600482019081528254600260001961010060018416150201909116046024830181905290918291604490910190849080156110ae5780601f10611083576101008083540402835291602001916110ae565b5060008383602081101561169b57600080fd5b503590506116a98582611ff4565b5050505050565b6000828152600660205260409020600201546116ce90610edb6118e3565b610fb15760405162461bcd60e51b815260040180806020018281038252603081526020018061277d6030913960400191505060405180910390fd5b6001600160a01b03918216600090815260016020908152604080832093909416825291909152205490565b60085460ff161561177d576040805162461bcd60e51b815260206004820152600e60248201526d185b1c9958591e481a5b9a5d195960921b604482015290519081900360640190fd5b6117bc86868080601f016020809104026020016040519081016040528093929190818152602001838380828437600092019190915250611ef992505050565b6117fb84848080601f0160208091040260200160405190810160405280939291908181526020018383808284376000920191909152506120f092505050565b61180482612103565b611845848460405160200180806410da1a5b1960da1b8152506005018383808284378083019250505092505050604051602081830303815290604052612119565b61185760006118526118e3565b610f1b565b604080516d4445504f5349544f525f524f4c4560901b8152905190819003600e0190206118849082610f1b565b6118c386868080601f0160208091040260200160405190810160405280939291908181526020018383808284376000920191909152506121b792505050565b50506008805460ff1916600117905550505050565b61113c823383610dec565b60006118ed612219565b905090565b6001600160a01b0383166119375760405162461bcd60e51b81526004018080602001828103825260248152602001806128616024913960400191505060405180910390fd5b6001600160a01b03821661197c5760405162461bcd60e51b81526004018080602001828103825260228152602001806126e66022913960400191505060405180910390fd5b6001600160a01b03808416600081815260016020908152604080832094871680845294825291829020859055815185815291517f8c5be1e5ebec7d5bd14f71427d1e84f3dd0314c0f7b2291e5b200ac8c7c3b9259281900390910190a3505050565b60006001600160a01b038616611a255760405162461bcd60e51b81526004018080602001828103825260258152602001806127ad6025913960400191505060405180910390fd5b6001611a38611a3387612276565b612302565b83868660405160008152602001604052604051808581526020018460ff1660ff1681526020018381526020018281526020019450505050506020604051602081039080840390855afa158015611a92573d6000803e3d6000fd5b505050602060405103516001600160a01b0316866001600160a01b031614905095945050505050565b6001600160a01b038316611b005760405162461bcd60e51b815260040180806020018281038252602581526020018061283c6025913960400191505060405180910390fd5b6001600160a01b038216611b455760405162461bcd60e51b815260040180806020018281038252602381526020018061262f6023913960400191505060405180910390fd5b611b5083838361113c565b611b9381604051806060016040528060268152602001612757602691396001600160a01b038616600090815260208190526040902054919063ffffffff611c2216565b6001600160a01b038085166000908152602081905260408082209390935590841681522054611bc8908263ffffffff611e9f16565b6001600160a01b038084166000818152602081815260409182902094909455805185815290519193928716927fddf252ad1be2c89b69c2b068fc378daa952ba7f163c4a11628f55a4df523b3ef92918290030190a3505050565b60008184841115611cb15760405162461bcd60e51b81526004018080602001828103825283818151815260200191508051906020019080838360005b83811015611c76578181015183820152602001611c5e565b50505050905090810190601f168015611ca35780820380516001836020036101000a031916815260200191505b509250505060405180910390fd5b505050900390565b6001600160a01b038216611cfe5760405162461bcd60e51b815260040180806020018281038252602181526020018061281b6021913960400191505060405180910390fd5b611d0a8260008361113c565b611d4d81604051806060016040528060228152602001612681602291396001600160a01b038516600090815260208190526040902054919063ffffffff611c2216565b6001600160a01b038316600090815260208190526040902055600254611d79908263ffffffff61234e16565b6002556040805182815290516000916001600160a01b038516917fddf252ad1be2c89b69c2b068fc378daa952ba7f163c4a11628f55a4df523b3ef9181900360200190a35050565b6000828152600660205260409020611ddf908263ffffffff61239016565b15610f2557611dec6118e3565b6001600160a01b0316816001600160a01b0316837f2f8788117e7eff1d82e926ec794901d17c78024a50270940304540a733656f0d60405160405180910390a45050565b6000828152600660205260409020611e4e908263ffffffff6123a516565b15610f2557611e5b6118e3565b6001600160a01b0316816001600160a01b0316837ff6391f5c32d9c69d2a47ea670b442974b53935d1edc7fd64eb21e047a839171b60405160405180910390a45050565b60008282018381101561148d576040805162461bcd60e51b815260206004820152601b60248201527f536166654d6174683a206164646974696f6e206f766572666c6f770000000000604482015290519081900360640190fd5b8051610f25906003906020840190612574565b6040518060800160405280604f8152602001612708604f913980516020918201208251838301206040805180820190915260018152603160f81b930192909252907fc89efdaa54c0f20c7adf612882df0950f5a951637e0307cdcb4c672f298b8bc630611f77610f56565b604080516020808201979097528082019590955260608501939093526001600160a01b03909116608084015260a0808401919091528151808403909101815260c09092019052805191012060095550565b600061148d83836123ba565b600061148d836001600160a01b03841661241e565b6000610b3482612436565b6001600160a01b03821661204f576040805162461bcd60e51b815260206004820152601f60248201527f45524332303a206d696e7420746f20746865207a65726f206164647265737300604482015290519081900360640190fd5b61205b6000838361113c565b60025461206e908263ffffffff611e9f16565b6002556001600160a01b03821660009081526020819052604090205461209a908263ffffffff611e9f16565b6001600160a01b0383166000818152602081815260408083209490945583518581529351929391927fddf252ad1be2c89b69c2b068fc378daa952ba7f163c4a11628f55a4df523b3ef9281900390910190a35050565b8051610f25906004906020840190612574565b6005805460ff191660ff92909216919091179055565b806040516020018082805190602001908083835b6020831061214c5780518252601f19909201916020918201910161212d565b51815160209384036101000a60001901801990921691161790527f3a20494e53554646494349454e545f5045524d495353494f4e530000000000009190930190815260408051808303600519018152601a90920190528051610f259550600794509201919050612574565b60085460ff1615612200576040805162461bcd60e51b815260206004820152600e60248201526d185b1c9958591e481a5b9a5d195960921b604482015290519081900360640190fd5b61220981611f0c565b506008805460ff19166001179055565b6000333014156122715760606000368080601f0160208091040260200160405190810160405280939291908181526020018383808284376000920191909152505050503601516001600160a01b03169150610b199050565b503390565b60006040518060800160405280604381526020016126a360439139805190602001208260000151836020015184604001518051906020012060405160200180858152602001848152602001836001600160a01b03166001600160a01b03168152602001828152602001945050505050604051602081830303815290604052805190602001209050919050565b600061230c610de6565b82604051602001808061190160f01b81525060020183815260200182815260200192505050604051602081830303815290604052805190602001209050919050565b600061148d83836040518060400160405280601e81526020017f536166654d6174683a207375627472616374696f6e206f766572666c6f770000815250611c22565b600061148d836001600160a01b03841661243a565b600061148d836001600160a01b038416612484565b815460009082106123fc5760405162461bcd60e51b815260040180806020018281038252602281526020018061260d6022913960400191505060405180910390fd5b82600001828154811061240b57fe5b9060005260206000200154905092915050565b60009081526001919091016020526040902054151590565b5490565b6000612446838361241e565b61247c57508154600181810184556000848152602080822090930184905584548482528286019093526040902091909155610b34565b506000610b34565b6000818152600183016020526040812054801561254057835460001980830191908101906000908790839081106124b757fe5b90600052602060002001549050808760000184815481106124d457fe5b60009182526020808320909101929092558281526001898101909252604090209084019055865487908061250457fe5b60019003818190600052602060002001600090559055866001016000878152602001908152602001600020600090556001945050505050610b34565b6000915050610b34565b60405180606001604052806000815260200160006001600160a01b03168152602001606081525090565b828054600181600116156101000203166002900490600052602060002090601f016020900481019282601f106125b557805160ff19168380011785556125e2565b828001600101855582156125e2579182015b828111156125e25782518255916020019190600101906125c7565b506125ee9291506125f2565b5090565b610b1991905b808211156125ee57600081556001016125f856fe456e756d657261626c655365743a20696e646578206f7574206f6620626f756e647345524332303a207472616e7366657220746f20746865207a65726f2061646472657373416363657373436f6e74726f6c3a2073656e646572206d75737420626520616e2061646d696e20746f206772616e7445524332303a206275726e20616d6f756e7420657863656564732062616c616e63654d6574615472616e73616374696f6e2875696e74323536206e6f6e63652c616464726573732066726f6d2c62797465732066756e6374696f6e5369676e61747572652945524332303a20617070726f766520746f20746865207a65726f2061646472657373454950373132446f6d61696e28737472696e67206e616d652c737472696e672076657273696f6e2c6164647265737320766572696679696e67436f6e74726163742c627974657333322073616c742945524332303a207472616e7366657220616d6f756e7420657863656564732062616c616e6365416363657373436f6e74726f6c3a2073656e646572206d75737420626520616e2061646d696e20746f207265766f6b654e61746976654d6574615472616e73616374696f6e3a20494e56414c49445f5349474e455245524332303a207472616e7366657220616d6f756e74206578636565647320616c6c6f77616e63655369676e657220616e64207369676e617475726520646f206e6f74206d6174636845524332303a206275726e2066726f6d20746865207a65726f206164647265737345524332303a207472616e736665722066726f6d20746865207a65726f206164647265737345524332303a20617070726f76652066726f6d20746865207a65726f206164647265737345524332303a2064656372656173656420616c6c6f77616e63652062656c6f77207a65726f416363657373436f6e74726f6c3a2063616e206f6e6c792072656e6f756e636520726f6c657320666f722073656c66554368696c644441493a205045524d49545f4d4554415f54585f44495341424c4544a2646970667358221220c2774b6da1817131bf7fff21f4eba18a24c67f19754769d937f9b07dea32cf2164736f6c63430006060033","linkReferences":{}},"methodIdentifiers":{"DEFAULT_ADMIN_ROLE()":"a217fddf","DEPOSITOR_ROLE()":"a3b0b5a3","ERC712_VERSION()":"0f7e5970","PERMIT_TYPEHASH()":"30adf81f","allowance(address,address)":"dd62ed3e","approve(address,uint256)":"095ea7b3","balanceOf(address)":"70a08231","changeName(string)":"5353a2d8","decimals()":"313ce567","decreaseAllowance(address,uint256)":"a457c2d7","deposit(address,bytes)":"cf2c52cb","executeMetaTransaction(address,bytes,bytes32,bytes32,uint8)":"0c53c51c","getChainId()":"3408e470","getDomainSeperator()":"20379ee5","getNonce(address)":"2d0335ab","getRoleAdmin(bytes32)":"248a9ca3","getRoleMember(bytes32,uint256)":"9010d07c","getRoleMemberCount(bytes32)":"ca15c873","grantRole(bytes32,address)":"2f2ff15d","hasRole(bytes32,address)":"91d14854","increaseAllowance(address,uint256)":"39509351","initialize(string,string,uint8,address)":"de7ea79d","move(address,address,uint256)":"bb35783b","name()":"06fdde03","permit(address,address,uint256,uint256,bool,uint8,bytes32,bytes32)":"8fcbaf0c","pull(address,uint256)":"f2d5d56b","push(address,uint256)":"b753a98c","renounceRole(bytes32,address)":"36568abe","revokeRole(bytes32,address)":"d547741f","symbol()":"95d89b41","totalSupply()":"18160ddd","transfer(address,uint256)":"a9059cbb","transferFrom(address,address,uint256)":"23b872dd","withdraw(uint256)":"2e1a7d4d"},"id":10}