{
  "_format": "hh-sol-artifact-1",
  "contractName": "DummyStateSender",
  "sourceName": "contracts/root/StateSender/DummyStateSender.sol",
  "abi": [
    {
      "anonymous": false,
      "inputs": [
        {
          "indexed": true,
          "internalType": "uint256",
          "name": "id",
          "type": "uint256"
        },
        {
          "indexed": true,
          "internalType": "address",
          "name": "contractAddress",
          "type": "address"
        },
        {
          "indexed": false,
          "internalType": "bytes",
          "name": "data",
          "type": "bytes"
        }
      ],
      "name": "StateSynced",
      "type": "event"
    },
    {
      "inputs": [
        {
          "internalType": "address",
          "name": "receiver",
          "type": "address"
        },
        {
          "internalType": "bytes",
          "name": "data",
          "type": "bytes"
        }
      ],
      "name": "syncState",
      "outputs": [],
      "stateMutability": "nonpayable",
      "type": "function"
    }
  ],
  "bytecode": "0x608060405234801561001057600080fd5b50610159806100206000396000f3fe608060405234801561001057600080fd5b506004361061002b5760003560e01c806316f1983114610030575b600080fd5b6100b06004803603604081101561004657600080fd5b6001600160a01b03823516919081019060408101602082013564010000000081111561007157600080fd5b82018360208201111561008357600080fd5b803590602001918460018302840111640100000000831117156100a557600080fd5b5090925090506100b2565b005b826001600160a01b031660017f103fed9db65eac19c4d870f49ab7520fe03b99f1838e5996caf47e9e43308392848460405180806020018281038252848482818152602001925080828437600083820152604051601f909101601f19169092018290039550909350505050a350505056fea2646970667358221220369c2193d0e42906504925b23ca7da6b390700b52684e00c0cf3307da7105b9964736f6c63430006060033",
  "linkReferences": {},
  "deployedLinkReferences": {}
}