{
  "_format": "hh-sol-artifact-1",
  "contractName": "ICheckpointManager",
  "sourceName": "contracts/root/ICheckpointManager.sol",
  "abi": [
    {
      "inputs": [
        {
          "internalType": "uint256",
          "name": "",
          "type": "uint256"
        }
      ],
      "name": "headerBlocks",
      "outputs": [
        {
          "internalType": "bytes32",
          "name": "root",
          "type": "bytes32"
        },
        {
          "internalType": "uint256",
          "name": "start",
          "type": "uint256"
        },
        {
          "internalType": "uint256",
          "name": "end",
          "type": "uint256"
        },
        {
          "internalType": "uint256",
          "name": "createdAt",
          "type": "uint256"
        },
        {
          "internalType": "address",
          "name": "proposer",
          "type": "address"
        }
      ],
      "stateMutability": "view",
      "type": "function"
    }
  ],
  "bytecode": "0x608060405234801561001057600080fd5b50610146806100206000396000f3fe608060405234801561001057600080fd5b506004361061002b5760003560e01c806341539d4a14610030575b600080fd5b61005c6004803603602081101561004657600080fd5b81019080803590602001909291905050506100ba565b604051808681526020018581526020018481526020018381526020018273ffffffffffffffffffffffffffffffffffffffff1673ffffffffffffffffffffffffffffffffffffffff1681526020019550505050505060405180910390f35b60006020528060005260406000206000915090508060000154908060010154908060020154908060030154908060040160009054906101000a900473ffffffffffffffffffffffffffffffffffffffff1690508556fea2646970667358221220f37852cd203304fa11a6e6416f468daa862d152c47093636fdb4e77ee301789764736f6c63430006060033",
  "linkReferences": {},
  "deployedLinkReferences": {}
}