{
  "_format": "hh-sol-artifact-1",
  "contractName": "ICheckpointManager",
  "sourceName": "contracts/root/ICheckpointManager.sol",
  "abi": [
    {
      "inputs": [
        {
          "internalType": "uint256",
          "name": "",
          "type": "uint256"
        }
      ],
      "name": "headerBlocks",
      "outputs": [
        {
          "internalType": "bytes32",
          "name": "root",
          "type": "bytes32"
        },
        {
          "internalType": "uint256",
          "name": "start",
          "type": "uint256"
        },
        {
          "internalType": "uint256",
          "name": "end",
          "type": "uint256"
        },
        {
          "internalType": "uint256",
          "name": "createdAt",
          "type": "uint256"
        },
        {
          "internalType": "address",
          "name": "proposer",
          "type": "address"
        }
      ],
      "stateMutability": "view",
      "type": "function"
    }
  ],
  "bytecode": "0x608060405234801561001057600080fd5b5060e98061001f6000396000f3fe6080604052348015600f57600080fd5b506004361060285760003560e01c806341539d4a14602d575b600080fd5b604760048036036020811015604157600080fd5b5035607b565b6040805195865260208601949094528484019290925260608401526001600160a01b03166080830152519081900360a00190f35b60006020819052908152604090208054600182015460028301546003840154600490940154929391929091906001600160a01b03168556fea2646970667358221220be97b6c9dba14a68be180b6bdf5210534196a10d8f7eb91812ed9ff08e28268064736f6c63430006060033",
  "linkReferences": {},
  "deployedLinkReferences": {}
}