{"abi":[{"type":"constructor","inputs":[{"name":"name_","type":"string","internalType":"string"},{"name":"symbol_","type":"string","internalType":"string"}],"stateMutability":"nonpayable"},{"type":"function","name":"DEFAULT_ADMIN_ROLE","inputs":[],"outputs":[{"name":"","type":"bytes32","internalType":"bytes32"}],"stateMutability":"view"},{"type":"function","name":"ERC712_VERSION","inputs":[],"outputs":[{"name":"","type":"string","internalType":"string"}],"stateMutability":"view"},{"type":"function","name":"PREDICATE_ROLE","inputs":[],"outputs":[{"name":"","type":"bytes32","internalType":"bytes32"}],"stateMutability":"view"},{"type":"function","name":"allowance","inputs":[{"name":"owner","type":"address","internalType":"address"},{"name":"spender","type":"address","internalType":"address"}],"outputs":[{"name":"","type":"uint256","internalType":"uint256"}],"stateMutability":"view"},{"type":"function","name":"approve","inputs":[{"name":"spender","type":"address","internalType":"address"},{"name":"amount","type":"uint256","internalType":"uint256"}],"outputs":[{"name":"","type":"bool","internalType":"bool"}],"stateMutability":"nonpayable"},{"type":"function","name":"balanceOf","inputs":[{"name":"account","type":"address","internalType":"address"}],"outputs":[{"name":"","type":"uint256","internalType":"uint256"}],"stateMutability":"view"},{"type":"function","name":"decimals","inputs":[],"outputs":[{"name":"","type":"uint8","internalType":"uint8"}],"stateMutability":"view"},{"type":"function","name":"decreaseAllowance","inputs":[{"name":"spender","type":"address","internalType":"address"},{"name":"subtractedValue","type":"uint256","internalType":"uint256"}],"outputs":[{"name":"","type":"bool","internalType":"bool"}],"stateMutability":"nonpayable"},{"type":"function","name":"executeMetaTransaction","inputs":[{"name":"userAddress","type":"address","internalType":"address"},{"name":"functionSignature","type":"bytes","internalType":"bytes"},{"name":"sigR","type":"bytes32","internalType":"bytes32"},{"name":"sigS","type":"bytes32","internalType":"bytes32"},{"name":"sigV","type":"uint8","internalType":"uint8"}],"outputs":[{"name":"","type":"bytes","internalType":"bytes"}],"stateMutability":"payable"},{"type":"function","name":"getChainId","inputs":[],"outputs":[{"name":"","type":"uint256","internalType":"uint256"}],"stateMutability":"pure"},{"type":"function","name":"getDomainSeperator","inputs":[],"outputs":[{"name":"","type":"bytes32","internalType":"bytes32"}],"stateMutability":"view"},{"type":"function","name":"getNonce","inputs":[{"name":"user","type":"address","internalType":"address"}],"outputs":[{"name":"nonce","type":"uint256","internalType":"uint256"}],"stateMutability":"view"},{"type":"function","name":"getRoleAdmin","inputs":[{"name":"role","type":"bytes32","internalType":"bytes32"}],"outputs":[{"name":"","type":"bytes32","internalType":"bytes32"}],"stateMutability":"view"},{"type":"function","name":"getRoleMember","inputs":[{"name":"role","type":"bytes32","internalType":"bytes32"},{"name":"index","type":"uint256","internalType":"uint256"}],"outputs":[{"name":"","type":"address","internalType":"address"}],"stateMutability":"view"},{"type":"function","name":"getRoleMemberCount","inputs":[{"name":"role","type":"bytes32","internalType":"bytes32"}],"outputs":[{"name":"","type":"uint256","internalType":"uint256"}],"stateMutability":"view"},{"type":"function","name":"grantRole","inputs":[{"name":"role","type":"bytes32","internalType":"bytes32"},{"name":"account","type":"address","internalType":"address"}],"outputs":[],"stateMutability":"nonpayable"},{"type":"function","name":"hasRole","inputs":[{"name":"role","type":"bytes32","internalType":"bytes32"},{"name":"account","type":"address","internalType":"address"}],"outputs":[{"name":"","type":"bool","internalType":"bool"}],"stateMutability":"view"},{"type":"function","name":"increaseAllowance","inputs":[{"name":"spender","type":"address","internalType":"address"},{"name":"addedValue","type":"uint256","internalType":"uint256"}],"outputs":[{"name":"","type":"bool","internalType":"bool"}],"stateMutability":"nonpayable"},{"type":"function","name":"mint","inputs":[{"name":"user","type":"address","internalType":"address"},{"name":"amount","type":"uint256","internalType":"uint256"}],"outputs":[],"stateMutability":"nonpayable"},{"type":"function","name":"name","inputs":[],"outputs":[{"name":"","type":"string","internalType":"string"}],"stateMutability":"view"},{"type":"function","name":"renounceRole","inputs":[{"name":"role","type":"bytes32","internalType":"bytes32"},{"name":"account","type":"address","internalType":"address"}],"outputs":[],"stateMutability":"nonpayable"},{"type":"function","name":"revokeRole","inputs":[{"name":"role","type":"bytes32","internalType":"bytes32"},{"name":"account","type":"address","internalType":"address"}],"outputs":[],"stateMutability":"nonpayable"},{"type":"function","name":"symbol","inputs":[],"outputs":[{"name":"","type":"string","internalType":"string"}],"stateMutability":"view"},{"type":"function","name":"totalSupply","inputs":[],"outputs":[{"name":"","type":"uint256","internalType":"uint256"}],"stateMutability":"view"},{"type":"function","name":"transfer","inputs":[{"name":"recipient","type":"address","internalType":"address"},{"name":"amount","type":"uint256","internalType":"uint256"}],"outputs":[{"name":"","type":"bool","internalType":"bool"}],"stateMutability":"nonpayable"},{"type":"function","name":"transferFrom","inputs":[{"name":"sender","type":"address","internalType":"address"},{"name":"recipient","type":"address","internalType":"address"},{"name":"amount","type":"uint256","internalType":"uint256"}],"outputs":[{"name":"","type":"bool","internalType":"bool"}],"stateMutability":"nonpayable"},{"type":"event","name":"Approval","inputs":[{"name":"owner","type":"address","indexed":true,"internalType":"address"},{"name":"spender","type":"address","indexed":true,"internalType":"address"},{"name":"value","type":"uint256","indexed":false,"internalType":"uint256"}],"anonymous":false},{"type":"event","name":"MetaTransactionExecuted","inputs":[{"name":"userAddress","type":"address","indexed":true,"internalType":"address"},{"name":"relayerAddress","type":"address","indexed":true,"internalType":"address payable"},{"name":"functionSignature","type":"bytes","indexed":false,"internalType":"bytes"}],"anonymous":false},{"type":"event","name":"RoleAdminChanged","inputs":[{"name":"role","type":"bytes32","indexed":true,"internalType":"bytes32"},{"name":"previousAdminRole","type":"bytes32","indexed":true,"internalType":"bytes32"},{"name":"newAdminRole","type":"bytes32","indexed":true,"internalType":"bytes32"}],"anonymous":false},{"type":"event","name":"RoleGranted","inputs":[{"name":"role","type":"bytes32","indexed":true,"internalType":"bytes32"},{"name":"account","type":"address","indexed":true,"internalType":"address"},{"name":"sender","type":"address","indexed":true,"internalType":"address"}],"anonymous":false},{"type":"event","name":"RoleRevoked","inputs":[{"name":"role","type":"bytes32","indexed":true,"internalType":"bytes32"},{"name":"account","type":"address","indexed":true,"internalType":"address"},{"name":"sender","type":"address","indexed":true,"internalType":"address"}],"anonymous":false},{"type":"event","name":"Transfer","inputs":[{"name":"from","type":"address","indexed":true,"internalType":"address"},{"name":"to","type":"address","indexed":true,"internalType":"address"},{"name":"value","type":"uint256","indexed":false,"internalType":"uint256"}],"anonymous":false}],"bytecode":{"object":"0x60806040526008805460ff191690553480156200001b57600080fd5b50604051620023e1380380620023e1833981810160405260408110156200004157600080fd5b81019080805160405193929190846401000000008211156200006257600080fd5b9083019060208201858111156200007857600080fd5b82516401000000008111828201881017156200009357600080fd5b82525081516020918201929091019080838360005b83811015620000c2578181015183820152602001620000a8565b50505050905090810190601f168015620000f05780820380516001836020036101000a031916815260200191505b50604052602001805160405193929190846401000000008211156200011457600080fd5b9083019060208201858111156200012a57600080fd5b82516401000000008111828201881017156200014557600080fd5b82525081516020918201929091019080838360005b83811015620001745781810151838201526020016200015a565b50505050905090810190601f168015620001a25780820380516001836020036101000a031916815260200191505b50604052505082518391508290620001c2906003906020850190620007df565b508051620001d8906004906020840190620007df565b50506005805460ff191660129081179091556040805180820190915290815271044756d6d794d696e7461626c6545524332360741b60208201526200022791506001600160e01b03620002d916565b6200024f6000620002406001600160e01b036200037f16565b6001600160e01b036200039c16565b604080516d5052454449434154455f524f4c4560901b8152905190819003600e0190206200028a90620002406001600160e01b036200037f16565b620002bd620002a16001600160e01b036200037f16565b6b204fce5e3e250261100000006001600160e01b03620003b116565b620002d1826001600160e01b03620004c916565b505062000881565b806040516020018082805190602001908083835b602083106200030e5780518252601f199092019160209182019101620002ed565b51815160209384036101000a60001901801990921691161790527f3a20494e53554646494349454e545f5045524d495353494f4e530000000000009190930190815260408051808303600519018152601a909201905280516200037b9550600794509201919050620007df565b5050565b6000620003966200053760201b620015771760201c565b90505b90565b6200037b82826001600160e01b036200059616565b6001600160a01b0382166200040d576040805162461bcd60e51b815260206004820152601f60248201527f45524332303a206d696e7420746f20746865207a65726f206164647265737300604482015290519081900360640190fd5b62000424600083836001600160e01b036200061a16565b62000440816002546200061f60201b620013f51790919060201c565b6002556001600160a01b0382166000908152602081815260409091205462000473918390620013f56200061f821b17901c565b6001600160a01b0383166000818152602081815260408083209490945583518581529351929391927fddf252ad1be2c89b69c2b068fc378daa952ba7f163c4a11628f55a4df523b3ef9281900390910190a35050565b60085460ff161562000513576040805162461bcd60e51b815260206004820152600e60248201526d185b1c9958591e481a5b9a5d195960921b604482015290519081900360640190fd5b62000527816001600160e01b036200068316565b506008805460ff19166001179055565b600033301415620005915760606000368080601f0160208091040260200160405190810160405280939291908181526020018383808284376000920191909152505050503601516001600160a01b03169150620003999050565b503390565b6000828152600660209081526040909120620005bd918390620016ad6200074b821b17901c565b156200037b57620005d66001600160e01b036200037f16565b6001600160a01b0316816001600160a01b0316837f2f8788117e7eff1d82e926ec794901d17c78024a50270940304540a733656f0d60405160405180910390a45050565b505050565b6000828201838110156200067a576040805162461bcd60e51b815260206004820152601b60248201527f536166654d6174683a206164646974696f6e206f766572666c6f770000000000604482015290519081900360640190fd5b90505b92915050565b6040518060800160405280604f815260200162002392604f913980516020918201208251838301206040805180820190915260018152603160f81b930192909252907fc89efdaa54c0f20c7adf612882df0950f5a951637e0307cdcb4c672f298b8bc630620006fa6001600160e01b036200076b16565b604080516020808201979097528082019590955260608501939093526001600160a01b03909116608084015260a0808401919091528151808403909101815260c09092019052805191012060095550565b60006200067a836001600160a01b0384166001600160e01b036200076f16565b4690565b60006200078683836001600160e01b03620007c716565b620007be575081546001818101845560008481526020808220909301849055845484825282860190935260409020919091556200067d565b5060006200067d565b60009081526001919091016020526040902054151590565b828054600181600116156101000203166002900490600052602060002090601f016020900481019282601f106200082257805160ff191683800117855562000852565b8280016001018555821562000852579182015b828111156200085257825182559160200191906001019062000835565b506200086092915062000864565b5090565b6200039991905b808211156200086057600081556001016200086b565b611b0180620008916000396000f3fe6080604052600436106101815760003560e01c806339509351116100d1578063a217fddf1161008a578063ca15c87311610064578063ca15c87314610657578063d547741f14610681578063dd62ed3e146106ba578063e72db5fd146106f557610181565b8063a217fddf146105d0578063a457c2d7146105e5578063a9059cbb1461061e57610181565b8063395093511461049157806340c10f19146104ca57806370a08231146105035780639010d07c1461053657806391d148541461058257806395d89b41146105bb57610181565b806323b872dd1161013e5780632f2ff15d116101185780632f2ff15d146103dd578063313ce567146104185780633408e4701461044357806336568abe1461045857610181565b806323b872dd1461033d578063248a9ca3146103805780632d0335ab146103aa57610181565b806306fdde0314610186578063095ea7b3146102105780630c53c51c1461025d5780630f7e5970146102ec57806318160ddd1461030157806320379ee514610328575b600080fd5b34801561019257600080fd5b5061019b61070a565b6040805160208082528351818301528351919283929083019185019080838360005b838110156101d55781810151838201526020016101bd565b50505050905090810190601f1680156102025780820380516001836020036101000a031916815260200191505b509250505060405180910390f35b34801561021c57600080fd5b506102496004803603604081101561023357600080fd5b506001600160a01b0381351690602001356107a0565b604080519115158252519081900360200190f35b61019b600480360360a081101561027357600080fd5b6001600160a01b03823516919081019060408101602082013564010000000081111561029e57600080fd5b8201836020820111156102b057600080fd5b803590602001918460018302840111640100000000831117156102d257600080fd5b91935091508035906020810135906040013560ff166107be565b3480156102f857600080fd5b5061019b610a47565b34801561030d57600080fd5b50610316610a64565b60408051918252519081900360200190f35b34801561033457600080fd5b50610316610a6a565b34801561034957600080fd5b506102496004803603606081101561036057600080fd5b506001600160a01b03813581169160208101359091169060400135610a70565b34801561038c57600080fd5b50610316600480360360208110156103a357600080fd5b5035610afd565b3480156103b657600080fd5b50610316600480360360208110156103cd57600080fd5b50356001600160a01b0316610b12565b3480156103e957600080fd5b506104166004803603604081101561040057600080fd5b50803590602001356001600160a01b0316610b2d565b005b34801561042457600080fd5b5061042d610b99565b6040805160ff9092168252519081900360200190f35b34801561044f57600080fd5b50610316610ba2565b34801561046457600080fd5b506104166004803603604081101561047b57600080fd5b50803590602001356001600160a01b0316610ba6565b34801561049d57600080fd5b50610249600480360360408110156104b457600080fd5b506001600160a01b038135169060200135610c07565b3480156104d657600080fd5b50610416600480360360408110156104ed57600080fd5b506001600160a01b038135169060200135610c5b565b34801561050f57600080fd5b506103166004803603602081101561052657600080fd5b50356001600160a01b0316610d3a565b34801561054257600080fd5b506105666004803603604081101561055957600080fd5b5080359060200135610d55565b604080516001600160a01b039092168252519081900360200190f35b34801561058e57600080fd5b50610249600480360360408110156105a557600080fd5b50803590602001356001600160a01b0316610d7a565b3480156105c757600080fd5b5061019b610d98565b3480156105dc57600080fd5b50610316610df9565b3480156105f157600080fd5b506102496004803603604081101561060857600080fd5b506001600160a01b038135169060200135610dfe565b34801561062a57600080fd5b506102496004803603604081101561064157600080fd5b506001600160a01b038135169060200135610e6c565b34801561066357600080fd5b506103166004803603602081101561067a57600080fd5b5035610e80565b34801561068d57600080fd5b50610416600480360360408110156106a457600080fd5b50803590602001356001600160a01b0316610e97565b3480156106c657600080fd5b50610316600480360360408110156106dd57600080fd5b506001600160a01b0381358116916020013516610ef0565b34801561070157600080fd5b50610316610f1b565b60038054604080516020601f60026000196101006001881615020190951694909404938401819004810282018101909252828152606093909290918301828280156107965780601f1061076b57610100808354040283529160200191610796565b820191906000526020600020905b81548152906001019060200180831161077957829003601f168201915b5050505050905090565b60006107b46107ad610f41565b8484610f50565b5060015b92915050565b60606107c8611867565b604080516060810182526001600160a01b038a166000818152600a602090815290849020548352808301919091528251601f8a0182900482028101820184528981529192830191908a908a90819084018382808284376000920191909152505050915250905061083b888287878761103c565b6108765760405162461bcd60e51b8152600401808060200182810382526021815260200180611a0e6021913960400191505060405180910390fd5b6001600160a01b0388166000818152600a60209081526040918290208054600101905581518181529081018990523392917f5845892132946850460bff5a0083f71031bc5bf9aadcd40f1de79423eac9b10b918b918b919081908101848480828437600083820152604051601f909101601f19169092018290039550909350505050a360006060306001600160a01b031689898c6040516020018084848082843780830192505050826001600160a01b03166001600160a01b031660601b815260140193505050506040516020818303038152906040526040518082805190602001908083835b6020831061097c5780518252601f19909201916020918201910161095d565b6001836020036101000a0380198251168184511680821785525050505050509050019150506000604051808303816000865af19150503d80600081146109de576040519150601f19603f3d011682016040523d82523d6000602084013e6109e3565b606091505b509150915081610a3a576040805162461bcd60e51b815260206004820152601c60248201527f46756e6374696f6e2063616c6c206e6f74207375636365737366756c00000000604482015290519081900360640190fd5b9998505050505050505050565b604051806040016040528060018152602001603160f81b81525081565b60025490565b60095490565b6000610a7d848484611119565b610af384610a89610f41565b610aee856040518060600160405280602881526020016119e6602891396001600160a01b038a16600090815260016020526040812090610ac7610f41565b6001600160a01b03168152602081019190915260400160002054919063ffffffff61128016565b610f50565b5060019392505050565b60009081526006602052604090206002015490565b6001600160a01b03166000908152600a602052604090205490565b600082815260066020526040902060020154610b5090610b4b610f41565b610d7a565b610b8b5760405162461bcd60e51b815260040180806020018281038252602f8152602001806118d7602f913960400191505060405180910390fd5b610b958282611317565b5050565b60055460ff1690565b4690565b610bae610f41565b6001600160a01b0316816001600160a01b031614610bfd5760405162461bcd60e51b815260040180806020018281038252602f815260200180611a9d602f913960400191505060405180910390fd5b610b958282611386565b60006107b4610c14610f41565b84610aee8560016000610c25610f41565b6001600160a01b03908116825260208083019390935260409182016000908120918c16815292529020549063ffffffff6113f516565b604080516d5052454449434154455f524f4c4560901b8152905190819003600e019020610c8a81610b4b610f41565b600790610d2a5760405162461bcd60e51b8152602060048201908152825460026000196101006001841615020190911604602483018190529091829160449091019084908015610d1b5780601f10610cf057610100808354040283529160200191610d1b565b820191906000526020600020905b815481529060010190602001808311610cfe57829003601f168201915b50509250505060405180910390fd5b50610d35838361144f565b505050565b6001600160a01b031660009081526020819052604090205490565b6000828152600660205260408120610d73908363ffffffff61154b16565b9392505050565b6000828152600660205260408120610d73908363ffffffff61155716565b60048054604080516020601f60026000196101006001881615020190951694909404938401819004810282018101909252828152606093909290918301828280156107965780601f1061076b57610100808354040283529160200191610796565b600081565b60006107b4610e0b610f41565b84610aee85604051806060016040528060258152602001611a786025913960016000610e35610f41565b6001600160a01b03908116825260208083019390935260409182016000908120918d1681529252902054919063ffffffff61128016565b60006107b4610e79610f41565b8484611119565b60008181526006602052604081206107b89061156c565b600082815260066020526040902060020154610eb590610b4b610f41565b610bfd5760405162461bcd60e51b81526004018080602001828103825260308152602001806119916030913960400191505060405180910390fd5b6001600160a01b03918216600090815260016020908152604080832093909416825291909152205490565b604080516d5052454449434154455f524f4c4560901b8152905190819003600e01902081565b6000610f4b611577565b905090565b6001600160a01b038316610f955760405162461bcd60e51b8152600401808060200182810382526024815260200180611a546024913960400191505060405180910390fd5b6001600160a01b038216610fda5760405162461bcd60e51b81526004018080602001828103825260228152602001806119496022913960400191505060405180910390fd5b6001600160a01b03808416600081815260016020908152604080832094871680845294825291829020859055815185815291517f8c5be1e5ebec7d5bd14f71427d1e84f3dd0314c0f7b2291e5b200ac8c7c3b9259281900390910190a3505050565b60006001600160a01b0386166110835760405162461bcd60e51b81526004018080602001828103825260258152602001806119c16025913960400191505060405180910390fd5b6001611096611091876115d5565b611661565b83868660405160008152602001604052604051808581526020018460ff1660ff1681526020018381526020018281526020019450505050506020604051602081039080840390855afa1580156110f0573d6000803e3d6000fd5b505050602060405103516001600160a01b0316866001600160a01b031614905095945050505050565b6001600160a01b03831661115e5760405162461bcd60e51b8152600401808060200182810382526025815260200180611a2f6025913960400191505060405180910390fd5b6001600160a01b0382166111a35760405162461bcd60e51b81526004018080602001828103825260238152602001806118b46023913960400191505060405180910390fd5b6111ae838383610d35565b6111f18160405180606001604052806026815260200161196b602691396001600160a01b038616600090815260208190526040902054919063ffffffff61128016565b6001600160a01b038085166000908152602081905260408082209390935590841681522054611226908263ffffffff6113f516565b6001600160a01b038084166000818152602081815260409182902094909455805185815290519193928716927fddf252ad1be2c89b69c2b068fc378daa952ba7f163c4a11628f55a4df523b3ef92918290030190a3505050565b6000818484111561130f5760405162461bcd60e51b81526004018080602001828103825283818151815260200191508051906020019080838360005b838110156112d45781810151838201526020016112bc565b50505050905090810190601f1680156113015780820380516001836020036101000a031916815260200191505b509250505060405180910390fd5b505050900390565b6000828152600660205260409020611335908263ffffffff6116ad16565b15610b9557611342610f41565b6001600160a01b0316816001600160a01b0316837f2f8788117e7eff1d82e926ec794901d17c78024a50270940304540a733656f0d60405160405180910390a45050565b60008281526006602052604090206113a4908263ffffffff6116c216565b15610b95576113b1610f41565b6001600160a01b0316816001600160a01b0316837ff6391f5c32d9c69d2a47ea670b442974b53935d1edc7fd64eb21e047a839171b60405160405180910390a45050565b600082820183811015610d73576040805162461bcd60e51b815260206004820152601b60248201527f536166654d6174683a206164646974696f6e206f766572666c6f770000000000604482015290519081900360640190fd5b6001600160a01b0382166114aa576040805162461bcd60e51b815260206004820152601f60248201527f45524332303a206d696e7420746f20746865207a65726f206164647265737300604482015290519081900360640190fd5b6114b660008383610d35565b6002546114c9908263ffffffff6113f516565b6002556001600160a01b0382166000908152602081905260409020546114f5908263ffffffff6113f516565b6001600160a01b0383166000818152602081815260408083209490945583518581529351929391927fddf252ad1be2c89b69c2b068fc378daa952ba7f163c4a11628f55a4df523b3ef9281900390910190a35050565b6000610d7383836116d7565b6000610d73836001600160a01b03841661173b565b60006107b882611753565b6000333014156115cf5760606000368080601f0160208091040260200160405190810160405280939291908181526020018383808284376000920191909152505050503601516001600160a01b031691506115d29050565b50335b90565b600060405180608001604052806043815260200161190660439139805190602001208260000151836020015184604001518051906020012060405160200180858152602001848152602001836001600160a01b03166001600160a01b03168152602001828152602001945050505050604051602081830303815290604052805190602001209050919050565b600061166b610a6a565b82604051602001808061190160f01b81525060020183815260200182815260200192505050604051602081830303815290604052805190602001209050919050565b6000610d73836001600160a01b038416611757565b6000610d73836001600160a01b0384166117a1565b815460009082106117195760405162461bcd60e51b81526004018080602001828103825260228152602001806118926022913960400191505060405180910390fd5b82600001828154811061172857fe5b9060005260206000200154905092915050565b60009081526001919091016020526040902054151590565b5490565b6000611763838361173b565b611799575081546001818101845560008481526020808220909301849055845484825282860190935260409020919091556107b8565b5060006107b8565b6000818152600183016020526040812054801561185d57835460001980830191908101906000908790839081106117d457fe5b90600052602060002001549050808760000184815481106117f157fe5b60009182526020808320909101929092558281526001898101909252604090209084019055865487908061182157fe5b600190038181906000526020600020016000905590558660010160008781526020019081526020016000206000905560019450505050506107b8565b60009150506107b8565b60405180606001604052806000815260200160006001600160a01b0316815260200160608152509056fe456e756d657261626c655365743a20696e646578206f7574206f6620626f756e647345524332303a207472616e7366657220746f20746865207a65726f2061646472657373416363657373436f6e74726f6c3a2073656e646572206d75737420626520616e2061646d696e20746f206772616e744d6574615472616e73616374696f6e2875696e74323536206e6f6e63652c616464726573732066726f6d2c62797465732066756e6374696f6e5369676e61747572652945524332303a20617070726f766520746f20746865207a65726f206164647265737345524332303a207472616e7366657220616d6f756e7420657863656564732062616c616e6365416363657373436f6e74726f6c3a2073656e646572206d75737420626520616e2061646d696e20746f207265766f6b654e61746976654d6574615472616e73616374696f6e3a20494e56414c49445f5349474e455245524332303a207472616e7366657220616d6f756e74206578636565647320616c6c6f77616e63655369676e657220616e64207369676e617475726520646f206e6f74206d6174636845524332303a207472616e736665722066726f6d20746865207a65726f206164647265737345524332303a20617070726f76652066726f6d20746865207a65726f206164647265737345524332303a2064656372656173656420616c6c6f77616e63652062656c6f77207a65726f416363657373436f6e74726f6c3a2063616e206f6e6c792072656e6f756e636520726f6c657320666f722073656c66a2646970667358221220be483f34e96321c46d780cf6bf7d86e56c762ab1610cd1707e96dd71f78b5f7164736f6c63430006060033454950373132446f6d61696e28737472696e67206e616d652c737472696e672076657273696f6e2c6164647265737320766572696679696e67436f6e74726163742c627974657333322073616c7429","linkReferences":{}},"methodIdentifiers":{"DEFAULT_ADMIN_ROLE()":"a217fddf","ERC712_VERSION()":"0f7e5970","PREDICATE_ROLE()":"e72db5fd","allowance(address,address)":"dd62ed3e","approve(address,uint256)":"095ea7b3","balanceOf(address)":"70a08231","decimals()":"313ce567","decreaseAllowance(address,uint256)":"a457c2d7","executeMetaTransaction(address,bytes,bytes32,bytes32,uint8)":"0c53c51c","getChainId()":"3408e470","getDomainSeperator()":"20379ee5","getNonce(address)":"2d0335ab","getRoleAdmin(bytes32)":"248a9ca3","getRoleMember(bytes32,uint256)":"9010d07c","getRoleMemberCount(bytes32)":"ca15c873","grantRole(bytes32,address)":"2f2ff15d","hasRole(bytes32,address)":"91d14854","increaseAllowance(address,uint256)":"39509351","mint(address,uint256)":"40c10f19","name()":"06fdde03","renounceRole(bytes32,address)":"36568abe","revokeRole(bytes32,address)":"d547741f","symbol()":"95d89b41","totalSupply()":"18160ddd","transfer(address,uint256)":"a9059cbb","transferFrom(address,address,uint256)":"23b872dd"},"id":40}