{"abi":[{"type":"constructor","inputs":[{"name":"childChainManager","type":"address","internalType":"address"}],"stateMutability":"nonpayable"},{"type":"function","name":"DEFAULT_ADMIN_ROLE","inputs":[],"outputs":[{"name":"","type":"bytes32","internalType":"bytes32"}],"stateMutability":"view"},{"type":"function","name":"DEPOSITOR_ROLE","inputs":[],"outputs":[{"name":"","type":"bytes32","internalType":"bytes32"}],"stateMutability":"view"},{"type":"function","name":"ERC712_VERSION","inputs":[],"outputs":[{"name":"","type":"string","internalType":"string"}],"stateMutability":"view"},{"type":"function","name":"allowance","inputs":[{"name":"owner","type":"address","internalType":"address"},{"name":"spender","type":"address","internalType":"address"}],"outputs":[{"name":"","type":"uint256","internalType":"uint256"}],"stateMutability":"view"},{"type":"function","name":"approve","inputs":[{"name":"spender","type":"address","internalType":"address"},{"name":"amount","type":"uint256","internalType":"uint256"}],"outputs":[{"name":"","type":"bool","internalType":"bool"}],"stateMutability":"nonpayable"},{"type":"function","name":"balanceOf","inputs":[{"name":"account","type":"address","internalType":"address"}],"outputs":[{"name":"","type":"uint256","internalType":"uint256"}],"stateMutability":"view"},{"type":"function","name":"decimals","inputs":[],"outputs":[{"name":"","type":"uint8","internalType":"uint8"}],"stateMutability":"view"},{"type":"function","name":"decreaseAllowance","inputs":[{"name":"spender","type":"address","internalType":"address"},{"name":"subtractedValue","type":"uint256","internalType":"uint256"}],"outputs":[{"name":"","type":"bool","internalType":"bool"}],"stateMutability":"nonpayable"},{"type":"function","name":"deposit","inputs":[{"name":"user","type":"address","internalType":"address"},{"name":"depositData","type":"bytes","internalType":"bytes"}],"outputs":[],"stateMutability":"nonpayable"},{"type":"function","name":"executeMetaTransaction","inputs":[{"name":"userAddress","type":"address","internalType":"address"},{"name":"functionSignature","type":"bytes","internalType":"bytes"},{"name":"sigR","type":"bytes32","internalType":"bytes32"},{"name":"sigS","type":"bytes32","internalType":"bytes32"},{"name":"sigV","type":"uint8","internalType":"uint8"}],"outputs":[{"name":"","type":"bytes","internalType":"bytes"}],"stateMutability":"payable"},{"type":"function","name":"getChainId","inputs":[],"outputs":[{"name":"","type":"uint256","internalType":"uint256"}],"stateMutability":"pure"},{"type":"function","name":"getDomainSeperator","inputs":[],"outputs":[{"name":"","type":"bytes32","internalType":"bytes32"}],"stateMutability":"view"},{"type":"function","name":"getNonce","inputs":[{"name":"user","type":"address","internalType":"address"}],"outputs":[{"name":"nonce","type":"uint256","internalType":"uint256"}],"stateMutability":"view"},{"type":"function","name":"getRoleAdmin","inputs":[{"name":"role","type":"bytes32","internalType":"bytes32"}],"outputs":[{"name":"","type":"bytes32","internalType":"bytes32"}],"stateMutability":"view"},{"type":"function","name":"getRoleMember","inputs":[{"name":"role","type":"bytes32","internalType":"bytes32"},{"name":"index","type":"uint256","internalType":"uint256"}],"outputs":[{"name":"","type":"address","internalType":"address"}],"stateMutability":"view"},{"type":"function","name":"getRoleMemberCount","inputs":[{"name":"role","type":"bytes32","internalType":"bytes32"}],"outputs":[{"name":"","type":"uint256","internalType":"uint256"}],"stateMutability":"view"},{"type":"function","name":"grantRole","inputs":[{"name":"role","type":"bytes32","internalType":"bytes32"},{"name":"account","type":"address","internalType":"address"}],"outputs":[],"stateMutability":"nonpayable"},{"type":"function","name":"hasRole","inputs":[{"name":"role","type":"bytes32","internalType":"bytes32"},{"name":"account","type":"address","internalType":"address"}],"outputs":[{"name":"","type":"bool","internalType":"bool"}],"stateMutability":"view"},{"type":"function","name":"increaseAllowance","inputs":[{"name":"spender","type":"address","internalType":"address"},{"name":"addedValue","type":"uint256","internalType":"uint256"}],"outputs":[{"name":"","type":"bool","internalType":"bool"}],"stateMutability":"nonpayable"},{"type":"function","name":"name","inputs":[],"outputs":[{"name":"","type":"string","internalType":"string"}],"stateMutability":"view"},{"type":"function","name":"renounceRole","inputs":[{"name":"role","type":"bytes32","internalType":"bytes32"},{"name":"account","type":"address","internalType":"address"}],"outputs":[],"stateMutability":"nonpayable"},{"type":"function","name":"revokeRole","inputs":[{"name":"role","type":"bytes32","internalType":"bytes32"},{"name":"account","type":"address","internalType":"address"}],"outputs":[],"stateMutability":"nonpayable"},{"type":"function","name":"symbol","inputs":[],"outputs":[{"name":"","type":"string","internalType":"string"}],"stateMutability":"view"},{"type":"function","name":"totalSupply","inputs":[],"outputs":[{"name":"","type":"uint256","internalType":"uint256"}],"stateMutability":"view"},{"type":"function","name":"transfer","inputs":[{"name":"recipient","type":"address","internalType":"address"},{"name":"amount","type":"uint256","internalType":"uint256"}],"outputs":[{"name":"","type":"bool","internalType":"bool"}],"stateMutability":"nonpayable"},{"type":"function","name":"transferFrom","inputs":[{"name":"sender","type":"address","internalType":"address"},{"name":"recipient","type":"address","internalType":"address"},{"name":"amount","type":"uint256","internalType":"uint256"}],"outputs":[{"name":"","type":"bool","internalType":"bool"}],"stateMutability":"nonpayable"},{"type":"function","name":"withdraw","inputs":[{"name":"amount","type":"uint256","internalType":"uint256"}],"outputs":[],"stateMutability":"nonpayable"},{"type":"event","name":"Approval","inputs":[{"name":"owner","type":"address","indexed":true,"internalType":"address"},{"name":"spender","type":"address","indexed":true,"internalType":"address"},{"name":"value","type":"uint256","indexed":false,"internalType":"uint256"}],"anonymous":false},{"type":"event","name":"MetaTransactionExecuted","inputs":[{"name":"userAddress","type":"address","indexed":true,"internalType":"address"},{"name":"relayerAddress","type":"address","indexed":true,"internalType":"address payable"},{"name":"functionSignature","type":"bytes","indexed":false,"internalType":"bytes"}],"anonymous":false},{"type":"event","name":"RoleAdminChanged","inputs":[{"name":"role","type":"bytes32","indexed":true,"internalType":"bytes32"},{"name":"previousAdminRole","type":"bytes32","indexed":true,"internalType":"bytes32"},{"name":"newAdminRole","type":"bytes32","indexed":true,"internalType":"bytes32"}],"anonymous":false},{"type":"event","name":"RoleGranted","inputs":[{"name":"role","type":"bytes32","indexed":true,"internalType":"bytes32"},{"name":"account","type":"address","indexed":true,"internalType":"address"},{"name":"sender","type":"address","indexed":true,"internalType":"address"}],"anonymous":false},{"type":"event","name":"RoleRevoked","inputs":[{"name":"role","type":"bytes32","indexed":true,"internalType":"bytes32"},{"name":"account","type":"address","indexed":true,"internalType":"address"},{"name":"sender","type":"address","indexed":true,"internalType":"address"}],"anonymous":false},{"type":"event","name":"Transfer","inputs":[{"name":"from","type":"address","indexed":true,"internalType":"address"},{"name":"to","type":"address","indexed":true,"internalType":"address"},{"name":"value","type":"uint256","indexed":false,"internalType":"uint256"}],"anonymous":false}],"bytecode":{"object":"0x60806040526008805460ff191690553480156200001b57600080fd5b506040516200238838038062002388833981810160405260208110156200004157600080fd5b5051604080518082018252600d81526c2bb930b83832b21022ba3432b960991b6020828101918252835180850190945260048452630ae8aa8960e31b9084015281519192916012918591859185916200009d916003916200052f565b508051620000b39060049060208401906200052f565b50506005805460ff191660121790555060408051808201909152600a81526904368696c6445524332360b41b6020820152620000f8906001600160e01b036200018b16565b6200010c826001600160e01b036200023116565b620001346000620001256001600160e01b036200024716565b6001600160e01b036200026416565b604080516d4445504f5349544f525f524f4c4560901b8152905190819003600e0190206200016c90826001600160e01b036200026416565b62000180846001600160e01b036200027916565b5050505050620005d1565b806040516020018082805190602001908083835b60208310620001c05780518252601f1990920191602091820191016200019f565b51815160209384036101000a60001901801990921691161790527f3a20494e53554646494349454e545f5045524d495353494f4e530000000000009190930190815260408051808303600519018152601a909201905280516200022d95506007945092019190506200052f565b5050565b6005805460ff191660ff92909216919091179055565b60006200025e620002e760201b620017441760201c565b90505b90565b6200022d82826001600160e01b036200034616565b60085460ff1615620002c3576040805162461bcd60e51b815260206004820152600e60248201526d185b1c9958591e481a5b9a5d195960921b604482015290519081900360640190fd5b620002d7816001600160e01b03620003ca16565b506008805460ff19166001179055565b600033301415620003415760606000368080601f0160208091040260200160405190810160405280939291908181526020018383808284376000920191909152505050503601516001600160a01b03169150620002619050565b503390565b60008281526006602090815260409091206200036d918390620018c162000492821b17901c565b156200022d57620003866001600160e01b036200024716565b6001600160a01b0316816001600160a01b0316837f2f8788117e7eff1d82e926ec794901d17c78024a50270940304540a733656f0d60405160405180910390a45050565b6040518060800160405280604f815260200162002339604f913980516020918201208251838301206040805180820190915260018152603160f81b930192909252907fc89efdaa54c0f20c7adf612882df0950f5a951637e0307cdcb4c672f298b8bc630620004416001600160e01b03620004bb16565b604080516020808201979097528082019590955260608501939093526001600160a01b03909116608084015260a0808401919091528151808403909101815260c09092019052805191012060095550565b6000620004b2836001600160a01b0384166001600160e01b03620004bf16565b90505b92915050565b4690565b6000620004d683836001600160e01b036200051716565b6200050e57508154600181810184556000848152602080822090930184905584548482528286019093526040902091909155620004b5565b506000620004b5565b60009081526001919091016020526040902054151590565b828054600181600116156101000203166002900490600052602060002090601f016020900481019282601f106200057257805160ff1916838001178555620005a2565b82800160010185558215620005a2579182015b82811115620005a257825182559160200191906001019062000585565b50620005b0929150620005b4565b5090565b6200026191905b80821115620005b05760008155600101620005bb565b611d5880620005e16000396000f3fe60806040526004361061019c5760003560e01c806336568abe116100ec578063a3b0b5a31161008a578063ca15c87311610064578063ca15c87314610678578063cf2c52cb146106a2578063d547741f1461072f578063dd62ed3e146107685761019c565b8063a3b0b5a3146105f1578063a457c2d714610606578063a9059cbb1461063f5761019c565b80639010d07c116100c65780639010d07c1461054257806391d148541461058e57806395d89b41146105c7578063a217fddf146105dc5761019c565b806336568abe1461049d57806339509351146104d657806370a082311461050f5761019c565b806323b872dd116101595780632e1a7d4d116101335780632e1a7d4d146103f85780632f2ff15d14610424578063313ce5671461045d5780633408e470146104885761019c565b806323b872dd14610358578063248a9ca31461039b5780632d0335ab146103c55761019c565b806306fdde03146101a1578063095ea7b31461022b5780630c53c51c146102785780630f7e59701461030757806318160ddd1461031c57806320379ee514610343575b600080fd5b3480156101ad57600080fd5b506101b66107a3565b6040805160208082528351818301528351919283929083019185019080838360005b838110156101f05781810151838201526020016101d8565b50505050905090810190601f16801561021d5780820380516001836020036101000a031916815260200191505b509250505060405180910390f35b34801561023757600080fd5b506102646004803603604081101561024e57600080fd5b506001600160a01b038135169060200135610839565b604080519115158252519081900360200190f35b6101b6600480360360a081101561028e57600080fd5b6001600160a01b0382351691908101906040810160208201356401000000008111156102b957600080fd5b8201836020820111156102cb57600080fd5b803590602001918460018302840111640100000000831117156102ed57600080fd5b91935091508035906020810135906040013560ff16610857565b34801561031357600080fd5b506101b6610ae0565b34801561032857600080fd5b50610331610afd565b60408051918252519081900360200190f35b34801561034f57600080fd5b50610331610b03565b34801561036457600080fd5b506102646004803603606081101561037b57600080fd5b506001600160a01b03813581169160208101359091169060400135610b09565b3480156103a757600080fd5b50610331600480360360208110156103be57600080fd5b5035610b96565b3480156103d157600080fd5b50610331600480360360208110156103e857600080fd5b50356001600160a01b0316610bab565b34801561040457600080fd5b506104226004803603602081101561041b57600080fd5b5035610bc6565b005b34801561043057600080fd5b506104226004803603604081101561044757600080fd5b50803590602001356001600160a01b0316610bda565b34801561046957600080fd5b50610472610c46565b6040805160ff9092168252519081900360200190f35b34801561049457600080fd5b50610331610c4f565b3480156104a957600080fd5b50610422600480360360408110156104c057600080fd5b50803590602001356001600160a01b0316610c53565b3480156104e257600080fd5b50610264600480360360408110156104f957600080fd5b506001600160a01b038135169060200135610cb4565b34801561051b57600080fd5b506103316004803603602081101561053257600080fd5b50356001600160a01b0316610d08565b34801561054e57600080fd5b506105726004803603604081101561056557600080fd5b5080359060200135610d23565b604080516001600160a01b039092168252519081900360200190f35b34801561059a57600080fd5b50610264600480360360408110156105b157600080fd5b50803590602001356001600160a01b0316610d48565b3480156105d357600080fd5b506101b6610d66565b3480156105e857600080fd5b50610331610dc7565b3480156105fd57600080fd5b50610331610dcc565b34801561061257600080fd5b506102646004803603604081101561062957600080fd5b506001600160a01b038135169060200135610df2565b34801561064b57600080fd5b506102646004803603604081101561066257600080fd5b506001600160a01b038135169060200135610e60565b34801561068457600080fd5b506103316004803603602081101561069b57600080fd5b5035610e74565b3480156106ae57600080fd5b50610422600480360360408110156106c557600080fd5b6001600160a01b0382351691908101906040810160208201356401000000008111156106f057600080fd5b82018360208201111561070257600080fd5b8035906020019184600183028401116401000000008311171561072457600080fd5b509092509050610e8b565b34801561073b57600080fd5b506104226004803603604081101561075257600080fd5b50803590602001356001600160a01b0316610f82565b34801561077457600080fd5b506103316004803603604081101561078b57600080fd5b506001600160a01b0381358116916020013516610fdb565b60038054604080516020601f600260001961010060018816150201909516949094049384018190048102820181019092528281526060939092909183018282801561082f5780601f106108045761010080835404028352916020019161082f565b820191906000526020600020905b81548152906001019060200180831161081257829003601f168201915b5050505050905090565b600061084d610846611006565b8484611015565b5060015b92915050565b6060610861611a7b565b604080516060810182526001600160a01b038a166000818152600a602090815290849020548352808301919091528251601f8a0182900482028101820184528981529192830191908a908a9081908401838280828437600092019190915250505091525090506108d48882878787611101565b61090f5760405162461bcd60e51b8152600401808060200182810382526021815260200180611c446021913960400191505060405180910390fd5b6001600160a01b0388166000818152600a60209081526040918290208054600101905581518181529081018990523392917f5845892132946850460bff5a0083f71031bc5bf9aadcd40f1de79423eac9b10b918b918b919081908101848480828437600083820152604051601f909101601f19169092018290039550909350505050a360006060306001600160a01b031689898c6040516020018084848082843780830192505050826001600160a01b03166001600160a01b031660601b815260140193505050506040516020818303038152906040526040518082805190602001908083835b60208310610a155780518252601f1990920191602091820191016109f6565b6001836020036101000a0380198251168184511680821785525050505050509050019150506000604051808303816000865af19150503d8060008114610a77576040519150601f19603f3d011682016040523d82523d6000602084013e610a7c565b606091505b509150915081610ad3576040805162461bcd60e51b815260206004820152601c60248201527f46756e6374696f6e2063616c6c206e6f74207375636365737366756c00000000604482015290519081900360640190fd5b9998505050505050505050565b604051806040016040528060018152602001603160f81b81525081565b60025490565b60095490565b6000610b168484846111de565b610b8c84610b22611006565b610b8785604051806060016040528060288152602001611c1c602891396001600160a01b038a16600090815260016020526040812090610b60611006565b6001600160a01b03168152602081019190915260400160002054919063ffffffff61134516565b611015565b5060019392505050565b60009081526006602052604090206002015490565b6001600160a01b03166000908152600a602052604090205490565b610bd7610bd1611006565b826113dc565b50565b600082815260066020526040902060020154610bfd90610bf8611006565b610d48565b610c385760405162461bcd60e51b815260040180806020018281038252602f815260200180611aeb602f913960400191505060405180910390fd5b610c4282826114e4565b5050565b60055460ff1690565b4690565b610c5b611006565b6001600160a01b0316816001600160a01b031614610caa5760405162461bcd60e51b815260040180806020018281038252602f815260200180611cf4602f913960400191505060405180910390fd5b610c428282611553565b600061084d610cc1611006565b84610b878560016000610cd2611006565b6001600160a01b03908116825260208083019390935260409182016000908120918c16815292529020549063ffffffff6115c216565b6001600160a01b031660009081526020819052604090205490565b6000828152600660205260408120610d41908363ffffffff61161c16565b9392505050565b6000828152600660205260408120610d41908363ffffffff61162816565b60048054604080516020601f600260001961010060018816150201909516949094049384018190048102820181019092528281526060939092909183018282801561082f5780601f106108045761010080835404028352916020019161082f565b600081565b604080516d4445504f5349544f525f524f4c4560901b8152905190819003600e01902081565b600061084d610dff611006565b84610b8785604051806060016040528060258152602001611ccf6025913960016000610e29611006565b6001600160a01b03908116825260208083019390935260409182016000908120918d1681529252902054919063ffffffff61134516565b600061084d610e6d611006565b84846111de565b60008181526006602052604081206108519061163d565b604080516d4445504f5349544f525f524f4c4560901b8152905190819003600e019020610eba81610bf8611006565b600790610f5a5760405162461bcd60e51b8152602060048201908152825460026000196101006001841615020190911604602483018190529091829160449091019084908015610f4b5780601f10610f2057610100808354040283529160200191610f4b565b820191906000526020600020905b815481529060010190602001808311610f2e57829003601f168201915b50509250505060405180910390fd5b50600083836020811015610f6d57600080fd5b50359050610f7b8582611648565b5050505050565b600082815260066020526040902060020154610fa090610bf8611006565b610caa5760405162461bcd60e51b8152600401808060200182810382526030815260200180611bc76030913960400191505060405180910390fd5b6001600160a01b03918216600090815260016020908152604080832093909416825291909152205490565b6000611010611744565b905090565b6001600160a01b03831661105a5760405162461bcd60e51b8152600401808060200182810382526024815260200180611cab6024913960400191505060405180910390fd5b6001600160a01b03821661109f5760405162461bcd60e51b8152600401808060200182810382526022815260200180611b7f6022913960400191505060405180910390fd5b6001600160a01b03808416600081815260016020908152604080832094871680845294825291829020859055815185815291517f8c5be1e5ebec7d5bd14f71427d1e84f3dd0314c0f7b2291e5b200ac8c7c3b9259281900390910190a3505050565b60006001600160a01b0386166111485760405162461bcd60e51b8152600401808060200182810382526025815260200180611bf76025913960400191505060405180910390fd5b600161115b611156876117a2565b61182e565b83868660405160008152602001604052604051808581526020018460ff1660ff1681526020018381526020018281526020019450505050506020604051602081039080840390855afa1580156111b5573d6000803e3d6000fd5b505050602060405103516001600160a01b0316866001600160a01b031614905095945050505050565b6001600160a01b0383166112235760405162461bcd60e51b8152600401808060200182810382526025815260200180611c866025913960400191505060405180910390fd5b6001600160a01b0382166112685760405162461bcd60e51b8152600401808060200182810382526023815260200180611ac86023913960400191505060405180910390fd5b61127383838361187a565b6112b681604051806060016040528060268152602001611ba1602691396001600160a01b038616600090815260208190526040902054919063ffffffff61134516565b6001600160a01b0380851660009081526020819052604080822093909355908416815220546112eb908263ffffffff6115c216565b6001600160a01b038084166000818152602081815260409182902094909455805185815290519193928716927fddf252ad1be2c89b69c2b068fc378daa952ba7f163c4a11628f55a4df523b3ef92918290030190a3505050565b600081848411156113d45760405162461bcd60e51b81526004018080602001828103825283818151815260200191508051906020019080838360005b83811015611399578181015183820152602001611381565b50505050905090810190601f1680156113c65780820380516001836020036101000a031916815260200191505b509250505060405180910390fd5b505050900390565b6001600160a01b0382166114215760405162461bcd60e51b8152600401808060200182810382526021815260200180611c656021913960400191505060405180910390fd5b61142d8260008361187a565b61147081604051806060016040528060228152602001611b1a602291396001600160a01b038516600090815260208190526040902054919063ffffffff61134516565b6001600160a01b03831660009081526020819052604090205560025461149c908263ffffffff61187f16565b6002556040805182815290516000916001600160a01b038516917fddf252ad1be2c89b69c2b068fc378daa952ba7f163c4a11628f55a4df523b3ef9181900360200190a35050565b6000828152600660205260409020611502908263ffffffff6118c116565b15610c425761150f611006565b6001600160a01b0316816001600160a01b0316837f2f8788117e7eff1d82e926ec794901d17c78024a50270940304540a733656f0d60405160405180910390a45050565b6000828152600660205260409020611571908263ffffffff6118d616565b15610c425761157e611006565b6001600160a01b0316816001600160a01b0316837ff6391f5c32d9c69d2a47ea670b442974b53935d1edc7fd64eb21e047a839171b60405160405180910390a45050565b600082820183811015610d41576040805162461bcd60e51b815260206004820152601b60248201527f536166654d6174683a206164646974696f6e206f766572666c6f770000000000604482015290519081900360640190fd5b6000610d4183836118eb565b6000610d41836001600160a01b03841661194f565b600061085182611967565b6001600160a01b0382166116a3576040805162461bcd60e51b815260206004820152601f60248201527f45524332303a206d696e7420746f20746865207a65726f206164647265737300604482015290519081900360640190fd5b6116af6000838361187a565b6002546116c2908263ffffffff6115c216565b6002556001600160a01b0382166000908152602081905260409020546116ee908263ffffffff6115c216565b6001600160a01b0383166000818152602081815260408083209490945583518581529351929391927fddf252ad1be2c89b69c2b068fc378daa952ba7f163c4a11628f55a4df523b3ef9281900390910190a35050565b60003330141561179c5760606000368080601f0160208091040260200160405190810160405280939291908181526020018383808284376000920191909152505050503601516001600160a01b0316915061179f9050565b50335b90565b6000604051806080016040528060438152602001611b3c60439139805190602001208260000151836020015184604001518051906020012060405160200180858152602001848152602001836001600160a01b03166001600160a01b03168152602001828152602001945050505050604051602081830303815290604052805190602001209050919050565b6000611838610b03565b82604051602001808061190160f01b81525060020183815260200182815260200192505050604051602081830303815290604052805190602001209050919050565b505050565b6000610d4183836040518060400160405280601e81526020017f536166654d6174683a207375627472616374696f6e206f766572666c6f770000815250611345565b6000610d41836001600160a01b03841661196b565b6000610d41836001600160a01b0384166119b5565b8154600090821061192d5760405162461bcd60e51b8152600401808060200182810382526022815260200180611aa66022913960400191505060405180910390fd5b82600001828154811061193c57fe5b9060005260206000200154905092915050565b60009081526001919091016020526040902054151590565b5490565b6000611977838361194f565b6119ad57508154600181810184556000848152602080822090930184905584548482528286019093526040902091909155610851565b506000610851565b60008181526001830160205260408120548015611a7157835460001980830191908101906000908790839081106119e857fe5b9060005260206000200154905080876000018481548110611a0557fe5b600091825260208083209091019290925582815260018981019092526040902090840190558654879080611a3557fe5b60019003818190600052602060002001600090559055866001016000878152602001908152602001600020600090556001945050505050610851565b6000915050610851565b60405180606001604052806000815260200160006001600160a01b0316815260200160608152509056fe456e756d657261626c655365743a20696e646578206f7574206f6620626f756e647345524332303a207472616e7366657220746f20746865207a65726f2061646472657373416363657373436f6e74726f6c3a2073656e646572206d75737420626520616e2061646d696e20746f206772616e7445524332303a206275726e20616d6f756e7420657863656564732062616c616e63654d6574615472616e73616374696f6e2875696e74323536206e6f6e63652c616464726573732066726f6d2c62797465732066756e6374696f6e5369676e61747572652945524332303a20617070726f766520746f20746865207a65726f206164647265737345524332303a207472616e7366657220616d6f756e7420657863656564732062616c616e6365416363657373436f6e74726f6c3a2073656e646572206d75737420626520616e2061646d696e20746f207265766f6b654e61746976654d6574615472616e73616374696f6e3a20494e56414c49445f5349474e455245524332303a207472616e7366657220616d6f756e74206578636565647320616c6c6f77616e63655369676e657220616e64207369676e617475726520646f206e6f74206d6174636845524332303a206275726e2066726f6d20746865207a65726f206164647265737345524332303a207472616e736665722066726f6d20746865207a65726f206164647265737345524332303a20617070726f76652066726f6d20746865207a65726f206164647265737345524332303a2064656372656173656420616c6c6f77616e63652062656c6f77207a65726f416363657373436f6e74726f6c3a2063616e206f6e6c792072656e6f756e636520726f6c657320666f722073656c66a2646970667358221220981cd90205b135dcb6f434cabc25edb917571c77d2977f647b062a62b8873a4364736f6c63430006060033454950373132446f6d61696e28737472696e67206e616d652c737472696e672076657273696f6e2c6164647265737320766572696679696e67436f6e74726163742c627974657333322073616c7429","linkReferences":{}},"methodIdentifiers":{"DEFAULT_ADMIN_ROLE()":"a217fddf","DEPOSITOR_ROLE()":"a3b0b5a3","ERC712_VERSION()":"0f7e5970","allowance(address,address)":"dd62ed3e","approve(address,uint256)":"095ea7b3","balanceOf(address)":"70a08231","decimals()":"313ce567","decreaseAllowance(address,uint256)":"a457c2d7","deposit(address,bytes)":"cf2c52cb","executeMetaTransaction(address,bytes,bytes32,bytes32,uint8)":"0c53c51c","getChainId()":"3408e470","getDomainSeperator()":"20379ee5","getNonce(address)":"2d0335ab","getRoleAdmin(bytes32)":"248a9ca3","getRoleMember(bytes32,uint256)":"9010d07c","getRoleMemberCount(bytes32)":"ca15c873","grantRole(bytes32,address)":"2f2ff15d","hasRole(bytes32,address)":"91d14854","increaseAllowance(address,uint256)":"39509351","name()":"06fdde03","renounceRole(bytes32,address)":"36568abe","revokeRole(bytes32,address)":"d547741f","symbol()":"95d89b41","totalSupply()":"18160ddd","transfer(address,uint256)":"a9059cbb","transferFrom(address,address,uint256)":"23b872dd","withdraw(uint256)":"2e1a7d4d"},"id":12}