{
  "_format": "hh-sol-artifact-1",
  "contractName": "ERC1155Predicate",
  "sourceName": "contracts/root/TokenPredicates/ERC1155Predicate.sol",
  "abi": [
    {
      "inputs": [],
      "stateMutability": "nonpayable",
      "type": "constructor"
    },
    {
      "anonymous": false,
      "inputs": [
        {
          "indexed": true,
          "internalType": "address",
          "name": "depositor",
          "type": "address"
        },
        {
          "indexed": true,
          "internalType": "address",
          "name": "depositReceiver",
          "type": "address"
        },
        {
          "indexed": true,
          "internalType": "address",
          "name": "rootToken",
          "type": "address"
        },
        {
          "indexed": false,
          "internalType": "uint256[]",
          "name": "ids",
          "type": "uint256[]"
        },
        {
          "indexed": false,
          "internalType": "uint256[]",
          "name": "amounts",
          "type": "uint256[]"
        }
      ],
      "name": "LockedBatchERC1155",
      "type": "event"
    },
    {
      "anonymous": false,
      "inputs": [
        {
          "indexed": true,
          "internalType": "bytes32",
          "name": "role",
          "type": "bytes32"
        },
        {
          "indexed": true,
          "internalType": "bytes32",
          "name": "previousAdminRole",
          "type": "bytes32"
        },
        {
          "indexed": true,
          "internalType": "bytes32",
          "name": "newAdminRole",
          "type": "bytes32"
        }
      ],
      "name": "RoleAdminChanged",
      "type": "event"
    },
    {
      "anonymous": false,
      "inputs": [
        {
          "indexed": true,
          "internalType": "bytes32",
          "name": "role",
          "type": "bytes32"
        },
        {
          "indexed": true,
          "internalType": "address",
          "name": "account",
          "type": "address"
        },
        {
          "indexed": true,
          "internalType": "address",
          "name": "sender",
          "type": "address"
        }
      ],
      "name": "RoleGranted",
      "type": "event"
    },
    {
      "anonymous": false,
      "inputs": [
        {
          "indexed": true,
          "internalType": "bytes32",
          "name": "role",
          "type": "bytes32"
        },
        {
          "indexed": true,
          "internalType": "address",
          "name": "account",
          "type": "address"
        },
        {
          "indexed": true,
          "internalType": "address",
          "name": "sender",
          "type": "address"
        }
      ],
      "name": "RoleRevoked",
      "type": "event"
    },
    {
      "inputs": [],
      "name": "DEFAULT_ADMIN_ROLE",
      "outputs": [
        {
          "internalType": "bytes32",
          "name": "",
          "type": "bytes32"
        }
      ],
      "stateMutability": "view",
      "type": "function"
    },
    {
      "inputs": [],
      "name": "MANAGER_ROLE",
      "outputs": [
        {
          "internalType": "bytes32",
          "name": "",
          "type": "bytes32"
        }
      ],
      "stateMutability": "view",
      "type": "function"
    },
    {
      "inputs": [],
      "name": "TOKEN_TYPE",
      "outputs": [
        {
          "internalType": "bytes32",
          "name": "",
          "type": "bytes32"
        }
      ],
      "stateMutability": "view",
      "type": "function"
    },
    {
      "inputs": [],
      "name": "TRANSFER_BATCH_EVENT_SIG",
      "outputs": [
        {
          "internalType": "bytes32",
          "name": "",
          "type": "bytes32"
        }
      ],
      "stateMutability": "view",
      "type": "function"
    },
    {
      "inputs": [],
      "name": "TRANSFER_SINGLE_EVENT_SIG",
      "outputs": [
        {
          "internalType": "bytes32",
          "name": "",
          "type": "bytes32"
        }
      ],
      "stateMutability": "view",
      "type": "function"
    },
    {
      "inputs": [
        {
          "internalType": "address",
          "name": "",
          "type": "address"
        },
        {
          "internalType": "address",
          "name": "rootToken",
          "type": "address"
        },
        {
          "internalType": "bytes",
          "name": "log",
          "type": "bytes"
        }
      ],
      "name": "exitTokens",
      "outputs": [],
      "stateMutability": "nonpayable",
      "type": "function"
    },
    {
      "inputs": [
        {
          "internalType": "bytes32",
          "name": "role",
          "type": "bytes32"
        }
      ],
      "name": "getRoleAdmin",
      "outputs": [
        {
          "internalType": "bytes32",
          "name": "",
          "type": "bytes32"
        }
      ],
      "stateMutability": "view",
      "type": "function"
    },
    {
      "inputs": [
        {
          "internalType": "bytes32",
          "name": "role",
          "type": "bytes32"
        },
        {
          "internalType": "uint256",
          "name": "index",
          "type": "uint256"
        }
      ],
      "name": "getRoleMember",
      "outputs": [
        {
          "internalType": "address",
          "name": "",
          "type": "address"
        }
      ],
      "stateMutability": "view",
      "type": "function"
    },
    {
      "inputs": [
        {
          "internalType": "bytes32",
          "name": "role",
          "type": "bytes32"
        }
      ],
      "name": "getRoleMemberCount",
      "outputs": [
        {
          "internalType": "uint256",
          "name": "",
          "type": "uint256"
        }
      ],
      "stateMutability": "view",
      "type": "function"
    },
    {
      "inputs": [
        {
          "internalType": "bytes32",
          "name": "role",
          "type": "bytes32"
        },
        {
          "internalType": "address",
          "name": "account",
          "type": "address"
        }
      ],
      "name": "grantRole",
      "outputs": [],
      "stateMutability": "nonpayable",
      "type": "function"
    },
    {
      "inputs": [
        {
          "internalType": "bytes32",
          "name": "role",
          "type": "bytes32"
        },
        {
          "internalType": "address",
          "name": "account",
          "type": "address"
        }
      ],
      "name": "hasRole",
      "outputs": [
        {
          "internalType": "bool",
          "name": "",
          "type": "bool"
        }
      ],
      "stateMutability": "view",
      "type": "function"
    },
    {
      "inputs": [
        {
          "internalType": "address",
          "name": "_owner",
          "type": "address"
        }
      ],
      "name": "initialize",
      "outputs": [],
      "stateMutability": "nonpayable",
      "type": "function"
    },
    {
      "inputs": [
        {
          "internalType": "address",
          "name": "depositor",
          "type": "address"
        },
        {
          "internalType": "address",
          "name": "depositReceiver",
          "type": "address"
        },
        {
          "internalType": "address",
          "name": "rootToken",
          "type": "address"
        },
        {
          "internalType": "bytes",
          "name": "depositData",
          "type": "bytes"
        }
      ],
      "name": "lockTokens",
      "outputs": [],
      "stateMutability": "nonpayable",
      "type": "function"
    },
    {
      "inputs": [
        {
          "internalType": "address",
          "name": "",
          "type": "address"
        },
        {
          "internalType": "address",
          "name": "",
          "type": "address"
        },
        {
          "internalType": "uint256[]",
          "name": "",
          "type": "uint256[]"
        },
        {
          "internalType": "uint256[]",
          "name": "",
          "type": "uint256[]"
        },
        {
          "internalType": "bytes",
          "name": "",
          "type": "bytes"
        }
      ],
      "name": "onERC1155BatchReceived",
      "outputs": [
        {
          "internalType": "bytes4",
          "name": "",
          "type": "bytes4"
        }
      ],
      "stateMutability": "nonpayable",
      "type": "function"
    },
    {
      "inputs": [
        {
          "internalType": "address",
          "name": "",
          "type": "address"
        },
        {
          "internalType": "address",
          "name": "",
          "type": "address"
        },
        {
          "internalType": "uint256",
          "name": "",
          "type": "uint256"
        },
        {
          "internalType": "uint256",
          "name": "",
          "type": "uint256"
        },
        {
          "internalType": "bytes",
          "name": "",
          "type": "bytes"
        }
      ],
      "name": "onERC1155Received",
      "outputs": [
        {
          "internalType": "bytes4",
          "name": "",
          "type": "bytes4"
        }
      ],
      "stateMutability": "nonpayable",
      "type": "function"
    },
    {
      "inputs": [
        {
          "internalType": "bytes32",
          "name": "role",
          "type": "bytes32"
        },
        {
          "internalType": "address",
          "name": "account",
          "type": "address"
        }
      ],
      "name": "renounceRole",
      "outputs": [],
      "stateMutability": "nonpayable",
      "type": "function"
    },
    {
      "inputs": [
        {
          "internalType": "bytes32",
          "name": "role",
          "type": "bytes32"
        },
        {
          "internalType": "address",
          "name": "account",
          "type": "address"
        }
      ],
      "name": "revokeRole",
      "outputs": [],
      "stateMutability": "nonpayable",
      "type": "function"
    },
    {
      "inputs": [
        {
          "internalType": "bytes4",
          "name": "interfaceId",
          "type": "bytes4"
        }
      ],
      "name": "supportsInterface",
      "outputs": [
        {
          "internalType": "bool",
          "name": "",
          "type": "bool"
        }
      ],
      "stateMutability": "view",
      "type": "function"
    }
  ],
  "bytecode": "0x60806040526000600360006101000a81548160ff0219169083151502179055503480156200002c57600080fd5b50620000456301ffc9a760e01b6200006c60201b60201c565b6200006663bc197c8160e01b63f23a6e6160e01b186200006c60201b60201c565b62000175565b63ffffffff60e01b817bffffffffffffffffffffffffffffffffffffffffffffffffffffffff1916141562000109576040517f08c379a000000000000000000000000000000000000000000000000000000000815260040180806020018281038252601c8152602001807f4552433136353a20696e76616c696420696e746572666163652069640000000081525060200191505060405180910390fd5b6001600080837bffffffffffffffffffffffffffffffffffffffffffffffffffffffff19167bffffffffffffffffffffffffffffffffffffffffffffffffffffffff1916815260200190815260200160002060006101000a81548160ff02191690831515021790555050565b61271e80620001856000396000f3fe608060405234801561001057600080fd5b50600436106101165760003560e01c8063bc197c81116100a2578063e375b64e11610071578063e375b64e146106fc578063e9cff291146107d5578063eacc7af2146107f3578063ec87621c14610811578063f23a6e611461082f57610116565b8063bc197c8114610473578063c4d66de814610628578063ca15c8731461066c578063d547741f146106ae57610116565b8063609c92b8116100e9578063609c92b81461025e5780638274664f1461027c5780639010d07c1461037757806391d14854146103ef578063a217fddf1461045557610116565b806301ffc9a71461011b578063248a9ca3146101805780632f2ff15d146101c257806336568abe14610210575b600080fd5b6101666004803603602081101561013157600080fd5b8101908080357bffffffffffffffffffffffffffffffffffffffffffffffffffffffff1916906020019092919050505061094e565b604051808215151515815260200191505060405180910390f35b6101ac6004803603602081101561019657600080fd5b81019080803590602001909291905050506109b5565b6040518082815260200191505060405180910390f35b61020e600480360360408110156101d857600080fd5b8101908080359060200190929190803573ffffffffffffffffffffffffffffffffffffffff1690602001909291905050506109d5565b005b61025c6004803603604081101561022657600080fd5b8101908080359060200190929190803573ffffffffffffffffffffffffffffffffffffffff169060200190929190505050610a5f565b005b610266610af8565b6040518082815260200191505060405180910390f35b6103756004803603606081101561029257600080fd5b81019080803573ffffffffffffffffffffffffffffffffffffffff169060200190929190803573ffffffffffffffffffffffffffffffffffffffff169060200190929190803590602001906401000000008111156102ef57600080fd5b82018360208201111561030157600080fd5b8035906020019184600183028401116401000000008311171561032357600080fd5b91908080601f016020809104026020016040519081016040528093929190818152602001838380828437600081840152601f19601f820116905080830192505050505050509192919290505050610b31565b005b6103ad6004803603604081101561038d57600080fd5b810190808035906020019092919080359060200190929190505050611302565b604051808273ffffffffffffffffffffffffffffffffffffffff1673ffffffffffffffffffffffffffffffffffffffff16815260200191505060405180910390f35b61043b6004803603604081101561040557600080fd5b8101908080359060200190929190803573ffffffffffffffffffffffffffffffffffffffff169060200190929190505050611334565b604051808215151515815260200191505060405180910390f35b61045d611366565b6040518082815260200191505060405180910390f35b6105d4600480360360a081101561048957600080fd5b81019080803573ffffffffffffffffffffffffffffffffffffffff169060200190929190803573ffffffffffffffffffffffffffffffffffffffff169060200190929190803590602001906401000000008111156104e657600080fd5b8201836020820111156104f857600080fd5b8035906020019184602083028401116401000000008311171561051a57600080fd5b90919293919293908035906020019064010000000081111561053b57600080fd5b82018360208201111561054d57600080fd5b8035906020019184602083028401116401000000008311171561056f57600080fd5b90919293919293908035906020019064010000000081111561059057600080fd5b8201836020820111156105a257600080fd5b803590602001918460018302840111640100000000831117156105c457600080fd5b909192939192939050505061136d565b60405180827bffffffffffffffffffffffffffffffffffffffffffffffffffffffff19167bffffffffffffffffffffffffffffffffffffffffffffffffffffffff1916815260200191505060405180910390f35b61066a6004803603602081101561063e57600080fd5b81019080803573ffffffffffffffffffffffffffffffffffffffff169060200190929190505050611385565b005b6106986004803603602081101561068257600080fd5b81019080803590602001909291905050506114b0565b6040518082815260200191505060405180910390f35b6106fa600480360360408110156106c457600080fd5b8101908080359060200190929190803573ffffffffffffffffffffffffffffffffffffffff1690602001909291905050506114d7565b005b6107d36004803603608081101561071257600080fd5b81019080803573ffffffffffffffffffffffffffffffffffffffff169060200190929190803573ffffffffffffffffffffffffffffffffffffffff169060200190929190803573ffffffffffffffffffffffffffffffffffffffff1690602001909291908035906020019064010000000081111561078f57600080fd5b8201836020820111156107a157600080fd5b803590602001918460018302840111640100000000831117156107c357600080fd5b9091929391929390505050611561565b005b6107dd611b2a565b6040518082815260200191505060405180910390f35b6107fb611b51565b6040518082815260200191505060405180910390f35b610819611b78565b6040518082815260200191505060405180910390f35b6108fa600480360360a081101561084557600080fd5b81019080803573ffffffffffffffffffffffffffffffffffffffff169060200190929190803573ffffffffffffffffffffffffffffffffffffffff1690602001909291908035906020019092919080359060200190929190803590602001906401000000008111156108b657600080fd5b8201836020820111156108c857600080fd5b803590602001918460018302840111640100000000831117156108ea57600080fd5b9091929391929390505050611bb1565b60405180827bffffffffffffffffffffffffffffffffffffffffffffffffffffffff19167bffffffffffffffffffffffffffffffffffffffffffffffffffffffff1916815260200191505060405180910390f35b6000806000837bffffffffffffffffffffffffffffffffffffffffffffffffffffffff19167bffffffffffffffffffffffffffffffffffffffffffffffffffffffff1916815260200190815260200160002060009054906101000a900460ff169050919050565b600060016000838152602001908152602001600020600201549050919050565b6109fc60016000848152602001908152602001600020600201546109f7611bc3565b611334565b610a51576040517f08c379a000000000000000000000000000000000000000000000000000000000815260040180806020018281038252602f815260200180612613602f913960400191505060405180910390fd5b610a5b8282611bcb565b5050565b610a67611bc3565b73ffffffffffffffffffffffffffffffffffffffff168173ffffffffffffffffffffffffffffffffffffffff1614610aea576040517f08c379a000000000000000000000000000000000000000000000000000000000815260040180806020018281038252602f8152602001806126ba602f913960400191505060405180910390fd5b610af48282611c5f565b5050565b60405180807f45524331313535000000000000000000000000000000000000000000000000008152506007019050604051809103902081565b60405180807f4d414e414745525f524f4c450000000000000000000000000000000000000000815250600c0190506040518091039020610b7881610b73611bc3565b611334565b600290610c3d576040517f08c379a00000000000000000000000000000000000000000000000000000000081526004018080602001828103825283818154600181600116156101000203166002900481526020019150805460018160011615610100020316600290048015610c2e5780601f10610c0357610100808354040283529160200191610c2e565b820191906000526020600020905b815481529060010190602001808311610c1157829003601f168201915b50509250505060405180910390fd5b506060610c51610c4c84611cf3565b611d21565b90506060610c7282600181518110610c6557fe5b6020026020010151611d21565b90506060610c9383600281518110610c8657fe5b6020026020010151611e15565b90506000610cb483600281518110610ca757fe5b6020026020010151611ea6565b9050600073ffffffffffffffffffffffffffffffffffffffff16610ceb84600381518110610cde57fe5b6020026020010151611ea6565b73ffffffffffffffffffffffffffffffffffffffff1614610d57576040517f08c379a00000000000000000000000000000000000000000000000000000000081526004018080602001828103825260228152602001806126686022913960400191505060405180910390fd5b7fc3d58168c5ae7397731d063d5bbf3d657854427343f4c083240f7aacaa2d0f6260001b610d9884600081518110610d8b57fe5b6020026020010151611ea6565b60001b1415610f3657600080838060200190516040811015610db957600080fd5b810190808051906020019092919080519060200190929190505050915091508873ffffffffffffffffffffffffffffffffffffffff1663f242432a30858585604051806020016040528060008152506040518663ffffffff1660e01b8152600401808673ffffffffffffffffffffffffffffffffffffffff1673ffffffffffffffffffffffffffffffffffffffff1681526020018573ffffffffffffffffffffffffffffffffffffffff1673ffffffffffffffffffffffffffffffffffffffff16815260200184815260200183815260200180602001828103825283818151815260200191508051906020019080838360005b83811015610ec7578082015181840152602081019050610eac565b50505050905090810190601f168015610ef45780820380516001836020036101000a031916815260200191505b509650505050505050600060405180830381600087803b158015610f1757600080fd5b505af1158015610f2b573d6000803e3d6000fd5b5050505050506112f8565b7f4a39dc06d4c0dbc64b70af90fd698a233a518aa5d07e595d983b8c0526c8f7fb60001b610f7784600081518110610f6a57fe5b6020026020010151611ea6565b60001b14156112a657606080838060200190516040811015610f9857600080fd5b8101908080516040519392919084640100000000821115610fb857600080fd5b83820191506020820185811115610fce57600080fd5b8251866020820283011164010000000082111715610feb57600080fd5b8083526020830192505050908051906020019060200280838360005b83811015611022578082015181840152602081019050611007565b505050509050016040526020018051604051939291908464010000000082111561104b57600080fd5b8382019150602082018581111561106157600080fd5b825186602082028301116401000000008211171561107e57600080fd5b8083526020830192505050908051906020019060200280838360005b838110156110b557808201518184015260208101905061109a565b50505050905001604052505050915091508873ffffffffffffffffffffffffffffffffffffffff16632eb2c2d630858585604051806020016040528060008152506040518663ffffffff1660e01b8152600401808673ffffffffffffffffffffffffffffffffffffffff1673ffffffffffffffffffffffffffffffffffffffff1681526020018573ffffffffffffffffffffffffffffffffffffffff1673ffffffffffffffffffffffffffffffffffffffff168152602001806020018060200180602001848103845287818151815260200191508051906020019060200280838360005b838110156111b4578082015181840152602081019050611199565b50505050905001848103835286818151815260200191508051906020019060200280838360005b838110156111f65780820151818401526020810190506111db565b50505050905001848103825285818151815260200191508051906020019080838360005b8381101561123557808201518184015260208101905061121a565b50505050905090810190601f1680156112625780820380516001836020036101000a031916815260200191505b5098505050505050505050600060405180830381600087803b15801561128757600080fd5b505af115801561129b573d6000803e3d6000fd5b5050505050506112f7565b6040517f08c379a00000000000000000000000000000000000000000000000000000000081526004018080602001828103825260268152602001806126426026913960400191505060405180910390fd5b5b5050505050505050565b600061132c8260016000868152602001908152602001600020600001611f0090919063ffffffff16565b905092915050565b600061135e8260016000868152602001908152602001600020600001611f1a90919063ffffffff16565b905092915050565b6000801b81565b600063bc197c8160e01b905098975050505050505050565b600360009054906101000a900460ff1615611408576040517f08c379a000000000000000000000000000000000000000000000000000000000815260040180806020018281038252600e8152602001807f616c726561647920696e6974656400000000000000000000000000000000000081525060200191505060405180910390fd5b6114466040518060400160405280601081526020017f4552433131353550726564696361746500000000000000000000000000000000815250611f4a565b6114536000801b82611ff6565b61149260405180807f4d414e414745525f524f4c450000000000000000000000000000000000000000815250600c019050604051809103902082611ff6565b6001600360006101000a81548160ff02191690831515021790555050565b60006114d060016000848152602001908152602001600020600001612004565b9050919050565b6114fe60016000848152602001908152602001600020600201546114f9611bc3565b611334565b611553576040517f08c379a000000000000000000000000000000000000000000000000000000000815260040180806020018281038252603081526020018061268a6030913960400191505060405180910390fd5b61155d8282611c5f565b5050565b60405180807f4d414e414745525f524f4c450000000000000000000000000000000000000000815250600c01905060405180910390206115a8816115a3611bc3565b611334565b60029061166d576040517f08c379a0000000000000000000000000000000000000000000000000000000008152600401808060200182810382528381815460018160011615610100020316600290048152602001915080546001816001161561010002031660029004801561165e5780601f106116335761010080835404028352916020019161165e565b820191906000526020600020905b81548152906001019060200180831161164157829003601f168201915b50509250505060405180910390fd5b5060608060608585606081101561168357600080fd5b81019080803590602001906401000000008111156116a057600080fd5b8201836020820111156116b257600080fd5b803590602001918460208302840111640100000000831117156116d457600080fd5b919080806020026020016040519081016040528093929190818152602001838360200280828437600081840152601f19601f8201169050808301925050505050505091929192908035906020019064010000000081111561173457600080fd5b82018360208201111561174657600080fd5b8035906020019184602083028401116401000000008311171561176857600080fd5b919080806020026020016040519081016040528093929190818152602001838360200280828437600081840152601f19601f820116905080830192505050505050509192919290803590602001906401000000008111156117c857600080fd5b8201836020820111156117da57600080fd5b803590602001918460018302840111640100000000831117156117fc57600080fd5b91908080601f016020809104026020016040519081016040528093929190818152602001838380828437600081840152601f19601f8201169050808301925050505050505091929192905050509250925092508673ffffffffffffffffffffffffffffffffffffffff168873ffffffffffffffffffffffffffffffffffffffff168a73ffffffffffffffffffffffffffffffffffffffff167f5a921678b5779e4471b77219741a417a6ad6ec5d89fa5c8ce8cd7bd2d9f341868686604051808060200180602001838103835285818151815260200191508051906020019060200280838360005b838110156118fe5780820151818401526020810190506118e3565b50505050905001838103825284818151815260200191508051906020019060200280838360005b83811015611940578082015181840152602081019050611925565b5050505090500194505050505060405180910390a48673ffffffffffffffffffffffffffffffffffffffff16632eb2c2d68a308686866040518663ffffffff1660e01b8152600401808673ffffffffffffffffffffffffffffffffffffffff1673ffffffffffffffffffffffffffffffffffffffff1681526020018573ffffffffffffffffffffffffffffffffffffffff1673ffffffffffffffffffffffffffffffffffffffff168152602001806020018060200180602001848103845287818151815260200191508051906020019060200280838360005b83811015611a34578082015181840152602081019050611a19565b50505050905001848103835286818151815260200191508051906020019060200280838360005b83811015611a76578082015181840152602081019050611a5b565b50505050905001848103825285818151815260200191508051906020019080838360005b83811015611ab5578082015181840152602081019050611a9a565b50505050905090810190601f168015611ae25780820380516001836020036101000a031916815260200191505b5098505050505050505050600060405180830381600087803b158015611b0757600080fd5b505af1158015611b1b573d6000803e3d6000fd5b50505050505050505050505050565b7fc3d58168c5ae7397731d063d5bbf3d657854427343f4c083240f7aacaa2d0f6260001b81565b7f4a39dc06d4c0dbc64b70af90fd698a233a518aa5d07e595d983b8c0526c8f7fb60001b81565b60405180807f4d414e414745525f524f4c450000000000000000000000000000000000000000815250600c019050604051809103902081565b60008060e01b90509695505050505050565b600033905090565b611bf3816001600085815260200190815260200160002060000161201990919063ffffffff16565b15611c5b57611c00611bc3565b73ffffffffffffffffffffffffffffffffffffffff168173ffffffffffffffffffffffffffffffffffffffff16837f2f8788117e7eff1d82e926ec794901d17c78024a50270940304540a733656f0d60405160405180910390a45b5050565b611c87816001600085815260200190815260200160002060000161204990919063ffffffff16565b15611cef57611c94611bc3565b73ffffffffffffffffffffffffffffffffffffffff168173ffffffffffffffffffffffffffffffffffffffff16837ff6391f5c32d9c69d2a47ea670b442974b53935d1edc7fd64eb21e047a839171b60405160405180910390a45b5050565b611cfb612531565b600060208301905060405180604001604052808451815260200182815250915050919050565b6060611d2c82612079565b611d3557600080fd5b6000611d40836120c7565b905060608167ffffffffffffffff81118015611d5b57600080fd5b50604051908082528060200260200182016040528015611d9557816020015b611d82612531565b815260200190600190039081611d7a5790505b5090506000611da78560200151612138565b8560200151019050600080600090505b84811015611e0857611dc8836121c1565b9150604051806040016040528083815260200184815250848281518110611deb57fe5b602002602001018190525081830192508080600101915050611db7565b5082945050505050919050565b60606000826000015111611e2857600080fd5b600080611e3484612279565b9150915060608167ffffffffffffffff81118015611e5157600080fd5b506040519080825280601f01601f191660200182016040528015611e845781602001600182028036833780820191505090505b5090506000816020019050611e9a8482856122b1565b81945050505050919050565b6000808260000151118015611ec057506021826000015111155b611ec957600080fd5b600080611ed584612279565b915091506000825190506020821015611ef557816020036101000a810490505b809350505050919050565b6000611f0f8360000183612322565b60001c905092915050565b6000611f42836000018373ffffffffffffffffffffffffffffffffffffffff1660001b6123a5565b905092915050565b806040516020018082805190602001908083835b60208310611f815780518252602082019150602081019050602083039250611f5e565b6001836020036101000a038019825116818451168082178552505050505050905001807f3a20494e53554646494349454e545f5045524d495353494f4e53000000000000815250601a0191505060405160208183030381529060405260029080519060200190611ff292919061254b565b5050565b6120008282611bcb565b5050565b6000612012826000016123c8565b9050919050565b6000612041836000018373ffffffffffffffffffffffffffffffffffffffff1660001b6123d9565b905092915050565b6000612071836000018373ffffffffffffffffffffffffffffffffffffffff1660001b612449565b905092915050565b6000808260000151141561209057600090506120c2565b60008083602001519050805160001a915060c060ff168260ff1610156120bb576000925050506120c2565b6001925050505b919050565b600080826000015114156120de5760009050612133565b600080905060006120f28460200151612138565b84602001510190506000846000015185602001510190505b8082101561212c5761211b826121c1565b82019150828060010193505061210a565b8293505050505b919050565b600080825160001a9050608060ff168110156121585760009150506121bc565b60b860ff1681108061217d575060c060ff16811015801561217c575060f860ff1681105b5b1561218c5760019150506121bc565b60c060ff168110156121ac5760018060b80360ff168203019150506121bc565b60018060f80360ff168203019150505b919050565b6000806000835160001a9050608060ff168110156121e2576001915061226f565b60b860ff168110156121ff576001608060ff16820301915061226e565b60c060ff1681101561222f5760b78103600185019450806020036101000a8551046001820181019350505061226d565b60f860ff1681101561224c57600160c060ff16820301915061226c565b60f78103600185019450806020036101000a855104600182018101935050505b5b5b5b8192505050919050565b600080600061228b8460200151612138565b905060008185602001510190506000828660000151039050818194509450505050915091565b60008114156122bf5761231d565b5b602060ff1681106122ef5782518252602060ff1683019250602060ff1682019150602060ff16810390506122c0565b600081111561231c576000600182602060ff16036101000a03905080198451168184511681811785525050505b5b505050565b600081836000018054905011612383576040517f08c379a00000000000000000000000000000000000000000000000000000000081526004018080602001828103825260228152602001806125f16022913960400191505060405180910390fd5b82600001828154811061239257fe5b9060005260206000200154905092915050565b600080836001016000848152602001908152602001600020541415905092915050565b600081600001805490509050919050565b60006123e583836123a5565b61243e578260000182908060018154018082558091505060019003906000526020600020016000909190919091505582600001805490508360010160008481526020019081526020016000208190555060019050612443565b600090505b92915050565b60008083600101600084815260200190815260200160002054905060008114612525576000600182039050600060018660000180549050039050600086600001828154811061249457fe5b90600052602060002001549050808760000184815481106124b157fe5b90600052602060002001819055506001830187600101600083815260200190815260200160002081905550866000018054806124e957fe5b6001900381819060005260206000200160009055905586600101600087815260200190815260200160002060009055600194505050505061252b565b60009150505b92915050565b604051806040016040528060008152602001600081525090565b828054600181600116156101000203166002900490600052602060002090601f016020900481019282601f1061258c57805160ff19168380011785556125ba565b828001600101855582156125ba579182015b828111156125b957825182559160200191906001019061259e565b5b5090506125c791906125cb565b5090565b6125ed91905b808211156125e95760008160009055506001016125d1565b5090565b9056fe456e756d657261626c655365743a20696e646578206f7574206f6620626f756e6473416363657373436f6e74726f6c3a2073656e646572206d75737420626520616e2061646d696e20746f206772616e74455243313135355072656469636174653a20494e56414c49445f57495448445241575f534947455243313135355072656469636174653a20494e56414c49445f5245434549564552416363657373436f6e74726f6c3a2073656e646572206d75737420626520616e2061646d696e20746f207265766f6b65416363657373436f6e74726f6c3a2063616e206f6e6c792072656e6f756e636520726f6c657320666f722073656c66a264697066735822122005c3cd0afc0fde14d9b7ce4020a0743c75ab859c587c2b04b0aa7314fcec322464736f6c63430006060033",
  "linkReferences": {},
  "deployedLinkReferences": {}
}