{
  "_format": "hh-sol-artifact-1",
  "contractName": "TestUChildERC20",
  "sourceName": "contracts/test/TestUChildERC20.sol",
  "abi": [
    {
      "anonymous": false,
      "inputs": [
        {
          "indexed": true,
          "internalType": "address",
          "name": "owner",
          "type": "address"
        },
        {
          "indexed": true,
          "internalType": "address",
          "name": "spender",
          "type": "address"
        },
        {
          "indexed": false,
          "internalType": "uint256",
          "name": "value",
          "type": "uint256"
        }
      ],
      "name": "Approval",
      "type": "event"
    },
    {
      "anonymous": false,
      "inputs": [
        {
          "indexed": true,
          "internalType": "address",
          "name": "userAddress",
          "type": "address"
        },
        {
          "indexed": true,
          "internalType": "address payable",
          "name": "relayerAddress",
          "type": "address"
        },
        {
          "indexed": false,
          "internalType": "bytes",
          "name": "functionSignature",
          "type": "bytes"
        }
      ],
      "name": "MetaTransactionExecuted",
      "type": "event"
    },
    {
      "anonymous": false,
      "inputs": [
        {
          "indexed": true,
          "internalType": "bytes32",
          "name": "role",
          "type": "bytes32"
        },
        {
          "indexed": true,
          "internalType": "bytes32",
          "name": "previousAdminRole",
          "type": "bytes32"
        },
        {
          "indexed": true,
          "internalType": "bytes32",
          "name": "newAdminRole",
          "type": "bytes32"
        }
      ],
      "name": "RoleAdminChanged",
      "type": "event"
    },
    {
      "anonymous": false,
      "inputs": [
        {
          "indexed": true,
          "internalType": "bytes32",
          "name": "role",
          "type": "bytes32"
        },
        {
          "indexed": true,
          "internalType": "address",
          "name": "account",
          "type": "address"
        },
        {
          "indexed": true,
          "internalType": "address",
          "name": "sender",
          "type": "address"
        }
      ],
      "name": "RoleGranted",
      "type": "event"
    },
    {
      "anonymous": false,
      "inputs": [
        {
          "indexed": true,
          "internalType": "bytes32",
          "name": "role",
          "type": "bytes32"
        },
        {
          "indexed": true,
          "internalType": "address",
          "name": "account",
          "type": "address"
        },
        {
          "indexed": true,
          "internalType": "address",
          "name": "sender",
          "type": "address"
        }
      ],
      "name": "RoleRevoked",
      "type": "event"
    },
    {
      "anonymous": false,
      "inputs": [
        {
          "indexed": true,
          "internalType": "address",
          "name": "from",
          "type": "address"
        },
        {
          "indexed": true,
          "internalType": "address",
          "name": "to",
          "type": "address"
        },
        {
          "indexed": false,
          "internalType": "uint256",
          "name": "value",
          "type": "uint256"
        }
      ],
      "name": "Transfer",
      "type": "event"
    },
    {
      "inputs": [],
      "name": "DEFAULT_ADMIN_ROLE",
      "outputs": [
        {
          "internalType": "bytes32",
          "name": "",
          "type": "bytes32"
        }
      ],
      "stateMutability": "view",
      "type": "function"
    },
    {
      "inputs": [],
      "name": "DEPOSITOR_ROLE",
      "outputs": [
        {
          "internalType": "bytes32",
          "name": "",
          "type": "bytes32"
        }
      ],
      "stateMutability": "view",
      "type": "function"
    },
    {
      "inputs": [],
      "name": "ERC712_VERSION",
      "outputs": [
        {
          "internalType": "string",
          "name": "",
          "type": "string"
        }
      ],
      "stateMutability": "view",
      "type": "function"
    },
    {
      "inputs": [
        {
          "internalType": "address",
          "name": "owner",
          "type": "address"
        },
        {
          "internalType": "address",
          "name": "spender",
          "type": "address"
        }
      ],
      "name": "allowance",
      "outputs": [
        {
          "internalType": "uint256",
          "name": "",
          "type": "uint256"
        }
      ],
      "stateMutability": "view",
      "type": "function"
    },
    {
      "inputs": [
        {
          "internalType": "address",
          "name": "spender",
          "type": "address"
        },
        {
          "internalType": "uint256",
          "name": "amount",
          "type": "uint256"
        }
      ],
      "name": "approve",
      "outputs": [
        {
          "internalType": "bool",
          "name": "",
          "type": "bool"
        }
      ],
      "stateMutability": "nonpayable",
      "type": "function"
    },
    {
      "inputs": [
        {
          "internalType": "address",
          "name": "account",
          "type": "address"
        }
      ],
      "name": "balanceOf",
      "outputs": [
        {
          "internalType": "uint256",
          "name": "",
          "type": "uint256"
        }
      ],
      "stateMutability": "view",
      "type": "function"
    },
    {
      "inputs": [
        {
          "internalType": "string",
          "name": "name_",
          "type": "string"
        }
      ],
      "name": "changeName",
      "outputs": [],
      "stateMutability": "nonpayable",
      "type": "function"
    },
    {
      "inputs": [],
      "name": "decimals",
      "outputs": [
        {
          "internalType": "uint8",
          "name": "",
          "type": "uint8"
        }
      ],
      "stateMutability": "view",
      "type": "function"
    },
    {
      "inputs": [
        {
          "internalType": "address",
          "name": "spender",
          "type": "address"
        },
        {
          "internalType": "uint256",
          "name": "subtractedValue",
          "type": "uint256"
        }
      ],
      "name": "decreaseAllowance",
      "outputs": [
        {
          "internalType": "bool",
          "name": "",
          "type": "bool"
        }
      ],
      "stateMutability": "nonpayable",
      "type": "function"
    },
    {
      "inputs": [
        {
          "internalType": "address",
          "name": "user",
          "type": "address"
        },
        {
          "internalType": "bytes",
          "name": "depositData",
          "type": "bytes"
        }
      ],
      "name": "deposit",
      "outputs": [],
      "stateMutability": "nonpayable",
      "type": "function"
    },
    {
      "inputs": [
        {
          "internalType": "address",
          "name": "userAddress",
          "type": "address"
        },
        {
          "internalType": "bytes",
          "name": "functionSignature",
          "type": "bytes"
        },
        {
          "internalType": "bytes32",
          "name": "sigR",
          "type": "bytes32"
        },
        {
          "internalType": "bytes32",
          "name": "sigS",
          "type": "bytes32"
        },
        {
          "internalType": "uint8",
          "name": "sigV",
          "type": "uint8"
        }
      ],
      "name": "executeMetaTransaction",
      "outputs": [
        {
          "internalType": "bytes",
          "name": "",
          "type": "bytes"
        }
      ],
      "stateMutability": "payable",
      "type": "function"
    },
    {
      "inputs": [],
      "name": "getChainId",
      "outputs": [
        {
          "internalType": "uint256",
          "name": "",
          "type": "uint256"
        }
      ],
      "stateMutability": "pure",
      "type": "function"
    },
    {
      "inputs": [],
      "name": "getDomainSeperator",
      "outputs": [
        {
          "internalType": "bytes32",
          "name": "",
          "type": "bytes32"
        }
      ],
      "stateMutability": "view",
      "type": "function"
    },
    {
      "inputs": [
        {
          "internalType": "address",
          "name": "user",
          "type": "address"
        }
      ],
      "name": "getNonce",
      "outputs": [
        {
          "internalType": "uint256",
          "name": "nonce",
          "type": "uint256"
        }
      ],
      "stateMutability": "view",
      "type": "function"
    },
    {
      "inputs": [
        {
          "internalType": "bytes32",
          "name": "role",
          "type": "bytes32"
        }
      ],
      "name": "getRoleAdmin",
      "outputs": [
        {
          "internalType": "bytes32",
          "name": "",
          "type": "bytes32"
        }
      ],
      "stateMutability": "view",
      "type": "function"
    },
    {
      "inputs": [
        {
          "internalType": "bytes32",
          "name": "role",
          "type": "bytes32"
        },
        {
          "internalType": "uint256",
          "name": "index",
          "type": "uint256"
        }
      ],
      "name": "getRoleMember",
      "outputs": [
        {
          "internalType": "address",
          "name": "",
          "type": "address"
        }
      ],
      "stateMutability": "view",
      "type": "function"
    },
    {
      "inputs": [
        {
          "internalType": "bytes32",
          "name": "role",
          "type": "bytes32"
        }
      ],
      "name": "getRoleMemberCount",
      "outputs": [
        {
          "internalType": "uint256",
          "name": "",
          "type": "uint256"
        }
      ],
      "stateMutability": "view",
      "type": "function"
    },
    {
      "inputs": [
        {
          "internalType": "bytes32",
          "name": "role",
          "type": "bytes32"
        },
        {
          "internalType": "address",
          "name": "account",
          "type": "address"
        }
      ],
      "name": "grantRole",
      "outputs": [],
      "stateMutability": "nonpayable",
      "type": "function"
    },
    {
      "inputs": [
        {
          "internalType": "bytes32",
          "name": "role",
          "type": "bytes32"
        },
        {
          "internalType": "address",
          "name": "account",
          "type": "address"
        }
      ],
      "name": "hasRole",
      "outputs": [
        {
          "internalType": "bool",
          "name": "",
          "type": "bool"
        }
      ],
      "stateMutability": "view",
      "type": "function"
    },
    {
      "inputs": [
        {
          "internalType": "address",
          "name": "spender",
          "type": "address"
        },
        {
          "internalType": "uint256",
          "name": "addedValue",
          "type": "uint256"
        }
      ],
      "name": "increaseAllowance",
      "outputs": [
        {
          "internalType": "bool",
          "name": "",
          "type": "bool"
        }
      ],
      "stateMutability": "nonpayable",
      "type": "function"
    },
    {
      "inputs": [
        {
          "internalType": "string",
          "name": "name_",
          "type": "string"
        },
        {
          "internalType": "string",
          "name": "symbol_",
          "type": "string"
        },
        {
          "internalType": "uint8",
          "name": "decimals_",
          "type": "uint8"
        },
        {
          "internalType": "address",
          "name": "childChainManager",
          "type": "address"
        }
      ],
      "name": "initialize",
      "outputs": [],
      "stateMutability": "nonpayable",
      "type": "function"
    },
    {
      "inputs": [],
      "name": "magic",
      "outputs": [
        {
          "internalType": "string",
          "name": "",
          "type": "string"
        }
      ],
      "stateMutability": "pure",
      "type": "function"
    },
    {
      "inputs": [],
      "name": "name",
      "outputs": [
        {
          "internalType": "string",
          "name": "",
          "type": "string"
        }
      ],
      "stateMutability": "view",
      "type": "function"
    },
    {
      "inputs": [
        {
          "internalType": "bytes32",
          "name": "role",
          "type": "bytes32"
        },
        {
          "internalType": "address",
          "name": "account",
          "type": "address"
        }
      ],
      "name": "renounceRole",
      "outputs": [],
      "stateMutability": "nonpayable",
      "type": "function"
    },
    {
      "inputs": [
        {
          "internalType": "bytes32",
          "name": "role",
          "type": "bytes32"
        },
        {
          "internalType": "address",
          "name": "account",
          "type": "address"
        }
      ],
      "name": "revokeRole",
      "outputs": [],
      "stateMutability": "nonpayable",
      "type": "function"
    },
    {
      "inputs": [],
      "name": "symbol",
      "outputs": [
        {
          "internalType": "string",
          "name": "",
          "type": "string"
        }
      ],
      "stateMutability": "view",
      "type": "function"
    },
    {
      "inputs": [],
      "name": "totalSupply",
      "outputs": [
        {
          "internalType": "uint256",
          "name": "",
          "type": "uint256"
        }
      ],
      "stateMutability": "view",
      "type": "function"
    },
    {
      "inputs": [
        {
          "internalType": "address",
          "name": "recipient",
          "type": "address"
        },
        {
          "internalType": "uint256",
          "name": "amount",
          "type": "uint256"
        }
      ],
      "name": "transfer",
      "outputs": [
        {
          "internalType": "bool",
          "name": "",
          "type": "bool"
        }
      ],
      "stateMutability": "nonpayable",
      "type": "function"
    },
    {
      "inputs": [
        {
          "internalType": "address",
          "name": "sender",
          "type": "address"
        },
        {
          "internalType": "address",
          "name": "recipient",
          "type": "address"
        },
        {
          "internalType": "uint256",
          "name": "amount",
          "type": "uint256"
        }
      ],
      "name": "transferFrom",
      "outputs": [
        {
          "internalType": "bool",
          "name": "",
          "type": "bool"
        }
      ],
      "stateMutability": "nonpayable",
      "type": "function"
    },
    {
      "inputs": [
        {
          "internalType": "uint256",
          "name": "amount",
          "type": "uint256"
        }
      ],
      "name": "withdraw",
      "outputs": [],
      "stateMutability": "nonpayable",
      "type": "function"
    }
  ],
  "bytecode": "0x6008805460ff191690556000608081815260c060405260a082815290916200002c90600390839062000058565b5080516200004290600490602084019062000058565b50506005805460ff1916601217905550620000fd565b828054600181600116156101000203166002900490600052602060002090601f016020900481019282601f106200009b57805160ff1916838001178555620000cb565b82800160010185558215620000cb579182015b82811115620000cb578251825591602001919060010190620000ae565b50620000d9929150620000dd565b5090565b620000fa91905b80821115620000d95760008155600101620000e4565b90565b612487806200010d6000396000f3fe6080604052600436106101cd5760003560e01c806339509351116100f7578063a3b0b5a311610095578063cf2c52cb11610064578063cf2c52cb14610761578063d547741f146107ec578063dd62ed3e14610825578063de7ea79d14610860576101cd565b8063a3b0b5a3146106b0578063a457c2d7146106c5578063a9059cbb146106fe578063ca15c87314610737576101cd565b80639010d07c116100d15780639010d07c1461060157806391d148541461064d57806395d89b4114610686578063a217fddf1461069b576101cd565b8063395093511461051a5780635353a2d81461055357806370a08231146105ce576101cd565b806323b872dd1161016f5780632f2ff15d1161013e5780632f2ff15d14610468578063313ce567146104a15780633408e470146104cc57806336568abe146104e1576101cd565b806323b872dd1461039c578063248a9ca3146103df5780632d0335ab146104095780632e1a7d4d1461043c576101cd565b80630d854646116101ab5780630d854646146103365780630f7e59701461034b57806318160ddd1461036057806320379ee514610387576101cd565b806306fdde03146101d2578063095ea7b31461025c5780630c53c51c146102a9575b600080fd5b3480156101de57600080fd5b506101e761093d565b6040805160208082528351818301528351919283929083019185019080838360005b83811015610221578181015183820152602001610209565b50505050905090810190601f16801561024e5780820380516001836020036101000a031916815260200191505b509250505060405180910390f35b34801561026857600080fd5b506102956004803603604081101561027f57600080fd5b506001600160a01b0381351690602001356109d4565b604080519115158252519081900360200190f35b6101e7600480360360a08110156102bf57600080fd5b6001600160a01b038235169190810190604081016020820135600160201b8111156102e957600080fd5b8201836020820111156102fb57600080fd5b803590602001918460018302840111600160201b8311171561031c57600080fd5b91935091508035906020810135906040013560ff166109f2565b34801561034257600080fd5b506101e7610c7b565b34801561035757600080fd5b506101e7610c9a565b34801561036c57600080fd5b50610375610cb7565b60408051918252519081900360200190f35b34801561039357600080fd5b50610375610cbd565b3480156103a857600080fd5b50610295600480360360608110156103bf57600080fd5b506001600160a01b03813581169160208101359091169060400135610cc3565b3480156103eb57600080fd5b506103756004803603602081101561040257600080fd5b5035610d50565b34801561041557600080fd5b506103756004803603602081101561042c57600080fd5b50356001600160a01b0316610d65565b34801561044857600080fd5b506104666004803603602081101561045f57600080fd5b5035610d80565b005b34801561047457600080fd5b506104666004803603604081101561048b57600080fd5b50803590602001356001600160a01b0316610d94565b3480156104ad57600080fd5b506104b6610e00565b6040805160ff9092168252519081900360200190f35b3480156104d857600080fd5b50610375610e09565b3480156104ed57600080fd5b506104666004803603604081101561050457600080fd5b50803590602001356001600160a01b0316610e0d565b34801561052657600080fd5b506102956004803603604081101561053d57600080fd5b506001600160a01b038135169060200135610e6e565b34801561055f57600080fd5b506104666004803603602081101561057657600080fd5b810190602081018135600160201b81111561059057600080fd5b8201836020820111156105a257600080fd5b803590602001918460018302840111600160201b831117156105c357600080fd5b509092509050610ec2565b3480156105da57600080fd5b50610375600480360360208110156105f157600080fd5b50356001600160a01b0316610ff4565b34801561060d57600080fd5b506106316004803603604081101561062457600080fd5b508035906020013561100f565b604080516001600160a01b039092168252519081900360200190f35b34801561065957600080fd5b506102956004803603604081101561067057600080fd5b50803590602001356001600160a01b0316611034565b34801561069257600080fd5b506101e7611052565b3480156106a757600080fd5b506103756110b3565b3480156106bc57600080fd5b506103756110b8565b3480156106d157600080fd5b50610295600480360360408110156106e857600080fd5b506001600160a01b0381351690602001356110de565b34801561070a57600080fd5b506102956004803603604081101561072157600080fd5b506001600160a01b03813516906020013561114c565b34801561074357600080fd5b506103756004803603602081101561075a57600080fd5b5035611160565b34801561076d57600080fd5b506104666004803603604081101561078457600080fd5b6001600160a01b038235169190810190604081016020820135600160201b8111156107ae57600080fd5b8201836020820111156107c057600080fd5b803590602001918460018302840111600160201b831117156107e157600080fd5b509092509050611177565b3480156107f857600080fd5b506104666004803603604081101561080f57600080fd5b50803590602001356001600160a01b0316611234565b34801561083157600080fd5b506103756004803603604081101561084857600080fd5b506001600160a01b038135811691602001351661128d565b34801561086c57600080fd5b506104666004803603608081101561088357600080fd5b810190602081018135600160201b81111561089d57600080fd5b8201836020820111156108af57600080fd5b803590602001918460018302840111600160201b831117156108d057600080fd5b919390929091602081019035600160201b8111156108ed57600080fd5b8201836020820111156108ff57600080fd5b803590602001918460018302840111600160201b8311171561092057600080fd5b9193509150803560ff1690602001356001600160a01b03166112b8565b60038054604080516020601f60026000196101006001881615020190951694909404938401819004810282018101909252828152606093909290918301828280156109c95780601f1061099e576101008083540402835291602001916109c9565b820191906000526020600020905b8154815290600101906020018083116109ac57829003601f168201915b505050505090505b90565b60006109e86109e161145c565b848461146b565b5060015b92915050565b60606109fc6120c3565b604080516060810182526001600160a01b038a166000818152600a602090815290849020548352808301919091528251601f8a0182900482028101820184528981529192830191908a908a908190840183828082843760009201919091525050509152509050610a6f8882878787611557565b610aaa5760405162461bcd60e51b81526004018080602001828103825260218152602001806123736021913960400191505060405180910390fd5b6001600160a01b0388166000818152600a60209081526040918290208054600101905581518181529081018990523392917f5845892132946850460bff5a0083f71031bc5bf9aadcd40f1de79423eac9b10b918b918b919081908101848480828437600083820152604051601f909101601f19169092018290039550909350505050a360006060306001600160a01b031689898c6040516020018084848082843780830192505050826001600160a01b03166001600160a01b031660601b815260140193505050506040516020818303038152906040526040518082805190602001908083835b60208310610bb05780518252601f199092019160209182019101610b91565b6001836020036101000a0380198251168184511680821785525050505050509050019150506000604051808303816000865af19150503d8060008114610c12576040519150601f19603f3d011682016040523d82523d6000602084013e610c17565b606091505b509150915081610c6e576040805162461bcd60e51b815260206004820152601c60248201527f46756e6374696f6e2063616c6c206e6f74207375636365737366756c00000000604482015290519081900360640190fd5b9998505050505050505050565b6040805180820190915260058152646d6167696360d81b602082015290565b604051806040016040528060018152602001603160f81b81525081565b60025490565b60095490565b6000610cd0848484611634565b610d4684610cdc61145c565b610d418560405180606001604052806028815260200161234b602891396001600160a01b038a16600090815260016020526040812090610d1a61145c565b6001600160a01b03168152602081019190915260400160002054919063ffffffff61179b16565b61146b565b5060019392505050565b60009081526006602052604090206002015490565b6001600160a01b03166000908152600a602052604090205490565b610d91610d8b61145c565b82611832565b50565b600082815260066020526040902060020154610db790610db261145c565b611034565b610df25760405162461bcd60e51b815260040180806020018281038252602f8152602001806121cb602f913960400191505060405180910390fd5b610dfc828261193a565b5050565b60055460ff1690565b4690565b610e1561145c565b6001600160a01b0316816001600160a01b031614610e645760405162461bcd60e51b815260040180806020018281038252602f815260200180612423602f913960400191505060405180910390fd5b610dfc82826119a9565b60006109e8610e7b61145c565b84610d418560016000610e8c61145c565b6001600160a01b03908116825260208083019390935260409182016000908120918c16815292529020549063ffffffff611a1816565b6000610ed081610db261145c565b600790610f705760405162461bcd60e51b8152602060048201908152825460026000196101006001841615020190911604602483018190529091829160449091019084908015610f615780601f10610f3657610100808354040283529160200191610f61565b820191906000526020600020905b815481529060010190602001808311610f4457829003601f168201915b50509250505060405180910390fd5b50610fb083838080601f016020809104026020016040519081016040528093929190818152602001838380828437600092019190915250611a7292505050565b610fef83838080601f016020809104026020016040519081016040528093929190818152602001838380828437600092019190915250611a8592505050565b505050565b6001600160a01b031660009081526020819052604090205490565b600082815260066020526040812061102d908363ffffffff611b4116565b9392505050565b600082815260066020526040812061102d908363ffffffff611b4d16565b60048054604080516020601f60026000196101006001881615020190951694909404938401819004810282018101909252828152606093909290918301828280156109c95780601f1061099e576101008083540402835291602001916109c9565b600081565b604080516d4445504f5349544f525f524f4c4560901b8152905190819003600e01902081565b60006109e86110eb61145c565b84610d41856040518060600160405280602581526020016123fe602591396001600061111561145c565b6001600160a01b03908116825260208083019390935260409182016000908120918d1681529252902054919063ffffffff61179b16565b60006109e861115961145c565b8484611634565b60008181526006602052604081206109ec90611b62565b604080516d4445504f5349544f525f524f4c4560901b8152905190819003600e0190206111a681610db261145c565b60079061120c5760405162461bcd60e51b8152602060048201908152825460026000196101006001841615020190911604602483018190529091829160449091019084908015610f615780601f10610f3657610100808354040283529160200191610f61565b5060008383602081101561121f57600080fd5b5035905061122d8582611b6d565b5050505050565b60008281526006602052604090206002015461125290610db261145c565b610e645760405162461bcd60e51b81526004018080602001828103825260308152602001806122f66030913960400191505060405180910390fd5b6001600160a01b03918216600090815260016020908152604080832093909416825291909152205490565b60085460ff1615611301576040805162461bcd60e51b815260206004820152600e60248201526d185b1c9958591e481a5b9a5d195960921b604482015290519081900360640190fd5b61134086868080601f016020809104026020016040519081016040528093929190818152602001838380828437600092019190915250611a7292505050565b61137f84848080601f016020809104026020016040519081016040528093929190818152602001838380828437600092019190915250611c6992505050565b61138882611c7c565b6113c9848460405160200180806410da1a5b1960da1b8152506005018383808284378083019250505092505050604051602081830303815290604052611c92565b6113db60006113d661145c565b610df2565b604080516d4445504f5349544f525f524f4c4560901b8152905190819003600e0190206114089082610df2565b61144786868080601f016020809104026020016040519081016040528093929190818152602001838380828437600092019190915250611d3092505050565b50506008805460ff1916600117905550505050565b6000611466611d92565b905090565b6001600160a01b0383166114b05760405162461bcd60e51b81526004018080602001828103825260248152602001806123da6024913960400191505060405180910390fd5b6001600160a01b0382166114f55760405162461bcd60e51b815260040180806020018281038252602281526020018061225f6022913960400191505060405180910390fd5b6001600160a01b03808416600081815260016020908152604080832094871680845294825291829020859055815185815291517f8c5be1e5ebec7d5bd14f71427d1e84f3dd0314c0f7b2291e5b200ac8c7c3b9259281900390910190a3505050565b60006001600160a01b03861661159e5760405162461bcd60e51b81526004018080602001828103825260258152602001806123266025913960400191505060405180910390fd5b60016115b16115ac87611def565b611e7b565b83868660405160008152602001604052604051808581526020018460ff1660ff1681526020018381526020018281526020019450505050506020604051602081039080840390855afa15801561160b573d6000803e3d6000fd5b505050602060405103516001600160a01b0316866001600160a01b031614905095945050505050565b6001600160a01b0383166116795760405162461bcd60e51b81526004018080602001828103825260258152602001806123b56025913960400191505060405180910390fd5b6001600160a01b0382166116be5760405162461bcd60e51b81526004018080602001828103825260238152602001806121a86023913960400191505060405180910390fd5b6116c9838383610fef565b61170c816040518060600160405280602681526020016122d0602691396001600160a01b038616600090815260208190526040902054919063ffffffff61179b16565b6001600160a01b038085166000908152602081905260408082209390935590841681522054611741908263ffffffff611a1816565b6001600160a01b038084166000818152602081815260409182902094909455805185815290519193928716927fddf252ad1be2c89b69c2b068fc378daa952ba7f163c4a11628f55a4df523b3ef92918290030190a3505050565b6000818484111561182a5760405162461bcd60e51b81526004018080602001828103825283818151815260200191508051906020019080838360005b838110156117ef5781810151838201526020016117d7565b50505050905090810190601f16801561181c5780820380516001836020036101000a031916815260200191505b509250505060405180910390fd5b505050900390565b6001600160a01b0382166118775760405162461bcd60e51b81526004018080602001828103825260218152602001806123946021913960400191505060405180910390fd5b61188382600083610fef565b6118c6816040518060600160405280602281526020016121fa602291396001600160a01b038516600090815260208190526040902054919063ffffffff61179b16565b6001600160a01b0383166000908152602081905260409020556002546118f2908263ffffffff611ec716565b6002556040805182815290516000916001600160a01b038516917fddf252ad1be2c89b69c2b068fc378daa952ba7f163c4a11628f55a4df523b3ef9181900360200190a35050565b6000828152600660205260409020611958908263ffffffff611f0916565b15610dfc5761196561145c565b6001600160a01b0316816001600160a01b0316837f2f8788117e7eff1d82e926ec794901d17c78024a50270940304540a733656f0d60405160405180910390a45050565b60008281526006602052604090206119c7908263ffffffff611f1e16565b15610dfc576119d461145c565b6001600160a01b0316816001600160a01b0316837ff6391f5c32d9c69d2a47ea670b442974b53935d1edc7fd64eb21e047a839171b60405160405180910390a45050565b60008282018381101561102d576040805162461bcd60e51b815260206004820152601b60248201527f536166654d6174683a206164646974696f6e206f766572666c6f770000000000604482015290519081900360640190fd5b8051610dfc9060039060208401906120ed565b6040518060800160405280604f8152602001612281604f913980516020918201208251838301206040805180820190915260018152603160f81b930192909252907fc89efdaa54c0f20c7adf612882df0950f5a951637e0307cdcb4c672f298b8bc630611af0610e09565b604080516020808201979097528082019590955260608501939093526001600160a01b03909116608084015260a0808401919091528151808403909101815260c09092019052805191012060095550565b600061102d8383611f33565b600061102d836001600160a01b038416611f97565b60006109ec82611faf565b6001600160a01b038216611bc8576040805162461bcd60e51b815260206004820152601f60248201527f45524332303a206d696e7420746f20746865207a65726f206164647265737300604482015290519081900360640190fd5b611bd460008383610fef565b600254611be7908263ffffffff611a1816565b6002556001600160a01b038216600090815260208190526040902054611c13908263ffffffff611a1816565b6001600160a01b0383166000818152602081815260408083209490945583518581529351929391927fddf252ad1be2c89b69c2b068fc378daa952ba7f163c4a11628f55a4df523b3ef9281900390910190a35050565b8051610dfc9060049060208401906120ed565b6005805460ff191660ff92909216919091179055565b806040516020018082805190602001908083835b60208310611cc55780518252601f199092019160209182019101611ca6565b51815160209384036101000a60001901801990921691161790527f3a20494e53554646494349454e545f5045524d495353494f4e530000000000009190930190815260408051808303600519018152601a90920190528051610dfc95506007945092019190506120ed565b60085460ff1615611d79576040805162461bcd60e51b815260206004820152600e60248201526d185b1c9958591e481a5b9a5d195960921b604482015290519081900360640190fd5b611d8281611a85565b506008805460ff19166001179055565b600033301415611dea5760606000368080601f0160208091040260200160405190810160405280939291908181526020018383808284376000920191909152505050503601516001600160a01b031691506109d19050565b503390565b600060405180608001604052806043815260200161221c60439139805190602001208260000151836020015184604001518051906020012060405160200180858152602001848152602001836001600160a01b03166001600160a01b03168152602001828152602001945050505050604051602081830303815290604052805190602001209050919050565b6000611e85610cbd565b82604051602001808061190160f01b81525060020183815260200182815260200192505050604051602081830303815290604052805190602001209050919050565b600061102d83836040518060400160405280601e81526020017f536166654d6174683a207375627472616374696f6e206f766572666c6f77000081525061179b565b600061102d836001600160a01b038416611fb3565b600061102d836001600160a01b038416611ffd565b81546000908210611f755760405162461bcd60e51b81526004018080602001828103825260228152602001806121866022913960400191505060405180910390fd5b826000018281548110611f8457fe5b9060005260206000200154905092915050565b60009081526001919091016020526040902054151590565b5490565b6000611fbf8383611f97565b611ff5575081546001818101845560008481526020808220909301849055845484825282860190935260409020919091556109ec565b5060006109ec565b600081815260018301602052604081205480156120b9578354600019808301919081019060009087908390811061203057fe5b906000526020600020015490508087600001848154811061204d57fe5b60009182526020808320909101929092558281526001898101909252604090209084019055865487908061207d57fe5b600190038181906000526020600020016000905590558660010160008781526020019081526020016000206000905560019450505050506109ec565b60009150506109ec565b60405180606001604052806000815260200160006001600160a01b03168152602001606081525090565b828054600181600116156101000203166002900490600052602060002090601f016020900481019282601f1061212e57805160ff191683800117855561215b565b8280016001018555821561215b579182015b8281111561215b578251825591602001919060010190612140565b5061216792915061216b565b5090565b6109d191905b80821115612167576000815560010161217156fe456e756d657261626c655365743a20696e646578206f7574206f6620626f756e647345524332303a207472616e7366657220746f20746865207a65726f2061646472657373416363657373436f6e74726f6c3a2073656e646572206d75737420626520616e2061646d696e20746f206772616e7445524332303a206275726e20616d6f756e7420657863656564732062616c616e63654d6574615472616e73616374696f6e2875696e74323536206e6f6e63652c616464726573732066726f6d2c62797465732066756e6374696f6e5369676e61747572652945524332303a20617070726f766520746f20746865207a65726f2061646472657373454950373132446f6d61696e28737472696e67206e616d652c737472696e672076657273696f6e2c6164647265737320766572696679696e67436f6e74726163742c627974657333322073616c742945524332303a207472616e7366657220616d6f756e7420657863656564732062616c616e6365416363657373436f6e74726f6c3a2073656e646572206d75737420626520616e2061646d696e20746f207265766f6b654e61746976654d6574615472616e73616374696f6e3a20494e56414c49445f5349474e455245524332303a207472616e7366657220616d6f756e74206578636565647320616c6c6f77616e63655369676e657220616e64207369676e617475726520646f206e6f74206d6174636845524332303a206275726e2066726f6d20746865207a65726f206164647265737345524332303a207472616e736665722066726f6d20746865207a65726f206164647265737345524332303a20617070726f76652066726f6d20746865207a65726f206164647265737345524332303a2064656372656173656420616c6c6f77616e63652062656c6f77207a65726f416363657373436f6e74726f6c3a2063616e206f6e6c792072656e6f756e636520726f6c657320666f722073656c66a2646970667358221220c10e31a8ed8ff0b99d44c183219f6929906c73bf1b37f9f37bbf8c9b7278df8f64736f6c63430006060033",
  "linkReferences": {},
  "deployedLinkReferences": {}
}