{"abi":[{"type":"function","name":"DEFAULT_ADMIN_ROLE","inputs":[],"outputs":[{"name":"","type":"bytes32","internalType":"bytes32"}],"stateMutability":"view"},{"type":"function","name":"STATE_SYNCER_ROLE","inputs":[],"outputs":[{"name":"","type":"bytes32","internalType":"bytes32"}],"stateMutability":"view"},{"type":"function","name":"getRoleAdmin","inputs":[{"name":"role","type":"bytes32","internalType":"bytes32"}],"outputs":[{"name":"","type":"bytes32","internalType":"bytes32"}],"stateMutability":"view"},{"type":"function","name":"getRoleMember","inputs":[{"name":"role","type":"bytes32","internalType":"bytes32"},{"name":"index","type":"uint256","internalType":"uint256"}],"outputs":[{"name":"","type":"address","internalType":"address"}],"stateMutability":"view"},{"type":"function","name":"getRoleMemberCount","inputs":[{"name":"role","type":"bytes32","internalType":"bytes32"}],"outputs":[{"name":"","type":"uint256","internalType":"uint256"}],"stateMutability":"view"},{"type":"function","name":"grantRole","inputs":[{"name":"role","type":"bytes32","internalType":"bytes32"},{"name":"account","type":"address","internalType":"address"}],"outputs":[],"stateMutability":"nonpayable"},{"type":"function","name":"hasRole","inputs":[{"name":"role","type":"bytes32","internalType":"bytes32"},{"name":"account","type":"address","internalType":"address"}],"outputs":[{"name":"","type":"bool","internalType":"bool"}],"stateMutability":"view"},{"type":"function","name":"onStateReceive","inputs":[{"name":"","type":"uint256","internalType":"uint256"},{"name":"message","type":"bytes","internalType":"bytes"}],"outputs":[],"stateMutability":"nonpayable"},{"type":"function","name":"renounceRole","inputs":[{"name":"role","type":"bytes32","internalType":"bytes32"},{"name":"account","type":"address","internalType":"address"}],"outputs":[],"stateMutability":"nonpayable"},{"type":"function","name":"revokeRole","inputs":[{"name":"role","type":"bytes32","internalType":"bytes32"},{"name":"account","type":"address","internalType":"address"}],"outputs":[],"stateMutability":"nonpayable"},{"type":"event","name":"MessageSent","inputs":[{"name":"message","type":"bytes","indexed":false,"internalType":"bytes"}],"anonymous":false},{"type":"event","name":"RoleAdminChanged","inputs":[{"name":"role","type":"bytes32","indexed":true,"internalType":"bytes32"},{"name":"previousAdminRole","type":"bytes32","indexed":true,"internalType":"bytes32"},{"name":"newAdminRole","type":"bytes32","indexed":true,"internalType":"bytes32"}],"anonymous":false},{"type":"event","name":"RoleGranted","inputs":[{"name":"role","type":"bytes32","indexed":true,"internalType":"bytes32"},{"name":"account","type":"address","indexed":true,"internalType":"address"},{"name":"sender","type":"address","indexed":true,"internalType":"address"}],"anonymous":false},{"type":"event","name":"RoleRevoked","inputs":[{"name":"role","type":"bytes32","indexed":true,"internalType":"bytes32"},{"name":"account","type":"address","indexed":true,"internalType":"address"},{"name":"sender","type":"address","indexed":true,"internalType":"address"}],"anonymous":false}],"bytecode":{"object":"0x60806040526200001a6000336001600160e01b036200009316565b604080517053544154455f53594e4345525f524f4c4560781b8152905190819003601101902062000057906110016001600160e01b036200009316565b60408051808201909152600b81526a10da1a5b19151d5b9b995b60aa1b60208201526200008d906001600160e01b03620000ac16565b62000310565b620000a882826001600160e01b036200014e16565b5050565b806040516020018082805190602001908083835b60208310620000e15780518252601f199092019160209182019101620000c0565b51815160209384036101000a60001901801990921691161790527f3a20494e53554646494349454e545f5045524d495353494f4e530000000000009190930190815260408051808303600519018152601a90920190528051620000a895506001945092019190506200026e565b6000828152602081815260409091206200017391839062000669620001d0821b17901c565b15620000a8576200018c6001600160e01b03620001f916565b6001600160a01b0316816001600160a01b0316837f2f8788117e7eff1d82e926ec794901d17c78024a50270940304540a733656f0d60405160405180910390a45050565b6000620001f0836001600160a01b0384166001600160e01b03620001fe16565b90505b92915050565b335b90565b60006200021583836001600160e01b036200025616565b6200024d57508154600181810184556000848152602080822090930184905584548482528286019093526040902091909155620001f3565b506000620001f3565b60009081526001919091016020526040902054151590565b828054600181600116156101000203166002900490600052602060002090601f016020900481019282601f10620002b157805160ff1916838001178555620002e1565b82800160010185558215620002e1579182015b82811115620002e1578251825591602001919060010190620002c4565b50620002ef929150620002f3565b5090565b620001fb91905b80821115620002ef5760008155600101620002fa565b61090980620003206000396000f3fe608060405234801561001057600080fd5b506004361061009e5760003560e01c80639010d07c116100665780639010d07c146101ab57806391d14854146101ea578063a217fddf1461022a578063ca15c87314610232578063d547741f1461024f5761009e565b8063248a9ca3146100a357806326c53bea146100d25780632f2ff15d1461014b57806336568abe146101775780634dee4498146101a3575b600080fd5b6100c0600480360360208110156100b957600080fd5b503561027b565b60408051918252519081900360200190f35b610149600480360360408110156100e857600080fd5b8135919081019060408101602082013564010000000081111561010a57600080fd5b82018360208201111561011c57600080fd5b8035906020019184600183028401116401000000008311171561013e57600080fd5b509092509050610290565b005b6101496004803603604081101561016157600080fd5b50803590602001356001600160a01b03166103ad565b6101496004803603604081101561018d57600080fd5b50803590602001356001600160a01b0316610414565b6100c0610475565b6101ce600480360360408110156101c157600080fd5b508035906020013561049e565b604080516001600160a01b039092168252519081900360200190f35b6102166004803603604081101561020057600080fd5b50803590602001356001600160a01b03166104c5565b604080519115158252519081900360200190f35b6100c06104e3565b6100c06004803603602081101561024857600080fd5b50356104e8565b6101496004803603604081101561026557600080fd5b50803590602001356001600160a01b03166104ff565b60009081526020819052604090206002015490565b604080517053544154455f53594e4345525f524f4c4560781b815290519081900360110190206102c7816102c2610558565b6104c5565b6001906103675760405162461bcd60e51b81526020600482019081528254600260001961010060018416150201909116046024830181905290918291604490910190849080156103585780601f1061032d57610100808354040283529160200191610358565b820191906000526020600020905b81548152906001019060200180831161033b57829003601f168201915b50509250505060405180910390fd5b506103a783838080601f01602080910402602001604051908101604052809392919081815260200183838082843760009201919091525061055c92505050565b50505050565b6000828152602081905260409020600201546103cb906102c2610558565b6104065760405162461bcd60e51b815260040180806020018281038252602f815260200180610846602f913960400191505060405180910390fd5b610410828261055f565b5050565b61041c610558565b6001600160a01b0316816001600160a01b03161461046b5760405162461bcd60e51b815260040180806020018281038252602f8152602001806108a5602f913960400191505060405180910390fd5b61041082826105ce565b604080517053544154455f53594e4345525f524f4c4560781b8152905190819003601101902081565b60008281526020819052604081206104bc908363ffffffff61063d16565b90505b92915050565b60008281526020819052604081206104bc908363ffffffff61064916565b600081565b60008181526020819052604081206104bf9061065e565b60008281526020819052604090206002015461051d906102c2610558565b61046b5760405162461bcd60e51b81526004018080602001828103825260308152602001806108756030913960400191505060405180910390fd5b3390565b50565b600082815260208190526040902061057d908263ffffffff61066916565b156104105761058a610558565b6001600160a01b0316816001600160a01b0316837f2f8788117e7eff1d82e926ec794901d17c78024a50270940304540a733656f0d60405160405180910390a45050565b60008281526020819052604090206105ec908263ffffffff61067e16565b15610410576105f9610558565b6001600160a01b0316816001600160a01b0316837ff6391f5c32d9c69d2a47ea670b442974b53935d1edc7fd64eb21e047a839171b60405160405180910390a45050565b60006104bc8383610693565b60006104bc836001600160a01b0384166106f7565b60006104bf8261070f565b60006104bc836001600160a01b038416610713565b60006104bc836001600160a01b03841661075d565b815460009082106106d55760405162461bcd60e51b81526004018080602001828103825260228152602001806108246022913960400191505060405180910390fd5b8260000182815481106106e457fe5b9060005260206000200154905092915050565b60009081526001919091016020526040902054151590565b5490565b600061071f83836106f7565b610755575081546001818101845560008481526020808220909301849055845484825282860190935260409020919091556104bf565b5060006104bf565b60008181526001830160205260408120548015610819578354600019808301919081019060009087908390811061079057fe5b90600052602060002001549050808760000184815481106107ad57fe5b6000918252602080832090910192909255828152600189810190925260409020908401905586548790806107dd57fe5b600190038181906000526020600020016000905590558660010160008781526020019081526020016000206000905560019450505050506104bf565b60009150506104bf56fe456e756d657261626c655365743a20696e646578206f7574206f6620626f756e6473416363657373436f6e74726f6c3a2073656e646572206d75737420626520616e2061646d696e20746f206772616e74416363657373436f6e74726f6c3a2073656e646572206d75737420626520616e2061646d696e20746f207265766f6b65416363657373436f6e74726f6c3a2063616e206f6e6c792072656e6f756e636520726f6c657320666f722073656c66a2646970667358221220464066f2499a00f2c001ccf542861fc00dc9b1c30ea8a33a18b3e143fa6adef364736f6c63430006060033","linkReferences":{}},"methodIdentifiers":{"DEFAULT_ADMIN_ROLE()":"a217fddf","STATE_SYNCER_ROLE()":"4dee4498","getRoleAdmin(bytes32)":"248a9ca3","getRoleMember(bytes32,uint256)":"9010d07c","getRoleMemberCount(bytes32)":"ca15c873","grantRole(bytes32,address)":"2f2ff15d","hasRole(bytes32,address)":"91d14854","onStateReceive(uint256,bytes)":"26c53bea","renounceRole(bytes32,address)":"36568abe","revokeRole(bytes32,address)":"d547741f"},"id":77}