{"abi":[{"type":"constructor","inputs":[],"stateMutability":"nonpayable"},{"type":"function","name":"DEFAULT_ADMIN_ROLE","inputs":[],"outputs":[{"name":"","type":"bytes32","internalType":"bytes32"}],"stateMutability":"view"},{"type":"function","name":"MANAGER_ROLE","inputs":[],"outputs":[{"name":"","type":"bytes32","internalType":"bytes32"}],"stateMutability":"view"},{"type":"function","name":"TOKEN_TYPE","inputs":[],"outputs":[{"name":"","type":"bytes32","internalType":"bytes32"}],"stateMutability":"view"},{"type":"function","name":"TRANSFER_EVENT_SIG","inputs":[],"outputs":[{"name":"","type":"bytes32","internalType":"bytes32"}],"stateMutability":"view"},{"type":"function","name":"exitTokens","inputs":[{"name":"rootToken","type":"address","internalType":"address"},{"name":"log","type":"bytes","internalType":"bytes"}],"outputs":[],"stateMutability":"nonpayable"},{"type":"function","name":"getRoleAdmin","inputs":[{"name":"role","type":"bytes32","internalType":"bytes32"}],"outputs":[{"name":"","type":"bytes32","internalType":"bytes32"}],"stateMutability":"view"},{"type":"function","name":"getRoleMember","inputs":[{"name":"role","type":"bytes32","internalType":"bytes32"},{"name":"index","type":"uint256","internalType":"uint256"}],"outputs":[{"name":"","type":"address","internalType":"address"}],"stateMutability":"view"},{"type":"function","name":"getRoleMemberCount","inputs":[{"name":"role","type":"bytes32","internalType":"bytes32"}],"outputs":[{"name":"","type":"uint256","internalType":"uint256"}],"stateMutability":"view"},{"type":"function","name":"grantRole","inputs":[{"name":"role","type":"bytes32","internalType":"bytes32"},{"name":"account","type":"address","internalType":"address"}],"outputs":[],"stateMutability":"nonpayable"},{"type":"function","name":"hasRole","inputs":[{"name":"role","type":"bytes32","internalType":"bytes32"},{"name":"account","type":"address","internalType":"address"}],"outputs":[{"name":"","type":"bool","internalType":"bool"}],"stateMutability":"view"},{"type":"function","name":"initialize","inputs":[{"name":"_owner","type":"address","internalType":"address"}],"outputs":[],"stateMutability":"nonpayable"},{"type":"function","name":"lockTokens","inputs":[{"name":"depositor","type":"address","internalType":"address"},{"name":"depositReceiver","type":"address","internalType":"address"},{"name":"rootToken","type":"address","internalType":"address"},{"name":"depositData","type":"bytes","internalType":"bytes"}],"outputs":[],"stateMutability":"nonpayable"},{"type":"function","name":"renounceRole","inputs":[{"name":"role","type":"bytes32","internalType":"bytes32"},{"name":"account","type":"address","internalType":"address"}],"outputs":[],"stateMutability":"nonpayable"},{"type":"function","name":"revokeRole","inputs":[{"name":"role","type":"bytes32","internalType":"bytes32"},{"name":"account","type":"address","internalType":"address"}],"outputs":[],"stateMutability":"nonpayable"},{"type":"event","name":"ExitedERC20","inputs":[{"name":"exitor","type":"address","indexed":true,"internalType":"address"},{"name":"rootToken","type":"address","indexed":true,"internalType":"address"},{"name":"amount","type":"uint256","indexed":false,"internalType":"uint256"}],"anonymous":false},{"type":"event","name":"LockedERC20","inputs":[{"name":"depositor","type":"address","indexed":true,"internalType":"address"},{"name":"depositReceiver","type":"address","indexed":true,"internalType":"address"},{"name":"rootToken","type":"address","indexed":true,"internalType":"address"},{"name":"amount","type":"uint256","indexed":false,"internalType":"uint256"}],"anonymous":false},{"type":"event","name":"RoleAdminChanged","inputs":[{"name":"role","type":"bytes32","indexed":true,"internalType":"bytes32"},{"name":"previousAdminRole","type":"bytes32","indexed":true,"internalType":"bytes32"},{"name":"newAdminRole","type":"bytes32","indexed":true,"internalType":"bytes32"}],"anonymous":false},{"type":"event","name":"RoleGranted","inputs":[{"name":"role","type":"bytes32","indexed":true,"internalType":"bytes32"},{"name":"account","type":"address","indexed":true,"internalType":"address"},{"name":"sender","type":"address","indexed":true,"internalType":"address"}],"anonymous":false},{"type":"event","name":"RoleRevoked","inputs":[{"name":"role","type":"bytes32","indexed":true,"internalType":"bytes32"},{"name":"account","type":"address","indexed":true,"internalType":"address"},{"name":"sender","type":"address","indexed":true,"internalType":"address"}],"anonymous":false}],"bytecode":{"object":"0x60806040526002805460ff1916905534801561001a57600080fd5b506115e78061002a6000396000f3fe608060405234801561001057600080fd5b50600436106100ea5760003560e01c8063b017a30f1161008c578063d547741f11610066578063d547741f14610252578063e375b64e1461027e578063ec87621c1461030f578063f741a41714610317576100ea565b8063b017a30f14610207578063c4d66de81461020f578063ca15c87314610235576100ea565b8063609c92b8116100c8578063609c92b8146101785780639010d07c1461018057806391d14854146101bf578063a217fddf146101ff576100ea565b8063248a9ca3146100ef5780632f2ff15d1461011e57806336568abe1461014c575b600080fd5b61010c6004803603602081101561010557600080fd5b5035610397565b60408051918252519081900360200190f35b61014a6004803603604081101561013457600080fd5b50803590602001356001600160a01b03166103af565b005b61014a6004803603604081101561016257600080fd5b50803590602001356001600160a01b031661041b565b61010c61047c565b6101a36004803603604081101561019657600080fd5b5080359060200135610499565b604080516001600160a01b039092168252519081900360200190f35b6101eb600480360360408110156101d557600080fd5b50803590602001356001600160a01b03166104c0565b604080519115158252519081900360200190f35b61010c6104de565b61010c6104e3565b61014a6004803603602081101561022557600080fd5b50356001600160a01b0316610507565b61010c6004803603602081101561024b57600080fd5b50356105c5565b61014a6004803603604081101561026857600080fd5b50803590602001356001600160a01b03166105dc565b61014a6004803603608081101561029457600080fd5b6001600160a01b03823581169260208101358216926040820135909216918101906080810160608201356401000000008111156102d057600080fd5b8201836020820111156102e257600080fd5b8035906020019184600183028401116401000000008311171561030457600080fd5b509092509050610635565b61010c610786565b61014a6004803603604081101561032d57600080fd5b6001600160a01b03823516919081019060408101602082013564010000000081111561035857600080fd5b82018360208201111561036a57600080fd5b8035906020019184600183028401116401000000008311171561038c57600080fd5b5090925090506107aa565b6000818152602081905260409020600201545b919050565b6000828152602081905260409020600201546103d2906103cd610a34565b6104c0565b61040d5760405162461bcd60e51b815260040180806020018281038252602f8152602001806114d9602f913960400191505060405180910390fd5b6104178282610a39565b5050565b610423610a34565b6001600160a01b0316816001600160a01b0316146104725760405162461bcd60e51b815260040180806020018281038252602f815260200180611583602f913960400191505060405180910390fd5b6104178282610aa8565b6040805164045524332360dc1b8152905190819003600501902081565b60008281526020819052604081206104b7908363ffffffff610b1716565b90505b92915050565b60008281526020819052604081206104b7908363ffffffff610b2316565b600081565b7fddf252ad1be2c89b69c2b068fc378daa952ba7f163c4a11628f55a4df523b3ef81565b60025460ff1615610550576040805162461bcd60e51b815260206004820152600e60248201526d185b1c9958591e481a5b9a5d195960921b604482015290519081900360640190fd5b61057f6040518060400160405280600e81526020016d455243323050726564696361746560901b815250610b38565b61058a60008261040d565b604080516b4d414e414745525f524f4c4560a01b8152905190819003600c0190206105b5908261040d565b506002805460ff19166001179055565b60008181526020819052604081206104ba90610bd6565b6000828152602081905260409020600201546105fa906103cd610a34565b6104725760405162461bcd60e51b81526004018080602001828103825260308152602001806115296030913960400191505060405180910390fd5b604080516b4d414e414745525f524f4c4560a01b8152905190819003600c019020610662816103cd610a34565b6001906107025760405162461bcd60e51b81526020600482019081528254600260001961010060018416150201909116046024830181905290918291604490910190849080156106f35780601f106106c8576101008083540402835291602001916106f3565b820191906000526020600020905b8154815290600101906020018083116106d657829003601f168201915b50509250505060405180910390fd5b5060008383602081101561071557600080fd5b5060408051913580835290519092506001600160a01b038088169289821692918b16917f9b217a401a5ddf7c4d474074aff9958a18d48690d77cc2151c4706aa7348b4019181900360200190a461077d6001600160a01b03861688308463ffffffff610be116565b50505050505050565b604080516b4d414e414745525f524f4c4560a01b8152905190819003600c01902081565b604080516b4d414e414745525f524f4c4560a01b8152905190819003600c0190206107d7816103cd610a34565b60019061083d5760405162461bcd60e51b81526020600482019081528254600260001961010060018416150201909116046024830181905290918291604490910190849080156106f35780601f106106c8576101008083540402835291602001916106f3565b50606061088761088285858080601f016020809104026020016040519081016040528093929190818152602001838380828437600092019190915250610c4192505050565b610c66565b905060606108a88260018151811061089b57fe5b6020026020010151610c66565b90507fddf252ad1be2c89b69c2b068fc378daa952ba7f163c4a11628f55a4df523b3ef60001b6108eb826000815181106108de57fe5b6020026020010151610d4e565b146109275760405162461bcd60e51b81526004018080602001828103825260218152602001806115086021913960400191505060405180910390fd5b6000610939826001815181106108de57fe5b905060006001600160a01b0316610956836002815181106108de57fe5b6001600160a01b0316146109b1576040805162461bcd60e51b815260206004820181905260248201527f45524332305072656469636174653a20494e56414c49445f5245434549564552604482015290519081900360640190fd5b60006109c3846002815181106108de57fe5b90506109df6001600160a01b038916838363ffffffff610d9c16565b876001600160a01b0316826001600160a01b03167fbb61bd1b26b3684c7c028ff1a8f6dabcac2fac8ac57b66fa6b1efb6edeab03c4836040518082815260200191505060405180910390a35050505050505050565b335b90565b6000828152602081905260409020610a57908263ffffffff610df316565b1561041757610a64610a34565b6001600160a01b0316816001600160a01b0316837f2f8788117e7eff1d82e926ec794901d17c78024a50270940304540a733656f0d60405160405180910390a45050565b6000828152602081905260409020610ac6908263ffffffff610e0816565b1561041757610ad3610a34565b6001600160a01b0316816001600160a01b0316837ff6391f5c32d9c69d2a47ea670b442974b53935d1edc7fd64eb21e047a839171b60405160405180910390a45050565b60006104b78383610e1d565b60006104b7836001600160a01b038416610e81565b806040516020018082805190602001908083835b60208310610b6b5780518252601f199092019160209182019101610b4c565b51815160209384036101000a60001901801990921691161790527f3a20494e53554646494349454e545f5045524d495353494f4e530000000000009190930190815260408051808303600519018152601a909201905280516104179550600194509201919050611404565b60006104ba82610e99565b604080516001600160a01b0380861660248301528416604482015260648082018490528251808303909101815260849091019091526020810180516001600160e01b03166323b872dd60e01b179052610c3b908590610e9d565b50505050565b610c49611482565b506040805180820190915281518152602082810190820152919050565b6060610c7182610f4e565b610c7a57600080fd5b6000610c8583610f88565b905060608167ffffffffffffffff81118015610ca057600080fd5b50604051908082528060200260200182016040528015610cda57816020015b610cc7611482565b815260200190600190039081610cbf5790505b5090506000610cec8560200151610fe4565b60208601510190506000805b84811015610d4357610d0983611047565b9150604051806040016040528083815260200184815250848281518110610d2c57fe5b602090810291909101015291810191600101610cf8565b509195945050505050565b805160009015801590610d6357508151602110155b610d6c57600080fd5b600080610d78846110e0565b815191935091506020821015610d945760208290036101000a90045b949350505050565b604080516001600160a01b038416602482015260448082018490528251808303909101815260649091019091526020810180516001600160e01b031663a9059cbb60e01b179052610dee908490610e9d565b505050565b60006104b7836001600160a01b038416611106565b60006104b7836001600160a01b038416611150565b81546000908210610e5f5760405162461bcd60e51b81526004018080602001828103825260228152602001806114b76022913960400191505060405180910390fd5b826000018281548110610e6e57fe5b9060005260206000200154905092915050565b60009081526001919091016020526040902054151590565b5490565b6060610ef2826040518060400160405280602081526020017f5361666545524332303a206c6f772d6c6576656c2063616c6c206661696c6564815250856001600160a01b03166112169092919063ffffffff16565b805190915015610dee57808060200190516020811015610f1157600080fd5b5051610dee5760405162461bcd60e51b815260040180806020018281038252602a815260200180611559602a913960400191505060405180910390fd5b8051600090610f5f575060006103aa565b6020820151805160001a9060c0821015610f7e576000925050506103aa565b5060019392505050565b8051600090610f99575060006103aa565b60008090506000610fad8460200151610fe4565b602085015185519181019250015b80821015610fdb57610fcc82611047565b60019093019290910190610fbb565b50909392505050565b8051600090811a6080811015610ffe5760009150506103aa565b60b8811080611019575060c08110801590611019575060f881105b156110285760019150506103aa565b60c081101561103c5760b5190190506103aa565b60f5190190506103aa565b80516000908190811a608081101561106257600191506110d9565b60b881101561107757607e19810191506110d9565b60c08110156110a45760b78103600185019450806020036101000a855104600182018101935050506110d9565b60f88110156110b95760be19810191506110d9565b60f78103600185019450806020036101000a855104600182018101935050505b5092915050565b60008060006110f28460200151610fe4565b602085015194519481019594039392505050565b60006111128383610e81565b611148575081546001818101845560008481526020808220909301849055845484825282860190935260409020919091556104ba565b5060006104ba565b6000818152600183016020526040812054801561120c578354600019808301919081019060009087908390811061118357fe5b90600052602060002001549050808760000184815481106111a057fe5b6000918252602080832090910192909255828152600189810190925260409020908401905586548790806111d057fe5b600190038181906000526020600020016000905590558660010160008781526020019081526020016000206000905560019450505050506104ba565b60009150506104ba565b6060610d948484600085606061122b856113cb565b61127c576040805162461bcd60e51b815260206004820152601d60248201527f416464726573733a2063616c6c20746f206e6f6e2d636f6e7472616374000000604482015290519081900360640190fd5b60006060866001600160a01b031685876040518082805190602001908083835b602083106112bb5780518252601f19909201916020918201910161129c565b6001836020036101000a03801982511681845116808217855250505050505090500191505060006040518083038185875af1925050503d806000811461131d576040519150601f19603f3d011682016040523d82523d6000602084013e611322565b606091505b50915091508115611336579150610d949050565b8051156113465780518082602001fd5b8360405162461bcd60e51b81526004018080602001828103825283818151815260200191508051906020019080838360005b83811015611390578181015183820152602001611378565b50505050905090810190601f1680156113bd5780820380516001836020036101000a031916815260200191505b509250505060405180910390fd5b6000813f7fc5d2460186f7233c927e7db2dcc703c0e500b653ca82273b7bfad8045d85a470818114801590610d94575050151592915050565b828054600181600116156101000203166002900490600052602060002090601f016020900481019282601f1061144557805160ff1916838001178555611472565b82800160010185558215611472579182015b82811115611472578251825591602001919060010190611457565b5061147e92915061149c565b5090565b604051806040016040528060008152602001600081525090565b610a3691905b8082111561147e57600081556001016114a256fe456e756d657261626c655365743a20696e646578206f7574206f6620626f756e6473416363657373436f6e74726f6c3a2073656e646572206d75737420626520616e2061646d696e20746f206772616e7445524332305072656469636174653a20494e56414c49445f5349474e4154555245416363657373436f6e74726f6c3a2073656e646572206d75737420626520616e2061646d696e20746f207265766f6b655361666545524332303a204552433230206f7065726174696f6e20646964206e6f742073756363656564416363657373436f6e74726f6c3a2063616e206f6e6c792072656e6f756e636520726f6c657320666f722073656c66a2646970667358221220b267b1f5d15f3ab2af334ab5624b9bd0e1bdb2ec0c1b6c73b5511c9416b71b3e64736f6c63430006060033","linkReferences":{}},"methodIdentifiers":{"DEFAULT_ADMIN_ROLE()":"a217fddf","MANAGER_ROLE()":"ec87621c","TOKEN_TYPE()":"609c92b8","TRANSFER_EVENT_SIG()":"b017a30f","exitTokens(address,bytes)":"f741a417","getRoleAdmin(bytes32)":"248a9ca3","getRoleMember(bytes32,uint256)":"9010d07c","getRoleMemberCount(bytes32)":"ca15c873","grantRole(bytes32,address)":"2f2ff15d","hasRole(bytes32,address)":"91d14854","initialize(address)":"c4d66de8","lockTokens(address,address,address,bytes)":"e375b64e","renounceRole(bytes32,address)":"36568abe","revokeRole(bytes32,address)":"d547741f"},"id":51}