{
  "_format": "hh-sol-artifact-1",
  "contractName": "MintableERC721Predicate",
  "sourceName": "contracts/root/TokenPredicates/MintableERC721Predicate.sol",
  "abi": [
    {
      "inputs": [],
      "stateMutability": "nonpayable",
      "type": "constructor"
    },
    {
      "anonymous": false,
      "inputs": [
        {
          "indexed": true,
          "internalType": "address",
          "name": "depositor",
          "type": "address"
        },
        {
          "indexed": true,
          "internalType": "address",
          "name": "depositReceiver",
          "type": "address"
        },
        {
          "indexed": true,
          "internalType": "address",
          "name": "rootToken",
          "type": "address"
        },
        {
          "indexed": false,
          "internalType": "uint256",
          "name": "tokenId",
          "type": "uint256"
        }
      ],
      "name": "LockedMintableERC721",
      "type": "event"
    },
    {
      "anonymous": false,
      "inputs": [
        {
          "indexed": true,
          "internalType": "address",
          "name": "depositor",
          "type": "address"
        },
        {
          "indexed": true,
          "internalType": "address",
          "name": "depositReceiver",
          "type": "address"
        },
        {
          "indexed": true,
          "internalType": "address",
          "name": "rootToken",
          "type": "address"
        },
        {
          "indexed": false,
          "internalType": "uint256[]",
          "name": "tokenIds",
          "type": "uint256[]"
        }
      ],
      "name": "LockedMintableERC721Batch",
      "type": "event"
    },
    {
      "anonymous": false,
      "inputs": [
        {
          "indexed": true,
          "internalType": "bytes32",
          "name": "role",
          "type": "bytes32"
        },
        {
          "indexed": true,
          "internalType": "bytes32",
          "name": "previousAdminRole",
          "type": "bytes32"
        },
        {
          "indexed": true,
          "internalType": "bytes32",
          "name": "newAdminRole",
          "type": "bytes32"
        }
      ],
      "name": "RoleAdminChanged",
      "type": "event"
    },
    {
      "anonymous": false,
      "inputs": [
        {
          "indexed": true,
          "internalType": "bytes32",
          "name": "role",
          "type": "bytes32"
        },
        {
          "indexed": true,
          "internalType": "address",
          "name": "account",
          "type": "address"
        },
        {
          "indexed": true,
          "internalType": "address",
          "name": "sender",
          "type": "address"
        }
      ],
      "name": "RoleGranted",
      "type": "event"
    },
    {
      "anonymous": false,
      "inputs": [
        {
          "indexed": true,
          "internalType": "bytes32",
          "name": "role",
          "type": "bytes32"
        },
        {
          "indexed": true,
          "internalType": "address",
          "name": "account",
          "type": "address"
        },
        {
          "indexed": true,
          "internalType": "address",
          "name": "sender",
          "type": "address"
        }
      ],
      "name": "RoleRevoked",
      "type": "event"
    },
    {
      "inputs": [],
      "name": "BATCH_LIMIT",
      "outputs": [
        {
          "internalType": "uint256",
          "name": "",
          "type": "uint256"
        }
      ],
      "stateMutability": "view",
      "type": "function"
    },
    {
      "inputs": [],
      "name": "DEFAULT_ADMIN_ROLE",
      "outputs": [
        {
          "internalType": "bytes32",
          "name": "",
          "type": "bytes32"
        }
      ],
      "stateMutability": "view",
      "type": "function"
    },
    {
      "inputs": [],
      "name": "MANAGER_ROLE",
      "outputs": [
        {
          "internalType": "bytes32",
          "name": "",
          "type": "bytes32"
        }
      ],
      "stateMutability": "view",
      "type": "function"
    },
    {
      "inputs": [],
      "name": "TOKEN_TYPE",
      "outputs": [
        {
          "internalType": "bytes32",
          "name": "",
          "type": "bytes32"
        }
      ],
      "stateMutability": "view",
      "type": "function"
    },
    {
      "inputs": [],
      "name": "TRANSFER_EVENT_SIG",
      "outputs": [
        {
          "internalType": "bytes32",
          "name": "",
          "type": "bytes32"
        }
      ],
      "stateMutability": "view",
      "type": "function"
    },
    {
      "inputs": [],
      "name": "TRANSFER_WITH_METADATA_EVENT_SIG",
      "outputs": [
        {
          "internalType": "bytes32",
          "name": "",
          "type": "bytes32"
        }
      ],
      "stateMutability": "view",
      "type": "function"
    },
    {
      "inputs": [],
      "name": "WITHDRAW_BATCH_EVENT_SIG",
      "outputs": [
        {
          "internalType": "bytes32",
          "name": "",
          "type": "bytes32"
        }
      ],
      "stateMutability": "view",
      "type": "function"
    },
    {
      "inputs": [
        {
          "internalType": "address",
          "name": "",
          "type": "address"
        },
        {
          "internalType": "address",
          "name": "rootToken",
          "type": "address"
        },
        {
          "internalType": "bytes",
          "name": "log",
          "type": "bytes"
        }
      ],
      "name": "exitTokens",
      "outputs": [],
      "stateMutability": "nonpayable",
      "type": "function"
    },
    {
      "inputs": [
        {
          "internalType": "bytes32",
          "name": "role",
          "type": "bytes32"
        }
      ],
      "name": "getRoleAdmin",
      "outputs": [
        {
          "internalType": "bytes32",
          "name": "",
          "type": "bytes32"
        }
      ],
      "stateMutability": "view",
      "type": "function"
    },
    {
      "inputs": [
        {
          "internalType": "bytes32",
          "name": "role",
          "type": "bytes32"
        },
        {
          "internalType": "uint256",
          "name": "index",
          "type": "uint256"
        }
      ],
      "name": "getRoleMember",
      "outputs": [
        {
          "internalType": "address",
          "name": "",
          "type": "address"
        }
      ],
      "stateMutability": "view",
      "type": "function"
    },
    {
      "inputs": [
        {
          "internalType": "bytes32",
          "name": "role",
          "type": "bytes32"
        }
      ],
      "name": "getRoleMemberCount",
      "outputs": [
        {
          "internalType": "uint256",
          "name": "",
          "type": "uint256"
        }
      ],
      "stateMutability": "view",
      "type": "function"
    },
    {
      "inputs": [
        {
          "internalType": "bytes32",
          "name": "role",
          "type": "bytes32"
        },
        {
          "internalType": "address",
          "name": "account",
          "type": "address"
        }
      ],
      "name": "grantRole",
      "outputs": [],
      "stateMutability": "nonpayable",
      "type": "function"
    },
    {
      "inputs": [
        {
          "internalType": "bytes32",
          "name": "role",
          "type": "bytes32"
        },
        {
          "internalType": "address",
          "name": "account",
          "type": "address"
        }
      ],
      "name": "hasRole",
      "outputs": [
        {
          "internalType": "bool",
          "name": "",
          "type": "bool"
        }
      ],
      "stateMutability": "view",
      "type": "function"
    },
    {
      "inputs": [
        {
          "internalType": "address",
          "name": "_owner",
          "type": "address"
        }
      ],
      "name": "initialize",
      "outputs": [],
      "stateMutability": "nonpayable",
      "type": "function"
    },
    {
      "inputs": [
        {
          "internalType": "address",
          "name": "depositor",
          "type": "address"
        },
        {
          "internalType": "address",
          "name": "depositReceiver",
          "type": "address"
        },
        {
          "internalType": "address",
          "name": "rootToken",
          "type": "address"
        },
        {
          "internalType": "bytes",
          "name": "depositData",
          "type": "bytes"
        }
      ],
      "name": "lockTokens",
      "outputs": [],
      "stateMutability": "nonpayable",
      "type": "function"
    },
    {
      "inputs": [
        {
          "internalType": "address",
          "name": "",
          "type": "address"
        },
        {
          "internalType": "address",
          "name": "",
          "type": "address"
        },
        {
          "internalType": "uint256",
          "name": "",
          "type": "uint256"
        },
        {
          "internalType": "bytes",
          "name": "",
          "type": "bytes"
        }
      ],
      "name": "onERC721Received",
      "outputs": [
        {
          "internalType": "bytes4",
          "name": "",
          "type": "bytes4"
        }
      ],
      "stateMutability": "nonpayable",
      "type": "function"
    },
    {
      "inputs": [
        {
          "internalType": "bytes32",
          "name": "role",
          "type": "bytes32"
        },
        {
          "internalType": "address",
          "name": "account",
          "type": "address"
        }
      ],
      "name": "renounceRole",
      "outputs": [],
      "stateMutability": "nonpayable",
      "type": "function"
    },
    {
      "inputs": [
        {
          "internalType": "bytes32",
          "name": "role",
          "type": "bytes32"
        },
        {
          "internalType": "address",
          "name": "account",
          "type": "address"
        }
      ],
      "name": "revokeRole",
      "outputs": [],
      "stateMutability": "nonpayable",
      "type": "function"
    }
  ],
  "bytecode": "0x60806040526000600260006101000a81548160ff02191690831515021790555034801561002b57600080fd5b5061299e8061003b6000396000f3fe608060405234801561001057600080fd5b50600436106101165760003560e01c806391d14854116100a2578063c4d66de811610071578063c4d66de81461059b578063ca15c873146105df578063d547741f14610621578063e375b64e1461066f578063ec87621c1461074857610116565b806391d14854146104db5780639559c0bd14610541578063a217fddf1461055f578063b017a30f1461057d57610116565b80634794b430116100e95780634794b4301461030e57806349f5124b1461032c578063609c92b81461034a5780638274664f146103685780639010d07c1461046357610116565b8063150b7a021461011b578063248a9ca3146102305780632f2ff15d1461027257806336568abe146102c0575b600080fd5b6101dc6004803603608081101561013157600080fd5b81019080803573ffffffffffffffffffffffffffffffffffffffff169060200190929190803573ffffffffffffffffffffffffffffffffffffffff169060200190929190803590602001909291908035906020019064010000000081111561019857600080fd5b8201836020820111156101aa57600080fd5b803590602001918460018302840111640100000000831117156101cc57600080fd5b9091929391929390505050610766565b60405180827bffffffffffffffffffffffffffffffffffffffffffffffffffffffff19167bffffffffffffffffffffffffffffffffffffffffffffffffffffffff1916815260200191505060405180910390f35b61025c6004803603602081101561024657600080fd5b810190808035906020019092919050505061077b565b6040518082815260200191505060405180910390f35b6102be6004803603604081101561028857600080fd5b8101908080359060200190929190803573ffffffffffffffffffffffffffffffffffffffff16906020019092919050505061079a565b005b61030c600480360360408110156102d657600080fd5b8101908080359060200190929190803573ffffffffffffffffffffffffffffffffffffffff169060200190929190505050610823565b005b6103166108bc565b6040518082815260200191505060405180910390f35b6103346108e3565b6040518082815260200191505060405180910390f35b61035261090a565b6040518082815260200191505060405180910390f35b6104616004803603606081101561037e57600080fd5b81019080803573ffffffffffffffffffffffffffffffffffffffff169060200190929190803573ffffffffffffffffffffffffffffffffffffffff169060200190929190803590602001906401000000008111156103db57600080fd5b8201836020820111156103ed57600080fd5b8035906020019184600183028401116401000000008311171561040f57600080fd5b91908080601f016020809104026020016040519081016040528093929190818152602001838380828437600081840152601f19601f820116905080830192505050505050509192919290505050610931565b005b6104996004803603604081101561047957600080fd5b810190808035906020019092919080359060200190929190505050611633565b604051808273ffffffffffffffffffffffffffffffffffffffff1673ffffffffffffffffffffffffffffffffffffffff16815260200191505060405180910390f35b610527600480360360408110156104f157600080fd5b8101908080359060200190929190803573ffffffffffffffffffffffffffffffffffffffff169060200190929190505050611664565b604051808215151515815260200191505060405180910390f35b610549611695565b6040518082815260200191505060405180910390f35b61056761169a565b6040518082815260200191505060405180910390f35b6105856116a1565b6040518082815260200191505060405180910390f35b6105dd600480360360208110156105b157600080fd5b81019080803573ffffffffffffffffffffffffffffffffffffffff1690602001909291905050506116c8565b005b61060b600480360360208110156105f557600080fd5b81019080803590602001909291905050506117e1565b6040518082815260200191505060405180910390f35b61066d6004803603604081101561063757600080fd5b8101908080359060200190929190803573ffffffffffffffffffffffffffffffffffffffff169060200190929190505050611807565b005b6107466004803603608081101561068557600080fd5b81019080803573ffffffffffffffffffffffffffffffffffffffff169060200190929190803573ffffffffffffffffffffffffffffffffffffffff169060200190929190803573ffffffffffffffffffffffffffffffffffffffff1690602001909291908035906020019064010000000081111561070257600080fd5b82018360208201111561071457600080fd5b8035906020019184600183028401116401000000008311171561073657600080fd5b9091929391929390505050611890565b005b610750611de7565b6040518082815260200191505060405180910390f35b600063150b7a0260e01b905095945050505050565b6000806000838152602001908152602001600020600201549050919050565b6107c0600080848152602001908152602001600020600201546107bb611e0e565b611664565b610815576040517f08c379a000000000000000000000000000000000000000000000000000000000815260040180806020018281038252602f81526020018061285c602f913960400191505060405180910390fd5b61081f8282611e16565b5050565b61082b611e0e565b73ffffffffffffffffffffffffffffffffffffffff168173ffffffffffffffffffffffffffffffffffffffff16146108ae576040517f08c379a000000000000000000000000000000000000000000000000000000000815260040180806020018281038252602f81526020018061293a602f913960400191505060405180910390fd5b6108b88282611ea9565b5050565b7ff871896b17e9cb7a64941c62c188a4f5c621b86800e3d15452ece01ce56073df60001b81565b7ff94915c6d1fd521cee85359239227480c7e8776d7caf1fc3bacad5c269b66a1460001b81565b7fd4392723c111fcb98b073fe55873efb447bcd23cd3e49ec9ea2581930cd01ddc60001b81565b7f241ecf16d79d0f8dbfb92cbc07fe17840425976cf0667f022fe9877caa831b0860001b61096681610961611e0e565b611664565b600190610a2b576040517f08c379a00000000000000000000000000000000000000000000000000000000081526004018080602001828103825283818154600181600116156101000203166002900481526020019150805460018160011615610100020316600290048015610a1c5780601f106109f157610100808354040283529160200191610a1c565b820191906000526020600020905b8154815290600101906020018083116109ff57829003601f168201915b50509250505060405180910390fd5b506060610a3f610a3a84611f3c565b611f6a565b90506060610a6082600181518110610a5357fe5b6020026020010151611f6a565b90507fddf252ad1be2c89b69c2b068fc378daa952ba7f163c4a11628f55a4df523b3ef60001b610aa382600081518110610a9657fe5b602002602001015161205e565b60001b1415610da5576000610acb82600181518110610abe57fe5b602002602001015161205e565b9050600073ffffffffffffffffffffffffffffffffffffffff16610b0283600281518110610af557fe5b602002602001015161205e565b73ffffffffffffffffffffffffffffffffffffffff1614610b6e576040517f08c379a00000000000000000000000000000000000000000000000000000000081526004018080602001828103825260298152602001806129116029913960400191505060405180910390fd5b60008690506000610b9284600381518110610b8557fe5b602002602001015161205e565b90508173ffffffffffffffffffffffffffffffffffffffff16634f558e79826040518263ffffffff1660e01b81526004018082815260200191505060206040518083038186803b158015610be557600080fd5b505afa158015610bf9573d6000803e3d6000fd5b505050506040513d6020811015610c0f57600080fd5b810190808051906020019092919050505015610cfd578173ffffffffffffffffffffffffffffffffffffffff166342842e0e3085846040518463ffffffff1660e01b8152600401808473ffffffffffffffffffffffffffffffffffffffff1673ffffffffffffffffffffffffffffffffffffffff1681526020018373ffffffffffffffffffffffffffffffffffffffff1673ffffffffffffffffffffffffffffffffffffffff1681526020018281526020019350505050600060405180830381600087803b158015610ce057600080fd5b505af1158015610cf4573d6000803e3d6000fd5b50505050610d9d565b8173ffffffffffffffffffffffffffffffffffffffff166340c10f1984836040518363ffffffff1660e01b8152600401808373ffffffffffffffffffffffffffffffffffffffff1673ffffffffffffffffffffffffffffffffffffffff16815260200182815260200192505050600060405180830381600087803b158015610d8457600080fd5b505af1158015610d98573d6000803e3d6000fd5b505050505b50505061162b565b7ff871896b17e9cb7a64941c62c188a4f5c621b86800e3d15452ece01ce56073df60001b610de682600081518110610dd957fe5b602002602001015161205e565b60001b1415611131576000610e0e82600181518110610e0157fe5b602002602001015161205e565b90506060610e2f84600281518110610e2257fe5b60200260200101516120b8565b90506060818060200190516020811015610e4857600080fd5b8101908080516040519392919084640100000000821115610e6857600080fd5b83820191506020820185811115610e7e57600080fd5b8251866020820283011164010000000082111715610e9b57600080fd5b8083526020830192505050908051906020019060200280838360005b83811015610ed2578082015181840152602081019050610eb7565b505050509050016040525050509050600081519050600089905060005b82811015611126576000848281518110610f0557fe5b602002602001015190508273ffffffffffffffffffffffffffffffffffffffff16634f558e79826040518263ffffffff1660e01b81526004018082815260200191505060206040518083038186803b158015610f6057600080fd5b505afa158015610f74573d6000803e3d6000fd5b505050506040513d6020811015610f8a57600080fd5b810190808051906020019092919050505015611078578273ffffffffffffffffffffffffffffffffffffffff166342842e0e3089846040518463ffffffff1660e01b8152600401808473ffffffffffffffffffffffffffffffffffffffff1673ffffffffffffffffffffffffffffffffffffffff1681526020018373ffffffffffffffffffffffffffffffffffffffff1673ffffffffffffffffffffffffffffffffffffffff1681526020018281526020019350505050600060405180830381600087803b15801561105b57600080fd5b505af115801561106f573d6000803e3d6000fd5b50505050611118565b8273ffffffffffffffffffffffffffffffffffffffff166340c10f1988836040518363ffffffff1660e01b8152600401808373ffffffffffffffffffffffffffffffffffffffff1673ffffffffffffffffffffffffffffffffffffffff16815260200182815260200192505050600060405180830381600087803b1580156110ff57600080fd5b505af1158015611113573d6000803e3d6000fd5b505050505b508080600101915050610eef565b50505050505061162a565b7ff94915c6d1fd521cee85359239227480c7e8776d7caf1fc3bacad5c269b66a1460001b6111728260008151811061116557fe5b602002602001015161205e565b60001b14156115d857600061119a8260018151811061118d57fe5b602002602001015161205e565b9050600073ffffffffffffffffffffffffffffffffffffffff166111d1836002815181106111c457fe5b602002602001015161205e565b73ffffffffffffffffffffffffffffffffffffffff161461123d576040517f08c379a00000000000000000000000000000000000000000000000000000000081526004018080602001828103825260298152602001806129116029913960400191505060405180910390fd5b600086905060006112618460038151811061125457fe5b602002602001015161205e565b90508173ffffffffffffffffffffffffffffffffffffffff16634f558e79826040518263ffffffff1660e01b81526004018082815260200191505060206040518083038186803b1580156112b457600080fd5b505afa1580156112c8573d6000803e3d6000fd5b505050506040513d60208110156112de57600080fd5b8101908080519060200190929190505050156113cc578173ffffffffffffffffffffffffffffffffffffffff166342842e0e3085846040518463ffffffff1660e01b8152600401808473ffffffffffffffffffffffffffffffffffffffff1673ffffffffffffffffffffffffffffffffffffffff1681526020018373ffffffffffffffffffffffffffffffffffffffff1673ffffffffffffffffffffffffffffffffffffffff1681526020018281526020019350505050600060405180830381600087803b1580156113af57600080fd5b505af11580156113c3573d6000803e3d6000fd5b505050506115d0565b60606113eb866002815181106113de57fe5b60200260200101516120b8565b9050606081806020019051602081101561140457600080fd5b810190808051604051939291908464010000000082111561142457600080fd5b8382019150602082018581111561143a57600080fd5b825186600182028301116401000000008211171561145757600080fd5b8083526020830192505050908051906020019080838360005b8381101561148b578082015181840152602081019050611470565b50505050905090810190601f1680156114b85780820380516001836020036101000a031916815260200191505b5060405250505090508373ffffffffffffffffffffffffffffffffffffffff166394d008ef8685846040518463ffffffff1660e01b8152600401808473ffffffffffffffffffffffffffffffffffffffff1673ffffffffffffffffffffffffffffffffffffffff16815260200183815260200180602001828103825283818151815260200191508051906020019080838360005b8381101561156757808201518184015260208101905061154c565b50505050905090810190601f1680156115945780820380516001836020036101000a031916815260200191505b50945050505050600060405180830381600087803b1580156115b557600080fd5b505af11580156115c9573d6000803e3d6000fd5b5050505050505b505050611629565b6040517f08c379a000000000000000000000000000000000000000000000000000000000815260040180806020018281038252602a81526020018061288b602a913960400191505060405180910390fd5b5b5b505050505050565b600061165c8260008086815260200190815260200160002060000161214990919063ffffffff16565b905092915050565b600061168d8260008086815260200190815260200160002060000161216390919063ffffffff16565b905092915050565b601481565b6000801b81565b7fddf252ad1be2c89b69c2b068fc378daa952ba7f163c4a11628f55a4df523b3ef60001b81565b600260009054906101000a900460ff161561174b576040517f08c379a000000000000000000000000000000000000000000000000000000000815260040180806020018281038252600e8152602001807f616c726561647920696e6974656400000000000000000000000000000000000081525060200191505060405180910390fd5b6117896040518060400160405280601781526020017f4d696e7461626c65455243373231507265646963617465000000000000000000815250612193565b6117966000801b8261223f565b6117c37f241ecf16d79d0f8dbfb92cbc07fe17840425976cf0667f022fe9877caa831b0860001b8261223f565b6001600260006101000a81548160ff02191690831515021790555050565b600061180060008084815260200190815260200160002060000161224d565b9050919050565b61182d60008084815260200190815260200160002060020154611828611e0e565b611664565b611882576040517f08c379a00000000000000000000000000000000000000000000000000000000081526004018080602001828103825260308152602001806128b56030913960400191505060405180910390fd5b61188c8282611ea9565b5050565b7f241ecf16d79d0f8dbfb92cbc07fe17840425976cf0667f022fe9877caa831b0860001b6118c5816118c0611e0e565b611664565b60019061198a576040517f08c379a0000000000000000000000000000000000000000000000000000000008152600401808060200182810382528381815460018160011615610100020316600290048152602001915080546001816001161561010002031660029004801561197b5780601f106119505761010080835404028352916020019161197b565b820191906000526020600020905b81548152906001019060200180831161195e57829003601f168201915b50509250505060405180910390fd5b506020838390501415611b11576000838360208110156119a957600080fd5b810190808035906020019092919050505090508473ffffffffffffffffffffffffffffffffffffffff168673ffffffffffffffffffffffffffffffffffffffff168873ffffffffffffffffffffffffffffffffffffffff167fe13244aa06bdc79480ed5fdc6ebe2bb37202fcdf33ecf45dc449f4201f3dc087846040518082815260200191505060405180910390a48473ffffffffffffffffffffffffffffffffffffffff166342842e0e8830846040518463ffffffff1660e01b8152600401808473ffffffffffffffffffffffffffffffffffffffff1673ffffffffffffffffffffffffffffffffffffffff1681526020018373ffffffffffffffffffffffffffffffffffffffff1673ffffffffffffffffffffffffffffffffffffffff1681526020018281526020019350505050600060405180830381600087803b158015611af357600080fd5b505af1158015611b07573d6000803e3d6000fd5b5050505050611ddf565b606083836020811015611b2357600080fd5b8101908080359060200190640100000000811115611b4057600080fd5b820183602082011115611b5257600080fd5b80359060200191846020830284011164010000000083111715611b7457600080fd5b919080806020026020016040519081016040528093929190818152602001838360200280828437600081840152601f19601f82011690508083019250505050505050919291929050505090508473ffffffffffffffffffffffffffffffffffffffff168673ffffffffffffffffffffffffffffffffffffffff168873ffffffffffffffffffffffffffffffffffffffff167fdb55e3a0ae817693fd7b07170d81eab0eb2c239f36fcecbc98b6b58ac5667e7a846040518080602001828103825283818151815260200191508051906020019060200280838360005b83811015611c6a578082015181840152602081019050611c4f565b505050509050019250505060405180910390a46000815190506014811115611cdd576040517f08c379a000000000000000000000000000000000000000000000000000000000815260040180806020018281038252602c8152602001806128e5602c913960400191505060405180910390fd5b60005b81811015611ddb578673ffffffffffffffffffffffffffffffffffffffff166342842e0e8a30868581518110611d1257fe5b60200260200101516040518463ffffffff1660e01b8152600401808473ffffffffffffffffffffffffffffffffffffffff1673ffffffffffffffffffffffffffffffffffffffff1681526020018373ffffffffffffffffffffffffffffffffffffffff1673ffffffffffffffffffffffffffffffffffffffff1681526020018281526020019350505050600060405180830381600087803b158015611db657600080fd5b505af1158015611dca573d6000803e3d6000fd5b505050508080600101915050611ce0565b5050505b505050505050565b7f241ecf16d79d0f8dbfb92cbc07fe17840425976cf0667f022fe9877caa831b0860001b81565b600033905090565b611e3d8160008085815260200190815260200160002060000161226290919063ffffffff16565b15611ea557611e4a611e0e565b73ffffffffffffffffffffffffffffffffffffffff168173ffffffffffffffffffffffffffffffffffffffff16837f2f8788117e7eff1d82e926ec794901d17c78024a50270940304540a733656f0d60405160405180910390a45b5050565b611ed08160008085815260200190815260200160002060000161229290919063ffffffff16565b15611f3857611edd611e0e565b73ffffffffffffffffffffffffffffffffffffffff168173ffffffffffffffffffffffffffffffffffffffff16837ff6391f5c32d9c69d2a47ea670b442974b53935d1edc7fd64eb21e047a839171b60405160405180910390a45b5050565b611f4461277a565b600060208301905060405180604001604052808451815260200182815250915050919050565b6060611f75826122c2565b611f7e57600080fd5b6000611f8983612310565b905060608167ffffffffffffffff81118015611fa457600080fd5b50604051908082528060200260200182016040528015611fde57816020015b611fcb61277a565b815260200190600190039081611fc35790505b5090506000611ff08560200151612381565b8560200151019050600080600090505b84811015612051576120118361240a565b915060405180604001604052808381526020018481525084828151811061203457fe5b602002602001018190525081830192508080600101915050612000565b5082945050505050919050565b600080826000015111801561207857506021826000015111155b61208157600080fd5b60008061208d846124c2565b9150915060008251905060208210156120ad57816020036101000a810490505b809350505050919050565b606060008260000151116120cb57600080fd5b6000806120d7846124c2565b9150915060608167ffffffffffffffff811180156120f457600080fd5b506040519080825280601f01601f1916602001820160405280156121275781602001600182028036833780820191505090505b509050600081602001905061213d8482856124fa565b81945050505050919050565b6000612158836000018361256b565b60001c905092915050565b600061218b836000018373ffffffffffffffffffffffffffffffffffffffff1660001b6125ee565b905092915050565b806040516020018082805190602001908083835b602083106121ca57805182526020820191506020810190506020830392506121a7565b6001836020036101000a038019825116818451168082178552505050505050905001807f3a20494e53554646494349454e545f5045524d495353494f4e53000000000000815250601a019150506040516020818303038152906040526001908051906020019061223b929190612794565b5050565b6122498282611e16565b5050565b600061225b82600001612611565b9050919050565b600061228a836000018373ffffffffffffffffffffffffffffffffffffffff1660001b612622565b905092915050565b60006122ba836000018373ffffffffffffffffffffffffffffffffffffffff1660001b612692565b905092915050565b600080826000015114156122d9576000905061230b565b60008083602001519050805160001a915060c060ff168260ff1610156123045760009250505061230b565b6001925050505b919050565b60008082600001511415612327576000905061237c565b6000809050600061233b8460200151612381565b84602001510190506000846000015185602001510190505b80821015612375576123648261240a565b820191508280600101935050612353565b8293505050505b919050565b600080825160001a9050608060ff168110156123a1576000915050612405565b60b860ff168110806123c6575060c060ff1681101580156123c5575060f860ff1681105b5b156123d5576001915050612405565b60c060ff168110156123f55760018060b80360ff16820301915050612405565b60018060f80360ff168203019150505b919050565b6000806000835160001a9050608060ff1681101561242b57600191506124b8565b60b860ff16811015612448576001608060ff1682030191506124b7565b60c060ff168110156124785760b78103600185019450806020036101000a855104600182018101935050506124b6565b60f860ff1681101561249557600160c060ff1682030191506124b5565b60f78103600185019450806020036101000a855104600182018101935050505b5b5b5b8192505050919050565b60008060006124d48460200151612381565b905060008185602001510190506000828660000151039050818194509450505050915091565b600081141561250857612566565b5b602060ff1681106125385782518252602060ff1683019250602060ff1682019150602060ff1681039050612509565b6000811115612565576000600182602060ff16036101000a03905080198451168184511681811785525050505b5b505050565b6000818360000180549050116125cc576040517f08c379a000000000000000000000000000000000000000000000000000000000815260040180806020018281038252602281526020018061283a6022913960400191505060405180910390fd5b8260000182815481106125db57fe5b9060005260206000200154905092915050565b600080836001016000848152602001908152602001600020541415905092915050565b600081600001805490509050919050565b600061262e83836125ee565b61268757826000018290806001815401808255809150506001900390600052602060002001600090919091909150558260000180549050836001016000848152602001908152602001600020819055506001905061268c565b600090505b92915050565b6000808360010160008481526020019081526020016000205490506000811461276e57600060018203905060006001866000018054905003905060008660000182815481106126dd57fe5b90600052602060002001549050808760000184815481106126fa57fe5b906000526020600020018190555060018301876001016000838152602001908152602001600020819055508660000180548061273257fe5b60019003818190600052602060002001600090559055866001016000878152602001908152602001600020600090556001945050505050612774565b60009150505b92915050565b604051806040016040528060008152602001600081525090565b828054600181600116156101000203166002900490600052602060002090601f016020900481019282601f106127d557805160ff1916838001178555612803565b82800160010185558215612803579182015b828111156128025782518255916020019190600101906127e7565b5b5090506128109190612814565b5090565b61283691905b8082111561283257600081600090555060010161281a565b5090565b9056fe456e756d657261626c655365743a20696e646578206f7574206f6620626f756e6473416363657373436f6e74726f6c3a2073656e646572206d75737420626520616e2061646d696e20746f206772616e744d696e7461626c654552433732315072656469636174653a20494e56414c49445f5349474e4154555245416363657373436f6e74726f6c3a2073656e646572206d75737420626520616e2061646d696e20746f207265766f6b654d696e7461626c654552433732315072656469636174653a20455843454544535f42415443485f4c494d49544d696e7461626c654552433732315072656469636174653a20494e56414c49445f5245434549564552416363657373436f6e74726f6c3a2063616e206f6e6c792072656e6f756e636520726f6c657320666f722073656c66a2646970667358221220fb45985b1642f9db6edf4a1c990825b9822a6d2e3e5fe73c5e282c093122d11f64736f6c63430006060033",
  "linkReferences": {},
  "deployedLinkReferences": {}
}