{
  "contractName": "ChildChainManager",
  "abi": [
    {
      "inputs": [],
      "stateMutability": "nonpayable",
      "type": "constructor"
    },
    {
      "anonymous": false,
      "inputs": [
        {
          "indexed": true,
          "internalType": "address",
          "name": "user",
          "type": "address"
        },
        {
          "indexed": true,
          "internalType": "address",
          "name": "childToken",
          "type": "address"
        },
        {
          "indexed": true,
          "internalType": "uint256",
          "name": "amount",
          "type": "uint256"
        }
      ],
      "name": "Deposited",
      "type": "event"
    },
    {
      "anonymous": false,
      "inputs": [
        {
          "indexed": true,
          "internalType": "bytes32",
          "name": "role",
          "type": "bytes32"
        },
        {
          "indexed": true,
          "internalType": "address",
          "name": "account",
          "type": "address"
        },
        {
          "indexed": true,
          "internalType": "address",
          "name": "sender",
          "type": "address"
        }
      ],
      "name": "RoleGranted",
      "type": "event"
    },
    {
      "anonymous": false,
      "inputs": [
        {
          "indexed": true,
          "internalType": "bytes32",
          "name": "role",
          "type": "bytes32"
        },
        {
          "indexed": true,
          "internalType": "address",
          "name": "account",
          "type": "address"
        },
        {
          "indexed": true,
          "internalType": "address",
          "name": "sender",
          "type": "address"
        }
      ],
      "name": "RoleRevoked",
      "type": "event"
    },
    {
      "anonymous": false,
      "inputs": [
        {
          "indexed": true,
          "internalType": "address",
          "name": "rootToken",
          "type": "address"
        },
        {
          "indexed": true,
          "internalType": "address",
          "name": "childToken",
          "type": "address"
        }
      ],
      "name": "TokenMapped",
      "type": "event"
    },
    {
      "inputs": [],
      "name": "DEFAULT_ADMIN_ROLE",
      "outputs": [
        {
          "internalType": "bytes32",
          "name": "",
          "type": "bytes32"
        }
      ],
      "stateMutability": "view",
      "type": "function",
      "constant": true
    },
    {
      "inputs": [],
      "name": "MAPPER_ROLE",
      "outputs": [
        {
          "internalType": "bytes32",
          "name": "",
          "type": "bytes32"
        }
      ],
      "stateMutability": "view",
      "type": "function",
      "constant": true
    },
    {
      "inputs": [],
      "name": "STATE_SYNCER_ROLE",
      "outputs": [
        {
          "internalType": "bytes32",
          "name": "",
          "type": "bytes32"
        }
      ],
      "stateMutability": "view",
      "type": "function",
      "constant": true
    },
    {
      "inputs": [
        {
          "internalType": "bytes32",
          "name": "role",
          "type": "bytes32"
        }
      ],
      "name": "getRoleAdmin",
      "outputs": [
        {
          "internalType": "bytes32",
          "name": "",
          "type": "bytes32"
        }
      ],
      "stateMutability": "view",
      "type": "function",
      "constant": true
    },
    {
      "inputs": [
        {
          "internalType": "bytes32",
          "name": "role",
          "type": "bytes32"
        },
        {
          "internalType": "uint256",
          "name": "index",
          "type": "uint256"
        }
      ],
      "name": "getRoleMember",
      "outputs": [
        {
          "internalType": "address",
          "name": "",
          "type": "address"
        }
      ],
      "stateMutability": "view",
      "type": "function",
      "constant": true
    },
    {
      "inputs": [
        {
          "internalType": "bytes32",
          "name": "role",
          "type": "bytes32"
        }
      ],
      "name": "getRoleMemberCount",
      "outputs": [
        {
          "internalType": "uint256",
          "name": "",
          "type": "uint256"
        }
      ],
      "stateMutability": "view",
      "type": "function",
      "constant": true
    },
    {
      "inputs": [
        {
          "internalType": "bytes32",
          "name": "role",
          "type": "bytes32"
        },
        {
          "internalType": "address",
          "name": "account",
          "type": "address"
        }
      ],
      "name": "grantRole",
      "outputs": [],
      "stateMutability": "nonpayable",
      "type": "function"
    },
    {
      "inputs": [
        {
          "internalType": "bytes32",
          "name": "role",
          "type": "bytes32"
        },
        {
          "internalType": "address",
          "name": "account",
          "type": "address"
        }
      ],
      "name": "hasRole",
      "outputs": [
        {
          "internalType": "bool",
          "name": "",
          "type": "bool"
        }
      ],
      "stateMutability": "view",
      "type": "function",
      "constant": true
    },
    {
      "inputs": [
        {
          "internalType": "bytes32",
          "name": "role",
          "type": "bytes32"
        },
        {
          "internalType": "address",
          "name": "account",
          "type": "address"
        }
      ],
      "name": "renounceRole",
      "outputs": [],
      "stateMutability": "nonpayable",
      "type": "function"
    },
    {
      "inputs": [
        {
          "internalType": "bytes32",
          "name": "role",
          "type": "bytes32"
        },
        {
          "internalType": "address",
          "name": "account",
          "type": "address"
        }
      ],
      "name": "revokeRole",
      "outputs": [],
      "stateMutability": "nonpayable",
      "type": "function"
    },
    {
      "inputs": [
        {
          "internalType": "address",
          "name": "rootToken",
          "type": "address"
        }
      ],
      "name": "rootToChildToken",
      "outputs": [
        {
          "internalType": "address",
          "name": "",
          "type": "address"
        }
      ],
      "stateMutability": "view",
      "type": "function",
      "constant": true
    },
    {
      "inputs": [
        {
          "internalType": "address",
          "name": "childToken",
          "type": "address"
        }
      ],
      "name": "childToRootToken",
      "outputs": [
        {
          "internalType": "address",
          "name": "",
          "type": "address"
        }
      ],
      "stateMutability": "view",
      "type": "function",
      "constant": true
    },
    {
      "inputs": [
        {
          "internalType": "address",
          "name": "rootToken",
          "type": "address"
        },
        {
          "internalType": "address",
          "name": "childToken",
          "type": "address"
        }
      ],
      "name": "mapToken",
      "outputs": [],
      "stateMutability": "nonpayable",
      "type": "function"
    },
    {
      "inputs": [
        {
          "internalType": "uint256",
          "name": "id",
          "type": "uint256"
        },
        {
          "internalType": "bytes",
          "name": "data",
          "type": "bytes"
        }
      ],
      "name": "onStateReceive",
      "outputs": [],
      "stateMutability": "nonpayable",
      "type": "function"
    }
  ],
  "bytecode": "0x60806040523480156200001157600080fd5b50620000276000801b33620000bb60201b60201c565b6200006e60405180807f4d41505045525f524f4c45000000000000000000000000000000000000000000815250600b019050604051809103902033620000bb60201b60201c565b620000b560405180807f53544154455f53594e4345525f524f4c450000000000000000000000000000008152506011019050604051809103902033620000bb60201b60201c565b62000251565b620000cd8282620000d160201b60201c565b5050565b620000ff816000808581526020019081526020016000206000016200017460201b62000fea1790919060201c565b15620001705762000115620001ac60201b60201c565b73ffffffffffffffffffffffffffffffffffffffff168173ffffffffffffffffffffffffffffffffffffffff16837f2f8788117e7eff1d82e926ec794901d17c78024a50270940304540a733656f0d60405160405180910390a45b5050565b6000620001a4836000018373ffffffffffffffffffffffffffffffffffffffff1660001b620001b460201b60201c565b905092915050565b600033905090565b6000620001c883836200022e60201b60201c565b6200022357826000018290806001815401808255809150506001900390600052602060002001600090919091909150558260000180549050836001016000848152602001908152602001600020819055506001905062000228565b600090505b92915050565b600080836001016000848152602001908152602001600020541415905092915050565b61133f80620002616000396000f3fe608060405234801561001057600080fd5b50600436106100ea5760003560e01c80636e86b7701161008c578063a217fddf11610066578063a217fddf14610452578063ca15c87314610470578063d547741f146104b2578063ea60c7c414610500576100ea565b80636e86b770146102f05780639010d07c1461037457806391d14854146103ec576100ea565b806336568abe116100c857806336568abe1461020257806347400269146102505780634dee4498146102b4578063568b80b5146102d2576100ea565b8063248a9ca3146100ef57806326c53bea146101315780632f2ff15d146101b4575b600080fd5b61011b6004803603602081101561010557600080fd5b8101908080359060200190929190505050610584565b6040518082815260200191505060405180910390f35b6101b26004803603604081101561014757600080fd5b81019080803590602001909291908035906020019064010000000081111561016e57600080fd5b82018360208201111561018057600080fd5b803590602001918460018302840111640100000000831117156101a257600080fd5b90919293919293905050506105a3565b005b610200600480360360408110156101ca57600080fd5b8101908080359060200190929190803573ffffffffffffffffffffffffffffffffffffffff1690602001909291905050506108d2565b005b61024e6004803603604081101561021857600080fd5b8101908080359060200190929190803573ffffffffffffffffffffffffffffffffffffffff16906020019092919050505061095b565b005b6102b26004803603604081101561026657600080fd5b81019080803573ffffffffffffffffffffffffffffffffffffffff169060200190929190803573ffffffffffffffffffffffffffffffffffffffff1690602001909291905050506109f4565b005b6102bc610c01565b6040518082815260200191505060405180910390f35b6102da610c3a565b6040518082815260200191505060405180910390f35b6103326004803603602081101561030657600080fd5b81019080803573ffffffffffffffffffffffffffffffffffffffff169060200190929190505050610c73565b604051808273ffffffffffffffffffffffffffffffffffffffff1673ffffffffffffffffffffffffffffffffffffffff16815260200191505060405180910390f35b6103aa6004803603604081101561038a57600080fd5b810190808035906020019092919080359060200190929190505050610cdc565b604051808273ffffffffffffffffffffffffffffffffffffffff1673ffffffffffffffffffffffffffffffffffffffff16815260200191505060405180910390f35b6104386004803603604081101561040257600080fd5b8101908080359060200190929190803573ffffffffffffffffffffffffffffffffffffffff169060200190929190505050610d0d565b604051808215151515815260200191505060405180910390f35b61045a610d3e565b6040518082815260200191505060405180910390f35b61049c6004803603602081101561048657600080fd5b8101908080359060200190929190505050610d45565b6040518082815260200191505060405180910390f35b6104fe600480360360408110156104c857600080fd5b8101908080359060200190929190803573ffffffffffffffffffffffffffffffffffffffff169060200190929190505050610d6b565b005b6105426004803603602081101561051657600080fd5b81019080803573ffffffffffffffffffffffffffffffffffffffff169060200190929190505050610df4565b604051808273ffffffffffffffffffffffffffffffffffffffff1673ffffffffffffffffffffffffffffffffffffffff16815260200191505060405180910390f35b6000806000838152602001908152602001600020600201549050919050565b60405180807f53544154455f53594e4345525f524f4c45000000000000000000000000000000815250601101905060405180910390206105e38133610d0d565b610655576040517f08c379a00000000000000000000000000000000000000000000000000000000081526004018080602001828103825260188152602001807f496e73756666696369656e74207065726d697373696f6e73000000000000000081525060200191505060405180910390fd5b60008060008585606081101561066a57600080fd5b81019080803573ffffffffffffffffffffffffffffffffffffffff169060200190929190803573ffffffffffffffffffffffffffffffffffffffff169060200190929190803590602001909291905050509250925092506000600160008473ffffffffffffffffffffffffffffffffffffffff1673ffffffffffffffffffffffffffffffffffffffff16815260200190815260200160002060009054906101000a900473ffffffffffffffffffffffffffffffffffffffff169050600073ffffffffffffffffffffffffffffffffffffffff168173ffffffffffffffffffffffffffffffffffffffff1614156107c8576040517f08c379a00000000000000000000000000000000000000000000000000000000081526004018080602001828103825260108152602001807f546f6b656e206e6f74206d61707065640000000000000000000000000000000081525060200191505060405180910390fd5b60008190508073ffffffffffffffffffffffffffffffffffffffff166347e7ef2486856040518363ffffffff1660e01b8152600401808373ffffffffffffffffffffffffffffffffffffffff1673ffffffffffffffffffffffffffffffffffffffff16815260200182815260200192505050600060405180830381600087803b15801561085457600080fd5b505af1158015610868573d6000803e3d6000fd5b50505050828273ffffffffffffffffffffffffffffffffffffffff168673ffffffffffffffffffffffffffffffffffffffff167f8752a472e571a816aea92eec8dae9baf628e840f4929fbcc2d155e6233ff68a760405160405180910390a4505050505050505050565b6108f8600080848152602001908152602001600020600201546108f3610e5d565b610d0d565b61094d576040517f08c379a000000000000000000000000000000000000000000000000000000000815260040180806020018281038252602f81526020018061127c602f913960400191505060405180910390fd5b6109578282610e65565b5050565b610963610e5d565b73ffffffffffffffffffffffffffffffffffffffff168173ffffffffffffffffffffffffffffffffffffffff16146109e6576040517f08c379a000000000000000000000000000000000000000000000000000000000815260040180806020018281038252602f8152602001806112db602f913960400191505060405180910390fd5b6109f08282610ef8565b5050565b60405180807f4d41505045525f524f4c45000000000000000000000000000000000000000000815250600b0190506040518091039020610a348133610d0d565b610aa6576040517f08c379a00000000000000000000000000000000000000000000000000000000081526004018080602001828103825260188152602001807f496e73756666696369656e74207065726d697373696f6e73000000000000000081525060200191505060405180910390fd5b81600160008573ffffffffffffffffffffffffffffffffffffffff1673ffffffffffffffffffffffffffffffffffffffff16815260200190815260200160002060006101000a81548173ffffffffffffffffffffffffffffffffffffffff021916908373ffffffffffffffffffffffffffffffffffffffff16021790555082600260008473ffffffffffffffffffffffffffffffffffffffff1673ffffffffffffffffffffffffffffffffffffffff16815260200190815260200160002060006101000a81548173ffffffffffffffffffffffffffffffffffffffff021916908373ffffffffffffffffffffffffffffffffffffffff1602179055508173ffffffffffffffffffffffffffffffffffffffff168373ffffffffffffffffffffffffffffffffffffffff167f85920d35e6c72f6b2affffa04298b0cecfeba86e4a9f407df661f1cb8ab5e61760405160405180910390a3505050565b60405180807f53544154455f53594e4345525f524f4c450000000000000000000000000000008152506011019050604051809103902081565b60405180807f4d41505045525f524f4c45000000000000000000000000000000000000000000815250600b019050604051809103902081565b6000600260008373ffffffffffffffffffffffffffffffffffffffff1673ffffffffffffffffffffffffffffffffffffffff16815260200190815260200160002060009054906101000a900473ffffffffffffffffffffffffffffffffffffffff169050919050565b6000610d0582600080868152602001908152602001600020600001610f8b90919063ffffffff16565b905092915050565b6000610d3682600080868152602001908152602001600020600001610fa590919063ffffffff16565b905092915050565b6000801b81565b6000610d64600080848152602001908152602001600020600001610fd5565b9050919050565b610d9160008084815260200190815260200160002060020154610d8c610e5d565b610d0d565b610de6576040517f08c379a00000000000000000000000000000000000000000000000000000000081526004018080602001828103825260308152602001806112ab6030913960400191505060405180910390fd5b610df08282610ef8565b5050565b6000600160008373ffffffffffffffffffffffffffffffffffffffff1673ffffffffffffffffffffffffffffffffffffffff16815260200190815260200160002060009054906101000a900473ffffffffffffffffffffffffffffffffffffffff169050919050565b600033905090565b610e8c81600080858152602001908152602001600020600001610fea90919063ffffffff16565b15610ef457610e99610e5d565b73ffffffffffffffffffffffffffffffffffffffff168173ffffffffffffffffffffffffffffffffffffffff16837f2f8788117e7eff1d82e926ec794901d17c78024a50270940304540a733656f0d60405160405180910390a45b5050565b610f1f8160008085815260200190815260200160002060000161101a90919063ffffffff16565b15610f8757610f2c610e5d565b73ffffffffffffffffffffffffffffffffffffffff168173ffffffffffffffffffffffffffffffffffffffff16837ff6391f5c32d9c69d2a47ea670b442974b53935d1edc7fd64eb21e047a839171b60405160405180910390a45b5050565b6000610f9a836000018361104a565b60001c905092915050565b6000610fcd836000018373ffffffffffffffffffffffffffffffffffffffff1660001b6110cd565b905092915050565b6000610fe3826000016110f0565b9050919050565b6000611012836000018373ffffffffffffffffffffffffffffffffffffffff1660001b611101565b905092915050565b6000611042836000018373ffffffffffffffffffffffffffffffffffffffff1660001b611171565b905092915050565b6000818360000180549050116110ab576040517f08c379a000000000000000000000000000000000000000000000000000000000815260040180806020018281038252602281526020018061125a6022913960400191505060405180910390fd5b8260000182815481106110ba57fe5b9060005260206000200154905092915050565b600080836001016000848152602001908152602001600020541415905092915050565b600081600001805490509050919050565b600061110d83836110cd565b61116657826000018290806001815401808255809150506001900390600052602060002001600090919091909150558260000180549050836001016000848152602001908152602001600020819055506001905061116b565b600090505b92915050565b6000808360010160008481526020019081526020016000205490506000811461124d57600060018203905060006001866000018054905003905060008660000182815481106111bc57fe5b90600052602060002001549050808760000184815481106111d957fe5b906000526020600020018190555060018301876001016000838152602001908152602001600020819055508660000180548061121157fe5b60019003818190600052602060002001600090559055866001016000878152602001908152602001600020600090556001945050505050611253565b60009150505b9291505056fe456e756d657261626c655365743a20696e646578206f7574206f6620626f756e6473416363657373436f6e74726f6c3a2073656e646572206d75737420626520616e2061646d696e20746f206772616e74416363657373436f6e74726f6c3a2073656e646572206d75737420626520616e2061646d696e20746f207265766f6b65416363657373436f6e74726f6c3a2063616e206f6e6c792072656e6f756e636520726f6c657320666f722073656c66a2646970667358221220098a371e6dfd612960a1f69760110746f6bf4c71cbf6dec8581ec13e0b982a0c64736f6c63430006060033",
  "immutableReferences": {},
  "source": "pragma solidity \"0.6.6\";\n\nimport { IERC20 } from \"@openzeppelin/contracts/token/ERC20/IERC20.sol\";\nimport { AccessControl } from \"@openzeppelin/contracts/access/AccessControl.sol\";\nimport { IChildChainManager } from \"./IChildChainManager.sol\";\nimport { IChildToken } from \"./IChildToken.sol\";\n\ncontract ChildChainManager is IChildChainManager, AccessControl {\n  bytes32 public constant MAPPER_ROLE = keccak256(\"MAPPER_ROLE\");\n  bytes32 public constant STATE_SYNCER_ROLE = keccak256(\"STATE_SYNCER_ROLE\");\n\n  mapping(address => address) private _rootToChildToken;\n  mapping(address => address) private _childToRootToken;\n\n  constructor() public {\n    _setupRole(DEFAULT_ADMIN_ROLE, msg.sender);\n    _setupRole(MAPPER_ROLE, msg.sender);\n    _setupRole(STATE_SYNCER_ROLE, msg.sender);\n  }\n\n  modifier only(bytes32 role) {\n    require(\n      hasRole(role, msg.sender),\n      \"Insufficient permissions\"\n    );\n    _;\n  }\n\n  function rootToChildToken(address rootToken) public view returns (address) {\n    return _rootToChildToken[rootToken];\n  }\n\n  function childToRootToken(address childToken) public view returns (address) {\n    return _childToRootToken[childToken];\n  }\n\n  function mapToken(address rootToken, address childToken) override external only(MAPPER_ROLE) {\n    _rootToChildToken[rootToken] = childToken;\n    _childToRootToken[childToken] = rootToken;\n    emit TokenMapped(rootToken, childToken);\n  }\n\n  function onStateReceive(uint256 id, bytes calldata data) override external only(STATE_SYNCER_ROLE) {\n    (address user, address rootToken, uint256 amount) = abi.decode(data, (address, address, uint256));\n    address childTokenAddress = _rootToChildToken[rootToken];\n    require(\n      childTokenAddress != address(0x0),\n      \"Token not mapped\"\n    );\n    IChildToken childTokenContract = IChildToken(childTokenAddress);\n    childTokenContract.deposit(user, amount);\n    emit Deposited(user, childTokenAddress, amount);\n  }\n}\n",
  "sourcePath": "/Users/arth/Documents/Projects/pos-portal/contracts/child/ChildChainManager.sol",
  "compiler": {
    "name": "solc",
    "version": "0.6.6+commit.6c089d02.Emscripten.clang"
  },
  "schemaVersion": "3.1.0",
  "updatedAt": "2020-05-08T08:37:20.994Z",
  "networkType": "ethereum",
  "devdoc": {
    "methods": {
      "getRoleAdmin(bytes32)": {
        "details": "Returns the admin role that controls `role`. See {grantRole} and {revokeRole}.     * To change a role's admin, use {_setRoleAdmin}."
      },
      "getRoleMember(bytes32,uint256)": {
        "details": "Returns one of the accounts that have `role`. `index` must be a value between 0 and {getRoleMemberCount}, non-inclusive.     * Role bearers are not sorted in any particular way, and their ordering may change at any point.     * WARNING: When using {getRoleMember} and {getRoleMemberCount}, make sure you perform all queries on the same block. See the following https://forum.openzeppelin.com/t/iterating-over-elements-on-enumerableset-in-openzeppelin-contracts/2296[forum post] for more information."
      },
      "getRoleMemberCount(bytes32)": {
        "details": "Returns the number of accounts that have `role`. Can be used together with {getRoleMember} to enumerate all bearers of a role."
      },
      "grantRole(bytes32,address)": {
        "details": "Grants `role` to `account`.     * If `account` had not been already granted `role`, emits a {RoleGranted} event.     * Requirements:     * - the caller must have ``role``'s admin role."
      },
      "hasRole(bytes32,address)": {
        "details": "Returns `true` if `account` has been granted `role`."
      },
      "renounceRole(bytes32,address)": {
        "details": "Revokes `role` from the calling account.     * Roles are often managed via {grantRole} and {revokeRole}: this function's purpose is to provide a mechanism for accounts to lose their privileges if they are compromised (such as when a trusted device is misplaced).     * If the calling account had been granted `role`, emits a {RoleRevoked} event.     * Requirements:     * - the caller must be `account`."
      },
      "revokeRole(bytes32,address)": {
        "details": "Revokes `role` from `account`.     * If `account` had been granted `role`, emits a {RoleRevoked} event.     * Requirements:     * - the caller must have ``role``'s admin role."
      }
    }
  },
  "userdoc": {
    "methods": {}
  }
}