{
  "contractName": "ChildChainManager",
  "abi": [
    {
      "anonymous": false,
      "inputs": [
        {
          "indexed": true,
          "internalType": "bytes32",
          "name": "role",
          "type": "bytes32"
        },
        {
          "indexed": true,
          "internalType": "bytes32",
          "name": "previousAdminRole",
          "type": "bytes32"
        },
        {
          "indexed": true,
          "internalType": "bytes32",
          "name": "newAdminRole",
          "type": "bytes32"
        }
      ],
      "name": "RoleAdminChanged",
      "type": "event"
    },
    {
      "anonymous": false,
      "inputs": [
        {
          "indexed": true,
          "internalType": "bytes32",
          "name": "role",
          "type": "bytes32"
        },
        {
          "indexed": true,
          "internalType": "address",
          "name": "account",
          "type": "address"
        },
        {
          "indexed": true,
          "internalType": "address",
          "name": "sender",
          "type": "address"
        }
      ],
      "name": "RoleGranted",
      "type": "event"
    },
    {
      "anonymous": false,
      "inputs": [
        {
          "indexed": true,
          "internalType": "bytes32",
          "name": "role",
          "type": "bytes32"
        },
        {
          "indexed": true,
          "internalType": "address",
          "name": "account",
          "type": "address"
        },
        {
          "indexed": true,
          "internalType": "address",
          "name": "sender",
          "type": "address"
        }
      ],
      "name": "RoleRevoked",
      "type": "event"
    },
    {
      "anonymous": false,
      "inputs": [
        {
          "indexed": true,
          "internalType": "address",
          "name": "rootToken",
          "type": "address"
        },
        {
          "indexed": true,
          "internalType": "address",
          "name": "childToken",
          "type": "address"
        }
      ],
      "name": "TokenMapped",
      "type": "event"
    },
    {
      "inputs": [],
      "name": "DEFAULT_ADMIN_ROLE",
      "outputs": [
        {
          "internalType": "bytes32",
          "name": "",
          "type": "bytes32"
        }
      ],
      "stateMutability": "view",
      "type": "function",
      "constant": true
    },
    {
      "inputs": [],
      "name": "DEPOSIT",
      "outputs": [
        {
          "internalType": "bytes32",
          "name": "",
          "type": "bytes32"
        }
      ],
      "stateMutability": "view",
      "type": "function",
      "constant": true
    },
    {
      "inputs": [],
      "name": "MAPPER_ROLE",
      "outputs": [
        {
          "internalType": "bytes32",
          "name": "",
          "type": "bytes32"
        }
      ],
      "stateMutability": "view",
      "type": "function",
      "constant": true
    },
    {
      "inputs": [],
      "name": "MAP_TOKEN",
      "outputs": [
        {
          "internalType": "bytes32",
          "name": "",
          "type": "bytes32"
        }
      ],
      "stateMutability": "view",
      "type": "function",
      "constant": true
    },
    {
      "inputs": [],
      "name": "STATE_SYNCER_ROLE",
      "outputs": [
        {
          "internalType": "bytes32",
          "name": "",
          "type": "bytes32"
        }
      ],
      "stateMutability": "view",
      "type": "function",
      "constant": true
    },
    {
      "inputs": [
        {
          "internalType": "address",
          "name": "",
          "type": "address"
        }
      ],
      "name": "childToRootToken",
      "outputs": [
        {
          "internalType": "address",
          "name": "",
          "type": "address"
        }
      ],
      "stateMutability": "view",
      "type": "function",
      "constant": true
    },
    {
      "inputs": [
        {
          "internalType": "bytes32",
          "name": "role",
          "type": "bytes32"
        }
      ],
      "name": "getRoleAdmin",
      "outputs": [
        {
          "internalType": "bytes32",
          "name": "",
          "type": "bytes32"
        }
      ],
      "stateMutability": "view",
      "type": "function",
      "constant": true
    },
    {
      "inputs": [
        {
          "internalType": "bytes32",
          "name": "role",
          "type": "bytes32"
        },
        {
          "internalType": "uint256",
          "name": "index",
          "type": "uint256"
        }
      ],
      "name": "getRoleMember",
      "outputs": [
        {
          "internalType": "address",
          "name": "",
          "type": "address"
        }
      ],
      "stateMutability": "view",
      "type": "function",
      "constant": true
    },
    {
      "inputs": [
        {
          "internalType": "bytes32",
          "name": "role",
          "type": "bytes32"
        }
      ],
      "name": "getRoleMemberCount",
      "outputs": [
        {
          "internalType": "uint256",
          "name": "",
          "type": "uint256"
        }
      ],
      "stateMutability": "view",
      "type": "function",
      "constant": true
    },
    {
      "inputs": [
        {
          "internalType": "bytes32",
          "name": "role",
          "type": "bytes32"
        },
        {
          "internalType": "address",
          "name": "account",
          "type": "address"
        }
      ],
      "name": "grantRole",
      "outputs": [],
      "stateMutability": "nonpayable",
      "type": "function"
    },
    {
      "inputs": [
        {
          "internalType": "bytes32",
          "name": "role",
          "type": "bytes32"
        },
        {
          "internalType": "address",
          "name": "account",
          "type": "address"
        }
      ],
      "name": "hasRole",
      "outputs": [
        {
          "internalType": "bool",
          "name": "",
          "type": "bool"
        }
      ],
      "stateMutability": "view",
      "type": "function",
      "constant": true
    },
    {
      "inputs": [
        {
          "internalType": "bytes32",
          "name": "role",
          "type": "bytes32"
        },
        {
          "internalType": "address",
          "name": "account",
          "type": "address"
        }
      ],
      "name": "renounceRole",
      "outputs": [],
      "stateMutability": "nonpayable",
      "type": "function"
    },
    {
      "inputs": [
        {
          "internalType": "bytes32",
          "name": "role",
          "type": "bytes32"
        },
        {
          "internalType": "address",
          "name": "account",
          "type": "address"
        }
      ],
      "name": "revokeRole",
      "outputs": [],
      "stateMutability": "nonpayable",
      "type": "function"
    },
    {
      "inputs": [
        {
          "internalType": "address",
          "name": "",
          "type": "address"
        }
      ],
      "name": "rootToChildToken",
      "outputs": [
        {
          "internalType": "address",
          "name": "",
          "type": "address"
        }
      ],
      "stateMutability": "view",
      "type": "function",
      "constant": true
    },
    {
      "inputs": [
        {
          "internalType": "address",
          "name": "_owner",
          "type": "address"
        }
      ],
      "name": "initialize",
      "outputs": [],
      "stateMutability": "nonpayable",
      "type": "function"
    },
    {
      "inputs": [
        {
          "internalType": "address",
          "name": "rootToken",
          "type": "address"
        },
        {
          "internalType": "address",
          "name": "childToken",
          "type": "address"
        }
      ],
      "name": "mapToken",
      "outputs": [],
      "stateMutability": "nonpayable",
      "type": "function"
    },
    {
      "inputs": [
        {
          "internalType": "uint256",
          "name": "",
          "type": "uint256"
        },
        {
          "internalType": "bytes",
          "name": "data",
          "type": "bytes"
        }
      ],
      "name": "onStateReceive",
      "outputs": [],
      "stateMutability": "nonpayable",
      "type": "function"
    }
  ],
  "bytecode": "0x608060405260008060006101000a81548160ff02191690831515021790555034801561002a57600080fd5b506117638061003a6000396000f3fe608060405234801561001057600080fd5b506004361061010b5760003560e01c8063886a69ba116100a2578063c4d66de811610071578063c4d66de8146104af578063ca15c873146104f3578063d547741f14610535578063d81c8e5214610583578063ea60c7c4146105a15761010b565b8063886a69ba146103955780639010d07c146103b357806391d148541461042b578063a217fddf146104915761010b565b806347400269116100de57806347400269146102715780634dee4498146102d5578063568b80b5146102f35780636e86b770146103115761010b565b8063248a9ca31461011057806326c53bea146101525780632f2ff15d146101d557806336568abe14610223575b600080fd5b61013c6004803603602081101561012657600080fd5b8101908080359060200190929190505050610625565b6040518082815260200191505060405180910390f35b6101d36004803603604081101561016857600080fd5b81019080803590602001909291908035906020019064010000000081111561018f57600080fd5b8201836020820111156101a157600080fd5b803590602001918460018302840111640100000000831117156101c357600080fd5b9091929391929390505050610645565b005b610221600480360360408110156101eb57600080fd5b8101908080359060200190929190803573ffffffffffffffffffffffffffffffffffffffff169060200190929190505050610881565b005b61026f6004803603604081101561023957600080fd5b8101908080359060200190929190803573ffffffffffffffffffffffffffffffffffffffff16906020019092919050505061090b565b005b6102d36004803603604081101561028757600080fd5b81019080803573ffffffffffffffffffffffffffffffffffffffff169060200190929190803573ffffffffffffffffffffffffffffffffffffffff1690602001909291905050506109a4565b005b6102dd610a4f565b6040518082815260200191505060405180910390f35b6102fb610a88565b6040518082815260200191505060405180910390f35b6103536004803603602081101561032757600080fd5b81019080803573ffffffffffffffffffffffffffffffffffffffff169060200190929190505050610ac1565b604051808273ffffffffffffffffffffffffffffffffffffffff1673ffffffffffffffffffffffffffffffffffffffff16815260200191505060405180910390f35b61039d610af4565b6040518082815260200191505060405180910390f35b6103e9600480360360408110156103c957600080fd5b810190808035906020019092919080359060200190929190505050610b2d565b604051808273ffffffffffffffffffffffffffffffffffffffff1673ffffffffffffffffffffffffffffffffffffffff16815260200191505060405180910390f35b6104776004803603604081101561044157600080fd5b8101908080359060200190929190803573ffffffffffffffffffffffffffffffffffffffff169060200190929190505050610b5f565b604051808215151515815260200191505060405180910390f35b610499610b91565b6040518082815260200191505060405180910390f35b6104f1600480360360208110156104c557600080fd5b81019080803573ffffffffffffffffffffffffffffffffffffffff169060200190929190505050610b98565b005b61051f6004803603602081101561050957600080fd5b8101908080359060200190929190505050610cc2565b6040518082815260200191505060405180910390f35b6105816004803603604081101561054b57600080fd5b8101908080359060200190929190803573ffffffffffffffffffffffffffffffffffffffff169060200190929190505050610ce9565b005b61058b610d73565b6040518082815260200191505060405180910390f35b6105e3600480360360208110156105b757600080fd5b81019080803573ffffffffffffffffffffffffffffffffffffffff169060200190929190505050610dac565b604051808273ffffffffffffffffffffffffffffffffffffffff1673ffffffffffffffffffffffffffffffffffffffff16815260200191505060405180910390f35b600060016000838152602001908152602001600020600201549050919050565b60405180807f53544154455f53594e4345525f524f4c450000000000000000000000000000008152506011019050604051809103902061068c81610687610ddf565b610b5f565b6106e1576040517f08c379a000000000000000000000000000000000000000000000000000000000815260040180806020018281038252602b8152602001806116d4602b913960400191505060405180910390fd5b60006060848460408110156106f557600080fd5b81019080803590602001909291908035906020019064010000000081111561071c57600080fd5b82018360208201111561072e57600080fd5b8035906020019184600183028401116401000000008311171561075057600080fd5b91908080601f016020809104026020016040519081016040528093929190818152602001838380828437600081840152601f19601f8201169050808301925050505050505091929192905050509150915060405180807f4445504f53495400000000000000000000000000000000000000000000000000815250600701905060405180910390208214156107ec576107e781610de7565b610879565b60405180807f4d41505f544f4b454e0000000000000000000000000000000000000000000000815250600901905060405180910390208214156108785760008082806020019051606081101561084157600080fd5b81019080805190602001909291908051906020019092919080519060200190929190505050509150915061087582826110d1565b50505b5b505050505050565b6108a860016000848152602001908152602001600020600201546108a3610ddf565b610b5f565b6108fd576040517f08c379a000000000000000000000000000000000000000000000000000000000815260040180806020018281038252602f815260200180611652602f913960400191505060405180910390fd5b610907828261122b565b5050565b610913610ddf565b73ffffffffffffffffffffffffffffffffffffffff168173ffffffffffffffffffffffffffffffffffffffff1614610996576040517f08c379a000000000000000000000000000000000000000000000000000000000815260040180806020018281038252602f8152602001806116ff602f913960400191505060405180910390fd5b6109a082826112bf565b5050565b60405180807f4d41505045525f524f4c45000000000000000000000000000000000000000000815250600b01905060405180910390206109eb816109e6610ddf565b610b5f565b610a40576040517f08c379a000000000000000000000000000000000000000000000000000000000815260040180806020018281038252602b8152602001806116d4602b913960400191505060405180910390fd5b610a4a83836110d1565b505050565b60405180807f53544154455f53594e4345525f524f4c450000000000000000000000000000008152506011019050604051809103902081565b60405180807f4d41505045525f524f4c45000000000000000000000000000000000000000000815250600b019050604051809103902081565b60036020528060005260406000206000915054906101000a900473ffffffffffffffffffffffffffffffffffffffff1681565b60405180807f4d41505f544f4b454e00000000000000000000000000000000000000000000008152506009019050604051809103902081565b6000610b57826001600086815260200190815260200160002060000161135390919063ffffffff16565b905092915050565b6000610b89826001600086815260200190815260200160002060000161136d90919063ffffffff16565b905092915050565b6000801b81565b6000809054906101000a900460ff1615610c1a576040517f08c379a000000000000000000000000000000000000000000000000000000000815260040180806020018281038252600e8152602001807f616c726561647920696e6974656400000000000000000000000000000000000081525060200191505060405180910390fd5b60016000806101000a81548160ff021916908315150217905550610c416000801b8261139d565b610c8060405180807f4d41505045525f524f4c45000000000000000000000000000000000000000000815250600b01905060405180910390208261139d565b610cbf60405180807f53544154455f53594e4345525f524f4c45000000000000000000000000000000815250601101905060405180910390208261139d565b50565b6000610ce2600160008481526020019081526020016000206000016113ab565b9050919050565b610d106001600084815260200190815260200160002060020154610d0b610ddf565b610b5f565b610d65576040517f08c379a00000000000000000000000000000000000000000000000000000000081526004018080602001828103825260308152602001806116a46030913960400191505060405180910390fd5b610d6f82826112bf565b5050565b60405180807f4445504f534954000000000000000000000000000000000000000000000000008152506007019050604051809103902081565b60026020528060005260406000206000915054906101000a900473ffffffffffffffffffffffffffffffffffffffff1681565b600033905090565b6000806060838060200190516060811015610e0157600080fd5b81019080805190602001909291908051906020019092919080516040519392919084640100000000821115610e3557600080fd5b83820191506020820185811115610e4b57600080fd5b8251866001820283011164010000000082111715610e6857600080fd5b8083526020830192505050908051906020019080838360005b83811015610e9c578082015181840152602081019050610e81565b50505050905090810190601f168015610ec95780820380516001836020036101000a031916815260200191505b506040525050509250925092506000600260008473ffffffffffffffffffffffffffffffffffffffff1673ffffffffffffffffffffffffffffffffffffffff16815260200190815260200160002060009054906101000a900473ffffffffffffffffffffffffffffffffffffffff169050600073ffffffffffffffffffffffffffffffffffffffff168173ffffffffffffffffffffffffffffffffffffffff161415610fc0576040517f08c379a00000000000000000000000000000000000000000000000000000000081526004018080602001828103825260238152602001806116816023913960400191505060405180910390fd5b60008190508073ffffffffffffffffffffffffffffffffffffffff1663cf2c52cb86856040518363ffffffff1660e01b8152600401808373ffffffffffffffffffffffffffffffffffffffff1673ffffffffffffffffffffffffffffffffffffffff16815260200180602001828103825283818151815260200191508051906020019080838360005b83811015611064578082015181840152602081019050611049565b50505050905090810190601f1680156110915780820380516001836020036101000a031916815260200191505b509350505050600060405180830381600087803b1580156110b157600080fd5b505af11580156110c5573d6000803e3d6000fd5b50505050505050505050565b80600260008473ffffffffffffffffffffffffffffffffffffffff1673ffffffffffffffffffffffffffffffffffffffff16815260200190815260200160002060006101000a81548173ffffffffffffffffffffffffffffffffffffffff021916908373ffffffffffffffffffffffffffffffffffffffff16021790555081600360008373ffffffffffffffffffffffffffffffffffffffff1673ffffffffffffffffffffffffffffffffffffffff16815260200190815260200160002060006101000a81548173ffffffffffffffffffffffffffffffffffffffff021916908373ffffffffffffffffffffffffffffffffffffffff1602179055508073ffffffffffffffffffffffffffffffffffffffff168273ffffffffffffffffffffffffffffffffffffffff167f85920d35e6c72f6b2affffa04298b0cecfeba86e4a9f407df661f1cb8ab5e61760405160405180910390a35050565b61125381600160008581526020019081526020016000206000016113c090919063ffffffff16565b156112bb57611260610ddf565b73ffffffffffffffffffffffffffffffffffffffff168173ffffffffffffffffffffffffffffffffffffffff16837f2f8788117e7eff1d82e926ec794901d17c78024a50270940304540a733656f0d60405160405180910390a45b5050565b6112e781600160008581526020019081526020016000206000016113f090919063ffffffff16565b1561134f576112f4610ddf565b73ffffffffffffffffffffffffffffffffffffffff168173ffffffffffffffffffffffffffffffffffffffff16837ff6391f5c32d9c69d2a47ea670b442974b53935d1edc7fd64eb21e047a839171b60405160405180910390a45b5050565b60006113628360000183611420565b60001c905092915050565b6000611395836000018373ffffffffffffffffffffffffffffffffffffffff1660001b6114a3565b905092915050565b6113a7828261122b565b5050565b60006113b9826000016114c6565b9050919050565b60006113e8836000018373ffffffffffffffffffffffffffffffffffffffff1660001b6114d7565b905092915050565b6000611418836000018373ffffffffffffffffffffffffffffffffffffffff1660001b611547565b905092915050565b600081836000018054905011611481576040517f08c379a00000000000000000000000000000000000000000000000000000000081526004018080602001828103825260228152602001806116306022913960400191505060405180910390fd5b82600001828154811061149057fe5b9060005260206000200154905092915050565b600080836001016000848152602001908152602001600020541415905092915050565b600081600001805490509050919050565b60006114e383836114a3565b61153c578260000182908060018154018082558091505060019003906000526020600020016000909190919091505582600001805490508360010160008481526020019081526020016000208190555060019050611541565b600090505b92915050565b60008083600101600084815260200190815260200160002054905060008114611623576000600182039050600060018660000180549050039050600086600001828154811061159257fe5b90600052602060002001549050808760000184815481106115af57fe5b90600052602060002001819055506001830187600101600083815260200190815260200160002081905550866000018054806115e757fe5b60019003818190600052602060002001600090559055866001016000878152602001908152602001600020600090556001945050505050611629565b60009150505b9291505056fe456e756d657261626c655365743a20696e646578206f7574206f6620626f756e6473416363657373436f6e74726f6c3a2073656e646572206d75737420626520616e2061646d696e20746f206772616e744368696c64436861696e4d616e616765723a20544f4b454e5f4e4f545f4d4150504544416363657373436f6e74726f6c3a2073656e646572206d75737420626520616e2061646d696e20746f207265766f6b654368696c64436861696e4d616e616765723a20494e53554646494349454e545f5045524d495353494f4e53416363657373436f6e74726f6c3a2063616e206f6e6c792072656e6f756e636520726f6c657320666f722073656c66a2646970667358221220c00fe33163f8c22aa9beb56eabc513f27c785d781fc469982df8478f155179b364736f6c63430006060033",
  "immutableReferences": {},
  "source": "pragma solidity ^0.6.6;\n\nimport {IERC20} from \"@openzeppelin/contracts/token/ERC20/IERC20.sol\";\nimport {IChildChainManager} from \"./IChildChainManager.sol\";\nimport {IChildToken} from \"../ChildToken/IChildToken.sol\";\nimport {Initializable} from \"../../common/Initializable.sol\";\nimport {AccessControl} from \"@openzeppelin/contracts/access/AccessControl.sol\";\n\ncontract ChildChainManager is IChildChainManager, Initializable, AccessControl {\n    bytes32 public constant DEPOSIT = keccak256(\"DEPOSIT\");\n    bytes32 public constant MAP_TOKEN = keccak256(\"MAP_TOKEN\");\n    bytes32 public constant MAPPER_ROLE = keccak256(\"MAPPER_ROLE\");\n    bytes32 public constant STATE_SYNCER_ROLE = keccak256(\"STATE_SYNCER_ROLE\");\n\n    mapping(address => address) public rootToChildToken;\n    mapping(address => address) public childToRootToken;\n\n    modifier only(bytes32 role) {\n        require(\n            hasRole(role, _msgSender()),\n            \"ChildChainManager: INSUFFICIENT_PERMISSIONS\"\n        );\n        _;\n    }\n\n    function initialize(address _owner) external initializer {\n        _setupRole(DEFAULT_ADMIN_ROLE, _owner);\n        _setupRole(MAPPER_ROLE, _owner);\n        _setupRole(STATE_SYNCER_ROLE, _owner);\n    }\n\n    function mapToken(address rootToken, address childToken)\n        external\n        override\n        only(MAPPER_ROLE)\n    {\n        _mapToken(rootToken, childToken);\n    }\n\n    function onStateReceive(uint256, bytes calldata data)\n        external\n        override\n        only(STATE_SYNCER_ROLE)\n    {\n        (bytes32 syncType, bytes memory syncData) = abi.decode(\n            data,\n            (bytes32, bytes)\n        );\n\n        if (syncType == DEPOSIT) {\n            _syncDeposit(syncData);\n        } else if (syncType == MAP_TOKEN) {\n            (address rootToken, address childToken, ) = abi.decode(\n                syncData,\n                (address, address, bytes32)\n            );\n            _mapToken(rootToken, childToken);\n        }\n    }\n\n    function _syncDeposit(bytes memory syncData) private {\n        (address user, address rootToken, bytes memory depositData) = abi\n            .decode(syncData, (address, address, bytes));\n        address childTokenAddress = rootToChildToken[rootToken];\n        require(\n            childTokenAddress != address(0x0),\n            \"ChildChainManager: TOKEN_NOT_MAPPED\"\n        );\n        IChildToken childTokenContract = IChildToken(childTokenAddress);\n        childTokenContract.deposit(user, depositData);\n    }\n\n    function _mapToken(address rootToken, address childToken) private {\n        rootToChildToken[rootToken] = childToken;\n        childToRootToken[childToken] = rootToken;\n        emit TokenMapped(rootToken, childToken);\n    }\n}\n",
  "sourcePath": "/Users/arth/Documents/Projects/pos-portal/contracts/child/ChildChainManager/ChildChainManager.sol",
  "compiler": {
    "name": "solc",
    "version": "0.6.6+commit.6c089d02.Linux.g++"
  },
  "schemaVersion": "3.2.0",
  "updatedAt": "2020-06-26T07:17:13.934Z",
  "networkType": "ethereum",
  "devdoc": {
    "methods": {
      "getRoleAdmin(bytes32)": {
        "details": "Returns the admin role that controls `role`. See {grantRole} and {revokeRole}.     * To change a role's admin, use {_setRoleAdmin}."
      },
      "getRoleMember(bytes32,uint256)": {
        "details": "Returns one of the accounts that have `role`. `index` must be a value between 0 and {getRoleMemberCount}, non-inclusive.     * Role bearers are not sorted in any particular way, and their ordering may change at any point.     * WARNING: When using {getRoleMember} and {getRoleMemberCount}, make sure you perform all queries on the same block. See the following https://forum.openzeppelin.com/t/iterating-over-elements-on-enumerableset-in-openzeppelin-contracts/2296[forum post] for more information."
      },
      "getRoleMemberCount(bytes32)": {
        "details": "Returns the number of accounts that have `role`. Can be used together with {getRoleMember} to enumerate all bearers of a role."
      },
      "grantRole(bytes32,address)": {
        "details": "Grants `role` to `account`.     * If `account` had not been already granted `role`, emits a {RoleGranted} event.     * Requirements:     * - the caller must have ``role``'s admin role."
      },
      "hasRole(bytes32,address)": {
        "details": "Returns `true` if `account` has been granted `role`."
      },
      "renounceRole(bytes32,address)": {
        "details": "Revokes `role` from the calling account.     * Roles are often managed via {grantRole} and {revokeRole}: this function's purpose is to provide a mechanism for accounts to lose their privileges if they are compromised (such as when a trusted device is misplaced).     * If the calling account had been granted `role`, emits a {RoleRevoked} event.     * Requirements:     * - the caller must be `account`."
      },
      "revokeRole(bytes32,address)": {
        "details": "Revokes `role` from `account`.     * If `account` had been granted `role`, emits a {RoleRevoked} event.     * Requirements:     * - the caller must have ``role``'s admin role."
      }
    }
  },
  "userdoc": {
    "methods": {}
  }
}