{
  "contractName": "RootChainManager",
  "abi": [
    {
      "inputs": [],
      "stateMutability": "nonpayable",
      "type": "constructor"
    },
    {
      "anonymous": false,
      "inputs": [
        {
          "indexed": true,
          "internalType": "address",
          "name": "user",
          "type": "address"
        },
        {
          "indexed": true,
          "internalType": "address",
          "name": "rootToken",
          "type": "address"
        },
        {
          "indexed": true,
          "internalType": "uint256",
          "name": "amount",
          "type": "uint256"
        }
      ],
      "name": "Exited",
      "type": "event"
    },
    {
      "anonymous": false,
      "inputs": [
        {
          "indexed": true,
          "internalType": "address",
          "name": "user",
          "type": "address"
        },
        {
          "indexed": true,
          "internalType": "address",
          "name": "rootToken",
          "type": "address"
        },
        {
          "indexed": true,
          "internalType": "uint256",
          "name": "amount",
          "type": "uint256"
        }
      ],
      "name": "Locked",
      "type": "event"
    },
    {
      "anonymous": false,
      "inputs": [
        {
          "indexed": true,
          "internalType": "bytes32",
          "name": "role",
          "type": "bytes32"
        },
        {
          "indexed": true,
          "internalType": "address",
          "name": "account",
          "type": "address"
        },
        {
          "indexed": true,
          "internalType": "address",
          "name": "sender",
          "type": "address"
        }
      ],
      "name": "RoleGranted",
      "type": "event"
    },
    {
      "anonymous": false,
      "inputs": [
        {
          "indexed": true,
          "internalType": "bytes32",
          "name": "role",
          "type": "bytes32"
        },
        {
          "indexed": true,
          "internalType": "address",
          "name": "account",
          "type": "address"
        },
        {
          "indexed": true,
          "internalType": "address",
          "name": "sender",
          "type": "address"
        }
      ],
      "name": "RoleRevoked",
      "type": "event"
    },
    {
      "anonymous": false,
      "inputs": [
        {
          "indexed": true,
          "internalType": "address",
          "name": "rootToken",
          "type": "address"
        },
        {
          "indexed": true,
          "internalType": "address",
          "name": "childToken",
          "type": "address"
        }
      ],
      "name": "TokenMapped",
      "type": "event"
    },
    {
      "inputs": [],
      "name": "DEFAULT_ADMIN_ROLE",
      "outputs": [
        {
          "internalType": "bytes32",
          "name": "",
          "type": "bytes32"
        }
      ],
      "stateMutability": "view",
      "type": "function",
      "constant": true
    },
    {
      "inputs": [],
      "name": "MAPPER_ROLE",
      "outputs": [
        {
          "internalType": "bytes32",
          "name": "",
          "type": "bytes32"
        }
      ],
      "stateMutability": "view",
      "type": "function",
      "constant": true
    },
    {
      "inputs": [
        {
          "internalType": "bytes32",
          "name": "role",
          "type": "bytes32"
        }
      ],
      "name": "getRoleAdmin",
      "outputs": [
        {
          "internalType": "bytes32",
          "name": "",
          "type": "bytes32"
        }
      ],
      "stateMutability": "view",
      "type": "function",
      "constant": true
    },
    {
      "inputs": [
        {
          "internalType": "bytes32",
          "name": "role",
          "type": "bytes32"
        },
        {
          "internalType": "uint256",
          "name": "index",
          "type": "uint256"
        }
      ],
      "name": "getRoleMember",
      "outputs": [
        {
          "internalType": "address",
          "name": "",
          "type": "address"
        }
      ],
      "stateMutability": "view",
      "type": "function",
      "constant": true
    },
    {
      "inputs": [
        {
          "internalType": "bytes32",
          "name": "role",
          "type": "bytes32"
        }
      ],
      "name": "getRoleMemberCount",
      "outputs": [
        {
          "internalType": "uint256",
          "name": "",
          "type": "uint256"
        }
      ],
      "stateMutability": "view",
      "type": "function",
      "constant": true
    },
    {
      "inputs": [
        {
          "internalType": "bytes32",
          "name": "role",
          "type": "bytes32"
        },
        {
          "internalType": "address",
          "name": "account",
          "type": "address"
        }
      ],
      "name": "grantRole",
      "outputs": [],
      "stateMutability": "nonpayable",
      "type": "function"
    },
    {
      "inputs": [
        {
          "internalType": "bytes32",
          "name": "role",
          "type": "bytes32"
        },
        {
          "internalType": "address",
          "name": "account",
          "type": "address"
        }
      ],
      "name": "hasRole",
      "outputs": [
        {
          "internalType": "bool",
          "name": "",
          "type": "bool"
        }
      ],
      "stateMutability": "view",
      "type": "function",
      "constant": true
    },
    {
      "inputs": [
        {
          "internalType": "bytes32",
          "name": "role",
          "type": "bytes32"
        },
        {
          "internalType": "address",
          "name": "account",
          "type": "address"
        }
      ],
      "name": "renounceRole",
      "outputs": [],
      "stateMutability": "nonpayable",
      "type": "function"
    },
    {
      "inputs": [
        {
          "internalType": "bytes32",
          "name": "role",
          "type": "bytes32"
        },
        {
          "internalType": "address",
          "name": "account",
          "type": "address"
        }
      ],
      "name": "revokeRole",
      "outputs": [],
      "stateMutability": "nonpayable",
      "type": "function"
    },
    {
      "stateMutability": "payable",
      "type": "receive",
      "payable": true
    },
    {
      "inputs": [
        {
          "internalType": "address",
          "name": "newStateSender",
          "type": "address"
        }
      ],
      "name": "setStateSender",
      "outputs": [],
      "stateMutability": "nonpayable",
      "type": "function"
    },
    {
      "inputs": [],
      "name": "stateSenderAddress",
      "outputs": [
        {
          "internalType": "address",
          "name": "",
          "type": "address"
        }
      ],
      "stateMutability": "view",
      "type": "function",
      "constant": true
    },
    {
      "inputs": [
        {
          "internalType": "address",
          "name": "newCheckpointManager",
          "type": "address"
        }
      ],
      "name": "setCheckpointManager",
      "outputs": [],
      "stateMutability": "nonpayable",
      "type": "function"
    },
    {
      "inputs": [],
      "name": "checkpointManagerAddress",
      "outputs": [
        {
          "internalType": "address",
          "name": "",
          "type": "address"
        }
      ],
      "stateMutability": "view",
      "type": "function",
      "constant": true
    },
    {
      "inputs": [
        {
          "internalType": "address",
          "name": "newChildChainManager",
          "type": "address"
        }
      ],
      "name": "setChildChainManagerAddress",
      "outputs": [],
      "stateMutability": "nonpayable",
      "type": "function"
    },
    {
      "inputs": [],
      "name": "childChainManagerAddress",
      "outputs": [
        {
          "internalType": "address",
          "name": "",
          "type": "address"
        }
      ],
      "stateMutability": "view",
      "type": "function",
      "constant": true
    },
    {
      "inputs": [
        {
          "internalType": "address payable",
          "name": "newWETHAddress",
          "type": "address"
        }
      ],
      "name": "setWETH",
      "outputs": [],
      "stateMutability": "nonpayable",
      "type": "function"
    },
    {
      "inputs": [],
      "name": "WETHAddress",
      "outputs": [
        {
          "internalType": "address",
          "name": "",
          "type": "address"
        }
      ],
      "stateMutability": "view",
      "type": "function",
      "constant": true
    },
    {
      "inputs": [
        {
          "internalType": "address",
          "name": "rootToken",
          "type": "address"
        },
        {
          "internalType": "address",
          "name": "childToken",
          "type": "address"
        }
      ],
      "name": "mapToken",
      "outputs": [],
      "stateMutability": "nonpayable",
      "type": "function"
    },
    {
      "inputs": [
        {
          "internalType": "address",
          "name": "rootToken",
          "type": "address"
        }
      ],
      "name": "rootToChildToken",
      "outputs": [
        {
          "internalType": "address",
          "name": "",
          "type": "address"
        }
      ],
      "stateMutability": "view",
      "type": "function",
      "constant": true
    },
    {
      "inputs": [
        {
          "internalType": "address",
          "name": "childToken",
          "type": "address"
        }
      ],
      "name": "childToRootToken",
      "outputs": [
        {
          "internalType": "address",
          "name": "",
          "type": "address"
        }
      ],
      "stateMutability": "view",
      "type": "function",
      "constant": true
    },
    {
      "inputs": [
        {
          "internalType": "bytes32",
          "name": "exitHash",
          "type": "bytes32"
        }
      ],
      "name": "processedExits",
      "outputs": [
        {
          "internalType": "bool",
          "name": "",
          "type": "bool"
        }
      ],
      "stateMutability": "view",
      "type": "function",
      "constant": true
    },
    {
      "inputs": [],
      "name": "depositEther",
      "outputs": [],
      "stateMutability": "payable",
      "type": "function",
      "payable": true
    },
    {
      "inputs": [
        {
          "internalType": "address",
          "name": "user",
          "type": "address"
        }
      ],
      "name": "depositEtherFor",
      "outputs": [],
      "stateMutability": "payable",
      "type": "function",
      "payable": true
    },
    {
      "inputs": [
        {
          "internalType": "address",
          "name": "rootToken",
          "type": "address"
        },
        {
          "internalType": "uint256",
          "name": "amount",
          "type": "uint256"
        }
      ],
      "name": "deposit",
      "outputs": [],
      "stateMutability": "nonpayable",
      "type": "function"
    },
    {
      "inputs": [
        {
          "internalType": "address",
          "name": "user",
          "type": "address"
        },
        {
          "internalType": "address",
          "name": "rootToken",
          "type": "address"
        },
        {
          "internalType": "uint256",
          "name": "amount",
          "type": "uint256"
        }
      ],
      "name": "depositFor",
      "outputs": [],
      "stateMutability": "nonpayable",
      "type": "function"
    },
    {
      "inputs": [
        {
          "internalType": "bytes",
          "name": "inputData",
          "type": "bytes"
        }
      ],
      "name": "exit",
      "outputs": [],
      "stateMutability": "nonpayable",
      "type": "function"
    }
  ],
  "bytecode": "0x60806040523480156200001157600080fd5b50620000366000801b6200002a6200009260201b60201c565b6200009a60201b60201c565b6200008c60405180807f4d41505045525f524f4c45000000000000000000000000000000000000000000815250600b0190506040518091039020620000806200009260201b60201c565b6200009a60201b60201c565b62000228565b600033905090565b620000ac8282620000b060201b60201c565b5050565b620000de816000808581526020019081526020016000206000016200015360201b620036671790919060201c565b156200014f57620000f46200009260201b60201c565b73ffffffffffffffffffffffffffffffffffffffff168173ffffffffffffffffffffffffffffffffffffffff16837f2f8788117e7eff1d82e926ec794901d17c78024a50270940304540a733656f0d60405160405180910390a45b5050565b600062000183836000018373ffffffffffffffffffffffffffffffffffffffff1660001b6200018b60201b60201c565b905092915050565b60006200019f83836200020560201b60201c565b620001fa578260000182908060018154018082558091505060019003906000526020600020016000909190919091505582600001805490508360010160008481526020019081526020016000208190555060019050620001ff565b600090505b92915050565b600080836001016000848152602001908152602001600020541415905092915050565b61408980620002386000396000f3fe6080604052600436106101855760003560e01c80636cb136b0116100d1578063b3db428b1161008a578063d547741f11610064578063d547741f14610932578063dc993a231461098d578063e2c49de1146109de578063ea60c7c414610a3557610194565b8063b3db428b14610817578063bc08452b14610892578063ca15c873146108e357610194565b80636cb136b0146106085780636e86b770146106595780639010d07c146106ea57806391d148541461076f57806398ea5fca146107e2578063a217fddf146107ec57610194565b80633805550f1161013e5780634faa8a26116101185780634faa8a26146104f5578063568b80b5146105395780635b769f3c14610564578063607f2d42146105b557610194565b80633805550f146103a3578063474002691461042957806347e7ef241461049a57610194565b806304967702146101995780630af88b24146101f0578063248a9ca3146102475780632f2ff15d146102965780633138b6f1146102f157806336568abe1461034857610194565b3661019457610192610ac6565b005b600080fd5b3480156101a557600080fd5b506101ae610c82565b604051808273ffffffffffffffffffffffffffffffffffffffff1673ffffffffffffffffffffffffffffffffffffffff16815260200191505060405180910390f35b3480156101fc57600080fd5b50610205610cac565b604051808273ffffffffffffffffffffffffffffffffffffffff1673ffffffffffffffffffffffffffffffffffffffff16815260200191505060405180910390f35b34801561025357600080fd5b506102806004803603602081101561026a57600080fd5b8101908080359060200190929190505050610cd6565b6040518082815260200191505060405180910390f35b3480156102a257600080fd5b506102ef600480360360408110156102b957600080fd5b8101908080359060200190929190803573ffffffffffffffffffffffffffffffffffffffff169060200190929190505050610cf5565b005b3480156102fd57600080fd5b50610306610d7e565b604051808273ffffffffffffffffffffffffffffffffffffffff1673ffffffffffffffffffffffffffffffffffffffff16815260200191505060405180910390f35b34801561035457600080fd5b506103a16004803603604081101561036b57600080fd5b8101908080359060200190929190803573ffffffffffffffffffffffffffffffffffffffff169060200190929190505050610da8565b005b3480156103af57600080fd5b50610427600480360360208110156103c657600080fd5b81019080803590602001906401000000008111156103e357600080fd5b8201836020820111156103f557600080fd5b8035906020019184600183028401116401000000008311171561041757600080fd5b9091929391929390505050610e41565b005b34801561043557600080fd5b506104986004803603604081101561044c57600080fd5b81019080803573ffffffffffffffffffffffffffffffffffffffff169060200190929190803573ffffffffffffffffffffffffffffffffffffffff169060200190929190505050611c68565b005b3480156104a657600080fd5b506104f3600480360360408110156104bd57600080fd5b81019080803573ffffffffffffffffffffffffffffffffffffffff16906020019092919080359060200190929190505050611e7c565b005b6105376004803603602081101561050b57600080fd5b81019080803573ffffffffffffffffffffffffffffffffffffffff169060200190929190505050611e92565b005b34801561054557600080fd5b5061054e612041565b6040518082815260200191505060405180910390f35b34801561057057600080fd5b506105b36004803603602081101561058757600080fd5b81019080803573ffffffffffffffffffffffffffffffffffffffff16906020019092919050505061207a565b005b3480156105c157600080fd5b506105ee600480360360208110156105d857600080fd5b8101908080359060200190929190505050612146565b604051808215151515815260200191505060405180910390f35b34801561061457600080fd5b506106576004803603602081101561062b57600080fd5b81019080803573ffffffffffffffffffffffffffffffffffffffff169060200190929190505050612170565b005b34801561066557600080fd5b506106a86004803603602081101561067c57600080fd5b81019080803573ffffffffffffffffffffffffffffffffffffffff16906020019092919050505061223c565b604051808273ffffffffffffffffffffffffffffffffffffffff1673ffffffffffffffffffffffffffffffffffffffff16815260200191505060405180910390f35b3480156106f657600080fd5b5061072d6004803603604081101561070d57600080fd5b8101908080359060200190929190803590602001909291905050506122a5565b604051808273ffffffffffffffffffffffffffffffffffffffff1673ffffffffffffffffffffffffffffffffffffffff16815260200191505060405180910390f35b34801561077b57600080fd5b506107c86004803603604081101561079257600080fd5b8101908080359060200190929190803573ffffffffffffffffffffffffffffffffffffffff1690602001909291905050506122d6565b604051808215151515815260200191505060405180910390f35b6107ea610ac6565b005b3480156107f857600080fd5b50610801612307565b6040518082815260200191505060405180910390f35b34801561082357600080fd5b506108906004803603606081101561083a57600080fd5b81019080803573ffffffffffffffffffffffffffffffffffffffff169060200190929190803573ffffffffffffffffffffffffffffffffffffffff1690602001909291908035906020019092919050505061230e565b005b34801561089e57600080fd5b506108e1600480360360208110156108b557600080fd5b81019080803573ffffffffffffffffffffffffffffffffffffffff16906020019092919050505061231e565b005b3480156108ef57600080fd5b5061091c6004803603602081101561090657600080fd5b81019080803590602001909291905050506123ea565b6040518082815260200191505060405180910390f35b34801561093e57600080fd5b5061098b6004803603604081101561095557600080fd5b8101908080359060200190929190803573ffffffffffffffffffffffffffffffffffffffff169060200190929190505050612410565b005b34801561099957600080fd5b506109dc600480360360208110156109b057600080fd5b81019080803573ffffffffffffffffffffffffffffffffffffffff169060200190929190505050612499565b005b3480156109ea57600080fd5b506109f3612565565b604051808273ffffffffffffffffffffffffffffffffffffffff1673ffffffffffffffffffffffffffffffffffffffff16815260200191505060405180910390f35b348015610a4157600080fd5b50610a8460048036036020811015610a5857600080fd5b81019080803573ffffffffffffffffffffffffffffffffffffffff16906020019092919050505061258f565b604051808273ffffffffffffffffffffffffffffffffffffffff1673ffffffffffffffffffffffffffffffffffffffff16815260200191505060405180910390f35b600073ffffffffffffffffffffffffffffffffffffffff16600360009054906101000a900473ffffffffffffffffffffffffffffffffffffffff1673ffffffffffffffffffffffffffffffffffffffff161415610b8b576040517f08c379a000000000000000000000000000000000000000000000000000000000815260040180806020018281038252600c8152602001807f57455448206e6f7420736574000000000000000000000000000000000000000081525060200191505060405180910390fd5b600360009054906101000a900473ffffffffffffffffffffffffffffffffffffffff1673ffffffffffffffffffffffffffffffffffffffff1663aa67c91934610bd26125f8565b6040518363ffffffff1660e01b8152600401808273ffffffffffffffffffffffffffffffffffffffff1673ffffffffffffffffffffffffffffffffffffffff1681526020019150506000604051808303818588803b158015610c3357600080fd5b505af1158015610c47573d6000803e3d6000fd5b5050505050610c80610c576125f8565b600360009054906101000a900473ffffffffffffffffffffffffffffffffffffffff1634612600565b565b6000600460009054906101000a900473ffffffffffffffffffffffffffffffffffffffff16905090565b6000600360009054906101000a900473ffffffffffffffffffffffffffffffffffffffff16905090565b6000806000838152602001908152602001600020600201549050919050565b610d1b60008084815260200190815260200160002060020154610d166125f8565b6122d6565b610d70576040517f08c379a000000000000000000000000000000000000000000000000000000000815260040180806020018281038252602f815260200180613f7a602f913960400191505060405180910390fd5b610d7a8282612d21565b5050565b6000600260009054906101000a900473ffffffffffffffffffffffffffffffffffffffff16905090565b610db06125f8565b73ffffffffffffffffffffffffffffffffffffffff168173ffffffffffffffffffffffffffffffffffffffff1614610e33576040517f08c379a000000000000000000000000000000000000000000000000000000000815260040180806020018281038252602f815260200180614025602f913960400191505060405180910390fd5b610e3d8282612db4565b5050565b6060610e98610e9384848080601f016020809104026020016040519081016040528093929190818152602001838380828437600081840152601f19601f82011690508083019250505050505050612e47565b612e75565b90506000151560076000610ebf84600281518110610eb257fe5b6020026020010151612f69565b610edc85600681518110610ecf57fe5b6020026020010151612f69565b610ef986600981518110610eec57fe5b6020026020010151612f69565b6040516020018084805190602001908083835b60208310610f2f5780518252602082019150602081019050602083039250610f0c565b6001836020036101000a03801982511681845116808217855250505050505090500183805190602001908083835b60208310610f805780518252602082019150602081019050602083039250610f5d565b6001836020036101000a03801982511681845116808217855250505050505090500182805190602001908083835b60208310610fd15780518252602082019150602081019050602083039250610fae565b6001836020036101000a038019825116818451168082178552505050505050905001935050505060405160208183030381529060405280519060200120815260200190815260200160002060009054906101000a900460ff1615151461109f576040517f08c379a00000000000000000000000000000000000000000000000000000000081526004018080602001828103825260168152602001807f4578697420616c72656164792070726f6365737365640000000000000000000081525060200191505060405180910390fd5b6001600760006110c2846002815181106110b557fe5b6020026020010151612f69565b6110df856006815181106110d257fe5b6020026020010151612f69565b6110fc866009815181106110ef57fe5b6020026020010151612f69565b6040516020018084805190602001908083835b60208310611132578051825260208201915060208101905060208303925061110f565b6001836020036101000a03801982511681845116808217855250505050505090500183805190602001908083835b602083106111835780518252602082019150602081019050602083039250611160565b6001836020036101000a03801982511681845116808217855250505050505090500182805190602001908083835b602083106111d457805182526020820191506020810190506020830392506111b1565b6001836020036101000a038019825116818451168082178552505050505050905001935050505060405160208183030381529060405280519060200120815260200190815260200160002060006101000a81548160ff02191690831515021790555060006112558260098151811061124857fe5b602002602001015161300c565b905060606112768360068151811061126957fe5b6020026020010151612f69565b9050606061128b61128683612e47565b612e75565b905060606112c76112af836003815181106112a257fe5b6020026020010151612e75565b85815181106112ba57fe5b6020026020010151612e75565b905060006112e8826000815181106112db57fe5b602002602001015161307d565b9050600073ffffffffffffffffffffffffffffffffffffffff16600660008373ffffffffffffffffffffffffffffffffffffffff1673ffffffffffffffffffffffffffffffffffffffff16815260200190815260200160002060009054906101000a900473ffffffffffffffffffffffffffffffffffffffff1673ffffffffffffffffffffffffffffffffffffffff1614156113ec576040517f08c379a00000000000000000000000000000000000000000000000000000000081526004018080602001828103825260108152602001807f546f6b656e206e6f74206d61707065640000000000000000000000000000000081525060200191505060405180910390fd5b606061140b836001815181106113fe57fe5b6020026020010151612e75565b90507fddf252ad1be2c89b69c2b068fc378daa952ba7f163c4a11628f55a4df523b3ef60001b61144e8260008151811061144157fe5b602002602001015161300c565b60001b146114c4576040517f08c379a000000000000000000000000000000000000000000000000000000000815260040180806020018281038252601e8152602001807f4e6f742061207472616e73666572206576656e74207369676e6174757265000081525060200191505060405180910390fd5b6114e1816001815181106114d457fe5b602002602001015161300c565b73ffffffffffffffffffffffffffffffffffffffff166114ff6125f8565b73ffffffffffffffffffffffffffffffffffffffff161461156b576040517f08c379a0000000000000000000000000000000000000000000000000000000008152600401808060200182810382526028815260200180613ffd6028913960400191505060405180910390fd5b600073ffffffffffffffffffffffffffffffffffffffff166115a08260028151811061159357fe5b602002602001015161300c565b73ffffffffffffffffffffffffffffffffffffffff1614611629576040517f08c379a00000000000000000000000000000000000000000000000000000000081526004018080602001828103825260108152602001807f4e6f742061206275726e206576656e740000000000000000000000000000000081525060200191505060405180910390fd5b60007fffffffffffffffffffffffffffffffffffffffffffffffffffffffff0000000061167961167461166f8b60088151811061166257fe5b6020026020010151612f69565b612e47565b61300c565b16146116ed576040517f08c379a000000000000000000000000000000000000000000000000000000000815260040180806020018281038252601d8152602001807f4272616e6368206d61736b2073686f756c64206265203332206269747300000081525060200191505060405180910390fd5b600061170c886000815181106116ff57fe5b602002602001015161300c565b905061178d61172e8960068151811061172157fe5b6020026020010151612f69565b61174b8a60088151811061173e57fe5b6020026020010151612f69565b6117688b60078151811061175b57fe5b6020026020010151612f69565b6117858c60058151811061177857fe5b602002602001015161300c565b60001b6130a0565b6117ff576040517f08c379a000000000000000000000000000000000000000000000000000000000815260040180806020018281038252601c8152602001807f496e76616c69642072656365697074206d65726b6c652070726f6f660000000081525060200191505060405180910390fd5b61189f61181f8960028151811061181257fe5b602002602001015161300c565b61183c8a60038151811061182f57fe5b602002602001015161300c565b6118598b60048151811061184c57fe5b602002602001015161300c565b60001b6118798c60058151811061186c57fe5b602002602001015161300c565b60001b8561189a8e60018151811061188d57fe5b6020026020010151612f69565b613376565b50600660008473ffffffffffffffffffffffffffffffffffffffff1673ffffffffffffffffffffffffffffffffffffffff16815260200190815260200160002060009054906101000a900473ffffffffffffffffffffffffffffffffffffffff1673ffffffffffffffffffffffffffffffffffffffff1663a9059cbb6119236125f8565b6119408760028151811061193357fe5b602002602001015161300c565b6040518363ffffffff1660e01b8152600401808373ffffffffffffffffffffffffffffffffffffffff1673ffffffffffffffffffffffffffffffffffffffff16815260200182815260200192505050602060405180830381600087803b1580156119a957600080fd5b505af11580156119bd573d6000803e3d6000fd5b505050506040513d60208110156119d357600080fd5b810190808051906020019092919050505050600360009054906101000a900473ffffffffffffffffffffffffffffffffffffffff1673ffffffffffffffffffffffffffffffffffffffff16600660008573ffffffffffffffffffffffffffffffffffffffff1673ffffffffffffffffffffffffffffffffffffffff16815260200190815260200160002060009054906101000a900473ffffffffffffffffffffffffffffffffffffffff1673ffffffffffffffffffffffffffffffffffffffff161415611b7f57600360009054906101000a900473ffffffffffffffffffffffffffffffffffffffff1673ffffffffffffffffffffffffffffffffffffffff16633576f6cc611af586600281518110611ae857fe5b602002602001015161300c565b611afd6125f8565b6040518363ffffffff1660e01b8152600401808381526020018273ffffffffffffffffffffffffffffffffffffffff1673ffffffffffffffffffffffffffffffffffffffff16815260200192505050600060405180830381600087803b158015611b6657600080fd5b505af1158015611b7a573d6000803e3d6000fd5b505050505b611b9c84600281518110611b8f57fe5b602002602001015161300c565b600660008573ffffffffffffffffffffffffffffffffffffffff1673ffffffffffffffffffffffffffffffffffffffff16815260200190815260200160002060009054906101000a900473ffffffffffffffffffffffffffffffffffffffff1673ffffffffffffffffffffffffffffffffffffffff16611c1a6125f8565b73ffffffffffffffffffffffffffffffffffffffff167f104ad9ab27213fcc307f2308fc015959def8986f04d9475d82c5f32ab9c8d83b60405160405180910390a450505050505050505050565b60405180807f4d41505045525f524f4c45000000000000000000000000000000000000000000815250600b0190506040518091039020611caf81611caa6125f8565b6122d6565b611d21576040517f08c379a00000000000000000000000000000000000000000000000000000000081526004018080602001828103825260188152602001807f496e73756666696369656e74207065726d697373696f6e73000000000000000081525060200191505060405180910390fd5b81600560008573ffffffffffffffffffffffffffffffffffffffff1673ffffffffffffffffffffffffffffffffffffffff16815260200190815260200160002060006101000a81548173ffffffffffffffffffffffffffffffffffffffff021916908373ffffffffffffffffffffffffffffffffffffffff16021790555082600660008473ffffffffffffffffffffffffffffffffffffffff1673ffffffffffffffffffffffffffffffffffffffff16815260200190815260200160002060006101000a81548173ffffffffffffffffffffffffffffffffffffffff021916908373ffffffffffffffffffffffffffffffffffffffff1602179055508173ffffffffffffffffffffffffffffffffffffffff168373ffffffffffffffffffffffffffffffffffffffff167f85920d35e6c72f6b2affffa04298b0cecfeba86e4a9f407df661f1cb8ab5e61760405160405180910390a3505050565b611e8e611e876125f8565b8383612600565b5050565b600073ffffffffffffffffffffffffffffffffffffffff16600360009054906101000a900473ffffffffffffffffffffffffffffffffffffffff1673ffffffffffffffffffffffffffffffffffffffff161415611f57576040517f08c379a000000000000000000000000000000000000000000000000000000000815260040180806020018281038252600c8152602001807f57455448206e6f7420736574000000000000000000000000000000000000000081525060200191505060405180910390fd5b600360009054906101000a900473ffffffffffffffffffffffffffffffffffffffff1673ffffffffffffffffffffffffffffffffffffffff1663aa67c91934836040518363ffffffff1660e01b8152600401808273ffffffffffffffffffffffffffffffffffffffff1673ffffffffffffffffffffffffffffffffffffffff1681526020019150506000604051808303818588803b158015611ff857600080fd5b505af115801561200c573d6000803e3d6000fd5b505050505061203e81600360009054906101000a900473ffffffffffffffffffffffffffffffffffffffff1634612600565b50565b60405180807f4d41505045525f524f4c45000000000000000000000000000000000000000000815250600b019050604051809103902081565b6000801b61208f8161208a6125f8565b6122d6565b612101576040517f08c379a00000000000000000000000000000000000000000000000000000000081526004018080602001828103825260188152602001807f496e73756666696369656e74207065726d697373696f6e73000000000000000081525060200191505060405180910390fd5b81600360006101000a81548173ffffffffffffffffffffffffffffffffffffffff021916908373ffffffffffffffffffffffffffffffffffffffff1602179055505050565b60006007600083815260200190815260200160002060009054906101000a900460ff169050919050565b6000801b612185816121806125f8565b6122d6565b6121f7576040517f08c379a00000000000000000000000000000000000000000000000000000000081526004018080602001828103825260188152602001807f496e73756666696369656e74207065726d697373696f6e73000000000000000081525060200191505060405180910390fd5b81600160006101000a81548173ffffffffffffffffffffffffffffffffffffffff021916908373ffffffffffffffffffffffffffffffffffffffff1602179055505050565b6000600660008373ffffffffffffffffffffffffffffffffffffffff1673ffffffffffffffffffffffffffffffffffffffff16815260200190815260200160002060009054906101000a900473ffffffffffffffffffffffffffffffffffffffff169050919050565b60006122ce8260008086815260200190815260200160002060000161360890919063ffffffff16565b905092915050565b60006122ff8260008086815260200190815260200160002060000161362290919063ffffffff16565b905092915050565b6000801b81565b612319838383612600565b505050565b6000801b6123338161232e6125f8565b6122d6565b6123a5576040517f08c379a00000000000000000000000000000000000000000000000000000000081526004018080602001828103825260188152602001807f496e73756666696369656e74207065726d697373696f6e73000000000000000081525060200191505060405180910390fd5b81600260006101000a81548173ffffffffffffffffffffffffffffffffffffffff021916908373ffffffffffffffffffffffffffffffffffffffff1602179055505050565b6000612409600080848152602001908152602001600020600001613652565b9050919050565b612436600080848152602001908152602001600020600201546124316125f8565b6122d6565b61248b576040517f08c379a0000000000000000000000000000000000000000000000000000000008152600401808060200182810382526030815260200180613fcd6030913960400191505060405180910390fd5b6124958282612db4565b5050565b6000801b6124ae816124a96125f8565b6122d6565b612520576040517f08c379a00000000000000000000000000000000000000000000000000000000081526004018080602001828103825260188152602001807f496e73756666696369656e74207065726d697373696f6e73000000000000000081525060200191505060405180910390fd5b81600460006101000a81548173ffffffffffffffffffffffffffffffffffffffff021916908373ffffffffffffffffffffffffffffffffffffffff1602179055505050565b6000600160009054906101000a900473ffffffffffffffffffffffffffffffffffffffff16905090565b6000600560008373ffffffffffffffffffffffffffffffffffffffff1673ffffffffffffffffffffffffffffffffffffffff16815260200190815260200160002060009054906101000a900473ffffffffffffffffffffffffffffffffffffffff169050919050565b600033905090565b600073ffffffffffffffffffffffffffffffffffffffff16600560008473ffffffffffffffffffffffffffffffffffffffff1673ffffffffffffffffffffffffffffffffffffffff16815260200190815260200160002060009054906101000a900473ffffffffffffffffffffffffffffffffffffffff1673ffffffffffffffffffffffffffffffffffffffff161415612702576040517f08c379a00000000000000000000000000000000000000000000000000000000081526004018080602001828103825260108152602001807f546f6b656e206e6f74206d61707065640000000000000000000000000000000081525060200191505060405180910390fd5b808273ffffffffffffffffffffffffffffffffffffffff1663dd62ed3e6127276125f8565b306040518363ffffffff1660e01b8152600401808373ffffffffffffffffffffffffffffffffffffffff1673ffffffffffffffffffffffffffffffffffffffff1681526020018273ffffffffffffffffffffffffffffffffffffffff1673ffffffffffffffffffffffffffffffffffffffff1681526020019250505060206040518083038186803b1580156127bb57600080fd5b505afa1580156127cf573d6000803e3d6000fd5b505050506040513d60208110156127e557600080fd5b8101908080519060200190929190505050101561286a576040517f08c379a000000000000000000000000000000000000000000000000000000000815260040180806020018281038252601b8152602001807f546f6b656e207472616e73666572206e6f7420617070726f766564000000000081525060200191505060405180910390fd5b600073ffffffffffffffffffffffffffffffffffffffff16600160009054906101000a900473ffffffffffffffffffffffffffffffffffffffff1673ffffffffffffffffffffffffffffffffffffffff16141561292f576040517f08c379a00000000000000000000000000000000000000000000000000000000081526004018080602001828103825260138152602001807f737461746553656e646572206e6f74207365740000000000000000000000000081525060200191505060405180910390fd5b600073ffffffffffffffffffffffffffffffffffffffff16600460009054906101000a900473ffffffffffffffffffffffffffffffffffffffff1673ffffffffffffffffffffffffffffffffffffffff1614156129f4576040517f08c379a00000000000000000000000000000000000000000000000000000000081526004018080602001828103825260198152602001807f6368696c64436861696e4d616e61676572206e6f74207365740000000000000081525060200191505060405180910390fd5b8173ffffffffffffffffffffffffffffffffffffffff166323b872dd612a186125f8565b30846040518463ffffffff1660e01b8152600401808473ffffffffffffffffffffffffffffffffffffffff1673ffffffffffffffffffffffffffffffffffffffff1681526020018373ffffffffffffffffffffffffffffffffffffffff1673ffffffffffffffffffffffffffffffffffffffff1681526020018281526020019350505050602060405180830381600087803b158015612ab657600080fd5b505af1158015612aca573d6000803e3d6000fd5b505050506040513d6020811015612ae057600080fd5b810190808051906020019092919050505050600160009054906101000a900473ffffffffffffffffffffffffffffffffffffffff1673ffffffffffffffffffffffffffffffffffffffff166316f19831600460009054906101000a900473ffffffffffffffffffffffffffffffffffffffff16858585604051602001808473ffffffffffffffffffffffffffffffffffffffff1673ffffffffffffffffffffffffffffffffffffffff1681526020018373ffffffffffffffffffffffffffffffffffffffff1673ffffffffffffffffffffffffffffffffffffffff16815260200182815260200193505050506040516020818303038152906040526040518363ffffffff1660e01b8152600401808373ffffffffffffffffffffffffffffffffffffffff1673ffffffffffffffffffffffffffffffffffffffff16815260200180602001828103825283818151815260200191508051906020019080838360005b83811015612c5c578082015181840152602081019050612c41565b50505050905090810190601f168015612c895780820380516001836020036101000a031916815260200191505b509350505050600060405180830381600087803b158015612ca957600080fd5b505af1158015612cbd573d6000803e3d6000fd5b50505050808273ffffffffffffffffffffffffffffffffffffffff168473ffffffffffffffffffffffffffffffffffffffff167f989eaa915cbb416ea3d6f9a63b1a3de51770c7674b11fe21ecdf76b4e1d1391060405160405180910390a4505050565b612d488160008085815260200190815260200160002060000161366790919063ffffffff16565b15612db057612d556125f8565b73ffffffffffffffffffffffffffffffffffffffff168173ffffffffffffffffffffffffffffffffffffffff16837f2f8788117e7eff1d82e926ec794901d17c78024a50270940304540a733656f0d60405160405180910390a45b5050565b612ddb8160008085815260200190815260200160002060000161369790919063ffffffff16565b15612e4357612de86125f8565b73ffffffffffffffffffffffffffffffffffffffff168173ffffffffffffffffffffffffffffffffffffffff16837ff6391f5c32d9c69d2a47ea670b442974b53935d1edc7fd64eb21e047a839171b60405160405180910390a45b5050565b612e4f613f3d565b600060208301905060405180604001604052808451815260200182815250915050919050565b6060612e80826136c7565b612e8957600080fd5b6000612e9483613715565b905060608167ffffffffffffffff81118015612eaf57600080fd5b50604051908082528060200260200182016040528015612ee957816020015b612ed6613f3d565b815260200190600190039081612ece5790505b5090506000612efb8560200151613786565b8560200151019050600080600090505b84811015612f5c57612f1c8361380f565b9150604051806040016040528083815260200184815250848281518110612f3f57fe5b602002602001018190525081830192508080600101915050612f0b565b5082945050505050919050565b60606000826000015111612f7c57600080fd5b6000612f8b8360200151613786565b9050600081846000015103905060608167ffffffffffffffff81118015612fb157600080fd5b506040519080825280601f01601f191660200182016040528015612fe45781602001600182028036833780820191505090505b50905060008160200190506130008487602001510182856138c7565b81945050505050919050565b600080826000015111801561302657506021826000015111155b61302f57600080fd5b600061303e8360200151613786565b9050600081846000015103905060008083866020015101905080519150602083101561307157826020036101000a820491505b81945050505050919050565b6000601582600001511461309057600080fd5b6130998261300c565b9050919050565b60006130aa613f3d565b6130b384612e47565b905060606130c082612e75565b90506060806000869050600080905060606130da8b61392e565b90506000815114156130f657600097505050505050505061336e565b60008090505b865181101561336557815183111561311f5760009850505050505050505061336e565b61313b87828151811061312e57fe5b6020026020010151613ae3565b95508580519060200120841461315c5760009850505050505050505061336e565b61317887828151811061316b57fe5b6020026020010151612e75565b945060118551141561324d5781518314156131e1578c805190602001206131b2866010815181106131a557fe5b6020026020010151612f69565b8051906020012014156131d05760019850505050505050505061336e565b60009850505050505050505061336e565b60008284815181106131ef57fe5b602001015160f81c60f81b60f81c905060108160ff16111561321d576000995050505050505050505061336e565b61323c868260ff168151811061322f57fe5b6020026020010151613b70565b60001b945060018401935050613358565b6002855114156133465761327e6132778660008151811061326a57fe5b6020026020010151612f69565b8385613b9e565b8301925081518314156132df578c805190602001206132b0866001815181106132a357fe5b6020026020010151612f69565b8051906020012014156132ce5760019850505050505050505061336e565b60009850505050505050505061336e565b6000613308613301876000815181106132f457fe5b6020026020010151612f69565b8486613b9e565b141561331f5760009850505050505050505061336e565b61333c8560018151811061332f57fe5b6020026020010151613b70565b60001b9350613357565b60009850505050505050505061336e565b5b80806001019150506130fc565b50505050505050505b949350505050565b600080600080600260009054906101000a900473ffffffffffffffffffffffffffffffffffffffff1673ffffffffffffffffffffffffffffffffffffffff166341539d4a876040518263ffffffff1660e01b81526004018082815260200191505060a06040518083038186803b1580156133ef57600080fd5b505afa158015613403573d6000803e3d6000fd5b505050506040513d60a081101561341957600080fd5b810190808051906020019092919080519060200190929190805190602001909291908051906020019092919080519060200190929190505050509350509250925089898989604051602001808581526020018481526020018381526020018281526020019450505050506040516020818303038152906040528051906020012073__Merkle________________________________636c8f455c9091848d0386896040518563ffffffff1660e01b81526004018085815260200184815260200183815260200180602001828103825283818151815260200191508051906020019080838360005b8381101561351b578082015181840152602081019050613500565b50505050905090810190601f1680156135485780820380516001836020036101000a031916815260200191505b509550505050505060206040518083038186803b15801561356857600080fd5b505af415801561357c573d6000803e3d6000fd5b505050506040513d602081101561359257600080fd5b81019080805190602001909291905050506135f8576040517f08c379a0000000000000000000000000000000000000000000000000000000008152600401808060200182810382526024815260200180613fa96024913960400191505060405180910390fd5b8093505050509695505050505050565b60006136178360000183613ca8565b60001c905092915050565b600061364a836000018373ffffffffffffffffffffffffffffffffffffffff1660001b613d2b565b905092915050565b600061366082600001613d4e565b9050919050565b600061368f836000018373ffffffffffffffffffffffffffffffffffffffff1660001b613d5f565b905092915050565b60006136bf836000018373ffffffffffffffffffffffffffffffffffffffff1660001b613dcf565b905092915050565b600080826000015114156136de5760009050613710565b60008083602001519050805160001a915060c060ff168260ff16101561370957600092505050613710565b6001925050505b919050565b6000808260000151141561372c5760009050613781565b600080905060006137408460200151613786565b84602001510190506000846000015185602001510190505b8082101561377a576137698261380f565b820191508280600101935050613758565b8293505050505b919050565b600080825160001a9050608060ff168110156137a657600091505061380a565b60b860ff168110806137cb575060c060ff1681101580156137ca575060f860ff1681105b5b156137da57600191505061380a565b60c060ff168110156137fa5760018060b80360ff1682030191505061380a565b60018060f80360ff168203019150505b919050565b6000806000835160001a9050608060ff1681101561383057600191506138bd565b60b860ff1681101561384d576001608060ff1682030191506138bc565b60c060ff1681101561387d5760b78103600185019450806020036101000a855104600182018101935050506138bb565b60f860ff1681101561389a57600160c060ff1682030191506138ba565b60f78103600185019450806020036101000a855104600182018101935050505b5b5b5b8192505050919050565b60008114156138d557613929565b5b602060ff1681106139055782518252602060ff1683019250602060ff1682019150602060ff16810390506138d6565b6000600182602060ff16036101000a03905080198451168184511681811785525050505b505050565b606080600083511115613ada57600080613949600086613eb7565b60f81c905060018160ff161480613963575060038160ff16145b15613a1257600160028651020367ffffffffffffffff8111801561398657600080fd5b506040519080825280601f01601f1916602001820160405280156139b95781602001600182028036833780820191505090505b50925060006139c9600187613eb7565b905080846000815181106139d957fe5b60200101907effffffffffffffffffffffffffffffffffffffffffffffffffffffffffffff1916908160001a9053506001925050613a6a565b6002808651020367ffffffffffffffff81118015613a2f57600080fd5b506040519080825280601f01601f191660200182016040528015613a625781602001600182028036833780820191505090505b509250600091505b60008260ff1690505b8351811015613ad657613a8e60028460ff1683030187613eb7565b848281518110613a9a57fe5b60200101907effffffffffffffffffffffffffffffffffffffffffffffffffffffffffffff1916908160001a9053508080600101915050613a73565b5050505b80915050919050565b606080826000015167ffffffffffffffff81118015613b0157600080fd5b506040519080825280601f01601f191660200182016040528015613b345781602001600182028036833780820191505090505b509050600081511415613b4a5780915050613b6b565b6000816020019050613b6584602001518286600001516138c7565b81925050505b919050565b60006021826000015114613b8357600080fd5b60008060018460200151019050805191508192505050919050565b6000806060613bac8661392e565b90506060815167ffffffffffffffff81118015613bc857600080fd5b506040519080825280601f01601f191660200182016040528015613bfb5781602001600182028036833780820191505090505b50905060008590505b82518601811015613c76576000878281518110613c1d57fe5b602001015160f81c60f81b9050808388840381518110613c3957fe5b60200101907effffffffffffffffffffffffffffffffffffffffffffffffffffffffffffff1916908160001a905350508080600101915050613c04565b50808051906020012082805190602001201415613c965781519250613c9b565b600092505b8293505050509392505050565b600081836000018054905011613d09576040517f08c379a0000000000000000000000000000000000000000000000000000000008152600401808060200182810382526022815260200180613f586022913960400191505060405180910390fd5b826000018281548110613d1857fe5b9060005260206000200154905092915050565b600080836001016000848152602001908152602001600020541415905092915050565b600081600001805490509050919050565b6000613d6b8383613d2b565b613dc4578260000182908060018154018082558091505060019003906000526020600020016000909190919091505582600001805490508360010160008481526020019081526020016000208190555060019050613dc9565b600090505b92915050565b60008083600101600084815260200190815260200160002054905060008114613eab5760006001820390506000600186600001805490500390506000866000018281548110613e1a57fe5b9060005260206000200154905080876000018481548110613e3757fe5b9060005260206000200181905550600183018760010160008381526020019081526020016000208190555086600001805480613e6f57fe5b60019003818190600052602060002001600090559055866001016000878152602001908152602001600020600090556001945050505050613eb1565b60009150505b92915050565b60008060028481613ec457fe5b0614613f005760108260028581613ed757fe5b0481518110613ee257fe5b602001015160f81c60f81b60f81c60ff1681613efa57fe5b06613f32565b60108260028581613f0d57fe5b0481518110613f1857fe5b602001015160f81c60f81b60f81c60ff1681613f3057fe5b045b60f81b905092915050565b60405180604001604052806000815260200160008152509056fe456e756d657261626c655365743a20696e646578206f7574206f6620626f756e6473416363657373436f6e74726f6c3a2073656e646572206d75737420626520616e2061646d696e20746f206772616e744275726e207478206e6f742070617274206f66207375626d697474656420686561646572416363657373436f6e74726f6c3a2073656e646572206d75737420626520616e2061646d696e20746f207265766f6b655769746864726177657220616e64206275726e206578697420747820646f206e6f74206d61746368416363657373436f6e74726f6c3a2063616e206f6e6c792072656e6f756e636520726f6c657320666f722073656c66a2646970667358221220c2e96534bc7e87dd9e0a5b78fb79d4f8a8734ec310f9eed248355ab37016e20964736f6c63430006060033",
  "immutableReferences": {},
  "source": "pragma solidity \"0.6.6\";\n\nimport { IERC20 } from \"@openzeppelin/contracts/token/ERC20/IERC20.sol\";\nimport { AccessControl } from \"@openzeppelin/contracts/access/AccessControl.sol\";\nimport { IRootChainManager } from \"./IRootChainManager.sol\";\nimport { IStateSender } from \"./IStateSender.sol\";\nimport { ICheckpointManager } from './ICheckpointManager.sol';\nimport { WETH } from './WETH.sol';\nimport { RLPReader } from \"../lib/RLPReader.sol\";\nimport { MerklePatriciaProof } from \"../lib/MerklePatriciaProof.sol\";\nimport { Merkle } from \"../lib/Merkle.sol\";\n\ncontract RootChainManager is IRootChainManager, AccessControl {\n  using RLPReader for bytes;\n  using RLPReader for RLPReader.RLPItem;\n  using Merkle for bytes32;\n\n  // Transfer(address,address,uint256)\n  bytes32 constant TRANSFER_EVENT_SIG = 0xddf252ad1be2c89b69c2b068fc378daa952ba7f163c4a11628f55a4df523b3ef;\n  bytes32 public constant MAPPER_ROLE = keccak256(\"MAPPER_ROLE\");\n\n  IStateSender private _stateSender;\n  ICheckpointManager private _checkpointManager;\n  WETH private _WETH;\n  address private _childChainManagerAddress;\n  mapping(address => address) private _rootToChildToken;\n  mapping(address => address) private _childToRootToken;\n  mapping(bytes32 => bool) private _processedExits;\n\n  constructor() public {\n    _setupRole(DEFAULT_ADMIN_ROLE, _msgSender());\n    _setupRole(MAPPER_ROLE, _msgSender());\n  }\n\n  modifier only(bytes32 role) {\n    require(\n      hasRole(role, _msgSender()),\n      \"Insufficient permissions\"\n    );\n    _;\n  }\n\n  function setStateSender(address newStateSender) override external only(DEFAULT_ADMIN_ROLE) {\n    _stateSender = IStateSender(newStateSender);\n  }\n\n  function stateSenderAddress() public view returns (address) {\n    return address(_stateSender);\n  }\n\n  function setCheckpointManager(address newCheckpointManager) override external only(DEFAULT_ADMIN_ROLE) {\n    _checkpointManager = ICheckpointManager(newCheckpointManager);\n  }\n\n  function checkpointManagerAddress() public view returns (address) {\n    return address(_checkpointManager);\n  }\n\n  function setChildChainManagerAddress(address newChildChainManager) external only(DEFAULT_ADMIN_ROLE) {\n    _childChainManagerAddress = newChildChainManager;\n  }\n\n  function childChainManagerAddress() public view returns (address) {\n    return _childChainManagerAddress;\n  }\n\n  function setWETH(address payable newWETHAddress) external only(DEFAULT_ADMIN_ROLE) {\n    _WETH = WETH(newWETHAddress);\n  }\n\n  function WETHAddress() public view returns (address) {\n    return address(_WETH);\n  }\n\n  function mapToken(address rootToken, address childToken) override external only(MAPPER_ROLE) {\n    _rootToChildToken[rootToken] = childToken;\n    _childToRootToken[childToken] = rootToken;\n    emit TokenMapped(rootToken, childToken);\n  }\n\n  function rootToChildToken(address rootToken) public view returns (address) {\n    return _rootToChildToken[rootToken];\n  }\n\n  function childToRootToken(address childToken) public view returns (address) {\n    return _childToRootToken[childToken];\n  }\n\n  function processedExits(bytes32 exitHash) public view returns (bool) {\n    return _processedExits[exitHash];\n  }\n\n  receive() external payable {\n    depositEther();\n  }\n\n  function depositEther() override public payable {\n    require(\n      address(_WETH) != address(0x0),\n      \"WETH not set\"\n    );\n    _WETH.depositFor.value(msg.value)(_msgSender());\n    _depositFor(_msgSender(), address(_WETH), msg.value);\n  }\n\n  function depositEtherFor(address user) override external payable {\n    require(\n      address(_WETH) != address(0x0),\n      \"WETH not set\"\n    );\n    _WETH.depositFor.value(msg.value)(user);\n    _depositFor(user, address(_WETH), msg.value);\n  }\n\n  function deposit(address rootToken, uint256 amount) override external {\n    _depositFor(_msgSender(), rootToken, amount);\n  }\n\n  function depositFor(address user, address rootToken, uint256 amount) override external {\n    _depositFor(user, rootToken, amount);\n  }\n\n  function _depositFor(address user, address rootToken, uint256 amount) private {\n    require(\n      _rootToChildToken[rootToken] != address(0x0),\n      \"Token not mapped\"\n    );\n    require(\n      IERC20(rootToken).allowance(_msgSender(), address(this)) >= amount,\n      \"Token transfer not approved\"\n    );\n    require(\n      address(_stateSender) != address(0x0),\n      \"stateSender not set\"\n    );\n    require(\n      address(_childChainManagerAddress) != address(0x0),\n      \"childChainManager not set\"\n    );\n\n    IERC20(rootToken).transferFrom(_msgSender(), address(this), amount);\n    _stateSender.syncState(_childChainManagerAddress, abi.encode(user, rootToken, amount));\n    emit Locked(user, rootToken, amount);\n  }\n\n  /**\n   * @param inputData RLP encoded data of the reference tx containing following list of fields\n   *  0 - headerNumber Header block number of which the reference tx was a part of\n   *  1 - blockProof Proof that the block header (in the child chain) is a leaf in the submitted merkle root\n   *  2 - blockNumber Block number of which the reference tx is a part of\n   *  3 - blockTime Reference tx block time\n   *  4 - blocktxRoot Transactions root of block\n   *  5 - blockReceiptsRoot Receipts root of block\n   *  6 - receipt Receipt of the reference transaction\n   *  7 - receiptProof Merkle proof of the reference receipt\n   *  8 - branchMask Merkle proof branchMask for the receipt\n   *  9 - logIndex Log Index to read from the receipt\n   */\n  function exit(bytes calldata inputData) override external {\n    RLPReader.RLPItem[] memory inputDataRLPList = inputData.toRlpItem().toList();\n\n    require(\n      _processedExits[\n        keccak256(abi.encodePacked(\n          inputDataRLPList[2].toBytes(), // blockNumber\n          inputDataRLPList[6].toBytes(), // receipt\n          inputDataRLPList[9].toBytes() // logIndex\n        ))\n      ] == false,\n      \"Exit already processed\"\n    );\n    _processedExits[\n      keccak256(abi.encodePacked(\n        inputDataRLPList[2].toBytes(), // blockNumber\n        inputDataRLPList[6].toBytes(), // receipt\n        inputDataRLPList[9].toBytes() // logIndex\n      ))\n    ] = true;\n\n    uint256 logIndex = inputDataRLPList[9].toUint();\n    bytes memory receipt = inputDataRLPList[6].toBytes();\n    RLPReader.RLPItem[] memory receiptRLPList = receipt.toRlpItem().toList();\n    RLPReader.RLPItem[] memory logRLPList = receiptRLPList[3].toList()[logIndex].toList();\n\n    address childToken = RLPReader.toAddress(logRLPList[0]); // log address field\n    require(\n      _childToRootToken[childToken] != address(0),\n      \"Token not mapped\"\n    );\n\n    RLPReader.RLPItem[] memory logTopicRLPList = logRLPList[1].toList(); // topics\n    require(\n      bytes32(logTopicRLPList[0].toUint()) == TRANSFER_EVENT_SIG, // topic0 is event sig\n      \"Not a transfer event signature\"\n    );\n    require(\n      _msgSender() == address(logTopicRLPList[1].toUint()), // from1 is from address\n      \"Withdrawer and burn exit tx do not match\"\n    );\n    require(\n      address(logTopicRLPList[2].toUint()) == address(0), // topic2 is to address\n      \"Not a burn event\"\n    );\n\n    // TODO: verify tx inclusion\n    // required?\n\n    require(\n      inputDataRLPList[8].toBytes().toRlpItem().toUint() &\n        0xFFFFFFFFFFFFFFFFFFFFFFFFFFFFFFFFFFFFFFFFFFFFFFFFFFFFFFFF00000000 ==\n        0,\n      \"Branch mask should be 32 bits\"\n    );\n\n    uint256 headerNumber = inputDataRLPList[0].toUint();\n    require(\n      MerklePatriciaProof.verify(\n        inputDataRLPList[6].toBytes(), // receipt\n        inputDataRLPList[8].toBytes(), // branchMask\n        inputDataRLPList[7].toBytes(), // receiptProof\n        bytes32(inputDataRLPList[5].toUint()) // receiptsRoot\n      ),\n      \"Invalid receipt merkle proof\"\n    );\n\n    checkBlockMembershipInCheckpoint(\n      inputDataRLPList[2].toUint(), // blockNumber\n      inputDataRLPList[3].toUint(), // blockTime\n      bytes32(inputDataRLPList[4].toUint()), // txRoot\n      bytes32(inputDataRLPList[5].toUint()), // receiptRoot\n      headerNumber,\n      inputDataRLPList[1].toBytes() // blockProof\n    );\n\n    IERC20(\n      _childToRootToken[childToken]\n    ).transfer(_msgSender(), logRLPList[2].toUint());\n\n    if (_childToRootToken[childToken] == address(_WETH)) {\n      _WETH.withdrawFor(logRLPList[2].toUint(), _msgSender());\n    }\n\n    emit Exited(_msgSender(), _childToRootToken[childToken], logRLPList[2].toUint());\n  }\n\n  function checkBlockMembershipInCheckpoint(\n    uint256 blockNumber,\n    uint256 blockTime,\n    bytes32 txRoot,\n    bytes32 receiptRoot,\n    uint256 headerNumber,\n    bytes memory blockProof\n  )\n    internal\n    view\n    returns (uint256 /* createdAt */)\n  {\n    (bytes32 headerRoot, uint256 startBlock, , uint256 createdAt, ) =\n      _checkpointManager.headerBlocks(headerNumber);\n\n    require(\n      keccak256(\n        abi.encodePacked(blockNumber, blockTime, txRoot, receiptRoot)\n      ).checkMembership(\n        blockNumber - startBlock,\n        headerRoot,\n        blockProof\n      ),\n      \"Burn tx not part of submitted header\"\n    );\n    return createdAt;\n  }\n}\n",
  "sourcePath": "/Users/arth/Documents/Projects/pos-portal/contracts/root/RootChainManager.sol",
  "compiler": {
    "name": "solc",
    "version": "0.6.6+commit.6c089d02.Emscripten.clang"
  },
  "schemaVersion": "3.1.0",
  "updatedAt": "2020-05-12T11:08:03.186Z",
  "networkType": "ethereum",
  "devdoc": {
    "methods": {
      "exit(bytes)": {
        "params": {
          "inputData": "RLP encoded data of the reference tx containing following list of fields 0 - headerNumber Header block number of which the reference tx was a part of 1 - blockProof Proof that the block header (in the child chain) is a leaf in the submitted merkle root 2 - blockNumber Block number of which the reference tx is a part of 3 - blockTime Reference tx block time 4 - blocktxRoot Transactions root of block 5 - blockReceiptsRoot Receipts root of block 6 - receipt Receipt of the reference transaction 7 - receiptProof Merkle proof of the reference receipt 8 - branchMask Merkle proof branchMask for the receipt 9 - logIndex Log Index to read from the receipt"
        }
      },
      "getRoleAdmin(bytes32)": {
        "details": "Returns the admin role that controls `role`. See {grantRole} and {revokeRole}.     * To change a role's admin, use {_setRoleAdmin}."
      },
      "getRoleMember(bytes32,uint256)": {
        "details": "Returns one of the accounts that have `role`. `index` must be a value between 0 and {getRoleMemberCount}, non-inclusive.     * Role bearers are not sorted in any particular way, and their ordering may change at any point.     * WARNING: When using {getRoleMember} and {getRoleMemberCount}, make sure you perform all queries on the same block. See the following https://forum.openzeppelin.com/t/iterating-over-elements-on-enumerableset-in-openzeppelin-contracts/2296[forum post] for more information."
      },
      "getRoleMemberCount(bytes32)": {
        "details": "Returns the number of accounts that have `role`. Can be used together with {getRoleMember} to enumerate all bearers of a role."
      },
      "grantRole(bytes32,address)": {
        "details": "Grants `role` to `account`.     * If `account` had not been already granted `role`, emits a {RoleGranted} event.     * Requirements:     * - the caller must have ``role``'s admin role."
      },
      "hasRole(bytes32,address)": {
        "details": "Returns `true` if `account` has been granted `role`."
      },
      "renounceRole(bytes32,address)": {
        "details": "Revokes `role` from the calling account.     * Roles are often managed via {grantRole} and {revokeRole}: this function's purpose is to provide a mechanism for accounts to lose their privileges if they are compromised (such as when a trusted device is misplaced).     * If the calling account had been granted `role`, emits a {RoleRevoked} event.     * Requirements:     * - the caller must be `account`."
      },
      "revokeRole(bytes32,address)": {
        "details": "Revokes `role` from `account`.     * If `account` had been granted `role`, emits a {RoleRevoked} event.     * Requirements:     * - the caller must have ``role``'s admin role."
      }
    }
  },
  "userdoc": {
    "methods": {}
  }
}