{
  "contractName": "RootChainManager",
  "abi": [
    {
      "inputs": [],
      "stateMutability": "nonpayable",
      "type": "constructor"
    },
    {
      "anonymous": false,
      "inputs": [
        {
          "indexed": true,
          "internalType": "address",
          "name": "user",
          "type": "address"
        },
        {
          "indexed": true,
          "internalType": "address",
          "name": "rootToken",
          "type": "address"
        },
        {
          "indexed": true,
          "internalType": "uint256",
          "name": "amount",
          "type": "uint256"
        }
      ],
      "name": "Exited",
      "type": "event"
    },
    {
      "anonymous": false,
      "inputs": [
        {
          "indexed": true,
          "internalType": "address",
          "name": "user",
          "type": "address"
        },
        {
          "indexed": true,
          "internalType": "address",
          "name": "rootToken",
          "type": "address"
        },
        {
          "indexed": true,
          "internalType": "uint256",
          "name": "amount",
          "type": "uint256"
        }
      ],
      "name": "Locked",
      "type": "event"
    },
    {
      "anonymous": false,
      "inputs": [
        {
          "indexed": true,
          "internalType": "bytes32",
          "name": "role",
          "type": "bytes32"
        },
        {
          "indexed": true,
          "internalType": "address",
          "name": "account",
          "type": "address"
        },
        {
          "indexed": true,
          "internalType": "address",
          "name": "sender",
          "type": "address"
        }
      ],
      "name": "RoleGranted",
      "type": "event"
    },
    {
      "anonymous": false,
      "inputs": [
        {
          "indexed": true,
          "internalType": "bytes32",
          "name": "role",
          "type": "bytes32"
        },
        {
          "indexed": true,
          "internalType": "address",
          "name": "account",
          "type": "address"
        },
        {
          "indexed": true,
          "internalType": "address",
          "name": "sender",
          "type": "address"
        }
      ],
      "name": "RoleRevoked",
      "type": "event"
    },
    {
      "anonymous": false,
      "inputs": [
        {
          "indexed": true,
          "internalType": "address",
          "name": "rootToken",
          "type": "address"
        },
        {
          "indexed": true,
          "internalType": "address",
          "name": "childToken",
          "type": "address"
        }
      ],
      "name": "TokenMapped",
      "type": "event"
    },
    {
      "inputs": [],
      "name": "DEFAULT_ADMIN_ROLE",
      "outputs": [
        {
          "internalType": "bytes32",
          "name": "",
          "type": "bytes32"
        }
      ],
      "stateMutability": "view",
      "type": "function",
      "constant": true
    },
    {
      "inputs": [],
      "name": "MAPPER_ROLE",
      "outputs": [
        {
          "internalType": "bytes32",
          "name": "",
          "type": "bytes32"
        }
      ],
      "stateMutability": "view",
      "type": "function",
      "constant": true
    },
    {
      "inputs": [],
      "name": "MAX_LOGS",
      "outputs": [
        {
          "internalType": "uint256",
          "name": "",
          "type": "uint256"
        }
      ],
      "stateMutability": "view",
      "type": "function",
      "constant": true
    },
    {
      "inputs": [
        {
          "internalType": "bytes32",
          "name": "role",
          "type": "bytes32"
        }
      ],
      "name": "getRoleAdmin",
      "outputs": [
        {
          "internalType": "bytes32",
          "name": "",
          "type": "bytes32"
        }
      ],
      "stateMutability": "view",
      "type": "function",
      "constant": true
    },
    {
      "inputs": [
        {
          "internalType": "bytes32",
          "name": "role",
          "type": "bytes32"
        },
        {
          "internalType": "uint256",
          "name": "index",
          "type": "uint256"
        }
      ],
      "name": "getRoleMember",
      "outputs": [
        {
          "internalType": "address",
          "name": "",
          "type": "address"
        }
      ],
      "stateMutability": "view",
      "type": "function",
      "constant": true
    },
    {
      "inputs": [
        {
          "internalType": "bytes32",
          "name": "role",
          "type": "bytes32"
        }
      ],
      "name": "getRoleMemberCount",
      "outputs": [
        {
          "internalType": "uint256",
          "name": "",
          "type": "uint256"
        }
      ],
      "stateMutability": "view",
      "type": "function",
      "constant": true
    },
    {
      "inputs": [
        {
          "internalType": "bytes32",
          "name": "role",
          "type": "bytes32"
        },
        {
          "internalType": "address",
          "name": "account",
          "type": "address"
        }
      ],
      "name": "grantRole",
      "outputs": [],
      "stateMutability": "nonpayable",
      "type": "function"
    },
    {
      "inputs": [
        {
          "internalType": "bytes32",
          "name": "role",
          "type": "bytes32"
        },
        {
          "internalType": "address",
          "name": "account",
          "type": "address"
        }
      ],
      "name": "hasRole",
      "outputs": [
        {
          "internalType": "bool",
          "name": "",
          "type": "bool"
        }
      ],
      "stateMutability": "view",
      "type": "function",
      "constant": true
    },
    {
      "inputs": [
        {
          "internalType": "bytes32",
          "name": "role",
          "type": "bytes32"
        },
        {
          "internalType": "address",
          "name": "account",
          "type": "address"
        }
      ],
      "name": "renounceRole",
      "outputs": [],
      "stateMutability": "nonpayable",
      "type": "function"
    },
    {
      "inputs": [
        {
          "internalType": "bytes32",
          "name": "role",
          "type": "bytes32"
        },
        {
          "internalType": "address",
          "name": "account",
          "type": "address"
        }
      ],
      "name": "revokeRole",
      "outputs": [],
      "stateMutability": "nonpayable",
      "type": "function"
    },
    {
      "stateMutability": "payable",
      "type": "receive",
      "payable": true
    },
    {
      "inputs": [
        {
          "internalType": "address",
          "name": "newStateSender",
          "type": "address"
        }
      ],
      "name": "setStateSender",
      "outputs": [],
      "stateMutability": "nonpayable",
      "type": "function"
    },
    {
      "inputs": [],
      "name": "stateSenderAddress",
      "outputs": [
        {
          "internalType": "address",
          "name": "",
          "type": "address"
        }
      ],
      "stateMutability": "view",
      "type": "function",
      "constant": true
    },
    {
      "inputs": [
        {
          "internalType": "address",
          "name": "newCheckpointManager",
          "type": "address"
        }
      ],
      "name": "setCheckpointManager",
      "outputs": [],
      "stateMutability": "nonpayable",
      "type": "function"
    },
    {
      "inputs": [],
      "name": "checkpointManagerAddress",
      "outputs": [
        {
          "internalType": "address",
          "name": "",
          "type": "address"
        }
      ],
      "stateMutability": "view",
      "type": "function",
      "constant": true
    },
    {
      "inputs": [
        {
          "internalType": "address",
          "name": "newChildChainManager",
          "type": "address"
        }
      ],
      "name": "setChildChainManagerAddress",
      "outputs": [],
      "stateMutability": "nonpayable",
      "type": "function"
    },
    {
      "inputs": [],
      "name": "childChainManagerAddress",
      "outputs": [
        {
          "internalType": "address",
          "name": "",
          "type": "address"
        }
      ],
      "stateMutability": "view",
      "type": "function",
      "constant": true
    },
    {
      "inputs": [
        {
          "internalType": "address payable",
          "name": "newWETHAddress",
          "type": "address"
        }
      ],
      "name": "setWETH",
      "outputs": [],
      "stateMutability": "nonpayable",
      "type": "function"
    },
    {
      "inputs": [],
      "name": "WETHAddress",
      "outputs": [
        {
          "internalType": "address",
          "name": "",
          "type": "address"
        }
      ],
      "stateMutability": "view",
      "type": "function",
      "constant": true
    },
    {
      "inputs": [
        {
          "internalType": "address",
          "name": "rootToken",
          "type": "address"
        },
        {
          "internalType": "address",
          "name": "childToken",
          "type": "address"
        }
      ],
      "name": "mapToken",
      "outputs": [],
      "stateMutability": "nonpayable",
      "type": "function"
    },
    {
      "inputs": [
        {
          "internalType": "address",
          "name": "rootToken",
          "type": "address"
        }
      ],
      "name": "rootToChildToken",
      "outputs": [
        {
          "internalType": "address",
          "name": "",
          "type": "address"
        }
      ],
      "stateMutability": "view",
      "type": "function",
      "constant": true
    },
    {
      "inputs": [
        {
          "internalType": "address",
          "name": "childToken",
          "type": "address"
        }
      ],
      "name": "childToRootToken",
      "outputs": [
        {
          "internalType": "address",
          "name": "",
          "type": "address"
        }
      ],
      "stateMutability": "view",
      "type": "function",
      "constant": true
    },
    {
      "inputs": [
        {
          "internalType": "bytes32",
          "name": "txHash",
          "type": "bytes32"
        }
      ],
      "name": "exitedTxs",
      "outputs": [
        {
          "internalType": "bool",
          "name": "",
          "type": "bool"
        }
      ],
      "stateMutability": "view",
      "type": "function",
      "constant": true
    },
    {
      "inputs": [],
      "name": "depositEther",
      "outputs": [],
      "stateMutability": "payable",
      "type": "function",
      "payable": true
    },
    {
      "inputs": [
        {
          "internalType": "address",
          "name": "user",
          "type": "address"
        }
      ],
      "name": "depositEtherFor",
      "outputs": [],
      "stateMutability": "payable",
      "type": "function",
      "payable": true
    },
    {
      "inputs": [
        {
          "internalType": "address",
          "name": "rootToken",
          "type": "address"
        },
        {
          "internalType": "uint256",
          "name": "amount",
          "type": "uint256"
        }
      ],
      "name": "deposit",
      "outputs": [],
      "stateMutability": "nonpayable",
      "type": "function"
    },
    {
      "inputs": [
        {
          "internalType": "address",
          "name": "user",
          "type": "address"
        },
        {
          "internalType": "address",
          "name": "rootToken",
          "type": "address"
        },
        {
          "internalType": "uint256",
          "name": "amount",
          "type": "uint256"
        }
      ],
      "name": "depositFor",
      "outputs": [],
      "stateMutability": "nonpayable",
      "type": "function"
    },
    {
      "inputs": [
        {
          "internalType": "bytes",
          "name": "inputData",
          "type": "bytes"
        }
      ],
      "name": "exit",
      "outputs": [],
      "stateMutability": "nonpayable",
      "type": "function"
    }
  ],
  "bytecode": "0x60806040523480156200001157600080fd5b50620000276000801b336200007460201b60201c565b6200006e60405180807f4d41505045525f524f4c45000000000000000000000000000000000000000000815250600b0190506040518091039020336200007460201b60201c565b6200020a565b6200008682826200008a60201b60201c565b5050565b620000b8816000808581526020019081526020016000206000016200012d60201b620034491790919060201c565b156200012957620000ce6200016560201b60201c565b73ffffffffffffffffffffffffffffffffffffffff168173ffffffffffffffffffffffffffffffffffffffff16837f2f8788117e7eff1d82e926ec794901d17c78024a50270940304540a733656f0d60405160405180910390a45b5050565b60006200015d836000018373ffffffffffffffffffffffffffffffffffffffff1660001b6200016d60201b60201c565b905092915050565b600033905090565b6000620001818383620001e760201b60201c565b620001dc578260000182908060018154018082558091505060019003906000526020600020016000909190919091505582600001805490508360010160008481526020019081526020016000208190555060019050620001e1565b600090505b92915050565b600080836001016000848152602001908152602001600020541415905092915050565b613e6b806200021a6000396000f3fe6080604052600436106101a05760003560e01c80636e86b770116100ec578063ca15c8731161008a578063d5bd9c6311610064578063d5bd9c63146109a8578063dc993a23146109d3578063e2c49de114610a24578063ea60c7c414610a7b576101af565b8063ca15c873146108ab578063cfe4f67b146108fa578063d547741f1461094d576101af565b806398ea5fca116100c657806398ea5fca146107aa578063a217fddf146107b4578063b3db428b146107df578063bc08452b1461085a576101af565b80636e86b770146106215780639010d07c146106b257806391d1485414610737576101af565b80633805550f116101595780634faa8a26116101335780634faa8a2614610510578063568b80b5146105545780635b769f3c1461057f5780636cb136b0146105d0576101af565b80633805550f146103be578063474002691461044457806347e7ef24146104b5576101af565b806304967702146101b45780630af88b241461020b578063248a9ca3146102625780632f2ff15d146102b15780633138b6f11461030c57806336568abe14610363576101af565b366101af576101ad610b0c565b005b600080fd5b3480156101c057600080fd5b506101c9610cc8565b604051808273ffffffffffffffffffffffffffffffffffffffff1673ffffffffffffffffffffffffffffffffffffffff16815260200191505060405180910390f35b34801561021757600080fd5b50610220610cf2565b604051808273ffffffffffffffffffffffffffffffffffffffff1673ffffffffffffffffffffffffffffffffffffffff16815260200191505060405180910390f35b34801561026e57600080fd5b5061029b6004803603602081101561028557600080fd5b8101908080359060200190929190505050610d1c565b6040518082815260200191505060405180910390f35b3480156102bd57600080fd5b5061030a600480360360408110156102d457600080fd5b8101908080359060200190929190803573ffffffffffffffffffffffffffffffffffffffff169060200190929190505050610d3b565b005b34801561031857600080fd5b50610321610dc4565b604051808273ffffffffffffffffffffffffffffffffffffffff1673ffffffffffffffffffffffffffffffffffffffff16815260200191505060405180910390f35b34801561036f57600080fd5b506103bc6004803603604081101561038657600080fd5b8101908080359060200190929190803573ffffffffffffffffffffffffffffffffffffffff169060200190929190505050610dee565b005b3480156103ca57600080fd5b50610442600480360360208110156103e157600080fd5b81019080803590602001906401000000008111156103fe57600080fd5b82018360208201111561041057600080fd5b8035906020019184600183028401116401000000008311171561043257600080fd5b9091929391929390505050610e87565b005b34801561045057600080fd5b506104b36004803603604081101561046757600080fd5b81019080803573ffffffffffffffffffffffffffffffffffffffff169060200190929190803573ffffffffffffffffffffffffffffffffffffffff169060200190929190505050611a7d565b005b3480156104c157600080fd5b5061050e600480360360408110156104d857600080fd5b81019080803573ffffffffffffffffffffffffffffffffffffffff16906020019092919080359060200190929190505050611c8a565b005b6105526004803603602081101561052657600080fd5b81019080803573ffffffffffffffffffffffffffffffffffffffff169060200190929190505050611c99565b005b34801561056057600080fd5b50610569611e48565b6040518082815260200191505060405180910390f35b34801561058b57600080fd5b506105ce600480360360208110156105a257600080fd5b81019080803573ffffffffffffffffffffffffffffffffffffffff169060200190929190505050611e81565b005b3480156105dc57600080fd5b5061061f600480360360208110156105f357600080fd5b81019080803573ffffffffffffffffffffffffffffffffffffffff169060200190929190505050611f46565b005b34801561062d57600080fd5b506106706004803603602081101561064457600080fd5b81019080803573ffffffffffffffffffffffffffffffffffffffff16906020019092919050505061200b565b604051808273ffffffffffffffffffffffffffffffffffffffff1673ffffffffffffffffffffffffffffffffffffffff16815260200191505060405180910390f35b3480156106be57600080fd5b506106f5600480360360408110156106d557600080fd5b810190808035906020019092919080359060200190929190505050612074565b604051808273ffffffffffffffffffffffffffffffffffffffff1673ffffffffffffffffffffffffffffffffffffffff16815260200191505060405180910390f35b34801561074357600080fd5b506107906004803603604081101561075a57600080fd5b8101908080359060200190929190803573ffffffffffffffffffffffffffffffffffffffff1690602001909291905050506120a5565b604051808215151515815260200191505060405180910390f35b6107b2610b0c565b005b3480156107c057600080fd5b506107c96120d6565b6040518082815260200191505060405180910390f35b3480156107eb57600080fd5b506108586004803603606081101561080257600080fd5b81019080803573ffffffffffffffffffffffffffffffffffffffff169060200190929190803573ffffffffffffffffffffffffffffffffffffffff169060200190929190803590602001909291905050506120dd565b005b34801561086657600080fd5b506108a96004803603602081101561087d57600080fd5b81019080803573ffffffffffffffffffffffffffffffffffffffff1690602001909291905050506120ed565b005b3480156108b757600080fd5b506108e4600480360360208110156108ce57600080fd5b81019080803590602001909291905050506121b2565b6040518082815260200191505060405180910390f35b34801561090657600080fd5b506109336004803603602081101561091d57600080fd5b81019080803590602001909291905050506121d8565b604051808215151515815260200191505060405180910390f35b34801561095957600080fd5b506109a66004803603604081101561097057600080fd5b8101908080359060200190929190803573ffffffffffffffffffffffffffffffffffffffff169060200190929190505050612202565b005b3480156109b457600080fd5b506109bd61228b565b6040518082815260200191505060405180910390f35b3480156109df57600080fd5b50610a22600480360360208110156109f657600080fd5b81019080803573ffffffffffffffffffffffffffffffffffffffff169060200190929190505050612290565b005b348015610a3057600080fd5b50610a39612355565b604051808273ffffffffffffffffffffffffffffffffffffffff1673ffffffffffffffffffffffffffffffffffffffff16815260200191505060405180910390f35b348015610a8757600080fd5b50610aca60048036036020811015610a9e57600080fd5b81019080803573ffffffffffffffffffffffffffffffffffffffff16906020019092919050505061237f565b604051808273ffffffffffffffffffffffffffffffffffffffff1673ffffffffffffffffffffffffffffffffffffffff16815260200191505060405180910390f35b600073ffffffffffffffffffffffffffffffffffffffff16600360009054906101000a900473ffffffffffffffffffffffffffffffffffffffff1673ffffffffffffffffffffffffffffffffffffffff161415610bd1576040517f08c379a000000000000000000000000000000000000000000000000000000000815260040180806020018281038252600c8152602001807f57455448206e6f7420736574000000000000000000000000000000000000000081525060200191505060405180910390fd5b600360009054906101000a900473ffffffffffffffffffffffffffffffffffffffff1673ffffffffffffffffffffffffffffffffffffffff1663aa67c91934610c186123e8565b6040518363ffffffff1660e01b8152600401808273ffffffffffffffffffffffffffffffffffffffff1673ffffffffffffffffffffffffffffffffffffffff1681526020019150506000604051808303818588803b158015610c7957600080fd5b505af1158015610c8d573d6000803e3d6000fd5b5050505050610cc6610c9d6123e8565b600360009054906101000a900473ffffffffffffffffffffffffffffffffffffffff16346123f0565b565b6000600460009054906101000a900473ffffffffffffffffffffffffffffffffffffffff16905090565b6000600360009054906101000a900473ffffffffffffffffffffffffffffffffffffffff16905090565b6000806000838152602001908152602001600020600201549050919050565b610d6160008084815260200190815260200160002060020154610d5c6123e8565b6120a5565b610db6576040517f08c379a000000000000000000000000000000000000000000000000000000000815260040180806020018281038252602f815260200180613d5c602f913960400191505060405180910390fd5b610dc08282612b03565b5050565b6000600260009054906101000a900473ffffffffffffffffffffffffffffffffffffffff16905090565b610df66123e8565b73ffffffffffffffffffffffffffffffffffffffff168173ffffffffffffffffffffffffffffffffffffffff1614610e79576040517f08c379a000000000000000000000000000000000000000000000000000000000815260040180806020018281038252602f815260200180613e07602f913960400191505060405180910390fd5b610e838282612b96565b5050565b6060610ede610ed984848080601f016020809104026020016040519081016040528093929190818152602001838380828437600081840152601f19601f82011690508083019250505050505050612c29565b612c57565b90506000151560076000610f0584600a81518110610ef857fe5b6020026020010151612d4b565b60001b815260200190815260200160002060009054906101000a900460ff16151514610f99576040517f08c379a00000000000000000000000000000000000000000000000000000000081526004018080602001828103825260168152602001807f4578697420616c72656164792070726f6365737365640000000000000000000081525060200191505060405180910390fd5b600160076000610fbc84600a81518110610faf57fe5b6020026020010151612d4b565b60001b815260200190815260200160002060006101000a81548160ff021916908315150217905550600061100382600981518110610ff657fe5b6020026020010151612d4b565b9050600a811061107b576040517f08c379a000000000000000000000000000000000000000000000000000000000815260040180806020018281038252601b8152602001807f537570706f7274696e672061206d6178206f66203130206c6f6773000000000081525060200191505060405180910390fd5b606061109a8360068151811061108d57fe5b6020026020010151612dbc565b905060606110af6110aa83612c29565b612c57565b905060606110eb6110d3836003815181106110c657fe5b6020026020010151612c57565b85815181106110de57fe5b6020026020010151612c57565b9050600061110c826000815181106110ff57fe5b6020026020010151612e5f565b9050600073ffffffffffffffffffffffffffffffffffffffff16600660008373ffffffffffffffffffffffffffffffffffffffff1673ffffffffffffffffffffffffffffffffffffffff16815260200190815260200160002060009054906101000a900473ffffffffffffffffffffffffffffffffffffffff1673ffffffffffffffffffffffffffffffffffffffff161415611210576040517f08c379a00000000000000000000000000000000000000000000000000000000081526004018080602001828103825260108152602001807f546f6b656e206e6f74206d61707065640000000000000000000000000000000081525060200191505060405180910390fd5b606061122f8360018151811061122257fe5b6020026020010151612c57565b90507fddf252ad1be2c89b69c2b068fc378daa952ba7f163c4a11628f55a4df523b3ef60001b6112728260008151811061126557fe5b6020026020010151612d4b565b60001b146112e8576040517f08c379a000000000000000000000000000000000000000000000000000000000815260040180806020018281038252601e8152602001807f4e6f742061207472616e73666572206576656e74207369676e6174757265000081525060200191505060405180910390fd5b611305816001815181106112f857fe5b6020026020010151612d4b565b73ffffffffffffffffffffffffffffffffffffffff163373ffffffffffffffffffffffffffffffffffffffff1614611388576040517f08c379a0000000000000000000000000000000000000000000000000000000008152600401808060200182810382526028815260200180613ddf6028913960400191505060405180910390fd5b600073ffffffffffffffffffffffffffffffffffffffff166113bd826002815181106113b057fe5b6020026020010151612d4b565b73ffffffffffffffffffffffffffffffffffffffff1614611446576040517f08c379a00000000000000000000000000000000000000000000000000000000081526004018080602001828103825260108152602001807f4e6f742061206275726e206576656e740000000000000000000000000000000081525060200191505060405180910390fd5b60007fffffffffffffffffffffffffffffffffffffffffffffffffffffffff0000000061149661149161148c8b60088151811061147f57fe5b6020026020010151612dbc565b612c29565b612d4b565b161461150a576040517f08c379a000000000000000000000000000000000000000000000000000000000815260040180806020018281038252601d8152602001807f4272616e6368206d61736b2073686f756c64206265203332206269747300000081525060200191505060405180910390fd5b60006115298860008151811061151c57fe5b6020026020010151612d4b565b90506115aa61154b8960068151811061153e57fe5b6020026020010151612dbc565b6115688a60088151811061155b57fe5b6020026020010151612dbc565b6115858b60078151811061157857fe5b6020026020010151612dbc565b6115a28c60058151811061159557fe5b6020026020010151612d4b565b60001b612e82565b61161c576040517f08c379a000000000000000000000000000000000000000000000000000000000815260040180806020018281038252601c8152602001807f496e76616c69642072656365697074206d65726b6c652070726f6f660000000081525060200191505060405180910390fd5b600061163b8960028151811061162e57fe5b6020026020010151612d4b565b90506116c18161165e8b60038151811061165157fe5b6020026020010151612d4b565b61167b8c60048151811061166e57fe5b6020026020010151612d4b565b60001b61169b8d60058151811061168e57fe5b6020026020010151612d4b565b60001b866116bc8f6001815181106116af57fe5b6020026020010151612dbc565b613158565b50600660008573ffffffffffffffffffffffffffffffffffffffff1673ffffffffffffffffffffffffffffffffffffffff16815260200190815260200160002060009054906101000a900473ffffffffffffffffffffffffffffffffffffffff1673ffffffffffffffffffffffffffffffffffffffff1663a9059cbb3361175b8860028151811061174e57fe5b6020026020010151612d4b565b6040518363ffffffff1660e01b8152600401808373ffffffffffffffffffffffffffffffffffffffff1673ffffffffffffffffffffffffffffffffffffffff16815260200182815260200192505050602060405180830381600087803b1580156117c457600080fd5b505af11580156117d8573d6000803e3d6000fd5b505050506040513d60208110156117ee57600080fd5b810190808051906020019092919050505050600360009054906101000a900473ffffffffffffffffffffffffffffffffffffffff1673ffffffffffffffffffffffffffffffffffffffff16600660008673ffffffffffffffffffffffffffffffffffffffff1673ffffffffffffffffffffffffffffffffffffffff16815260200190815260200160002060009054906101000a900473ffffffffffffffffffffffffffffffffffffffff1673ffffffffffffffffffffffffffffffffffffffff16141561199a57600360009054906101000a900473ffffffffffffffffffffffffffffffffffffffff1673ffffffffffffffffffffffffffffffffffffffff16633576f6cc6119108760028151811061190357fe5b6020026020010151612d4b565b6119186123e8565b6040518363ffffffff1660e01b8152600401808381526020018273ffffffffffffffffffffffffffffffffffffffff1673ffffffffffffffffffffffffffffffffffffffff16815260200192505050600060405180830381600087803b15801561198157600080fd5b505af1158015611995573d6000803e3d6000fd5b505050505b6119b7856002815181106119aa57fe5b6020026020010151612d4b565b600660008673ffffffffffffffffffffffffffffffffffffffff1673ffffffffffffffffffffffffffffffffffffffff16815260200190815260200160002060009054906101000a900473ffffffffffffffffffffffffffffffffffffffff1673ffffffffffffffffffffffffffffffffffffffff163373ffffffffffffffffffffffffffffffffffffffff167f104ad9ab27213fcc307f2308fc015959def8986f04d9475d82c5f32ab9c8d83b60405160405180910390a45050505050505050505050565b60405180807f4d41505045525f524f4c45000000000000000000000000000000000000000000815250600b0190506040518091039020611abd81336120a5565b611b2f576040517f08c379a00000000000000000000000000000000000000000000000000000000081526004018080602001828103825260188152602001807f496e73756666696369656e74207065726d697373696f6e73000000000000000081525060200191505060405180910390fd5b81600560008573ffffffffffffffffffffffffffffffffffffffff1673ffffffffffffffffffffffffffffffffffffffff16815260200190815260200160002060006101000a81548173ffffffffffffffffffffffffffffffffffffffff021916908373ffffffffffffffffffffffffffffffffffffffff16021790555082600660008473ffffffffffffffffffffffffffffffffffffffff1673ffffffffffffffffffffffffffffffffffffffff16815260200190815260200160002060006101000a81548173ffffffffffffffffffffffffffffffffffffffff021916908373ffffffffffffffffffffffffffffffffffffffff1602179055508173ffffffffffffffffffffffffffffffffffffffff168373ffffffffffffffffffffffffffffffffffffffff167f85920d35e6c72f6b2affffa04298b0cecfeba86e4a9f407df661f1cb8ab5e61760405160405180910390a3505050565b611c953383836123f0565b5050565b600073ffffffffffffffffffffffffffffffffffffffff16600360009054906101000a900473ffffffffffffffffffffffffffffffffffffffff1673ffffffffffffffffffffffffffffffffffffffff161415611d5e576040517f08c379a000000000000000000000000000000000000000000000000000000000815260040180806020018281038252600c8152602001807f57455448206e6f7420736574000000000000000000000000000000000000000081525060200191505060405180910390fd5b600360009054906101000a900473ffffffffffffffffffffffffffffffffffffffff1673ffffffffffffffffffffffffffffffffffffffff1663aa67c91934836040518363ffffffff1660e01b8152600401808273ffffffffffffffffffffffffffffffffffffffff1673ffffffffffffffffffffffffffffffffffffffff1681526020019150506000604051808303818588803b158015611dff57600080fd5b505af1158015611e13573d6000803e3d6000fd5b5050505050611e4581600360009054906101000a900473ffffffffffffffffffffffffffffffffffffffff16346123f0565b50565b60405180807f4d41505045525f524f4c45000000000000000000000000000000000000000000815250600b019050604051809103902081565b6000801b611e8f81336120a5565b611f01576040517f08c379a00000000000000000000000000000000000000000000000000000000081526004018080602001828103825260188152602001807f496e73756666696369656e74207065726d697373696f6e73000000000000000081525060200191505060405180910390fd5b81600360006101000a81548173ffffffffffffffffffffffffffffffffffffffff021916908373ffffffffffffffffffffffffffffffffffffffff1602179055505050565b6000801b611f5481336120a5565b611fc6576040517f08c379a00000000000000000000000000000000000000000000000000000000081526004018080602001828103825260188152602001807f496e73756666696369656e74207065726d697373696f6e73000000000000000081525060200191505060405180910390fd5b81600160006101000a81548173ffffffffffffffffffffffffffffffffffffffff021916908373ffffffffffffffffffffffffffffffffffffffff1602179055505050565b6000600660008373ffffffffffffffffffffffffffffffffffffffff1673ffffffffffffffffffffffffffffffffffffffff16815260200190815260200160002060009054906101000a900473ffffffffffffffffffffffffffffffffffffffff169050919050565b600061209d826000808681526020019081526020016000206000016133ea90919063ffffffff16565b905092915050565b60006120ce8260008086815260200190815260200160002060000161340490919063ffffffff16565b905092915050565b6000801b81565b6120e88383836123f0565b505050565b6000801b6120fb81336120a5565b61216d576040517f08c379a00000000000000000000000000000000000000000000000000000000081526004018080602001828103825260188152602001807f496e73756666696369656e74207065726d697373696f6e73000000000000000081525060200191505060405180910390fd5b81600260006101000a81548173ffffffffffffffffffffffffffffffffffffffff021916908373ffffffffffffffffffffffffffffffffffffffff1602179055505050565b60006121d1600080848152602001908152602001600020600001613434565b9050919050565b60006007600083815260200190815260200160002060009054906101000a900460ff169050919050565b612228600080848152602001908152602001600020600201546122236123e8565b6120a5565b61227d576040517f08c379a0000000000000000000000000000000000000000000000000000000008152600401808060200182810382526030815260200180613daf6030913960400191505060405180910390fd5b6122878282612b96565b5050565b600a81565b6000801b61229e81336120a5565b612310576040517f08c379a00000000000000000000000000000000000000000000000000000000081526004018080602001828103825260188152602001807f496e73756666696369656e74207065726d697373696f6e73000000000000000081525060200191505060405180910390fd5b81600460006101000a81548173ffffffffffffffffffffffffffffffffffffffff021916908373ffffffffffffffffffffffffffffffffffffffff1602179055505050565b6000600160009054906101000a900473ffffffffffffffffffffffffffffffffffffffff16905090565b6000600560008373ffffffffffffffffffffffffffffffffffffffff1673ffffffffffffffffffffffffffffffffffffffff16815260200190815260200160002060009054906101000a900473ffffffffffffffffffffffffffffffffffffffff169050919050565b600033905090565b600073ffffffffffffffffffffffffffffffffffffffff16600560008473ffffffffffffffffffffffffffffffffffffffff1673ffffffffffffffffffffffffffffffffffffffff16815260200190815260200160002060009054906101000a900473ffffffffffffffffffffffffffffffffffffffff1673ffffffffffffffffffffffffffffffffffffffff1614156124f2576040517f08c379a00000000000000000000000000000000000000000000000000000000081526004018080602001828103825260108152602001807f546f6b656e206e6f74206d61707065640000000000000000000000000000000081525060200191505060405180910390fd5b808273ffffffffffffffffffffffffffffffffffffffff1663dd62ed3e33306040518363ffffffff1660e01b8152600401808373ffffffffffffffffffffffffffffffffffffffff1673ffffffffffffffffffffffffffffffffffffffff1681526020018273ffffffffffffffffffffffffffffffffffffffff1673ffffffffffffffffffffffffffffffffffffffff1681526020019250505060206040518083038186803b1580156125a457600080fd5b505afa1580156125b8573d6000803e3d6000fd5b505050506040513d60208110156125ce57600080fd5b81019080805190602001909291905050501015612653576040517f08c379a000000000000000000000000000000000000000000000000000000000815260040180806020018281038252601b8152602001807f546f6b656e207472616e73666572206e6f7420617070726f766564000000000081525060200191505060405180910390fd5b600073ffffffffffffffffffffffffffffffffffffffff16600160009054906101000a900473ffffffffffffffffffffffffffffffffffffffff1673ffffffffffffffffffffffffffffffffffffffff161415612718576040517f08c379a00000000000000000000000000000000000000000000000000000000081526004018080602001828103825260138152602001807f737461746553656e646572206e6f74207365740000000000000000000000000081525060200191505060405180910390fd5b600073ffffffffffffffffffffffffffffffffffffffff16600460009054906101000a900473ffffffffffffffffffffffffffffffffffffffff1673ffffffffffffffffffffffffffffffffffffffff1614156127dd576040517f08c379a00000000000000000000000000000000000000000000000000000000081526004018080602001828103825260198152602001807f6368696c64436861696e4d616e61676572206e6f74207365740000000000000081525060200191505060405180910390fd5b8173ffffffffffffffffffffffffffffffffffffffff166323b872dd3330846040518463ffffffff1660e01b8152600401808473ffffffffffffffffffffffffffffffffffffffff1673ffffffffffffffffffffffffffffffffffffffff1681526020018373ffffffffffffffffffffffffffffffffffffffff1673ffffffffffffffffffffffffffffffffffffffff1681526020018281526020019350505050602060405180830381600087803b15801561289857600080fd5b505af11580156128ac573d6000803e3d6000fd5b505050506040513d60208110156128c257600080fd5b810190808051906020019092919050505050600160009054906101000a900473ffffffffffffffffffffffffffffffffffffffff1673ffffffffffffffffffffffffffffffffffffffff166316f19831600460009054906101000a900473ffffffffffffffffffffffffffffffffffffffff16858585604051602001808473ffffffffffffffffffffffffffffffffffffffff1673ffffffffffffffffffffffffffffffffffffffff1681526020018373ffffffffffffffffffffffffffffffffffffffff1673ffffffffffffffffffffffffffffffffffffffff16815260200182815260200193505050506040516020818303038152906040526040518363ffffffff1660e01b8152600401808373ffffffffffffffffffffffffffffffffffffffff1673ffffffffffffffffffffffffffffffffffffffff16815260200180602001828103825283818151815260200191508051906020019080838360005b83811015612a3e578082015181840152602081019050612a23565b50505050905090810190601f168015612a6b5780820380516001836020036101000a031916815260200191505b509350505050600060405180830381600087803b158015612a8b57600080fd5b505af1158015612a9f573d6000803e3d6000fd5b50505050808273ffffffffffffffffffffffffffffffffffffffff168473ffffffffffffffffffffffffffffffffffffffff167f989eaa915cbb416ea3d6f9a63b1a3de51770c7674b11fe21ecdf76b4e1d1391060405160405180910390a4505050565b612b2a8160008085815260200190815260200160002060000161344990919063ffffffff16565b15612b9257612b376123e8565b73ffffffffffffffffffffffffffffffffffffffff168173ffffffffffffffffffffffffffffffffffffffff16837f2f8788117e7eff1d82e926ec794901d17c78024a50270940304540a733656f0d60405160405180910390a45b5050565b612bbd8160008085815260200190815260200160002060000161347990919063ffffffff16565b15612c2557612bca6123e8565b73ffffffffffffffffffffffffffffffffffffffff168173ffffffffffffffffffffffffffffffffffffffff16837ff6391f5c32d9c69d2a47ea670b442974b53935d1edc7fd64eb21e047a839171b60405160405180910390a45b5050565b612c31613d1f565b600060208301905060405180604001604052808451815260200182815250915050919050565b6060612c62826134a9565b612c6b57600080fd5b6000612c76836134f7565b905060608167ffffffffffffffff81118015612c9157600080fd5b50604051908082528060200260200182016040528015612ccb57816020015b612cb8613d1f565b815260200190600190039081612cb05790505b5090506000612cdd8560200151613568565b8560200151019050600080600090505b84811015612d3e57612cfe836135f1565b9150604051806040016040528083815260200184815250848281518110612d2157fe5b602002602001018190525081830192508080600101915050612ced565b5082945050505050919050565b6000808260000151118015612d6557506021826000015111155b612d6e57600080fd5b6000612d7d8360200151613568565b90506000818460000151039050600080838660200151019050805191506020831015612db057826020036101000a820491505b81945050505050919050565b60606000826000015111612dcf57600080fd5b6000612dde8360200151613568565b9050600081846000015103905060608167ffffffffffffffff81118015612e0457600080fd5b506040519080825280601f01601f191660200182016040528015612e375781602001600182028036833780820191505090505b5090506000816020019050612e538487602001510182856136a9565b81945050505050919050565b60006015826000015114612e7257600080fd5b612e7b82612d4b565b9050919050565b6000612e8c613d1f565b612e9584612c29565b90506060612ea282612c57565b9050606080600086905060008090506060612ebc8b613710565b9050600081511415612ed8576000975050505050505050613150565b60008090505b8651811015613147578151831115612f0157600098505050505050505050613150565b612f1d878281518110612f1057fe5b60200260200101516138c5565b955085805190602001208414612f3e57600098505050505050505050613150565b612f5a878281518110612f4d57fe5b6020026020010151612c57565b945060118551141561302f578151831415612fc3578c80519060200120612f9486601081518110612f8757fe5b6020026020010151612dbc565b805190602001201415612fb257600198505050505050505050613150565b600098505050505050505050613150565b6000828481518110612fd157fe5b602001015160f81c60f81b60f81c905060108160ff161115612fff5760009950505050505050505050613150565b61301e868260ff168151811061301157fe5b6020026020010151613952565b60001b94506001840193505061313a565b600285511415613128576130606130598660008151811061304c57fe5b6020026020010151612dbc565b8385613980565b8301925081518314156130c1578c805190602001206130928660018151811061308557fe5b6020026020010151612dbc565b8051906020012014156130b057600198505050505050505050613150565b600098505050505050505050613150565b60006130ea6130e3876000815181106130d657fe5b6020026020010151612dbc565b8486613980565b141561310157600098505050505050505050613150565b61311e8560018151811061311157fe5b6020026020010151613952565b60001b9350613139565b600098505050505050505050613150565b5b8080600101915050612ede565b50505050505050505b949350505050565b600080600080600260009054906101000a900473ffffffffffffffffffffffffffffffffffffffff1673ffffffffffffffffffffffffffffffffffffffff166341539d4a876040518263ffffffff1660e01b81526004018082815260200191505060a06040518083038186803b1580156131d157600080fd5b505afa1580156131e5573d6000803e3d6000fd5b505050506040513d60a08110156131fb57600080fd5b810190808051906020019092919080519060200190929190805190602001909291908051906020019092919080519060200190929190505050509350509250925089898989604051602001808581526020018481526020018381526020018281526020019450505050506040516020818303038152906040528051906020012073__Merkle________________________________636c8f455c9091848d0386896040518563ffffffff1660e01b81526004018085815260200184815260200183815260200180602001828103825283818151815260200191508051906020019080838360005b838110156132fd5780820151818401526020810190506132e2565b50505050905090810190601f16801561332a5780820380516001836020036101000a031916815260200191505b509550505050505060206040518083038186803b15801561334a57600080fd5b505af415801561335e573d6000803e3d6000fd5b505050506040513d602081101561337457600080fd5b81019080805190602001909291905050506133da576040517f08c379a0000000000000000000000000000000000000000000000000000000008152600401808060200182810382526024815260200180613d8b6024913960400191505060405180910390fd5b8093505050509695505050505050565b60006133f98360000183613a8a565b60001c905092915050565b600061342c836000018373ffffffffffffffffffffffffffffffffffffffff1660001b613b0d565b905092915050565b600061344282600001613b30565b9050919050565b6000613471836000018373ffffffffffffffffffffffffffffffffffffffff1660001b613b41565b905092915050565b60006134a1836000018373ffffffffffffffffffffffffffffffffffffffff1660001b613bb1565b905092915050565b600080826000015114156134c057600090506134f2565b60008083602001519050805160001a915060c060ff168260ff1610156134eb576000925050506134f2565b6001925050505b919050565b6000808260000151141561350e5760009050613563565b600080905060006135228460200151613568565b84602001510190506000846000015185602001510190505b8082101561355c5761354b826135f1565b82019150828060010193505061353a565b8293505050505b919050565b600080825160001a9050608060ff168110156135885760009150506135ec565b60b860ff168110806135ad575060c060ff1681101580156135ac575060f860ff1681105b5b156135bc5760019150506135ec565b60c060ff168110156135dc5760018060b80360ff168203019150506135ec565b60018060f80360ff168203019150505b919050565b6000806000835160001a9050608060ff16811015613612576001915061369f565b60b860ff1681101561362f576001608060ff16820301915061369e565b60c060ff1681101561365f5760b78103600185019450806020036101000a8551046001820181019350505061369d565b60f860ff1681101561367c57600160c060ff16820301915061369c565b60f78103600185019450806020036101000a855104600182018101935050505b5b5b5b8192505050919050565b60008114156136b75761370b565b5b602060ff1681106136e75782518252602060ff1683019250602060ff1682019150602060ff16810390506136b8565b6000600182602060ff16036101000a03905080198451168184511681811785525050505b505050565b6060806000835111156138bc5760008061372b600086613c99565b60f81c905060018160ff161480613745575060038160ff16145b156137f457600160028651020367ffffffffffffffff8111801561376857600080fd5b506040519080825280601f01601f19166020018201604052801561379b5781602001600182028036833780820191505090505b50925060006137ab600187613c99565b905080846000815181106137bb57fe5b60200101907effffffffffffffffffffffffffffffffffffffffffffffffffffffffffffff1916908160001a905350600192505061384c565b6002808651020367ffffffffffffffff8111801561381157600080fd5b506040519080825280601f01601f1916602001820160405280156138445781602001600182028036833780820191505090505b509250600091505b60008260ff1690505b83518110156138b85761387060028460ff1683030187613c99565b84828151811061387c57fe5b60200101907effffffffffffffffffffffffffffffffffffffffffffffffffffffffffffff1916908160001a9053508080600101915050613855565b5050505b80915050919050565b606080826000015167ffffffffffffffff811180156138e357600080fd5b506040519080825280601f01601f1916602001820160405280156139165781602001600182028036833780820191505090505b50905060008151141561392c578091505061394d565b600081602001905061394784602001518286600001516136a9565b81925050505b919050565b6000602182600001511461396557600080fd5b60008060018460200151019050805191508192505050919050565b600080606061398e86613710565b90506060815167ffffffffffffffff811180156139aa57600080fd5b506040519080825280601f01601f1916602001820160405280156139dd5781602001600182028036833780820191505090505b50905060008590505b82518601811015613a585760008782815181106139ff57fe5b602001015160f81c60f81b9050808388840381518110613a1b57fe5b60200101907effffffffffffffffffffffffffffffffffffffffffffffffffffffffffffff1916908160001a9053505080806001019150506139e6565b50808051906020012082805190602001201415613a785781519250613a7d565b600092505b8293505050509392505050565b600081836000018054905011613aeb576040517f08c379a0000000000000000000000000000000000000000000000000000000008152600401808060200182810382526022815260200180613d3a6022913960400191505060405180910390fd5b826000018281548110613afa57fe5b9060005260206000200154905092915050565b600080836001016000848152602001908152602001600020541415905092915050565b600081600001805490509050919050565b6000613b4d8383613b0d565b613ba6578260000182908060018154018082558091505060019003906000526020600020016000909190919091505582600001805490508360010160008481526020019081526020016000208190555060019050613bab565b600090505b92915050565b60008083600101600084815260200190815260200160002054905060008114613c8d5760006001820390506000600186600001805490500390506000866000018281548110613bfc57fe5b9060005260206000200154905080876000018481548110613c1957fe5b9060005260206000200181905550600183018760010160008381526020019081526020016000208190555086600001805480613c5157fe5b60019003818190600052602060002001600090559055866001016000878152602001908152602001600020600090556001945050505050613c93565b60009150505b92915050565b60008060028481613ca657fe5b0614613ce25760108260028581613cb957fe5b0481518110613cc457fe5b602001015160f81c60f81b60f81c60ff1681613cdc57fe5b06613d14565b60108260028581613cef57fe5b0481518110613cfa57fe5b602001015160f81c60f81b60f81c60ff1681613d1257fe5b045b60f81b905092915050565b60405180604001604052806000815260200160008152509056fe456e756d657261626c655365743a20696e646578206f7574206f6620626f756e6473416363657373436f6e74726f6c3a2073656e646572206d75737420626520616e2061646d696e20746f206772616e744275726e207478206e6f742070617274206f66207375626d697474656420686561646572416363657373436f6e74726f6c3a2073656e646572206d75737420626520616e2061646d696e20746f207265766f6b655769746864726177657220616e64206275726e206578697420747820646f206e6f74206d61746368416363657373436f6e74726f6c3a2063616e206f6e6c792072656e6f756e636520726f6c657320666f722073656c66a26469706673582212200ae2312d368e9bfe8f5ba00c714f121d26b7b0224e0a63206e290fd2c480b32964736f6c63430006060033",
  "immutableReferences": {},
  "source": "pragma solidity \"0.6.6\";\n\nimport { IERC20 } from \"@openzeppelin/contracts/token/ERC20/IERC20.sol\";\nimport { AccessControl } from \"@openzeppelin/contracts/access/AccessControl.sol\";\nimport { IRootChainManager } from \"./IRootChainManager.sol\";\nimport { IStateSender } from \"./IStateSender.sol\";\nimport { ICheckpointManager } from './ICheckpointManager.sol';\nimport { WETH } from './WETH.sol';\nimport { RLPReader } from \"../lib/RLPReader.sol\";\nimport { MerklePatriciaProof } from \"../lib/MerklePatriciaProof.sol\";\nimport { Merkle } from \"../lib/Merkle.sol\";\n\ncontract RootChainManager is IRootChainManager, AccessControl {\n  using RLPReader for bytes;\n  using RLPReader for RLPReader.RLPItem;\n  using Merkle for bytes32;\n\n  // Transfer(address,address,uint256)\n  bytes32 constant TRANSFER_EVENT_SIG = 0xddf252ad1be2c89b69c2b068fc378daa952ba7f163c4a11628f55a4df523b3ef;\n  bytes32 public constant MAPPER_ROLE = keccak256(\"MAPPER_ROLE\");\n  uint256 public constant MAX_LOGS = 10;\n\n  IStateSender private _stateSender;\n  ICheckpointManager private _checkpointManager;\n  WETH private _WETH;\n  address private _childChainManagerAddress;\n  mapping(address => address) private _rootToChildToken;\n  mapping(address => address) private _childToRootToken;\n  mapping(bytes32 => bool) private _exitedTxs;\n\n  constructor() public {\n    _setupRole(DEFAULT_ADMIN_ROLE, msg.sender);\n    _setupRole(MAPPER_ROLE, msg.sender);\n  }\n\n  modifier only(bytes32 role) {\n    require(\n      hasRole(role, msg.sender),\n      \"Insufficient permissions\"\n    );\n    _;\n  }\n\n  function setStateSender(address newStateSender) override external only(DEFAULT_ADMIN_ROLE) {\n    _stateSender = IStateSender(newStateSender);\n  }\n\n  function stateSenderAddress() public view returns (address) {\n    return address(_stateSender);\n  }\n\n  function setCheckpointManager(address newCheckpointManager) override external only(DEFAULT_ADMIN_ROLE) {\n    _checkpointManager = ICheckpointManager(newCheckpointManager);\n  }\n\n  function checkpointManagerAddress() public view returns (address) {\n    return address(_checkpointManager);\n  }\n\n  function setChildChainManagerAddress(address newChildChainManager) external only(DEFAULT_ADMIN_ROLE) {\n    _childChainManagerAddress = newChildChainManager;\n  }\n\n  function childChainManagerAddress() public view returns (address) {\n    return _childChainManagerAddress;\n  }\n\n  function setWETH(address payable newWETHAddress) external only(DEFAULT_ADMIN_ROLE) {\n    _WETH = WETH(newWETHAddress);\n  }\n\n  function WETHAddress() public view returns (address) {\n    return address(_WETH);\n  }\n\n  function mapToken(address rootToken, address childToken) override external only(MAPPER_ROLE) {\n    _rootToChildToken[rootToken] = childToken;\n    _childToRootToken[childToken] = rootToken;\n    emit TokenMapped(rootToken, childToken);\n  }\n\n  function rootToChildToken(address rootToken) public view returns (address) {\n    return _rootToChildToken[rootToken];\n  }\n\n  function childToRootToken(address childToken) public view returns (address) {\n    return _childToRootToken[childToken];\n  }\n\n  function exitedTxs(bytes32 txHash) public view returns (bool) {\n    return _exitedTxs[txHash];\n  }\n\n  receive() external payable {\n    depositEther();\n  }\n\n  function depositEther() override public payable {\n    require(\n      address(_WETH) != address(0x0),\n      \"WETH not set\"\n    );\n    _WETH.depositFor.value(msg.value)(_msgSender());\n    _depositFor(_msgSender(), address(_WETH), msg.value);\n  }\n\n  function depositEtherFor(address user) override external payable {\n    require(\n      address(_WETH) != address(0x0),\n      \"WETH not set\"\n    );\n    _WETH.depositFor.value(msg.value)(user);\n    _depositFor(user, address(_WETH), msg.value);\n  }\n\n  function deposit(address rootToken, uint256 amount) override external {\n    _depositFor(msg.sender, rootToken, amount);\n  }\n\n  function depositFor(address user, address rootToken, uint256 amount) override external {\n    _depositFor(user, rootToken, amount);\n  }\n\n  function _depositFor(address user, address rootToken, uint256 amount) private {\n    require(\n      _rootToChildToken[rootToken] != address(0x0),\n      \"Token not mapped\"\n    );\n    require(\n      IERC20(rootToken).allowance(msg.sender, address(this)) >= amount,\n      \"Token transfer not approved\"\n    );\n    require(\n      address(_stateSender) != address(0x0),\n      \"stateSender not set\"\n    );\n    require(\n      address(_childChainManagerAddress) != address(0x0),\n      \"childChainManager not set\"\n    );\n\n    IERC20(rootToken).transferFrom(msg.sender, address(this), amount);\n    _stateSender.syncState(_childChainManagerAddress, abi.encode(user, rootToken, amount));\n    emit Locked(user, rootToken, amount);\n  }\n\n  /**\n   * @param inputData RLP encoded data of the reference tx containing following list of fields\n   *  0 - headerNumber Header block number of which the reference tx was a part of\n   *  1 - blockProof Proof that the block header (in the child chain) is a leaf in the submitted merkle root\n   *  2 - blockNumber Block number of which the reference tx is a part of\n   *  3 - blockTime Reference tx block time\n   *  4 - blocktxRoot Transactions root of block\n   *  5 - blockReceiptsRoot Receipts root of block\n   *  6 - receipt Receipt of the reference transaction\n   *  7 - receiptProof Merkle proof of the reference receipt\n   *  8 - branchMask Merkle proof branchMask for the receipt\n   *  9 - logIndex Log Index to read from the receipt\n   *  10- hash of the reference transaction\n   */\n  function exit(bytes calldata inputData) override external {\n    RLPReader.RLPItem[] memory inputDataRLPList = inputData.toRlpItem().toList();\n\n    require(\n      _exitedTxs[bytes32(inputDataRLPList[10].toUint())] == false,\n      \"Exit already processed\"\n    );\n    _exitedTxs[bytes32(inputDataRLPList[10].toUint())] = true;\n\n    uint256 logIndex = inputDataRLPList[9].toUint();\n    require(logIndex < MAX_LOGS, \"Supporting a max of 10 logs\");\n    bytes memory receipt = inputDataRLPList[6].toBytes();\n    RLPReader.RLPItem[] memory receiptRLPList = receipt.toRlpItem().toList();\n    RLPReader.RLPItem[] memory logRLPList = receiptRLPList[3].toList()[logIndex].toList();\n\n    address childToken = RLPReader.toAddress(logRLPList[0]); // log address field\n    require(\n      _childToRootToken[childToken] != address(0),\n      \"Token not mapped\"\n    );\n\n    RLPReader.RLPItem[] memory logTopicRLPList = logRLPList[1].toList(); // topics\n    require(\n      bytes32(logTopicRLPList[0].toUint()) == TRANSFER_EVENT_SIG, // topic0 is event sig\n      \"Not a transfer event signature\"\n    );\n    require(\n      msg.sender == address(logTopicRLPList[1].toUint()), // from1 is from address\n      \"Withdrawer and burn exit tx do not match\"\n    );\n    require(\n      address(logTopicRLPList[2].toUint()) == address(0), // topic2 is to address\n      \"Not a burn event\"\n    );\n\n    // TODO: verify tx inclusion\n    // required?\n\n    require(\n      inputDataRLPList[8].toBytes().toRlpItem().toUint() &\n        0xFFFFFFFFFFFFFFFFFFFFFFFFFFFFFFFFFFFFFFFFFFFFFFFFFFFFFFFF00000000 ==\n        0,\n      \"Branch mask should be 32 bits\"\n    );\n\n    uint256 headerNumber = inputDataRLPList[0].toUint();\n    require(\n      MerklePatriciaProof.verify(\n        inputDataRLPList[6].toBytes(), // receipt\n        inputDataRLPList[8].toBytes(), // branchMask\n        inputDataRLPList[7].toBytes(), // receiptProof\n        bytes32(inputDataRLPList[5].toUint()) // receiptsRoot\n      ),\n      \"Invalid receipt merkle proof\"\n    );\n\n    uint256 blockNumber = inputDataRLPList[2].toUint();\n    checkBlockMembershipInCheckpoint(\n      blockNumber,\n      inputDataRLPList[3].toUint(), // blockTime\n      bytes32(inputDataRLPList[4].toUint()), // txRoot\n      bytes32(inputDataRLPList[5].toUint()), // receiptRoot\n      headerNumber,\n      inputDataRLPList[1].toBytes() // blockProof\n    );\n\n    IERC20(\n      _childToRootToken[childToken]\n    ).transfer(msg.sender, logRLPList[2].toUint());\n\n    if (_childToRootToken[childToken] == address(_WETH)) {\n      _WETH.withdrawFor(logRLPList[2].toUint(), _msgSender());\n    }\n\n    emit Exited(msg.sender, _childToRootToken[childToken], logRLPList[2].toUint());\n  }\n\n  function checkBlockMembershipInCheckpoint(\n    uint256 blockNumber,\n    uint256 blockTime,\n    bytes32 txRoot,\n    bytes32 receiptRoot,\n    uint256 headerNumber,\n    bytes memory blockProof\n  )\n    internal\n    view\n    returns (uint256 /* createdAt */)\n  {\n    (bytes32 headerRoot, uint256 startBlock, , uint256 createdAt, ) =\n      _checkpointManager.headerBlocks(headerNumber);\n\n    require(\n      keccak256(\n        abi.encodePacked(blockNumber, blockTime, txRoot, receiptRoot)\n      ).checkMembership(\n        blockNumber - startBlock,\n        headerRoot,\n        blockProof\n      ),\n      \"Burn tx not part of submitted header\"\n    );\n    return createdAt;\n  }\n}\n",
  "sourcePath": "/Users/arth/Documents/Projects/pos-portal/contracts/root/RootChainManager.sol",
  "compiler": {
    "name": "solc",
    "version": "0.6.6+commit.6c089d02.Emscripten.clang"
  },
  "schemaVersion": "3.1.0",
  "updatedAt": "2020-05-08T08:36:35.685Z",
  "networkType": "ethereum",
  "devdoc": {
    "methods": {
      "exit(bytes)": {
        "params": {
          "inputData": "RLP encoded data of the reference tx containing following list of fields 0 - headerNumber Header block number of which the reference tx was a part of 1 - blockProof Proof that the block header (in the child chain) is a leaf in the submitted merkle root 2 - blockNumber Block number of which the reference tx is a part of 3 - blockTime Reference tx block time 4 - blocktxRoot Transactions root of block 5 - blockReceiptsRoot Receipts root of block 6 - receipt Receipt of the reference transaction 7 - receiptProof Merkle proof of the reference receipt 8 - branchMask Merkle proof branchMask for the receipt 9 - logIndex Log Index to read from the receipt 10- hash of the reference transaction"
        }
      },
      "getRoleAdmin(bytes32)": {
        "details": "Returns the admin role that controls `role`. See {grantRole} and {revokeRole}.     * To change a role's admin, use {_setRoleAdmin}."
      },
      "getRoleMember(bytes32,uint256)": {
        "details": "Returns one of the accounts that have `role`. `index` must be a value between 0 and {getRoleMemberCount}, non-inclusive.     * Role bearers are not sorted in any particular way, and their ordering may change at any point.     * WARNING: When using {getRoleMember} and {getRoleMemberCount}, make sure you perform all queries on the same block. See the following https://forum.openzeppelin.com/t/iterating-over-elements-on-enumerableset-in-openzeppelin-contracts/2296[forum post] for more information."
      },
      "getRoleMemberCount(bytes32)": {
        "details": "Returns the number of accounts that have `role`. Can be used together with {getRoleMember} to enumerate all bearers of a role."
      },
      "grantRole(bytes32,address)": {
        "details": "Grants `role` to `account`.     * If `account` had not been already granted `role`, emits a {RoleGranted} event.     * Requirements:     * - the caller must have ``role``'s admin role."
      },
      "hasRole(bytes32,address)": {
        "details": "Returns `true` if `account` has been granted `role`."
      },
      "renounceRole(bytes32,address)": {
        "details": "Revokes `role` from the calling account.     * Roles are often managed via {grantRole} and {revokeRole}: this function's purpose is to provide a mechanism for accounts to lose their privileges if they are compromised (such as when a trusted device is misplaced).     * If the calling account had been granted `role`, emits a {RoleRevoked} event.     * Requirements:     * - the caller must be `account`."
      },
      "revokeRole(bytes32,address)": {
        "details": "Revokes `role` from `account`.     * If `account` had been granted `role`, emits a {RoleRevoked} event.     * Requirements:     * - the caller must have ``role``'s admin role."
      }
    }
  },
  "userdoc": {
    "methods": {}
  }
}