{
  "contractName": "RootChainManager",
  "abi": [
    {
      "anonymous": false,
      "inputs": [
        {
          "indexed": true,
          "internalType": "bytes32",
          "name": "tokenType",
          "type": "bytes32"
        },
        {
          "indexed": true,
          "internalType": "address",
          "name": "predicateAddress",
          "type": "address"
        }
      ],
      "name": "PredicateRegistered",
      "type": "event"
    },
    {
      "anonymous": false,
      "inputs": [
        {
          "indexed": true,
          "internalType": "bytes32",
          "name": "role",
          "type": "bytes32"
        },
        {
          "indexed": true,
          "internalType": "bytes32",
          "name": "previousAdminRole",
          "type": "bytes32"
        },
        {
          "indexed": true,
          "internalType": "bytes32",
          "name": "newAdminRole",
          "type": "bytes32"
        }
      ],
      "name": "RoleAdminChanged",
      "type": "event"
    },
    {
      "anonymous": false,
      "inputs": [
        {
          "indexed": true,
          "internalType": "bytes32",
          "name": "role",
          "type": "bytes32"
        },
        {
          "indexed": true,
          "internalType": "address",
          "name": "account",
          "type": "address"
        },
        {
          "indexed": true,
          "internalType": "address",
          "name": "sender",
          "type": "address"
        }
      ],
      "name": "RoleGranted",
      "type": "event"
    },
    {
      "anonymous": false,
      "inputs": [
        {
          "indexed": true,
          "internalType": "bytes32",
          "name": "role",
          "type": "bytes32"
        },
        {
          "indexed": true,
          "internalType": "address",
          "name": "account",
          "type": "address"
        },
        {
          "indexed": true,
          "internalType": "address",
          "name": "sender",
          "type": "address"
        }
      ],
      "name": "RoleRevoked",
      "type": "event"
    },
    {
      "anonymous": false,
      "inputs": [
        {
          "indexed": true,
          "internalType": "address",
          "name": "rootToken",
          "type": "address"
        },
        {
          "indexed": true,
          "internalType": "address",
          "name": "childToken",
          "type": "address"
        },
        {
          "indexed": true,
          "internalType": "bytes32",
          "name": "tokenType",
          "type": "bytes32"
        }
      ],
      "name": "TokenMapped",
      "type": "event"
    },
    {
      "inputs": [],
      "name": "DEFAULT_ADMIN_ROLE",
      "outputs": [
        {
          "internalType": "bytes32",
          "name": "",
          "type": "bytes32"
        }
      ],
      "stateMutability": "view",
      "type": "function",
      "constant": true
    },
    {
      "inputs": [],
      "name": "DEPOSIT",
      "outputs": [
        {
          "internalType": "bytes32",
          "name": "",
          "type": "bytes32"
        }
      ],
      "stateMutability": "view",
      "type": "function",
      "constant": true
    },
    {
      "inputs": [],
      "name": "ETHER_ADDRESS",
      "outputs": [
        {
          "internalType": "address",
          "name": "",
          "type": "address"
        }
      ],
      "stateMutability": "view",
      "type": "function",
      "constant": true
    },
    {
      "inputs": [],
      "name": "MAPPER_ROLE",
      "outputs": [
        {
          "internalType": "bytes32",
          "name": "",
          "type": "bytes32"
        }
      ],
      "stateMutability": "view",
      "type": "function",
      "constant": true
    },
    {
      "inputs": [],
      "name": "MAP_TOKEN",
      "outputs": [
        {
          "internalType": "bytes32",
          "name": "",
          "type": "bytes32"
        }
      ],
      "stateMutability": "view",
      "type": "function",
      "constant": true
    },
    {
      "inputs": [],
      "name": "childChainManagerAddress",
      "outputs": [
        {
          "internalType": "address",
          "name": "",
          "type": "address"
        }
      ],
      "stateMutability": "view",
      "type": "function",
      "constant": true
    },
    {
      "inputs": [
        {
          "internalType": "address",
          "name": "",
          "type": "address"
        }
      ],
      "name": "childToRootToken",
      "outputs": [
        {
          "internalType": "address",
          "name": "",
          "type": "address"
        }
      ],
      "stateMutability": "view",
      "type": "function",
      "constant": true
    },
    {
      "inputs": [
        {
          "internalType": "bytes32",
          "name": "role",
          "type": "bytes32"
        }
      ],
      "name": "getRoleAdmin",
      "outputs": [
        {
          "internalType": "bytes32",
          "name": "",
          "type": "bytes32"
        }
      ],
      "stateMutability": "view",
      "type": "function",
      "constant": true
    },
    {
      "inputs": [
        {
          "internalType": "bytes32",
          "name": "role",
          "type": "bytes32"
        },
        {
          "internalType": "uint256",
          "name": "index",
          "type": "uint256"
        }
      ],
      "name": "getRoleMember",
      "outputs": [
        {
          "internalType": "address",
          "name": "",
          "type": "address"
        }
      ],
      "stateMutability": "view",
      "type": "function",
      "constant": true
    },
    {
      "inputs": [
        {
          "internalType": "bytes32",
          "name": "role",
          "type": "bytes32"
        }
      ],
      "name": "getRoleMemberCount",
      "outputs": [
        {
          "internalType": "uint256",
          "name": "",
          "type": "uint256"
        }
      ],
      "stateMutability": "view",
      "type": "function",
      "constant": true
    },
    {
      "inputs": [
        {
          "internalType": "bytes32",
          "name": "role",
          "type": "bytes32"
        },
        {
          "internalType": "address",
          "name": "account",
          "type": "address"
        }
      ],
      "name": "grantRole",
      "outputs": [],
      "stateMutability": "nonpayable",
      "type": "function"
    },
    {
      "inputs": [
        {
          "internalType": "bytes32",
          "name": "role",
          "type": "bytes32"
        },
        {
          "internalType": "address",
          "name": "account",
          "type": "address"
        }
      ],
      "name": "hasRole",
      "outputs": [
        {
          "internalType": "bool",
          "name": "",
          "type": "bool"
        }
      ],
      "stateMutability": "view",
      "type": "function",
      "constant": true
    },
    {
      "inputs": [
        {
          "internalType": "bytes32",
          "name": "",
          "type": "bytes32"
        }
      ],
      "name": "processedExits",
      "outputs": [
        {
          "internalType": "bool",
          "name": "",
          "type": "bool"
        }
      ],
      "stateMutability": "view",
      "type": "function",
      "constant": true
    },
    {
      "inputs": [
        {
          "internalType": "bytes32",
          "name": "role",
          "type": "bytes32"
        },
        {
          "internalType": "address",
          "name": "account",
          "type": "address"
        }
      ],
      "name": "renounceRole",
      "outputs": [],
      "stateMutability": "nonpayable",
      "type": "function"
    },
    {
      "inputs": [
        {
          "internalType": "bytes32",
          "name": "role",
          "type": "bytes32"
        },
        {
          "internalType": "address",
          "name": "account",
          "type": "address"
        }
      ],
      "name": "revokeRole",
      "outputs": [],
      "stateMutability": "nonpayable",
      "type": "function"
    },
    {
      "inputs": [
        {
          "internalType": "address",
          "name": "",
          "type": "address"
        }
      ],
      "name": "rootToChildToken",
      "outputs": [
        {
          "internalType": "address",
          "name": "",
          "type": "address"
        }
      ],
      "stateMutability": "view",
      "type": "function",
      "constant": true
    },
    {
      "inputs": [
        {
          "internalType": "address",
          "name": "",
          "type": "address"
        }
      ],
      "name": "tokenToType",
      "outputs": [
        {
          "internalType": "bytes32",
          "name": "",
          "type": "bytes32"
        }
      ],
      "stateMutability": "view",
      "type": "function",
      "constant": true
    },
    {
      "inputs": [
        {
          "internalType": "bytes32",
          "name": "",
          "type": "bytes32"
        }
      ],
      "name": "typeToPredicate",
      "outputs": [
        {
          "internalType": "address",
          "name": "",
          "type": "address"
        }
      ],
      "stateMutability": "view",
      "type": "function",
      "constant": true
    },
    {
      "stateMutability": "payable",
      "type": "receive",
      "payable": true
    },
    {
      "inputs": [
        {
          "internalType": "address",
          "name": "_owner",
          "type": "address"
        }
      ],
      "name": "initialize",
      "outputs": [],
      "stateMutability": "nonpayable",
      "type": "function"
    },
    {
      "inputs": [
        {
          "internalType": "address",
          "name": "newStateSender",
          "type": "address"
        }
      ],
      "name": "setStateSender",
      "outputs": [],
      "stateMutability": "nonpayable",
      "type": "function"
    },
    {
      "inputs": [],
      "name": "stateSenderAddress",
      "outputs": [
        {
          "internalType": "address",
          "name": "",
          "type": "address"
        }
      ],
      "stateMutability": "view",
      "type": "function",
      "constant": true
    },
    {
      "inputs": [
        {
          "internalType": "address",
          "name": "newCheckpointManager",
          "type": "address"
        }
      ],
      "name": "setCheckpointManager",
      "outputs": [],
      "stateMutability": "nonpayable",
      "type": "function"
    },
    {
      "inputs": [],
      "name": "checkpointManagerAddress",
      "outputs": [
        {
          "internalType": "address",
          "name": "",
          "type": "address"
        }
      ],
      "stateMutability": "view",
      "type": "function",
      "constant": true
    },
    {
      "inputs": [
        {
          "internalType": "address",
          "name": "newChildChainManager",
          "type": "address"
        }
      ],
      "name": "setChildChainManagerAddress",
      "outputs": [],
      "stateMutability": "nonpayable",
      "type": "function"
    },
    {
      "inputs": [
        {
          "internalType": "bytes32",
          "name": "tokenType",
          "type": "bytes32"
        },
        {
          "internalType": "address",
          "name": "predicateAddress",
          "type": "address"
        }
      ],
      "name": "registerPredicate",
      "outputs": [],
      "stateMutability": "nonpayable",
      "type": "function"
    },
    {
      "inputs": [
        {
          "internalType": "address",
          "name": "rootToken",
          "type": "address"
        },
        {
          "internalType": "address",
          "name": "childToken",
          "type": "address"
        },
        {
          "internalType": "bytes32",
          "name": "tokenType",
          "type": "bytes32"
        }
      ],
      "name": "mapToken",
      "outputs": [],
      "stateMutability": "nonpayable",
      "type": "function"
    },
    {
      "inputs": [
        {
          "internalType": "address",
          "name": "user",
          "type": "address"
        }
      ],
      "name": "depositEtherFor",
      "outputs": [],
      "stateMutability": "payable",
      "type": "function",
      "payable": true
    },
    {
      "inputs": [
        {
          "internalType": "address",
          "name": "user",
          "type": "address"
        },
        {
          "internalType": "address",
          "name": "rootToken",
          "type": "address"
        },
        {
          "internalType": "bytes",
          "name": "depositData",
          "type": "bytes"
        }
      ],
      "name": "depositFor",
      "outputs": [],
      "stateMutability": "nonpayable",
      "type": "function"
    },
    {
      "inputs": [
        {
          "internalType": "bytes",
          "name": "inputData",
          "type": "bytes"
        }
      ],
      "name": "exit",
      "outputs": [],
      "stateMutability": "nonpayable",
      "type": "function"
    }
  ],
  "bytecode": "0x608060405260008060006101000a81548160ff02191690831515021790555034801561002a57600080fd5b5061408f8061003a6000396000f3fe6080604052600436106101c65760003560e01c80639173b139116100f7578063d547741f11610095578063e3dec8fb11610064578063e3dec8fb14610a59578063e43009a614610b1f578063e66f960314610b84578063ea60c7c414610bff576101dd565b8063d547741f1461092b578063d81c8e5214610986578063dc993a23146109b1578063e2c49de114610a02576101dd565b8063bc08452b116100d1578063bc08452b146107e3578063c4d66de814610834578063ca15c87314610885578063cf1d21c0146108d4576101dd565b80639173b139146106ca57806391d1485414610745578063a217fddf146107b8576101dd565b80634faa8a26116101645780636cb136b01161013e5780636cb136b0146105385780636e86b77014610589578063886a69ba1461061a5780639010d07c14610645576101dd565b80634faa8a2614610476578063568b80b5146104ba578063607f2d42146104e5576101dd565b80632f2ff15d116101a05780632f2ff15d146102e35780633138b6f11461033e57806336568abe146103955780633805550f146103f0576101dd565b806304967702146101e25780630c59822014610239578063248a9ca314610294576101dd565b366101dd576101db6101d6610c90565b610c98565b005b600080fd5b3480156101ee57600080fd5b506101f7610e29565b604051808273ffffffffffffffffffffffffffffffffffffffff1673ffffffffffffffffffffffffffffffffffffffff16815260200191505060405180910390f35b34801561024557600080fd5b506102926004803603604081101561025c57600080fd5b8101908080359060200190929190803573ffffffffffffffffffffffffffffffffffffffff169060200190929190505050610e4f565b005b3480156102a057600080fd5b506102cd600480360360208110156102b757600080fd5b8101908080359060200190929190505050610f86565b6040518082815260200191505060405180910390f35b3480156102ef57600080fd5b5061033c6004803603604081101561030657600080fd5b8101908080359060200190929190803573ffffffffffffffffffffffffffffffffffffffff169060200190929190505050610fa6565b005b34801561034a57600080fd5b50610353611030565b604051808273ffffffffffffffffffffffffffffffffffffffff1673ffffffffffffffffffffffffffffffffffffffff16815260200191505060405180910390f35b3480156103a157600080fd5b506103ee600480360360408110156103b857600080fd5b8101908080359060200190929190803573ffffffffffffffffffffffffffffffffffffffff16906020019092919050505061105a565b005b3480156103fc57600080fd5b506104746004803603602081101561041357600080fd5b810190808035906020019064010000000081111561043057600080fd5b82018360208201111561044257600080fd5b8035906020019184600183028401116401000000008311171561046457600080fd5b90919293919293905050506110f3565b005b6104b86004803603602081101561048c57600080fd5b81019080803573ffffffffffffffffffffffffffffffffffffffff1690602001909291905050506119d5565b005b3480156104c657600080fd5b506104cf6119e1565b6040518082815260200191505060405180910390f35b3480156104f157600080fd5b5061051e6004803603602081101561050857600080fd5b8101908080359060200190929190505050611a1a565b604051808215151515815260200191505060405180910390f35b34801561054457600080fd5b506105876004803603602081101561055b57600080fd5b81019080803573ffffffffffffffffffffffffffffffffffffffff169060200190929190505050611a3a565b005b34801561059557600080fd5b506105d8600480360360208110156105ac57600080fd5b81019080803573ffffffffffffffffffffffffffffffffffffffff169060200190929190505050611ae9565b604051808273ffffffffffffffffffffffffffffffffffffffff1673ffffffffffffffffffffffffffffffffffffffff16815260200191505060405180910390f35b34801561062657600080fd5b5061062f611b1c565b6040518082815260200191505060405180910390f35b34801561065157600080fd5b506106886004803603604081101561066857600080fd5b810190808035906020019092919080359060200190929190505050611b55565b604051808273ffffffffffffffffffffffffffffffffffffffff1673ffffffffffffffffffffffffffffffffffffffff16815260200191505060405180910390f35b3480156106d657600080fd5b50610743600480360360608110156106ed57600080fd5b81019080803573ffffffffffffffffffffffffffffffffffffffff169060200190929190803573ffffffffffffffffffffffffffffffffffffffff16906020019092919080359060200190929190505050611b87565b005b34801561075157600080fd5b5061079e6004803603604081101561076857600080fd5b8101908080359060200190929190803573ffffffffffffffffffffffffffffffffffffffff169060200190929190505050612113565b604051808215151515815260200191505060405180910390f35b3480156107c457600080fd5b506107cd612145565b6040518082815260200191505060405180910390f35b3480156107ef57600080fd5b506108326004803603602081101561080657600080fd5b81019080803573ffffffffffffffffffffffffffffffffffffffff16906020019092919050505061214c565b005b34801561084057600080fd5b506108836004803603602081101561085757600080fd5b81019080803573ffffffffffffffffffffffffffffffffffffffff1690602001909291905050506121fb565b005b34801561089157600080fd5b506108be600480360360208110156108a857600080fd5b81019080803590602001909291905050506122e6565b6040518082815260200191505060405180910390f35b3480156108e057600080fd5b506108e961230d565b604051808273ffffffffffffffffffffffffffffffffffffffff1673ffffffffffffffffffffffffffffffffffffffff16815260200191505060405180910390f35b34801561093757600080fd5b506109846004803603604081101561094e57600080fd5b8101908080359060200190929190803573ffffffffffffffffffffffffffffffffffffffff169060200190929190505050612325565b005b34801561099257600080fd5b5061099b6123af565b6040518082815260200191505060405180910390f35b3480156109bd57600080fd5b50610a00600480360360208110156109d457600080fd5b81019080803573ffffffffffffffffffffffffffffffffffffffff1690602001909291905050506123e8565b005b348015610a0e57600080fd5b50610a17612497565b604051808273ffffffffffffffffffffffffffffffffffffffff1673ffffffffffffffffffffffffffffffffffffffff16815260200191505060405180910390f35b348015610a6557600080fd5b50610b1d60048036036060811015610a7c57600080fd5b81019080803573ffffffffffffffffffffffffffffffffffffffff169060200190929190803573ffffffffffffffffffffffffffffffffffffffff16906020019092919080359060200190640100000000811115610ad957600080fd5b820183602082011115610aeb57600080fd5b80359060200191846001830284011164010000000083111715610b0d57600080fd5b90919293919293905050506124c1565b005b348015610b2b57600080fd5b50610b6e60048036036020811015610b4257600080fd5b81019080803573ffffffffffffffffffffffffffffffffffffffff169060200190929190505050612516565b6040518082815260200191505060405180910390f35b348015610b9057600080fd5b50610bbd60048036036020811015610ba757600080fd5b810190808035906020019092919050505061252e565b604051808273ffffffffffffffffffffffffffffffffffffffff1673ffffffffffffffffffffffffffffffffffffffff16815260200191505060405180910390f35b348015610c0b57600080fd5b50610c4e60048036036020811015610c2257600080fd5b81019080803573ffffffffffffffffffffffffffffffffffffffff169060200190929190505050612561565b604051808273ffffffffffffffffffffffffffffffffffffffff1673ffffffffffffffffffffffffffffffffffffffff16815260200191505060405180910390f35b600033905090565b606034604051602001808281526020019150506040516020818303038152906040529050610cdb8273eeeeeeeeeeeeeeeeeeeeeeeeeeeeeeeeeeeeeeee83612594565b60006060600260006005600073eeeeeeeeeeeeeeeeeeeeeeeeeeeeeeeeeeeeeeee73ffffffffffffffffffffffffffffffffffffffff1673ffffffffffffffffffffffffffffffffffffffff16815260200190815260200160002054815260200190815260200160002060009054906101000a900473ffffffffffffffffffffffffffffffffffffffff1673ffffffffffffffffffffffffffffffffffffffff163460405180600001905060006040518083038185875af1925050503d8060008114610dc3576040519150601f19603f3d011682016040523d82523d6000602084013e610dc8565b606091505b509150915081610e23576040517f08c379a0000000000000000000000000000000000000000000000000000000008152600401808060200182810382526027815260200180613fdc6027913960400191505060405180910390fd5b50505050565b600960009054906101000a900473ffffffffffffffffffffffffffffffffffffffff1681565b60405180807f4d41505045525f524f4c45000000000000000000000000000000000000000000815250600b0190506040518091039020610e9681610e91610c90565b612113565b610eeb576040517f08c379a000000000000000000000000000000000000000000000000000000000815260040180806020018281038252602a815260200180613fb2602a913960400191505060405180910390fd5b816002600085815260200190815260200160002060006101000a81548173ffffffffffffffffffffffffffffffffffffffff021916908373ffffffffffffffffffffffffffffffffffffffff1602179055508173ffffffffffffffffffffffffffffffffffffffff16837f8643692ae1c12ec91fa18e50b82ed93fa314f580999a236824db6de9ae0d839b60405160405180910390a3505050565b600060016000838152602001908152602001600020600201549050919050565b610fcd6001600084815260200190815260200160002060020154610fc8610c90565b612113565b611022576040517f08c379a000000000000000000000000000000000000000000000000000000000815260040180806020018281038252602f815260200180613ee8602f913960400191505060405180910390fd5b61102c8282612c38565b5050565b6000600860009054906101000a900473ffffffffffffffffffffffffffffffffffffffff16905090565b611062610c90565b73ffffffffffffffffffffffffffffffffffffffff168173ffffffffffffffffffffffffffffffffffffffff16146110e5576040517f08c379a000000000000000000000000000000000000000000000000000000000815260040180806020018281038252602f81526020018061402b602f913960400191505060405180910390fd5b6110ef8282612ccc565b5050565b606061114a61114584848080601f016020809104026020016040519081016040528093929190818152602001838380828437600081840152601f19601f82011690508083019250505050505050612d60565b612d8e565b9050600061116b8260028151811061115e57fe5b6020026020010151612e82565b6111888360068151811061117b57fe5b6020026020010151612e82565b6111a58460098151811061119857fe5b6020026020010151612e82565b6040516020018084805190602001908083835b602083106111db57805182526020820191506020810190506020830392506111b8565b6001836020036101000a03801982511681845116808217855250505050505090500183805190602001908083835b6020831061122c5780518252602082019150602081019050602083039250611209565b6001836020036101000a03801982511681845116808217855250505050505090500182805190602001908083835b6020831061127d578051825260208201915060208101905060208303925061125a565b6001836020036101000a0380198251168184511680821785525050505050509050019350505050604051602081830303815290604052805190602001209050600015156006600083815260200190815260200160002060009054906101000a900460ff16151514611339576040517f08c379a00000000000000000000000000000000000000000000000000000000081526004018080602001828103825260288152602001806140036028913960400191505060405180910390fd5b60016006600083815260200190815260200160002060006101000a81548160ff021916908315150217905550606061139461138f61138a8560068151811061137d57fe5b6020026020010151612e82565b612d60565b612d8e565b905061139e613e81565b6113bb826003815181106113ae57fe5b6020026020010151612d8e565b6113d8856009815181106113cb57fe5b6020026020010151612f25565b815181106113e257fe5b6020026020010151905060006114136113fa83612d8e565b60008151811061140657fe5b6020026020010151612f96565b9050600073ffffffffffffffffffffffffffffffffffffffff16600460008373ffffffffffffffffffffffffffffffffffffffff1673ffffffffffffffffffffffffffffffffffffffff16815260200190815260200160002060009054906101000a900473ffffffffffffffffffffffffffffffffffffffff1673ffffffffffffffffffffffffffffffffffffffff1614156114fa576040517f08c379a0000000000000000000000000000000000000000000000000000000008152600401808060200182810382526022815260200180613f606022913960400191505060405180910390fd5b60006002600060056000600460008773ffffffffffffffffffffffffffffffffffffffff1673ffffffffffffffffffffffffffffffffffffffff16815260200190815260200160002060009054906101000a900473ffffffffffffffffffffffffffffffffffffffff1673ffffffffffffffffffffffffffffffffffffffff1673ffffffffffffffffffffffffffffffffffffffff16815260200190815260200160002054815260200190815260200160002060009054906101000a900473ffffffffffffffffffffffffffffffffffffffff16905060007fffffffffffffffffffffffffffffffffffffffffffffffffffffffff0000000061162061161b6116168a60088151811061160957fe5b6020026020010151612e82565b612d60565b612f25565b1614611677576040517f08c379a0000000000000000000000000000000000000000000000000000000008152600401808060200182810382526025815260200180613f3b6025913960400191505060405180910390fd5b6116f66116978760068151811061168a57fe5b6020026020010151612e82565b6116b4886008815181106116a757fe5b6020026020010151612e82565b6116d1896007815181106116c457fe5b6020026020010151612e82565b6116ee8a6005815181106116e157fe5b6020026020010151612f25565b60001b612fb9565b611768576040517f08c379a000000000000000000000000000000000000000000000000000000000815260040180806020018281038252601f8152602001807f526f6f74436861696e4d616e616765723a20494e56414c49445f50524f4f460081525060200191505060405180910390fd5b6118246117888760028151811061177b57fe5b6020026020010151612f25565b6117a58860038151811061179857fe5b6020026020010151612f25565b6117c2896004815181106117b557fe5b6020026020010151612f25565b60001b6117e28a6005815181106117d557fe5b6020026020010151612f25565b60001b6118028b6000815181106117f557fe5b6020026020010151612f25565b61181f8c60018151811061181257fe5b6020026020010151612e82565b61328f565b508073ffffffffffffffffffffffffffffffffffffffff16638274664f611849610c90565b600460008673ffffffffffffffffffffffffffffffffffffffff1673ffffffffffffffffffffffffffffffffffffffff16815260200190815260200160002060009054906101000a900473ffffffffffffffffffffffffffffffffffffffff166118b28761353e565b6040518463ffffffff1660e01b8152600401808473ffffffffffffffffffffffffffffffffffffffff1673ffffffffffffffffffffffffffffffffffffffff1681526020018373ffffffffffffffffffffffffffffffffffffffff1673ffffffffffffffffffffffffffffffffffffffff16815260200180602001828103825283818151815260200191508051906020019080838360005b8381101561196557808201518184015260208101905061194a565b50505050905090810190601f1680156119925780820380516001836020036101000a031916815260200191505b50945050505050600060405180830381600087803b1580156119b357600080fd5b505af11580156119c7573d6000803e3d6000fd5b505050505050505050505050565b6119de81610c98565b50565b60405180807f4d41505045525f524f4c45000000000000000000000000000000000000000000815250600b019050604051809103902081565b60066020528060005260406000206000915054906101000a900460ff1681565b6000801b611a4f81611a4a610c90565b612113565b611aa4576040517f08c379a000000000000000000000000000000000000000000000000000000000815260040180806020018281038252602a815260200180613fb2602a913960400191505060405180910390fd5b81600760006101000a81548173ffffffffffffffffffffffffffffffffffffffff021916908373ffffffffffffffffffffffffffffffffffffffff1602179055505050565b60046020528060005260406000206000915054906101000a900473ffffffffffffffffffffffffffffffffffffffff1681565b60405180807f4d41505f544f4b454e00000000000000000000000000000000000000000000008152506009019050604051809103902081565b6000611b7f82600160008681526020019081526020016000206000016135cb90919063ffffffff16565b905092915050565b60405180807f4d41505045525f524f4c45000000000000000000000000000000000000000000815250600b0190506040518091039020611bce81611bc9610c90565b612113565b611c23576040517f08c379a000000000000000000000000000000000000000000000000000000000815260040180806020018281038252602a815260200180613fb2602a913960400191505060405180910390fd5b600073ffffffffffffffffffffffffffffffffffffffff166002600084815260200190815260200160002060009054906101000a900473ffffffffffffffffffffffffffffffffffffffff1673ffffffffffffffffffffffffffffffffffffffff161415611cdc576040517f08c379a000000000000000000000000000000000000000000000000000000000815260040180806020018281038252602a815260200180613e9c602a913960400191505060405180910390fd5b82600360008673ffffffffffffffffffffffffffffffffffffffff1673ffffffffffffffffffffffffffffffffffffffff16815260200190815260200160002060006101000a81548173ffffffffffffffffffffffffffffffffffffffff021916908373ffffffffffffffffffffffffffffffffffffffff16021790555083600460008573ffffffffffffffffffffffffffffffffffffffff1673ffffffffffffffffffffffffffffffffffffffff16815260200190815260200160002060006101000a81548173ffffffffffffffffffffffffffffffffffffffff021916908373ffffffffffffffffffffffffffffffffffffffff16021790555081600560008673ffffffffffffffffffffffffffffffffffffffff1673ffffffffffffffffffffffffffffffffffffffff16815260200190815260200160002081905550818373ffffffffffffffffffffffffffffffffffffffff168573ffffffffffffffffffffffffffffffffffffffff167f9e651a8866fbea043e911d816ec254b0e3c992c06fff32d605e72362d6023bd960405160405180910390a46060848484604051602001808473ffffffffffffffffffffffffffffffffffffffff1673ffffffffffffffffffffffffffffffffffffffff1681526020018373ffffffffffffffffffffffffffffffffffffffff1673ffffffffffffffffffffffffffffffffffffffff16815260200182815260200193505050506040516020818303038152906040529050600760009054906101000a900473ffffffffffffffffffffffffffffffffffffffff1673ffffffffffffffffffffffffffffffffffffffff166316f19831600960009054906101000a900473ffffffffffffffffffffffffffffffffffffffff1660405180807f4d41505f544f4b454e000000000000000000000000000000000000000000000081525060090190506040518091039020846040516020018083815260200180602001828103825283818151815260200191508051906020019080838360005b83811015611fe4578082015181840152602081019050611fc9565b50505050905090810190601f1680156120115780820380516001836020036101000a031916815260200191505b5093505050506040516020818303038152906040526040518363ffffffff1660e01b8152600401808373ffffffffffffffffffffffffffffffffffffffff1673ffffffffffffffffffffffffffffffffffffffff16815260200180602001828103825283818151815260200191508051906020019080838360005b838110156120a757808201518184015260208101905061208c565b50505050905090810190601f1680156120d45780820380516001836020036101000a031916815260200191505b509350505050600060405180830381600087803b1580156120f457600080fd5b505af1158015612108573d6000803e3d6000fd5b505050505050505050565b600061213d82600160008681526020019081526020016000206000016135e590919063ffffffff16565b905092915050565b6000801b81565b6000801b6121618161215c610c90565b612113565b6121b6576040517f08c379a000000000000000000000000000000000000000000000000000000000815260040180806020018281038252602a815260200180613fb2602a913960400191505060405180910390fd5b81600860006101000a81548173ffffffffffffffffffffffffffffffffffffffff021916908373ffffffffffffffffffffffffffffffffffffffff1602179055505050565b6000809054906101000a900460ff161561227d576040517f08c379a000000000000000000000000000000000000000000000000000000000815260040180806020018281038252600e8152602001807f616c726561647920696e6974656400000000000000000000000000000000000081525060200191505060405180910390fd5b60016000806101000a81548160ff0219169083151502179055506122a46000801b82613615565b6122e360405180807f4d41505045525f524f4c45000000000000000000000000000000000000000000815250600b019050604051809103902082613615565b50565b600061230660016000848152602001908152602001600020600001613623565b9050919050565b73eeeeeeeeeeeeeeeeeeeeeeeeeeeeeeeeeeeeeeee81565b61234c6001600084815260200190815260200160002060020154612347610c90565b612113565b6123a1576040517f08c379a0000000000000000000000000000000000000000000000000000000008152600401808060200182810382526030815260200180613f826030913960400191505060405180910390fd5b6123ab8282612ccc565b5050565b60405180807f4445504f534954000000000000000000000000000000000000000000000000008152506007019050604051809103902081565b6000801b6123fd816123f8610c90565b612113565b612452576040517f08c379a000000000000000000000000000000000000000000000000000000000815260040180806020018281038252602a815260200180613fb2602a913960400191505060405180910390fd5b81600960006101000a81548173ffffffffffffffffffffffffffffffffffffffff021916908373ffffffffffffffffffffffffffffffffffffffff1602179055505050565b6000600760009054906101000a900473ffffffffffffffffffffffffffffffffffffffff16905090565b612510848484848080601f016020809104026020016040519081016040528093929190818152602001838380828437600081840152601f19601f82011690508083019250505050505050612594565b50505050565b60056020528060005260406000206000915090505481565b60026020528060005260406000206000915054906101000a900473ffffffffffffffffffffffffffffffffffffffff1681565b60036020528060005260406000206000915054906101000a900473ffffffffffffffffffffffffffffffffffffffff1681565b600073ffffffffffffffffffffffffffffffffffffffff16600360008473ffffffffffffffffffffffffffffffffffffffff1673ffffffffffffffffffffffffffffffffffffffff16815260200190815260200160002060009054906101000a900473ffffffffffffffffffffffffffffffffffffffff1673ffffffffffffffffffffffffffffffffffffffff161415801561267257506000801b600560008473ffffffffffffffffffffffffffffffffffffffff1673ffffffffffffffffffffffffffffffffffffffff1681526020019081526020016000205414155b6126c7576040517f08c379a0000000000000000000000000000000000000000000000000000000008152600401808060200182810382526022815260200180613f606022913960400191505060405180910390fd5b600060026000600560008673ffffffffffffffffffffffffffffffffffffffff1673ffffffffffffffffffffffffffffffffffffffff16815260200190815260200160002054815260200190815260200160002060009054906101000a900473ffffffffffffffffffffffffffffffffffffffff169050600073ffffffffffffffffffffffffffffffffffffffff168173ffffffffffffffffffffffffffffffffffffffff1614156127c4576040517f08c379a0000000000000000000000000000000000000000000000000000000008152600401808060200182810382526024815260200180613f176024913960400191505060405180910390fd5b8073ffffffffffffffffffffffffffffffffffffffff1663e375b64e6127e8610c90565b8686866040518563ffffffff1660e01b8152600401808573ffffffffffffffffffffffffffffffffffffffff1673ffffffffffffffffffffffffffffffffffffffff1681526020018473ffffffffffffffffffffffffffffffffffffffff1673ffffffffffffffffffffffffffffffffffffffff1681526020018373ffffffffffffffffffffffffffffffffffffffff1673ffffffffffffffffffffffffffffffffffffffff16815260200180602001828103825283818151815260200191508051906020019080838360005b838110156128d05780820151818401526020810190506128b5565b50505050905090810190601f1680156128fd5780820380516001836020036101000a031916815260200191505b5095505050505050600060405180830381600087803b15801561291f57600080fd5b505af1158015612933573d6000803e3d6000fd5b505050506060848484604051602001808473ffffffffffffffffffffffffffffffffffffffff1673ffffffffffffffffffffffffffffffffffffffff1681526020018373ffffffffffffffffffffffffffffffffffffffff1673ffffffffffffffffffffffffffffffffffffffff16815260200180602001828103825283818151815260200191508051906020019080838360005b838110156129e35780820151818401526020810190506129c8565b50505050905090810190601f168015612a105780820380516001836020036101000a031916815260200191505b509450505050506040516020818303038152906040529050600760009054906101000a900473ffffffffffffffffffffffffffffffffffffffff1673ffffffffffffffffffffffffffffffffffffffff166316f19831600960009054906101000a900473ffffffffffffffffffffffffffffffffffffffff1660405180807f4445504f5349540000000000000000000000000000000000000000000000000081525060070190506040518091039020846040516020018083815260200180602001828103825283818151815260200191508051906020019080838360005b83811015612b09578082015181840152602081019050612aee565b50505050905090810190601f168015612b365780820380516001836020036101000a031916815260200191505b5093505050506040516020818303038152906040526040518363ffffffff1660e01b8152600401808373ffffffffffffffffffffffffffffffffffffffff1673ffffffffffffffffffffffffffffffffffffffff16815260200180602001828103825283818151815260200191508051906020019080838360005b83811015612bcc578082015181840152602081019050612bb1565b50505050905090810190601f168015612bf95780820380516001836020036101000a031916815260200191505b509350505050600060405180830381600087803b158015612c1957600080fd5b505af1158015612c2d573d6000803e3d6000fd5b505050505050505050565b612c60816001600085815260200190815260200160002060000161363890919063ffffffff16565b15612cc857612c6d610c90565b73ffffffffffffffffffffffffffffffffffffffff168173ffffffffffffffffffffffffffffffffffffffff16837f2f8788117e7eff1d82e926ec794901d17c78024a50270940304540a733656f0d60405160405180910390a45b5050565b612cf4816001600085815260200190815260200160002060000161366890919063ffffffff16565b15612d5c57612d01610c90565b73ffffffffffffffffffffffffffffffffffffffff168173ffffffffffffffffffffffffffffffffffffffff16837ff6391f5c32d9c69d2a47ea670b442974b53935d1edc7fd64eb21e047a839171b60405160405180910390a45b5050565b612d68613e81565b600060208301905060405180604001604052808451815260200182815250915050919050565b6060612d9982613698565b612da257600080fd5b6000612dad836136e6565b905060608167ffffffffffffffff81118015612dc857600080fd5b50604051908082528060200260200182016040528015612e0257816020015b612def613e81565b815260200190600190039081612de75790505b5090506000612e148560200151613757565b8560200151019050600080600090505b84811015612e7557612e35836137e0565b9150604051806040016040528083815260200184815250848281518110612e5857fe5b602002602001018190525081830192508080600101915050612e24565b5082945050505050919050565b60606000826000015111612e9557600080fd5b6000612ea48360200151613757565b9050600081846000015103905060608167ffffffffffffffff81118015612eca57600080fd5b506040519080825280601f01601f191660200182016040528015612efd5781602001600182028036833780820191505090505b5090506000816020019050612f19848760200151018285613898565b81945050505050919050565b6000808260000151118015612f3f57506021826000015111155b612f4857600080fd5b6000612f578360200151613757565b90506000818460000151039050600080838660200151019050805191506020831015612f8a57826020036101000a820491505b81945050505050919050565b60006015826000015114612fa957600080fd5b612fb282612f25565b9050919050565b6000612fc3613e81565b612fcc84612d60565b90506060612fd982612d8e565b9050606080600086905060008090506060612ff38b6138ff565b905060008151141561300f576000975050505050505050613287565b60008090505b865181101561327e57815183111561303857600098505050505050505050613287565b61305487828151811061304757fe5b602002602001015161353e565b95508580519060200120841461307557600098505050505050505050613287565b61309187828151811061308457fe5b6020026020010151612d8e565b94506011855114156131665781518314156130fa578c805190602001206130cb866010815181106130be57fe5b6020026020010151612e82565b8051906020012014156130e957600198505050505050505050613287565b600098505050505050505050613287565b600082848151811061310857fe5b602001015160f81c60f81b60f81c905060108160ff1611156131365760009950505050505050505050613287565b613155868260ff168151811061314857fe5b6020026020010151613ab4565b60001b945060018401935050613271565b60028551141561325f576131976131908660008151811061318357fe5b6020026020010151612e82565b8385613ae2565b8301925081518314156131f8578c805190602001206131c9866001815181106131bc57fe5b6020026020010151612e82565b8051906020012014156131e757600198505050505050505050613287565b600098505050505050505050613287565b600061322161321a8760008151811061320d57fe5b6020026020010151612e82565b8486613ae2565b141561323857600098505050505050505050613287565b6132558560018151811061324857fe5b6020026020010151613ab4565b60001b9350613270565b600098505050505050505050613287565b5b8080600101915050613015565b50505050505050505b949350505050565b600080600080600860009054906101000a900473ffffffffffffffffffffffffffffffffffffffff1673ffffffffffffffffffffffffffffffffffffffff166341539d4a876040518263ffffffff1660e01b81526004018082815260200191505060a06040518083038186803b15801561330857600080fd5b505afa15801561331c573d6000803e3d6000fd5b505050506040513d60a081101561333257600080fd5b810190808051906020019092919080519060200190929190805190602001909291908051906020019092919080519060200190929190505050509350509250925089898989604051602001808581526020018481526020018381526020018281526020019450505050506040516020818303038152906040528051906020012073__Merkle________________________________636c8f455c9091848d0386896040518563ffffffff1660e01b81526004018085815260200184815260200183815260200180602001828103825283818151815260200191508051906020019080838360005b83811015613434578082015181840152602081019050613419565b50505050905090810190601f1680156134615780820380516001836020036101000a031916815260200191505b509550505050505060206040518083038186803b15801561348157600080fd5b505af4158015613495573d6000803e3d6000fd5b505050506040513d60208110156134ab57600080fd5b810190808051906020019092919050505061352e576040517f08c379a00000000000000000000000000000000000000000000000000000000081526004018080602001828103825260208152602001807f526f6f74436861696e4d616e616765723a20494e56414c49445f48454144455281525060200191505060405180910390fd5b8093505050509695505050505050565b606080826000015167ffffffffffffffff8111801561355c57600080fd5b506040519080825280601f01601f19166020018201604052801561358f5781602001600182028036833780820191505090505b5090506000815114156135a557809150506135c6565b60008160200190506135c08460200151828660000151613898565b81925050505b919050565b60006135da8360000183613bec565b60001c905092915050565b600061360d836000018373ffffffffffffffffffffffffffffffffffffffff1660001b613c6f565b905092915050565b61361f8282612c38565b5050565b600061363182600001613c92565b9050919050565b6000613660836000018373ffffffffffffffffffffffffffffffffffffffff1660001b613ca3565b905092915050565b6000613690836000018373ffffffffffffffffffffffffffffffffffffffff1660001b613d13565b905092915050565b600080826000015114156136af57600090506136e1565b60008083602001519050805160001a915060c060ff168260ff1610156136da576000925050506136e1565b6001925050505b919050565b600080826000015114156136fd5760009050613752565b600080905060006137118460200151613757565b84602001510190506000846000015185602001510190505b8082101561374b5761373a826137e0565b820191508280600101935050613729565b8293505050505b919050565b600080825160001a9050608060ff168110156137775760009150506137db565b60b860ff1681108061379c575060c060ff16811015801561379b575060f860ff1681105b5b156137ab5760019150506137db565b60c060ff168110156137cb5760018060b80360ff168203019150506137db565b60018060f80360ff168203019150505b919050565b6000806000835160001a9050608060ff16811015613801576001915061388e565b60b860ff1681101561381e576001608060ff16820301915061388d565b60c060ff1681101561384e5760b78103600185019450806020036101000a8551046001820181019350505061388c565b60f860ff1681101561386b57600160c060ff16820301915061388b565b60f78103600185019450806020036101000a855104600182018101935050505b5b5b5b8192505050919050565b60008114156138a6576138fa565b5b602060ff1681106138d65782518252602060ff1683019250602060ff1682019150602060ff16810390506138a7565b6000600182602060ff16036101000a03905080198451168184511681811785525050505b505050565b606080600083511115613aab5760008061391a600086613dfb565b60f81c905060018160ff161480613934575060038160ff16145b156139e357600160028651020367ffffffffffffffff8111801561395757600080fd5b506040519080825280601f01601f19166020018201604052801561398a5781602001600182028036833780820191505090505b509250600061399a600187613dfb565b905080846000815181106139aa57fe5b60200101907effffffffffffffffffffffffffffffffffffffffffffffffffffffffffffff1916908160001a9053506001925050613a3b565b6002808651020367ffffffffffffffff81118015613a0057600080fd5b506040519080825280601f01601f191660200182016040528015613a335781602001600182028036833780820191505090505b509250600091505b60008260ff1690505b8351811015613aa757613a5f60028460ff1683030187613dfb565b848281518110613a6b57fe5b60200101907effffffffffffffffffffffffffffffffffffffffffffffffffffffffffffff1916908160001a9053508080600101915050613a44565b5050505b80915050919050565b60006021826000015114613ac757600080fd5b60008060018460200151019050805191508192505050919050565b6000806060613af0866138ff565b90506060815167ffffffffffffffff81118015613b0c57600080fd5b506040519080825280601f01601f191660200182016040528015613b3f5781602001600182028036833780820191505090505b50905060008590505b82518601811015613bba576000878281518110613b6157fe5b602001015160f81c60f81b9050808388840381518110613b7d57fe5b60200101907effffffffffffffffffffffffffffffffffffffffffffffffffffffffffffff1916908160001a905350508080600101915050613b48565b50808051906020012082805190602001201415613bda5781519250613bdf565b600092505b8293505050509392505050565b600081836000018054905011613c4d576040517f08c379a0000000000000000000000000000000000000000000000000000000008152600401808060200182810382526022815260200180613ec66022913960400191505060405180910390fd5b826000018281548110613c5c57fe5b9060005260206000200154905092915050565b600080836001016000848152602001908152602001600020541415905092915050565b600081600001805490509050919050565b6000613caf8383613c6f565b613d08578260000182908060018154018082558091505060019003906000526020600020016000909190919091505582600001805490508360010160008481526020019081526020016000208190555060019050613d0d565b600090505b92915050565b60008083600101600084815260200190815260200160002054905060008114613def5760006001820390506000600186600001805490500390506000866000018281548110613d5e57fe5b9060005260206000200154905080876000018481548110613d7b57fe5b9060005260206000200181905550600183018760010160008381526020019081526020016000208190555086600001805480613db357fe5b60019003818190600052602060002001600090559055866001016000878152602001908152602001600020600090556001945050505050613df5565b60009150505b92915050565b60008060028481613e0857fe5b0614613e445760108260028581613e1b57fe5b0481518110613e2657fe5b602001015160f81c60f81b60f81c60ff1681613e3e57fe5b06613e76565b60108260028581613e5157fe5b0481518110613e5c57fe5b602001015160f81c60f81b60f81c60ff1681613e7457fe5b045b60f81b905092915050565b60405180604001604052806000815260200160008152509056fe526f6f74436861696e4d616e616765723a20544f4b454e5f545950455f4e4f545f535550504f52544544456e756d657261626c655365743a20696e646578206f7574206f6620626f756e6473416363657373436f6e74726f6c3a2073656e646572206d75737420626520616e2061646d696e20746f206772616e74526f6f74436861696e4d616e616765723a20494e56414c49445f544f4b454e5f54595045526f6f74436861696e4d616e616765723a20494e56414c49445f4252414e43485f4d41534b526f6f74436861696e4d616e616765723a20544f4b454e5f4e4f545f4d4150504544416363657373436f6e74726f6c3a2073656e646572206d75737420626520616e2061646d696e20746f207265766f6b65526f6f74436861696e4d616e616765723a20494e53554646494349454e545f5045524d495353494f4e53526f6f74436861696e4d616e616765723a2045544845525f5452414e534645525f4641494c4544526f6f74436861696e4d616e616765723a20455849545f414c52454144595f50524f434553534544416363657373436f6e74726f6c3a2063616e206f6e6c792072656e6f756e636520726f6c657320666f722073656c66a2646970667358221220642f8cd6e0618db85d7c60234dfa9fb1bfe00dd0888a2ffaf1529efc267c31a964736f6c63430006060033",
  "immutableReferences": {},
  "source": "pragma solidity ^0.6.6;\n\nimport {IRootChainManager} from \"./IRootChainManager.sol\";\nimport {IStateSender} from \"../StateSender/IStateSender.sol\";\nimport {ICheckpointManager} from \"../ICheckpointManager.sol\";\nimport {RLPReader} from \"../../lib/RLPReader.sol\";\nimport {MerklePatriciaProof} from \"../../lib/MerklePatriciaProof.sol\";\nimport {Merkle} from \"../../lib/Merkle.sol\";\nimport {ITokenPredicate} from \"../TokenPredicates/ITokenPredicate.sol\";\nimport {Initializable} from \"../../common/Initializable.sol\";\nimport {AccessControl} from \"@openzeppelin/contracts/access/AccessControl.sol\";\n\ncontract RootChainManager is IRootChainManager, Initializable, AccessControl {\n    using RLPReader for bytes;\n    using RLPReader for RLPReader.RLPItem;\n    using Merkle for bytes32;\n\n    // maybe DEPOSIT and MAP_TOKEN can be reduced to bytes4\n    bytes32 public constant DEPOSIT = keccak256(\"DEPOSIT\");\n    bytes32 public constant MAP_TOKEN = keccak256(\"MAP_TOKEN\");\n    address public constant ETHER_ADDRESS = 0xEeeeeEeeeEeEeeEeEeEeeEEEeeeeEeeeeeeeEEeE;\n    bytes32 public constant MAPPER_ROLE = keccak256(\"MAPPER_ROLE\");\n\n    // maybe typeToPredicate can be reduced to bytes4\n    mapping(bytes32 => address) public typeToPredicate;\n    mapping(address => address) public rootToChildToken;\n    mapping(address => address) public childToRootToken;\n    mapping(address => bytes32) public tokenToType;\n    mapping(bytes32 => bool) public processedExits;\n\n    IStateSender private _stateSender;\n    ICheckpointManager private _checkpointManager;\n    address public childChainManagerAddress;\n\n    modifier only(bytes32 role) {\n        require(\n            hasRole(role, _msgSender()),\n            \"RootChainManager: INSUFFICIENT_PERMISSIONS\"\n        );\n        _;\n    }\n\n    receive() external payable {\n        _depositEtherFor(_msgSender());\n    }\n\n    function initialize(address _owner) external initializer {\n        _setupRole(DEFAULT_ADMIN_ROLE, _owner);\n        _setupRole(MAPPER_ROLE, _owner);\n    }\n\n    function setStateSender(address newStateSender)\n        external\n        only(DEFAULT_ADMIN_ROLE)\n    {\n        _stateSender = IStateSender(newStateSender);\n    }\n\n    function stateSenderAddress() external view returns (address) {\n        return address(_stateSender);\n    }\n\n    function setCheckpointManager(address newCheckpointManager)\n        external\n        only(DEFAULT_ADMIN_ROLE)\n    {\n        _checkpointManager = ICheckpointManager(newCheckpointManager);\n    }\n\n    function checkpointManagerAddress() external view returns (address) {\n        return address(_checkpointManager);\n    }\n\n    function setChildChainManagerAddress(address newChildChainManager)\n        external\n        only(DEFAULT_ADMIN_ROLE)\n    {\n        childChainManagerAddress = newChildChainManager;\n    }\n\n    function registerPredicate(bytes32 tokenType, address predicateAddress)\n        external\n        override\n        only(MAPPER_ROLE)\n    {\n        typeToPredicate[tokenType] = predicateAddress;\n        emit PredicateRegistered(tokenType, predicateAddress);\n    }\n\n    function mapToken(\n        address rootToken,\n        address childToken,\n        bytes32 tokenType\n    ) external override only(MAPPER_ROLE) {\n        require(\n            typeToPredicate[tokenType] != address(0x0),\n            \"RootChainManager: TOKEN_TYPE_NOT_SUPPORTED\"\n        );\n\n        rootToChildToken[rootToken] = childToken;\n        childToRootToken[childToken] = rootToken;\n        tokenToType[rootToken] = tokenType;\n\n        emit TokenMapped(rootToken, childToken, tokenType);\n\n        bytes memory syncData = abi.encode(rootToken, childToken, tokenType);\n        _stateSender.syncState(\n            childChainManagerAddress,\n            abi.encode(MAP_TOKEN, syncData)\n        );\n    }\n\n    function depositEtherFor(address user) external override payable {\n        _depositEtherFor(user);\n    }\n\n    function depositFor(\n        address user,\n        address rootToken,\n        bytes calldata depositData\n    ) external override {\n        _depositFor(user, rootToken, depositData);\n    }\n\n    function _depositEtherFor(address user) private {\n        bytes memory depositData = abi.encode(msg.value);\n        _depositFor(user, ETHER_ADDRESS, depositData);\n\n        // payable(typeToPredicate[tokenToType[ETHER_ADDRESS]]).transfer(msg.value);\n        // transfer doesn't work as expected when receiving contract is proxified so using call\n        (bool success, bytes memory data) = typeToPredicate[tokenToType[ETHER_ADDRESS]].call{value: msg.value}(\"\");\n        if (!success) {\n            revert(\"RootChainManager: ETHER_TRANSFER_FAILED\");\n        }\n    }\n\n    function _depositFor(\n        address user,\n        address rootToken,\n        bytes memory depositData\n    ) private {\n        require(\n            rootToChildToken[rootToken] != address(0x0) &&\n               tokenToType[rootToken] != 0,\n            \"RootChainManager: TOKEN_NOT_MAPPED\"\n        );\n        address predicateAddress = typeToPredicate[tokenToType[rootToken]];\n        require(\n            predicateAddress != address(0),\n            \"RootChainManager: INVALID_TOKEN_TYPE\"\n        );\n\n        ITokenPredicate(predicateAddress).lockTokens(\n            _msgSender(),\n            user,\n            rootToken,\n            depositData\n        );\n        bytes memory syncData = abi.encode(user, rootToken, depositData);\n        _stateSender.syncState(\n            childChainManagerAddress,\n            abi.encode(DEPOSIT, syncData)\n        );\n    }\n\n    /**\n     * @param inputData RLP encoded data of the reference tx containing following list of fields\n     *  0 - headerNumber Header block number of which the reference tx was a part of\n     *  1 - blockProof Proof that the block header (in the child chain) is a leaf in the submitted merkle root\n     *  2 - blockNumber Block number of which the reference tx is a part of\n     *  3 - blockTime Reference tx block time\n     *  4 - blocktxRoot Transactions root of block\n     *  5 - blockReceiptsRoot Receipts root of block\n     *  6 - receipt Receipt of the reference transaction\n     *  7 - receiptProof Merkle proof of the reference receipt\n     *  8 - branchMask Merkle proof branchMask for the receipt\n     *  9 - logIndex Log Index to read from the receipt\n     */\n    function exit(bytes calldata inputData) external override {\n        RLPReader.RLPItem[] memory inputDataRLPList = inputData\n            .toRlpItem()\n            .toList();\n\n        // checking if exit has already been processed\n        // unique exit is identified using hash of (blockNumber, receipt, logIndex)\n        bytes32 exitHash = keccak256(\n            abi.encodePacked(\n                inputDataRLPList[2].toBytes(), // blockNumber\n                inputDataRLPList[6].toBytes(), // receipt\n                inputDataRLPList[9].toBytes() // logIndex\n            )\n        );\n        require(\n            processedExits[exitHash] == false,\n            \"RootChainManager: EXIT_ALREADY_PROCESSED\"\n        );\n        processedExits[exitHash] = true;\n\n        // verifying child withdraw log\n        RLPReader.RLPItem[] memory receiptRLPList = inputDataRLPList[6]\n            .toBytes()\n            .toRlpItem()\n            .toList();\n        RLPReader.RLPItem memory logRLP = receiptRLPList[3]\n            .toList()[inputDataRLPList[9].toUint()]; /* logIndex */\n\n        address childToken = RLPReader.toAddress(logRLP.toList()[0]); // log emitter address field\n        require(\n            childToRootToken[childToken] != address(0),\n            \"RootChainManager: TOKEN_NOT_MAPPED\"\n        );\n\n        address predicateAddress = typeToPredicate[\n            tokenToType[\n                childToRootToken[childToken]\n            ]\n        ];\n\n        require(\n            inputDataRLPList[8].toBytes().toRlpItem().toUint() &\n                0xFFFFFFFFFFFFFFFFFFFFFFFFFFFFFFFFFFFFFFFFFFFFFFFFFFFFFFFF00000000 ==\n                0,\n            \"RootChainManager: INVALID_BRANCH_MASK\"\n        );\n\n        // verify receipt inclusion\n        require(\n            MerklePatriciaProof.verify(\n                inputDataRLPList[6].toBytes(), // receipt\n                inputDataRLPList[8].toBytes(), // branchMask\n                inputDataRLPList[7].toBytes(), // receiptProof\n                bytes32(inputDataRLPList[5].toUint()) // receiptsRoot\n            ),\n            \"RootChainManager: INVALID_PROOF\"\n        );\n\n        // verify checkpoint inclusion\n        _checkBlockMembershipInCheckpoint(\n            inputDataRLPList[2].toUint(), // blockNumber\n            inputDataRLPList[3].toUint(), // blockTime\n            bytes32(inputDataRLPList[4].toUint()), // txRoot\n            bytes32(inputDataRLPList[5].toUint()), // receiptRoot\n            inputDataRLPList[0].toUint(), // headerNumber\n            inputDataRLPList[1].toBytes() // blockProof\n        );\n\n        ITokenPredicate(predicateAddress).exitTokens(\n            _msgSender(),\n            childToRootToken[childToken],\n            logRLP.toRlpBytes()\n        );\n    }\n\n    function _checkBlockMembershipInCheckpoint(\n        uint256 blockNumber,\n        uint256 blockTime,\n        bytes32 txRoot,\n        bytes32 receiptRoot,\n        uint256 headerNumber,\n        bytes memory blockProof\n    ) private view returns (uint256) {\n        (\n            bytes32 headerRoot,\n            uint256 startBlock,\n            ,\n            uint256 createdAt,\n\n        ) = _checkpointManager.headerBlocks(headerNumber);\n\n        require(\n            keccak256(\n                abi.encodePacked(blockNumber, blockTime, txRoot, receiptRoot)\n            )\n                .checkMembership(\n                blockNumber - startBlock,\n                headerRoot,\n                blockProof\n            ),\n            \"RootChainManager: INVALID_HEADER\"\n        );\n        return createdAt;\n    }\n}\n",
  "sourcePath": "/Users/arth/Documents/Projects/pos-portal/contracts/root/RootChainManager/RootChainManager.sol",
  "compiler": {
    "name": "solc",
    "version": "0.6.6+commit.6c089d02.Linux.g++"
  },
  "schemaVersion": "3.2.0",
  "updatedAt": "2020-06-26T07:16:47.444Z",
  "networkType": "ethereum",
  "devdoc": {
    "methods": {
      "exit(bytes)": {
        "params": {
          "inputData": "RLP encoded data of the reference tx containing following list of fields 0 - headerNumber Header block number of which the reference tx was a part of 1 - blockProof Proof that the block header (in the child chain) is a leaf in the submitted merkle root 2 - blockNumber Block number of which the reference tx is a part of 3 - blockTime Reference tx block time 4 - blocktxRoot Transactions root of block 5 - blockReceiptsRoot Receipts root of block 6 - receipt Receipt of the reference transaction 7 - receiptProof Merkle proof of the reference receipt 8 - branchMask Merkle proof branchMask for the receipt 9 - logIndex Log Index to read from the receipt"
        }
      },
      "getRoleAdmin(bytes32)": {
        "details": "Returns the admin role that controls `role`. See {grantRole} and {revokeRole}.     * To change a role's admin, use {_setRoleAdmin}."
      },
      "getRoleMember(bytes32,uint256)": {
        "details": "Returns one of the accounts that have `role`. `index` must be a value between 0 and {getRoleMemberCount}, non-inclusive.     * Role bearers are not sorted in any particular way, and their ordering may change at any point.     * WARNING: When using {getRoleMember} and {getRoleMemberCount}, make sure you perform all queries on the same block. See the following https://forum.openzeppelin.com/t/iterating-over-elements-on-enumerableset-in-openzeppelin-contracts/2296[forum post] for more information."
      },
      "getRoleMemberCount(bytes32)": {
        "details": "Returns the number of accounts that have `role`. Can be used together with {getRoleMember} to enumerate all bearers of a role."
      },
      "grantRole(bytes32,address)": {
        "details": "Grants `role` to `account`.     * If `account` had not been already granted `role`, emits a {RoleGranted} event.     * Requirements:     * - the caller must have ``role``'s admin role."
      },
      "hasRole(bytes32,address)": {
        "details": "Returns `true` if `account` has been granted `role`."
      },
      "renounceRole(bytes32,address)": {
        "details": "Revokes `role` from the calling account.     * Roles are often managed via {grantRole} and {revokeRole}: this function's purpose is to provide a mechanism for accounts to lose their privileges if they are compromised (such as when a trusted device is misplaced).     * If the calling account had been granted `role`, emits a {RoleRevoked} event.     * Requirements:     * - the caller must be `account`."
      },
      "revokeRole(bytes32,address)": {
        "details": "Revokes `role` from `account`.     * If `account` had been granted `role`, emits a {RoleRevoked} event.     * Requirements:     * - the caller must have ``role``'s admin role."
      }
    }
  },
  "userdoc": {
    "methods": {}
  }
}