{
  "contractName": "RootChainManager",
  "abi": [
    {
      "inputs": [],
      "stateMutability": "nonpayable",
      "type": "constructor"
    },
    {
      "anonymous": false,
      "inputs": [
        {
          "indexed": true,
          "internalType": "address",
          "name": "user",
          "type": "address"
        },
        {
          "indexed": true,
          "internalType": "address",
          "name": "rootToken",
          "type": "address"
        },
        {
          "indexed": true,
          "internalType": "uint256",
          "name": "amount",
          "type": "uint256"
        }
      ],
      "name": "Exited",
      "type": "event"
    },
    {
      "anonymous": false,
      "inputs": [
        {
          "indexed": true,
          "internalType": "address",
          "name": "user",
          "type": "address"
        },
        {
          "indexed": true,
          "internalType": "address",
          "name": "rootToken",
          "type": "address"
        },
        {
          "indexed": true,
          "internalType": "uint256",
          "name": "amount",
          "type": "uint256"
        }
      ],
      "name": "Locked",
      "type": "event"
    },
    {
      "anonymous": false,
      "inputs": [
        {
          "indexed": true,
          "internalType": "bytes32",
          "name": "role",
          "type": "bytes32"
        },
        {
          "indexed": true,
          "internalType": "address",
          "name": "account",
          "type": "address"
        },
        {
          "indexed": true,
          "internalType": "address",
          "name": "sender",
          "type": "address"
        }
      ],
      "name": "RoleGranted",
      "type": "event"
    },
    {
      "anonymous": false,
      "inputs": [
        {
          "indexed": true,
          "internalType": "bytes32",
          "name": "role",
          "type": "bytes32"
        },
        {
          "indexed": true,
          "internalType": "address",
          "name": "account",
          "type": "address"
        },
        {
          "indexed": true,
          "internalType": "address",
          "name": "sender",
          "type": "address"
        }
      ],
      "name": "RoleRevoked",
      "type": "event"
    },
    {
      "anonymous": false,
      "inputs": [
        {
          "indexed": true,
          "internalType": "address",
          "name": "rootToken",
          "type": "address"
        },
        {
          "indexed": true,
          "internalType": "address",
          "name": "childToken",
          "type": "address"
        }
      ],
      "name": "TokenMapped",
      "type": "event"
    },
    {
      "inputs": [],
      "name": "DEFAULT_ADMIN_ROLE",
      "outputs": [
        {
          "internalType": "bytes32",
          "name": "",
          "type": "bytes32"
        }
      ],
      "stateMutability": "view",
      "type": "function"
    },
    {
      "inputs": [],
      "name": "MAPPER_ROLE",
      "outputs": [
        {
          "internalType": "bytes32",
          "name": "",
          "type": "bytes32"
        }
      ],
      "stateMutability": "view",
      "type": "function"
    },
    {
      "inputs": [],
      "name": "MAX_LOGS",
      "outputs": [
        {
          "internalType": "uint256",
          "name": "",
          "type": "uint256"
        }
      ],
      "stateMutability": "view",
      "type": "function"
    },
    {
      "inputs": [
        {
          "internalType": "bytes32",
          "name": "role",
          "type": "bytes32"
        }
      ],
      "name": "getRoleAdmin",
      "outputs": [
        {
          "internalType": "bytes32",
          "name": "",
          "type": "bytes32"
        }
      ],
      "stateMutability": "view",
      "type": "function"
    },
    {
      "inputs": [
        {
          "internalType": "bytes32",
          "name": "role",
          "type": "bytes32"
        },
        {
          "internalType": "uint256",
          "name": "index",
          "type": "uint256"
        }
      ],
      "name": "getRoleMember",
      "outputs": [
        {
          "internalType": "address",
          "name": "",
          "type": "address"
        }
      ],
      "stateMutability": "view",
      "type": "function"
    },
    {
      "inputs": [
        {
          "internalType": "bytes32",
          "name": "role",
          "type": "bytes32"
        }
      ],
      "name": "getRoleMemberCount",
      "outputs": [
        {
          "internalType": "uint256",
          "name": "",
          "type": "uint256"
        }
      ],
      "stateMutability": "view",
      "type": "function"
    },
    {
      "inputs": [
        {
          "internalType": "bytes32",
          "name": "role",
          "type": "bytes32"
        },
        {
          "internalType": "address",
          "name": "account",
          "type": "address"
        }
      ],
      "name": "grantRole",
      "outputs": [],
      "stateMutability": "nonpayable",
      "type": "function"
    },
    {
      "inputs": [
        {
          "internalType": "bytes32",
          "name": "role",
          "type": "bytes32"
        },
        {
          "internalType": "address",
          "name": "account",
          "type": "address"
        }
      ],
      "name": "hasRole",
      "outputs": [
        {
          "internalType": "bool",
          "name": "",
          "type": "bool"
        }
      ],
      "stateMutability": "view",
      "type": "function"
    },
    {
      "inputs": [
        {
          "internalType": "bytes32",
          "name": "role",
          "type": "bytes32"
        },
        {
          "internalType": "address",
          "name": "account",
          "type": "address"
        }
      ],
      "name": "renounceRole",
      "outputs": [],
      "stateMutability": "nonpayable",
      "type": "function"
    },
    {
      "inputs": [
        {
          "internalType": "bytes32",
          "name": "role",
          "type": "bytes32"
        },
        {
          "internalType": "address",
          "name": "account",
          "type": "address"
        }
      ],
      "name": "revokeRole",
      "outputs": [],
      "stateMutability": "nonpayable",
      "type": "function"
    },
    {
      "inputs": [
        {
          "internalType": "address",
          "name": "newStateSender",
          "type": "address"
        }
      ],
      "name": "setStateSender",
      "outputs": [],
      "stateMutability": "nonpayable",
      "type": "function"
    },
    {
      "inputs": [],
      "name": "stateSenderAddress",
      "outputs": [
        {
          "internalType": "address",
          "name": "",
          "type": "address"
        }
      ],
      "stateMutability": "view",
      "type": "function"
    },
    {
      "inputs": [
        {
          "internalType": "address",
          "name": "newCheckpointManager",
          "type": "address"
        }
      ],
      "name": "setCheckpointManager",
      "outputs": [],
      "stateMutability": "nonpayable",
      "type": "function"
    },
    {
      "inputs": [],
      "name": "checkpointManagerAddress",
      "outputs": [
        {
          "internalType": "address",
          "name": "",
          "type": "address"
        }
      ],
      "stateMutability": "view",
      "type": "function"
    },
    {
      "inputs": [
        {
          "internalType": "address",
          "name": "newChildChainManager",
          "type": "address"
        }
      ],
      "name": "setChildChainManagerAddress",
      "outputs": [],
      "stateMutability": "nonpayable",
      "type": "function"
    },
    {
      "inputs": [],
      "name": "childChainManagerAddress",
      "outputs": [
        {
          "internalType": "address",
          "name": "",
          "type": "address"
        }
      ],
      "stateMutability": "view",
      "type": "function"
    },
    {
      "inputs": [
        {
          "internalType": "address",
          "name": "newWETHAddress",
          "type": "address"
        }
      ],
      "name": "setWETHAddress",
      "outputs": [],
      "stateMutability": "nonpayable",
      "type": "function"
    },
    {
      "inputs": [],
      "name": "WETHAddress",
      "outputs": [
        {
          "internalType": "address",
          "name": "",
          "type": "address"
        }
      ],
      "stateMutability": "view",
      "type": "function"
    },
    {
      "inputs": [
        {
          "internalType": "address",
          "name": "rootToken",
          "type": "address"
        },
        {
          "internalType": "address",
          "name": "childToken",
          "type": "address"
        }
      ],
      "name": "mapToken",
      "outputs": [],
      "stateMutability": "nonpayable",
      "type": "function"
    },
    {
      "inputs": [
        {
          "internalType": "address",
          "name": "rootToken",
          "type": "address"
        }
      ],
      "name": "rootToChildToken",
      "outputs": [
        {
          "internalType": "address",
          "name": "",
          "type": "address"
        }
      ],
      "stateMutability": "view",
      "type": "function"
    },
    {
      "inputs": [
        {
          "internalType": "address",
          "name": "childToken",
          "type": "address"
        }
      ],
      "name": "childToRootToken",
      "outputs": [
        {
          "internalType": "address",
          "name": "",
          "type": "address"
        }
      ],
      "stateMutability": "view",
      "type": "function"
    },
    {
      "inputs": [
        {
          "internalType": "bytes32",
          "name": "txHash",
          "type": "bytes32"
        }
      ],
      "name": "exitedTxs",
      "outputs": [
        {
          "internalType": "bool",
          "name": "",
          "type": "bool"
        }
      ],
      "stateMutability": "view",
      "type": "function"
    },
    {
      "inputs": [],
      "name": "depositEther",
      "outputs": [],
      "stateMutability": "payable",
      "type": "function"
    },
    {
      "inputs": [
        {
          "internalType": "address",
          "name": "user",
          "type": "address"
        }
      ],
      "name": "depositEtherFor",
      "outputs": [],
      "stateMutability": "payable",
      "type": "function"
    },
    {
      "inputs": [
        {
          "internalType": "address",
          "name": "rootToken",
          "type": "address"
        },
        {
          "internalType": "uint256",
          "name": "amount",
          "type": "uint256"
        }
      ],
      "name": "deposit",
      "outputs": [],
      "stateMutability": "nonpayable",
      "type": "function"
    },
    {
      "inputs": [
        {
          "internalType": "address",
          "name": "user",
          "type": "address"
        },
        {
          "internalType": "address",
          "name": "rootToken",
          "type": "address"
        },
        {
          "internalType": "uint256",
          "name": "amount",
          "type": "uint256"
        }
      ],
      "name": "depositFor",
      "outputs": [],
      "stateMutability": "nonpayable",
      "type": "function"
    },
    {
      "inputs": [
        {
          "internalType": "bytes",
          "name": "inputData",
          "type": "bytes"
        }
      ],
      "name": "exit",
      "outputs": [],
      "stateMutability": "nonpayable",
      "type": "function"
    }
  ],
  "bytecode": "0x60806040523480156200001157600080fd5b50620000276000801b336200007460201b60201c565b6200006e60405180807f4d41505045525f524f4c45000000000000000000000000000000000000000000815250600b0190506040518091039020336200007460201b60201c565b6200020a565b6200008682826200008a60201b60201c565b5050565b620000b8816000808581526020019081526020016000206000016200012d60201b62002fb61790919060201c565b156200012957620000ce6200016560201b60201c565b73ffffffffffffffffffffffffffffffffffffffff168173ffffffffffffffffffffffffffffffffffffffff16837f2f8788117e7eff1d82e926ec794901d17c78024a50270940304540a733656f0d60405160405180910390a45b5050565b60006200015d836000018373ffffffffffffffffffffffffffffffffffffffff1660001b6200016d60201b60201c565b905092915050565b600033905090565b6000620001818383620001e760201b60201c565b620001dc578260000182908060018154018082558091505060019003906000526020600020016000909190919091505582600001805490508360010160008481526020019081526020016000208190555060019050620001e1565b600090505b92915050565b600080836001016000848152602001908152602001600020541415905092915050565b6139d8806200021a6000396000f3fe60806040526004361061019c5760003560e01c80636e86b770116100ec578063ca15c8731161008a578063d5bd9c6311610064578063d5bd9c6314610995578063dc993a23146109c0578063e2c49de114610a11578063ea60c7c414610a685761019c565b8063ca15c87314610898578063cfe4f67b146108e7578063d547741f1461093a5761019c565b806398ea5fca116100c657806398ea5fca14610797578063a217fddf146107a1578063b3db428b146107cc578063bc08452b146108475761019c565b80636e86b7701461060e5780639010d07c1461069f57806391d14854146107245761019c565b80633805550f116101595780634faa8a26116101335780634faa8a26146104fd578063568b80b5146105415780636a4234eb1461056c5780636cb136b0146105bd5761019c565b80633805550f146103ab578063474002691461043157806347e7ef24146104a25761019c565b806304967702146101a15780630af88b24146101f8578063248a9ca31461024f5780632f2ff15d1461029e5780633138b6f1146102f957806336568abe14610350575b600080fd5b3480156101ad57600080fd5b506101b6610af9565b604051808273ffffffffffffffffffffffffffffffffffffffff1673ffffffffffffffffffffffffffffffffffffffff16815260200191505060405180910390f35b34801561020457600080fd5b5061020d610b23565b604051808273ffffffffffffffffffffffffffffffffffffffff1673ffffffffffffffffffffffffffffffffffffffff16815260200191505060405180910390f35b34801561025b57600080fd5b506102886004803603602081101561027257600080fd5b8101908080359060200190929190505050610b4d565b6040518082815260200191505060405180910390f35b3480156102aa57600080fd5b506102f7600480360360408110156102c157600080fd5b8101908080359060200190929190803573ffffffffffffffffffffffffffffffffffffffff169060200190929190505050610b6c565b005b34801561030557600080fd5b5061030e610bf5565b604051808273ffffffffffffffffffffffffffffffffffffffff1673ffffffffffffffffffffffffffffffffffffffff16815260200191505060405180910390f35b34801561035c57600080fd5b506103a96004803603604081101561037357600080fd5b8101908080359060200190929190803573ffffffffffffffffffffffffffffffffffffffff169060200190929190505050610c1f565b005b3480156103b757600080fd5b5061042f600480360360208110156103ce57600080fd5b81019080803590602001906401000000008111156103eb57600080fd5b8201836020820111156103fd57600080fd5b8035906020019184600183028401116401000000008311171561041f57600080fd5b9091929391929390505050610cb8565b005b34801561043d57600080fd5b506104a06004803603604081101561045457600080fd5b81019080803573ffffffffffffffffffffffffffffffffffffffff169060200190929190803573ffffffffffffffffffffffffffffffffffffffff169060200190929190505050611714565b005b3480156104ae57600080fd5b506104fb600480360360408110156104c557600080fd5b81019080803573ffffffffffffffffffffffffffffffffffffffff16906020019092919080359060200190929190505050611921565b005b61053f6004803603602081101561051357600080fd5b81019080803573ffffffffffffffffffffffffffffffffffffffff169060200190929190505050611930565b005b34801561054d57600080fd5b5061055661193c565b6040518082815260200191505060405180910390f35b34801561057857600080fd5b506105bb6004803603602081101561058f57600080fd5b81019080803573ffffffffffffffffffffffffffffffffffffffff169060200190929190505050611975565b005b3480156105c957600080fd5b5061060c600480360360208110156105e057600080fd5b81019080803573ffffffffffffffffffffffffffffffffffffffff169060200190929190505050611a3a565b005b34801561061a57600080fd5b5061065d6004803603602081101561063157600080fd5b81019080803573ffffffffffffffffffffffffffffffffffffffff169060200190929190505050611aff565b604051808273ffffffffffffffffffffffffffffffffffffffff1673ffffffffffffffffffffffffffffffffffffffff16815260200191505060405180910390f35b3480156106ab57600080fd5b506106e2600480360360408110156106c257600080fd5b810190808035906020019092919080359060200190929190505050611b68565b604051808273ffffffffffffffffffffffffffffffffffffffff1673ffffffffffffffffffffffffffffffffffffffff16815260200191505060405180910390f35b34801561073057600080fd5b5061077d6004803603604081101561074757600080fd5b8101908080359060200190929190803573ffffffffffffffffffffffffffffffffffffffff169060200190929190505050611b99565b604051808215151515815260200191505060405180910390f35b61079f611bca565b005b3480156107ad57600080fd5b506107b6611bd5565b6040518082815260200191505060405180910390f35b3480156107d857600080fd5b50610845600480360360608110156107ef57600080fd5b81019080803573ffffffffffffffffffffffffffffffffffffffff169060200190929190803573ffffffffffffffffffffffffffffffffffffffff16906020019092919080359060200190929190505050611bdc565b005b34801561085357600080fd5b506108966004803603602081101561086a57600080fd5b81019080803573ffffffffffffffffffffffffffffffffffffffff169060200190929190505050611bec565b005b3480156108a457600080fd5b506108d1600480360360208110156108bb57600080fd5b8101908080359060200190929190505050611cb1565b6040518082815260200191505060405180910390f35b3480156108f357600080fd5b506109206004803603602081101561090a57600080fd5b8101908080359060200190929190505050611cd7565b604051808215151515815260200191505060405180910390f35b34801561094657600080fd5b506109936004803603604081101561095d57600080fd5b8101908080359060200190929190803573ffffffffffffffffffffffffffffffffffffffff169060200190929190505050611d01565b005b3480156109a157600080fd5b506109aa611d8a565b6040518082815260200191505060405180910390f35b3480156109cc57600080fd5b50610a0f600480360360208110156109e357600080fd5b81019080803573ffffffffffffffffffffffffffffffffffffffff169060200190929190505050611d8f565b005b348015610a1d57600080fd5b50610a26611e54565b604051808273ffffffffffffffffffffffffffffffffffffffff1673ffffffffffffffffffffffffffffffffffffffff16815260200191505060405180910390f35b348015610a7457600080fd5b50610ab760048036036020811015610a8b57600080fd5b81019080803573ffffffffffffffffffffffffffffffffffffffff169060200190929190505050611e7e565b604051808273ffffffffffffffffffffffffffffffffffffffff1673ffffffffffffffffffffffffffffffffffffffff16815260200191505060405180910390f35b6000600360009054906101000a900473ffffffffffffffffffffffffffffffffffffffff16905090565b6000600460009054906101000a900473ffffffffffffffffffffffffffffffffffffffff16905090565b6000806000838152602001908152602001600020600201549050919050565b610b9260008084815260200190815260200160002060020154610b8d611ee7565b611b99565b610be7576040517f08c379a000000000000000000000000000000000000000000000000000000000815260040180806020018281038252602f8152602001806138c9602f913960400191505060405180910390fd5b610bf18282611eef565b5050565b6000600260009054906101000a900473ffffffffffffffffffffffffffffffffffffffff16905090565b610c27611ee7565b73ffffffffffffffffffffffffffffffffffffffff168173ffffffffffffffffffffffffffffffffffffffff1614610caa576040517f08c379a000000000000000000000000000000000000000000000000000000000815260040180806020018281038252602f815260200180613974602f913960400191505060405180910390fd5b610cb48282611f82565b5050565b6060610d0f610d0a84848080601f016020809104026020016040519081016040528093929190818152602001838380828437600081840152601f19601f82011690508083019250505050505050612015565b612043565b90506000151560076000610d3684600a81518110610d2957fe5b6020026020010151612137565b60001b815260200190815260200160002060009054906101000a900460ff16151514610dca576040517f08c379a00000000000000000000000000000000000000000000000000000000081526004018080602001828103825260168152602001807f4578697420616c72656164792070726f6365737365640000000000000000000081525060200191505060405180910390fd5b600160076000610ded84600a81518110610de057fe5b6020026020010151612137565b60001b815260200190815260200160002060006101000a81548160ff0219169083151502179055506000610e3482600981518110610e2757fe5b6020026020010151612137565b9050600a8110610eac576040517f08c379a000000000000000000000000000000000000000000000000000000000815260040180806020018281038252601b8152602001807f537570706f7274696e672061206d6178206f66203130206c6f6773000000000081525060200191505060405180910390fd5b6060610ecb83600681518110610ebe57fe5b60200260200101516121a8565b90506060610ee0610edb83612015565b612043565b90506060610f1c610f0483600381518110610ef757fe5b6020026020010151612043565b8581518110610f0f57fe5b6020026020010151612043565b90506000610f3d82600081518110610f3057fe5b602002602001015161224b565b9050600073ffffffffffffffffffffffffffffffffffffffff16600660008373ffffffffffffffffffffffffffffffffffffffff1673ffffffffffffffffffffffffffffffffffffffff16815260200190815260200160002060009054906101000a900473ffffffffffffffffffffffffffffffffffffffff1673ffffffffffffffffffffffffffffffffffffffff161415611041576040517f08c379a00000000000000000000000000000000000000000000000000000000081526004018080602001828103825260108152602001807f546f6b656e206e6f74206d61707065640000000000000000000000000000000081525060200191505060405180910390fd5b60606110608360018151811061105357fe5b6020026020010151612043565b90507fddf252ad1be2c89b69c2b068fc378daa952ba7f163c4a11628f55a4df523b3ef60001b6110a38260008151811061109657fe5b6020026020010151612137565b60001b14611119576040517f08c379a000000000000000000000000000000000000000000000000000000000815260040180806020018281038252601e8152602001807f4e6f742061207472616e73666572206576656e74207369676e6174757265000081525060200191505060405180910390fd5b6111368160018151811061112957fe5b6020026020010151612137565b73ffffffffffffffffffffffffffffffffffffffff163373ffffffffffffffffffffffffffffffffffffffff16146111b9576040517f08c379a000000000000000000000000000000000000000000000000000000000815260040180806020018281038252602881526020018061394c6028913960400191505060405180910390fd5b600073ffffffffffffffffffffffffffffffffffffffff166111ee826002815181106111e157fe5b6020026020010151612137565b73ffffffffffffffffffffffffffffffffffffffff1614611277576040517f08c379a00000000000000000000000000000000000000000000000000000000081526004018080602001828103825260108152602001807f4e6f742061206275726e206576656e740000000000000000000000000000000081525060200191505060405180910390fd5b60007fffffffffffffffffffffffffffffffffffffffffffffffffffffffff000000006112c76112c26112bd8b6008815181106112b057fe5b60200260200101516121a8565b612015565b612137565b161461133b576040517f08c379a000000000000000000000000000000000000000000000000000000000815260040180806020018281038252601d8152602001807f4272616e6368206d61736b2073686f756c64206265203332206269747300000081525060200191505060405180910390fd5b600061135a8860008151811061134d57fe5b6020026020010151612137565b90506113db61137c8960068151811061136f57fe5b60200260200101516121a8565b6113998a60088151811061138c57fe5b60200260200101516121a8565b6113b68b6007815181106113a957fe5b60200260200101516121a8565b6113d38c6005815181106113c657fe5b6020026020010151612137565b60001b61226e565b61144d576040517f08c379a000000000000000000000000000000000000000000000000000000000815260040180806020018281038252601c8152602001807f496e76616c69642072656365697074206d65726b6c652070726f6f660000000081525060200191505060405180910390fd5b600061146c8960028151811061145f57fe5b6020026020010151612137565b90506114f28161148f8b60038151811061148257fe5b6020026020010151612137565b6114ac8c60048151811061149f57fe5b6020026020010151612137565b60001b6114cc8d6005815181106114bf57fe5b6020026020010151612137565b60001b866114ed8f6001815181106114e057fe5b60200260200101516121a8565b612544565b50600660008573ffffffffffffffffffffffffffffffffffffffff1673ffffffffffffffffffffffffffffffffffffffff16815260200190815260200160002060009054906101000a900473ffffffffffffffffffffffffffffffffffffffff1673ffffffffffffffffffffffffffffffffffffffff1663a9059cbb3361158c8860028151811061157f57fe5b6020026020010151612137565b6040518363ffffffff1660e01b8152600401808373ffffffffffffffffffffffffffffffffffffffff1673ffffffffffffffffffffffffffffffffffffffff16815260200182815260200192505050602060405180830381600087803b1580156115f557600080fd5b505af1158015611609573d6000803e3d6000fd5b505050506040513d602081101561161f57600080fd5b81019080805190602001909291905050505061164e8560028151811061164157fe5b6020026020010151612137565b600660008673ffffffffffffffffffffffffffffffffffffffff1673ffffffffffffffffffffffffffffffffffffffff16815260200190815260200160002060009054906101000a900473ffffffffffffffffffffffffffffffffffffffff1673ffffffffffffffffffffffffffffffffffffffff163373ffffffffffffffffffffffffffffffffffffffff167f104ad9ab27213fcc307f2308fc015959def8986f04d9475d82c5f32ab9c8d83b60405160405180910390a45050505050505050505050565b60405180807f4d41505045525f524f4c45000000000000000000000000000000000000000000815250600b01905060405180910390206117548133611b99565b6117c6576040517f08c379a00000000000000000000000000000000000000000000000000000000081526004018080602001828103825260188152602001807f496e73756666696369656e74207065726d697373696f6e73000000000000000081525060200191505060405180910390fd5b81600560008573ffffffffffffffffffffffffffffffffffffffff1673ffffffffffffffffffffffffffffffffffffffff16815260200190815260200160002060006101000a81548173ffffffffffffffffffffffffffffffffffffffff021916908373ffffffffffffffffffffffffffffffffffffffff16021790555082600660008473ffffffffffffffffffffffffffffffffffffffff1673ffffffffffffffffffffffffffffffffffffffff16815260200190815260200160002060006101000a81548173ffffffffffffffffffffffffffffffffffffffff021916908373ffffffffffffffffffffffffffffffffffffffff1602179055508173ffffffffffffffffffffffffffffffffffffffff168373ffffffffffffffffffffffffffffffffffffffff167f85920d35e6c72f6b2affffa04298b0cecfeba86e4a9f407df661f1cb8ab5e61760405160405180910390a3505050565b61192c3383836127d6565b5050565b61193981612ee9565b50565b60405180807f4d41505045525f524f4c45000000000000000000000000000000000000000000815250600b019050604051809103902081565b6000801b6119838133611b99565b6119f5576040517f08c379a00000000000000000000000000000000000000000000000000000000081526004018080602001828103825260188152602001807f496e73756666696369656e74207065726d697373696f6e73000000000000000081525060200191505060405180910390fd5b81600460006101000a81548173ffffffffffffffffffffffffffffffffffffffff021916908373ffffffffffffffffffffffffffffffffffffffff1602179055505050565b6000801b611a488133611b99565b611aba576040517f08c379a00000000000000000000000000000000000000000000000000000000081526004018080602001828103825260188152602001807f496e73756666696369656e74207065726d697373696f6e73000000000000000081525060200191505060405180910390fd5b81600160006101000a81548173ffffffffffffffffffffffffffffffffffffffff021916908373ffffffffffffffffffffffffffffffffffffffff1602179055505050565b6000600660008373ffffffffffffffffffffffffffffffffffffffff1673ffffffffffffffffffffffffffffffffffffffff16815260200190815260200160002060009054906101000a900473ffffffffffffffffffffffffffffffffffffffff169050919050565b6000611b9182600080868152602001908152602001600020600001612f5790919063ffffffff16565b905092915050565b6000611bc282600080868152602001908152602001600020600001612f7190919063ffffffff16565b905092915050565b611bd333612ee9565b565b6000801b81565b611be78383836127d6565b505050565b6000801b611bfa8133611b99565b611c6c576040517f08c379a00000000000000000000000000000000000000000000000000000000081526004018080602001828103825260188152602001807f496e73756666696369656e74207065726d697373696f6e73000000000000000081525060200191505060405180910390fd5b81600260006101000a81548173ffffffffffffffffffffffffffffffffffffffff021916908373ffffffffffffffffffffffffffffffffffffffff1602179055505050565b6000611cd0600080848152602001908152602001600020600001612fa1565b9050919050565b60006007600083815260200190815260200160002060009054906101000a900460ff169050919050565b611d2760008084815260200190815260200160002060020154611d22611ee7565b611b99565b611d7c576040517f08c379a000000000000000000000000000000000000000000000000000000000815260040180806020018281038252603081526020018061391c6030913960400191505060405180910390fd5b611d868282611f82565b5050565b600a81565b6000801b611d9d8133611b99565b611e0f576040517f08c379a00000000000000000000000000000000000000000000000000000000081526004018080602001828103825260188152602001807f496e73756666696369656e74207065726d697373696f6e73000000000000000081525060200191505060405180910390fd5b81600360006101000a81548173ffffffffffffffffffffffffffffffffffffffff021916908373ffffffffffffffffffffffffffffffffffffffff1602179055505050565b6000600160009054906101000a900473ffffffffffffffffffffffffffffffffffffffff16905090565b6000600560008373ffffffffffffffffffffffffffffffffffffffff1673ffffffffffffffffffffffffffffffffffffffff16815260200190815260200160002060009054906101000a900473ffffffffffffffffffffffffffffffffffffffff169050919050565b600033905090565b611f1681600080858152602001908152602001600020600001612fb690919063ffffffff16565b15611f7e57611f23611ee7565b73ffffffffffffffffffffffffffffffffffffffff168173ffffffffffffffffffffffffffffffffffffffff16837f2f8788117e7eff1d82e926ec794901d17c78024a50270940304540a733656f0d60405160405180910390a45b5050565b611fa981600080858152602001908152602001600020600001612fe690919063ffffffff16565b1561201157611fb6611ee7565b73ffffffffffffffffffffffffffffffffffffffff168173ffffffffffffffffffffffffffffffffffffffff16837ff6391f5c32d9c69d2a47ea670b442974b53935d1edc7fd64eb21e047a839171b60405160405180910390a45b5050565b61201d61388c565b600060208301905060405180604001604052808451815260200182815250915050919050565b606061204e82613016565b61205757600080fd5b600061206283613064565b905060608167ffffffffffffffff8111801561207d57600080fd5b506040519080825280602002602001820160405280156120b757816020015b6120a461388c565b81526020019060019003908161209c5790505b50905060006120c985602001516130d5565b8560200151019050600080600090505b8481101561212a576120ea8361315e565b915060405180604001604052808381526020018481525084828151811061210d57fe5b6020026020010181905250818301925080806001019150506120d9565b5082945050505050919050565b600080826000015111801561215157506021826000015111155b61215a57600080fd5b600061216983602001516130d5565b9050600081846000015103905060008083866020015101905080519150602083101561219c57826020036101000a820491505b81945050505050919050565b606060008260000151116121bb57600080fd5b60006121ca83602001516130d5565b9050600081846000015103905060608167ffffffffffffffff811180156121f057600080fd5b506040519080825280601f01601f1916602001820160405280156122235781602001600182028036833780820191505090505b509050600081602001905061223f848760200151018285613216565b81945050505050919050565b6000601582600001511461225e57600080fd5b61226782612137565b9050919050565b600061227861388c565b61228184612015565b9050606061228e82612043565b90506060806000869050600080905060606122a88b61327d565b90506000815114156122c457600097505050505050505061253c565b60008090505b86518110156125335781518311156122ed5760009850505050505050505061253c565b6123098782815181106122fc57fe5b6020026020010151613432565b95508580519060200120841461232a5760009850505050505050505061253c565b61234687828151811061233957fe5b6020026020010151612043565b945060118551141561241b5781518314156123af578c805190602001206123808660108151811061237357fe5b60200260200101516121a8565b80519060200120141561239e5760019850505050505050505061253c565b60009850505050505050505061253c565b60008284815181106123bd57fe5b602001015160f81c60f81b60f81c905060108160ff1611156123eb576000995050505050505050505061253c565b61240a868260ff16815181106123fd57fe5b60200260200101516134bf565b60001b945060018401935050612526565b6002855114156125145761244c6124458660008151811061243857fe5b60200260200101516121a8565b83856134ed565b8301925081518314156124ad578c8051906020012061247e8660018151811061247157fe5b60200260200101516121a8565b80519060200120141561249c5760019850505050505050505061253c565b60009850505050505050505061253c565b60006124d66124cf876000815181106124c257fe5b60200260200101516121a8565b84866134ed565b14156124ed5760009850505050505050505061253c565b61250a856001815181106124fd57fe5b60200260200101516134bf565b60001b9350612525565b60009850505050505050505061253c565b5b80806001019150506122ca565b50505050505050505b949350505050565b600080600080600260009054906101000a900473ffffffffffffffffffffffffffffffffffffffff1673ffffffffffffffffffffffffffffffffffffffff166341539d4a876040518263ffffffff1660e01b81526004018082815260200191505060a06040518083038186803b1580156125bd57600080fd5b505afa1580156125d1573d6000803e3d6000fd5b505050506040513d60a08110156125e757600080fd5b810190808051906020019092919080519060200190929190805190602001909291908051906020019092919080519060200190929190505050509350509250925089898989604051602001808581526020018481526020018381526020018281526020019450505050506040516020818303038152906040528051906020012073__Merkle________________________________636c8f455c9091848d0386896040518563ffffffff1660e01b81526004018085815260200184815260200183815260200180602001828103825283818151815260200191508051906020019080838360005b838110156126e95780820151818401526020810190506126ce565b50505050905090810190601f1680156127165780820380516001836020036101000a031916815260200191505b509550505050505060206040518083038186803b15801561273657600080fd5b505af415801561274a573d6000803e3d6000fd5b505050506040513d602081101561276057600080fd5b81019080805190602001909291905050506127c6576040517f08c379a00000000000000000000000000000000000000000000000000000000081526004018080602001828103825260248152602001806138f86024913960400191505060405180910390fd5b8093505050509695505050505050565b600073ffffffffffffffffffffffffffffffffffffffff16600560008473ffffffffffffffffffffffffffffffffffffffff1673ffffffffffffffffffffffffffffffffffffffff16815260200190815260200160002060009054906101000a900473ffffffffffffffffffffffffffffffffffffffff1673ffffffffffffffffffffffffffffffffffffffff1614156128d8576040517f08c379a00000000000000000000000000000000000000000000000000000000081526004018080602001828103825260108152602001807f546f6b656e206e6f74206d61707065640000000000000000000000000000000081525060200191505060405180910390fd5b808273ffffffffffffffffffffffffffffffffffffffff1663dd62ed3e33306040518363ffffffff1660e01b8152600401808373ffffffffffffffffffffffffffffffffffffffff1673ffffffffffffffffffffffffffffffffffffffff1681526020018273ffffffffffffffffffffffffffffffffffffffff1673ffffffffffffffffffffffffffffffffffffffff1681526020019250505060206040518083038186803b15801561298a57600080fd5b505afa15801561299e573d6000803e3d6000fd5b505050506040513d60208110156129b457600080fd5b81019080805190602001909291905050501015612a39576040517f08c379a000000000000000000000000000000000000000000000000000000000815260040180806020018281038252601b8152602001807f546f6b656e207472616e73666572206e6f7420617070726f766564000000000081525060200191505060405180910390fd5b600073ffffffffffffffffffffffffffffffffffffffff16600160009054906101000a900473ffffffffffffffffffffffffffffffffffffffff1673ffffffffffffffffffffffffffffffffffffffff161415612afe576040517f08c379a00000000000000000000000000000000000000000000000000000000081526004018080602001828103825260138152602001807f737461746553656e646572206e6f74207365740000000000000000000000000081525060200191505060405180910390fd5b600073ffffffffffffffffffffffffffffffffffffffff16600360009054906101000a900473ffffffffffffffffffffffffffffffffffffffff1673ffffffffffffffffffffffffffffffffffffffff161415612bc3576040517f08c379a00000000000000000000000000000000000000000000000000000000081526004018080602001828103825260198152602001807f6368696c64436861696e4d616e61676572206e6f74207365740000000000000081525060200191505060405180910390fd5b8173ffffffffffffffffffffffffffffffffffffffff166323b872dd3330846040518463ffffffff1660e01b8152600401808473ffffffffffffffffffffffffffffffffffffffff1673ffffffffffffffffffffffffffffffffffffffff1681526020018373ffffffffffffffffffffffffffffffffffffffff1673ffffffffffffffffffffffffffffffffffffffff1681526020018281526020019350505050602060405180830381600087803b158015612c7e57600080fd5b505af1158015612c92573d6000803e3d6000fd5b505050506040513d6020811015612ca857600080fd5b810190808051906020019092919050505050600160009054906101000a900473ffffffffffffffffffffffffffffffffffffffff1673ffffffffffffffffffffffffffffffffffffffff166316f19831600360009054906101000a900473ffffffffffffffffffffffffffffffffffffffff16858585604051602001808473ffffffffffffffffffffffffffffffffffffffff1673ffffffffffffffffffffffffffffffffffffffff1681526020018373ffffffffffffffffffffffffffffffffffffffff1673ffffffffffffffffffffffffffffffffffffffff16815260200182815260200193505050506040516020818303038152906040526040518363ffffffff1660e01b8152600401808373ffffffffffffffffffffffffffffffffffffffff1673ffffffffffffffffffffffffffffffffffffffff16815260200180602001828103825283818151815260200191508051906020019080838360005b83811015612e24578082015181840152602081019050612e09565b50505050905090810190601f168015612e515780820380516001836020036101000a031916815260200191505b509350505050600060405180830381600087803b158015612e7157600080fd5b505af1158015612e85573d6000803e3d6000fd5b50505050808273ffffffffffffffffffffffffffffffffffffffff168473ffffffffffffffffffffffffffffffffffffffff167f989eaa915cbb416ea3d6f9a63b1a3de51770c7674b11fe21ecdf76b4e1d1391060405160405180910390a4505050565b6040517f08c379a00000000000000000000000000000000000000000000000000000000081526004018080602001828103825260208152602001807f4574686572206465706f73697420756e64657220636f6e737472756374696f6e81525060200191505060405180910390fd5b6000612f6683600001836135f7565b60001c905092915050565b6000612f99836000018373ffffffffffffffffffffffffffffffffffffffff1660001b61367a565b905092915050565b6000612faf8260000161369d565b9050919050565b6000612fde836000018373ffffffffffffffffffffffffffffffffffffffff1660001b6136ae565b905092915050565b600061300e836000018373ffffffffffffffffffffffffffffffffffffffff1660001b61371e565b905092915050565b6000808260000151141561302d576000905061305f565b60008083602001519050805160001a915060c060ff168260ff1610156130585760009250505061305f565b6001925050505b919050565b6000808260000151141561307b57600090506130d0565b6000809050600061308f84602001516130d5565b84602001510190506000846000015185602001510190505b808210156130c9576130b88261315e565b8201915082806001019350506130a7565b8293505050505b919050565b600080825160001a9050608060ff168110156130f5576000915050613159565b60b860ff1681108061311a575060c060ff168110158015613119575060f860ff1681105b5b15613129576001915050613159565b60c060ff168110156131495760018060b80360ff16820301915050613159565b60018060f80360ff168203019150505b919050565b6000806000835160001a9050608060ff1681101561317f576001915061320c565b60b860ff1681101561319c576001608060ff16820301915061320b565b60c060ff168110156131cc5760b78103600185019450806020036101000a8551046001820181019350505061320a565b60f860ff168110156131e957600160c060ff168203019150613209565b60f78103600185019450806020036101000a855104600182018101935050505b5b5b5b8192505050919050565b600081141561322457613278565b5b602060ff1681106132545782518252602060ff1683019250602060ff1682019150602060ff1681039050613225565b6000600182602060ff16036101000a03905080198451168184511681811785525050505b505050565b60608060008351111561342957600080613298600086613806565b60f81c905060018160ff1614806132b2575060038160ff16145b1561336157600160028651020367ffffffffffffffff811180156132d557600080fd5b506040519080825280601f01601f1916602001820160405280156133085781602001600182028036833780820191505090505b5092506000613318600187613806565b9050808460008151811061332857fe5b60200101907effffffffffffffffffffffffffffffffffffffffffffffffffffffffffffff1916908160001a90535060019250506133b9565b6002808651020367ffffffffffffffff8111801561337e57600080fd5b506040519080825280601f01601f1916602001820160405280156133b15781602001600182028036833780820191505090505b509250600091505b60008260ff1690505b8351811015613425576133dd60028460ff1683030187613806565b8482815181106133e957fe5b60200101907effffffffffffffffffffffffffffffffffffffffffffffffffffffffffffff1916908160001a90535080806001019150506133c2565b5050505b80915050919050565b606080826000015167ffffffffffffffff8111801561345057600080fd5b506040519080825280601f01601f1916602001820160405280156134835781602001600182028036833780820191505090505b50905060008151141561349957809150506134ba565b60008160200190506134b48460200151828660000151613216565b81925050505b919050565b600060218260000151146134d257600080fd5b60008060018460200151019050805191508192505050919050565b60008060606134fb8661327d565b90506060815167ffffffffffffffff8111801561351757600080fd5b506040519080825280601f01601f19166020018201604052801561354a5781602001600182028036833780820191505090505b50905060008590505b825186018110156135c557600087828151811061356c57fe5b602001015160f81c60f81b905080838884038151811061358857fe5b60200101907effffffffffffffffffffffffffffffffffffffffffffffffffffffffffffff1916908160001a905350508080600101915050613553565b508080519060200120828051906020012014156135e557815192506135ea565b600092505b8293505050509392505050565b600081836000018054905011613658576040517f08c379a00000000000000000000000000000000000000000000000000000000081526004018080602001828103825260228152602001806138a76022913960400191505060405180910390fd5b82600001828154811061366757fe5b9060005260206000200154905092915050565b600080836001016000848152602001908152602001600020541415905092915050565b600081600001805490509050919050565b60006136ba838361367a565b613713578260000182908060018154018082558091505060019003906000526020600020016000909190919091505582600001805490508360010160008481526020019081526020016000208190555060019050613718565b600090505b92915050565b600080836001016000848152602001908152602001600020549050600081146137fa576000600182039050600060018660000180549050039050600086600001828154811061376957fe5b906000526020600020015490508087600001848154811061378657fe5b90600052602060002001819055506001830187600101600083815260200190815260200160002081905550866000018054806137be57fe5b60019003818190600052602060002001600090559055866001016000878152602001908152602001600020600090556001945050505050613800565b60009150505b92915050565b6000806002848161381357fe5b061461384f576010826002858161382657fe5b048151811061383157fe5b602001015160f81c60f81b60f81c60ff168161384957fe5b06613881565b6010826002858161385c57fe5b048151811061386757fe5b602001015160f81c60f81b60f81c60ff168161387f57fe5b045b60f81b905092915050565b60405180604001604052806000815260200160008152509056fe456e756d657261626c655365743a20696e646578206f7574206f6620626f756e6473416363657373436f6e74726f6c3a2073656e646572206d75737420626520616e2061646d696e20746f206772616e744275726e207478206e6f742070617274206f66207375626d697474656420686561646572416363657373436f6e74726f6c3a2073656e646572206d75737420626520616e2061646d696e20746f207265766f6b655769746864726177657220616e64206275726e206578697420747820646f206e6f74206d61746368416363657373436f6e74726f6c3a2063616e206f6e6c792072656e6f756e636520726f6c657320666f722073656c66a2646970667358221220999b99d6f5a4ddafff0f5616cbca52de076b3032dea854cb96ed450d78036efb64736f6c63430006060033",
  "immutableReferences": {},
  "source": "pragma solidity \"0.6.6\";\n\nimport { IERC20 } from \"@openzeppelin/contracts/token/ERC20/IERC20.sol\";\nimport { AccessControl } from \"@openzeppelin/contracts/access/AccessControl.sol\";\nimport { IRootChainManager } from \"./IRootChainManager.sol\";\nimport { IStateSender } from \"./IStateSender.sol\";\nimport { ICheckpointManager } from './ICheckpointManager.sol';\nimport { RLPReader } from \"../lib/RLPReader.sol\";\nimport { MerklePatriciaProof } from \"../lib/MerklePatriciaProof.sol\";\nimport { Merkle } from \"../lib/Merkle.sol\";\n\ncontract RootChainManager is IRootChainManager, AccessControl {\n  using RLPReader for bytes;\n  using RLPReader for RLPReader.RLPItem;\n  using Merkle for bytes32;\n\n  // Transfer(address,address,uint256)\n  bytes32 constant TRANSFER_EVENT_SIG = 0xddf252ad1be2c89b69c2b068fc378daa952ba7f163c4a11628f55a4df523b3ef;\n  bytes32 public constant MAPPER_ROLE = keccak256(\"MAPPER_ROLE\");\n  uint256 public constant MAX_LOGS = 10;\n\n  IStateSender private _stateSender;\n  ICheckpointManager private _checkpointManager;\n  address private _childChainManagerAddress;\n  address private _WETHAddress;\n  mapping(address => address) private _rootToChildToken;\n  mapping(address => address) private _childToRootToken;\n  mapping(bytes32 => bool) private _exitedTxs;\n\n  constructor() public {\n    _setupRole(DEFAULT_ADMIN_ROLE, msg.sender);\n    _setupRole(MAPPER_ROLE, msg.sender);\n  }\n\n  modifier only(bytes32 role) {\n    require(\n      hasRole(role, msg.sender),\n      \"Insufficient permissions\"\n    );\n    _;\n  }\n\n  function setStateSender(address newStateSender) override external only(DEFAULT_ADMIN_ROLE) {\n    _stateSender = IStateSender(newStateSender);\n  }\n\n  function stateSenderAddress() public view returns (address) {\n    return address(_stateSender);\n  }\n\n  function setCheckpointManager(address newCheckpointManager) override external only(DEFAULT_ADMIN_ROLE) {\n    _checkpointManager = ICheckpointManager(newCheckpointManager);\n  }\n\n  function checkpointManagerAddress() public view returns (address) {\n    return address(_checkpointManager);\n  }\n\n  function setChildChainManagerAddress(address newChildChainManager) external only(DEFAULT_ADMIN_ROLE) {\n    _childChainManagerAddress = newChildChainManager;\n  }\n\n  function childChainManagerAddress() public view returns (address) {\n    return _childChainManagerAddress;\n  }\n\n  function setWETHAddress(address newWETHAddress) external only(DEFAULT_ADMIN_ROLE) {\n    _WETHAddress = newWETHAddress;\n  }\n\n  function WETHAddress() public view returns (address) {\n    return _WETHAddress;\n  }\n\n  function mapToken(address rootToken, address childToken) override external only(MAPPER_ROLE) {\n    _rootToChildToken[rootToken] = childToken;\n    _childToRootToken[childToken] = rootToken;\n    emit TokenMapped(rootToken, childToken);\n  }\n\n  function rootToChildToken(address rootToken) public view returns (address) {\n    return _rootToChildToken[rootToken];\n  }\n\n  function childToRootToken(address childToken) public view returns (address) {\n    return _childToRootToken[childToken];\n  }\n\n  function exitedTxs(bytes32 txHash) public view returns (bool) {\n    return _exitedTxs[txHash];\n  }\n\n  function depositEther() override external payable {\n    _depositEtherFor(msg.sender);\n  }\n\n  function depositEtherFor(address user) override external payable {\n    _depositEtherFor(user);\n  }\n\n  function _depositEtherFor(address user) private {\n    revert(\"Ether deposit under construction\");\n    // require(\n    //   _rootToChildToken[_WETHAddress] != address(0x0),\n    //   \"WETH not mapped\"\n    // );\n    // require(\n    //   address(_stateSender) != address(0x0),\n    //   \"stateSender not set\"\n    // );\n    // require(\n    //   address(_childChainManagerAddress) != address(0x0),\n    //   \"childChainManager not set\"\n    // );\n\n    // _stateSender.syncState(_childChainManagerAddress, abi.encode(user, _WETHAddress, msg.value));\n    // emit Locked(user, _WETHAddress, msg.value);\n  }\n\n  function deposit(address rootToken, uint256 amount) override external {\n    _depositFor(msg.sender, rootToken, amount);\n  }\n\n  function depositFor(address user, address rootToken, uint256 amount) override external {\n    _depositFor(user, rootToken, amount);\n  }\n\n  function _depositFor(address user, address rootToken, uint256 amount) private {\n    require(\n      _rootToChildToken[rootToken] != address(0x0),\n      \"Token not mapped\"\n    );\n    require(\n      IERC20(rootToken).allowance(msg.sender, address(this)) >= amount,\n      \"Token transfer not approved\"\n    );\n    require(\n      address(_stateSender) != address(0x0),\n      \"stateSender not set\"\n    );\n    require(\n      address(_childChainManagerAddress) != address(0x0),\n      \"childChainManager not set\"\n    );\n\n    IERC20(rootToken).transferFrom(msg.sender, address(this), amount);\n    _stateSender.syncState(_childChainManagerAddress, abi.encode(user, rootToken, amount));\n    emit Locked(user, rootToken, amount);\n  }\n\n  /**\n   * @param inputData RLP encoded data of the reference tx containing following list of fields\n   *  0 - headerNumber Header block number of which the reference tx was a part of\n   *  1 - blockProof Proof that the block header (in the child chain) is a leaf in the submitted merkle root\n   *  2 - blockNumber Block number of which the reference tx is a part of\n   *  3 - blockTime Reference tx block time\n   *  4 - blocktxRoot Transactions root of block\n   *  5 - blockReceiptsRoot Receipts root of block\n   *  6 - receipt Receipt of the reference transaction\n   *  7 - receiptProof Merkle proof of the reference receipt\n   *  8 - branchMask Merkle proof branchMask for the receipt\n   *  9 - logIndex Log Index to read from the receipt\n   *  10- hash of the reference transaction\n   */\n  function exit(bytes calldata inputData) override external {\n    RLPReader.RLPItem[] memory inputDataRLPList = inputData.toRlpItem().toList();\n\n    require(\n      _exitedTxs[bytes32(inputDataRLPList[10].toUint())] == false,\n      \"Exit already processed\"\n    );\n    _exitedTxs[bytes32(inputDataRLPList[10].toUint())] = true;\n\n    uint256 logIndex = inputDataRLPList[9].toUint();\n    require(logIndex < MAX_LOGS, \"Supporting a max of 10 logs\");\n    bytes memory receipt = inputDataRLPList[6].toBytes();\n    RLPReader.RLPItem[] memory receiptRLPList = receipt.toRlpItem().toList();\n    RLPReader.RLPItem[] memory logRLPList = receiptRLPList[3].toList()[logIndex].toList();\n\n    address childToken = RLPReader.toAddress(logRLPList[0]); // log address field\n    require(\n      _childToRootToken[childToken] != address(0),\n      \"Token not mapped\"\n    );\n\n    RLPReader.RLPItem[] memory logTopicRLPList = logRLPList[1].toList(); // topics\n    require(\n      bytes32(logTopicRLPList[0].toUint()) == TRANSFER_EVENT_SIG, // topic0 is event sig\n      \"Not a transfer event signature\"\n    );\n    require(\n      msg.sender == address(logTopicRLPList[1].toUint()), // from1 is from address\n      \"Withdrawer and burn exit tx do not match\"\n    );\n    require(\n      address(logTopicRLPList[2].toUint()) == address(0), // topic2 is to address\n      \"Not a burn event\"\n    );\n\n    // TODO: verify tx inclusion\n    // required?\n\n    require(\n      inputDataRLPList[8].toBytes().toRlpItem().toUint() &\n        0xFFFFFFFFFFFFFFFFFFFFFFFFFFFFFFFFFFFFFFFFFFFFFFFFFFFFFFFF00000000 ==\n        0,\n      \"Branch mask should be 32 bits\"\n    );\n\n    uint256 headerNumber = inputDataRLPList[0].toUint();\n    require(\n      MerklePatriciaProof.verify(\n        inputDataRLPList[6].toBytes(), // receipt\n        inputDataRLPList[8].toBytes(), // branchMask\n        inputDataRLPList[7].toBytes(), // receiptProof\n        bytes32(inputDataRLPList[5].toUint()) // receiptsRoot\n      ),\n      \"Invalid receipt merkle proof\"\n    );\n\n    uint256 blockNumber = inputDataRLPList[2].toUint();\n    checkBlockMembershipInCheckpoint(\n      blockNumber,\n      inputDataRLPList[3].toUint(), // blockTime\n      bytes32(inputDataRLPList[4].toUint()), // txRoot\n      bytes32(inputDataRLPList[5].toUint()), // receiptRoot\n      headerNumber,\n      inputDataRLPList[1].toBytes() // blockProof\n    );\n\n    IERC20(\n      _childToRootToken[childToken]\n    ).transfer(msg.sender, logRLPList[2].toUint());\n\n    emit Exited(msg.sender, _childToRootToken[childToken], logRLPList[2].toUint());\n  }\n\n  function checkBlockMembershipInCheckpoint(\n    uint256 blockNumber,\n    uint256 blockTime,\n    bytes32 txRoot,\n    bytes32 receiptRoot,\n    uint256 headerNumber,\n    bytes memory blockProof\n  )\n    internal\n    view\n    returns (uint256 /* createdAt */)\n  {\n    (bytes32 headerRoot, uint256 startBlock, , uint256 createdAt, ) =\n      _checkpointManager.headerBlocks(headerNumber);\n\n    require(\n      keccak256(\n        abi.encodePacked(blockNumber, blockTime, txRoot, receiptRoot)\n      ).checkMembership(\n        blockNumber - startBlock,\n        headerRoot,\n        blockProof\n      ),\n      \"Burn tx not part of submitted header\"\n    );\n    return createdAt;\n  }\n}\n",
  "sourcePath": "/Users/arth/Documents/Projects/pos-portal/contracts/root/RootChainManager.sol",
  "compiler": {
    "name": "solc",
    "version": "0.6.6+commit.6c089d02.Emscripten.clang"
  },
  "schemaVersion": "3.1.0",
  "updatedAt": "2020-04-30T19:45:39.300Z",
  "devdoc": {
    "methods": {
      "exit(bytes)": {
        "params": {
          "inputData": "RLP encoded data of the reference tx containing following list of fields 0 - headerNumber Header block number of which the reference tx was a part of 1 - blockProof Proof that the block header (in the child chain) is a leaf in the submitted merkle root 2 - blockNumber Block number of which the reference tx is a part of 3 - blockTime Reference tx block time 4 - blocktxRoot Transactions root of block 5 - blockReceiptsRoot Receipts root of block 6 - receipt Receipt of the reference transaction 7 - receiptProof Merkle proof of the reference receipt 8 - branchMask Merkle proof branchMask for the receipt 9 - logIndex Log Index to read from the receipt 10- hash of the reference transaction"
        }
      },
      "getRoleAdmin(bytes32)": {
        "details": "Returns the admin role that controls `role`. See {grantRole} and {revokeRole}.     * To change a role's admin, use {_setRoleAdmin}."
      },
      "getRoleMember(bytes32,uint256)": {
        "details": "Returns one of the accounts that have `role`. `index` must be a value between 0 and {getRoleMemberCount}, non-inclusive.     * Role bearers are not sorted in any particular way, and their ordering may change at any point.     * WARNING: When using {getRoleMember} and {getRoleMemberCount}, make sure you perform all queries on the same block. See the following https://forum.openzeppelin.com/t/iterating-over-elements-on-enumerableset-in-openzeppelin-contracts/2296[forum post] for more information."
      },
      "getRoleMemberCount(bytes32)": {
        "details": "Returns the number of accounts that have `role`. Can be used together with {getRoleMember} to enumerate all bearers of a role."
      },
      "grantRole(bytes32,address)": {
        "details": "Grants `role` to `account`.     * If `account` had not been already granted `role`, emits a {RoleGranted} event.     * Requirements:     * - the caller must have ``role``'s admin role."
      },
      "hasRole(bytes32,address)": {
        "details": "Returns `true` if `account` has been granted `role`."
      },
      "renounceRole(bytes32,address)": {
        "details": "Revokes `role` from the calling account.     * Roles are often managed via {grantRole} and {revokeRole}: this function's purpose is to provide a mechanism for accounts to lose their privileges if they are compromised (such as when a trusted device is misplaced).     * If the calling account had been granted `role`, emits a {RoleRevoked} event.     * Requirements:     * - the caller must be `account`."
      },
      "revokeRole(bytes32,address)": {
        "details": "Revokes `role` from `account`.     * If `account` had been granted `role`, emits a {RoleRevoked} event.     * Requirements:     * - the caller must have ``role``'s admin role."
      }
    }
  },
  "userdoc": {
    "methods": {}
  }
}