{"abi":[{"type":"constructor","inputs":[],"stateMutability":"nonpayable"},{"type":"function","name":"DEFAULT_ADMIN_ROLE","inputs":[],"outputs":[{"name":"","type":"bytes32","internalType":"bytes32"}],"stateMutability":"view"},{"type":"function","name":"MANAGER_ROLE","inputs":[],"outputs":[{"name":"","type":"bytes32","internalType":"bytes32"}],"stateMutability":"view"},{"type":"function","name":"TOKEN_TYPE","inputs":[],"outputs":[{"name":"","type":"bytes32","internalType":"bytes32"}],"stateMutability":"view"},{"type":"function","name":"TRANSFER_BATCH_EVENT_SIG","inputs":[],"outputs":[{"name":"","type":"bytes32","internalType":"bytes32"}],"stateMutability":"view"},{"type":"function","name":"TRANSFER_SINGLE_EVENT_SIG","inputs":[],"outputs":[{"name":"","type":"bytes32","internalType":"bytes32"}],"stateMutability":"view"},{"type":"function","name":"exitTokens","inputs":[{"name":"rootToken","type":"address","internalType":"address"},{"name":"log","type":"bytes","internalType":"bytes"}],"outputs":[],"stateMutability":"nonpayable"},{"type":"function","name":"getRoleAdmin","inputs":[{"name":"role","type":"bytes32","internalType":"bytes32"}],"outputs":[{"name":"","type":"bytes32","internalType":"bytes32"}],"stateMutability":"view"},{"type":"function","name":"getRoleMember","inputs":[{"name":"role","type":"bytes32","internalType":"bytes32"},{"name":"index","type":"uint256","internalType":"uint256"}],"outputs":[{"name":"","type":"address","internalType":"address"}],"stateMutability":"view"},{"type":"function","name":"getRoleMemberCount","inputs":[{"name":"role","type":"bytes32","internalType":"bytes32"}],"outputs":[{"name":"","type":"uint256","internalType":"uint256"}],"stateMutability":"view"},{"type":"function","name":"grantRole","inputs":[{"name":"role","type":"bytes32","internalType":"bytes32"},{"name":"account","type":"address","internalType":"address"}],"outputs":[],"stateMutability":"nonpayable"},{"type":"function","name":"hasRole","inputs":[{"name":"role","type":"bytes32","internalType":"bytes32"},{"name":"account","type":"address","internalType":"address"}],"outputs":[{"name":"","type":"bool","internalType":"bool"}],"stateMutability":"view"},{"type":"function","name":"initialize","inputs":[{"name":"_owner","type":"address","internalType":"address"}],"outputs":[],"stateMutability":"nonpayable"},{"type":"function","name":"lockTokens","inputs":[{"name":"depositor","type":"address","internalType":"address"},{"name":"depositReceiver","type":"address","internalType":"address"},{"name":"rootToken","type":"address","internalType":"address"},{"name":"depositData","type":"bytes","internalType":"bytes"}],"outputs":[],"stateMutability":"nonpayable"},{"type":"function","name":"onERC1155BatchReceived","inputs":[{"name":"","type":"address","internalType":"address"},{"name":"","type":"address","internalType":"address"},{"name":"","type":"uint256[]","internalType":"uint256[]"},{"name":"","type":"uint256[]","internalType":"uint256[]"},{"name":"","type":"bytes","internalType":"bytes"}],"outputs":[{"name":"","type":"bytes4","internalType":"bytes4"}],"stateMutability":"nonpayable"},{"type":"function","name":"onERC1155Received","inputs":[{"name":"","type":"address","internalType":"address"},{"name":"","type":"address","internalType":"address"},{"name":"","type":"uint256","internalType":"uint256"},{"name":"","type":"uint256","internalType":"uint256"},{"name":"","type":"bytes","internalType":"bytes"}],"outputs":[{"name":"","type":"bytes4","internalType":"bytes4"}],"stateMutability":"nonpayable"},{"type":"function","name":"renounceRole","inputs":[{"name":"role","type":"bytes32","internalType":"bytes32"},{"name":"account","type":"address","internalType":"address"}],"outputs":[],"stateMutability":"nonpayable"},{"type":"function","name":"revokeRole","inputs":[{"name":"role","type":"bytes32","internalType":"bytes32"},{"name":"account","type":"address","internalType":"address"}],"outputs":[],"stateMutability":"nonpayable"},{"type":"function","name":"supportsInterface","inputs":[{"name":"interfaceId","type":"bytes4","internalType":"bytes4"}],"outputs":[{"name":"","type":"bool","internalType":"bool"}],"stateMutability":"view"},{"type":"event","name":"ExitedBatchERC1155","inputs":[{"name":"exitor","type":"address","indexed":true,"internalType":"address"},{"name":"rootToken","type":"address","indexed":true,"internalType":"address"},{"name":"ids","type":"uint256[]","indexed":false,"internalType":"uint256[]"},{"name":"amounts","type":"uint256[]","indexed":false,"internalType":"uint256[]"}],"anonymous":false},{"type":"event","name":"ExitedERC1155","inputs":[{"name":"exitor","type":"address","indexed":true,"internalType":"address"},{"name":"rootToken","type":"address","indexed":true,"internalType":"address"},{"name":"id","type":"uint256","indexed":false,"internalType":"uint256"},{"name":"amount","type":"uint256","indexed":false,"internalType":"uint256"}],"anonymous":false},{"type":"event","name":"LockedBatchERC1155","inputs":[{"name":"depositor","type":"address","indexed":true,"internalType":"address"},{"name":"depositReceiver","type":"address","indexed":true,"internalType":"address"},{"name":"rootToken","type":"address","indexed":true,"internalType":"address"},{"name":"ids","type":"uint256[]","indexed":false,"internalType":"uint256[]"},{"name":"amounts","type":"uint256[]","indexed":false,"internalType":"uint256[]"}],"anonymous":false},{"type":"event","name":"RoleAdminChanged","inputs":[{"name":"role","type":"bytes32","indexed":true,"internalType":"bytes32"},{"name":"previousAdminRole","type":"bytes32","indexed":true,"internalType":"bytes32"},{"name":"newAdminRole","type":"bytes32","indexed":true,"internalType":"bytes32"}],"anonymous":false},{"type":"event","name":"RoleGranted","inputs":[{"name":"role","type":"bytes32","indexed":true,"internalType":"bytes32"},{"name":"account","type":"address","indexed":true,"internalType":"address"},{"name":"sender","type":"address","indexed":true,"internalType":"address"}],"anonymous":false},{"type":"event","name":"RoleRevoked","inputs":[{"name":"role","type":"bytes32","indexed":true,"internalType":"bytes32"},{"name":"account","type":"address","indexed":true,"internalType":"address"},{"name":"sender","type":"address","indexed":true,"internalType":"address"}],"anonymous":false}],"bytecode":{"object":"0x60806040526003805460ff1916905534801561001a57600080fd5b506100346301ffc9a760e01b6001600160e01b0361005216565b61004d630271189760e51b6001600160e01b0361005216565b6100d6565b6001600160e01b031980821614156100b1576040805162461bcd60e51b815260206004820152601c60248201527f4552433136353a20696e76616c696420696e7465726661636520696400000000604482015290519081900360640190fd5b6001600160e01b0319166000908152602081905260409020805460ff19166001179055565b611e7380620000e66000396000f3fe608060405234801561001057600080fd5b50600436106101165760003560e01c8063c4d66de8116100a2578063e9cff29111610071578063e9cff2911461049c578063eacc7af2146104a4578063ec87621c146104ac578063f23a6e61146104b4578063f741a4171461054757610116565b8063c4d66de81461039e578063ca15c873146103c4578063d547741f146103e1578063e375b64e1461040d57610116565b8063609c92b8116100e9578063609c92b8146101df5780639010d07c146101e757806391d1485414610226578063a217fddf14610252578063bc197c811461025a57610116565b806301ffc9a71461011b578063248a9ca3146101565780632f2ff15d1461018557806336568abe146101b3575b600080fd5b6101426004803603602081101561013157600080fd5b50356001600160e01b0319166105c5565b604080519115158252519081900360200190f35b6101736004803603602081101561016c57600080fd5b50356105e8565b60408051918252519081900360200190f35b6101b16004803603604081101561019b57600080fd5b50803590602001356001600160a01b03166105fd565b005b6101b1600480360360408110156101c957600080fd5b50803590602001356001600160a01b0316610669565b6101736106ca565b61020a600480360360408110156101fd57600080fd5b50803590602001356106e9565b604080516001600160a01b039092168252519081900360200190f35b6101426004803603604081101561023c57600080fd5b50803590602001356001600160a01b0316610710565b61017361072e565b610381600480360360a081101561027057600080fd5b6001600160a01b038235811692602081013590911691810190606081016040820135600160201b8111156102a357600080fd5b8201836020820111156102b557600080fd5b803590602001918460208302840111600160201b831117156102d657600080fd5b919390929091602081019035600160201b8111156102f357600080fd5b82018360208201111561030557600080fd5b803590602001918460208302840111600160201b8311171561032657600080fd5b919390929091602081019035600160201b81111561034357600080fd5b82018360208201111561035557600080fd5b803590602001918460018302840111600160201b8311171561037657600080fd5b509092509050610733565b604080516001600160e01b03199092168252519081900360200190f35b6101b1600480360360208110156103b457600080fd5b50356001600160a01b0316610747565b610173600480360360208110156103da57600080fd5b5035610807565b6101b1600480360360408110156103f757600080fd5b50803590602001356001600160a01b031661081e565b6101b16004803603608081101561042357600080fd5b6001600160a01b0382358116926020810135821692604082013590921691810190608081016060820135600160201b81111561045e57600080fd5b82018360208201111561047057600080fd5b803590602001918460018302840111600160201b8311171561049157600080fd5b509092509050610877565b610173610d47565b610173610d6b565b610173610d8f565b610381600480360360a08110156104ca57600080fd5b6001600160a01b03823581169260208101359091169160408201359160608101359181019060a081016080820135600160201b81111561050957600080fd5b82018360208201111561051b57600080fd5b803590602001918460018302840111600160201b8311171561053c57600080fd5b509092509050610db3565b6101b16004803603604081101561055d57600080fd5b6001600160a01b038235169190810190604081016020820135600160201b81111561058757600080fd5b82018360208201111561059957600080fd5b803590602001918460018302840111600160201b831117156105ba57600080fd5b509092509050610dbf565b6001600160e01b0319811660009081526020819052604090205460ff165b919050565b60009081526001602052604090206002015490565b6000828152600160205260409020600201546106209061061b61154b565b610710565b61065b5760405162461bcd60e51b815260040180806020018281038252602f815260200180611d68602f913960400191505060405180910390fd5b6106658282611550565b5050565b61067161154b565b6001600160a01b0316816001600160a01b0316146106c05760405162461bcd60e51b815260040180806020018281038252602f815260200180611e0f602f913960400191505060405180910390fd5b61066582826115bf565b60408051664552433131353560c81b8152905190819003600701902081565b6000828152600160205260408120610707908363ffffffff61162e16565b90505b92915050565b6000828152600160205260408120610707908363ffffffff61163a16565b600081565b63bc197c8160e01b98975050505050505050565b60035460ff1615610790576040805162461bcd60e51b815260206004820152600e60248201526d185b1c9958591e481a5b9a5d195960921b604482015290519081900360640190fd5b6107c16040518060400160405280601081526020016f4552433131353550726564696361746560801b81525061164f565b6107cc60008261065b565b604080516b4d414e414745525f524f4c4560a01b8152905190819003600c0190206107f7908261065b565b506003805460ff19166001179055565b600081815260016020526040812061070a906116ed565b60008281526001602052604090206002015461083c9061061b61154b565b6106c05760405162461bcd60e51b8152600401808060200182810382526030815260200180611ddf6030913960400191505060405180910390fd5b604080516b4d414e414745525f524f4c4560a01b8152905190819003600c0190206108a48161061b61154b565b6002906109445760405162461bcd60e51b81526020600482019081528254600260001961010060018416150201909116046024830181905290918291604490910190849080156109355780601f1061090a57610100808354040283529160200191610935565b820191906000526020600020905b81548152906001019060200180831161091857829003601f168201915b50509250505060405180910390fd5b5060608060608585606081101561095a57600080fd5b810190602081018135600160201b81111561097457600080fd5b82018360208201111561098657600080fd5b803590602001918460208302840111600160201b831117156109a757600080fd5b9190808060200260200160405190810160405280939291908181526020018383602002808284376000920191909152509295949360208101935035915050600160201b8111156109f657600080fd5b820183602082011115610a0857600080fd5b803590602001918460208302840111600160201b83111715610a2957600080fd5b9190808060200260200160405190810160405280939291908181526020018383602002808284376000920191909152509295949360208101935035915050600160201b811115610a7857600080fd5b820183602082011115610a8a57600080fd5b803590602001918460018302840111600160201b83111715610aab57600080fd5b91908080601f016020809104026020016040519081016040528093929190818152602001838380828437600081840152601f19601f820116905080830192505050505050509192919290505050925092509250866001600160a01b0316886001600160a01b03168a6001600160a01b03167f5a921678b5779e4471b77219741a417a6ad6ec5d89fa5c8ce8cd7bd2d9f341868686604051808060200180602001838103835285818151815260200191508051906020019060200280838360005b83811015610b83578181015183820152602001610b6b565b50505050905001838103825284818151815260200191508051906020019060200280838360005b83811015610bc2578181015183820152602001610baa565b5050505090500194505050505060405180910390a4604051631759616b60e11b81526001600160a01b038a811660048301908152306024840181905260a060448501908152875160a48601528751938c1694632eb2c2d6948f948a938a938a936064820191608481019160c4909101906020808a01910280838360005b83811015610c57578181015183820152602001610c3f565b50505050905001848103835286818151815260200191508051906020019060200280838360005b83811015610c96578181015183820152602001610c7e565b50505050905001848103825285818151815260200191508051906020019080838360005b83811015610cd2578181015183820152602001610cba565b50505050905090810190601f168015610cff5780820380516001836020036101000a031916815260200191505b5098505050505050505050600060405180830381600087803b158015610d2457600080fd5b505af1158015610d38573d6000803e3d6000fd5b50505050505050505050505050565b7fc3d58168c5ae7397731d063d5bbf3d657854427343f4c083240f7aacaa2d0f6281565b7f4a39dc06d4c0dbc64b70af90fd698a233a518aa5d07e595d983b8c0526c8f7fb81565b604080516b4d414e414745525f524f4c4560a01b8152905190819003600c01902081565b60009695505050505050565b604080516b4d414e414745525f524f4c4560a01b8152905190819003600c019020610dec8161061b61154b565b600290610e525760405162461bcd60e51b81526020600482019081528254600260001961010060018416150201909116046024830181905290918291604490910190849080156109355780601f1061090a57610100808354040283529160200191610935565b506060610e9c610e9785858080601f0160208091040260200160405190810160405280939291908181526020018383808284376000920191909152506116f892505050565b61171d565b90506060610ebd82600181518110610eb057fe5b602002602001015161171d565b90506060610ede83600281518110610ed157fe5b6020026020010151611805565b90506000610eff83600281518110610ef257fe5b6020026020010151611882565b905060006001600160a01b0316610f1c84600381518110610ef257fe5b6001600160a01b031614610f615760405162461bcd60e51b8152600401808060200182810382526022815260200180611dbd6022913960400191505060405180910390fd5b7fc3d58168c5ae7397731d063d5bbf3d657854427343f4c083240f7aacaa2d0f6260001b610f9584600081518110610ef257fe5b141561113f57600080838060200190516040811015610fb357600080fd5b81019080805190602001909291908051906020019092919050505091509150896001600160a01b031663f242432a30858585604051806020016040528060008152506040518663ffffffff1660e01b815260040180866001600160a01b03166001600160a01b03168152602001856001600160a01b03166001600160a01b0316815260200184815260200183815260200180602001828103825283818151815260200191508051906020019080838360005b8381101561107d578181015183820152602001611065565b50505050905090810190601f1680156110aa5780820380516001836020036101000a031916815260200191505b509650505050505050600060405180830381600087803b1580156110cd57600080fd5b505af11580156110e1573d6000803e3d6000fd5b50505050896001600160a01b0316836001600160a01b03167fd67111005094cf8cfa95e08877f94a651fa0b77d114471ca2991151d6ab7faa38484604051808381526020018281526020019250505060405180910390a35050611541565b7f4a39dc06d4c0dbc64b70af90fd698a233a518aa5d07e595d983b8c0526c8f7fb60001b61117384600081518110610ef257fe5b141561150a5760608083806020019051604081101561119157600080fd5b8101908080516040519392919084600160201b8211156111b057600080fd5b9083019060208201858111156111c557600080fd5b82518660208202830111600160201b821117156111e157600080fd5b82525081516020918201928201910280838360005b8381101561120e5781810151838201526020016111f6565b5050505090500160405260200180516040519392919084600160201b82111561123657600080fd5b90830190602082018581111561124b57600080fd5b82518660208202830111600160201b8211171561126757600080fd5b82525081516020918201928201910280838360005b8381101561129457818101518382015260200161127c565b5050505090500160405250505091509150896001600160a01b0316632eb2c2d630858585604051806020016040528060008152506040518663ffffffff1660e01b815260040180866001600160a01b03166001600160a01b03168152602001856001600160a01b03166001600160a01b03168152602001806020018060200180602001848103845287818151815260200191508051906020019060200280838360005b8381101561134f578181015183820152602001611337565b50505050905001848103835286818151815260200191508051906020019060200280838360005b8381101561138e578181015183820152602001611376565b50505050905001848103825285818151815260200191508051906020019080838360005b838110156113ca5781810151838201526020016113b2565b50505050905090810190601f1680156113f75780820380516001836020036101000a031916815260200191505b5098505050505050505050600060405180830381600087803b15801561141c57600080fd5b505af1158015611430573d6000803e3d6000fd5b50505050896001600160a01b0316836001600160a01b03167f869b80aaea02f34f7fb379faec6f4b1ae676cad20fe5603715fdaac6f135f5968484604051808060200180602001838103835285818151815260200191508051906020019060200280838360005b838110156114af578181015183820152602001611497565b50505050905001838103825284818151815260200191508051906020019060200280838360005b838110156114ee5781810151838201526020016114d6565b5050505090500194505050505060405180910390a35050611541565b60405162461bcd60e51b8152600401808060200182810382526026815260200180611d976026913960400191505060405180910390fd5b5050505050505050565b335b90565b600082815260016020526040902061156e908263ffffffff6118d016565b156106655761157b61154b565b6001600160a01b0316816001600160a01b0316837f2f8788117e7eff1d82e926ec794901d17c78024a50270940304540a733656f0d60405160405180910390a45050565b60008281526001602052604090206115dd908263ffffffff6118e516565b15610665576115ea61154b565b6001600160a01b0316816001600160a01b0316837ff6391f5c32d9c69d2a47ea670b442974b53935d1edc7fd64eb21e047a839171b60405160405180910390a45050565b600061070783836118fa565b6000610707836001600160a01b03841661195e565b806040516020018082805190602001908083835b602083106116825780518252601f199092019160209182019101611663565b51815160209384036101000a60001901801990921691161790527f3a20494e53554646494349454e545f5045524d495353494f4e530000000000009190930190815260408051808303600519018152601a909201905280516106659550600294509201919050611c93565b600061070a82611976565b611700611d11565b506040805180820190915281518152602082810190820152919050565b60606117288261197a565b61173157600080fd5b600061173c836119b4565b905060608167ffffffffffffffff8111801561175757600080fd5b5060405190808252806020026020018201604052801561179157816020015b61177e611d11565b8152602001906001900390816117765790505b50905060006117a38560200151611a10565b60208601510190506000805b848110156117fa576117c083611a73565b91506040518060400160405280838152602001848152508482815181106117e357fe5b6020908102919091010152918101916001016117af565b509195945050505050565b805160609061181357600080fd5b60008061181f84611b0c565b9150915060608167ffffffffffffffff8111801561183c57600080fd5b506040519080825280601f01601f191660200182016040528015611867576020820181803683370190505b50905060208101611879848285611b32565b50949350505050565b80516000901580159061189757508151602110155b6118a057600080fd5b6000806118ac84611b0c565b8151919350915060208210156118c85760208290036101000a90045b949350505050565b6000610707836001600160a01b038416611b83565b6000610707836001600160a01b038416611bcd565b8154600090821061193c5760405162461bcd60e51b8152600401808060200182810382526022815260200180611d466022913960400191505060405180910390fd5b82600001828154811061194b57fe5b9060005260206000200154905092915050565b60009081526001919091016020526040902054151590565b5490565b805160009061198b575060006105e3565b6020820151805160001a9060c08210156119aa576000925050506105e3565b5060019392505050565b80516000906119c5575060006105e3565b600080905060006119d98460200151611a10565b602085015185519181019250015b80821015611a07576119f882611a73565b600190930192909101906119e7565b50909392505050565b8051600090811a6080811015611a2a5760009150506105e3565b60b8811080611a45575060c08110801590611a45575060f881105b15611a545760019150506105e3565b60c0811015611a685760b5190190506105e3565b60f5190190506105e3565b80516000908190811a6080811015611a8e5760019150611b05565b60b8811015611aa357607e1981019150611b05565b60c0811015611ad05760b78103600185019450806020036101000a85510460018201810193505050611b05565b60f8811015611ae55760be1981019150611b05565b60f78103600185019450806020036101000a855104600182018101935050505b5092915050565b6000806000611b1e8460200151611a10565b602085015194519481019594039392505050565b80611b3c57611b7e565b5b60208110611b5c578251825260209283019290910190601f1901611b3d565b8015611b7e578251825160208390036101000a60001901801990921691161782525b505050565b6000611b8f838361195e565b611bc55750815460018181018455600084815260208082209093018490558454848252828601909352604090209190915561070a565b50600061070a565b60008181526001830160205260408120548015611c895783546000198083019190810190600090879083908110611c0057fe5b9060005260206000200154905080876000018481548110611c1d57fe5b600091825260208083209091019290925582815260018981019092526040902090840190558654879080611c4d57fe5b6001900381819060005260206000200160009055905586600101600087815260200190815260200160002060009055600194505050505061070a565b600091505061070a565b828054600181600116156101000203166002900490600052602060002090601f016020900481019282601f10611cd457805160ff1916838001178555611d01565b82800160010185558215611d01579182015b82811115611d01578251825591602001919060010190611ce6565b50611d0d929150611d2b565b5090565b604051806040016040528060008152602001600081525090565b61154d91905b80821115611d0d5760008155600101611d3156fe456e756d657261626c655365743a20696e646578206f7574206f6620626f756e6473416363657373436f6e74726f6c3a2073656e646572206d75737420626520616e2061646d696e20746f206772616e74455243313135355072656469636174653a20494e56414c49445f57495448445241575f534947455243313135355072656469636174653a20494e56414c49445f5245434549564552416363657373436f6e74726f6c3a2073656e646572206d75737420626520616e2061646d696e20746f207265766f6b65416363657373436f6e74726f6c3a2063616e206f6e6c792072656e6f756e636520726f6c657320666f722073656c66a264697066735822122080f8c607a14b19cb215dd3452f1017695ae4b8a933274b518c6b2c5fbef14a1b64736f6c63430006060033","linkReferences":{}},"methodIdentifiers":{"DEFAULT_ADMIN_ROLE()":"a217fddf","MANAGER_ROLE()":"ec87621c","TOKEN_TYPE()":"609c92b8","TRANSFER_BATCH_EVENT_SIG()":"eacc7af2","TRANSFER_SINGLE_EVENT_SIG()":"e9cff291","exitTokens(address,bytes)":"f741a417","getRoleAdmin(bytes32)":"248a9ca3","getRoleMember(bytes32,uint256)":"9010d07c","getRoleMemberCount(bytes32)":"ca15c873","grantRole(bytes32,address)":"2f2ff15d","hasRole(bytes32,address)":"91d14854","initialize(address)":"c4d66de8","lockTokens(address,address,address,bytes)":"e375b64e","onERC1155BatchReceived(address,address,uint256[],uint256[],bytes)":"bc197c81","onERC1155Received(address,address,uint256,uint256,bytes)":"f23a6e61","renounceRole(bytes32,address)":"36568abe","revokeRole(bytes32,address)":"d547741f","supportsInterface(bytes4)":"01ffc9a7"},"id":49}